{
	"contracts/MultiSign.sol": {
		"MultiSign": {
			"abi": [
				{
					"inputs": [],
					"stateMutability": "nonpayable",
					"type": "constructor"
				},
				{
					"anonymous": false,
					"inputs": [
						{
							"indexed": false,
							"internalType": "uint256",
							"name": "",
							"type": "uint256"
						},
						{
							"indexed": false,
							"internalType": "string",
							"name": "",
							"type": "string"
						}
					],
					"name": "TransactionLog",
					"type": "event"
				},
				{
					"inputs": [],
					"name": "admin",
					"outputs": [
						{
							"internalType": "address",
							"name": "",
							"type": "address"
						}
					],
					"stateMutability": "view",
					"type": "function"
				},
				{
					"inputs": [
						{
							"internalType": "uint256",
							"name": "transactionId",
							"type": "uint256"
						}
					],
					"name": "confirmTransaction",
					"outputs": [
						{
							"internalType": "bool",
							"name": "execute",
							"type": "bool"
						}
					],
					"stateMutability": "nonpayable",
					"type": "function"
				},
				{
					"inputs": [
						{
							"internalType": "uint256",
							"name": "",
							"type": "uint256"
						},
						{
							"internalType": "address",
							"name": "",
							"type": "address"
						}
					],
					"name": "confirmations",
					"outputs": [
						{
							"internalType": "bool",
							"name": "",
							"type": "bool"
						}
					],
					"stateMutability": "view",
					"type": "function"
				},
				{
					"inputs": [],
					"name": "echo",
					"outputs": [
						{
							"internalType": "string",
							"name": "",
							"type": "string"
						}
					],
					"stateMutability": "pure",
					"type": "function"
				},
				{
					"inputs": [
						{
							"internalType": "uint256",
							"name": "transactionId",
							"type": "uint256"
						}
					],
					"name": "executeTxState",
					"outputs": [
						{
							"internalType": "bool",
							"name": "",
							"type": "bool"
						}
					],
					"stateMutability": "nonpayable",
					"type": "function"
				},
				{
					"inputs": [
						{
							"internalType": "uint256",
							"name": "transactionId",
							"type": "uint256"
						}
					],
					"name": "findTransaction",
					"outputs": [
						{
							"components": [
								{
									"internalType": "address",
									"name": "destination",
									"type": "address"
								},
								{
									"internalType": "uint256",
									"name": "value",
									"type": "uint256"
								},
								{
									"internalType": "bool",
									"name": "executed",
									"type": "bool"
								}
							],
							"internalType": "struct MultiSign.Transaction",
							"name": "trans",
							"type": "tuple"
						}
					],
					"stateMutability": "view",
					"type": "function"
				},
				{
					"inputs": [],
					"name": "isAllAgree",
					"outputs": [
						{
							"internalType": "bool",
							"name": "",
							"type": "bool"
						}
					],
					"stateMutability": "view",
					"type": "function"
				},
				{
					"inputs": [
						{
							"internalType": "uint256",
							"name": "transactionId",
							"type": "uint256"
						}
					],
					"name": "isConfirmed",
					"outputs": [
						{
							"internalType": "bool",
							"name": "",
							"type": "bool"
						}
					],
					"stateMutability": "view",
					"type": "function"
				},
				{
					"inputs": [
						{
							"internalType": "address",
							"name": "",
							"type": "address"
						}
					],
					"name": "isOwner",
					"outputs": [
						{
							"internalType": "bool",
							"name": "",
							"type": "bool"
						}
					],
					"stateMutability": "view",
					"type": "function"
				},
				{
					"inputs": [
						{
							"internalType": "uint256",
							"name": "",
							"type": "uint256"
						}
					],
					"name": "owners",
					"outputs": [
						{
							"internalType": "address",
							"name": "",
							"type": "address"
						}
					],
					"stateMutability": "view",
					"type": "function"
				},
				{
					"inputs": [],
					"name": "required",
					"outputs": [
						{
							"internalType": "uint256",
							"name": "",
							"type": "uint256"
						}
					],
					"stateMutability": "view",
					"type": "function"
				},
				{
					"inputs": [
						{
							"internalType": "address[]",
							"name": "_owners",
							"type": "address[]"
						},
						{
							"internalType": "uint256",
							"name": "_required",
							"type": "uint256"
						}
					],
					"name": "setOwners",
					"outputs": [],
					"stateMutability": "nonpayable",
					"type": "function"
				},
				{
					"inputs": [
						{
							"internalType": "bool",
							"name": "isReq",
							"type": "bool"
						}
					],
					"name": "setRequired",
					"outputs": [],
					"stateMutability": "nonpayable",
					"type": "function"
				},
				{
					"inputs": [
						{
							"internalType": "address",
							"name": "destination",
							"type": "address"
						},
						{
							"internalType": "uint256",
							"name": "value",
							"type": "uint256"
						}
					],
					"name": "submitTransaction",
					"outputs": [
						{
							"internalType": "uint256",
							"name": "transactionId",
							"type": "uint256"
						}
					],
					"stateMutability": "nonpayable",
					"type": "function"
				},
				{
					"inputs": [],
					"name": "transactionCount",
					"outputs": [
						{
							"internalType": "uint256",
							"name": "",
							"type": "uint256"
						}
					],
					"stateMutability": "view",
					"type": "function"
				},
				{
					"inputs": [
						{
							"internalType": "uint256",
							"name": "",
							"type": "uint256"
						}
					],
					"name": "transactions",
					"outputs": [
						{
							"internalType": "address",
							"name": "destination",
							"type": "address"
						},
						{
							"internalType": "uint256",
							"name": "value",
							"type": "uint256"
						},
						{
							"internalType": "bool",
							"name": "executed",
							"type": "bool"
						}
					],
					"stateMutability": "view",
					"type": "function"
				}
			],
			"devdoc": {
				"kind": "dev",
				"methods": {},
				"version": 1
			},
			"evm": {
				"assembly": "    /* \"contracts/MultiSign.sol\":79:5132  contract MultiSign {... */\n  mstore(0x40, 0x80)\n    /* \"contracts/MultiSign.sol\":783:784  1 */\n  0x01\n    /* \"contracts/MultiSign.sol\":757:784  uint256 public required = 1 */\n  0x05\n  sstore\n    /* \"contracts/MultiSign.sol\":822:823  0 */\n  0x00\n    /* \"contracts/MultiSign.sol\":791:824  address public admin = address(0) */\n  0x06\n  exp(0x0100, 0x00)\n  dup2\n  sload\n  dup2\n  0xffffffffffffffffffffffffffffffffffffffff\n  mul\n  not\n  and\n  swap1\n  dup4\n  0xffffffffffffffffffffffffffffffffffffffff\n  and\n  mul\n  or\n  swap1\n  sstore\n  pop\n    /* \"contracts/MultiSign.sol\":856:861  false */\n  0x00\n    /* \"contracts/MultiSign.sol\":831:861  bool public isAllAgree = false */\n  0x06\n  exp(0x0100, 0x14)\n  dup2\n  sload\n  dup2\n  0xff\n  mul\n  not\n  and\n  swap1\n  dup4\n  iszero\n  iszero\n  mul\n  or\n  swap1\n  sstore\n  pop\n    /* \"contracts/MultiSign.sol\":911:1082  constructor() {... */\n  callvalue\n  dup1\n  iszero\n  tag_1\n  jumpi\n  0x00\n  dup1\n  revert\ntag_1:\n  pop\n    /* \"contracts/MultiSign.sol\":943:953  msg.sender */\n  caller\n    /* \"contracts/MultiSign.sol\":935:940  admin */\n  0x06\n  0x00\n    /* \"contracts/MultiSign.sol\":935:953  admin = msg.sender */\n  0x0100\n  exp\n  dup2\n  sload\n  dup2\n  0xffffffffffffffffffffffffffffffffffffffff\n  mul\n  not\n  and\n  swap1\n  dup4\n  0xffffffffffffffffffffffffffffffffffffffff\n  and\n  mul\n  or\n  swap1\n  sstore\n  pop\n    /* \"contracts/MultiSign.sol\":996:1002  owners */\n  0x04\n    /* \"contracts/MultiSign.sol\":1008:1013  admin */\n  0x06\n  0x00\n  swap1\n  sload\n  swap1\n  0x0100\n  exp\n  swap1\n  div\n  0xffffffffffffffffffffffffffffffffffffffff\n  and\n    /* \"contracts/MultiSign.sol\":996:1014  owners.push(admin) */\n  swap1\n  dup1\n  0x01\n  dup2\n  sload\n  add\n  dup1\n  dup3\n  sstore\n  dup1\n  swap2\n  pop\n  pop\n  0x01\n  swap1\n  sub\n  swap1\n  0x00\n  mstore\n  keccak256(0x00, 0x20)\n  add\n  0x00\n  swap1\n  swap2\n  swap1\n  swap2\n  swap1\n  swap2\n  0x0100\n  exp\n  dup2\n  sload\n  dup2\n  0xffffffffffffffffffffffffffffffffffffffff\n  mul\n  not\n  and\n  swap1\n  dup4\n  0xffffffffffffffffffffffffffffffffffffffff\n  and\n  mul\n  or\n  swap1\n  sstore\n  pop\n    /* \"contracts/MultiSign.sol\":1074:1075  1 */\n  0x01\n    /* \"contracts/MultiSign.sol\":1063:1071  required */\n  0x05\n    /* \"contracts/MultiSign.sol\":1063:1075  required = 1 */\n  dup2\n  swap1\n  sstore\n  pop\n    /* \"contracts/MultiSign.sol\":79:5132  contract MultiSign {... */\n  dataSize(sub_0)\n  dup1\n  dataOffset(sub_0)\n  0x00\n  codecopy\n  0x00\n  return\nstop\n\nsub_0: assembly {\n        /* \"contracts/MultiSign.sol\":79:5132  contract MultiSign {... */\n      mstore(0x40, 0x80)\n      callvalue\n      dup1\n      iszero\n      tag_1\n      jumpi\n      0x00\n      dup1\n      revert\n    tag_1:\n      pop\n      jumpi(tag_2, lt(calldatasize, 0x04))\n      shr(0xe0, calldataload(0x00))\n      dup1\n      0xb06395f3\n      gt\n      tag_19\n      jumpi\n      dup1\n      0xdc8452cd\n      gt\n      tag_20\n      jumpi\n      dup1\n      0xdc8452cd\n      eq\n      tag_15\n      jumpi\n      dup1\n      0xdf5cb5a0\n      eq\n      tag_16\n      jumpi\n      dup1\n      0xf72c1c8b\n      eq\n      tag_17\n      jumpi\n      dup1\n      0xf851a440\n      eq\n      tag_18\n      jumpi\n      jump(tag_2)\n    tag_20:\n      dup1\n      0xb06395f3\n      eq\n      tag_11\n      jumpi\n      dup1\n      0xb77bf600\n      eq\n      tag_12\n      jumpi\n      dup1\n      0xc01a8c84\n      eq\n      tag_13\n      jumpi\n      dup1\n      0xcedd57d5\n      eq\n      tag_14\n      jumpi\n      jump(tag_2)\n    tag_19:\n      dup1\n      0x3411c81c\n      gt\n      tag_21\n      jumpi\n      dup1\n      0x3411c81c\n      eq\n      tag_7\n      jumpi\n      dup1\n      0x3d0bf07e\n      eq\n      tag_8\n      jumpi\n      dup1\n      0x784547a7\n      eq\n      tag_9\n      jumpi\n      dup1\n      0x9ace38c2\n      eq\n      tag_10\n      jumpi\n      jump(tag_2)\n    tag_21:\n      dup1\n      0x025e7c27\n      eq\n      tag_3\n      jumpi\n      dup1\n      0x1d43b653\n      eq\n      tag_4\n      jumpi\n      dup1\n      0x29f4acb0\n      eq\n      tag_5\n      jumpi\n      dup1\n      0x2f54bf6e\n      eq\n      tag_6\n      jumpi\n    tag_2:\n      0x00\n      dup1\n      revert\n        /* \"contracts/MultiSign.sol\":684:707  address[] public owners */\n    tag_3:\n      tag_22\n      0x04\n      dup1\n      calldatasize\n      sub\n      dup2\n      add\n      swap1\n      tag_23\n      swap2\n      swap1\n      tag_24\n      jump\t// in\n    tag_23:\n      tag_25\n      jump\t// in\n    tag_22:\n      mload(0x40)\n      tag_26\n      swap2\n      swap1\n      tag_27\n      jump\t// in\n    tag_26:\n      mload(0x40)\n      dup1\n      swap2\n      sub\n      swap1\n      return\n        /* \"contracts/MultiSign.sol\":2056:2500  function submitTransaction(... */\n    tag_4:\n      tag_28\n      0x04\n      dup1\n      calldatasize\n      sub\n      dup2\n      add\n      swap1\n      tag_29\n      swap2\n      swap1\n      tag_30\n      jump\t// in\n    tag_29:\n      tag_31\n      jump\t// in\n    tag_28:\n      mload(0x40)\n      tag_32\n      swap2\n      swap1\n      tag_33\n      jump\t// in\n    tag_32:\n      mload(0x40)\n      dup1\n      swap2\n      sub\n      swap1\n      return\n        /* \"contracts/MultiSign.sol\":5043:5130  function echo() public pure returns(string memory){... */\n    tag_5:\n      tag_34\n      tag_35\n      jump\t// in\n    tag_34:\n      mload(0x40)\n      tag_36\n      swap2\n      swap1\n      tag_37\n      jump\t// in\n    tag_36:\n      mload(0x40)\n      dup1\n      swap2\n      sub\n      swap1\n      return\n        /* \"contracts/MultiSign.sol\":601:640  mapping(address => bool) public isOwner */\n    tag_6:\n      tag_38\n      0x04\n      dup1\n      calldatasize\n      sub\n      dup2\n      add\n      swap1\n      tag_39\n      swap2\n      swap1\n      tag_40\n      jump\t// in\n    tag_39:\n      tag_41\n      jump\t// in\n    tag_38:\n      mload(0x40)\n      tag_42\n      swap2\n      swap1\n      tag_43\n      jump\t// in\n    tag_42:\n      mload(0x40)\n      dup1\n      swap2\n      sub\n      swap1\n      return\n        /* \"contracts/MultiSign.sol\":483:548  mapping(uint256 => mapping(address => bool)) public confirmations */\n    tag_7:\n      tag_44\n      0x04\n      dup1\n      calldatasize\n      sub\n      dup2\n      add\n      swap1\n      tag_45\n      swap2\n      swap1\n      tag_46\n      jump\t// in\n    tag_45:\n      tag_47\n      jump\t// in\n    tag_44:\n      mload(0x40)\n      tag_48\n      swap2\n      swap1\n      tag_43\n      jump\t// in\n    tag_48:\n      mload(0x40)\n      dup1\n      swap2\n      sub\n      swap1\n      return\n        /* \"contracts/MultiSign.sol\":1871:1957  function setRequired(bool isReq) public onlyOwner {... */\n    tag_8:\n      tag_49\n      0x04\n      dup1\n      calldatasize\n      sub\n      dup2\n      add\n      swap1\n      tag_50\n      swap2\n      swap1\n      tag_51\n      jump\t// in\n    tag_50:\n      tag_52\n      jump\t// in\n    tag_49:\n      stop\n        /* \"contracts/MultiSign.sol\":4378:5037  function isConfirmed(uint256 transactionId) public view returns (bool) {... */\n    tag_9:\n      tag_53\n      0x04\n      dup1\n      calldatasize\n      sub\n      dup2\n      add\n      swap1\n      tag_54\n      swap2\n      swap1\n      tag_24\n      jump\t// in\n    tag_54:\n      tag_55\n      jump\t// in\n    tag_53:\n      mload(0x40)\n      tag_56\n      swap2\n      swap1\n      tag_43\n      jump\t// in\n    tag_56:\n      mload(0x40)\n      dup1\n      swap2\n      sub\n      swap1\n      return\n        /* \"contracts/MultiSign.sol\":363:414  mapping(uint256 => Transaction) public transactions */\n    tag_10:\n      tag_57\n      0x04\n      dup1\n      calldatasize\n      sub\n      dup2\n      add\n      swap1\n      tag_58\n      swap2\n      swap1\n      tag_24\n      jump\t// in\n    tag_58:\n      tag_59\n      jump\t// in\n    tag_57:\n      mload(0x40)\n      tag_60\n      swap4\n      swap3\n      swap2\n      swap1\n      tag_61\n      jump\t// in\n    tag_60:\n      mload(0x40)\n      dup1\n      swap2\n      sub\n      swap1\n      return\n        /* \"contracts/MultiSign.sol\":3703:3960  function findTransaction(uint256 transactionId) public view returns(Transaction memory trans) {... */\n    tag_11:\n      tag_62\n      0x04\n      dup1\n      calldatasize\n      sub\n      dup2\n      add\n      swap1\n      tag_63\n      swap2\n      swap1\n      tag_24\n      jump\t// in\n    tag_63:\n      tag_64\n      jump\t// in\n    tag_62:\n      mload(0x40)\n      tag_65\n      swap2\n      swap1\n      tag_66\n      jump\t// in\n    tag_65:\n      mload(0x40)\n      dup1\n      swap2\n      sub\n      swap1\n      return\n        /* \"contracts/MultiSign.sol\":282:313  uint256 public transactionCount */\n    tag_12:\n      tag_67\n      tag_68\n      jump\t// in\n    tag_67:\n      mload(0x40)\n      tag_69\n      swap2\n      swap1\n      tag_33\n      jump\t// in\n    tag_69:\n      mload(0x40)\n      dup1\n      swap2\n      sub\n      swap1\n      return\n        /* \"contracts/MultiSign.sol\":3009:3697  function confirmTransaction(uint256 transactionId) public onlyOwnerList returns(bool execute) {... */\n    tag_13:\n      tag_70\n      0x04\n      dup1\n      calldatasize\n      sub\n      dup2\n      add\n      swap1\n      tag_71\n      swap2\n      swap1\n      tag_24\n      jump\t// in\n    tag_71:\n      tag_72\n      jump\t// in\n    tag_70:\n      mload(0x40)\n      tag_73\n      swap2\n      swap1\n      tag_43\n      jump\t// in\n    tag_73:\n      mload(0x40)\n      dup1\n      swap2\n      sub\n      swap1\n      return\n        /* \"contracts/MultiSign.sol\":831:861  bool public isAllAgree = false */\n    tag_14:\n      tag_74\n      tag_75\n      jump\t// in\n    tag_74:\n      mload(0x40)\n      tag_76\n      swap2\n      swap1\n      tag_43\n      jump\t// in\n    tag_76:\n      mload(0x40)\n      dup1\n      swap2\n      sub\n      swap1\n      return\n        /* \"contracts/MultiSign.sol\":757:784  uint256 public required = 1 */\n    tag_15:\n      tag_77\n      tag_78\n      jump\t// in\n    tag_77:\n      mload(0x40)\n      tag_79\n      swap2\n      swap1\n      tag_33\n      jump\t// in\n    tag_79:\n      mload(0x40)\n      dup1\n      swap2\n      sub\n      swap1\n      return\n        /* \"contracts/MultiSign.sol\":1365:1865  function setOwners(address[] memory _owners, uint256 _required) public onlyOwner {... */\n    tag_16:\n      tag_80\n      0x04\n      dup1\n      calldatasize\n      sub\n      dup2\n      add\n      swap1\n      tag_81\n      swap2\n      swap1\n      tag_82\n      jump\t// in\n    tag_81:\n      tag_83\n      jump\t// in\n    tag_80:\n      stop\n        /* \"contracts/MultiSign.sol\":3986:4311  function executeTxState(uint256 transactionId) public onlyOwnerList returns(bool) {... */\n    tag_17:\n      tag_84\n      0x04\n      dup1\n      calldatasize\n      sub\n      dup2\n      add\n      swap1\n      tag_85\n      swap2\n      swap1\n      tag_24\n      jump\t// in\n    tag_85:\n      tag_86\n      jump\t// in\n    tag_84:\n      mload(0x40)\n      tag_87\n      swap2\n      swap1\n      tag_43\n      jump\t// in\n    tag_87:\n      mload(0x40)\n      dup1\n      swap2\n      sub\n      swap1\n      return\n        /* \"contracts/MultiSign.sol\":791:824  address public admin = address(0) */\n    tag_18:\n      tag_88\n      tag_89\n      jump\t// in\n    tag_88:\n      mload(0x40)\n      tag_90\n      swap2\n      swap1\n      tag_27\n      jump\t// in\n    tag_90:\n      mload(0x40)\n      dup1\n      swap2\n      sub\n      swap1\n      return\n        /* \"contracts/MultiSign.sol\":684:707  address[] public owners */\n    tag_25:\n      0x04\n      dup2\n      dup2\n      sload\n      dup2\n      lt\n      tag_91\n      jumpi\n      0x00\n      dup1\n      revert\n    tag_91:\n      swap1\n      0x00\n      mstore\n      keccak256(0x00, 0x20)\n      add\n      0x00\n      swap2\n      pop\n      sload\n      swap1\n      0x0100\n      exp\n      swap1\n      div\n      0xffffffffffffffffffffffffffffffffffffffff\n      and\n      dup2\n      jump\t// out\n        /* \"contracts/MultiSign.sol\":2056:2500  function submitTransaction(... */\n    tag_31:\n        /* \"contracts/MultiSign.sol\":2171:2192  uint256 transactionId */\n      0x00\n        /* \"contracts/MultiSign.sol\":1252:1259  isOwner */\n      0x03\n        /* \"contracts/MultiSign.sol\":1252:1271  isOwner[msg.sender] */\n      0x00\n        /* \"contracts/MultiSign.sol\":1260:1270  msg.sender */\n      caller\n        /* \"contracts/MultiSign.sol\":1252:1271  isOwner[msg.sender] */\n      0xffffffffffffffffffffffffffffffffffffffff\n      and\n      0xffffffffffffffffffffffffffffffffffffffff\n      and\n      dup2\n      mstore\n      0x20\n      add\n      swap1\n      dup2\n      mstore\n      0x20\n      add\n      0x00\n      keccak256\n      0x00\n      swap1\n      sload\n      swap1\n      0x0100\n      exp\n      swap1\n      div\n      0xff\n      and\n        /* \"contracts/MultiSign.sol\":1252:1294  isOwner[msg.sender] || admin == msg.sender */\n      dup1\n      tag_94\n      jumpi\n      pop\n        /* \"contracts/MultiSign.sol\":1284:1294  msg.sender */\n      caller\n        /* \"contracts/MultiSign.sol\":1275:1294  admin == msg.sender */\n      0xffffffffffffffffffffffffffffffffffffffff\n      and\n        /* \"contracts/MultiSign.sol\":1275:1280  admin */\n      0x06\n      0x00\n      swap1\n      sload\n      swap1\n      0x0100\n      exp\n      swap1\n      div\n      0xffffffffffffffffffffffffffffffffffffffff\n      and\n        /* \"contracts/MultiSign.sol\":1275:1294  admin == msg.sender */\n      0xffffffffffffffffffffffffffffffffffffffff\n      and\n      eq\n        /* \"contracts/MultiSign.sol\":1252:1294  isOwner[msg.sender] || admin == msg.sender */\n    tag_94:\n        /* \"contracts/MultiSign.sol\":1231:1341  require(... */\n      tag_95\n      jumpi\n      mload(0x40)\n      0x08c379a000000000000000000000000000000000000000000000000000000000\n      dup2\n      mstore\n      0x04\n      add\n      tag_96\n      swap1\n      tag_97\n      jump\t// in\n    tag_96:\n      mload(0x40)\n      dup1\n      swap2\n      sub\n      swap1\n      revert\n    tag_95:\n        /* \"contracts/MultiSign.sol\":2267:2272  value */\n      dup2\n        /* \"contracts/MultiSign.sol\":2242:2263  address(this).balance */\n      selfbalance\n        /* \"contracts/MultiSign.sol\":2242:2272  address(this).balance >= value */\n      lt\n      iszero\n        /* \"contracts/MultiSign.sol\":2234:2293  require(address(this).balance >= value, \"value not enough\") */\n      tag_99\n      jumpi\n      mload(0x40)\n      0x08c379a000000000000000000000000000000000000000000000000000000000\n      dup2\n      mstore\n      0x04\n      add\n      tag_100\n      swap1\n      tag_101\n      jump\t// in\n    tag_100:\n      mload(0x40)\n      dup1\n      swap2\n      sub\n      swap1\n      revert\n    tag_99:\n        /* \"contracts/MultiSign.sol\":2416:2450  addTransaction(destination, value) */\n      tag_102\n        /* \"contracts/MultiSign.sol\":2431:2442  destination */\n      dup4\n        /* \"contracts/MultiSign.sol\":2444:2449  value */\n      dup4\n        /* \"contracts/MultiSign.sol\":2416:2430  addTransaction */\n      tag_103\n        /* \"contracts/MultiSign.sol\":2416:2450  addTransaction(destination, value) */\n      jump\t// in\n    tag_102:\n        /* \"contracts/MultiSign.sol\":2400:2450  transactionId = addTransaction(destination, value) */\n      swap1\n      pop\n        /* \"contracts/MultiSign.sol\":2460:2493  confirmTransaction(transactionId) */\n      tag_104\n        /* \"contracts/MultiSign.sol\":2479:2492  transactionId */\n      dup2\n        /* \"contracts/MultiSign.sol\":2460:2478  confirmTransaction */\n      tag_72\n        /* \"contracts/MultiSign.sol\":2460:2493  confirmTransaction(transactionId) */\n      jump\t// in\n    tag_104:\n      pop\n        /* \"contracts/MultiSign.sol\":2056:2500  function submitTransaction(... */\n      swap3\n      swap2\n      pop\n      pop\n      jump\t// out\n        /* \"contracts/MultiSign.sol\":5043:5130  function echo() public pure returns(string memory){... */\n    tag_35:\n        /* \"contracts/MultiSign.sol\":5079:5092  string memory */\n      0x60\n        /* \"contracts/MultiSign.sol\":5102:5123  return \"Hello World!\" */\n      mload(0x40)\n      dup1\n      0x40\n      add\n      0x40\n      mstore\n      dup1\n      0x0c\n      dup2\n      mstore\n      0x20\n      add\n      0x48656c6c6f20576f726c64210000000000000000000000000000000000000000\n      dup2\n      mstore\n      pop\n      swap1\n      pop\n        /* \"contracts/MultiSign.sol\":5043:5130  function echo() public pure returns(string memory){... */\n      swap1\n      jump\t// out\n        /* \"contracts/MultiSign.sol\":601:640  mapping(address => bool) public isOwner */\n    tag_41:\n      mstore(0x20, 0x03)\n      dup1\n      0x00\n      mstore\n      keccak256(0x00, 0x40)\n      0x00\n      swap2\n      pop\n      sload\n      swap1\n      0x0100\n      exp\n      swap1\n      div\n      0xff\n      and\n      dup2\n      jump\t// out\n        /* \"contracts/MultiSign.sol\":483:548  mapping(uint256 => mapping(address => bool)) public confirmations */\n    tag_47:\n      mstore(0x20, 0x02)\n      dup2\n      0x00\n      mstore\n      mstore(0x20, keccak256(0x00, 0x40))\n      dup1\n      0x00\n      mstore\n      keccak256(0x00, 0x40)\n      0x00\n      swap2\n      pop\n      swap2\n      pop\n      swap1\n      sload\n      swap1\n      0x0100\n      exp\n      swap1\n      div\n      0xff\n      and\n      dup2\n      jump\t// out\n        /* \"contracts/MultiSign.sol\":1871:1957  function setRequired(bool isReq) public onlyOwner {... */\n    tag_52:\n        /* \"contracts/MultiSign.sol\":1136:1146  msg.sender */\n      caller\n        /* \"contracts/MultiSign.sol\":1127:1146  admin == msg.sender */\n      0xffffffffffffffffffffffffffffffffffffffff\n      and\n        /* \"contracts/MultiSign.sol\":1127:1132  admin */\n      0x06\n      0x00\n      swap1\n      sload\n      swap1\n      0x0100\n      exp\n      swap1\n      div\n      0xffffffffffffffffffffffffffffffffffffffff\n      and\n        /* \"contracts/MultiSign.sol\":1127:1146  admin == msg.sender */\n      0xffffffffffffffffffffffffffffffffffffffff\n      and\n      eq\n        /* \"contracts/MultiSign.sol\":1119:1172  require(admin == msg.sender, \"You are not the owner\") */\n      tag_107\n      jumpi\n      mload(0x40)\n      0x08c379a000000000000000000000000000000000000000000000000000000000\n      dup2\n      mstore\n      0x04\n      add\n      tag_108\n      swap1\n      tag_97\n      jump\t// in\n    tag_108:\n      mload(0x40)\n      dup1\n      swap2\n      sub\n      swap1\n      revert\n    tag_107:\n        /* \"contracts/MultiSign.sol\":1944:1949  isReq */\n      dup1\n        /* \"contracts/MultiSign.sol\":1931:1941  isAllAgree */\n      0x06\n      0x14\n        /* \"contracts/MultiSign.sol\":1931:1949  isAllAgree = isReq */\n      0x0100\n      exp\n      dup2\n      sload\n      dup2\n      0xff\n      mul\n      not\n      and\n      swap1\n      dup4\n      iszero\n      iszero\n      mul\n      or\n      swap1\n      sstore\n      pop\n        /* \"contracts/MultiSign.sol\":1871:1957  function setRequired(bool isReq) public onlyOwner {... */\n      pop\n      jump\t// out\n        /* \"contracts/MultiSign.sol\":4378:5037  function isConfirmed(uint256 transactionId) public view returns (bool) {... */\n    tag_55:\n        /* \"contracts/MultiSign.sol\":4443:4447  bool */\n      0x00\n        /* \"contracts/MultiSign.sol\":4459:4472  uint256 count */\n      dup1\n        /* \"contracts/MultiSign.sol\":4475:4476  0 */\n      0x00\n        /* \"contracts/MultiSign.sol\":4459:4476  uint256 count = 0 */\n      swap1\n      pop\n        /* \"contracts/MultiSign.sol\":4590:4602  transactions */\n      0x01\n        /* \"contracts/MultiSign.sol\":4590:4617  transactions[transactionId] */\n      0x00\n        /* \"contracts/MultiSign.sol\":4603:4616  transactionId */\n      dup5\n        /* \"contracts/MultiSign.sol\":4590:4617  transactions[transactionId] */\n      dup2\n      mstore\n      0x20\n      add\n      swap1\n      dup2\n      mstore\n      0x20\n      add\n      0x00\n      keccak256\n        /* \"contracts/MultiSign.sol\":4590:4626  transactions[transactionId].executed */\n      0x02\n      add\n      0x00\n      swap1\n      sload\n      swap1\n      0x0100\n      exp\n      swap1\n      div\n      0xff\n      and\n        /* \"contracts/MultiSign.sol\":4587:4664  if(transactions[transactionId].executed){... */\n      iszero\n      tag_111\n      jumpi\n        /* \"contracts/MultiSign.sol\":4648:4653  false */\n      0x00\n        /* \"contracts/MultiSign.sol\":4641:4653  return false */\n      swap2\n      pop\n      pop\n      jump(tag_110)\n        /* \"contracts/MultiSign.sol\":4587:4664  if(transactions[transactionId].executed){... */\n    tag_111:\n        /* \"contracts/MultiSign.sol\":4678:4687  uint256 i */\n      0x00\n        /* \"contracts/MultiSign.sol\":4673:5009  for (uint256 i = 0; i < owners.length; i++) {... */\n    tag_112:\n        /* \"contracts/MultiSign.sol\":4697:4703  owners */\n      0x04\n        /* \"contracts/MultiSign.sol\":4697:4710  owners.length */\n      dup1\n      sload\n      swap1\n      pop\n        /* \"contracts/MultiSign.sol\":4693:4694  i */\n      dup2\n        /* \"contracts/MultiSign.sol\":4693:4710  i < owners.length */\n      lt\n        /* \"contracts/MultiSign.sol\":4673:5009  for (uint256 i = 0; i < owners.length; i++) {... */\n      iszero\n      tag_113\n      jumpi\n        /* \"contracts/MultiSign.sol\":4735:4748  confirmations */\n      0x02\n        /* \"contracts/MultiSign.sol\":4735:4763  confirmations[transactionId] */\n      0x00\n        /* \"contracts/MultiSign.sol\":4749:4762  transactionId */\n      dup6\n        /* \"contracts/MultiSign.sol\":4735:4763  confirmations[transactionId] */\n      dup2\n      mstore\n      0x20\n      add\n      swap1\n      dup2\n      mstore\n      0x20\n      add\n      0x00\n      keccak256\n        /* \"contracts/MultiSign.sol\":4735:4774  confirmations[transactionId][owners[i]] */\n      0x00\n        /* \"contracts/MultiSign.sol\":4764:4770  owners */\n      0x04\n        /* \"contracts/MultiSign.sol\":4771:4772  i */\n      dup4\n        /* \"contracts/MultiSign.sol\":4764:4773  owners[i] */\n      dup2\n      sload\n      dup2\n      lt\n      tag_115\n      jumpi\n      tag_116\n      tag_117\n      jump\t// in\n    tag_116:\n    tag_115:\n      swap1\n      0x00\n      mstore\n      keccak256(0x00, 0x20)\n      add\n      0x00\n      swap1\n      sload\n      swap1\n      0x0100\n      exp\n      swap1\n      div\n      0xffffffffffffffffffffffffffffffffffffffff\n      and\n        /* \"contracts/MultiSign.sol\":4735:4774  confirmations[transactionId][owners[i]] */\n      0xffffffffffffffffffffffffffffffffffffffff\n      and\n      0xffffffffffffffffffffffffffffffffffffffff\n      and\n      dup2\n      mstore\n      0x20\n      add\n      swap1\n      dup2\n      mstore\n      0x20\n      add\n      0x00\n      keccak256\n      0x00\n      swap1\n      sload\n      swap1\n      0x0100\n      exp\n      swap1\n      div\n      0xff\n      and\n        /* \"contracts/MultiSign.sol\":4731:4786  if (confirmations[transactionId][owners[i]]) count += 1 */\n      iszero\n      tag_119\n      jumpi\n        /* \"contracts/MultiSign.sol\":4785:4786  1 */\n      0x01\n        /* \"contracts/MultiSign.sol\":4776:4786  count += 1 */\n      dup3\n      tag_120\n      swap2\n      swap1\n      tag_121\n      jump\t// in\n    tag_120:\n      swap2\n      pop\n        /* \"contracts/MultiSign.sol\":4731:4786  if (confirmations[transactionId][owners[i]]) count += 1 */\n    tag_119:\n        /* \"contracts/MultiSign.sol\":4843:4853  isAllAgree */\n      0x06\n      0x14\n      swap1\n      sload\n      swap1\n      0x0100\n      exp\n      swap1\n      div\n      0xff\n      and\n        /* \"contracts/MultiSign.sol\":4840:4999  if(isAllAgree){... */\n      iszero\n      tag_122\n      jumpi\n        /* \"contracts/MultiSign.sol\":4885:4891  owners */\n      0x04\n        /* \"contracts/MultiSign.sol\":4885:4898  owners.length */\n      dup1\n      sload\n      swap1\n      pop\n        /* \"contracts/MultiSign.sol\":4876:4881  count */\n      dup3\n        /* \"contracts/MultiSign.sol\":4876:4898  count == owners.length */\n      sub\n        /* \"contracts/MultiSign.sol\":4872:4911  if (count == owners.length) return true */\n      tag_123\n      jumpi\n        /* \"contracts/MultiSign.sol\":4907:4911  true */\n      0x01\n        /* \"contracts/MultiSign.sol\":4900:4911  return true */\n      swap3\n      pop\n      pop\n      pop\n      jump(tag_110)\n        /* \"contracts/MultiSign.sol\":4872:4911  if (count == owners.length) return true */\n    tag_123:\n        /* \"contracts/MultiSign.sol\":4840:4999  if(isAllAgree){... */\n      jump(tag_124)\n    tag_122:\n        /* \"contracts/MultiSign.sol\":4962:4970  required */\n      sload(0x05)\n        /* \"contracts/MultiSign.sol\":4953:4958  count */\n      dup3\n        /* \"contracts/MultiSign.sol\":4953:4970  count == required */\n      sub\n        /* \"contracts/MultiSign.sol\":4949:4983  if (count == required) return true */\n      tag_125\n      jumpi\n        /* \"contracts/MultiSign.sol\":4979:4983  true */\n      0x01\n        /* \"contracts/MultiSign.sol\":4972:4983  return true */\n      swap3\n      pop\n      pop\n      pop\n      jump(tag_110)\n        /* \"contracts/MultiSign.sol\":4949:4983  if (count == required) return true */\n    tag_125:\n        /* \"contracts/MultiSign.sol\":4840:4999  if(isAllAgree){... */\n    tag_124:\n        /* \"contracts/MultiSign.sol\":4712:4715  i++ */\n      dup1\n      dup1\n      tag_126\n      swap1\n      tag_127\n      jump\t// in\n    tag_126:\n      swap2\n      pop\n      pop\n        /* \"contracts/MultiSign.sol\":4673:5009  for (uint256 i = 0; i < owners.length; i++) {... */\n      jump(tag_112)\n    tag_113:\n      pop\n        /* \"contracts/MultiSign.sol\":5025:5030  false */\n      0x00\n        /* \"contracts/MultiSign.sol\":5018:5030  return false */\n      swap2\n      pop\n      pop\n        /* \"contracts/MultiSign.sol\":4378:5037  function isConfirmed(uint256 transactionId) public view returns (bool) {... */\n    tag_110:\n      swap2\n      swap1\n      pop\n      jump\t// out\n        /* \"contracts/MultiSign.sol\":363:414  mapping(uint256 => Transaction) public transactions */\n    tag_59:\n      mstore(0x20, 0x01)\n      dup1\n      0x00\n      mstore\n      keccak256(0x00, 0x40)\n      0x00\n      swap2\n      pop\n      swap1\n      pop\n      dup1\n      0x00\n      add\n      0x00\n      swap1\n      sload\n      swap1\n      0x0100\n      exp\n      swap1\n      div\n      0xffffffffffffffffffffffffffffffffffffffff\n      and\n      swap1\n      dup1\n      0x01\n      add\n      sload\n      swap1\n      dup1\n      0x02\n      add\n      0x00\n      swap1\n      sload\n      swap1\n      0x0100\n      exp\n      swap1\n      div\n      0xff\n      and\n      swap1\n      pop\n      dup4\n      jump\t// out\n        /* \"contracts/MultiSign.sol\":3703:3960  function findTransaction(uint256 transactionId) public view returns(Transaction memory trans) {... */\n    tag_64:\n        /* \"contracts/MultiSign.sol\":3771:3795  Transaction memory trans */\n      tag_128\n      tag_129\n      jump\t// in\n    tag_128:\n        /* \"contracts/MultiSign.sol\":3875:3876  0 */\n      0x00\n        /* \"contracts/MultiSign.sol\":3824:3877  transactions[transactionId].destination != address(0) */\n      0xffffffffffffffffffffffffffffffffffffffff\n      and\n        /* \"contracts/MultiSign.sol\":3824:3836  transactions */\n      0x01\n        /* \"contracts/MultiSign.sol\":3824:3851  transactions[transactionId] */\n      0x00\n        /* \"contracts/MultiSign.sol\":3837:3850  transactionId */\n      dup5\n        /* \"contracts/MultiSign.sol\":3824:3851  transactions[transactionId] */\n      dup2\n      mstore\n      0x20\n      add\n      swap1\n      dup2\n      mstore\n      0x20\n      add\n      0x00\n      keccak256\n        /* \"contracts/MultiSign.sol\":3824:3863  transactions[transactionId].destination */\n      0x00\n      add\n      0x00\n      swap1\n      sload\n      swap1\n      0x0100\n      exp\n      swap1\n      div\n      0xffffffffffffffffffffffffffffffffffffffff\n      and\n        /* \"contracts/MultiSign.sol\":3824:3877  transactions[transactionId].destination != address(0) */\n      0xffffffffffffffffffffffffffffffffffffffff\n      and\n      sub\n        /* \"contracts/MultiSign.sol\":3816:3908  require(transactions[transactionId].destination != address(0), \"not find transaction by Id\") */\n      tag_131\n      jumpi\n      mload(0x40)\n      0x08c379a000000000000000000000000000000000000000000000000000000000\n      dup2\n      mstore\n      0x04\n      add\n      tag_132\n      swap1\n      tag_133\n      jump\t// in\n    tag_132:\n      mload(0x40)\n      dup1\n      swap2\n      sub\n      swap1\n      revert\n    tag_131:\n        /* \"contracts/MultiSign.sol\":3926:3938  transactions */\n      0x01\n        /* \"contracts/MultiSign.sol\":3926:3953  transactions[transactionId] */\n      0x00\n        /* \"contracts/MultiSign.sol\":3939:3952  transactionId */\n      dup4\n        /* \"contracts/MultiSign.sol\":3926:3953  transactions[transactionId] */\n      dup2\n      mstore\n      0x20\n      add\n      swap1\n      dup2\n      mstore\n      0x20\n      add\n      0x00\n      keccak256\n        /* \"contracts/MultiSign.sol\":3918:3953  trans = transactions[transactionId] */\n      mload(0x40)\n      dup1\n      0x60\n      add\n      0x40\n      mstore\n      swap1\n      dup2\n      0x00\n      dup3\n      add\n      0x00\n      swap1\n      sload\n      swap1\n      0x0100\n      exp\n      swap1\n      div\n      0xffffffffffffffffffffffffffffffffffffffff\n      and\n      0xffffffffffffffffffffffffffffffffffffffff\n      and\n      0xffffffffffffffffffffffffffffffffffffffff\n      and\n      dup2\n      mstore\n      0x20\n      add\n      0x01\n      dup3\n      add\n      sload\n      dup2\n      mstore\n      0x20\n      add\n      0x02\n      dup3\n      add\n      0x00\n      swap1\n      sload\n      swap1\n      0x0100\n      exp\n      swap1\n      div\n      0xff\n      and\n      iszero\n      iszero\n      iszero\n      iszero\n      dup2\n      mstore\n      pop\n      pop\n      swap1\n      pop\n        /* \"contracts/MultiSign.sol\":3703:3960  function findTransaction(uint256 transactionId) public view returns(Transaction memory trans) {... */\n      swap2\n      swap1\n      pop\n      jump\t// out\n        /* \"contracts/MultiSign.sol\":282:313  uint256 public transactionCount */\n    tag_68:\n      sload(0x00)\n      dup2\n      jump\t// out\n        /* \"contracts/MultiSign.sol\":3009:3697  function confirmTransaction(uint256 transactionId) public onlyOwnerList returns(bool execute) {... */\n    tag_72:\n        /* \"contracts/MultiSign.sol\":3089:3101  bool execute */\n      0x00\n        /* \"contracts/MultiSign.sol\":1252:1259  isOwner */\n      0x03\n        /* \"contracts/MultiSign.sol\":1252:1271  isOwner[msg.sender] */\n      0x00\n        /* \"contracts/MultiSign.sol\":1260:1270  msg.sender */\n      caller\n        /* \"contracts/MultiSign.sol\":1252:1271  isOwner[msg.sender] */\n      0xffffffffffffffffffffffffffffffffffffffff\n      and\n      0xffffffffffffffffffffffffffffffffffffffff\n      and\n      dup2\n      mstore\n      0x20\n      add\n      swap1\n      dup2\n      mstore\n      0x20\n      add\n      0x00\n      keccak256\n      0x00\n      swap1\n      sload\n      swap1\n      0x0100\n      exp\n      swap1\n      div\n      0xff\n      and\n        /* \"contracts/MultiSign.sol\":1252:1294  isOwner[msg.sender] || admin == msg.sender */\n      dup1\n      tag_135\n      jumpi\n      pop\n        /* \"contracts/MultiSign.sol\":1284:1294  msg.sender */\n      caller\n        /* \"contracts/MultiSign.sol\":1275:1294  admin == msg.sender */\n      0xffffffffffffffffffffffffffffffffffffffff\n      and\n        /* \"contracts/MultiSign.sol\":1275:1280  admin */\n      0x06\n      0x00\n      swap1\n      sload\n      swap1\n      0x0100\n      exp\n      swap1\n      div\n      0xffffffffffffffffffffffffffffffffffffffff\n      and\n        /* \"contracts/MultiSign.sol\":1275:1294  admin == msg.sender */\n      0xffffffffffffffffffffffffffffffffffffffff\n      and\n      eq\n        /* \"contracts/MultiSign.sol\":1252:1294  isOwner[msg.sender] || admin == msg.sender */\n    tag_135:\n        /* \"contracts/MultiSign.sol\":1231:1341  require(... */\n      tag_136\n      jumpi\n      mload(0x40)\n      0x08c379a000000000000000000000000000000000000000000000000000000000\n      dup2\n      mstore\n      0x04\n      add\n      tag_137\n      swap1\n      tag_97\n      jump\t// in\n    tag_137:\n      mload(0x40)\n      dup1\n      swap2\n      sub\n      swap1\n      revert\n    tag_136:\n        /* \"contracts/MultiSign.sol\":3169:3176  isOwner */\n      0x03\n        /* \"contracts/MultiSign.sol\":3169:3188  isOwner[msg.sender] */\n      0x00\n        /* \"contracts/MultiSign.sol\":3177:3187  msg.sender */\n      caller\n        /* \"contracts/MultiSign.sol\":3169:3188  isOwner[msg.sender] */\n      0xffffffffffffffffffffffffffffffffffffffff\n      and\n      0xffffffffffffffffffffffffffffffffffffffff\n      and\n      dup2\n      mstore\n      0x20\n      add\n      swap1\n      dup2\n      mstore\n      0x20\n      add\n      0x00\n      keccak256\n      0x00\n      swap1\n      sload\n      swap1\n      0x0100\n      exp\n      swap1\n      div\n      0xff\n      and\n        /* \"contracts/MultiSign.sol\":3161:3214  require(isOwner[msg.sender], \"you are not in owners\") */\n      tag_139\n      jumpi\n      mload(0x40)\n      0x08c379a000000000000000000000000000000000000000000000000000000000\n      dup2\n      mstore\n      0x04\n      add\n      tag_140\n      swap1\n      tag_141\n      jump\t// in\n    tag_140:\n      mload(0x40)\n      dup1\n      swap2\n      sub\n      swap1\n      revert\n    tag_139:\n        /* \"contracts/MultiSign.sol\":3344:3345  0 */\n      0x00\n        /* \"contracts/MultiSign.sol\":3293:3346  transactions[transactionId].destination != address(0) */\n      0xffffffffffffffffffffffffffffffffffffffff\n      and\n        /* \"contracts/MultiSign.sol\":3293:3305  transactions */\n      0x01\n        /* \"contracts/MultiSign.sol\":3293:3320  transactions[transactionId] */\n      0x00\n        /* \"contracts/MultiSign.sol\":3306:3319  transactionId */\n      dup5\n        /* \"contracts/MultiSign.sol\":3293:3320  transactions[transactionId] */\n      dup2\n      mstore\n      0x20\n      add\n      swap1\n      dup2\n      mstore\n      0x20\n      add\n      0x00\n      keccak256\n        /* \"contracts/MultiSign.sol\":3293:3332  transactions[transactionId].destination */\n      0x00\n      add\n      0x00\n      swap1\n      sload\n      swap1\n      0x0100\n      exp\n      swap1\n      div\n      0xffffffffffffffffffffffffffffffffffffffff\n      and\n        /* \"contracts/MultiSign.sol\":3293:3346  transactions[transactionId].destination != address(0) */\n      0xffffffffffffffffffffffffffffffffffffffff\n      and\n      sub\n        /* \"contracts/MultiSign.sol\":3272:3403  require(... */\n      tag_142\n      jumpi\n      mload(0x40)\n      0x08c379a000000000000000000000000000000000000000000000000000000000\n      dup2\n      mstore\n      0x04\n      add\n      tag_143\n      swap1\n      tag_144\n      jump\t// in\n    tag_143:\n      mload(0x40)\n      dup1\n      swap2\n      sub\n      swap1\n      revert\n    tag_142:\n        /* \"contracts/MultiSign.sol\":3461:3474  confirmations */\n      0x02\n        /* \"contracts/MultiSign.sol\":3461:3489  confirmations[transactionId] */\n      0x00\n        /* \"contracts/MultiSign.sol\":3475:3488  transactionId */\n      dup4\n        /* \"contracts/MultiSign.sol\":3461:3489  confirmations[transactionId] */\n      dup2\n      mstore\n      0x20\n      add\n      swap1\n      dup2\n      mstore\n      0x20\n      add\n      0x00\n      keccak256\n        /* \"contracts/MultiSign.sol\":3461:3501  confirmations[transactionId][msg.sender] */\n      0x00\n        /* \"contracts/MultiSign.sol\":3490:3500  msg.sender */\n      caller\n        /* \"contracts/MultiSign.sol\":3461:3501  confirmations[transactionId][msg.sender] */\n      0xffffffffffffffffffffffffffffffffffffffff\n      and\n      0xffffffffffffffffffffffffffffffffffffffff\n      and\n      dup2\n      mstore\n      0x20\n      add\n      swap1\n      dup2\n      mstore\n      0x20\n      add\n      0x00\n      keccak256\n      0x00\n      swap1\n      sload\n      swap1\n      0x0100\n      exp\n      swap1\n      div\n      0xff\n      and\n        /* \"contracts/MultiSign.sol\":3460:3501  !confirmations[transactionId][msg.sender] */\n      iszero\n        /* \"contracts/MultiSign.sol\":3452:3523  require(!confirmations[transactionId][msg.sender], \"you has confirmed\") */\n      tag_145\n      jumpi\n      mload(0x40)\n      0x08c379a000000000000000000000000000000000000000000000000000000000\n      dup2\n      mstore\n      0x04\n      add\n      tag_146\n      swap1\n      tag_147\n      jump\t// in\n    tag_146:\n      mload(0x40)\n      dup1\n      swap2\n      sub\n      swap1\n      revert\n    tag_145:\n        /* \"contracts/MultiSign.sol\":3619:3623  true */\n      0x01\n        /* \"contracts/MultiSign.sol\":3576:3589  confirmations */\n      0x02\n        /* \"contracts/MultiSign.sol\":3576:3604  confirmations[transactionId] */\n      0x00\n        /* \"contracts/MultiSign.sol\":3590:3603  transactionId */\n      dup5\n        /* \"contracts/MultiSign.sol\":3576:3604  confirmations[transactionId] */\n      dup2\n      mstore\n      0x20\n      add\n      swap1\n      dup2\n      mstore\n      0x20\n      add\n      0x00\n      keccak256\n        /* \"contracts/MultiSign.sol\":3576:3616  confirmations[transactionId][msg.sender] */\n      0x00\n        /* \"contracts/MultiSign.sol\":3605:3615  msg.sender */\n      caller\n        /* \"contracts/MultiSign.sol\":3576:3616  confirmations[transactionId][msg.sender] */\n      0xffffffffffffffffffffffffffffffffffffffff\n      and\n      0xffffffffffffffffffffffffffffffffffffffff\n      and\n      dup2\n      mstore\n      0x20\n      add\n      swap1\n      dup2\n      mstore\n      0x20\n      add\n      0x00\n      keccak256\n      0x00\n        /* \"contracts/MultiSign.sol\":3576:3623  confirmations[transactionId][msg.sender] = true */\n      0x0100\n      exp\n      dup2\n      sload\n      dup2\n      0xff\n      mul\n      not\n      and\n      swap1\n      dup4\n      iszero\n      iszero\n      mul\n      or\n      swap1\n      sstore\n      pop\n        /* \"contracts/MultiSign.sol\":3664:3690  isConfirmed(transactionId) */\n      tag_148\n        /* \"contracts/MultiSign.sol\":3676:3689  transactionId */\n      dup3\n        /* \"contracts/MultiSign.sol\":3664:3675  isConfirmed */\n      tag_55\n        /* \"contracts/MultiSign.sol\":3664:3690  isConfirmed(transactionId) */\n      jump\t// in\n    tag_148:\n        /* \"contracts/MultiSign.sol\":3657:3690  return isConfirmed(transactionId) */\n      swap1\n      pop\n        /* \"contracts/MultiSign.sol\":3009:3697  function confirmTransaction(uint256 transactionId) public onlyOwnerList returns(bool execute) {... */\n      swap2\n      swap1\n      pop\n      jump\t// out\n        /* \"contracts/MultiSign.sol\":831:861  bool public isAllAgree = false */\n    tag_75:\n      0x06\n      0x14\n      swap1\n      sload\n      swap1\n      0x0100\n      exp\n      swap1\n      div\n      0xff\n      and\n      dup2\n      jump\t// out\n        /* \"contracts/MultiSign.sol\":757:784  uint256 public required = 1 */\n    tag_78:\n      sload(0x05)\n      dup2\n      jump\t// out\n        /* \"contracts/MultiSign.sol\":1365:1865  function setOwners(address[] memory _owners, uint256 _required) public onlyOwner {... */\n    tag_83:\n        /* \"contracts/MultiSign.sol\":1136:1146  msg.sender */\n      caller\n        /* \"contracts/MultiSign.sol\":1127:1146  admin == msg.sender */\n      0xffffffffffffffffffffffffffffffffffffffff\n      and\n        /* \"contracts/MultiSign.sol\":1127:1132  admin */\n      0x06\n      0x00\n      swap1\n      sload\n      swap1\n      0x0100\n      exp\n      swap1\n      div\n      0xffffffffffffffffffffffffffffffffffffffff\n      and\n        /* \"contracts/MultiSign.sol\":1127:1146  admin == msg.sender */\n      0xffffffffffffffffffffffffffffffffffffffff\n      and\n      eq\n        /* \"contracts/MultiSign.sol\":1119:1172  require(admin == msg.sender, \"You are not the owner\") */\n      tag_150\n      jumpi\n      mload(0x40)\n      0x08c379a000000000000000000000000000000000000000000000000000000000\n      dup2\n      mstore\n      0x04\n      add\n      tag_151\n      swap1\n      tag_97\n      jump\t// in\n    tag_151:\n      mload(0x40)\n      dup1\n      swap2\n      sub\n      swap1\n      revert\n    tag_150:\n        /* \"contracts/MultiSign.sol\":1477:1483  owners */\n      0x04\n        /* \"contracts/MultiSign.sol\":1477:1490  owners.length */\n      dup1\n      sload\n      swap1\n      pop\n        /* \"contracts/MultiSign.sol\":1464:1473  _required */\n      dup2\n        /* \"contracts/MultiSign.sol\":1464:1490  _required <= owners.length */\n      gt\n      iszero\n        /* \"contracts/MultiSign.sol\":1456:1510  require(_required <= owners.length, \"required exceed\") */\n      tag_153\n      jumpi\n      mload(0x40)\n      0x08c379a000000000000000000000000000000000000000000000000000000000\n      dup2\n      mstore\n      0x04\n      add\n      tag_154\n      swap1\n      tag_155\n      jump\t// in\n    tag_154:\n      mload(0x40)\n      dup1\n      swap2\n      sub\n      swap1\n      revert\n    tag_153:\n        /* \"contracts/MultiSign.sol\":1526:1535  uint256 i */\n      0x00\n        /* \"contracts/MultiSign.sol\":1521:1803  for (uint256 i = 0; i < _owners.length; i++) {... */\n    tag_156:\n        /* \"contracts/MultiSign.sol\":1545:1552  _owners */\n      dup3\n        /* \"contracts/MultiSign.sol\":1545:1559  _owners.length */\n      mload\n        /* \"contracts/MultiSign.sol\":1541:1542  i */\n      dup2\n        /* \"contracts/MultiSign.sol\":1541:1559  i < _owners.length */\n      lt\n        /* \"contracts/MultiSign.sol\":1521:1803  for (uint256 i = 0; i < _owners.length; i++) {... */\n      iszero\n      tag_157\n      jumpi\n        /* \"contracts/MultiSign.sol\":1637:1644  isOwner */\n      0x03\n        /* \"contracts/MultiSign.sol\":1637:1656  isOwner[_owners[i]] */\n      0x00\n        /* \"contracts/MultiSign.sol\":1645:1652  _owners */\n      dup5\n        /* \"contracts/MultiSign.sol\":1653:1654  i */\n      dup4\n        /* \"contracts/MultiSign.sol\":1645:1655  _owners[i] */\n      dup2\n      mload\n      dup2\n      lt\n      tag_159\n      jumpi\n      tag_160\n      tag_117\n      jump\t// in\n    tag_160:\n    tag_159:\n      0x20\n      mul\n      0x20\n      add\n      add\n      mload\n        /* \"contracts/MultiSign.sol\":1637:1656  isOwner[_owners[i]] */\n      0xffffffffffffffffffffffffffffffffffffffff\n      and\n      0xffffffffffffffffffffffffffffffffffffffff\n      and\n      dup2\n      mstore\n      0x20\n      add\n      swap1\n      dup2\n      mstore\n      0x20\n      add\n      0x00\n      keccak256\n      0x00\n      swap1\n      sload\n      swap1\n      0x0100\n      exp\n      swap1\n      div\n      0xff\n      and\n        /* \"contracts/MultiSign.sol\":1637:1684  isOwner[_owners[i]] || _owners[i] == address(0) */\n      dup1\n      tag_161\n      jumpi\n      pop\n        /* \"contracts/MultiSign.sol\":1682:1683  0 */\n      0x00\n        /* \"contracts/MultiSign.sol\":1660:1684  _owners[i] == address(0) */\n      0xffffffffffffffffffffffffffffffffffffffff\n      and\n        /* \"contracts/MultiSign.sol\":1660:1667  _owners */\n      dup4\n        /* \"contracts/MultiSign.sol\":1668:1669  i */\n      dup3\n        /* \"contracts/MultiSign.sol\":1660:1670  _owners[i] */\n      dup2\n      mload\n      dup2\n      lt\n      tag_162\n      jumpi\n      tag_163\n      tag_117\n      jump\t// in\n    tag_163:\n    tag_162:\n      0x20\n      mul\n      0x20\n      add\n      add\n      mload\n        /* \"contracts/MultiSign.sol\":1660:1684  _owners[i] == address(0) */\n      0xffffffffffffffffffffffffffffffffffffffff\n      and\n      eq\n        /* \"contracts/MultiSign.sol\":1637:1684  isOwner[_owners[i]] || _owners[i] == address(0) */\n    tag_161:\n        /* \"contracts/MultiSign.sol\":1633:1723  if (isOwner[_owners[i]] || _owners[i] == address(0))... */\n      iszero\n      tag_164\n      jumpi\n        /* \"contracts/MultiSign.sol\":1702:1723  revert(\"exist owner\") */\n      mload(0x40)\n      0x08c379a000000000000000000000000000000000000000000000000000000000\n      dup2\n      mstore\n      0x04\n      add\n      tag_165\n      swap1\n      tag_166\n      jump\t// in\n    tag_165:\n      mload(0x40)\n      dup1\n      swap2\n      sub\n      swap1\n      revert\n        /* \"contracts/MultiSign.sol\":1633:1723  if (isOwner[_owners[i]] || _owners[i] == address(0))... */\n    tag_164:\n        /* \"contracts/MultiSign.sol\":1788:1792  true */\n      0x01\n        /* \"contracts/MultiSign.sol\":1766:1773  isOwner */\n      0x03\n        /* \"contracts/MultiSign.sol\":1766:1785  isOwner[_owners[i]] */\n      0x00\n        /* \"contracts/MultiSign.sol\":1774:1781  _owners */\n      dup6\n        /* \"contracts/MultiSign.sol\":1782:1783  i */\n      dup5\n        /* \"contracts/MultiSign.sol\":1774:1784  _owners[i] */\n      dup2\n      mload\n      dup2\n      lt\n      tag_167\n      jumpi\n      tag_168\n      tag_117\n      jump\t// in\n    tag_168:\n    tag_167:\n      0x20\n      mul\n      0x20\n      add\n      add\n      mload\n        /* \"contracts/MultiSign.sol\":1766:1785  isOwner[_owners[i]] */\n      0xffffffffffffffffffffffffffffffffffffffff\n      and\n      0xffffffffffffffffffffffffffffffffffffffff\n      and\n      dup2\n      mstore\n      0x20\n      add\n      swap1\n      dup2\n      mstore\n      0x20\n      add\n      0x00\n      keccak256\n      0x00\n        /* \"contracts/MultiSign.sol\":1766:1792  isOwner[_owners[i]] = true */\n      0x0100\n      exp\n      dup2\n      sload\n      dup2\n      0xff\n      mul\n      not\n      and\n      swap1\n      dup4\n      iszero\n      iszero\n      mul\n      or\n      swap1\n      sstore\n      pop\n        /* \"contracts/MultiSign.sol\":1561:1564  i++ */\n      dup1\n      dup1\n      tag_169\n      swap1\n      tag_127\n      jump\t// in\n    tag_169:\n      swap2\n      pop\n      pop\n        /* \"contracts/MultiSign.sol\":1521:1803  for (uint256 i = 0; i < _owners.length; i++) {... */\n      jump(tag_156)\n    tag_157:\n      pop\n        /* \"contracts/MultiSign.sol\":1821:1828  _owners */\n      dup2\n        /* \"contracts/MultiSign.sol\":1812:1818  owners */\n      0x04\n        /* \"contracts/MultiSign.sol\":1812:1828  owners = _owners */\n      swap1\n      dup1\n      mload\n      swap1\n      0x20\n      add\n      swap1\n      tag_170\n      swap3\n      swap2\n      swap1\n      tag_171\n      jump\t// in\n    tag_170:\n      pop\n        /* \"contracts/MultiSign.sol\":1849:1858  _required */\n      dup1\n        /* \"contracts/MultiSign.sol\":1838:1846  required */\n      0x05\n        /* \"contracts/MultiSign.sol\":1838:1858  required = _required */\n      dup2\n      swap1\n      sstore\n      pop\n        /* \"contracts/MultiSign.sol\":1365:1865  function setOwners(address[] memory _owners, uint256 _required) public onlyOwner {... */\n      pop\n      pop\n      jump\t// out\n        /* \"contracts/MultiSign.sol\":3986:4311  function executeTxState(uint256 transactionId) public onlyOwnerList returns(bool) {... */\n    tag_86:\n        /* \"contracts/MultiSign.sol\":4062:4066  bool */\n      0x00\n        /* \"contracts/MultiSign.sol\":1252:1259  isOwner */\n      0x03\n        /* \"contracts/MultiSign.sol\":1252:1271  isOwner[msg.sender] */\n      0x00\n        /* \"contracts/MultiSign.sol\":1260:1270  msg.sender */\n      caller\n        /* \"contracts/MultiSign.sol\":1252:1271  isOwner[msg.sender] */\n      0xffffffffffffffffffffffffffffffffffffffff\n      and\n      0xffffffffffffffffffffffffffffffffffffffff\n      and\n      dup2\n      mstore\n      0x20\n      add\n      swap1\n      dup2\n      mstore\n      0x20\n      add\n      0x00\n      keccak256\n      0x00\n      swap1\n      sload\n      swap1\n      0x0100\n      exp\n      swap1\n      div\n      0xff\n      and\n        /* \"contracts/MultiSign.sol\":1252:1294  isOwner[msg.sender] || admin == msg.sender */\n      dup1\n      tag_173\n      jumpi\n      pop\n        /* \"contracts/MultiSign.sol\":1284:1294  msg.sender */\n      caller\n        /* \"contracts/MultiSign.sol\":1275:1294  admin == msg.sender */\n      0xffffffffffffffffffffffffffffffffffffffff\n      and\n        /* \"contracts/MultiSign.sol\":1275:1280  admin */\n      0x06\n      0x00\n      swap1\n      sload\n      swap1\n      0x0100\n      exp\n      swap1\n      div\n      0xffffffffffffffffffffffffffffffffffffffff\n      and\n        /* \"contracts/MultiSign.sol\":1275:1294  admin == msg.sender */\n      0xffffffffffffffffffffffffffffffffffffffff\n      and\n      eq\n        /* \"contracts/MultiSign.sol\":1252:1294  isOwner[msg.sender] || admin == msg.sender */\n    tag_173:\n        /* \"contracts/MultiSign.sol\":1231:1341  require(... */\n      tag_174\n      jumpi\n      mload(0x40)\n      0x08c379a000000000000000000000000000000000000000000000000000000000\n      dup2\n      mstore\n      0x04\n      add\n      tag_175\n      swap1\n      tag_97\n      jump\t// in\n    tag_175:\n      mload(0x40)\n      dup1\n      swap2\n      sub\n      swap1\n      revert\n    tag_174:\n        /* \"contracts/MultiSign.sol\":4123:4135  transactions */\n      0x01\n        /* \"contracts/MultiSign.sol\":4123:4150  transactions[transactionId] */\n      0x00\n        /* \"contracts/MultiSign.sol\":4136:4149  transactionId */\n      dup4\n        /* \"contracts/MultiSign.sol\":4123:4150  transactions[transactionId] */\n      dup2\n      mstore\n      0x20\n      add\n      swap1\n      dup2\n      mstore\n      0x20\n      add\n      0x00\n      keccak256\n        /* \"contracts/MultiSign.sol\":4123:4159  transactions[transactionId].executed */\n      0x02\n      add\n      0x00\n      swap1\n      sload\n      swap1\n      0x0100\n      exp\n      swap1\n      div\n      0xff\n      and\n        /* \"contracts/MultiSign.sol\":4122:4159  !transactions[transactionId].executed */\n      iszero\n        /* \"contracts/MultiSign.sol\":4114:4194  require(!transactions[transactionId].executed,\"transactionId has been executed\") */\n      tag_177\n      jumpi\n      mload(0x40)\n      0x08c379a000000000000000000000000000000000000000000000000000000000\n      dup2\n      mstore\n      0x04\n      add\n      tag_178\n      swap1\n      tag_179\n      jump\t// in\n    tag_178:\n      mload(0x40)\n      dup1\n      swap2\n      sub\n      swap1\n      revert\n    tag_177:\n        /* \"contracts/MultiSign.sol\":4279:4283  true */\n      0x01\n        /* \"contracts/MultiSign.sol\":4240:4252  transactions */\n      dup1\n        /* \"contracts/MultiSign.sol\":4240:4267  transactions[transactionId] */\n      0x00\n        /* \"contracts/MultiSign.sol\":4253:4266  transactionId */\n      dup5\n        /* \"contracts/MultiSign.sol\":4240:4267  transactions[transactionId] */\n      dup2\n      mstore\n      0x20\n      add\n      swap1\n      dup2\n      mstore\n      0x20\n      add\n      0x00\n      keccak256\n        /* \"contracts/MultiSign.sol\":4240:4276  transactions[transactionId].executed */\n      0x02\n      add\n      0x00\n        /* \"contracts/MultiSign.sol\":4240:4283  transactions[transactionId].executed = true */\n      0x0100\n      exp\n      dup2\n      sload\n      dup2\n      0xff\n      mul\n      not\n      and\n      swap1\n      dup4\n      iszero\n      iszero\n      mul\n      or\n      swap1\n      sstore\n      pop\n        /* \"contracts/MultiSign.sol\":4300:4304  true */\n      0x01\n        /* \"contracts/MultiSign.sol\":4293:4304  return true */\n      swap1\n      pop\n        /* \"contracts/MultiSign.sol\":3986:4311  function executeTxState(uint256 transactionId) public onlyOwnerList returns(bool) {... */\n      swap2\n      swap1\n      pop\n      jump\t// out\n        /* \"contracts/MultiSign.sol\":791:824  address public admin = address(0) */\n    tag_89:\n      0x06\n      0x00\n      swap1\n      sload\n      swap1\n      0x0100\n      exp\n      swap1\n      div\n      0xffffffffffffffffffffffffffffffffffffffff\n      and\n      dup2\n      jump\t// out\n        /* \"contracts/MultiSign.sol\":2526:2929  function addTransaction(... */\n    tag_103:\n        /* \"contracts/MultiSign.sol\":2626:2647  uint256 transactionId */\n      0x00\n        /* \"contracts/MultiSign.sol\":2675:2691  transactionCount */\n      dup1\n      sload\n        /* \"contracts/MultiSign.sol\":2659:2691  transactionId = transactionCount */\n      swap1\n      pop\n        /* \"contracts/MultiSign.sol\":2774:2890  Transaction({... */\n      mload(0x40)\n      dup1\n      0x60\n      add\n      0x40\n      mstore\n      dup1\n        /* \"contracts/MultiSign.sol\":2813:2824  destination */\n      dup5\n        /* \"contracts/MultiSign.sol\":2774:2890  Transaction({... */\n      0xffffffffffffffffffffffffffffffffffffffff\n      and\n      dup2\n      mstore\n      0x20\n      add\n        /* \"contracts/MultiSign.sol\":2845:2850  value */\n      dup4\n        /* \"contracts/MultiSign.sol\":2774:2890  Transaction({... */\n      dup2\n      mstore\n      0x20\n      add\n        /* \"contracts/MultiSign.sol\":2874:2879  false */\n      0x00\n        /* \"contracts/MultiSign.sol\":2774:2890  Transaction({... */\n      iszero\n      iszero\n      dup2\n      mstore\n      pop\n        /* \"contracts/MultiSign.sol\":2744:2756  transactions */\n      0x01\n        /* \"contracts/MultiSign.sol\":2744:2771  transactions[transactionId] */\n      0x00\n        /* \"contracts/MultiSign.sol\":2757:2770  transactionId */\n      dup4\n        /* \"contracts/MultiSign.sol\":2744:2771  transactions[transactionId] */\n      dup2\n      mstore\n      0x20\n      add\n      swap1\n      dup2\n      mstore\n      0x20\n      add\n      0x00\n      keccak256\n        /* \"contracts/MultiSign.sol\":2744:2890  transactions[transactionId] = Transaction({... */\n      0x00\n      dup3\n      add\n      mload\n      dup2\n      0x00\n      add\n      exp(0x0100, 0x00)\n      dup2\n      sload\n      dup2\n      0xffffffffffffffffffffffffffffffffffffffff\n      mul\n      not\n      and\n      swap1\n      dup4\n      0xffffffffffffffffffffffffffffffffffffffff\n      and\n      mul\n      or\n      swap1\n      sstore\n      pop\n      0x20\n      dup3\n      add\n      mload\n      dup2\n      0x01\n      add\n      sstore\n      0x40\n      dup3\n      add\n      mload\n      dup2\n      0x02\n      add\n      exp(0x0100, 0x00)\n      dup2\n      sload\n      dup2\n      0xff\n      mul\n      not\n      and\n      swap1\n      dup4\n      iszero\n      iszero\n      mul\n      or\n      swap1\n      sstore\n      pop\n      swap1\n      pop\n      pop\n        /* \"contracts/MultiSign.sol\":2921:2922  1 */\n      0x01\n        /* \"contracts/MultiSign.sol\":2901:2917  transactionCount */\n      0x00\n      dup1\n        /* \"contracts/MultiSign.sol\":2901:2922  transactionCount += 1 */\n      dup3\n      dup3\n      sload\n      tag_181\n      swap2\n      swap1\n      tag_121\n      jump\t// in\n    tag_181:\n      swap3\n      pop\n      pop\n      dup2\n      swap1\n      sstore\n      pop\n        /* \"contracts/MultiSign.sol\":2526:2929  function addTransaction(... */\n      swap3\n      swap2\n      pop\n      pop\n      jump\t// out\n    tag_129:\n      mload(0x40)\n      dup1\n      0x60\n      add\n      0x40\n      mstore\n      dup1\n      and(0xffffffffffffffffffffffffffffffffffffffff, 0x00)\n      dup2\n      mstore\n      0x20\n      add\n      0x00\n      dup2\n      mstore\n      0x20\n      add\n      iszero(iszero(0x00))\n      dup2\n      mstore\n      pop\n      swap1\n      jump\t// out\n    tag_171:\n      dup3\n      dup1\n      sload\n      dup3\n      dup3\n      sstore\n      swap1\n      0x00\n      mstore\n      keccak256(0x00, 0x20)\n      swap1\n      dup2\n      add\n      swap3\n      dup3\n      iszero\n      tag_182\n      jumpi\n      swap2\n      0x20\n      mul\n      dup3\n      add\n    tag_183:\n      dup3\n      dup2\n      gt\n      iszero\n      tag_184\n      jumpi\n      dup3\n      mload\n      dup3\n      exp(0x0100, 0x00)\n      dup2\n      sload\n      dup2\n      0xffffffffffffffffffffffffffffffffffffffff\n      mul\n      not\n      and\n      swap1\n      dup4\n      0xffffffffffffffffffffffffffffffffffffffff\n      and\n      mul\n      or\n      swap1\n      sstore\n      pop\n      swap2\n      0x20\n      add\n      swap2\n      swap1\n      0x01\n      add\n      swap1\n      jump(tag_183)\n    tag_184:\n    tag_182:\n      pop\n      swap1\n      pop\n      tag_185\n      swap2\n      swap1\n      tag_186\n      jump\t// in\n    tag_185:\n      pop\n      swap1\n      jump\t// out\n    tag_186:\n    tag_187:\n      dup1\n      dup3\n      gt\n      iszero\n      tag_188\n      jumpi\n      0x00\n      dup2\n      0x00\n      swap1\n      sstore\n      pop\n      0x01\n      add\n      jump(tag_187)\n    tag_188:\n      pop\n      swap1\n      jump\t// out\n        /* \"#utility.yul\":7:82   */\n    tag_189:\n        /* \"#utility.yul\":40:46   */\n      0x00\n        /* \"#utility.yul\":73:75   */\n      0x40\n        /* \"#utility.yul\":67:76   */\n      mload\n        /* \"#utility.yul\":57:76   */\n      swap1\n      pop\n        /* \"#utility.yul\":7:82   */\n      swap1\n      jump\t// out\n        /* \"#utility.yul\":88:205   */\n    tag_190:\n        /* \"#utility.yul\":197:198   */\n      0x00\n        /* \"#utility.yul\":194:195   */\n      dup1\n        /* \"#utility.yul\":187:199   */\n      revert\n        /* \"#utility.yul\":211:328   */\n    tag_191:\n        /* \"#utility.yul\":320:321   */\n      0x00\n        /* \"#utility.yul\":317:318   */\n      dup1\n        /* \"#utility.yul\":310:322   */\n      revert\n        /* \"#utility.yul\":334:411   */\n    tag_192:\n        /* \"#utility.yul\":371:378   */\n      0x00\n        /* \"#utility.yul\":400:405   */\n      dup2\n        /* \"#utility.yul\":389:405   */\n      swap1\n      pop\n        /* \"#utility.yul\":334:411   */\n      swap2\n      swap1\n      pop\n      jump\t// out\n        /* \"#utility.yul\":417:539   */\n    tag_193:\n        /* \"#utility.yul\":490:514   */\n      tag_247\n        /* \"#utility.yul\":508:513   */\n      dup2\n        /* \"#utility.yul\":490:514   */\n      tag_192\n      jump\t// in\n    tag_247:\n        /* \"#utility.yul\":483:488   */\n      dup2\n        /* \"#utility.yul\":480:515   */\n      eq\n        /* \"#utility.yul\":470:533   */\n      tag_248\n      jumpi\n        /* \"#utility.yul\":529:530   */\n      0x00\n        /* \"#utility.yul\":526:527   */\n      dup1\n        /* \"#utility.yul\":519:531   */\n      revert\n        /* \"#utility.yul\":470:533   */\n    tag_248:\n        /* \"#utility.yul\":417:539   */\n      pop\n      jump\t// out\n        /* \"#utility.yul\":545:684   */\n    tag_194:\n        /* \"#utility.yul\":591:596   */\n      0x00\n        /* \"#utility.yul\":629:635   */\n      dup2\n        /* \"#utility.yul\":616:636   */\n      calldataload\n        /* \"#utility.yul\":607:636   */\n      swap1\n      pop\n        /* \"#utility.yul\":645:678   */\n      tag_250\n        /* \"#utility.yul\":672:677   */\n      dup2\n        /* \"#utility.yul\":645:678   */\n      tag_193\n      jump\t// in\n    tag_250:\n        /* \"#utility.yul\":545:684   */\n      swap3\n      swap2\n      pop\n      pop\n      jump\t// out\n        /* \"#utility.yul\":690:1019   */\n    tag_24:\n        /* \"#utility.yul\":749:755   */\n      0x00\n        /* \"#utility.yul\":798:800   */\n      0x20\n        /* \"#utility.yul\":786:795   */\n      dup3\n        /* \"#utility.yul\":777:784   */\n      dup5\n        /* \"#utility.yul\":773:796   */\n      sub\n        /* \"#utility.yul\":769:801   */\n      slt\n        /* \"#utility.yul\":766:885   */\n      iszero\n      tag_252\n      jumpi\n        /* \"#utility.yul\":804:883   */\n      tag_253\n      tag_190\n      jump\t// in\n    tag_253:\n        /* \"#utility.yul\":766:885   */\n    tag_252:\n        /* \"#utility.yul\":924:925   */\n      0x00\n        /* \"#utility.yul\":949:1002   */\n      tag_254\n        /* \"#utility.yul\":994:1001   */\n      dup5\n        /* \"#utility.yul\":985:991   */\n      dup3\n        /* \"#utility.yul\":974:983   */\n      dup6\n        /* \"#utility.yul\":970:992   */\n      add\n        /* \"#utility.yul\":949:1002   */\n      tag_194\n      jump\t// in\n    tag_254:\n        /* \"#utility.yul\":939:1002   */\n      swap2\n      pop\n        /* \"#utility.yul\":895:1012   */\n      pop\n        /* \"#utility.yul\":690:1019   */\n      swap3\n      swap2\n      pop\n      pop\n      jump\t// out\n        /* \"#utility.yul\":1025:1151   */\n    tag_195:\n        /* \"#utility.yul\":1062:1069   */\n      0x00\n        /* \"#utility.yul\":1102:1144   */\n      0xffffffffffffffffffffffffffffffffffffffff\n        /* \"#utility.yul\":1095:1100   */\n      dup3\n        /* \"#utility.yul\":1091:1145   */\n      and\n        /* \"#utility.yul\":1080:1145   */\n      swap1\n      pop\n        /* \"#utility.yul\":1025:1151   */\n      swap2\n      swap1\n      pop\n      jump\t// out\n        /* \"#utility.yul\":1157:1253   */\n    tag_196:\n        /* \"#utility.yul\":1194:1201   */\n      0x00\n        /* \"#utility.yul\":1223:1247   */\n      tag_257\n        /* \"#utility.yul\":1241:1246   */\n      dup3\n        /* \"#utility.yul\":1223:1247   */\n      tag_195\n      jump\t// in\n    tag_257:\n        /* \"#utility.yul\":1212:1247   */\n      swap1\n      pop\n        /* \"#utility.yul\":1157:1253   */\n      swap2\n      swap1\n      pop\n      jump\t// out\n        /* \"#utility.yul\":1259:1377   */\n    tag_197:\n        /* \"#utility.yul\":1346:1370   */\n      tag_259\n        /* \"#utility.yul\":1364:1369   */\n      dup2\n        /* \"#utility.yul\":1346:1370   */\n      tag_196\n      jump\t// in\n    tag_259:\n        /* \"#utility.yul\":1341:1344   */\n      dup3\n        /* \"#utility.yul\":1334:1371   */\n      mstore\n        /* \"#utility.yul\":1259:1377   */\n      pop\n      pop\n      jump\t// out\n        /* \"#utility.yul\":1383:1605   */\n    tag_27:\n        /* \"#utility.yul\":1476:1480   */\n      0x00\n        /* \"#utility.yul\":1514:1516   */\n      0x20\n        /* \"#utility.yul\":1503:1512   */\n      dup3\n        /* \"#utility.yul\":1499:1517   */\n      add\n        /* \"#utility.yul\":1491:1517   */\n      swap1\n      pop\n        /* \"#utility.yul\":1527:1598   */\n      tag_261\n        /* \"#utility.yul\":1595:1596   */\n      0x00\n        /* \"#utility.yul\":1584:1593   */\n      dup4\n        /* \"#utility.yul\":1580:1597   */\n      add\n        /* \"#utility.yul\":1571:1577   */\n      dup5\n        /* \"#utility.yul\":1527:1598   */\n      tag_197\n      jump\t// in\n    tag_261:\n        /* \"#utility.yul\":1383:1605   */\n      swap3\n      swap2\n      pop\n      pop\n      jump\t// out\n        /* \"#utility.yul\":1611:1733   */\n    tag_198:\n        /* \"#utility.yul\":1684:1708   */\n      tag_263\n        /* \"#utility.yul\":1702:1707   */\n      dup2\n        /* \"#utility.yul\":1684:1708   */\n      tag_196\n      jump\t// in\n    tag_263:\n        /* \"#utility.yul\":1677:1682   */\n      dup2\n        /* \"#utility.yul\":1674:1709   */\n      eq\n        /* \"#utility.yul\":1664:1727   */\n      tag_264\n      jumpi\n        /* \"#utility.yul\":1723:1724   */\n      0x00\n        /* \"#utility.yul\":1720:1721   */\n      dup1\n        /* \"#utility.yul\":1713:1725   */\n      revert\n        /* \"#utility.yul\":1664:1727   */\n    tag_264:\n        /* \"#utility.yul\":1611:1733   */\n      pop\n      jump\t// out\n        /* \"#utility.yul\":1739:1878   */\n    tag_199:\n        /* \"#utility.yul\":1785:1790   */\n      0x00\n        /* \"#utility.yul\":1823:1829   */\n      dup2\n        /* \"#utility.yul\":1810:1830   */\n      calldataload\n        /* \"#utility.yul\":1801:1830   */\n      swap1\n      pop\n        /* \"#utility.yul\":1839:1872   */\n      tag_266\n        /* \"#utility.yul\":1866:1871   */\n      dup2\n        /* \"#utility.yul\":1839:1872   */\n      tag_198\n      jump\t// in\n    tag_266:\n        /* \"#utility.yul\":1739:1878   */\n      swap3\n      swap2\n      pop\n      pop\n      jump\t// out\n        /* \"#utility.yul\":1884:2358   */\n    tag_30:\n        /* \"#utility.yul\":1952:1958   */\n      0x00\n        /* \"#utility.yul\":1960:1966   */\n      dup1\n        /* \"#utility.yul\":2009:2011   */\n      0x40\n        /* \"#utility.yul\":1997:2006   */\n      dup4\n        /* \"#utility.yul\":1988:1995   */\n      dup6\n        /* \"#utility.yul\":1984:2007   */\n      sub\n        /* \"#utility.yul\":1980:2012   */\n      slt\n        /* \"#utility.yul\":1977:2096   */\n      iszero\n      tag_268\n      jumpi\n        /* \"#utility.yul\":2015:2094   */\n      tag_269\n      tag_190\n      jump\t// in\n    tag_269:\n        /* \"#utility.yul\":1977:2096   */\n    tag_268:\n        /* \"#utility.yul\":2135:2136   */\n      0x00\n        /* \"#utility.yul\":2160:2213   */\n      tag_270\n        /* \"#utility.yul\":2205:2212   */\n      dup6\n        /* \"#utility.yul\":2196:2202   */\n      dup3\n        /* \"#utility.yul\":2185:2194   */\n      dup7\n        /* \"#utility.yul\":2181:2203   */\n      add\n        /* \"#utility.yul\":2160:2213   */\n      tag_199\n      jump\t// in\n    tag_270:\n        /* \"#utility.yul\":2150:2213   */\n      swap3\n      pop\n        /* \"#utility.yul\":2106:2223   */\n      pop\n        /* \"#utility.yul\":2262:2264   */\n      0x20\n        /* \"#utility.yul\":2288:2341   */\n      tag_271\n        /* \"#utility.yul\":2333:2340   */\n      dup6\n        /* \"#utility.yul\":2324:2330   */\n      dup3\n        /* \"#utility.yul\":2313:2322   */\n      dup7\n        /* \"#utility.yul\":2309:2331   */\n      add\n        /* \"#utility.yul\":2288:2341   */\n      tag_194\n      jump\t// in\n    tag_271:\n        /* \"#utility.yul\":2278:2341   */\n      swap2\n      pop\n        /* \"#utility.yul\":2233:2351   */\n      pop\n        /* \"#utility.yul\":1884:2358   */\n      swap3\n      pop\n      swap3\n      swap1\n      pop\n      jump\t// out\n        /* \"#utility.yul\":2364:2482   */\n    tag_200:\n        /* \"#utility.yul\":2451:2475   */\n      tag_273\n        /* \"#utility.yul\":2469:2474   */\n      dup2\n        /* \"#utility.yul\":2451:2475   */\n      tag_192\n      jump\t// in\n    tag_273:\n        /* \"#utility.yul\":2446:2449   */\n      dup3\n        /* \"#utility.yul\":2439:2476   */\n      mstore\n        /* \"#utility.yul\":2364:2482   */\n      pop\n      pop\n      jump\t// out\n        /* \"#utility.yul\":2488:2710   */\n    tag_33:\n        /* \"#utility.yul\":2581:2585   */\n      0x00\n        /* \"#utility.yul\":2619:2621   */\n      0x20\n        /* \"#utility.yul\":2608:2617   */\n      dup3\n        /* \"#utility.yul\":2604:2622   */\n      add\n        /* \"#utility.yul\":2596:2622   */\n      swap1\n      pop\n        /* \"#utility.yul\":2632:2703   */\n      tag_275\n        /* \"#utility.yul\":2700:2701   */\n      0x00\n        /* \"#utility.yul\":2689:2698   */\n      dup4\n        /* \"#utility.yul\":2685:2702   */\n      add\n        /* \"#utility.yul\":2676:2682   */\n      dup5\n        /* \"#utility.yul\":2632:2703   */\n      tag_200\n      jump\t// in\n    tag_275:\n        /* \"#utility.yul\":2488:2710   */\n      swap3\n      swap2\n      pop\n      pop\n      jump\t// out\n        /* \"#utility.yul\":2716:2815   */\n    tag_201:\n        /* \"#utility.yul\":2768:2774   */\n      0x00\n        /* \"#utility.yul\":2802:2807   */\n      dup2\n        /* \"#utility.yul\":2796:2808   */\n      mload\n        /* \"#utility.yul\":2786:2808   */\n      swap1\n      pop\n        /* \"#utility.yul\":2716:2815   */\n      swap2\n      swap1\n      pop\n      jump\t// out\n        /* \"#utility.yul\":2821:2990   */\n    tag_202:\n        /* \"#utility.yul\":2905:2916   */\n      0x00\n        /* \"#utility.yul\":2939:2945   */\n      dup3\n        /* \"#utility.yul\":2934:2937   */\n      dup3\n        /* \"#utility.yul\":2927:2946   */\n      mstore\n        /* \"#utility.yul\":2979:2983   */\n      0x20\n        /* \"#utility.yul\":2974:2977   */\n      dup3\n        /* \"#utility.yul\":2970:2984   */\n      add\n        /* \"#utility.yul\":2955:2984   */\n      swap1\n      pop\n        /* \"#utility.yul\":2821:2990   */\n      swap3\n      swap2\n      pop\n      pop\n      jump\t// out\n        /* \"#utility.yul\":2996:3242   */\n    tag_203:\n        /* \"#utility.yul\":3077:3078   */\n      0x00\n        /* \"#utility.yul\":3087:3200   */\n    tag_279:\n        /* \"#utility.yul\":3101:3107   */\n      dup4\n        /* \"#utility.yul\":3098:3099   */\n      dup2\n        /* \"#utility.yul\":3095:3108   */\n      lt\n        /* \"#utility.yul\":3087:3200   */\n      iszero\n      tag_281\n      jumpi\n        /* \"#utility.yul\":3186:3187   */\n      dup1\n        /* \"#utility.yul\":3181:3184   */\n      dup3\n        /* \"#utility.yul\":3177:3188   */\n      add\n        /* \"#utility.yul\":3171:3189   */\n      mload\n        /* \"#utility.yul\":3167:3168   */\n      dup2\n        /* \"#utility.yul\":3162:3165   */\n      dup5\n        /* \"#utility.yul\":3158:3169   */\n      add\n        /* \"#utility.yul\":3151:3190   */\n      mstore\n        /* \"#utility.yul\":3123:3125   */\n      0x20\n        /* \"#utility.yul\":3120:3121   */\n      dup2\n        /* \"#utility.yul\":3116:3126   */\n      add\n        /* \"#utility.yul\":3111:3126   */\n      swap1\n      pop\n        /* \"#utility.yul\":3087:3200   */\n      jump(tag_279)\n    tag_281:\n        /* \"#utility.yul\":3234:3235   */\n      0x00\n        /* \"#utility.yul\":3225:3231   */\n      dup5\n        /* \"#utility.yul\":3220:3223   */\n      dup5\n        /* \"#utility.yul\":3216:3232   */\n      add\n        /* \"#utility.yul\":3209:3236   */\n      mstore\n        /* \"#utility.yul\":3058:3242   */\n      pop\n        /* \"#utility.yul\":2996:3242   */\n      pop\n      pop\n      pop\n      jump\t// out\n        /* \"#utility.yul\":3248:3350   */\n    tag_204:\n        /* \"#utility.yul\":3289:3295   */\n      0x00\n        /* \"#utility.yul\":3340:3342   */\n      0x1f\n        /* \"#utility.yul\":3336:3343   */\n      not\n        /* \"#utility.yul\":3331:3333   */\n      0x1f\n        /* \"#utility.yul\":3324:3329   */\n      dup4\n        /* \"#utility.yul\":3320:3334   */\n      add\n        /* \"#utility.yul\":3316:3344   */\n      and\n        /* \"#utility.yul\":3306:3344   */\n      swap1\n      pop\n        /* \"#utility.yul\":3248:3350   */\n      swap2\n      swap1\n      pop\n      jump\t// out\n        /* \"#utility.yul\":3356:3733   */\n    tag_205:\n        /* \"#utility.yul\":3444:3447   */\n      0x00\n        /* \"#utility.yul\":3472:3511   */\n      tag_284\n        /* \"#utility.yul\":3505:3510   */\n      dup3\n        /* \"#utility.yul\":3472:3511   */\n      tag_201\n      jump\t// in\n    tag_284:\n        /* \"#utility.yul\":3527:3598   */\n      tag_285\n        /* \"#utility.yul\":3591:3597   */\n      dup2\n        /* \"#utility.yul\":3586:3589   */\n      dup6\n        /* \"#utility.yul\":3527:3598   */\n      tag_202\n      jump\t// in\n    tag_285:\n        /* \"#utility.yul\":3520:3598   */\n      swap4\n      pop\n        /* \"#utility.yul\":3607:3672   */\n      tag_286\n        /* \"#utility.yul\":3665:3671   */\n      dup2\n        /* \"#utility.yul\":3660:3663   */\n      dup6\n        /* \"#utility.yul\":3653:3657   */\n      0x20\n        /* \"#utility.yul\":3646:3651   */\n      dup7\n        /* \"#utility.yul\":3642:3658   */\n      add\n        /* \"#utility.yul\":3607:3672   */\n      tag_203\n      jump\t// in\n    tag_286:\n        /* \"#utility.yul\":3697:3726   */\n      tag_287\n        /* \"#utility.yul\":3719:3725   */\n      dup2\n        /* \"#utility.yul\":3697:3726   */\n      tag_204\n      jump\t// in\n    tag_287:\n        /* \"#utility.yul\":3692:3695   */\n      dup5\n        /* \"#utility.yul\":3688:3727   */\n      add\n        /* \"#utility.yul\":3681:3727   */\n      swap2\n      pop\n        /* \"#utility.yul\":3448:3733   */\n      pop\n        /* \"#utility.yul\":3356:3733   */\n      swap3\n      swap2\n      pop\n      pop\n      jump\t// out\n        /* \"#utility.yul\":3739:4052   */\n    tag_37:\n        /* \"#utility.yul\":3852:3856   */\n      0x00\n        /* \"#utility.yul\":3890:3892   */\n      0x20\n        /* \"#utility.yul\":3879:3888   */\n      dup3\n        /* \"#utility.yul\":3875:3893   */\n      add\n        /* \"#utility.yul\":3867:3893   */\n      swap1\n      pop\n        /* \"#utility.yul\":3939:3948   */\n      dup2\n        /* \"#utility.yul\":3933:3937   */\n      dup2\n        /* \"#utility.yul\":3929:3949   */\n      sub\n        /* \"#utility.yul\":3925:3926   */\n      0x00\n        /* \"#utility.yul\":3914:3923   */\n      dup4\n        /* \"#utility.yul\":3910:3927   */\n      add\n        /* \"#utility.yul\":3903:3950   */\n      mstore\n        /* \"#utility.yul\":3967:4045   */\n      tag_289\n        /* \"#utility.yul\":4040:4044   */\n      dup2\n        /* \"#utility.yul\":4031:4037   */\n      dup5\n        /* \"#utility.yul\":3967:4045   */\n      tag_205\n      jump\t// in\n    tag_289:\n        /* \"#utility.yul\":3959:4045   */\n      swap1\n      pop\n        /* \"#utility.yul\":3739:4052   */\n      swap3\n      swap2\n      pop\n      pop\n      jump\t// out\n        /* \"#utility.yul\":4058:4387   */\n    tag_40:\n        /* \"#utility.yul\":4117:4123   */\n      0x00\n        /* \"#utility.yul\":4166:4168   */\n      0x20\n        /* \"#utility.yul\":4154:4163   */\n      dup3\n        /* \"#utility.yul\":4145:4152   */\n      dup5\n        /* \"#utility.yul\":4141:4164   */\n      sub\n        /* \"#utility.yul\":4137:4169   */\n      slt\n        /* \"#utility.yul\":4134:4253   */\n      iszero\n      tag_291\n      jumpi\n        /* \"#utility.yul\":4172:4251   */\n      tag_292\n      tag_190\n      jump\t// in\n    tag_292:\n        /* \"#utility.yul\":4134:4253   */\n    tag_291:\n        /* \"#utility.yul\":4292:4293   */\n      0x00\n        /* \"#utility.yul\":4317:4370   */\n      tag_293\n        /* \"#utility.yul\":4362:4369   */\n      dup5\n        /* \"#utility.yul\":4353:4359   */\n      dup3\n        /* \"#utility.yul\":4342:4351   */\n      dup6\n        /* \"#utility.yul\":4338:4360   */\n      add\n        /* \"#utility.yul\":4317:4370   */\n      tag_199\n      jump\t// in\n    tag_293:\n        /* \"#utility.yul\":4307:4370   */\n      swap2\n      pop\n        /* \"#utility.yul\":4263:4380   */\n      pop\n        /* \"#utility.yul\":4058:4387   */\n      swap3\n      swap2\n      pop\n      pop\n      jump\t// out\n        /* \"#utility.yul\":4393:4483   */\n    tag_206:\n        /* \"#utility.yul\":4427:4434   */\n      0x00\n        /* \"#utility.yul\":4470:4475   */\n      dup2\n        /* \"#utility.yul\":4463:4476   */\n      iszero\n        /* \"#utility.yul\":4456:4477   */\n      iszero\n        /* \"#utility.yul\":4445:4477   */\n      swap1\n      pop\n        /* \"#utility.yul\":4393:4483   */\n      swap2\n      swap1\n      pop\n      jump\t// out\n        /* \"#utility.yul\":4489:4598   */\n    tag_207:\n        /* \"#utility.yul\":4570:4591   */\n      tag_296\n        /* \"#utility.yul\":4585:4590   */\n      dup2\n        /* \"#utility.yul\":4570:4591   */\n      tag_206\n      jump\t// in\n    tag_296:\n        /* \"#utility.yul\":4565:4568   */\n      dup3\n        /* \"#utility.yul\":4558:4592   */\n      mstore\n        /* \"#utility.yul\":4489:4598   */\n      pop\n      pop\n      jump\t// out\n        /* \"#utility.yul\":4604:4814   */\n    tag_43:\n        /* \"#utility.yul\":4691:4695   */\n      0x00\n        /* \"#utility.yul\":4729:4731   */\n      0x20\n        /* \"#utility.yul\":4718:4727   */\n      dup3\n        /* \"#utility.yul\":4714:4732   */\n      add\n        /* \"#utility.yul\":4706:4732   */\n      swap1\n      pop\n        /* \"#utility.yul\":4742:4807   */\n      tag_298\n        /* \"#utility.yul\":4804:4805   */\n      0x00\n        /* \"#utility.yul\":4793:4802   */\n      dup4\n        /* \"#utility.yul\":4789:4806   */\n      add\n        /* \"#utility.yul\":4780:4786   */\n      dup5\n        /* \"#utility.yul\":4742:4807   */\n      tag_207\n      jump\t// in\n    tag_298:\n        /* \"#utility.yul\":4604:4814   */\n      swap3\n      swap2\n      pop\n      pop\n      jump\t// out\n        /* \"#utility.yul\":4820:5294   */\n    tag_46:\n        /* \"#utility.yul\":4888:4894   */\n      0x00\n        /* \"#utility.yul\":4896:4902   */\n      dup1\n        /* \"#utility.yul\":4945:4947   */\n      0x40\n        /* \"#utility.yul\":4933:4942   */\n      dup4\n        /* \"#utility.yul\":4924:4931   */\n      dup6\n        /* \"#utility.yul\":4920:4943   */\n      sub\n        /* \"#utility.yul\":4916:4948   */\n      slt\n        /* \"#utility.yul\":4913:5032   */\n      iszero\n      tag_300\n      jumpi\n        /* \"#utility.yul\":4951:5030   */\n      tag_301\n      tag_190\n      jump\t// in\n    tag_301:\n        /* \"#utility.yul\":4913:5032   */\n    tag_300:\n        /* \"#utility.yul\":5071:5072   */\n      0x00\n        /* \"#utility.yul\":5096:5149   */\n      tag_302\n        /* \"#utility.yul\":5141:5148   */\n      dup6\n        /* \"#utility.yul\":5132:5138   */\n      dup3\n        /* \"#utility.yul\":5121:5130   */\n      dup7\n        /* \"#utility.yul\":5117:5139   */\n      add\n        /* \"#utility.yul\":5096:5149   */\n      tag_194\n      jump\t// in\n    tag_302:\n        /* \"#utility.yul\":5086:5149   */\n      swap3\n      pop\n        /* \"#utility.yul\":5042:5159   */\n      pop\n        /* \"#utility.yul\":5198:5200   */\n      0x20\n        /* \"#utility.yul\":5224:5277   */\n      tag_303\n        /* \"#utility.yul\":5269:5276   */\n      dup6\n        /* \"#utility.yul\":5260:5266   */\n      dup3\n        /* \"#utility.yul\":5249:5258   */\n      dup7\n        /* \"#utility.yul\":5245:5267   */\n      add\n        /* \"#utility.yul\":5224:5277   */\n      tag_199\n      jump\t// in\n    tag_303:\n        /* \"#utility.yul\":5214:5277   */\n      swap2\n      pop\n        /* \"#utility.yul\":5169:5287   */\n      pop\n        /* \"#utility.yul\":4820:5294   */\n      swap3\n      pop\n      swap3\n      swap1\n      pop\n      jump\t// out\n        /* \"#utility.yul\":5300:5416   */\n    tag_208:\n        /* \"#utility.yul\":5370:5391   */\n      tag_305\n        /* \"#utility.yul\":5385:5390   */\n      dup2\n        /* \"#utility.yul\":5370:5391   */\n      tag_206\n      jump\t// in\n    tag_305:\n        /* \"#utility.yul\":5363:5368   */\n      dup2\n        /* \"#utility.yul\":5360:5392   */\n      eq\n        /* \"#utility.yul\":5350:5410   */\n      tag_306\n      jumpi\n        /* \"#utility.yul\":5406:5407   */\n      0x00\n        /* \"#utility.yul\":5403:5404   */\n      dup1\n        /* \"#utility.yul\":5396:5408   */\n      revert\n        /* \"#utility.yul\":5350:5410   */\n    tag_306:\n        /* \"#utility.yul\":5300:5416   */\n      pop\n      jump\t// out\n        /* \"#utility.yul\":5422:5555   */\n    tag_209:\n        /* \"#utility.yul\":5465:5470   */\n      0x00\n        /* \"#utility.yul\":5503:5509   */\n      dup2\n        /* \"#utility.yul\":5490:5510   */\n      calldataload\n        /* \"#utility.yul\":5481:5510   */\n      swap1\n      pop\n        /* \"#utility.yul\":5519:5549   */\n      tag_308\n        /* \"#utility.yul\":5543:5548   */\n      dup2\n        /* \"#utility.yul\":5519:5549   */\n      tag_208\n      jump\t// in\n    tag_308:\n        /* \"#utility.yul\":5422:5555   */\n      swap3\n      swap2\n      pop\n      pop\n      jump\t// out\n        /* \"#utility.yul\":5561:5884   */\n    tag_51:\n        /* \"#utility.yul\":5617:5623   */\n      0x00\n        /* \"#utility.yul\":5666:5668   */\n      0x20\n        /* \"#utility.yul\":5654:5663   */\n      dup3\n        /* \"#utility.yul\":5645:5652   */\n      dup5\n        /* \"#utility.yul\":5641:5664   */\n      sub\n        /* \"#utility.yul\":5637:5669   */\n      slt\n        /* \"#utility.yul\":5634:5753   */\n      iszero\n      tag_310\n      jumpi\n        /* \"#utility.yul\":5672:5751   */\n      tag_311\n      tag_190\n      jump\t// in\n    tag_311:\n        /* \"#utility.yul\":5634:5753   */\n    tag_310:\n        /* \"#utility.yul\":5792:5793   */\n      0x00\n        /* \"#utility.yul\":5817:5867   */\n      tag_312\n        /* \"#utility.yul\":5859:5866   */\n      dup5\n        /* \"#utility.yul\":5850:5856   */\n      dup3\n        /* \"#utility.yul\":5839:5848   */\n      dup6\n        /* \"#utility.yul\":5835:5857   */\n      add\n        /* \"#utility.yul\":5817:5867   */\n      tag_209\n      jump\t// in\n    tag_312:\n        /* \"#utility.yul\":5807:5867   */\n      swap2\n      pop\n        /* \"#utility.yul\":5763:5877   */\n      pop\n        /* \"#utility.yul\":5561:5884   */\n      swap3\n      swap2\n      pop\n      pop\n      jump\t// out\n        /* \"#utility.yul\":5890:6320   */\n    tag_61:\n        /* \"#utility.yul\":6033:6037   */\n      0x00\n        /* \"#utility.yul\":6071:6073   */\n      0x60\n        /* \"#utility.yul\":6060:6069   */\n      dup3\n        /* \"#utility.yul\":6056:6074   */\n      add\n        /* \"#utility.yul\":6048:6074   */\n      swap1\n      pop\n        /* \"#utility.yul\":6084:6155   */\n      tag_314\n        /* \"#utility.yul\":6152:6153   */\n      0x00\n        /* \"#utility.yul\":6141:6150   */\n      dup4\n        /* \"#utility.yul\":6137:6154   */\n      add\n        /* \"#utility.yul\":6128:6134   */\n      dup7\n        /* \"#utility.yul\":6084:6155   */\n      tag_197\n      jump\t// in\n    tag_314:\n        /* \"#utility.yul\":6165:6237   */\n      tag_315\n        /* \"#utility.yul\":6233:6235   */\n      0x20\n        /* \"#utility.yul\":6222:6231   */\n      dup4\n        /* \"#utility.yul\":6218:6236   */\n      add\n        /* \"#utility.yul\":6209:6215   */\n      dup6\n        /* \"#utility.yul\":6165:6237   */\n      tag_200\n      jump\t// in\n    tag_315:\n        /* \"#utility.yul\":6247:6313   */\n      tag_316\n        /* \"#utility.yul\":6309:6311   */\n      0x40\n        /* \"#utility.yul\":6298:6307   */\n      dup4\n        /* \"#utility.yul\":6294:6312   */\n      add\n        /* \"#utility.yul\":6285:6291   */\n      dup5\n        /* \"#utility.yul\":6247:6313   */\n      tag_207\n      jump\t// in\n    tag_316:\n        /* \"#utility.yul\":5890:6320   */\n      swap5\n      swap4\n      pop\n      pop\n      pop\n      pop\n      jump\t// out\n        /* \"#utility.yul\":6326:6434   */\n    tag_210:\n        /* \"#utility.yul\":6403:6427   */\n      tag_318\n        /* \"#utility.yul\":6421:6426   */\n      dup2\n        /* \"#utility.yul\":6403:6427   */\n      tag_196\n      jump\t// in\n    tag_318:\n        /* \"#utility.yul\":6398:6401   */\n      dup3\n        /* \"#utility.yul\":6391:6428   */\n      mstore\n        /* \"#utility.yul\":6326:6434   */\n      pop\n      pop\n      jump\t// out\n        /* \"#utility.yul\":6440:6548   */\n    tag_211:\n        /* \"#utility.yul\":6517:6541   */\n      tag_320\n        /* \"#utility.yul\":6535:6540   */\n      dup2\n        /* \"#utility.yul\":6517:6541   */\n      tag_192\n      jump\t// in\n    tag_320:\n        /* \"#utility.yul\":6512:6515   */\n      dup3\n        /* \"#utility.yul\":6505:6542   */\n      mstore\n        /* \"#utility.yul\":6440:6548   */\n      pop\n      pop\n      jump\t// out\n        /* \"#utility.yul\":6554:6653   */\n    tag_212:\n        /* \"#utility.yul\":6625:6646   */\n      tag_322\n        /* \"#utility.yul\":6640:6645   */\n      dup2\n        /* \"#utility.yul\":6625:6646   */\n      tag_206\n      jump\t// in\n    tag_322:\n        /* \"#utility.yul\":6620:6623   */\n      dup3\n        /* \"#utility.yul\":6613:6647   */\n      mstore\n        /* \"#utility.yul\":6554:6653   */\n      pop\n      pop\n      jump\t// out\n        /* \"#utility.yul\":6727:7416   */\n    tag_213:\n        /* \"#utility.yul\":6876:6880   */\n      0x60\n        /* \"#utility.yul\":6871:6874   */\n      dup3\n        /* \"#utility.yul\":6867:6881   */\n      add\n        /* \"#utility.yul\":6970:6974   */\n      0x00\n        /* \"#utility.yul\":6963:6968   */\n      dup3\n        /* \"#utility.yul\":6959:6975   */\n      add\n        /* \"#utility.yul\":6953:6976   */\n      mload\n        /* \"#utility.yul\":6989:7052   */\n      tag_324\n        /* \"#utility.yul\":7046:7050   */\n      0x00\n        /* \"#utility.yul\":7041:7044   */\n      dup6\n        /* \"#utility.yul\":7037:7051   */\n      add\n        /* \"#utility.yul\":7023:7035   */\n      dup3\n        /* \"#utility.yul\":6989:7052   */\n      tag_210\n      jump\t// in\n    tag_324:\n        /* \"#utility.yul\":6891:7062   */\n      pop\n        /* \"#utility.yul\":7145:7149   */\n      0x20\n        /* \"#utility.yul\":7138:7143   */\n      dup3\n        /* \"#utility.yul\":7134:7150   */\n      add\n        /* \"#utility.yul\":7128:7151   */\n      mload\n        /* \"#utility.yul\":7164:7227   */\n      tag_325\n        /* \"#utility.yul\":7221:7225   */\n      0x20\n        /* \"#utility.yul\":7216:7219   */\n      dup6\n        /* \"#utility.yul\":7212:7226   */\n      add\n        /* \"#utility.yul\":7198:7210   */\n      dup3\n        /* \"#utility.yul\":7164:7227   */\n      tag_211\n      jump\t// in\n    tag_325:\n        /* \"#utility.yul\":7072:7237   */\n      pop\n        /* \"#utility.yul\":7323:7327   */\n      0x40\n        /* \"#utility.yul\":7316:7321   */\n      dup3\n        /* \"#utility.yul\":7312:7328   */\n      add\n        /* \"#utility.yul\":7306:7329   */\n      mload\n        /* \"#utility.yul\":7342:7399   */\n      tag_326\n        /* \"#utility.yul\":7393:7397   */\n      0x40\n        /* \"#utility.yul\":7388:7391   */\n      dup6\n        /* \"#utility.yul\":7384:7398   */\n      add\n        /* \"#utility.yul\":7370:7382   */\n      dup3\n        /* \"#utility.yul\":7342:7399   */\n      tag_212\n      jump\t// in\n    tag_326:\n        /* \"#utility.yul\":7247:7409   */\n      pop\n        /* \"#utility.yul\":6845:7416   */\n      pop\n        /* \"#utility.yul\":6727:7416   */\n      pop\n      pop\n      jump\t// out\n        /* \"#utility.yul\":7422:7748   */\n    tag_66:\n        /* \"#utility.yul\":7567:7571   */\n      0x00\n        /* \"#utility.yul\":7605:7607   */\n      0x60\n        /* \"#utility.yul\":7594:7603   */\n      dup3\n        /* \"#utility.yul\":7590:7608   */\n      add\n        /* \"#utility.yul\":7582:7608   */\n      swap1\n      pop\n        /* \"#utility.yul\":7618:7741   */\n      tag_328\n        /* \"#utility.yul\":7738:7739   */\n      0x00\n        /* \"#utility.yul\":7727:7736   */\n      dup4\n        /* \"#utility.yul\":7723:7740   */\n      add\n        /* \"#utility.yul\":7714:7720   */\n      dup5\n        /* \"#utility.yul\":7618:7741   */\n      tag_213\n      jump\t// in\n    tag_328:\n        /* \"#utility.yul\":7422:7748   */\n      swap3\n      swap2\n      pop\n      pop\n      jump\t// out\n        /* \"#utility.yul\":7754:7871   */\n    tag_214:\n        /* \"#utility.yul\":7863:7864   */\n      0x00\n        /* \"#utility.yul\":7860:7861   */\n      dup1\n        /* \"#utility.yul\":7853:7865   */\n      revert\n        /* \"#utility.yul\":7877:8057   */\n    tag_215:\n        /* \"#utility.yul\":7925:8002   */\n      0x4e487b7100000000000000000000000000000000000000000000000000000000\n        /* \"#utility.yul\":7922:7923   */\n      0x00\n        /* \"#utility.yul\":7915:8003   */\n      mstore\n        /* \"#utility.yul\":8022:8026   */\n      0x41\n        /* \"#utility.yul\":8019:8020   */\n      0x04\n        /* \"#utility.yul\":8012:8027   */\n      mstore\n        /* \"#utility.yul\":8046:8050   */\n      0x24\n        /* \"#utility.yul\":8043:8044   */\n      0x00\n        /* \"#utility.yul\":8036:8051   */\n      revert\n        /* \"#utility.yul\":8063:8344   */\n    tag_216:\n        /* \"#utility.yul\":8146:8173   */\n      tag_332\n        /* \"#utility.yul\":8168:8172   */\n      dup3\n        /* \"#utility.yul\":8146:8173   */\n      tag_204\n      jump\t// in\n    tag_332:\n        /* \"#utility.yul\":8138:8144   */\n      dup2\n        /* \"#utility.yul\":8134:8174   */\n      add\n        /* \"#utility.yul\":8276:8282   */\n      dup2\n        /* \"#utility.yul\":8264:8274   */\n      dup2\n        /* \"#utility.yul\":8261:8283   */\n      lt\n        /* \"#utility.yul\":8240:8258   */\n      0xffffffffffffffff\n        /* \"#utility.yul\":8228:8238   */\n      dup3\n        /* \"#utility.yul\":8225:8259   */\n      gt\n        /* \"#utility.yul\":8222:8284   */\n      or\n        /* \"#utility.yul\":8219:8307   */\n      iszero\n      tag_333\n      jumpi\n        /* \"#utility.yul\":8287:8305   */\n      tag_334\n      tag_215\n      jump\t// in\n    tag_334:\n        /* \"#utility.yul\":8219:8307   */\n    tag_333:\n        /* \"#utility.yul\":8327:8337   */\n      dup1\n        /* \"#utility.yul\":8323:8325   */\n      0x40\n        /* \"#utility.yul\":8316:8338   */\n      mstore\n        /* \"#utility.yul\":8106:8344   */\n      pop\n        /* \"#utility.yul\":8063:8344   */\n      pop\n      pop\n      jump\t// out\n        /* \"#utility.yul\":8350:8479   */\n    tag_217:\n        /* \"#utility.yul\":8384:8390   */\n      0x00\n        /* \"#utility.yul\":8411:8431   */\n      tag_336\n      tag_189\n      jump\t// in\n    tag_336:\n        /* \"#utility.yul\":8401:8431   */\n      swap1\n      pop\n        /* \"#utility.yul\":8440:8473   */\n      tag_337\n        /* \"#utility.yul\":8468:8472   */\n      dup3\n        /* \"#utility.yul\":8460:8466   */\n      dup3\n        /* \"#utility.yul\":8440:8473   */\n      tag_216\n      jump\t// in\n    tag_337:\n        /* \"#utility.yul\":8350:8479   */\n      swap2\n      swap1\n      pop\n      jump\t// out\n        /* \"#utility.yul\":8485:8796   */\n    tag_218:\n        /* \"#utility.yul\":8562:8566   */\n      0x00\n        /* \"#utility.yul\":8652:8670   */\n      0xffffffffffffffff\n        /* \"#utility.yul\":8644:8650   */\n      dup3\n        /* \"#utility.yul\":8641:8671   */\n      gt\n        /* \"#utility.yul\":8638:8694   */\n      iszero\n      tag_339\n      jumpi\n        /* \"#utility.yul\":8674:8692   */\n      tag_340\n      tag_215\n      jump\t// in\n    tag_340:\n        /* \"#utility.yul\":8638:8694   */\n    tag_339:\n        /* \"#utility.yul\":8724:8728   */\n      0x20\n        /* \"#utility.yul\":8716:8722   */\n      dup3\n        /* \"#utility.yul\":8712:8729   */\n      mul\n        /* \"#utility.yul\":8704:8729   */\n      swap1\n      pop\n        /* \"#utility.yul\":8784:8788   */\n      0x20\n        /* \"#utility.yul\":8778:8782   */\n      dup2\n        /* \"#utility.yul\":8774:8789   */\n      add\n        /* \"#utility.yul\":8766:8789   */\n      swap1\n      pop\n        /* \"#utility.yul\":8485:8796   */\n      swap2\n      swap1\n      pop\n      jump\t// out\n        /* \"#utility.yul\":8802:8919   */\n    tag_219:\n        /* \"#utility.yul\":8911:8912   */\n      0x00\n        /* \"#utility.yul\":8908:8909   */\n      dup1\n        /* \"#utility.yul\":8901:8913   */\n      revert\n        /* \"#utility.yul\":8942:9652   */\n    tag_220:\n        /* \"#utility.yul\":9038:9043   */\n      0x00\n        /* \"#utility.yul\":9063:9144   */\n      tag_343\n        /* \"#utility.yul\":9079:9143   */\n      tag_344\n        /* \"#utility.yul\":9136:9142   */\n      dup5\n        /* \"#utility.yul\":9079:9143   */\n      tag_218\n      jump\t// in\n    tag_344:\n        /* \"#utility.yul\":9063:9144   */\n      tag_217\n      jump\t// in\n    tag_343:\n        /* \"#utility.yul\":9054:9144   */\n      swap1\n      pop\n        /* \"#utility.yul\":9164:9169   */\n      dup1\n        /* \"#utility.yul\":9193:9199   */\n      dup4\n        /* \"#utility.yul\":9186:9191   */\n      dup3\n        /* \"#utility.yul\":9179:9200   */\n      mstore\n        /* \"#utility.yul\":9227:9231   */\n      0x20\n        /* \"#utility.yul\":9220:9225   */\n      dup3\n        /* \"#utility.yul\":9216:9232   */\n      add\n        /* \"#utility.yul\":9209:9232   */\n      swap1\n      pop\n        /* \"#utility.yul\":9280:9284   */\n      0x20\n        /* \"#utility.yul\":9272:9278   */\n      dup5\n        /* \"#utility.yul\":9268:9285   */\n      mul\n        /* \"#utility.yul\":9260:9266   */\n      dup4\n        /* \"#utility.yul\":9256:9286   */\n      add\n        /* \"#utility.yul\":9309:9312   */\n      dup6\n        /* \"#utility.yul\":9301:9307   */\n      dup2\n        /* \"#utility.yul\":9298:9313   */\n      gt\n        /* \"#utility.yul\":9295:9417   */\n      iszero\n      tag_345\n      jumpi\n        /* \"#utility.yul\":9328:9407   */\n      tag_346\n      tag_219\n      jump\t// in\n    tag_346:\n        /* \"#utility.yul\":9295:9417   */\n    tag_345:\n        /* \"#utility.yul\":9443:9449   */\n      dup4\n        /* \"#utility.yul\":9426:9646   */\n    tag_347:\n        /* \"#utility.yul\":9460:9466   */\n      dup2\n        /* \"#utility.yul\":9455:9458   */\n      dup2\n        /* \"#utility.yul\":9452:9467   */\n      lt\n        /* \"#utility.yul\":9426:9646   */\n      iszero\n      tag_349\n      jumpi\n        /* \"#utility.yul\":9535:9538   */\n      dup1\n        /* \"#utility.yul\":9564:9601   */\n      tag_350\n        /* \"#utility.yul\":9597:9600   */\n      dup9\n        /* \"#utility.yul\":9585:9595   */\n      dup3\n        /* \"#utility.yul\":9564:9601   */\n      tag_199\n      jump\t// in\n    tag_350:\n        /* \"#utility.yul\":9559:9562   */\n      dup5\n        /* \"#utility.yul\":9552:9602   */\n      mstore\n        /* \"#utility.yul\":9631:9635   */\n      0x20\n        /* \"#utility.yul\":9626:9629   */\n      dup5\n        /* \"#utility.yul\":9622:9636   */\n      add\n        /* \"#utility.yul\":9615:9636   */\n      swap4\n      pop\n        /* \"#utility.yul\":9502:9646   */\n      pop\n        /* \"#utility.yul\":9486:9490   */\n      0x20\n        /* \"#utility.yul\":9481:9484   */\n      dup2\n        /* \"#utility.yul\":9477:9491   */\n      add\n        /* \"#utility.yul\":9470:9491   */\n      swap1\n      pop\n        /* \"#utility.yul\":9426:9646   */\n      jump(tag_347)\n    tag_349:\n        /* \"#utility.yul\":9430:9451   */\n      pop\n        /* \"#utility.yul\":9044:9652   */\n      pop\n      pop\n        /* \"#utility.yul\":8942:9652   */\n      swap4\n      swap3\n      pop\n      pop\n      pop\n      jump\t// out\n        /* \"#utility.yul\":9675:10045   */\n    tag_221:\n        /* \"#utility.yul\":9746:9751   */\n      0x00\n        /* \"#utility.yul\":9795:9798   */\n      dup3\n        /* \"#utility.yul\":9788:9792   */\n      0x1f\n        /* \"#utility.yul\":9780:9786   */\n      dup4\n        /* \"#utility.yul\":9776:9793   */\n      add\n        /* \"#utility.yul\":9772:9799   */\n      slt\n        /* \"#utility.yul\":9762:9884   */\n      tag_352\n      jumpi\n        /* \"#utility.yul\":9803:9882   */\n      tag_353\n      tag_214\n      jump\t// in\n    tag_353:\n        /* \"#utility.yul\":9762:9884   */\n    tag_352:\n        /* \"#utility.yul\":9920:9926   */\n      dup2\n        /* \"#utility.yul\":9907:9927   */\n      calldataload\n        /* \"#utility.yul\":9945:10039   */\n      tag_354\n        /* \"#utility.yul\":10035:10038   */\n      dup5\n        /* \"#utility.yul\":10027:10033   */\n      dup3\n        /* \"#utility.yul\":10020:10024   */\n      0x20\n        /* \"#utility.yul\":10012:10018   */\n      dup7\n        /* \"#utility.yul\":10008:10025   */\n      add\n        /* \"#utility.yul\":9945:10039   */\n      tag_220\n      jump\t// in\n    tag_354:\n        /* \"#utility.yul\":9936:10039   */\n      swap2\n      pop\n        /* \"#utility.yul\":9752:10045   */\n      pop\n        /* \"#utility.yul\":9675:10045   */\n      swap3\n      swap2\n      pop\n      pop\n      jump\t// out\n        /* \"#utility.yul\":10051:10735   */\n    tag_82:\n        /* \"#utility.yul\":10144:10150   */\n      0x00\n        /* \"#utility.yul\":10152:10158   */\n      dup1\n        /* \"#utility.yul\":10201:10203   */\n      0x40\n        /* \"#utility.yul\":10189:10198   */\n      dup4\n        /* \"#utility.yul\":10180:10187   */\n      dup6\n        /* \"#utility.yul\":10176:10199   */\n      sub\n        /* \"#utility.yul\":10172:10204   */\n      slt\n        /* \"#utility.yul\":10169:10288   */\n      iszero\n      tag_356\n      jumpi\n        /* \"#utility.yul\":10207:10286   */\n      tag_357\n      tag_190\n      jump\t// in\n    tag_357:\n        /* \"#utility.yul\":10169:10288   */\n    tag_356:\n        /* \"#utility.yul\":10355:10356   */\n      0x00\n        /* \"#utility.yul\":10344:10353   */\n      dup4\n        /* \"#utility.yul\":10340:10357   */\n      add\n        /* \"#utility.yul\":10327:10358   */\n      calldataload\n        /* \"#utility.yul\":10385:10403   */\n      0xffffffffffffffff\n        /* \"#utility.yul\":10377:10383   */\n      dup2\n        /* \"#utility.yul\":10374:10404   */\n      gt\n        /* \"#utility.yul\":10371:10488   */\n      iszero\n      tag_358\n      jumpi\n        /* \"#utility.yul\":10407:10486   */\n      tag_359\n      tag_191\n      jump\t// in\n    tag_359:\n        /* \"#utility.yul\":10371:10488   */\n    tag_358:\n        /* \"#utility.yul\":10512:10590   */\n      tag_360\n        /* \"#utility.yul\":10582:10589   */\n      dup6\n        /* \"#utility.yul\":10573:10579   */\n      dup3\n        /* \"#utility.yul\":10562:10571   */\n      dup7\n        /* \"#utility.yul\":10558:10580   */\n      add\n        /* \"#utility.yul\":10512:10590   */\n      tag_221\n      jump\t// in\n    tag_360:\n        /* \"#utility.yul\":10502:10590   */\n      swap3\n      pop\n        /* \"#utility.yul\":10298:10600   */\n      pop\n        /* \"#utility.yul\":10639:10641   */\n      0x20\n        /* \"#utility.yul\":10665:10718   */\n      tag_361\n        /* \"#utility.yul\":10710:10717   */\n      dup6\n        /* \"#utility.yul\":10701:10707   */\n      dup3\n        /* \"#utility.yul\":10690:10699   */\n      dup7\n        /* \"#utility.yul\":10686:10708   */\n      add\n        /* \"#utility.yul\":10665:10718   */\n      tag_194\n      jump\t// in\n    tag_361:\n        /* \"#utility.yul\":10655:10718   */\n      swap2\n      pop\n        /* \"#utility.yul\":10610:10728   */\n      pop\n        /* \"#utility.yul\":10051:10735   */\n      swap3\n      pop\n      swap3\n      swap1\n      pop\n      jump\t// out\n        /* \"#utility.yul\":10741:10912   */\n    tag_222:\n        /* \"#utility.yul\":10881:10904   */\n      0x596f7520617265206e6f7420746865206f776e65720000000000000000000000\n        /* \"#utility.yul\":10877:10878   */\n      0x00\n        /* \"#utility.yul\":10869:10875   */\n      dup3\n        /* \"#utility.yul\":10865:10879   */\n      add\n        /* \"#utility.yul\":10858:10905   */\n      mstore\n        /* \"#utility.yul\":10741:10912   */\n      pop\n      jump\t// out\n        /* \"#utility.yul\":10918:11284   */\n    tag_223:\n        /* \"#utility.yul\":11060:11063   */\n      0x00\n        /* \"#utility.yul\":11081:11148   */\n      tag_364\n        /* \"#utility.yul\":11145:11147   */\n      0x15\n        /* \"#utility.yul\":11140:11143   */\n      dup4\n        /* \"#utility.yul\":11081:11148   */\n      tag_202\n      jump\t// in\n    tag_364:\n        /* \"#utility.yul\":11074:11148   */\n      swap2\n      pop\n        /* \"#utility.yul\":11157:11250   */\n      tag_365\n        /* \"#utility.yul\":11246:11249   */\n      dup3\n        /* \"#utility.yul\":11157:11250   */\n      tag_222\n      jump\t// in\n    tag_365:\n        /* \"#utility.yul\":11275:11277   */\n      0x20\n        /* \"#utility.yul\":11270:11273   */\n      dup3\n        /* \"#utility.yul\":11266:11278   */\n      add\n        /* \"#utility.yul\":11259:11278   */\n      swap1\n      pop\n        /* \"#utility.yul\":10918:11284   */\n      swap2\n      swap1\n      pop\n      jump\t// out\n        /* \"#utility.yul\":11290:11709   */\n    tag_97:\n        /* \"#utility.yul\":11456:11460   */\n      0x00\n        /* \"#utility.yul\":11494:11496   */\n      0x20\n        /* \"#utility.yul\":11483:11492   */\n      dup3\n        /* \"#utility.yul\":11479:11497   */\n      add\n        /* \"#utility.yul\":11471:11497   */\n      swap1\n      pop\n        /* \"#utility.yul\":11543:11552   */\n      dup2\n        /* \"#utility.yul\":11537:11541   */\n      dup2\n        /* \"#utility.yul\":11533:11553   */\n      sub\n        /* \"#utility.yul\":11529:11530   */\n      0x00\n        /* \"#utility.yul\":11518:11527   */\n      dup4\n        /* \"#utility.yul\":11514:11531   */\n      add\n        /* \"#utility.yul\":11507:11554   */\n      mstore\n        /* \"#utility.yul\":11571:11702   */\n      tag_367\n        /* \"#utility.yul\":11697:11701   */\n      dup2\n        /* \"#utility.yul\":11571:11702   */\n      tag_223\n      jump\t// in\n    tag_367:\n        /* \"#utility.yul\":11563:11702   */\n      swap1\n      pop\n        /* \"#utility.yul\":11290:11709   */\n      swap2\n      swap1\n      pop\n      jump\t// out\n        /* \"#utility.yul\":11715:11881   */\n    tag_224:\n        /* \"#utility.yul\":11855:11873   */\n      0x76616c7565206e6f7420656e6f75676800000000000000000000000000000000\n        /* \"#utility.yul\":11851:11852   */\n      0x00\n        /* \"#utility.yul\":11843:11849   */\n      dup3\n        /* \"#utility.yul\":11839:11853   */\n      add\n        /* \"#utility.yul\":11832:11874   */\n      mstore\n        /* \"#utility.yul\":11715:11881   */\n      pop\n      jump\t// out\n        /* \"#utility.yul\":11887:12253   */\n    tag_225:\n        /* \"#utility.yul\":12029:12032   */\n      0x00\n        /* \"#utility.yul\":12050:12117   */\n      tag_370\n        /* \"#utility.yul\":12114:12116   */\n      0x10\n        /* \"#utility.yul\":12109:12112   */\n      dup4\n        /* \"#utility.yul\":12050:12117   */\n      tag_202\n      jump\t// in\n    tag_370:\n        /* \"#utility.yul\":12043:12117   */\n      swap2\n      pop\n        /* \"#utility.yul\":12126:12219   */\n      tag_371\n        /* \"#utility.yul\":12215:12218   */\n      dup3\n        /* \"#utility.yul\":12126:12219   */\n      tag_224\n      jump\t// in\n    tag_371:\n        /* \"#utility.yul\":12244:12246   */\n      0x20\n        /* \"#utility.yul\":12239:12242   */\n      dup3\n        /* \"#utility.yul\":12235:12247   */\n      add\n        /* \"#utility.yul\":12228:12247   */\n      swap1\n      pop\n        /* \"#utility.yul\":11887:12253   */\n      swap2\n      swap1\n      pop\n      jump\t// out\n        /* \"#utility.yul\":12259:12678   */\n    tag_101:\n        /* \"#utility.yul\":12425:12429   */\n      0x00\n        /* \"#utility.yul\":12463:12465   */\n      0x20\n        /* \"#utility.yul\":12452:12461   */\n      dup3\n        /* \"#utility.yul\":12448:12466   */\n      add\n        /* \"#utility.yul\":12440:12466   */\n      swap1\n      pop\n        /* \"#utility.yul\":12512:12521   */\n      dup2\n        /* \"#utility.yul\":12506:12510   */\n      dup2\n        /* \"#utility.yul\":12502:12522   */\n      sub\n        /* \"#utility.yul\":12498:12499   */\n      0x00\n        /* \"#utility.yul\":12487:12496   */\n      dup4\n        /* \"#utility.yul\":12483:12500   */\n      add\n        /* \"#utility.yul\":12476:12523   */\n      mstore\n        /* \"#utility.yul\":12540:12671   */\n      tag_373\n        /* \"#utility.yul\":12666:12670   */\n      dup2\n        /* \"#utility.yul\":12540:12671   */\n      tag_225\n      jump\t// in\n    tag_373:\n        /* \"#utility.yul\":12532:12671   */\n      swap1\n      pop\n        /* \"#utility.yul\":12259:12678   */\n      swap2\n      swap1\n      pop\n      jump\t// out\n        /* \"#utility.yul\":12684:12864   */\n    tag_117:\n        /* \"#utility.yul\":12732:12809   */\n      0x4e487b7100000000000000000000000000000000000000000000000000000000\n        /* \"#utility.yul\":12729:12730   */\n      0x00\n        /* \"#utility.yul\":12722:12810   */\n      mstore\n        /* \"#utility.yul\":12829:12833   */\n      0x32\n        /* \"#utility.yul\":12826:12827   */\n      0x04\n        /* \"#utility.yul\":12819:12834   */\n      mstore\n        /* \"#utility.yul\":12853:12857   */\n      0x24\n        /* \"#utility.yul\":12850:12851   */\n      0x00\n        /* \"#utility.yul\":12843:12858   */\n      revert\n        /* \"#utility.yul\":12870:13050   */\n    tag_226:\n        /* \"#utility.yul\":12918:12995   */\n      0x4e487b7100000000000000000000000000000000000000000000000000000000\n        /* \"#utility.yul\":12915:12916   */\n      0x00\n        /* \"#utility.yul\":12908:12996   */\n      mstore\n        /* \"#utility.yul\":13015:13019   */\n      0x11\n        /* \"#utility.yul\":13012:13013   */\n      0x04\n        /* \"#utility.yul\":13005:13020   */\n      mstore\n        /* \"#utility.yul\":13039:13043   */\n      0x24\n        /* \"#utility.yul\":13036:13037   */\n      0x00\n        /* \"#utility.yul\":13029:13044   */\n      revert\n        /* \"#utility.yul\":13056:13247   */\n    tag_121:\n        /* \"#utility.yul\":13096:13099   */\n      0x00\n        /* \"#utility.yul\":13115:13135   */\n      tag_377\n        /* \"#utility.yul\":13133:13134   */\n      dup3\n        /* \"#utility.yul\":13115:13135   */\n      tag_192\n      jump\t// in\n    tag_377:\n        /* \"#utility.yul\":13110:13135   */\n      swap2\n      pop\n        /* \"#utility.yul\":13149:13169   */\n      tag_378\n        /* \"#utility.yul\":13167:13168   */\n      dup4\n        /* \"#utility.yul\":13149:13169   */\n      tag_192\n      jump\t// in\n    tag_378:\n        /* \"#utility.yul\":13144:13169   */\n      swap3\n      pop\n        /* \"#utility.yul\":13192:13193   */\n      dup3\n        /* \"#utility.yul\":13189:13190   */\n      dup3\n        /* \"#utility.yul\":13185:13194   */\n      add\n        /* \"#utility.yul\":13178:13194   */\n      swap1\n      pop\n        /* \"#utility.yul\":13213:13216   */\n      dup1\n        /* \"#utility.yul\":13210:13211   */\n      dup3\n        /* \"#utility.yul\":13207:13217   */\n      gt\n        /* \"#utility.yul\":13204:13240   */\n      iszero\n      tag_379\n      jumpi\n        /* \"#utility.yul\":13220:13238   */\n      tag_380\n      tag_226\n      jump\t// in\n    tag_380:\n        /* \"#utility.yul\":13204:13240   */\n    tag_379:\n        /* \"#utility.yul\":13056:13247   */\n      swap3\n      swap2\n      pop\n      pop\n      jump\t// out\n        /* \"#utility.yul\":13253:13486   */\n    tag_127:\n        /* \"#utility.yul\":13292:13295   */\n      0x00\n        /* \"#utility.yul\":13315:13339   */\n      tag_382\n        /* \"#utility.yul\":13333:13338   */\n      dup3\n        /* \"#utility.yul\":13315:13339   */\n      tag_192\n      jump\t// in\n    tag_382:\n        /* \"#utility.yul\":13306:13339   */\n      swap2\n      pop\n        /* \"#utility.yul\":13361:13427   */\n      0xffffffffffffffffffffffffffffffffffffffffffffffffffffffffffffffff\n        /* \"#utility.yul\":13354:13359   */\n      dup3\n        /* \"#utility.yul\":13351:13428   */\n      sub\n        /* \"#utility.yul\":13348:13451   */\n      tag_383\n      jumpi\n        /* \"#utility.yul\":13431:13449   */\n      tag_384\n      tag_226\n      jump\t// in\n    tag_384:\n        /* \"#utility.yul\":13348:13451   */\n    tag_383:\n        /* \"#utility.yul\":13478:13479   */\n      0x01\n        /* \"#utility.yul\":13471:13476   */\n      dup3\n        /* \"#utility.yul\":13467:13480   */\n      add\n        /* \"#utility.yul\":13460:13480   */\n      swap1\n      pop\n        /* \"#utility.yul\":13253:13486   */\n      swap2\n      swap1\n      pop\n      jump\t// out\n        /* \"#utility.yul\":13492:13668   */\n    tag_227:\n        /* \"#utility.yul\":13632:13660   */\n      0x6e6f742066696e64207472616e73616374696f6e206279204964000000000000\n        /* \"#utility.yul\":13628:13629   */\n      0x00\n        /* \"#utility.yul\":13620:13626   */\n      dup3\n        /* \"#utility.yul\":13616:13630   */\n      add\n        /* \"#utility.yul\":13609:13661   */\n      mstore\n        /* \"#utility.yul\":13492:13668   */\n      pop\n      jump\t// out\n        /* \"#utility.yul\":13674:14040   */\n    tag_228:\n        /* \"#utility.yul\":13816:13819   */\n      0x00\n        /* \"#utility.yul\":13837:13904   */\n      tag_387\n        /* \"#utility.yul\":13901:13903   */\n      0x1a\n        /* \"#utility.yul\":13896:13899   */\n      dup4\n        /* \"#utility.yul\":13837:13904   */\n      tag_202\n      jump\t// in\n    tag_387:\n        /* \"#utility.yul\":13830:13904   */\n      swap2\n      pop\n        /* \"#utility.yul\":13913:14006   */\n      tag_388\n        /* \"#utility.yul\":14002:14005   */\n      dup3\n        /* \"#utility.yul\":13913:14006   */\n      tag_227\n      jump\t// in\n    tag_388:\n        /* \"#utility.yul\":14031:14033   */\n      0x20\n        /* \"#utility.yul\":14026:14029   */\n      dup3\n        /* \"#utility.yul\":14022:14034   */\n      add\n        /* \"#utility.yul\":14015:14034   */\n      swap1\n      pop\n        /* \"#utility.yul\":13674:14040   */\n      swap2\n      swap1\n      pop\n      jump\t// out\n        /* \"#utility.yul\":14046:14465   */\n    tag_133:\n        /* \"#utility.yul\":14212:14216   */\n      0x00\n        /* \"#utility.yul\":14250:14252   */\n      0x20\n        /* \"#utility.yul\":14239:14248   */\n      dup3\n        /* \"#utility.yul\":14235:14253   */\n      add\n        /* \"#utility.yul\":14227:14253   */\n      swap1\n      pop\n        /* \"#utility.yul\":14299:14308   */\n      dup2\n        /* \"#utility.yul\":14293:14297   */\n      dup2\n        /* \"#utility.yul\":14289:14309   */\n      sub\n        /* \"#utility.yul\":14285:14286   */\n      0x00\n        /* \"#utility.yul\":14274:14283   */\n      dup4\n        /* \"#utility.yul\":14270:14287   */\n      add\n        /* \"#utility.yul\":14263:14310   */\n      mstore\n        /* \"#utility.yul\":14327:14458   */\n      tag_390\n        /* \"#utility.yul\":14453:14457   */\n      dup2\n        /* \"#utility.yul\":14327:14458   */\n      tag_228\n      jump\t// in\n    tag_390:\n        /* \"#utility.yul\":14319:14458   */\n      swap1\n      pop\n        /* \"#utility.yul\":14046:14465   */\n      swap2\n      swap1\n      pop\n      jump\t// out\n        /* \"#utility.yul\":14471:14642   */\n    tag_229:\n        /* \"#utility.yul\":14611:14634   */\n      0x796f7520617265206e6f7420696e206f776e6572730000000000000000000000\n        /* \"#utility.yul\":14607:14608   */\n      0x00\n        /* \"#utility.yul\":14599:14605   */\n      dup3\n        /* \"#utility.yul\":14595:14609   */\n      add\n        /* \"#utility.yul\":14588:14635   */\n      mstore\n        /* \"#utility.yul\":14471:14642   */\n      pop\n      jump\t// out\n        /* \"#utility.yul\":14648:15014   */\n    tag_230:\n        /* \"#utility.yul\":14790:14793   */\n      0x00\n        /* \"#utility.yul\":14811:14878   */\n      tag_393\n        /* \"#utility.yul\":14875:14877   */\n      0x15\n        /* \"#utility.yul\":14870:14873   */\n      dup4\n        /* \"#utility.yul\":14811:14878   */\n      tag_202\n      jump\t// in\n    tag_393:\n        /* \"#utility.yul\":14804:14878   */\n      swap2\n      pop\n        /* \"#utility.yul\":14887:14980   */\n      tag_394\n        /* \"#utility.yul\":14976:14979   */\n      dup3\n        /* \"#utility.yul\":14887:14980   */\n      tag_229\n      jump\t// in\n    tag_394:\n        /* \"#utility.yul\":15005:15007   */\n      0x20\n        /* \"#utility.yul\":15000:15003   */\n      dup3\n        /* \"#utility.yul\":14996:15008   */\n      add\n        /* \"#utility.yul\":14989:15008   */\n      swap1\n      pop\n        /* \"#utility.yul\":14648:15014   */\n      swap2\n      swap1\n      pop\n      jump\t// out\n        /* \"#utility.yul\":15020:15439   */\n    tag_141:\n        /* \"#utility.yul\":15186:15190   */\n      0x00\n        /* \"#utility.yul\":15224:15226   */\n      0x20\n        /* \"#utility.yul\":15213:15222   */\n      dup3\n        /* \"#utility.yul\":15209:15227   */\n      add\n        /* \"#utility.yul\":15201:15227   */\n      swap1\n      pop\n        /* \"#utility.yul\":15273:15282   */\n      dup2\n        /* \"#utility.yul\":15267:15271   */\n      dup2\n        /* \"#utility.yul\":15263:15283   */\n      sub\n        /* \"#utility.yul\":15259:15260   */\n      0x00\n        /* \"#utility.yul\":15248:15257   */\n      dup4\n        /* \"#utility.yul\":15244:15261   */\n      add\n        /* \"#utility.yul\":15237:15284   */\n      mstore\n        /* \"#utility.yul\":15301:15432   */\n      tag_396\n        /* \"#utility.yul\":15427:15431   */\n      dup2\n        /* \"#utility.yul\":15301:15432   */\n      tag_230\n      jump\t// in\n    tag_396:\n        /* \"#utility.yul\":15293:15432   */\n      swap1\n      pop\n        /* \"#utility.yul\":15020:15439   */\n      swap2\n      swap1\n      pop\n      jump\t// out\n        /* \"#utility.yul\":15445:15626   */\n    tag_231:\n        /* \"#utility.yul\":15585:15618   */\n      0x7472616e73616374696f6e2064657374696e6174696f6e206973206e6f6e6500\n        /* \"#utility.yul\":15581:15582   */\n      0x00\n        /* \"#utility.yul\":15573:15579   */\n      dup3\n        /* \"#utility.yul\":15569:15583   */\n      add\n        /* \"#utility.yul\":15562:15619   */\n      mstore\n        /* \"#utility.yul\":15445:15626   */\n      pop\n      jump\t// out\n        /* \"#utility.yul\":15632:15998   */\n    tag_232:\n        /* \"#utility.yul\":15774:15777   */\n      0x00\n        /* \"#utility.yul\":15795:15862   */\n      tag_399\n        /* \"#utility.yul\":15859:15861   */\n      0x1f\n        /* \"#utility.yul\":15854:15857   */\n      dup4\n        /* \"#utility.yul\":15795:15862   */\n      tag_202\n      jump\t// in\n    tag_399:\n        /* \"#utility.yul\":15788:15862   */\n      swap2\n      pop\n        /* \"#utility.yul\":15871:15964   */\n      tag_400\n        /* \"#utility.yul\":15960:15963   */\n      dup3\n        /* \"#utility.yul\":15871:15964   */\n      tag_231\n      jump\t// in\n    tag_400:\n        /* \"#utility.yul\":15989:15991   */\n      0x20\n        /* \"#utility.yul\":15984:15987   */\n      dup3\n        /* \"#utility.yul\":15980:15992   */\n      add\n        /* \"#utility.yul\":15973:15992   */\n      swap1\n      pop\n        /* \"#utility.yul\":15632:15998   */\n      swap2\n      swap1\n      pop\n      jump\t// out\n        /* \"#utility.yul\":16004:16423   */\n    tag_144:\n        /* \"#utility.yul\":16170:16174   */\n      0x00\n        /* \"#utility.yul\":16208:16210   */\n      0x20\n        /* \"#utility.yul\":16197:16206   */\n      dup3\n        /* \"#utility.yul\":16193:16211   */\n      add\n        /* \"#utility.yul\":16185:16211   */\n      swap1\n      pop\n        /* \"#utility.yul\":16257:16266   */\n      dup2\n        /* \"#utility.yul\":16251:16255   */\n      dup2\n        /* \"#utility.yul\":16247:16267   */\n      sub\n        /* \"#utility.yul\":16243:16244   */\n      0x00\n        /* \"#utility.yul\":16232:16241   */\n      dup4\n        /* \"#utility.yul\":16228:16245   */\n      add\n        /* \"#utility.yul\":16221:16268   */\n      mstore\n        /* \"#utility.yul\":16285:16416   */\n      tag_402\n        /* \"#utility.yul\":16411:16415   */\n      dup2\n        /* \"#utility.yul\":16285:16416   */\n      tag_232\n      jump\t// in\n    tag_402:\n        /* \"#utility.yul\":16277:16416   */\n      swap1\n      pop\n        /* \"#utility.yul\":16004:16423   */\n      swap2\n      swap1\n      pop\n      jump\t// out\n        /* \"#utility.yul\":16429:16596   */\n    tag_233:\n        /* \"#utility.yul\":16569:16588   */\n      0x796f752068617320636f6e6669726d6564000000000000000000000000000000\n        /* \"#utility.yul\":16565:16566   */\n      0x00\n        /* \"#utility.yul\":16557:16563   */\n      dup3\n        /* \"#utility.yul\":16553:16567   */\n      add\n        /* \"#utility.yul\":16546:16589   */\n      mstore\n        /* \"#utility.yul\":16429:16596   */\n      pop\n      jump\t// out\n        /* \"#utility.yul\":16602:16968   */\n    tag_234:\n        /* \"#utility.yul\":16744:16747   */\n      0x00\n        /* \"#utility.yul\":16765:16832   */\n      tag_405\n        /* \"#utility.yul\":16829:16831   */\n      0x11\n        /* \"#utility.yul\":16824:16827   */\n      dup4\n        /* \"#utility.yul\":16765:16832   */\n      tag_202\n      jump\t// in\n    tag_405:\n        /* \"#utility.yul\":16758:16832   */\n      swap2\n      pop\n        /* \"#utility.yul\":16841:16934   */\n      tag_406\n        /* \"#utility.yul\":16930:16933   */\n      dup3\n        /* \"#utility.yul\":16841:16934   */\n      tag_233\n      jump\t// in\n    tag_406:\n        /* \"#utility.yul\":16959:16961   */\n      0x20\n        /* \"#utility.yul\":16954:16957   */\n      dup3\n        /* \"#utility.yul\":16950:16962   */\n      add\n        /* \"#utility.yul\":16943:16962   */\n      swap1\n      pop\n        /* \"#utility.yul\":16602:16968   */\n      swap2\n      swap1\n      pop\n      jump\t// out\n        /* \"#utility.yul\":16974:17393   */\n    tag_147:\n        /* \"#utility.yul\":17140:17144   */\n      0x00\n        /* \"#utility.yul\":17178:17180   */\n      0x20\n        /* \"#utility.yul\":17167:17176   */\n      dup3\n        /* \"#utility.yul\":17163:17181   */\n      add\n        /* \"#utility.yul\":17155:17181   */\n      swap1\n      pop\n        /* \"#utility.yul\":17227:17236   */\n      dup2\n        /* \"#utility.yul\":17221:17225   */\n      dup2\n        /* \"#utility.yul\":17217:17237   */\n      sub\n        /* \"#utility.yul\":17213:17214   */\n      0x00\n        /* \"#utility.yul\":17202:17211   */\n      dup4\n        /* \"#utility.yul\":17198:17215   */\n      add\n        /* \"#utility.yul\":17191:17238   */\n      mstore\n        /* \"#utility.yul\":17255:17386   */\n      tag_408\n        /* \"#utility.yul\":17381:17385   */\n      dup2\n        /* \"#utility.yul\":17255:17386   */\n      tag_234\n      jump\t// in\n    tag_408:\n        /* \"#utility.yul\":17247:17386   */\n      swap1\n      pop\n        /* \"#utility.yul\":16974:17393   */\n      swap2\n      swap1\n      pop\n      jump\t// out\n        /* \"#utility.yul\":17399:17564   */\n    tag_235:\n        /* \"#utility.yul\":17539:17556   */\n      0x7265717569726564206578636565640000000000000000000000000000000000\n        /* \"#utility.yul\":17535:17536   */\n      0x00\n        /* \"#utility.yul\":17527:17533   */\n      dup3\n        /* \"#utility.yul\":17523:17537   */\n      add\n        /* \"#utility.yul\":17516:17557   */\n      mstore\n        /* \"#utility.yul\":17399:17564   */\n      pop\n      jump\t// out\n        /* \"#utility.yul\":17570:17936   */\n    tag_236:\n        /* \"#utility.yul\":17712:17715   */\n      0x00\n        /* \"#utility.yul\":17733:17800   */\n      tag_411\n        /* \"#utility.yul\":17797:17799   */\n      0x0f\n        /* \"#utility.yul\":17792:17795   */\n      dup4\n        /* \"#utility.yul\":17733:17800   */\n      tag_202\n      jump\t// in\n    tag_411:\n        /* \"#utility.yul\":17726:17800   */\n      swap2\n      pop\n        /* \"#utility.yul\":17809:17902   */\n      tag_412\n        /* \"#utility.yul\":17898:17901   */\n      dup3\n        /* \"#utility.yul\":17809:17902   */\n      tag_235\n      jump\t// in\n    tag_412:\n        /* \"#utility.yul\":17927:17929   */\n      0x20\n        /* \"#utility.yul\":17922:17925   */\n      dup3\n        /* \"#utility.yul\":17918:17930   */\n      add\n        /* \"#utility.yul\":17911:17930   */\n      swap1\n      pop\n        /* \"#utility.yul\":17570:17936   */\n      swap2\n      swap1\n      pop\n      jump\t// out\n        /* \"#utility.yul\":17942:18361   */\n    tag_155:\n        /* \"#utility.yul\":18108:18112   */\n      0x00\n        /* \"#utility.yul\":18146:18148   */\n      0x20\n        /* \"#utility.yul\":18135:18144   */\n      dup3\n        /* \"#utility.yul\":18131:18149   */\n      add\n        /* \"#utility.yul\":18123:18149   */\n      swap1\n      pop\n        /* \"#utility.yul\":18195:18204   */\n      dup2\n        /* \"#utility.yul\":18189:18193   */\n      dup2\n        /* \"#utility.yul\":18185:18205   */\n      sub\n        /* \"#utility.yul\":18181:18182   */\n      0x00\n        /* \"#utility.yul\":18170:18179   */\n      dup4\n        /* \"#utility.yul\":18166:18183   */\n      add\n        /* \"#utility.yul\":18159:18206   */\n      mstore\n        /* \"#utility.yul\":18223:18354   */\n      tag_414\n        /* \"#utility.yul\":18349:18353   */\n      dup2\n        /* \"#utility.yul\":18223:18354   */\n      tag_236\n      jump\t// in\n    tag_414:\n        /* \"#utility.yul\":18215:18354   */\n      swap1\n      pop\n        /* \"#utility.yul\":17942:18361   */\n      swap2\n      swap1\n      pop\n      jump\t// out\n        /* \"#utility.yul\":18367:18528   */\n    tag_237:\n        /* \"#utility.yul\":18507:18520   */\n      0x6578697374206f776e6572000000000000000000000000000000000000000000\n        /* \"#utility.yul\":18503:18504   */\n      0x00\n        /* \"#utility.yul\":18495:18501   */\n      dup3\n        /* \"#utility.yul\":18491:18505   */\n      add\n        /* \"#utility.yul\":18484:18521   */\n      mstore\n        /* \"#utility.yul\":18367:18528   */\n      pop\n      jump\t// out\n        /* \"#utility.yul\":18534:18900   */\n    tag_238:\n        /* \"#utility.yul\":18676:18679   */\n      0x00\n        /* \"#utility.yul\":18697:18764   */\n      tag_417\n        /* \"#utility.yul\":18761:18763   */\n      0x0b\n        /* \"#utility.yul\":18756:18759   */\n      dup4\n        /* \"#utility.yul\":18697:18764   */\n      tag_202\n      jump\t// in\n    tag_417:\n        /* \"#utility.yul\":18690:18764   */\n      swap2\n      pop\n        /* \"#utility.yul\":18773:18866   */\n      tag_418\n        /* \"#utility.yul\":18862:18865   */\n      dup3\n        /* \"#utility.yul\":18773:18866   */\n      tag_237\n      jump\t// in\n    tag_418:\n        /* \"#utility.yul\":18891:18893   */\n      0x20\n        /* \"#utility.yul\":18886:18889   */\n      dup3\n        /* \"#utility.yul\":18882:18894   */\n      add\n        /* \"#utility.yul\":18875:18894   */\n      swap1\n      pop\n        /* \"#utility.yul\":18534:18900   */\n      swap2\n      swap1\n      pop\n      jump\t// out\n        /* \"#utility.yul\":18906:19325   */\n    tag_166:\n        /* \"#utility.yul\":19072:19076   */\n      0x00\n        /* \"#utility.yul\":19110:19112   */\n      0x20\n        /* \"#utility.yul\":19099:19108   */\n      dup3\n        /* \"#utility.yul\":19095:19113   */\n      add\n        /* \"#utility.yul\":19087:19113   */\n      swap1\n      pop\n        /* \"#utility.yul\":19159:19168   */\n      dup2\n        /* \"#utility.yul\":19153:19157   */\n      dup2\n        /* \"#utility.yul\":19149:19169   */\n      sub\n        /* \"#utility.yul\":19145:19146   */\n      0x00\n        /* \"#utility.yul\":19134:19143   */\n      dup4\n        /* \"#utility.yul\":19130:19147   */\n      add\n        /* \"#utility.yul\":19123:19170   */\n      mstore\n        /* \"#utility.yul\":19187:19318   */\n      tag_420\n        /* \"#utility.yul\":19313:19317   */\n      dup2\n        /* \"#utility.yul\":19187:19318   */\n      tag_238\n      jump\t// in\n    tag_420:\n        /* \"#utility.yul\":19179:19318   */\n      swap1\n      pop\n        /* \"#utility.yul\":18906:19325   */\n      swap2\n      swap1\n      pop\n      jump\t// out\n        /* \"#utility.yul\":19331:19512   */\n    tag_239:\n        /* \"#utility.yul\":19471:19504   */\n      0x7472616e73616374696f6e496420686173206265656e20657865637574656400\n        /* \"#utility.yul\":19467:19468   */\n      0x00\n        /* \"#utility.yul\":19459:19465   */\n      dup3\n        /* \"#utility.yul\":19455:19469   */\n      add\n        /* \"#utility.yul\":19448:19505   */\n      mstore\n        /* \"#utility.yul\":19331:19512   */\n      pop\n      jump\t// out\n        /* \"#utility.yul\":19518:19884   */\n    tag_240:\n        /* \"#utility.yul\":19660:19663   */\n      0x00\n        /* \"#utility.yul\":19681:19748   */\n      tag_423\n        /* \"#utility.yul\":19745:19747   */\n      0x1f\n        /* \"#utility.yul\":19740:19743   */\n      dup4\n        /* \"#utility.yul\":19681:19748   */\n      tag_202\n      jump\t// in\n    tag_423:\n        /* \"#utility.yul\":19674:19748   */\n      swap2\n      pop\n        /* \"#utility.yul\":19757:19850   */\n      tag_424\n        /* \"#utility.yul\":19846:19849   */\n      dup3\n        /* \"#utility.yul\":19757:19850   */\n      tag_239\n      jump\t// in\n    tag_424:\n        /* \"#utility.yul\":19875:19877   */\n      0x20\n        /* \"#utility.yul\":19870:19873   */\n      dup3\n        /* \"#utility.yul\":19866:19878   */\n      add\n        /* \"#utility.yul\":19859:19878   */\n      swap1\n      pop\n        /* \"#utility.yul\":19518:19884   */\n      swap2\n      swap1\n      pop\n      jump\t// out\n        /* \"#utility.yul\":19890:20309   */\n    tag_179:\n        /* \"#utility.yul\":20056:20060   */\n      0x00\n        /* \"#utility.yul\":20094:20096   */\n      0x20\n        /* \"#utility.yul\":20083:20092   */\n      dup3\n        /* \"#utility.yul\":20079:20097   */\n      add\n        /* \"#utility.yul\":20071:20097   */\n      swap1\n      pop\n        /* \"#utility.yul\":20143:20152   */\n      dup2\n        /* \"#utility.yul\":20137:20141   */\n      dup2\n        /* \"#utility.yul\":20133:20153   */\n      sub\n        /* \"#utility.yul\":20129:20130   */\n      0x00\n        /* \"#utility.yul\":20118:20127   */\n      dup4\n        /* \"#utility.yul\":20114:20131   */\n      add\n        /* \"#utility.yul\":20107:20154   */\n      mstore\n        /* \"#utility.yul\":20171:20302   */\n      tag_426\n        /* \"#utility.yul\":20297:20301   */\n      dup2\n        /* \"#utility.yul\":20171:20302   */\n      tag_240\n      jump\t// in\n    tag_426:\n        /* \"#utility.yul\":20163:20302   */\n      swap1\n      pop\n        /* \"#utility.yul\":19890:20309   */\n      swap2\n      swap1\n      pop\n      jump\t// out\n\n    auxdata: 0xa2646970667358221220193726788f9e1ecb41e1f0b12f56b6fa8710cb8244f9c3bf9ee25e4281a23c9964736f6c63430008110033\n}\n",
				"bytecode": {
					"linkReferences": {},
					"object": "608060405260016005556000600660006101000a81548173ffffffffffffffffffffffffffffffffffffffff021916908373ffffffffffffffffffffffffffffffffffffffff1602179055506000600660146101000a81548160ff02191690831515021790555034801561007257600080fd5b5033600660006101000a81548173ffffffffffffffffffffffffffffffffffffffff021916908373ffffffffffffffffffffffffffffffffffffffff1602179055506004600660009054906101000a900473ffffffffffffffffffffffffffffffffffffffff169080600181540180825580915050600190039060005260206000200160009091909190916101000a81548173ffffffffffffffffffffffffffffffffffffffff021916908373ffffffffffffffffffffffffffffffffffffffff1602179055506001600581905550611cd6806101506000396000f3fe608060405234801561001057600080fd5b50600436106101005760003560e01c8063b06395f311610097578063dc8452cd11610066578063dc8452cd146102fd578063df5cb5a01461031b578063f72c1c8b14610337578063f851a4401461036757610100565b8063b06395f314610261578063b77bf60014610291578063c01a8c84146102af578063cedd57d5146102df57610100565b80633411c81c116100d35780633411c81c146101b35780633d0bf07e146101e3578063784547a7146101ff5780639ace38c21461022f57610100565b8063025e7c27146101055780631d43b6531461013557806329f4acb0146101655780632f54bf6e14610183575b600080fd5b61011f600480360381019061011a91906112c8565b610385565b60405161012c9190611336565b60405180910390f35b61014f600480360381019061014a919061137d565b6103c4565b60405161015c91906113cc565b60405180910390f35b61016d610509565b60405161017a9190611477565b60405180910390f35b61019d60048036038101906101989190611499565b610546565b6040516101aa91906114e1565b60405180910390f35b6101cd60048036038101906101c891906114fc565b610566565b6040516101da91906114e1565b60405180910390f35b6101fd60048036038101906101f89190611568565b610595565b005b610219600480360381019061021491906112c8565b610642565b60405161022691906114e1565b60405180910390f35b610249600480360381019061024491906112c8565b6107a2565b60405161025893929190611595565b60405180910390f35b61027b600480360381019061027691906112c8565b6107f9565b604051610288919061163b565b60405180910390f35b610299610946565b6040516102a691906113cc565b60405180910390f35b6102c960048036038101906102c491906112c8565b61094c565b6040516102d691906114e1565b60405180910390f35b6102e7610c7a565b6040516102f491906114e1565b60405180910390f35b610305610c8d565b60405161031291906113cc565b60405180910390f35b6103356004803603810190610330919061179e565b610c93565b005b610351600480360381019061034c91906112c8565b610f17565b60405161035e91906114e1565b60405180910390f35b61036f611098565b60405161037c9190611336565b60405180910390f35b6004818154811061039557600080fd5b906000526020600020016000915054906101000a900473ffffffffffffffffffffffffffffffffffffffff1681565b6000600360003373ffffffffffffffffffffffffffffffffffffffff1673ffffffffffffffffffffffffffffffffffffffff16815260200190815260200160002060009054906101000a900460ff168061046b57503373ffffffffffffffffffffffffffffffffffffffff16600660009054906101000a900473ffffffffffffffffffffffffffffffffffffffff1673ffffffffffffffffffffffffffffffffffffffff16145b6104aa576040517f08c379a00000000000000000000000000000000000000000000000000000000081526004016104a190611846565b60405180910390fd5b814710156104ed576040517f08c379a00000000000000000000000000000000000000000000000000000000081526004016104e4906118b2565b60405180910390fd5b6104f783836110be565b90506105028161094c565b5092915050565b60606040518060400160405280600c81526020017f48656c6c6f20576f726c64210000000000000000000000000000000000000000815250905090565b60036020528060005260406000206000915054906101000a900460ff1681565b60026020528160005260406000206020528060005260406000206000915091509054906101000a900460ff1681565b3373ffffffffffffffffffffffffffffffffffffffff16600660009054906101000a900473ffffffffffffffffffffffffffffffffffffffff1673ffffffffffffffffffffffffffffffffffffffff1614610625576040517f08c379a000000000000000000000000000000000000000000000000000000000815260040161061c90611846565b60405180910390fd5b80600660146101000a81548160ff02191690831515021790555050565b600080600090506001600084815260200190815260200160002060020160009054906101000a900460ff161561067c57600091505061079d565b60005b60048054905081101561079657600260008581526020019081526020016000206000600483815481106106b5576106b46118d2565b5b9060005260206000200160009054906101000a900473ffffffffffffffffffffffffffffffffffffffff1673ffffffffffffffffffffffffffffffffffffffff1673ffffffffffffffffffffffffffffffffffffffff16815260200190815260200160002060009054906101000a900460ff161561073d5760018261073a9190611930565b91505b600660149054906101000a900460ff161561076e5760048054905082036107695760019250505061079d565b610783565b60055482036107825760019250505061079d565b5b808061078e90611964565b91505061067f565b5060009150505b919050565b60016020528060005260406000206000915090508060000160009054906101000a900473ffffffffffffffffffffffffffffffffffffffff16908060010154908060020160009054906101000a900460ff16905083565b61080161119e565b600073ffffffffffffffffffffffffffffffffffffffff166001600084815260200190815260200160002060000160009054906101000a900473ffffffffffffffffffffffffffffffffffffffff1673ffffffffffffffffffffffffffffffffffffffff16036108a6576040517f08c379a000000000000000000000000000000000000000000000000000000000815260040161089d906119f8565b60405180910390fd5b600160008381526020019081526020016000206040518060600160405290816000820160009054906101000a900473ffffffffffffffffffffffffffffffffffffffff1673ffffffffffffffffffffffffffffffffffffffff1673ffffffffffffffffffffffffffffffffffffffff168152602001600182015481526020016002820160009054906101000a900460ff1615151515815250509050919050565b60005481565b6000600360003373ffffffffffffffffffffffffffffffffffffffff1673ffffffffffffffffffffffffffffffffffffffff16815260200190815260200160002060009054906101000a900460ff16806109f357503373ffffffffffffffffffffffffffffffffffffffff16600660009054906101000a900473ffffffffffffffffffffffffffffffffffffffff1673ffffffffffffffffffffffffffffffffffffffff16145b610a32576040517f08c379a0000000000000000000000000000000000000000000000000000000008152600401610a2990611846565b60405180910390fd5b600360003373ffffffffffffffffffffffffffffffffffffffff1673ffffffffffffffffffffffffffffffffffffffff16815260200190815260200160002060009054906101000a900460ff16610abe576040517f08c379a0000000000000000000000000000000000000000000000000000000008152600401610ab590611a64565b60405180910390fd5b600073ffffffffffffffffffffffffffffffffffffffff166001600084815260200190815260200160002060000160009054906101000a900473ffffffffffffffffffffffffffffffffffffffff1673ffffffffffffffffffffffffffffffffffffffff1603610b63576040517f08c379a0000000000000000000000000000000000000000000000000000000008152600401610b5a90611ad0565b60405180910390fd5b6002600083815260200190815260200160002060003373ffffffffffffffffffffffffffffffffffffffff1673ffffffffffffffffffffffffffffffffffffffff16815260200190815260200160002060009054906101000a900460ff1615610c01576040517f08c379a0000000000000000000000000000000000000000000000000000000008152600401610bf890611b3c565b60405180910390fd5b60016002600084815260200190815260200160002060003373ffffffffffffffffffffffffffffffffffffffff1673ffffffffffffffffffffffffffffffffffffffff16815260200190815260200160002060006101000a81548160ff021916908315150217905550610c7382610642565b9050919050565b600660149054906101000a900460ff1681565b60055481565b3373ffffffffffffffffffffffffffffffffffffffff16600660009054906101000a900473ffffffffffffffffffffffffffffffffffffffff1673ffffffffffffffffffffffffffffffffffffffff1614610d23576040517f08c379a0000000000000000000000000000000000000000000000000000000008152600401610d1a90611846565b60405180910390fd5b600480549050811115610d6b576040517f08c379a0000000000000000000000000000000000000000000000000000000008152600401610d6290611ba8565b60405180910390fd5b60005b8251811015610ef45760036000848381518110610d8e57610d8d6118d2565b5b602002602001015173ffffffffffffffffffffffffffffffffffffffff1673ffffffffffffffffffffffffffffffffffffffff16815260200190815260200160002060009054906101000a900460ff1680610e2f5750600073ffffffffffffffffffffffffffffffffffffffff16838281518110610e0f57610e0e6118d2565b5b602002602001015173ffffffffffffffffffffffffffffffffffffffff16145b15610e6f576040517f08c379a0000000000000000000000000000000000000000000000000000000008152600401610e6690611c14565b60405180910390fd5b600160036000858481518110610e8857610e876118d2565b5b602002602001015173ffffffffffffffffffffffffffffffffffffffff1673ffffffffffffffffffffffffffffffffffffffff16815260200190815260200160002060006101000a81548160ff0219169083151502179055508080610eec90611964565b915050610d6e565b508160049080519060200190610f0b9291906111d7565b50806005819055505050565b6000600360003373ffffffffffffffffffffffffffffffffffffffff1673ffffffffffffffffffffffffffffffffffffffff16815260200190815260200160002060009054906101000a900460ff1680610fbe57503373ffffffffffffffffffffffffffffffffffffffff16600660009054906101000a900473ffffffffffffffffffffffffffffffffffffffff1673ffffffffffffffffffffffffffffffffffffffff16145b610ffd576040517f08c379a0000000000000000000000000000000000000000000000000000000008152600401610ff490611846565b60405180910390fd5b6001600083815260200190815260200160002060020160009054906101000a900460ff1615611061576040517f08c379a000000000000000000000000000000000000000000000000000000000815260040161105890611c80565b60405180910390fd5b600180600084815260200190815260200160002060020160006101000a81548160ff02191690831515021790555060019050919050565b600660009054906101000a900473ffffffffffffffffffffffffffffffffffffffff1681565b60008054905060405180606001604052808473ffffffffffffffffffffffffffffffffffffffff168152602001838152602001600015158152506001600083815260200190815260200160002060008201518160000160006101000a81548173ffffffffffffffffffffffffffffffffffffffff021916908373ffffffffffffffffffffffffffffffffffffffff1602179055506020820151816001015560408201518160020160006101000a81548160ff02191690831515021790555090505060016000808282546111919190611930565b9250508190555092915050565b6040518060600160405280600073ffffffffffffffffffffffffffffffffffffffff168152602001600081526020016000151581525090565b828054828255906000526020600020908101928215611250579160200282015b8281111561124f5782518260006101000a81548173ffffffffffffffffffffffffffffffffffffffff021916908373ffffffffffffffffffffffffffffffffffffffff160217905550916020019190600101906111f7565b5b50905061125d9190611261565b5090565b5b8082111561127a576000816000905550600101611262565b5090565b6000604051905090565b600080fd5b600080fd5b6000819050919050565b6112a581611292565b81146112b057600080fd5b50565b6000813590506112c28161129c565b92915050565b6000602082840312156112de576112dd611288565b5b60006112ec848285016112b3565b91505092915050565b600073ffffffffffffffffffffffffffffffffffffffff82169050919050565b6000611320826112f5565b9050919050565b61133081611315565b82525050565b600060208201905061134b6000830184611327565b92915050565b61135a81611315565b811461136557600080fd5b50565b60008135905061137781611351565b92915050565b6000806040838503121561139457611393611288565b5b60006113a285828601611368565b92505060206113b3858286016112b3565b9150509250929050565b6113c681611292565b82525050565b60006020820190506113e160008301846113bd565b92915050565b600081519050919050565b600082825260208201905092915050565b60005b83811015611421578082015181840152602081019050611406565b60008484015250505050565b6000601f19601f8301169050919050565b6000611449826113e7565b61145381856113f2565b9350611463818560208601611403565b61146c8161142d565b840191505092915050565b60006020820190508181036000830152611491818461143e565b905092915050565b6000602082840312156114af576114ae611288565b5b60006114bd84828501611368565b91505092915050565b60008115159050919050565b6114db816114c6565b82525050565b60006020820190506114f660008301846114d2565b92915050565b6000806040838503121561151357611512611288565b5b6000611521858286016112b3565b925050602061153285828601611368565b9150509250929050565b611545816114c6565b811461155057600080fd5b50565b6000813590506115628161153c565b92915050565b60006020828403121561157e5761157d611288565b5b600061158c84828501611553565b91505092915050565b60006060820190506115aa6000830186611327565b6115b760208301856113bd565b6115c460408301846114d2565b949350505050565b6115d581611315565b82525050565b6115e481611292565b82525050565b6115f3816114c6565b82525050565b60608201600082015161160f60008501826115cc565b50602082015161162260208501826115db565b50604082015161163560408501826115ea565b50505050565b600060608201905061165060008301846115f9565b92915050565b600080fd5b7f4e487b7100000000000000000000000000000000000000000000000000000000600052604160045260246000fd5b6116938261142d565b810181811067ffffffffffffffff821117156116b2576116b161165b565b5b80604052505050565b60006116c561127e565b90506116d1828261168a565b919050565b600067ffffffffffffffff8211156116f1576116f061165b565b5b602082029050602081019050919050565b600080fd5b600061171a611715846116d6565b6116bb565b9050808382526020820190506020840283018581111561173d5761173c611702565b5b835b8181101561176657806117528882611368565b84526020840193505060208101905061173f565b5050509392505050565b600082601f83011261178557611784611656565b5b8135611795848260208601611707565b91505092915050565b600080604083850312156117b5576117b4611288565b5b600083013567ffffffffffffffff8111156117d3576117d261128d565b5b6117df85828601611770565b92505060206117f0858286016112b3565b9150509250929050565b7f596f7520617265206e6f7420746865206f776e65720000000000000000000000600082015250565b60006118306015836113f2565b915061183b826117fa565b602082019050919050565b6000602082019050818103600083015261185f81611823565b9050919050565b7f76616c7565206e6f7420656e6f75676800000000000000000000000000000000600082015250565b600061189c6010836113f2565b91506118a782611866565b602082019050919050565b600060208201905081810360008301526118cb8161188f565b9050919050565b7f4e487b7100000000000000000000000000000000000000000000000000000000600052603260045260246000fd5b7f4e487b7100000000000000000000000000000000000000000000000000000000600052601160045260246000fd5b600061193b82611292565b915061194683611292565b925082820190508082111561195e5761195d611901565b5b92915050565b600061196f82611292565b91507fffffffffffffffffffffffffffffffffffffffffffffffffffffffffffffffff82036119a1576119a0611901565b5b600182019050919050565b7f6e6f742066696e64207472616e73616374696f6e206279204964000000000000600082015250565b60006119e2601a836113f2565b91506119ed826119ac565b602082019050919050565b60006020820190508181036000830152611a11816119d5565b9050919050565b7f796f7520617265206e6f7420696e206f776e6572730000000000000000000000600082015250565b6000611a4e6015836113f2565b9150611a5982611a18565b602082019050919050565b60006020820190508181036000830152611a7d81611a41565b9050919050565b7f7472616e73616374696f6e2064657374696e6174696f6e206973206e6f6e6500600082015250565b6000611aba601f836113f2565b9150611ac582611a84565b602082019050919050565b60006020820190508181036000830152611ae981611aad565b9050919050565b7f796f752068617320636f6e6669726d6564000000000000000000000000000000600082015250565b6000611b266011836113f2565b9150611b3182611af0565b602082019050919050565b60006020820190508181036000830152611b5581611b19565b9050919050565b7f7265717569726564206578636565640000000000000000000000000000000000600082015250565b6000611b92600f836113f2565b9150611b9d82611b5c565b602082019050919050565b60006020820190508181036000830152611bc181611b85565b9050919050565b7f6578697374206f776e6572000000000000000000000000000000000000000000600082015250565b6000611bfe600b836113f2565b9150611c0982611bc8565b602082019050919050565b60006020820190508181036000830152611c2d81611bf1565b9050919050565b7f7472616e73616374696f6e496420686173206265656e20657865637574656400600082015250565b6000611c6a601f836113f2565b9150611c7582611c34565b602082019050919050565b60006020820190508181036000830152611c9981611c5d565b905091905056fea2646970667358221220193726788f9e1ecb41e1f0b12f56b6fa8710cb8244f9c3bf9ee25e4281a23c9964736f6c63430008110033",
					"opcodes": "PUSH1 0x80 PUSH1 0x40 MSTORE PUSH1 0x1 PUSH1 0x5 SSTORE PUSH1 0x0 PUSH1 0x6 PUSH1 0x0 PUSH2 0x100 EXP DUP2 SLOAD DUP2 PUSH20 0xFFFFFFFFFFFFFFFFFFFFFFFFFFFFFFFFFFFFFFFF MUL NOT AND SWAP1 DUP4 PUSH20 0xFFFFFFFFFFFFFFFFFFFFFFFFFFFFFFFFFFFFFFFF AND MUL OR SWAP1 SSTORE POP PUSH1 0x0 PUSH1 0x6 PUSH1 0x14 PUSH2 0x100 EXP DUP2 SLOAD DUP2 PUSH1 0xFF MUL NOT AND SWAP1 DUP4 ISZERO ISZERO MUL OR SWAP1 SSTORE POP CALLVALUE DUP1 ISZERO PUSH2 0x72 JUMPI PUSH1 0x0 DUP1 REVERT JUMPDEST POP CALLER PUSH1 0x6 PUSH1 0x0 PUSH2 0x100 EXP DUP2 SLOAD DUP2 PUSH20 0xFFFFFFFFFFFFFFFFFFFFFFFFFFFFFFFFFFFFFFFF MUL NOT AND SWAP1 DUP4 PUSH20 0xFFFFFFFFFFFFFFFFFFFFFFFFFFFFFFFFFFFFFFFF AND MUL OR SWAP1 SSTORE POP PUSH1 0x4 PUSH1 0x6 PUSH1 0x0 SWAP1 SLOAD SWAP1 PUSH2 0x100 EXP SWAP1 DIV PUSH20 0xFFFFFFFFFFFFFFFFFFFFFFFFFFFFFFFFFFFFFFFF AND SWAP1 DUP1 PUSH1 0x1 DUP2 SLOAD ADD DUP1 DUP3 SSTORE DUP1 SWAP2 POP POP PUSH1 0x1 SWAP1 SUB SWAP1 PUSH1 0x0 MSTORE PUSH1 0x20 PUSH1 0x0 KECCAK256 ADD PUSH1 0x0 SWAP1 SWAP2 SWAP1 SWAP2 SWAP1 SWAP2 PUSH2 0x100 EXP DUP2 SLOAD DUP2 PUSH20 0xFFFFFFFFFFFFFFFFFFFFFFFFFFFFFFFFFFFFFFFF MUL NOT AND SWAP1 DUP4 PUSH20 0xFFFFFFFFFFFFFFFFFFFFFFFFFFFFFFFFFFFFFFFF AND MUL OR SWAP1 SSTORE POP PUSH1 0x1 PUSH1 0x5 DUP2 SWAP1 SSTORE POP PUSH2 0x1CD6 DUP1 PUSH2 0x150 PUSH1 0x0 CODECOPY PUSH1 0x0 RETURN INVALID PUSH1 0x80 PUSH1 0x40 MSTORE CALLVALUE DUP1 ISZERO PUSH2 0x10 JUMPI PUSH1 0x0 DUP1 REVERT JUMPDEST POP PUSH1 0x4 CALLDATASIZE LT PUSH2 0x100 JUMPI PUSH1 0x0 CALLDATALOAD PUSH1 0xE0 SHR DUP1 PUSH4 0xB06395F3 GT PUSH2 0x97 JUMPI DUP1 PUSH4 0xDC8452CD GT PUSH2 0x66 JUMPI DUP1 PUSH4 0xDC8452CD EQ PUSH2 0x2FD JUMPI DUP1 PUSH4 0xDF5CB5A0 EQ PUSH2 0x31B JUMPI DUP1 PUSH4 0xF72C1C8B EQ PUSH2 0x337 JUMPI DUP1 PUSH4 0xF851A440 EQ PUSH2 0x367 JUMPI PUSH2 0x100 JUMP JUMPDEST DUP1 PUSH4 0xB06395F3 EQ PUSH2 0x261 JUMPI DUP1 PUSH4 0xB77BF600 EQ PUSH2 0x291 JUMPI DUP1 PUSH4 0xC01A8C84 EQ PUSH2 0x2AF JUMPI DUP1 PUSH4 0xCEDD57D5 EQ PUSH2 0x2DF JUMPI PUSH2 0x100 JUMP JUMPDEST DUP1 PUSH4 0x3411C81C GT PUSH2 0xD3 JUMPI DUP1 PUSH4 0x3411C81C EQ PUSH2 0x1B3 JUMPI DUP1 PUSH4 0x3D0BF07E EQ PUSH2 0x1E3 JUMPI DUP1 PUSH4 0x784547A7 EQ PUSH2 0x1FF JUMPI DUP1 PUSH4 0x9ACE38C2 EQ PUSH2 0x22F JUMPI PUSH2 0x100 JUMP JUMPDEST DUP1 PUSH4 0x25E7C27 EQ PUSH2 0x105 JUMPI DUP1 PUSH4 0x1D43B653 EQ PUSH2 0x135 JUMPI DUP1 PUSH4 0x29F4ACB0 EQ PUSH2 0x165 JUMPI DUP1 PUSH4 0x2F54BF6E EQ PUSH2 0x183 JUMPI JUMPDEST PUSH1 0x0 DUP1 REVERT JUMPDEST PUSH2 0x11F PUSH1 0x4 DUP1 CALLDATASIZE SUB DUP2 ADD SWAP1 PUSH2 0x11A SWAP2 SWAP1 PUSH2 0x12C8 JUMP JUMPDEST PUSH2 0x385 JUMP JUMPDEST PUSH1 0x40 MLOAD PUSH2 0x12C SWAP2 SWAP1 PUSH2 0x1336 JUMP JUMPDEST PUSH1 0x40 MLOAD DUP1 SWAP2 SUB SWAP1 RETURN JUMPDEST PUSH2 0x14F PUSH1 0x4 DUP1 CALLDATASIZE SUB DUP2 ADD SWAP1 PUSH2 0x14A SWAP2 SWAP1 PUSH2 0x137D JUMP JUMPDEST PUSH2 0x3C4 JUMP JUMPDEST PUSH1 0x40 MLOAD PUSH2 0x15C SWAP2 SWAP1 PUSH2 0x13CC JUMP JUMPDEST PUSH1 0x40 MLOAD DUP1 SWAP2 SUB SWAP1 RETURN JUMPDEST PUSH2 0x16D PUSH2 0x509 JUMP JUMPDEST PUSH1 0x40 MLOAD PUSH2 0x17A SWAP2 SWAP1 PUSH2 0x1477 JUMP JUMPDEST PUSH1 0x40 MLOAD DUP1 SWAP2 SUB SWAP1 RETURN JUMPDEST PUSH2 0x19D PUSH1 0x4 DUP1 CALLDATASIZE SUB DUP2 ADD SWAP1 PUSH2 0x198 SWAP2 SWAP1 PUSH2 0x1499 JUMP JUMPDEST PUSH2 0x546 JUMP JUMPDEST PUSH1 0x40 MLOAD PUSH2 0x1AA SWAP2 SWAP1 PUSH2 0x14E1 JUMP JUMPDEST PUSH1 0x40 MLOAD DUP1 SWAP2 SUB SWAP1 RETURN JUMPDEST PUSH2 0x1CD PUSH1 0x4 DUP1 CALLDATASIZE SUB DUP2 ADD SWAP1 PUSH2 0x1C8 SWAP2 SWAP1 PUSH2 0x14FC JUMP JUMPDEST PUSH2 0x566 JUMP JUMPDEST PUSH1 0x40 MLOAD PUSH2 0x1DA SWAP2 SWAP1 PUSH2 0x14E1 JUMP JUMPDEST PUSH1 0x40 MLOAD DUP1 SWAP2 SUB SWAP1 RETURN JUMPDEST PUSH2 0x1FD PUSH1 0x4 DUP1 CALLDATASIZE SUB DUP2 ADD SWAP1 PUSH2 0x1F8 SWAP2 SWAP1 PUSH2 0x1568 JUMP JUMPDEST PUSH2 0x595 JUMP JUMPDEST STOP JUMPDEST PUSH2 0x219 PUSH1 0x4 DUP1 CALLDATASIZE SUB DUP2 ADD SWAP1 PUSH2 0x214 SWAP2 SWAP1 PUSH2 0x12C8 JUMP JUMPDEST PUSH2 0x642 JUMP JUMPDEST PUSH1 0x40 MLOAD PUSH2 0x226 SWAP2 SWAP1 PUSH2 0x14E1 JUMP JUMPDEST PUSH1 0x40 MLOAD DUP1 SWAP2 SUB SWAP1 RETURN JUMPDEST PUSH2 0x249 PUSH1 0x4 DUP1 CALLDATASIZE SUB DUP2 ADD SWAP1 PUSH2 0x244 SWAP2 SWAP1 PUSH2 0x12C8 JUMP JUMPDEST PUSH2 0x7A2 JUMP JUMPDEST PUSH1 0x40 MLOAD PUSH2 0x258 SWAP4 SWAP3 SWAP2 SWAP1 PUSH2 0x1595 JUMP JUMPDEST PUSH1 0x40 MLOAD DUP1 SWAP2 SUB SWAP1 RETURN JUMPDEST PUSH2 0x27B PUSH1 0x4 DUP1 CALLDATASIZE SUB DUP2 ADD SWAP1 PUSH2 0x276 SWAP2 SWAP1 PUSH2 0x12C8 JUMP JUMPDEST PUSH2 0x7F9 JUMP JUMPDEST PUSH1 0x40 MLOAD PUSH2 0x288 SWAP2 SWAP1 PUSH2 0x163B JUMP JUMPDEST PUSH1 0x40 MLOAD DUP1 SWAP2 SUB SWAP1 RETURN JUMPDEST PUSH2 0x299 PUSH2 0x946 JUMP JUMPDEST PUSH1 0x40 MLOAD PUSH2 0x2A6 SWAP2 SWAP1 PUSH2 0x13CC JUMP JUMPDEST PUSH1 0x40 MLOAD DUP1 SWAP2 SUB SWAP1 RETURN JUMPDEST PUSH2 0x2C9 PUSH1 0x4 DUP1 CALLDATASIZE SUB DUP2 ADD SWAP1 PUSH2 0x2C4 SWAP2 SWAP1 PUSH2 0x12C8 JUMP JUMPDEST PUSH2 0x94C JUMP JUMPDEST PUSH1 0x40 MLOAD PUSH2 0x2D6 SWAP2 SWAP1 PUSH2 0x14E1 JUMP JUMPDEST PUSH1 0x40 MLOAD DUP1 SWAP2 SUB SWAP1 RETURN JUMPDEST PUSH2 0x2E7 PUSH2 0xC7A JUMP JUMPDEST PUSH1 0x40 MLOAD PUSH2 0x2F4 SWAP2 SWAP1 PUSH2 0x14E1 JUMP JUMPDEST PUSH1 0x40 MLOAD DUP1 SWAP2 SUB SWAP1 RETURN JUMPDEST PUSH2 0x305 PUSH2 0xC8D JUMP JUMPDEST PUSH1 0x40 MLOAD PUSH2 0x312 SWAP2 SWAP1 PUSH2 0x13CC JUMP JUMPDEST PUSH1 0x40 MLOAD DUP1 SWAP2 SUB SWAP1 RETURN JUMPDEST PUSH2 0x335 PUSH1 0x4 DUP1 CALLDATASIZE SUB DUP2 ADD SWAP1 PUSH2 0x330 SWAP2 SWAP1 PUSH2 0x179E JUMP JUMPDEST PUSH2 0xC93 JUMP JUMPDEST STOP JUMPDEST PUSH2 0x351 PUSH1 0x4 DUP1 CALLDATASIZE SUB DUP2 ADD SWAP1 PUSH2 0x34C SWAP2 SWAP1 PUSH2 0x12C8 JUMP JUMPDEST PUSH2 0xF17 JUMP JUMPDEST PUSH1 0x40 MLOAD PUSH2 0x35E SWAP2 SWAP1 PUSH2 0x14E1 JUMP JUMPDEST PUSH1 0x40 MLOAD DUP1 SWAP2 SUB SWAP1 RETURN JUMPDEST PUSH2 0x36F PUSH2 0x1098 JUMP JUMPDEST PUSH1 0x40 MLOAD PUSH2 0x37C SWAP2 SWAP1 PUSH2 0x1336 JUMP JUMPDEST PUSH1 0x40 MLOAD DUP1 SWAP2 SUB SWAP1 RETURN JUMPDEST PUSH1 0x4 DUP2 DUP2 SLOAD DUP2 LT PUSH2 0x395 JUMPI PUSH1 0x0 DUP1 REVERT JUMPDEST SWAP1 PUSH1 0x0 MSTORE PUSH1 0x20 PUSH1 0x0 KECCAK256 ADD PUSH1 0x0 SWAP2 POP SLOAD SWAP1 PUSH2 0x100 EXP SWAP1 DIV PUSH20 0xFFFFFFFFFFFFFFFFFFFFFFFFFFFFFFFFFFFFFFFF AND DUP2 JUMP JUMPDEST PUSH1 0x0 PUSH1 0x3 PUSH1 0x0 CALLER PUSH20 0xFFFFFFFFFFFFFFFFFFFFFFFFFFFFFFFFFFFFFFFF AND PUSH20 0xFFFFFFFFFFFFFFFFFFFFFFFFFFFFFFFFFFFFFFFF AND DUP2 MSTORE PUSH1 0x20 ADD SWAP1 DUP2 MSTORE PUSH1 0x20 ADD PUSH1 0x0 KECCAK256 PUSH1 0x0 SWAP1 SLOAD SWAP1 PUSH2 0x100 EXP SWAP1 DIV PUSH1 0xFF AND DUP1 PUSH2 0x46B JUMPI POP CALLER PUSH20 0xFFFFFFFFFFFFFFFFFFFFFFFFFFFFFFFFFFFFFFFF AND PUSH1 0x6 PUSH1 0x0 SWAP1 SLOAD SWAP1 PUSH2 0x100 EXP SWAP1 DIV PUSH20 0xFFFFFFFFFFFFFFFFFFFFFFFFFFFFFFFFFFFFFFFF AND PUSH20 0xFFFFFFFFFFFFFFFFFFFFFFFFFFFFFFFFFFFFFFFF AND EQ JUMPDEST PUSH2 0x4AA JUMPI PUSH1 0x40 MLOAD PUSH32 0x8C379A000000000000000000000000000000000000000000000000000000000 DUP2 MSTORE PUSH1 0x4 ADD PUSH2 0x4A1 SWAP1 PUSH2 0x1846 JUMP JUMPDEST PUSH1 0x40 MLOAD DUP1 SWAP2 SUB SWAP1 REVERT JUMPDEST DUP2 SELFBALANCE LT ISZERO PUSH2 0x4ED JUMPI PUSH1 0x40 MLOAD PUSH32 0x8C379A000000000000000000000000000000000000000000000000000000000 DUP2 MSTORE PUSH1 0x4 ADD PUSH2 0x4E4 SWAP1 PUSH2 0x18B2 JUMP JUMPDEST PUSH1 0x40 MLOAD DUP1 SWAP2 SUB SWAP1 REVERT JUMPDEST PUSH2 0x4F7 DUP4 DUP4 PUSH2 0x10BE JUMP JUMPDEST SWAP1 POP PUSH2 0x502 DUP2 PUSH2 0x94C JUMP JUMPDEST POP SWAP3 SWAP2 POP POP JUMP JUMPDEST PUSH1 0x60 PUSH1 0x40 MLOAD DUP1 PUSH1 0x40 ADD PUSH1 0x40 MSTORE DUP1 PUSH1 0xC DUP2 MSTORE PUSH1 0x20 ADD PUSH32 0x48656C6C6F20576F726C64210000000000000000000000000000000000000000 DUP2 MSTORE POP SWAP1 POP SWAP1 JUMP JUMPDEST PUSH1 0x3 PUSH1 0x20 MSTORE DUP1 PUSH1 0x0 MSTORE PUSH1 0x40 PUSH1 0x0 KECCAK256 PUSH1 0x0 SWAP2 POP SLOAD SWAP1 PUSH2 0x100 EXP SWAP1 DIV PUSH1 0xFF AND DUP2 JUMP JUMPDEST PUSH1 0x2 PUSH1 0x20 MSTORE DUP2 PUSH1 0x0 MSTORE PUSH1 0x40 PUSH1 0x0 KECCAK256 PUSH1 0x20 MSTORE DUP1 PUSH1 0x0 MSTORE PUSH1 0x40 PUSH1 0x0 KECCAK256 PUSH1 0x0 SWAP2 POP SWAP2 POP SWAP1 SLOAD SWAP1 PUSH2 0x100 EXP SWAP1 DIV PUSH1 0xFF AND DUP2 JUMP JUMPDEST CALLER PUSH20 0xFFFFFFFFFFFFFFFFFFFFFFFFFFFFFFFFFFFFFFFF AND PUSH1 0x6 PUSH1 0x0 SWAP1 SLOAD SWAP1 PUSH2 0x100 EXP SWAP1 DIV PUSH20 0xFFFFFFFFFFFFFFFFFFFFFFFFFFFFFFFFFFFFFFFF AND PUSH20 0xFFFFFFFFFFFFFFFFFFFFFFFFFFFFFFFFFFFFFFFF AND EQ PUSH2 0x625 JUMPI PUSH1 0x40 MLOAD PUSH32 0x8C379A000000000000000000000000000000000000000000000000000000000 DUP2 MSTORE PUSH1 0x4 ADD PUSH2 0x61C SWAP1 PUSH2 0x1846 JUMP JUMPDEST PUSH1 0x40 MLOAD DUP1 SWAP2 SUB SWAP1 REVERT JUMPDEST DUP1 PUSH1 0x6 PUSH1 0x14 PUSH2 0x100 EXP DUP2 SLOAD DUP2 PUSH1 0xFF MUL NOT AND SWAP1 DUP4 ISZERO ISZERO MUL OR SWAP1 SSTORE POP POP JUMP JUMPDEST PUSH1 0x0 DUP1 PUSH1 0x0 SWAP1 POP PUSH1 0x1 PUSH1 0x0 DUP5 DUP2 MSTORE PUSH1 0x20 ADD SWAP1 DUP2 MSTORE PUSH1 0x20 ADD PUSH1 0x0 KECCAK256 PUSH1 0x2 ADD PUSH1 0x0 SWAP1 SLOAD SWAP1 PUSH2 0x100 EXP SWAP1 DIV PUSH1 0xFF AND ISZERO PUSH2 0x67C JUMPI PUSH1 0x0 SWAP2 POP POP PUSH2 0x79D JUMP JUMPDEST PUSH1 0x0 JUMPDEST PUSH1 0x4 DUP1 SLOAD SWAP1 POP DUP2 LT ISZERO PUSH2 0x796 JUMPI PUSH1 0x2 PUSH1 0x0 DUP6 DUP2 MSTORE PUSH1 0x20 ADD SWAP1 DUP2 MSTORE PUSH1 0x20 ADD PUSH1 0x0 KECCAK256 PUSH1 0x0 PUSH1 0x4 DUP4 DUP2 SLOAD DUP2 LT PUSH2 0x6B5 JUMPI PUSH2 0x6B4 PUSH2 0x18D2 JUMP JUMPDEST JUMPDEST SWAP1 PUSH1 0x0 MSTORE PUSH1 0x20 PUSH1 0x0 KECCAK256 ADD PUSH1 0x0 SWAP1 SLOAD SWAP1 PUSH2 0x100 EXP SWAP1 DIV PUSH20 0xFFFFFFFFFFFFFFFFFFFFFFFFFFFFFFFFFFFFFFFF AND PUSH20 0xFFFFFFFFFFFFFFFFFFFFFFFFFFFFFFFFFFFFFFFF AND PUSH20 0xFFFFFFFFFFFFFFFFFFFFFFFFFFFFFFFFFFFFFFFF AND DUP2 MSTORE PUSH1 0x20 ADD SWAP1 DUP2 MSTORE PUSH1 0x20 ADD PUSH1 0x0 KECCAK256 PUSH1 0x0 SWAP1 SLOAD SWAP1 PUSH2 0x100 EXP SWAP1 DIV PUSH1 0xFF AND ISZERO PUSH2 0x73D JUMPI PUSH1 0x1 DUP3 PUSH2 0x73A SWAP2 SWAP1 PUSH2 0x1930 JUMP JUMPDEST SWAP2 POP JUMPDEST PUSH1 0x6 PUSH1 0x14 SWAP1 SLOAD SWAP1 PUSH2 0x100 EXP SWAP1 DIV PUSH1 0xFF AND ISZERO PUSH2 0x76E JUMPI PUSH1 0x4 DUP1 SLOAD SWAP1 POP DUP3 SUB PUSH2 0x769 JUMPI PUSH1 0x1 SWAP3 POP POP POP PUSH2 0x79D JUMP JUMPDEST PUSH2 0x783 JUMP JUMPDEST PUSH1 0x5 SLOAD DUP3 SUB PUSH2 0x782 JUMPI PUSH1 0x1 SWAP3 POP POP POP PUSH2 0x79D JUMP JUMPDEST JUMPDEST DUP1 DUP1 PUSH2 0x78E SWAP1 PUSH2 0x1964 JUMP JUMPDEST SWAP2 POP POP PUSH2 0x67F JUMP JUMPDEST POP PUSH1 0x0 SWAP2 POP POP JUMPDEST SWAP2 SWAP1 POP JUMP JUMPDEST PUSH1 0x1 PUSH1 0x20 MSTORE DUP1 PUSH1 0x0 MSTORE PUSH1 0x40 PUSH1 0x0 KECCAK256 PUSH1 0x0 SWAP2 POP SWAP1 POP DUP1 PUSH1 0x0 ADD PUSH1 0x0 SWAP1 SLOAD SWAP1 PUSH2 0x100 EXP SWAP1 DIV PUSH20 0xFFFFFFFFFFFFFFFFFFFFFFFFFFFFFFFFFFFFFFFF AND SWAP1 DUP1 PUSH1 0x1 ADD SLOAD SWAP1 DUP1 PUSH1 0x2 ADD PUSH1 0x0 SWAP1 SLOAD SWAP1 PUSH2 0x100 EXP SWAP1 DIV PUSH1 0xFF AND SWAP1 POP DUP4 JUMP JUMPDEST PUSH2 0x801 PUSH2 0x119E JUMP JUMPDEST PUSH1 0x0 PUSH20 0xFFFFFFFFFFFFFFFFFFFFFFFFFFFFFFFFFFFFFFFF AND PUSH1 0x1 PUSH1 0x0 DUP5 DUP2 MSTORE PUSH1 0x20 ADD SWAP1 DUP2 MSTORE PUSH1 0x20 ADD PUSH1 0x0 KECCAK256 PUSH1 0x0 ADD PUSH1 0x0 SWAP1 SLOAD SWAP1 PUSH2 0x100 EXP SWAP1 DIV PUSH20 0xFFFFFFFFFFFFFFFFFFFFFFFFFFFFFFFFFFFFFFFF AND PUSH20 0xFFFFFFFFFFFFFFFFFFFFFFFFFFFFFFFFFFFFFFFF AND SUB PUSH2 0x8A6 JUMPI PUSH1 0x40 MLOAD PUSH32 0x8C379A000000000000000000000000000000000000000000000000000000000 DUP2 MSTORE PUSH1 0x4 ADD PUSH2 0x89D SWAP1 PUSH2 0x19F8 JUMP JUMPDEST PUSH1 0x40 MLOAD DUP1 SWAP2 SUB SWAP1 REVERT JUMPDEST PUSH1 0x1 PUSH1 0x0 DUP4 DUP2 MSTORE PUSH1 0x20 ADD SWAP1 DUP2 MSTORE PUSH1 0x20 ADD PUSH1 0x0 KECCAK256 PUSH1 0x40 MLOAD DUP1 PUSH1 0x60 ADD PUSH1 0x40 MSTORE SWAP1 DUP2 PUSH1 0x0 DUP3 ADD PUSH1 0x0 SWAP1 SLOAD SWAP1 PUSH2 0x100 EXP SWAP1 DIV PUSH20 0xFFFFFFFFFFFFFFFFFFFFFFFFFFFFFFFFFFFFFFFF AND PUSH20 0xFFFFFFFFFFFFFFFFFFFFFFFFFFFFFFFFFFFFFFFF AND PUSH20 0xFFFFFFFFFFFFFFFFFFFFFFFFFFFFFFFFFFFFFFFF AND DUP2 MSTORE PUSH1 0x20 ADD PUSH1 0x1 DUP3 ADD SLOAD DUP2 MSTORE PUSH1 0x20 ADD PUSH1 0x2 DUP3 ADD PUSH1 0x0 SWAP1 SLOAD SWAP1 PUSH2 0x100 EXP SWAP1 DIV PUSH1 0xFF AND ISZERO ISZERO ISZERO ISZERO DUP2 MSTORE POP POP SWAP1 POP SWAP2 SWAP1 POP JUMP JUMPDEST PUSH1 0x0 SLOAD DUP2 JUMP JUMPDEST PUSH1 0x0 PUSH1 0x3 PUSH1 0x0 CALLER PUSH20 0xFFFFFFFFFFFFFFFFFFFFFFFFFFFFFFFFFFFFFFFF AND PUSH20 0xFFFFFFFFFFFFFFFFFFFFFFFFFFFFFFFFFFFFFFFF AND DUP2 MSTORE PUSH1 0x20 ADD SWAP1 DUP2 MSTORE PUSH1 0x20 ADD PUSH1 0x0 KECCAK256 PUSH1 0x0 SWAP1 SLOAD SWAP1 PUSH2 0x100 EXP SWAP1 DIV PUSH1 0xFF AND DUP1 PUSH2 0x9F3 JUMPI POP CALLER PUSH20 0xFFFFFFFFFFFFFFFFFFFFFFFFFFFFFFFFFFFFFFFF AND PUSH1 0x6 PUSH1 0x0 SWAP1 SLOAD SWAP1 PUSH2 0x100 EXP SWAP1 DIV PUSH20 0xFFFFFFFFFFFFFFFFFFFFFFFFFFFFFFFFFFFFFFFF AND PUSH20 0xFFFFFFFFFFFFFFFFFFFFFFFFFFFFFFFFFFFFFFFF AND EQ JUMPDEST PUSH2 0xA32 JUMPI PUSH1 0x40 MLOAD PUSH32 0x8C379A000000000000000000000000000000000000000000000000000000000 DUP2 MSTORE PUSH1 0x4 ADD PUSH2 0xA29 SWAP1 PUSH2 0x1846 JUMP JUMPDEST PUSH1 0x40 MLOAD DUP1 SWAP2 SUB SWAP1 REVERT JUMPDEST PUSH1 0x3 PUSH1 0x0 CALLER PUSH20 0xFFFFFFFFFFFFFFFFFFFFFFFFFFFFFFFFFFFFFFFF AND PUSH20 0xFFFFFFFFFFFFFFFFFFFFFFFFFFFFFFFFFFFFFFFF AND DUP2 MSTORE PUSH1 0x20 ADD SWAP1 DUP2 MSTORE PUSH1 0x20 ADD PUSH1 0x0 KECCAK256 PUSH1 0x0 SWAP1 SLOAD SWAP1 PUSH2 0x100 EXP SWAP1 DIV PUSH1 0xFF AND PUSH2 0xABE JUMPI PUSH1 0x40 MLOAD PUSH32 0x8C379A000000000000000000000000000000000000000000000000000000000 DUP2 MSTORE PUSH1 0x4 ADD PUSH2 0xAB5 SWAP1 PUSH2 0x1A64 JUMP JUMPDEST PUSH1 0x40 MLOAD DUP1 SWAP2 SUB SWAP1 REVERT JUMPDEST PUSH1 0x0 PUSH20 0xFFFFFFFFFFFFFFFFFFFFFFFFFFFFFFFFFFFFFFFF AND PUSH1 0x1 PUSH1 0x0 DUP5 DUP2 MSTORE PUSH1 0x20 ADD SWAP1 DUP2 MSTORE PUSH1 0x20 ADD PUSH1 0x0 KECCAK256 PUSH1 0x0 ADD PUSH1 0x0 SWAP1 SLOAD SWAP1 PUSH2 0x100 EXP SWAP1 DIV PUSH20 0xFFFFFFFFFFFFFFFFFFFFFFFFFFFFFFFFFFFFFFFF AND PUSH20 0xFFFFFFFFFFFFFFFFFFFFFFFFFFFFFFFFFFFFFFFF AND SUB PUSH2 0xB63 JUMPI PUSH1 0x40 MLOAD PUSH32 0x8C379A000000000000000000000000000000000000000000000000000000000 DUP2 MSTORE PUSH1 0x4 ADD PUSH2 0xB5A SWAP1 PUSH2 0x1AD0 JUMP JUMPDEST PUSH1 0x40 MLOAD DUP1 SWAP2 SUB SWAP1 REVERT JUMPDEST PUSH1 0x2 PUSH1 0x0 DUP4 DUP2 MSTORE PUSH1 0x20 ADD SWAP1 DUP2 MSTORE PUSH1 0x20 ADD PUSH1 0x0 KECCAK256 PUSH1 0x0 CALLER PUSH20 0xFFFFFFFFFFFFFFFFFFFFFFFFFFFFFFFFFFFFFFFF AND PUSH20 0xFFFFFFFFFFFFFFFFFFFFFFFFFFFFFFFFFFFFFFFF AND DUP2 MSTORE PUSH1 0x20 ADD SWAP1 DUP2 MSTORE PUSH1 0x20 ADD PUSH1 0x0 KECCAK256 PUSH1 0x0 SWAP1 SLOAD SWAP1 PUSH2 0x100 EXP SWAP1 DIV PUSH1 0xFF AND ISZERO PUSH2 0xC01 JUMPI PUSH1 0x40 MLOAD PUSH32 0x8C379A000000000000000000000000000000000000000000000000000000000 DUP2 MSTORE PUSH1 0x4 ADD PUSH2 0xBF8 SWAP1 PUSH2 0x1B3C JUMP JUMPDEST PUSH1 0x40 MLOAD DUP1 SWAP2 SUB SWAP1 REVERT JUMPDEST PUSH1 0x1 PUSH1 0x2 PUSH1 0x0 DUP5 DUP2 MSTORE PUSH1 0x20 ADD SWAP1 DUP2 MSTORE PUSH1 0x20 ADD PUSH1 0x0 KECCAK256 PUSH1 0x0 CALLER PUSH20 0xFFFFFFFFFFFFFFFFFFFFFFFFFFFFFFFFFFFFFFFF AND PUSH20 0xFFFFFFFFFFFFFFFFFFFFFFFFFFFFFFFFFFFFFFFF AND DUP2 MSTORE PUSH1 0x20 ADD SWAP1 DUP2 MSTORE PUSH1 0x20 ADD PUSH1 0x0 KECCAK256 PUSH1 0x0 PUSH2 0x100 EXP DUP2 SLOAD DUP2 PUSH1 0xFF MUL NOT AND SWAP1 DUP4 ISZERO ISZERO MUL OR SWAP1 SSTORE POP PUSH2 0xC73 DUP3 PUSH2 0x642 JUMP JUMPDEST SWAP1 POP SWAP2 SWAP1 POP JUMP JUMPDEST PUSH1 0x6 PUSH1 0x14 SWAP1 SLOAD SWAP1 PUSH2 0x100 EXP SWAP1 DIV PUSH1 0xFF AND DUP2 JUMP JUMPDEST PUSH1 0x5 SLOAD DUP2 JUMP JUMPDEST CALLER PUSH20 0xFFFFFFFFFFFFFFFFFFFFFFFFFFFFFFFFFFFFFFFF AND PUSH1 0x6 PUSH1 0x0 SWAP1 SLOAD SWAP1 PUSH2 0x100 EXP SWAP1 DIV PUSH20 0xFFFFFFFFFFFFFFFFFFFFFFFFFFFFFFFFFFFFFFFF AND PUSH20 0xFFFFFFFFFFFFFFFFFFFFFFFFFFFFFFFFFFFFFFFF AND EQ PUSH2 0xD23 JUMPI PUSH1 0x40 MLOAD PUSH32 0x8C379A000000000000000000000000000000000000000000000000000000000 DUP2 MSTORE PUSH1 0x4 ADD PUSH2 0xD1A SWAP1 PUSH2 0x1846 JUMP JUMPDEST PUSH1 0x40 MLOAD DUP1 SWAP2 SUB SWAP1 REVERT JUMPDEST PUSH1 0x4 DUP1 SLOAD SWAP1 POP DUP2 GT ISZERO PUSH2 0xD6B JUMPI PUSH1 0x40 MLOAD PUSH32 0x8C379A000000000000000000000000000000000000000000000000000000000 DUP2 MSTORE PUSH1 0x4 ADD PUSH2 0xD62 SWAP1 PUSH2 0x1BA8 JUMP JUMPDEST PUSH1 0x40 MLOAD DUP1 SWAP2 SUB SWAP1 REVERT JUMPDEST PUSH1 0x0 JUMPDEST DUP3 MLOAD DUP2 LT ISZERO PUSH2 0xEF4 JUMPI PUSH1 0x3 PUSH1 0x0 DUP5 DUP4 DUP2 MLOAD DUP2 LT PUSH2 0xD8E JUMPI PUSH2 0xD8D PUSH2 0x18D2 JUMP JUMPDEST JUMPDEST PUSH1 0x20 MUL PUSH1 0x20 ADD ADD MLOAD PUSH20 0xFFFFFFFFFFFFFFFFFFFFFFFFFFFFFFFFFFFFFFFF AND PUSH20 0xFFFFFFFFFFFFFFFFFFFFFFFFFFFFFFFFFFFFFFFF AND DUP2 MSTORE PUSH1 0x20 ADD SWAP1 DUP2 MSTORE PUSH1 0x20 ADD PUSH1 0x0 KECCAK256 PUSH1 0x0 SWAP1 SLOAD SWAP1 PUSH2 0x100 EXP SWAP1 DIV PUSH1 0xFF AND DUP1 PUSH2 0xE2F JUMPI POP PUSH1 0x0 PUSH20 0xFFFFFFFFFFFFFFFFFFFFFFFFFFFFFFFFFFFFFFFF AND DUP4 DUP3 DUP2 MLOAD DUP2 LT PUSH2 0xE0F JUMPI PUSH2 0xE0E PUSH2 0x18D2 JUMP JUMPDEST JUMPDEST PUSH1 0x20 MUL PUSH1 0x20 ADD ADD MLOAD PUSH20 0xFFFFFFFFFFFFFFFFFFFFFFFFFFFFFFFFFFFFFFFF AND EQ JUMPDEST ISZERO PUSH2 0xE6F JUMPI PUSH1 0x40 MLOAD PUSH32 0x8C379A000000000000000000000000000000000000000000000000000000000 DUP2 MSTORE PUSH1 0x4 ADD PUSH2 0xE66 SWAP1 PUSH2 0x1C14 JUMP JUMPDEST PUSH1 0x40 MLOAD DUP1 SWAP2 SUB SWAP1 REVERT JUMPDEST PUSH1 0x1 PUSH1 0x3 PUSH1 0x0 DUP6 DUP5 DUP2 MLOAD DUP2 LT PUSH2 0xE88 JUMPI PUSH2 0xE87 PUSH2 0x18D2 JUMP JUMPDEST JUMPDEST PUSH1 0x20 MUL PUSH1 0x20 ADD ADD MLOAD PUSH20 0xFFFFFFFFFFFFFFFFFFFFFFFFFFFFFFFFFFFFFFFF AND PUSH20 0xFFFFFFFFFFFFFFFFFFFFFFFFFFFFFFFFFFFFFFFF AND DUP2 MSTORE PUSH1 0x20 ADD SWAP1 DUP2 MSTORE PUSH1 0x20 ADD PUSH1 0x0 KECCAK256 PUSH1 0x0 PUSH2 0x100 EXP DUP2 SLOAD DUP2 PUSH1 0xFF MUL NOT AND SWAP1 DUP4 ISZERO ISZERO MUL OR SWAP1 SSTORE POP DUP1 DUP1 PUSH2 0xEEC SWAP1 PUSH2 0x1964 JUMP JUMPDEST SWAP2 POP POP PUSH2 0xD6E JUMP JUMPDEST POP DUP2 PUSH1 0x4 SWAP1 DUP1 MLOAD SWAP1 PUSH1 0x20 ADD SWAP1 PUSH2 0xF0B SWAP3 SWAP2 SWAP1 PUSH2 0x11D7 JUMP JUMPDEST POP DUP1 PUSH1 0x5 DUP2 SWAP1 SSTORE POP POP POP JUMP JUMPDEST PUSH1 0x0 PUSH1 0x3 PUSH1 0x0 CALLER PUSH20 0xFFFFFFFFFFFFFFFFFFFFFFFFFFFFFFFFFFFFFFFF AND PUSH20 0xFFFFFFFFFFFFFFFFFFFFFFFFFFFFFFFFFFFFFFFF AND DUP2 MSTORE PUSH1 0x20 ADD SWAP1 DUP2 MSTORE PUSH1 0x20 ADD PUSH1 0x0 KECCAK256 PUSH1 0x0 SWAP1 SLOAD SWAP1 PUSH2 0x100 EXP SWAP1 DIV PUSH1 0xFF AND DUP1 PUSH2 0xFBE JUMPI POP CALLER PUSH20 0xFFFFFFFFFFFFFFFFFFFFFFFFFFFFFFFFFFFFFFFF AND PUSH1 0x6 PUSH1 0x0 SWAP1 SLOAD SWAP1 PUSH2 0x100 EXP SWAP1 DIV PUSH20 0xFFFFFFFFFFFFFFFFFFFFFFFFFFFFFFFFFFFFFFFF AND PUSH20 0xFFFFFFFFFFFFFFFFFFFFFFFFFFFFFFFFFFFFFFFF AND EQ JUMPDEST PUSH2 0xFFD JUMPI PUSH1 0x40 MLOAD PUSH32 0x8C379A000000000000000000000000000000000000000000000000000000000 DUP2 MSTORE PUSH1 0x4 ADD PUSH2 0xFF4 SWAP1 PUSH2 0x1846 JUMP JUMPDEST PUSH1 0x40 MLOAD DUP1 SWAP2 SUB SWAP1 REVERT JUMPDEST PUSH1 0x1 PUSH1 0x0 DUP4 DUP2 MSTORE PUSH1 0x20 ADD SWAP1 DUP2 MSTORE PUSH1 0x20 ADD PUSH1 0x0 KECCAK256 PUSH1 0x2 ADD PUSH1 0x0 SWAP1 SLOAD SWAP1 PUSH2 0x100 EXP SWAP1 DIV PUSH1 0xFF AND ISZERO PUSH2 0x1061 JUMPI PUSH1 0x40 MLOAD PUSH32 0x8C379A000000000000000000000000000000000000000000000000000000000 DUP2 MSTORE PUSH1 0x4 ADD PUSH2 0x1058 SWAP1 PUSH2 0x1C80 JUMP JUMPDEST PUSH1 0x40 MLOAD DUP1 SWAP2 SUB SWAP1 REVERT JUMPDEST PUSH1 0x1 DUP1 PUSH1 0x0 DUP5 DUP2 MSTORE PUSH1 0x20 ADD SWAP1 DUP2 MSTORE PUSH1 0x20 ADD PUSH1 0x0 KECCAK256 PUSH1 0x2 ADD PUSH1 0x0 PUSH2 0x100 EXP DUP2 SLOAD DUP2 PUSH1 0xFF MUL NOT AND SWAP1 DUP4 ISZERO ISZERO MUL OR SWAP1 SSTORE POP PUSH1 0x1 SWAP1 POP SWAP2 SWAP1 POP JUMP JUMPDEST PUSH1 0x6 PUSH1 0x0 SWAP1 SLOAD SWAP1 PUSH2 0x100 EXP SWAP1 DIV PUSH20 0xFFFFFFFFFFFFFFFFFFFFFFFFFFFFFFFFFFFFFFFF AND DUP2 JUMP JUMPDEST PUSH1 0x0 DUP1 SLOAD SWAP1 POP PUSH1 0x40 MLOAD DUP1 PUSH1 0x60 ADD PUSH1 0x40 MSTORE DUP1 DUP5 PUSH20 0xFFFFFFFFFFFFFFFFFFFFFFFFFFFFFFFFFFFFFFFF AND DUP2 MSTORE PUSH1 0x20 ADD DUP4 DUP2 MSTORE PUSH1 0x20 ADD PUSH1 0x0 ISZERO ISZERO DUP2 MSTORE POP PUSH1 0x1 PUSH1 0x0 DUP4 DUP2 MSTORE PUSH1 0x20 ADD SWAP1 DUP2 MSTORE PUSH1 0x20 ADD PUSH1 0x0 KECCAK256 PUSH1 0x0 DUP3 ADD MLOAD DUP2 PUSH1 0x0 ADD PUSH1 0x0 PUSH2 0x100 EXP DUP2 SLOAD DUP2 PUSH20 0xFFFFFFFFFFFFFFFFFFFFFFFFFFFFFFFFFFFFFFFF MUL NOT AND SWAP1 DUP4 PUSH20 0xFFFFFFFFFFFFFFFFFFFFFFFFFFFFFFFFFFFFFFFF AND MUL OR SWAP1 SSTORE POP PUSH1 0x20 DUP3 ADD MLOAD DUP2 PUSH1 0x1 ADD SSTORE PUSH1 0x40 DUP3 ADD MLOAD DUP2 PUSH1 0x2 ADD PUSH1 0x0 PUSH2 0x100 EXP DUP2 SLOAD DUP2 PUSH1 0xFF MUL NOT AND SWAP1 DUP4 ISZERO ISZERO MUL OR SWAP1 SSTORE POP SWAP1 POP POP PUSH1 0x1 PUSH1 0x0 DUP1 DUP3 DUP3 SLOAD PUSH2 0x1191 SWAP2 SWAP1 PUSH2 0x1930 JUMP JUMPDEST SWAP3 POP POP DUP2 SWAP1 SSTORE POP SWAP3 SWAP2 POP POP JUMP JUMPDEST PUSH1 0x40 MLOAD DUP1 PUSH1 0x60 ADD PUSH1 0x40 MSTORE DUP1 PUSH1 0x0 PUSH20 0xFFFFFFFFFFFFFFFFFFFFFFFFFFFFFFFFFFFFFFFF AND DUP2 MSTORE PUSH1 0x20 ADD PUSH1 0x0 DUP2 MSTORE PUSH1 0x20 ADD PUSH1 0x0 ISZERO ISZERO DUP2 MSTORE POP SWAP1 JUMP JUMPDEST DUP3 DUP1 SLOAD DUP3 DUP3 SSTORE SWAP1 PUSH1 0x0 MSTORE PUSH1 0x20 PUSH1 0x0 KECCAK256 SWAP1 DUP2 ADD SWAP3 DUP3 ISZERO PUSH2 0x1250 JUMPI SWAP2 PUSH1 0x20 MUL DUP3 ADD JUMPDEST DUP3 DUP2 GT ISZERO PUSH2 0x124F JUMPI DUP3 MLOAD DUP3 PUSH1 0x0 PUSH2 0x100 EXP DUP2 SLOAD DUP2 PUSH20 0xFFFFFFFFFFFFFFFFFFFFFFFFFFFFFFFFFFFFFFFF MUL NOT AND SWAP1 DUP4 PUSH20 0xFFFFFFFFFFFFFFFFFFFFFFFFFFFFFFFFFFFFFFFF AND MUL OR SWAP1 SSTORE POP SWAP2 PUSH1 0x20 ADD SWAP2 SWAP1 PUSH1 0x1 ADD SWAP1 PUSH2 0x11F7 JUMP JUMPDEST JUMPDEST POP SWAP1 POP PUSH2 0x125D SWAP2 SWAP1 PUSH2 0x1261 JUMP JUMPDEST POP SWAP1 JUMP JUMPDEST JUMPDEST DUP1 DUP3 GT ISZERO PUSH2 0x127A JUMPI PUSH1 0x0 DUP2 PUSH1 0x0 SWAP1 SSTORE POP PUSH1 0x1 ADD PUSH2 0x1262 JUMP JUMPDEST POP SWAP1 JUMP JUMPDEST PUSH1 0x0 PUSH1 0x40 MLOAD SWAP1 POP SWAP1 JUMP JUMPDEST PUSH1 0x0 DUP1 REVERT JUMPDEST PUSH1 0x0 DUP1 REVERT JUMPDEST PUSH1 0x0 DUP2 SWAP1 POP SWAP2 SWAP1 POP JUMP JUMPDEST PUSH2 0x12A5 DUP2 PUSH2 0x1292 JUMP JUMPDEST DUP2 EQ PUSH2 0x12B0 JUMPI PUSH1 0x0 DUP1 REVERT JUMPDEST POP JUMP JUMPDEST PUSH1 0x0 DUP2 CALLDATALOAD SWAP1 POP PUSH2 0x12C2 DUP2 PUSH2 0x129C JUMP JUMPDEST SWAP3 SWAP2 POP POP JUMP JUMPDEST PUSH1 0x0 PUSH1 0x20 DUP3 DUP5 SUB SLT ISZERO PUSH2 0x12DE JUMPI PUSH2 0x12DD PUSH2 0x1288 JUMP JUMPDEST JUMPDEST PUSH1 0x0 PUSH2 0x12EC DUP5 DUP3 DUP6 ADD PUSH2 0x12B3 JUMP JUMPDEST SWAP2 POP POP SWAP3 SWAP2 POP POP JUMP JUMPDEST PUSH1 0x0 PUSH20 0xFFFFFFFFFFFFFFFFFFFFFFFFFFFFFFFFFFFFFFFF DUP3 AND SWAP1 POP SWAP2 SWAP1 POP JUMP JUMPDEST PUSH1 0x0 PUSH2 0x1320 DUP3 PUSH2 0x12F5 JUMP JUMPDEST SWAP1 POP SWAP2 SWAP1 POP JUMP JUMPDEST PUSH2 0x1330 DUP2 PUSH2 0x1315 JUMP JUMPDEST DUP3 MSTORE POP POP JUMP JUMPDEST PUSH1 0x0 PUSH1 0x20 DUP3 ADD SWAP1 POP PUSH2 0x134B PUSH1 0x0 DUP4 ADD DUP5 PUSH2 0x1327 JUMP JUMPDEST SWAP3 SWAP2 POP POP JUMP JUMPDEST PUSH2 0x135A DUP2 PUSH2 0x1315 JUMP JUMPDEST DUP2 EQ PUSH2 0x1365 JUMPI PUSH1 0x0 DUP1 REVERT JUMPDEST POP JUMP JUMPDEST PUSH1 0x0 DUP2 CALLDATALOAD SWAP1 POP PUSH2 0x1377 DUP2 PUSH2 0x1351 JUMP JUMPDEST SWAP3 SWAP2 POP POP JUMP JUMPDEST PUSH1 0x0 DUP1 PUSH1 0x40 DUP4 DUP6 SUB SLT ISZERO PUSH2 0x1394 JUMPI PUSH2 0x1393 PUSH2 0x1288 JUMP JUMPDEST JUMPDEST PUSH1 0x0 PUSH2 0x13A2 DUP6 DUP3 DUP7 ADD PUSH2 0x1368 JUMP JUMPDEST SWAP3 POP POP PUSH1 0x20 PUSH2 0x13B3 DUP6 DUP3 DUP7 ADD PUSH2 0x12B3 JUMP JUMPDEST SWAP2 POP POP SWAP3 POP SWAP3 SWAP1 POP JUMP JUMPDEST PUSH2 0x13C6 DUP2 PUSH2 0x1292 JUMP JUMPDEST DUP3 MSTORE POP POP JUMP JUMPDEST PUSH1 0x0 PUSH1 0x20 DUP3 ADD SWAP1 POP PUSH2 0x13E1 PUSH1 0x0 DUP4 ADD DUP5 PUSH2 0x13BD JUMP JUMPDEST SWAP3 SWAP2 POP POP JUMP JUMPDEST PUSH1 0x0 DUP2 MLOAD SWAP1 POP SWAP2 SWAP1 POP JUMP JUMPDEST PUSH1 0x0 DUP3 DUP3 MSTORE PUSH1 0x20 DUP3 ADD SWAP1 POP SWAP3 SWAP2 POP POP JUMP JUMPDEST PUSH1 0x0 JUMPDEST DUP4 DUP2 LT ISZERO PUSH2 0x1421 JUMPI DUP1 DUP3 ADD MLOAD DUP2 DUP5 ADD MSTORE PUSH1 0x20 DUP2 ADD SWAP1 POP PUSH2 0x1406 JUMP JUMPDEST PUSH1 0x0 DUP5 DUP5 ADD MSTORE POP POP POP POP JUMP JUMPDEST PUSH1 0x0 PUSH1 0x1F NOT PUSH1 0x1F DUP4 ADD AND SWAP1 POP SWAP2 SWAP1 POP JUMP JUMPDEST PUSH1 0x0 PUSH2 0x1449 DUP3 PUSH2 0x13E7 JUMP JUMPDEST PUSH2 0x1453 DUP2 DUP6 PUSH2 0x13F2 JUMP JUMPDEST SWAP4 POP PUSH2 0x1463 DUP2 DUP6 PUSH1 0x20 DUP7 ADD PUSH2 0x1403 JUMP JUMPDEST PUSH2 0x146C DUP2 PUSH2 0x142D JUMP JUMPDEST DUP5 ADD SWAP2 POP POP SWAP3 SWAP2 POP POP JUMP JUMPDEST PUSH1 0x0 PUSH1 0x20 DUP3 ADD SWAP1 POP DUP2 DUP2 SUB PUSH1 0x0 DUP4 ADD MSTORE PUSH2 0x1491 DUP2 DUP5 PUSH2 0x143E JUMP JUMPDEST SWAP1 POP SWAP3 SWAP2 POP POP JUMP JUMPDEST PUSH1 0x0 PUSH1 0x20 DUP3 DUP5 SUB SLT ISZERO PUSH2 0x14AF JUMPI PUSH2 0x14AE PUSH2 0x1288 JUMP JUMPDEST JUMPDEST PUSH1 0x0 PUSH2 0x14BD DUP5 DUP3 DUP6 ADD PUSH2 0x1368 JUMP JUMPDEST SWAP2 POP POP SWAP3 SWAP2 POP POP JUMP JUMPDEST PUSH1 0x0 DUP2 ISZERO ISZERO SWAP1 POP SWAP2 SWAP1 POP JUMP JUMPDEST PUSH2 0x14DB DUP2 PUSH2 0x14C6 JUMP JUMPDEST DUP3 MSTORE POP POP JUMP JUMPDEST PUSH1 0x0 PUSH1 0x20 DUP3 ADD SWAP1 POP PUSH2 0x14F6 PUSH1 0x0 DUP4 ADD DUP5 PUSH2 0x14D2 JUMP JUMPDEST SWAP3 SWAP2 POP POP JUMP JUMPDEST PUSH1 0x0 DUP1 PUSH1 0x40 DUP4 DUP6 SUB SLT ISZERO PUSH2 0x1513 JUMPI PUSH2 0x1512 PUSH2 0x1288 JUMP JUMPDEST JUMPDEST PUSH1 0x0 PUSH2 0x1521 DUP6 DUP3 DUP7 ADD PUSH2 0x12B3 JUMP JUMPDEST SWAP3 POP POP PUSH1 0x20 PUSH2 0x1532 DUP6 DUP3 DUP7 ADD PUSH2 0x1368 JUMP JUMPDEST SWAP2 POP POP SWAP3 POP SWAP3 SWAP1 POP JUMP JUMPDEST PUSH2 0x1545 DUP2 PUSH2 0x14C6 JUMP JUMPDEST DUP2 EQ PUSH2 0x1550 JUMPI PUSH1 0x0 DUP1 REVERT JUMPDEST POP JUMP JUMPDEST PUSH1 0x0 DUP2 CALLDATALOAD SWAP1 POP PUSH2 0x1562 DUP2 PUSH2 0x153C JUMP JUMPDEST SWAP3 SWAP2 POP POP JUMP JUMPDEST PUSH1 0x0 PUSH1 0x20 DUP3 DUP5 SUB SLT ISZERO PUSH2 0x157E JUMPI PUSH2 0x157D PUSH2 0x1288 JUMP JUMPDEST JUMPDEST PUSH1 0x0 PUSH2 0x158C DUP5 DUP3 DUP6 ADD PUSH2 0x1553 JUMP JUMPDEST SWAP2 POP POP SWAP3 SWAP2 POP POP JUMP JUMPDEST PUSH1 0x0 PUSH1 0x60 DUP3 ADD SWAP1 POP PUSH2 0x15AA PUSH1 0x0 DUP4 ADD DUP7 PUSH2 0x1327 JUMP JUMPDEST PUSH2 0x15B7 PUSH1 0x20 DUP4 ADD DUP6 PUSH2 0x13BD JUMP JUMPDEST PUSH2 0x15C4 PUSH1 0x40 DUP4 ADD DUP5 PUSH2 0x14D2 JUMP JUMPDEST SWAP5 SWAP4 POP POP POP POP JUMP JUMPDEST PUSH2 0x15D5 DUP2 PUSH2 0x1315 JUMP JUMPDEST DUP3 MSTORE POP POP JUMP JUMPDEST PUSH2 0x15E4 DUP2 PUSH2 0x1292 JUMP JUMPDEST DUP3 MSTORE POP POP JUMP JUMPDEST PUSH2 0x15F3 DUP2 PUSH2 0x14C6 JUMP JUMPDEST DUP3 MSTORE POP POP JUMP JUMPDEST PUSH1 0x60 DUP3 ADD PUSH1 0x0 DUP3 ADD MLOAD PUSH2 0x160F PUSH1 0x0 DUP6 ADD DUP3 PUSH2 0x15CC JUMP JUMPDEST POP PUSH1 0x20 DUP3 ADD MLOAD PUSH2 0x1622 PUSH1 0x20 DUP6 ADD DUP3 PUSH2 0x15DB JUMP JUMPDEST POP PUSH1 0x40 DUP3 ADD MLOAD PUSH2 0x1635 PUSH1 0x40 DUP6 ADD DUP3 PUSH2 0x15EA JUMP JUMPDEST POP POP POP POP JUMP JUMPDEST PUSH1 0x0 PUSH1 0x60 DUP3 ADD SWAP1 POP PUSH2 0x1650 PUSH1 0x0 DUP4 ADD DUP5 PUSH2 0x15F9 JUMP JUMPDEST SWAP3 SWAP2 POP POP JUMP JUMPDEST PUSH1 0x0 DUP1 REVERT JUMPDEST PUSH32 0x4E487B7100000000000000000000000000000000000000000000000000000000 PUSH1 0x0 MSTORE PUSH1 0x41 PUSH1 0x4 MSTORE PUSH1 0x24 PUSH1 0x0 REVERT JUMPDEST PUSH2 0x1693 DUP3 PUSH2 0x142D JUMP JUMPDEST DUP2 ADD DUP2 DUP2 LT PUSH8 0xFFFFFFFFFFFFFFFF DUP3 GT OR ISZERO PUSH2 0x16B2 JUMPI PUSH2 0x16B1 PUSH2 0x165B JUMP JUMPDEST JUMPDEST DUP1 PUSH1 0x40 MSTORE POP POP POP JUMP JUMPDEST PUSH1 0x0 PUSH2 0x16C5 PUSH2 0x127E JUMP JUMPDEST SWAP1 POP PUSH2 0x16D1 DUP3 DUP3 PUSH2 0x168A JUMP JUMPDEST SWAP2 SWAP1 POP JUMP JUMPDEST PUSH1 0x0 PUSH8 0xFFFFFFFFFFFFFFFF DUP3 GT ISZERO PUSH2 0x16F1 JUMPI PUSH2 0x16F0 PUSH2 0x165B JUMP JUMPDEST JUMPDEST PUSH1 0x20 DUP3 MUL SWAP1 POP PUSH1 0x20 DUP2 ADD SWAP1 POP SWAP2 SWAP1 POP JUMP JUMPDEST PUSH1 0x0 DUP1 REVERT JUMPDEST PUSH1 0x0 PUSH2 0x171A PUSH2 0x1715 DUP5 PUSH2 0x16D6 JUMP JUMPDEST PUSH2 0x16BB JUMP JUMPDEST SWAP1 POP DUP1 DUP4 DUP3 MSTORE PUSH1 0x20 DUP3 ADD SWAP1 POP PUSH1 0x20 DUP5 MUL DUP4 ADD DUP6 DUP2 GT ISZERO PUSH2 0x173D JUMPI PUSH2 0x173C PUSH2 0x1702 JUMP JUMPDEST JUMPDEST DUP4 JUMPDEST DUP2 DUP2 LT ISZERO PUSH2 0x1766 JUMPI DUP1 PUSH2 0x1752 DUP9 DUP3 PUSH2 0x1368 JUMP JUMPDEST DUP5 MSTORE PUSH1 0x20 DUP5 ADD SWAP4 POP POP PUSH1 0x20 DUP2 ADD SWAP1 POP PUSH2 0x173F JUMP JUMPDEST POP POP POP SWAP4 SWAP3 POP POP POP JUMP JUMPDEST PUSH1 0x0 DUP3 PUSH1 0x1F DUP4 ADD SLT PUSH2 0x1785 JUMPI PUSH2 0x1784 PUSH2 0x1656 JUMP JUMPDEST JUMPDEST DUP2 CALLDATALOAD PUSH2 0x1795 DUP5 DUP3 PUSH1 0x20 DUP7 ADD PUSH2 0x1707 JUMP JUMPDEST SWAP2 POP POP SWAP3 SWAP2 POP POP JUMP JUMPDEST PUSH1 0x0 DUP1 PUSH1 0x40 DUP4 DUP6 SUB SLT ISZERO PUSH2 0x17B5 JUMPI PUSH2 0x17B4 PUSH2 0x1288 JUMP JUMPDEST JUMPDEST PUSH1 0x0 DUP4 ADD CALLDATALOAD PUSH8 0xFFFFFFFFFFFFFFFF DUP2 GT ISZERO PUSH2 0x17D3 JUMPI PUSH2 0x17D2 PUSH2 0x128D JUMP JUMPDEST JUMPDEST PUSH2 0x17DF DUP6 DUP3 DUP7 ADD PUSH2 0x1770 JUMP JUMPDEST SWAP3 POP POP PUSH1 0x20 PUSH2 0x17F0 DUP6 DUP3 DUP7 ADD PUSH2 0x12B3 JUMP JUMPDEST SWAP2 POP POP SWAP3 POP SWAP3 SWAP1 POP JUMP JUMPDEST PUSH32 0x596F7520617265206E6F7420746865206F776E65720000000000000000000000 PUSH1 0x0 DUP3 ADD MSTORE POP JUMP JUMPDEST PUSH1 0x0 PUSH2 0x1830 PUSH1 0x15 DUP4 PUSH2 0x13F2 JUMP JUMPDEST SWAP2 POP PUSH2 0x183B DUP3 PUSH2 0x17FA JUMP JUMPDEST PUSH1 0x20 DUP3 ADD SWAP1 POP SWAP2 SWAP1 POP JUMP JUMPDEST PUSH1 0x0 PUSH1 0x20 DUP3 ADD SWAP1 POP DUP2 DUP2 SUB PUSH1 0x0 DUP4 ADD MSTORE PUSH2 0x185F DUP2 PUSH2 0x1823 JUMP JUMPDEST SWAP1 POP SWAP2 SWAP1 POP JUMP JUMPDEST PUSH32 0x76616C7565206E6F7420656E6F75676800000000000000000000000000000000 PUSH1 0x0 DUP3 ADD MSTORE POP JUMP JUMPDEST PUSH1 0x0 PUSH2 0x189C PUSH1 0x10 DUP4 PUSH2 0x13F2 JUMP JUMPDEST SWAP2 POP PUSH2 0x18A7 DUP3 PUSH2 0x1866 JUMP JUMPDEST PUSH1 0x20 DUP3 ADD SWAP1 POP SWAP2 SWAP1 POP JUMP JUMPDEST PUSH1 0x0 PUSH1 0x20 DUP3 ADD SWAP1 POP DUP2 DUP2 SUB PUSH1 0x0 DUP4 ADD MSTORE PUSH2 0x18CB DUP2 PUSH2 0x188F JUMP JUMPDEST SWAP1 POP SWAP2 SWAP1 POP JUMP JUMPDEST PUSH32 0x4E487B7100000000000000000000000000000000000000000000000000000000 PUSH1 0x0 MSTORE PUSH1 0x32 PUSH1 0x4 MSTORE PUSH1 0x24 PUSH1 0x0 REVERT JUMPDEST PUSH32 0x4E487B7100000000000000000000000000000000000000000000000000000000 PUSH1 0x0 MSTORE PUSH1 0x11 PUSH1 0x4 MSTORE PUSH1 0x24 PUSH1 0x0 REVERT JUMPDEST PUSH1 0x0 PUSH2 0x193B DUP3 PUSH2 0x1292 JUMP JUMPDEST SWAP2 POP PUSH2 0x1946 DUP4 PUSH2 0x1292 JUMP JUMPDEST SWAP3 POP DUP3 DUP3 ADD SWAP1 POP DUP1 DUP3 GT ISZERO PUSH2 0x195E JUMPI PUSH2 0x195D PUSH2 0x1901 JUMP JUMPDEST JUMPDEST SWAP3 SWAP2 POP POP JUMP JUMPDEST PUSH1 0x0 PUSH2 0x196F DUP3 PUSH2 0x1292 JUMP JUMPDEST SWAP2 POP PUSH32 0xFFFFFFFFFFFFFFFFFFFFFFFFFFFFFFFFFFFFFFFFFFFFFFFFFFFFFFFFFFFFFFFF DUP3 SUB PUSH2 0x19A1 JUMPI PUSH2 0x19A0 PUSH2 0x1901 JUMP JUMPDEST JUMPDEST PUSH1 0x1 DUP3 ADD SWAP1 POP SWAP2 SWAP1 POP JUMP JUMPDEST PUSH32 0x6E6F742066696E64207472616E73616374696F6E206279204964000000000000 PUSH1 0x0 DUP3 ADD MSTORE POP JUMP JUMPDEST PUSH1 0x0 PUSH2 0x19E2 PUSH1 0x1A DUP4 PUSH2 0x13F2 JUMP JUMPDEST SWAP2 POP PUSH2 0x19ED DUP3 PUSH2 0x19AC JUMP JUMPDEST PUSH1 0x20 DUP3 ADD SWAP1 POP SWAP2 SWAP1 POP JUMP JUMPDEST PUSH1 0x0 PUSH1 0x20 DUP3 ADD SWAP1 POP DUP2 DUP2 SUB PUSH1 0x0 DUP4 ADD MSTORE PUSH2 0x1A11 DUP2 PUSH2 0x19D5 JUMP JUMPDEST SWAP1 POP SWAP2 SWAP1 POP JUMP JUMPDEST PUSH32 0x796F7520617265206E6F7420696E206F776E6572730000000000000000000000 PUSH1 0x0 DUP3 ADD MSTORE POP JUMP JUMPDEST PUSH1 0x0 PUSH2 0x1A4E PUSH1 0x15 DUP4 PUSH2 0x13F2 JUMP JUMPDEST SWAP2 POP PUSH2 0x1A59 DUP3 PUSH2 0x1A18 JUMP JUMPDEST PUSH1 0x20 DUP3 ADD SWAP1 POP SWAP2 SWAP1 POP JUMP JUMPDEST PUSH1 0x0 PUSH1 0x20 DUP3 ADD SWAP1 POP DUP2 DUP2 SUB PUSH1 0x0 DUP4 ADD MSTORE PUSH2 0x1A7D DUP2 PUSH2 0x1A41 JUMP JUMPDEST SWAP1 POP SWAP2 SWAP1 POP JUMP JUMPDEST PUSH32 0x7472616E73616374696F6E2064657374696E6174696F6E206973206E6F6E6500 PUSH1 0x0 DUP3 ADD MSTORE POP JUMP JUMPDEST PUSH1 0x0 PUSH2 0x1ABA PUSH1 0x1F DUP4 PUSH2 0x13F2 JUMP JUMPDEST SWAP2 POP PUSH2 0x1AC5 DUP3 PUSH2 0x1A84 JUMP JUMPDEST PUSH1 0x20 DUP3 ADD SWAP1 POP SWAP2 SWAP1 POP JUMP JUMPDEST PUSH1 0x0 PUSH1 0x20 DUP3 ADD SWAP1 POP DUP2 DUP2 SUB PUSH1 0x0 DUP4 ADD MSTORE PUSH2 0x1AE9 DUP2 PUSH2 0x1AAD JUMP JUMPDEST SWAP1 POP SWAP2 SWAP1 POP JUMP JUMPDEST PUSH32 0x796F752068617320636F6E6669726D6564000000000000000000000000000000 PUSH1 0x0 DUP3 ADD MSTORE POP JUMP JUMPDEST PUSH1 0x0 PUSH2 0x1B26 PUSH1 0x11 DUP4 PUSH2 0x13F2 JUMP JUMPDEST SWAP2 POP PUSH2 0x1B31 DUP3 PUSH2 0x1AF0 JUMP JUMPDEST PUSH1 0x20 DUP3 ADD SWAP1 POP SWAP2 SWAP1 POP JUMP JUMPDEST PUSH1 0x0 PUSH1 0x20 DUP3 ADD SWAP1 POP DUP2 DUP2 SUB PUSH1 0x0 DUP4 ADD MSTORE PUSH2 0x1B55 DUP2 PUSH2 0x1B19 JUMP JUMPDEST SWAP1 POP SWAP2 SWAP1 POP JUMP JUMPDEST PUSH32 0x7265717569726564206578636565640000000000000000000000000000000000 PUSH1 0x0 DUP3 ADD MSTORE POP JUMP JUMPDEST PUSH1 0x0 PUSH2 0x1B92 PUSH1 0xF DUP4 PUSH2 0x13F2 JUMP JUMPDEST SWAP2 POP PUSH2 0x1B9D DUP3 PUSH2 0x1B5C JUMP JUMPDEST PUSH1 0x20 DUP3 ADD SWAP1 POP SWAP2 SWAP1 POP JUMP JUMPDEST PUSH1 0x0 PUSH1 0x20 DUP3 ADD SWAP1 POP DUP2 DUP2 SUB PUSH1 0x0 DUP4 ADD MSTORE PUSH2 0x1BC1 DUP2 PUSH2 0x1B85 JUMP JUMPDEST SWAP1 POP SWAP2 SWAP1 POP JUMP JUMPDEST PUSH32 0x6578697374206F776E6572000000000000000000000000000000000000000000 PUSH1 0x0 DUP3 ADD MSTORE POP JUMP JUMPDEST PUSH1 0x0 PUSH2 0x1BFE PUSH1 0xB DUP4 PUSH2 0x13F2 JUMP JUMPDEST SWAP2 POP PUSH2 0x1C09 DUP3 PUSH2 0x1BC8 JUMP JUMPDEST PUSH1 0x20 DUP3 ADD SWAP1 POP SWAP2 SWAP1 POP JUMP JUMPDEST PUSH1 0x0 PUSH1 0x20 DUP3 ADD SWAP1 POP DUP2 DUP2 SUB PUSH1 0x0 DUP4 ADD MSTORE PUSH2 0x1C2D DUP2 PUSH2 0x1BF1 JUMP JUMPDEST SWAP1 POP SWAP2 SWAP1 POP JUMP JUMPDEST PUSH32 0x7472616E73616374696F6E496420686173206265656E20657865637574656400 PUSH1 0x0 DUP3 ADD MSTORE POP JUMP JUMPDEST PUSH1 0x0 PUSH2 0x1C6A PUSH1 0x1F DUP4 PUSH2 0x13F2 JUMP JUMPDEST SWAP2 POP PUSH2 0x1C75 DUP3 PUSH2 0x1C34 JUMP JUMPDEST PUSH1 0x20 DUP3 ADD SWAP1 POP SWAP2 SWAP1 POP JUMP JUMPDEST PUSH1 0x0 PUSH1 0x20 DUP3 ADD SWAP1 POP DUP2 DUP2 SUB PUSH1 0x0 DUP4 ADD MSTORE PUSH2 0x1C99 DUP2 PUSH2 0x1C5D JUMP JUMPDEST SWAP1 POP SWAP2 SWAP1 POP JUMP INVALID LOG2 PUSH5 0x6970667358 0x22 SLT KECCAK256 NOT CALLDATACOPY 0x26 PUSH25 0x8F9E1ECB41E1F0B12F56B6FA8710CB8244F9C3BF9EE25E4281 LOG2 EXTCODECOPY SWAP10 PUSH5 0x736F6C6343 STOP ADDMOD GT STOP CALLER "
				},
				"gasEstimates": {
					"creation": {
						"codeDepositCost": "1476400",
						"executionCost": "169326",
						"totalCost": "1645726"
					},
					"external": {
						"admin()": "2602",
						"confirmTransaction(uint256)": "infinite",
						"confirmations(uint256,address)": "3110",
						"echo()": "infinite",
						"executeTxState(uint256)": "31682",
						"findTransaction(uint256)": "infinite",
						"isAllAgree()": "2610",
						"isConfirmed(uint256)": "infinite",
						"isOwner(address)": "2935",
						"owners(uint256)": "4980",
						"required()": "2451",
						"setOwners(address[],uint256)": "infinite",
						"setRequired(bool)": "26944",
						"submitTransaction(address,uint256)": "infinite",
						"transactionCount()": "2474",
						"transactions(uint256)": "infinite"
					},
					"internal": {
						"addTransaction(address,uint256)": "infinite"
					}
				},
				"methodIdentifiers": {
					"admin()": "f851a440",
					"confirmTransaction(uint256)": "c01a8c84",
					"confirmations(uint256,address)": "3411c81c",
					"echo()": "29f4acb0",
					"executeTxState(uint256)": "f72c1c8b",
					"findTransaction(uint256)": "b06395f3",
					"isAllAgree()": "cedd57d5",
					"isConfirmed(uint256)": "784547a7",
					"isOwner(address)": "2f54bf6e",
					"owners(uint256)": "025e7c27",
					"required()": "dc8452cd",
					"setOwners(address[],uint256)": "df5cb5a0",
					"setRequired(bool)": "3d0bf07e",
					"submitTransaction(address,uint256)": "1d43b653",
					"transactionCount()": "b77bf600",
					"transactions(uint256)": "9ace38c2"
				}
			},
			"storageLayout": {
				"storage": [
					{
						"astId": 10,
						"contract": "contracts/MultiSign.sol:MultiSign",
						"label": "transactionCount",
						"offset": 0,
						"slot": "0",
						"type": "t_uint256"
					},
					{
						"astId": 15,
						"contract": "contracts/MultiSign.sol:MultiSign",
						"label": "transactions",
						"offset": 0,
						"slot": "1",
						"type": "t_mapping(t_uint256,t_struct(Transaction)8_storage)"
					},
					{
						"astId": 21,
						"contract": "contracts/MultiSign.sol:MultiSign",
						"label": "confirmations",
						"offset": 0,
						"slot": "2",
						"type": "t_mapping(t_uint256,t_mapping(t_address,t_bool))"
					},
					{
						"astId": 25,
						"contract": "contracts/MultiSign.sol:MultiSign",
						"label": "isOwner",
						"offset": 0,
						"slot": "3",
						"type": "t_mapping(t_address,t_bool)"
					},
					{
						"astId": 28,
						"contract": "contracts/MultiSign.sol:MultiSign",
						"label": "owners",
						"offset": 0,
						"slot": "4",
						"type": "t_array(t_address)dyn_storage"
					},
					{
						"astId": 31,
						"contract": "contracts/MultiSign.sol:MultiSign",
						"label": "required",
						"offset": 0,
						"slot": "5",
						"type": "t_uint256"
					},
					{
						"astId": 37,
						"contract": "contracts/MultiSign.sol:MultiSign",
						"label": "admin",
						"offset": 0,
						"slot": "6",
						"type": "t_address"
					},
					{
						"astId": 40,
						"contract": "contracts/MultiSign.sol:MultiSign",
						"label": "isAllAgree",
						"offset": 20,
						"slot": "6",
						"type": "t_bool"
					}
				],
				"types": {
					"t_address": {
						"encoding": "inplace",
						"label": "address",
						"numberOfBytes": "20"
					},
					"t_array(t_address)dyn_storage": {
						"base": "t_address",
						"encoding": "dynamic_array",
						"label": "address[]",
						"numberOfBytes": "32"
					},
					"t_bool": {
						"encoding": "inplace",
						"label": "bool",
						"numberOfBytes": "1"
					},
					"t_mapping(t_address,t_bool)": {
						"encoding": "mapping",
						"key": "t_address",
						"label": "mapping(address => bool)",
						"numberOfBytes": "32",
						"value": "t_bool"
					},
					"t_mapping(t_uint256,t_mapping(t_address,t_bool))": {
						"encoding": "mapping",
						"key": "t_uint256",
						"label": "mapping(uint256 => mapping(address => bool))",
						"numberOfBytes": "32",
						"value": "t_mapping(t_address,t_bool)"
					},
					"t_mapping(t_uint256,t_struct(Transaction)8_storage)": {
						"encoding": "mapping",
						"key": "t_uint256",
						"label": "mapping(uint256 => struct MultiSign.Transaction)",
						"numberOfBytes": "32",
						"value": "t_struct(Transaction)8_storage"
					},
					"t_struct(Transaction)8_storage": {
						"encoding": "inplace",
						"label": "struct MultiSign.Transaction",
						"members": [
							{
								"astId": 3,
								"contract": "contracts/MultiSign.sol:MultiSign",
								"label": "destination",
								"offset": 0,
								"slot": "0",
								"type": "t_address"
							},
							{
								"astId": 5,
								"contract": "contracts/MultiSign.sol:MultiSign",
								"label": "value",
								"offset": 0,
								"slot": "1",
								"type": "t_uint256"
							},
							{
								"astId": 7,
								"contract": "contracts/MultiSign.sol:MultiSign",
								"label": "executed",
								"offset": 0,
								"slot": "2",
								"type": "t_bool"
							}
						],
						"numberOfBytes": "96"
					},
					"t_uint256": {
						"encoding": "inplace",
						"label": "uint256",
						"numberOfBytes": "32"
					}
				}
			},
			"userdoc": {
				"kind": "user",
				"methods": {},
				"version": 1
			}
		}
	}
}