{
  "contractName": "HelloBlockchain",
  "abi": [
    {
      "inputs": [
        {
          "internalType": "string",
          "name": "message",
          "type": "string"
        }
      ],
      "stateMutability": "nonpayable",
      "type": "constructor"
    },
    {
      "inputs": [],
      "name": "RequestMessage",
      "outputs": [
        {
          "internalType": "string",
          "name": "",
          "type": "string"
        }
      ],
      "stateMutability": "view",
      "type": "function",
      "constant": true
    },
    {
      "inputs": [],
      "name": "Requestor",
      "outputs": [
        {
          "internalType": "address",
          "name": "",
          "type": "address"
        }
      ],
      "stateMutability": "view",
      "type": "function",
      "constant": true
    },
    {
      "inputs": [],
      "name": "Responder",
      "outputs": [
        {
          "internalType": "address",
          "name": "",
          "type": "address"
        }
      ],
      "stateMutability": "view",
      "type": "function",
      "constant": true
    },
    {
      "inputs": [],
      "name": "ResponseMessage",
      "outputs": [
        {
          "internalType": "string",
          "name": "",
          "type": "string"
        }
      ],
      "stateMutability": "view",
      "type": "function",
      "constant": true
    },
    {
      "inputs": [],
      "name": "State",
      "outputs": [
        {
          "internalType": "enum HelloBlockchain.StateType",
          "name": "",
          "type": "uint8"
        }
      ],
      "stateMutability": "view",
      "type": "function",
      "constant": true
    },
    {
      "inputs": [
        {
          "internalType": "string",
          "name": "requestMessage",
          "type": "string"
        }
      ],
      "name": "SendRequest",
      "outputs": [],
      "stateMutability": "nonpayable",
      "type": "function"
    },
    {
      "inputs": [
        {
          "internalType": "string",
          "name": "responseMessage",
          "type": "string"
        }
      ],
      "name": "SendResponse",
      "outputs": [],
      "stateMutability": "nonpayable",
      "type": "function"
    }
  ],
  "bytecode": "0x60806040523480156200001157600080fd5b5060405162000c6638038062000c66833981810160405281019062000037919062000312565b33600060016101000a81548173ffffffffffffffffffffffffffffffffffffffff021916908373ffffffffffffffffffffffffffffffffffffffff160217905550806002908051906020019062000090929190620000c5565b5060008060006101000a81548160ff02191690836001811115620000b957620000b862000363565b5b021790555050620003f6565b828054620000d390620003c1565b90600052602060002090601f016020900481019282620000f7576000855562000143565b82601f106200011257805160ff191683800117855562000143565b8280016001018555821562000143579182015b828111156200014257825182559160200191906001019062000125565b5b50905062000152919062000156565b5090565b5b808211156200017157600081600090555060010162000157565b5090565b6000604051905090565b600080fd5b600080fd5b600080fd5b600080fd5b6000601f19601f8301169050919050565b7f4e487b7100000000000000000000000000000000000000000000000000000000600052604160045260246000fd5b620001de8262000193565b810181811067ffffffffffffffff821117156200020057620001ff620001a4565b5b80604052505050565b60006200021562000175565b9050620002238282620001d3565b919050565b600067ffffffffffffffff821115620002465762000245620001a4565b5b620002518262000193565b9050602081019050919050565b60005b838110156200027e57808201518184015260208101905062000261565b838111156200028e576000848401525b50505050565b6000620002ab620002a58462000228565b62000209565b905082815260208101848484011115620002ca57620002c96200018e565b5b620002d78482856200025e565b509392505050565b600082601f830112620002f757620002f662000189565b5b81516200030984826020860162000294565b91505092915050565b6000602082840312156200032b576200032a6200017f565b5b600082015167ffffffffffffffff8111156200034c576200034b62000184565b5b6200035a84828501620002df565b91505092915050565b7f4e487b7100000000000000000000000000000000000000000000000000000000600052602160045260246000fd5b7f4e487b7100000000000000000000000000000000000000000000000000000000600052602260045260246000fd5b60006002820490506001821680620003da57607f821691505b602082108103620003f057620003ef62000392565b5b50919050565b61086080620004066000396000f3fe608060405234801561001057600080fd5b506004361061007d5760003560e01c8063d181ada11161005b578063d181ada1146100d8578063e750e2da146100f6578063f1b6dccd14610114578063fd05116c146101325761007d565b80635ab28ecb14610082578063829c2d6d146100a0578063a7a1ba15146100bc575b600080fd5b61008a610150565b6040516100979190610528565b60405180910390f35b6100ba60048036038101906100b59190610693565b6101de565b005b6100d660048036038101906100d19190610693565b610263565b005b6100e0610301565b6040516100ed919061071d565b60405180910390f35b6100fe610327565b60405161010b9190610528565b60405180910390f35b61011c6103b5565b60405161012991906107af565b60405180910390f35b61013a6103c6565b604051610147919061071d565b60405180910390f35b6003805461015d906107f9565b80601f0160208091040260200160405190810160405280929190818152602001828054610189906107f9565b80156101d65780601f106101ab576101008083540402835291602001916101d6565b820191906000526020600020905b8154815290600101906020018083116101b957829003601f168201915b505050505081565b33600160006101000a81548173ffffffffffffffffffffffffffffffffffffffff021916908373ffffffffffffffffffffffffffffffffffffffff16021790555080600390805190602001906102359291906103ec565b5060016000806101000a81548160ff0219169083600181111561025b5761025a610738565b5b021790555050565b3373ffffffffffffffffffffffffffffffffffffffff16600060019054906101000a900473ffffffffffffffffffffffffffffffffffffffff1673ffffffffffffffffffffffffffffffffffffffff16146102bd57600080fd5b80600290805190602001906102d39291906103ec565b5060008060006101000a81548160ff021916908360018111156102f9576102f8610738565b5b021790555050565b600160009054906101000a900473ffffffffffffffffffffffffffffffffffffffff1681565b60028054610334906107f9565b80601f0160208091040260200160405190810160405280929190818152602001828054610360906107f9565b80156103ad5780601f10610382576101008083540402835291602001916103ad565b820191906000526020600020905b81548152906001019060200180831161039057829003601f168201915b505050505081565b60008054906101000a900460ff1681565b600060019054906101000a900473ffffffffffffffffffffffffffffffffffffffff1681565b8280546103f8906107f9565b90600052602060002090601f01602090048101928261041a5760008555610461565b82601f1061043357805160ff1916838001178555610461565b82800160010185558215610461579182015b82811115610460578251825591602001919060010190610445565b5b50905061046e9190610472565b5090565b5b8082111561048b576000816000905550600101610473565b5090565b600081519050919050565b600082825260208201905092915050565b60005b838110156104c95780820151818401526020810190506104ae565b838111156104d8576000848401525b50505050565b6000601f19601f8301169050919050565b60006104fa8261048f565b610504818561049a565b93506105148185602086016104ab565b61051d816104de565b840191505092915050565b6000602082019050818103600083015261054281846104ef565b905092915050565b6000604051905090565b600080fd5b600080fd5b600080fd5b600080fd5b7f4e487b7100000000000000000000000000000000000000000000000000000000600052604160045260246000fd5b6105a0826104de565b810181811067ffffffffffffffff821117156105bf576105be610568565b5b80604052505050565b60006105d261054a565b90506105de8282610597565b919050565b600067ffffffffffffffff8211156105fe576105fd610568565b5b610607826104de565b9050602081019050919050565b82818337600083830152505050565b6000610636610631846105e3565b6105c8565b90508281526020810184848401111561065257610651610563565b5b61065d848285610614565b509392505050565b600082601f83011261067a5761067961055e565b5b813561068a848260208601610623565b91505092915050565b6000602082840312156106a9576106a8610554565b5b600082013567ffffffffffffffff8111156106c7576106c6610559565b5b6106d384828501610665565b91505092915050565b600073ffffffffffffffffffffffffffffffffffffffff82169050919050565b6000610707826106dc565b9050919050565b610717816106fc565b82525050565b6000602082019050610732600083018461070e565b92915050565b7f4e487b7100000000000000000000000000000000000000000000000000000000600052602160045260246000fd5b6002811061077857610777610738565b5b50565b600081905061078982610767565b919050565b60006107998261077b565b9050919050565b6107a98161078e565b82525050565b60006020820190506107c460008301846107a0565b92915050565b7f4e487b7100000000000000000000000000000000000000000000000000000000600052602260045260246000fd5b6000600282049050600182168061081157607f821691505b602082108103610824576108236107ca565b5b5091905056fea264697066735822122030b48e26ca799d51cc9b09a626a6f2c3bb97cfd1df423a4a4ee94012cd04baf964736f6c634300080d0033",
  "immutableReferences": {},
  "source": "pragma solidity >=0.4.25 <0.9.0;\n\ncontract HelloBlockchain {\n    enum StateType { Request, Respond }\n\n    StateType public  State;\n    address public  Requestor;\n    address public  Responder;\n\n    string public RequestMessage;\n    string public ResponseMessage;\n\n    constructor(string memory message) {\n        Requestor = msg.sender;\n        RequestMessage = message;\n        State = StateType.Request;\n    }\n\n    // call this function to send a request\n    function SendRequest(string memory requestMessage) public {\n\n        if (Requestor != msg.sender) {\n            revert();\n        }\n\n        RequestMessage = requestMessage;\n        State = StateType.Request;\n    }\n\n    // call this function to send a response\n    function SendResponse(string memory responseMessage) public {\n\n        Responder = msg.sender;\n        ResponseMessage = responseMessage;\n        State = StateType.Respond;\n    }\n}\n",
  "sourcePath": "/Users/moyun/Desktop/sols1/truffle_lottery/contracts/HelloBlockchain.sol",
  "compiler": {
    "name": "solc",
    "version": "0.8.13+commit.abaa5c0e.Emscripten.clang"
  },
  "schemaVersion": "3.4.10",
  "updatedAt": "2022-10-03T11:38:19.212Z",
  "networkType": "ethereum",
  "devdoc": {
    "kind": "dev",
    "methods": {},
    "version": 1
  },
  "userdoc": {
    "kind": "user",
    "methods": {},
    "version": 1
  }
}