{
  "contractName": "Lottery",
  "abi": [
    {
      "inputs": [],
      "stateMutability": "nonpayable",
      "type": "constructor"
    },
    {
      "anonymous": false,
      "inputs": [
        {
          "indexed": true,
          "internalType": "address",
          "name": "owner",
          "type": "address"
        },
        {
          "indexed": true,
          "internalType": "address",
          "name": "spender",
          "type": "address"
        },
        {
          "indexed": false,
          "internalType": "uint256",
          "name": "value",
          "type": "uint256"
        }
      ],
      "name": "Approval",
      "type": "event"
    },
    {
      "anonymous": false,
      "inputs": [
        {
          "indexed": true,
          "internalType": "address",
          "name": "from",
          "type": "address"
        },
        {
          "indexed": true,
          "internalType": "address",
          "name": "to",
          "type": "address"
        },
        {
          "indexed": false,
          "internalType": "uint256",
          "name": "value",
          "type": "uint256"
        }
      ],
      "name": "Transfer",
      "type": "event"
    },
    {
      "inputs": [],
      "name": "admin",
      "outputs": [
        {
          "internalType": "address",
          "name": "",
          "type": "address"
        }
      ],
      "stateMutability": "view",
      "type": "function",
      "constant": true
    },
    {
      "inputs": [
        {
          "internalType": "address",
          "name": "owner",
          "type": "address"
        },
        {
          "internalType": "address",
          "name": "spender",
          "type": "address"
        }
      ],
      "name": "allowance",
      "outputs": [
        {
          "internalType": "uint256",
          "name": "",
          "type": "uint256"
        }
      ],
      "stateMutability": "view",
      "type": "function",
      "constant": true
    },
    {
      "inputs": [
        {
          "internalType": "address",
          "name": "spender",
          "type": "address"
        },
        {
          "internalType": "uint256",
          "name": "amount",
          "type": "uint256"
        }
      ],
      "name": "approve",
      "outputs": [
        {
          "internalType": "bool",
          "name": "",
          "type": "bool"
        }
      ],
      "stateMutability": "nonpayable",
      "type": "function"
    },
    {
      "inputs": [
        {
          "internalType": "address",
          "name": "account",
          "type": "address"
        }
      ],
      "name": "balanceOf",
      "outputs": [
        {
          "internalType": "uint256",
          "name": "",
          "type": "uint256"
        }
      ],
      "stateMutability": "view",
      "type": "function",
      "constant": true
    },
    {
      "inputs": [],
      "name": "decimals",
      "outputs": [
        {
          "internalType": "uint8",
          "name": "",
          "type": "uint8"
        }
      ],
      "stateMutability": "view",
      "type": "function",
      "constant": true
    },
    {
      "inputs": [
        {
          "internalType": "address",
          "name": "spender",
          "type": "address"
        },
        {
          "internalType": "uint256",
          "name": "subtractedValue",
          "type": "uint256"
        }
      ],
      "name": "decreaseAllowance",
      "outputs": [
        {
          "internalType": "bool",
          "name": "",
          "type": "bool"
        }
      ],
      "stateMutability": "nonpayable",
      "type": "function"
    },
    {
      "inputs": [
        {
          "internalType": "address",
          "name": "spender",
          "type": "address"
        },
        {
          "internalType": "uint256",
          "name": "addedValue",
          "type": "uint256"
        }
      ],
      "name": "increaseAllowance",
      "outputs": [
        {
          "internalType": "bool",
          "name": "",
          "type": "bool"
        }
      ],
      "stateMutability": "nonpayable",
      "type": "function"
    },
    {
      "inputs": [],
      "name": "name",
      "outputs": [
        {
          "internalType": "string",
          "name": "",
          "type": "string"
        }
      ],
      "stateMutability": "view",
      "type": "function",
      "constant": true
    },
    {
      "inputs": [
        {
          "internalType": "uint256",
          "name": "",
          "type": "uint256"
        }
      ],
      "name": "players",
      "outputs": [
        {
          "internalType": "address payable",
          "name": "",
          "type": "address"
        }
      ],
      "stateMutability": "view",
      "type": "function",
      "constant": true
    },
    {
      "inputs": [],
      "name": "symbol",
      "outputs": [
        {
          "internalType": "string",
          "name": "",
          "type": "string"
        }
      ],
      "stateMutability": "view",
      "type": "function",
      "constant": true
    },
    {
      "inputs": [],
      "name": "totalSupply",
      "outputs": [
        {
          "internalType": "uint256",
          "name": "",
          "type": "uint256"
        }
      ],
      "stateMutability": "view",
      "type": "function",
      "constant": true
    },
    {
      "inputs": [
        {
          "internalType": "address",
          "name": "to",
          "type": "address"
        },
        {
          "internalType": "uint256",
          "name": "amount",
          "type": "uint256"
        }
      ],
      "name": "transfer",
      "outputs": [
        {
          "internalType": "bool",
          "name": "",
          "type": "bool"
        }
      ],
      "stateMutability": "nonpayable",
      "type": "function"
    },
    {
      "inputs": [
        {
          "internalType": "address",
          "name": "from",
          "type": "address"
        },
        {
          "internalType": "address",
          "name": "to",
          "type": "address"
        },
        {
          "internalType": "uint256",
          "name": "amount",
          "type": "uint256"
        }
      ],
      "name": "transferFrom",
      "outputs": [
        {
          "internalType": "bool",
          "name": "",
          "type": "bool"
        }
      ],
      "stateMutability": "nonpayable",
      "type": "function"
    },
    {
      "stateMutability": "payable",
      "type": "receive",
      "payable": true
    },
    {
      "inputs": [],
      "name": "enter",
      "outputs": [],
      "stateMutability": "payable",
      "type": "function",
      "payable": true
    },
    {
      "inputs": [],
      "name": "getBalance",
      "outputs": [
        {
          "internalType": "uint256",
          "name": "",
          "type": "uint256"
        }
      ],
      "stateMutability": "view",
      "type": "function",
      "constant": true
    },
    {
      "inputs": [],
      "name": "pickWinner",
      "outputs": [],
      "stateMutability": "nonpayable",
      "type": "function"
    }
  ],
  "bytecode": "0x60806040523480156200001157600080fd5b506040518060400160405280601081526020017f4d53484b20455243323020546f6b656e000000000000000000000000000000008152506040518060400160405280600481526020017f4d53484b000000000000000000000000000000000000000000000000000000008152508160039080519060200190620000969291906200031b565b508060049080519060200190620000af9291906200031b565b50505033600660006101000a81548173ffffffffffffffffffffffffffffffffffffffff021916908373ffffffffffffffffffffffffffffffffffffffff1602179055506005600660009054906101000a900473ffffffffffffffffffffffffffffffffffffffff169080600181540180825580915050600190039060005260206000200160009091909190916101000a81548173ffffffffffffffffffffffffffffffffffffffff021916908373ffffffffffffffffffffffffffffffffffffffff1602179055506200019333683635c9adc5dea000006200019960201b60201c565b62000576565b600073ffffffffffffffffffffffffffffffffffffffff168273ffffffffffffffffffffffffffffffffffffffff16036200020b576040517f08c379a000000000000000000000000000000000000000000000000000000000815260040162000202906200042c565b60405180910390fd5b6200021f600083836200031160201b60201c565b806002600082825462000233919062000487565b92505081905550806000808473ffffffffffffffffffffffffffffffffffffffff1673ffffffffffffffffffffffffffffffffffffffff16815260200190815260200160002060008282546200028a919062000487565b925050819055508173ffffffffffffffffffffffffffffffffffffffff16600073ffffffffffffffffffffffffffffffffffffffff167fddf252ad1be2c89b69c2b068fc378daa952ba7f163c4a11628f55a4df523b3ef83604051620002f19190620004f5565b60405180910390a36200030d600083836200031660201b60201c565b5050565b505050565b505050565b828054620003299062000541565b90600052602060002090601f0160209004810192826200034d576000855562000399565b82601f106200036857805160ff191683800117855562000399565b8280016001018555821562000399579182015b82811115620003985782518255916020019190600101906200037b565b5b509050620003a89190620003ac565b5090565b5b80821115620003c7576000816000905550600101620003ad565b5090565b600082825260208201905092915050565b7f45524332303a206d696e7420746f20746865207a65726f206164647265737300600082015250565b600062000414601f83620003cb565b91506200042182620003dc565b602082019050919050565b60006020820190508181036000830152620004478162000405565b9050919050565b6000819050919050565b7f4e487b7100000000000000000000000000000000000000000000000000000000600052601160045260246000fd5b600062000494826200044e565b9150620004a1836200044e565b9250827fffffffffffffffffffffffffffffffffffffffffffffffffffffffffffffffff03821115620004d957620004d862000458565b5b828201905092915050565b620004ef816200044e565b82525050565b60006020820190506200050c6000830184620004e4565b92915050565b7f4e487b7100000000000000000000000000000000000000000000000000000000600052602260045260246000fd5b600060028204905060018216806200055a57607f821691505b60208210810362000570576200056f62000512565b5b50919050565b611d8880620005866000396000f3fe6080604052600436106100f75760003560e01c806370a082311161008a578063dd62ed3e11610059578063dd62ed3e14610465578063e97dcb62146104a2578063f71d96cb146104ac578063f851a440146104e957610204565b806370a082311461038357806395d89b41146103c0578063a457c2d7146103eb578063a9059cbb1461042857610204565b806323b872dd116100c657806323b872dd146102c7578063313ce56714610304578063395093511461032f5780635d495aea1461036c57610204565b806306fdde0314610209578063095ea7b31461023457806312065fe01461027157806318160ddd1461029c57610204565b366102045767016345785d8a00003414610146576040517f08c379a000000000000000000000000000000000000000000000000000000000815260040161013d90611263565b60405180910390fd5b600660009054906101000a900473ffffffffffffffffffffffffffffffffffffffff1673ffffffffffffffffffffffffffffffffffffffff163373ffffffffffffffffffffffffffffffffffffffff16036101a057600080fd5b6005339080600181540180825580915050600190039060005260206000200160009091909190916101000a81548173ffffffffffffffffffffffffffffffffffffffff021916908373ffffffffffffffffffffffffffffffffffffffff1602179055005b600080fd5b34801561021557600080fd5b5061021e610514565b60405161022b919061130b565b60405180910390f35b34801561024057600080fd5b5061025b600480360381019061025691906113c6565b6105a6565b6040516102689190611421565b60405180910390f35b34801561027d57600080fd5b506102866105c9565b604051610293919061144b565b60405180910390f35b3480156102a857600080fd5b506102b1610661565b6040516102be919061144b565b60405180910390f35b3480156102d357600080fd5b506102ee60048036038101906102e99190611466565b61066b565b6040516102fb9190611421565b60405180910390f35b34801561031057600080fd5b5061031961069a565b60405161032691906114d5565b60405180910390f35b34801561033b57600080fd5b50610356600480360381019061035191906113c6565b6106a3565b6040516103639190611421565b60405180910390f35b34801561037857600080fd5b506103816106da565b005b34801561038f57600080fd5b506103aa60048036038101906103a591906114f0565b610905565b6040516103b7919061144b565b60405180910390f35b3480156103cc57600080fd5b506103d561094d565b6040516103e2919061130b565b60405180910390f35b3480156103f757600080fd5b50610412600480360381019061040d91906113c6565b6109df565b60405161041f9190611421565b60405180910390f35b34801561043457600080fd5b5061044f600480360381019061044a91906113c6565b610a56565b60405161045c9190611421565b60405180910390f35b34801561047157600080fd5b5061048c6004803603810190610487919061151d565b610a79565b604051610499919061144b565b60405180910390f35b6104aa610b00565b005b3480156104b857600080fd5b506104d360048036038101906104ce919061155d565b610b78565b6040516104e091906115ab565b60405180910390f35b3480156104f557600080fd5b506104fe610bb7565b60405161050b91906115d5565b60405180910390f35b6060600380546105239061161f565b80601f016020809104026020016040519081016040528092919081815260200182805461054f9061161f565b801561059c5780601f106105715761010080835404028352916020019161059c565b820191906000526020600020905b81548152906001019060200180831161057f57829003601f168201915b5050505050905090565b6000806105b1610bdd565b90506105be818585610be5565b600191505092915050565b60003373ffffffffffffffffffffffffffffffffffffffff16600660009054906101000a900473ffffffffffffffffffffffffffffffffffffffff1673ffffffffffffffffffffffffffffffffffffffff161461065b576040517f08c379a00000000000000000000000000000000000000000000000000000000081526004016106529061169c565b60405180910390fd5b47905090565b6000600254905090565b600080610676610bdd565b9050610683858285610dae565b61068e858585610e3a565b60019150509392505050565b60006012905090565b6000806106ae610bdd565b90506106cf8185856106c08589610a79565b6106ca91906116eb565b610be5565b600191505092915050565b3373ffffffffffffffffffffffffffffffffffffffff16600660009054906101000a900473ffffffffffffffffffffffffffffffffffffffff1673ffffffffffffffffffffffffffffffffffffffff161461076a576040517f08c379a00000000000000000000000000000000000000000000000000000000081526004016107619061169c565b60405180910390fd5b600360058054905010156107b3576040517f08c379a00000000000000000000000000000000000000000000000000000000081526004016107aa906117b3565b60405180910390fd5b6000600580805490506107c46110b9565b6107ce9190611802565b815481106107df576107de611833565b5b9060005260206000200160009054906101000a900473ffffffffffffffffffffffffffffffffffffffff1690508073ffffffffffffffffffffffffffffffffffffffff166108fc6064605a6108326105c9565b61083c9190611862565b61084691906118bc565b9081150290604051600060405180830381858888f19350505050158015610871573d6000803e3d6000fd5b50600660009054906101000a900473ffffffffffffffffffffffffffffffffffffffff1673ffffffffffffffffffffffffffffffffffffffff166108fc6064600a6108ba6105c9565b6108c49190611862565b6108ce91906118bc565b9081150290604051600060405180830381858888f193505050501580156108f9573d6000803e3d6000fd5b506109026110f3565b50565b60008060008373ffffffffffffffffffffffffffffffffffffffff1673ffffffffffffffffffffffffffffffffffffffff168152602001908152602001600020549050919050565b60606004805461095c9061161f565b80601f01602080910402602001604051908101604052809291908181526020018280546109889061161f565b80156109d55780601f106109aa576101008083540402835291602001916109d5565b820191906000526020600020905b8154815290600101906020018083116109b857829003601f168201915b5050505050905090565b6000806109ea610bdd565b905060006109f88286610a79565b905083811015610a3d576040517f08c379a0000000000000000000000000000000000000000000000000000000008152600401610a349061195f565b60405180910390fd5b610a4a8286868403610be5565b60019250505092915050565b600080610a61610bdd565b9050610a6e818585610e3a565b600191505092915050565b6000600160008473ffffffffffffffffffffffffffffffffffffffff1673ffffffffffffffffffffffffffffffffffffffff16815260200190815260200160002060008373ffffffffffffffffffffffffffffffffffffffff1673ffffffffffffffffffffffffffffffffffffffff16815260200190815260200160002054905092915050565b662386f26fc100003411610b1357600080fd5b6005339080600181540180825580915050600190039060005260206000200160009091909190916101000a81548173ffffffffffffffffffffffffffffffffffffffff021916908373ffffffffffffffffffffffffffffffffffffffff160217905550565b60058181548110610b8857600080fd5b906000526020600020016000915054906101000a900473ffffffffffffffffffffffffffffffffffffffff1681565b600660009054906101000a900473ffffffffffffffffffffffffffffffffffffffff1681565b600033905090565b600073ffffffffffffffffffffffffffffffffffffffff168373ffffffffffffffffffffffffffffffffffffffff1603610c54576040517f08c379a0000000000000000000000000000000000000000000000000000000008152600401610c4b906119f1565b60405180910390fd5b600073ffffffffffffffffffffffffffffffffffffffff168273ffffffffffffffffffffffffffffffffffffffff1603610cc3576040517f08c379a0000000000000000000000000000000000000000000000000000000008152600401610cba90611a83565b60405180910390fd5b80600160008573ffffffffffffffffffffffffffffffffffffffff1673ffffffffffffffffffffffffffffffffffffffff16815260200190815260200160002060008473ffffffffffffffffffffffffffffffffffffffff1673ffffffffffffffffffffffffffffffffffffffff168152602001908152602001600020819055508173ffffffffffffffffffffffffffffffffffffffff168373ffffffffffffffffffffffffffffffffffffffff167f8c5be1e5ebec7d5bd14f71427d1e84f3dd0314c0f7b2291e5b200ac8c7c3b92583604051610da1919061144b565b60405180910390a3505050565b6000610dba8484610a79565b90507fffffffffffffffffffffffffffffffffffffffffffffffffffffffffffffffff8114610e345781811015610e26576040517f08c379a0000000000000000000000000000000000000000000000000000000008152600401610e1d90611aef565b60405180910390fd5b610e338484848403610be5565b5b50505050565b600073ffffffffffffffffffffffffffffffffffffffff168373ffffffffffffffffffffffffffffffffffffffff1603610ea9576040517f08c379a0000000000000000000000000000000000000000000000000000000008152600401610ea090611b81565b60405180910390fd5b600073ffffffffffffffffffffffffffffffffffffffff168273ffffffffffffffffffffffffffffffffffffffff1603610f18576040517f08c379a0000000000000000000000000000000000000000000000000000000008152600401610f0f90611c13565b60405180910390fd5b610f23838383611155565b60008060008573ffffffffffffffffffffffffffffffffffffffff1673ffffffffffffffffffffffffffffffffffffffff16815260200190815260200160002054905081811015610fa9576040517f08c379a0000000000000000000000000000000000000000000000000000000008152600401610fa090611ca5565b60405180910390fd5b8181036000808673ffffffffffffffffffffffffffffffffffffffff1673ffffffffffffffffffffffffffffffffffffffff16815260200190815260200160002081905550816000808573ffffffffffffffffffffffffffffffffffffffff1673ffffffffffffffffffffffffffffffffffffffff168152602001908152602001600020600082825461103c91906116eb565b925050819055508273ffffffffffffffffffffffffffffffffffffffff168473ffffffffffffffffffffffffffffffffffffffff167fddf252ad1be2c89b69c2b068fc378daa952ba7f163c4a11628f55a4df523b3ef846040516110a0919061144b565b60405180910390a36110b384848461115a565b50505050565b600044426005805490506040516020016110d593929190611ce6565b6040516020818303038152906040528051906020012060001c905090565b600067ffffffffffffffff81111561110e5761110d611d23565b5b60405190808252806020026020018201604052801561113c5781602001602082028036833780820191505090505b506005908051906020019061115292919061115f565b50565b505050565b505050565b8280548282559060005260206000209081019282156111d8579160200282015b828111156111d75782518260006101000a81548173ffffffffffffffffffffffffffffffffffffffff021916908373ffffffffffffffffffffffffffffffffffffffff1602179055509160200191906001019061117f565b5b5090506111e591906111e9565b5090565b5b808211156112025760008160009055506001016111ea565b5090565b600082825260208201905092915050565b7f4d7573742073656e6420302e3120657468657220616d6f756e74000000000000600082015250565b600061124d601a83611206565b915061125882611217565b602082019050919050565b6000602082019050818103600083015261127c81611240565b9050919050565b600081519050919050565b60005b838110156112ac578082015181840152602081019050611291565b838111156112bb576000848401525b50505050565b6000601f19601f8301169050919050565b60006112dd82611283565b6112e78185611206565b93506112f781856020860161128e565b611300816112c1565b840191505092915050565b6000602082019050818103600083015261132581846112d2565b905092915050565b600080fd5b600073ffffffffffffffffffffffffffffffffffffffff82169050919050565b600061135d82611332565b9050919050565b61136d81611352565b811461137857600080fd5b50565b60008135905061138a81611364565b92915050565b6000819050919050565b6113a381611390565b81146113ae57600080fd5b50565b6000813590506113c08161139a565b92915050565b600080604083850312156113dd576113dc61132d565b5b60006113eb8582860161137b565b92505060206113fc858286016113b1565b9150509250929050565b60008115159050919050565b61141b81611406565b82525050565b60006020820190506114366000830184611412565b92915050565b61144581611390565b82525050565b6000602082019050611460600083018461143c565b92915050565b60008060006060848603121561147f5761147e61132d565b5b600061148d8682870161137b565b935050602061149e8682870161137b565b92505060406114af868287016113b1565b9150509250925092565b600060ff82169050919050565b6114cf816114b9565b82525050565b60006020820190506114ea60008301846114c6565b92915050565b6000602082840312156115065761150561132d565b5b60006115148482850161137b565b91505092915050565b600080604083850312156115345761153361132d565b5b60006115428582860161137b565b92505060206115538582860161137b565b9150509250929050565b6000602082840312156115735761157261132d565b5b6000611581848285016113b1565b91505092915050565b600061159582611332565b9050919050565b6115a58161158a565b82525050565b60006020820190506115c0600083018461159c565b92915050565b6115cf81611352565b82525050565b60006020820190506115ea60008301846115c6565b92915050565b7f4e487b7100000000000000000000000000000000000000000000000000000000600052602260045260246000fd5b6000600282049050600182168061163757607f821691505b60208210810361164a576116496115f0565b5b50919050565b7f596f7520617265206e6f7420746865206f776e65720000000000000000000000600082015250565b6000611686601583611206565b915061169182611650565b602082019050919050565b600060208201905081810360008301526116b581611679565b9050919050565b7f4e487b7100000000000000000000000000000000000000000000000000000000600052601160045260246000fd5b60006116f682611390565b915061170183611390565b9250827fffffffffffffffffffffffffffffffffffffffffffffffffffffffffffffffff03821115611736576117356116bc565b5b828201905092915050565b7f4e6f7420656e6f75676820706c617965727320696e20746865206c6f7474657260008201527f7900000000000000000000000000000000000000000000000000000000000000602082015250565b600061179d602183611206565b91506117a882611741565b604082019050919050565b600060208201905081810360008301526117cc81611790565b9050919050565b7f4e487b7100000000000000000000000000000000000000000000000000000000600052601260045260246000fd5b600061180d82611390565b915061181883611390565b925082611828576118276117d3565b5b828206905092915050565b7f4e487b7100000000000000000000000000000000000000000000000000000000600052603260045260246000fd5b600061186d82611390565b915061187883611390565b9250817fffffffffffffffffffffffffffffffffffffffffffffffffffffffffffffffff04831182151516156118b1576118b06116bc565b5b828202905092915050565b60006118c782611390565b91506118d283611390565b9250826118e2576118e16117d3565b5b828204905092915050565b7f45524332303a2064656372656173656420616c6c6f77616e63652062656c6f7760008201527f207a65726f000000000000000000000000000000000000000000000000000000602082015250565b6000611949602583611206565b9150611954826118ed565b604082019050919050565b600060208201905081810360008301526119788161193c565b9050919050565b7f45524332303a20617070726f76652066726f6d20746865207a65726f2061646460008201527f7265737300000000000000000000000000000000000000000000000000000000602082015250565b60006119db602483611206565b91506119e68261197f565b604082019050919050565b60006020820190508181036000830152611a0a816119ce565b9050919050565b7f45524332303a20617070726f766520746f20746865207a65726f20616464726560008201527f7373000000000000000000000000000000000000000000000000000000000000602082015250565b6000611a6d602283611206565b9150611a7882611a11565b604082019050919050565b60006020820190508181036000830152611a9c81611a60565b9050919050565b7f45524332303a20696e73756666696369656e7420616c6c6f77616e6365000000600082015250565b6000611ad9601d83611206565b9150611ae482611aa3565b602082019050919050565b60006020820190508181036000830152611b0881611acc565b9050919050565b7f45524332303a207472616e736665722066726f6d20746865207a65726f20616460008201527f6472657373000000000000000000000000000000000000000000000000000000602082015250565b6000611b6b602583611206565b9150611b7682611b0f565b604082019050919050565b60006020820190508181036000830152611b9a81611b5e565b9050919050565b7f45524332303a207472616e7366657220746f20746865207a65726f206164647260008201527f6573730000000000000000000000000000000000000000000000000000000000602082015250565b6000611bfd602383611206565b9150611c0882611ba1565b604082019050919050565b60006020820190508181036000830152611c2c81611bf0565b9050919050565b7f45524332303a207472616e7366657220616d6f756e742065786365656473206260008201527f616c616e63650000000000000000000000000000000000000000000000000000602082015250565b6000611c8f602683611206565b9150611c9a82611c33565b604082019050919050565b60006020820190508181036000830152611cbe81611c82565b9050919050565b6000819050919050565b611ce0611cdb82611390565b611cc5565b82525050565b6000611cf28286611ccf565b602082019150611d028285611ccf565b602082019150611d128284611ccf565b602082019150819050949350505050565b7f4e487b7100000000000000000000000000000000000000000000000000000000600052604160045260246000fdfea2646970667358221220d2598392ac6c70241e5c3b6545f9d4a85253db082f9bad6c224fe96199875c1664736f6c634300080d0033",
  "immutableReferences": {},
  "source": "//SPDX-License-Identifier: GPL-3.0\n\npragma solidity >=0.4.25 <0.9.0;\nimport \"@openzeppelin/contracts/token/ERC20/ERC20.sol\";\n/** \n * @title Lottery\n * @dev Ether lotery that transfer contract amount to winner\n*/  \ncontract Lottery is ERC20  {\n    \n    // \n    address payable[] public players;\n    // \n    address public admin;\n\n    /**\n     * @dev \n     */ \n    constructor() ERC20(\"MSHK ERC20 Token\", \"MSHK\") {\n        // \n        admin = msg.sender;\n        //\n        players.push(payable(admin));\n        //  1000 18\n        _mint(msg.sender, 1000 * 10 ** 18); //  1000\n    }\n\n    function mint(uint amount) internal {\n        emit Transfer(address(0), msg.sender, amount);\n    }\n\n    function burn(uint amount) internal {\n        emit Transfer(msg.sender, address(0), amount);\n    }\n\n    modifier onlyOwner() {\n        require(admin == msg.sender, \"You are not the owner\");\n        _;\n    }\n    \n          //to call the enter function we add them to players\n    function enter() public payable{\n        //each player is compelled to add a certain ETH to join\n        require(msg.value > .01 ether);\n        players.push(payable(msg.sender));\n    }\n\n    /**\n     * @dev requires the deposit of 0.1 ether and if met pushes on address on list\n     */ \n    receive() external payable {\n        // 0.1 eth\n        require(msg.value == 0.1 ether , \"Must send 0.1 ether amount\");\n        \n        // \n        require(msg.sender != admin);\n        \n        // \n        players.push(payable(msg.sender));\n    }\n    \n    /**\n     * @dev \n     * @return contract balance\n    */ \n    function getBalance() public view onlyOwner returns(uint){\n        // returns the contract balance \n        return address(this).balance;\n    }\n    \n    /**\n     * @dev int * *  - >\n     * @return random uint\n     */ \n    function random() internal view returns(uint){\n       return uint(keccak256(abi.encodePacked(block.difficulty, block.timestamp, players.length)));\n    }\n    \n    /** \n     * @dev \n     */ \n    function pickWinner() public onlyOwner {\n\n        // 2  \n        require(players.length >= 3 , \"Not enough players in the lottery\");\n        address payable winner;\n        // \n        winner = players[random() % players.length];\n        // \n        // 10%\n        winner.transfer((getBalance() * 90) / 100); //gets only 90% of funds in contract\n        // \n        payable(admin).transfer( (getBalance() * 10) / 100); //gets remaining amount AKA 10% -> must make admin a payable account\n        // \n       resetLottery(); \n        \n    }\n\n    /**\n     * @dev \n     */ \n    function resetLottery() internal {\n        // \n        players = new address payable[](0);\n    }\n\n}",
  "sourcePath": "/Users/moyun/Desktop/sols1/truffle_lottery/contracts/Lottery.sol",
  "compiler": {
    "name": "solc",
    "version": "0.8.13+commit.abaa5c0e.Emscripten.clang"
  },
  "schemaVersion": "3.4.10",
  "updatedAt": "2022-10-03T11:38:19.563Z",
  "networkType": "ethereum",
  "devdoc": {
    "details": "Ether lotery that transfer contract amount to winner",
    "kind": "dev",
    "methods": {
      "allowance(address,address)": {
        "details": "See {IERC20-allowance}."
      },
      "approve(address,uint256)": {
        "details": "See {IERC20-approve}. NOTE: If `amount` is the maximum `uint256`, the allowance is not updated on `transferFrom`. This is semantically equivalent to an infinite approval. Requirements: - `spender` cannot be the zero address."
      },
      "balanceOf(address)": {
        "details": "See {IERC20-balanceOf}."
      },
      "constructor": {
        "details": ""
      },
      "decimals()": {
        "details": "Returns the number of decimals used to get its user representation. For example, if `decimals` equals `2`, a balance of `505` tokens should be displayed to a user as `5.05` (`505 / 10 ** 2`). Tokens usually opt for a value of 18, imitating the relationship between Ether and Wei. This is the value {ERC20} uses, unless this function is overridden; NOTE: This information is only used for _display_ purposes: it in no way affects any of the arithmetic of the contract, including {IERC20-balanceOf} and {IERC20-transfer}."
      },
      "decreaseAllowance(address,uint256)": {
        "details": "Atomically decreases the allowance granted to `spender` by the caller. This is an alternative to {approve} that can be used as a mitigation for problems described in {IERC20-approve}. Emits an {Approval} event indicating the updated allowance. Requirements: - `spender` cannot be the zero address. - `spender` must have allowance for the caller of at least `subtractedValue`."
      },
      "getBalance()": {
        "details": "",
        "returns": {
          "_0": "contract balance"
        }
      },
      "increaseAllowance(address,uint256)": {
        "details": "Atomically increases the allowance granted to `spender` by the caller. This is an alternative to {approve} that can be used as a mitigation for problems described in {IERC20-approve}. Emits an {Approval} event indicating the updated allowance. Requirements: - `spender` cannot be the zero address."
      },
      "name()": {
        "details": "Returns the name of the token."
      },
      "pickWinner()": {
        "details": ""
      },
      "symbol()": {
        "details": "Returns the symbol of the token, usually a shorter version of the name."
      },
      "totalSupply()": {
        "details": "See {IERC20-totalSupply}."
      },
      "transfer(address,uint256)": {
        "details": "See {IERC20-transfer}. Requirements: - `to` cannot be the zero address. - the caller must have a balance of at least `amount`."
      },
      "transferFrom(address,address,uint256)": {
        "details": "See {IERC20-transferFrom}. Emits an {Approval} event indicating the updated allowance. This is not required by the EIP. See the note at the beginning of {ERC20}. NOTE: Does not update the allowance if the current allowance is the maximum `uint256`. Requirements: - `from` and `to` cannot be the zero address. - `from` must have a balance of at least `amount`. - the caller must have allowance for ``from``'s tokens of at least `amount`."
      }
    },
    "title": "Lottery",
    "version": 1
  },
  "userdoc": {
    "kind": "user",
    "methods": {},
    "version": 1
  }
}