{
	"data": {
		"bytecode": {
			"linkReferences": {},
			"object": "60a06040523480156200001157600080fd5b50604051620059aa380380620059aa83398181016040528101906200003791906200039d565b806040518060600160405280603c81526020016200596e603c913962000063816200011960201b60201c565b508073ffffffffffffffffffffffffffffffffffffffff1660808173ffffffffffffffffffffffffffffffffffffffff168152505050620000ae6000801b336200012e60201b60201c565b620000e07f9143236d81225394f3bd65b44e6e29fdf4d7ba0773d9bb3f5cc15eb80ba37777336200012e60201b60201c565b620001127f9f2df0fed2c77648de5860a4cc508cd0818c85b8b8a1ab4ceeef8d981c8956a6336200012e60201b60201c565b5062000730565b80600290816200012a919062000649565b5050565b6200014082826200022060201b60201c565b6200021c5760016003600084815260200190815260200160002060000160008373ffffffffffffffffffffffffffffffffffffffff1673ffffffffffffffffffffffffffffffffffffffff16815260200190815260200160002060006101000a81548160ff021916908315150217905550620001c16200028b60201b60201c565b73ffffffffffffffffffffffffffffffffffffffff168173ffffffffffffffffffffffffffffffffffffffff16837f2f8788117e7eff1d82e926ec794901d17c78024a50270940304540a733656f0d60405160405180910390a45b5050565b60006003600084815260200190815260200160002060000160008373ffffffffffffffffffffffffffffffffffffffff1673ffffffffffffffffffffffffffffffffffffffff16815260200190815260200160002060009054906101000a900460ff16905092915050565b6000620002a2620002a760201b620014341760201c565b905090565b6000620002ba33620002f160201b60201c565b15620002d057601436033560601c9050620002ed565b620002e56200032b60201b620014661760201c565b9050620002ee565b5b90565b600060805173ffffffffffffffffffffffffffffffffffffffff168273ffffffffffffffffffffffffffffffffffffffff16149050919050565b600033905090565b600080fd5b600073ffffffffffffffffffffffffffffffffffffffff82169050919050565b6000620003658262000338565b9050919050565b620003778162000358565b81146200038357600080fd5b50565b60008151905062000397816200036c565b92915050565b600060208284031215620003b657620003b562000333565b5b6000620003c68482850162000386565b91505092915050565b600081519050919050565b7f4e487b7100000000000000000000000000000000000000000000000000000000600052604160045260246000fd5b7f4e487b7100000000000000000000000000000000000000000000000000000000600052602260045260246000fd5b600060028204905060018216806200045157607f821691505b60208210810362000467576200046662000409565b5b50919050565b60008190508160005260206000209050919050565b60006020601f8301049050919050565b600082821b905092915050565b600060088302620004d17fffffffffffffffffffffffffffffffffffffffffffffffffffffffffffffffff8262000492565b620004dd868362000492565b95508019841693508086168417925050509392505050565b6000819050919050565b6000819050919050565b60006200052a620005246200051e84620004f5565b620004ff565b620004f5565b9050919050565b6000819050919050565b620005468362000509565b6200055e620005558262000531565b8484546200049f565b825550505050565b600090565b6200057562000566565b620005828184846200053b565b505050565b5b81811015620005aa576200059e6000826200056b565b60018101905062000588565b5050565b601f821115620005f957620005c3816200046d565b620005ce8462000482565b81016020851015620005de578190505b620005f6620005ed8562000482565b83018262000587565b50505b505050565b600082821c905092915050565b60006200061e60001984600802620005fe565b1980831691505092915050565b60006200063983836200060b565b9150826002028217905092915050565b6200065482620003cf565b67ffffffffffffffff81111562000670576200066f620003da565b5b6200067c825462000438565b62000689828285620005ae565b600060209050601f831160018114620006c15760008415620006ac578287015190505b620006b885826200062b565b86555062000728565b601f198416620006d1866200046d565b60005b82811015620006fb57848901518255600182019150602085019450602081019050620006d4565b868310156200071b578489015162000717601f8916826200060b565b8355505b6001600288020188555050505b505050505050565b6080516152226200074c6000396000610a6a01526152226000f3fe608060405234801561001057600080fd5b50600436106101725760003560e01c806376420e1d116100de578063d0ee9d7311610097578063e985e9c511610071578063e985e9c514610455578063f242432a14610485578063f5298aca146104a1578063fb7ae3c2146104bd57610172565b8063d0ee9d73146103ff578063d53913931461041b578063d547741f1461043957610172565b806376420e1d1461033f57806391d148541461035d5780639896233b1461038d578063a217fddf146103a9578063a22cb465146103c7578063ae2b611c146103e357610172565b80632eb2c2d6116101305780632eb2c2d61461026f5780632f2ff15d1461028b57806336568abe146102a75780634e1273f4146102c3578063572b6c05146102f35780636b20c4541461032357610172565b8062fdd58e1461017757806301ffc9a7146101a757806302fe5305146101d757806304e81bb0146101f35780630e89341c1461020f578063248a9ca31461023f575b600080fd5b610191600480360381019061018c9190613036565b6104d9565b60405161019e9190613085565b60405180910390f35b6101c160048036038101906101bc91906130f8565b6105a1565b6040516101ce9190613140565b60405180910390f35b6101f160048036038101906101ec91906132a1565b6105b3565b005b61020d6004803603810190610208919061349a565b6105cd565b005b61022960048036038101906102249190613555565b610754565b6040516102369190613601565b60405180910390f35b61025960048036038101906102549190613659565b6107e8565b6040516102669190613695565b60405180910390f35b61028960048036038101906102849190613751565b610808565b005b6102a560048036038101906102a09190613820565b6108a9565b005b6102c160048036038101906102bc9190613820565b6108ca565b005b6102dd60048036038101906102d89190613860565b61094d565b6040516102ea9190613996565b60405180910390f35b61030d600480360381019061030891906139b8565b610a66565b60405161031a9190613140565b60405180910390f35b61033d600480360381019061033891906139e5565b610abe565b005b610347610b5b565b6040516103549190613695565b60405180910390f35b61037760048036038101906103729190613820565b610b7f565b6040516103849190613140565b60405180910390f35b6103a760048036038101906103a29190613a70565b610bea565b005b6103b1610d76565b6040516103be9190613695565b60405180910390f35b6103e160048036038101906103dc9190613b3b565b610d7d565b005b6103fd60048036038101906103f891906139b8565b610d93565b005b61041960048036038101906104149190613b7b565b610dce565b005b610423610fe2565b6040516104309190613695565b60405180910390f35b610453600480360381019061044e9190613820565b611006565b005b61046f600480360381019061046a9190613c78565b611027565b60405161047c9190613140565b60405180910390f35b61049f600480360381019061049a9190613cb8565b6110bb565b005b6104bb60048036038101906104b69190613d4f565b61115c565b005b6104d760048036038101906104d29190613da2565b6111f9565b005b60008073ffffffffffffffffffffffffffffffffffffffff168373ffffffffffffffffffffffffffffffffffffffff1603610549576040517f08c379a000000000000000000000000000000000000000000000000000000000815260040161054090613eff565b60405180910390fd5b60008083815260200190815260200160002060008473ffffffffffffffffffffffffffffffffffffffff1673ffffffffffffffffffffffffffffffffffffffff16815260200190815260200160002054905092915050565b60006105ac8261146e565b9050919050565b6000801b6105c0816114e8565b6105c9826114fc565b5050565b6000845111610611576040517f08c379a000000000000000000000000000000000000000000000000000000000815260040161060890613f6b565b60405180910390fd5b6000835111610655576040517f08c379a000000000000000000000000000000000000000000000000000000000815260040161064c90613fd7565b60405180910390fd5b6000825111610699576040517f08c379a000000000000000000000000000000000000000000000000000000000815260040161069090614043565b60405180910390fd5b81518351146106dd576040517f08c379a00000000000000000000000000000000000000000000000000000000081526004016106d4906140af565b60405180910390fd5b600160028111156106f1576106f06140cf565b5b816002811115610704576107036140cf565b5b0361074e57835183511461074d576040517f08c379a0000000000000000000000000000000000000000000000000000000008152600401610744906140af565b60405180910390fd5b5b50505050565b6060600280546107639061412d565b80601f016020809104026020016040519081016040528092919081815260200182805461078f9061412d565b80156107dc5780601f106107b1576101008083540402835291602001916107dc565b820191906000526020600020905b8154815290600101906020018083116107bf57829003601f168201915b50505050509050919050565b600060036000838152602001908152602001600020600101549050919050565b61081061150f565b73ffffffffffffffffffffffffffffffffffffffff168573ffffffffffffffffffffffffffffffffffffffff16148061085657506108558561085061150f565b611027565b5b610895576040517f08c379a000000000000000000000000000000000000000000000000000000000815260040161088c906141d0565b60405180910390fd5b6108a2858585858561151e565b5050505050565b6108b2826107e8565b6108bb816114e8565b6108c5838361183f565b505050565b6108d261150f565b73ffffffffffffffffffffffffffffffffffffffff168173ffffffffffffffffffffffffffffffffffffffff161461093f576040517f08c379a000000000000000000000000000000000000000000000000000000000815260040161093690614262565b60405180910390fd5b6109498282611920565b5050565b60608151835114610993576040517f08c379a000000000000000000000000000000000000000000000000000000000815260040161098a906142f4565b60405180910390fd5b6000835167ffffffffffffffff8111156109b0576109af613176565b5b6040519080825280602002602001820160405280156109de5781602001602082028036833780820191505090505b50905060005b8451811015610a5b57610a2b858281518110610a0357610a02614314565b5b6020026020010151858381518110610a1e57610a1d614314565b5b60200260200101516104d9565b828281518110610a3e57610a3d614314565b5b60200260200101818152505080610a5490614372565b90506109e4565b508091505092915050565b60007f000000000000000000000000000000000000000000000000000000000000000073ffffffffffffffffffffffffffffffffffffffff168273ffffffffffffffffffffffffffffffffffffffff16149050919050565b610ac661150f565b73ffffffffffffffffffffffffffffffffffffffff168373ffffffffffffffffffffffffffffffffffffffff161480610b0c5750610b0b83610b0661150f565b611027565b5b610b4b576040517f08c379a0000000000000000000000000000000000000000000000000000000008152600401610b42906141d0565b60405180910390fd5b610b56838383611a02565b505050565b7f9143236d81225394f3bd65b44e6e29fdf4d7ba0773d9bb3f5cc15eb80ba3777781565b60006003600084815260200190815260200160002060000160008373ffffffffffffffffffffffffffffffffffffffff1673ffffffffffffffffffffffffffffffffffffffff16815260200190815260200160002060009054906101000a900460ff16905092915050565b7f9143236d81225394f3bd65b44e6e29fdf4d7ba0773d9bb3f5cc15eb80ba37777610c14816114e8565b6000600167ffffffffffffffff811115610c3157610c30613176565b5b604051908082528060200260200182016040528015610c5f5781602001602082028036833780820191505090505b5090508581600081518110610c7757610c76614314565b5b602002602001019073ffffffffffffffffffffffffffffffffffffffff16908173ffffffffffffffffffffffffffffffffffffffff1681525050610cbd818686866105cd565b60006002811115610cd157610cd06140cf565b5b836002811115610ce457610ce36140cf565b5b03610d3057610d2a8686600081518110610d0157610d00614314565b5b602002602001015186600081518110610d1d57610d1c614314565b5b6020026020010151611cd0565b50610d6f565b60016002811115610d4457610d436140cf565b5b836002811115610d5757610d566140cf565b5b03610d6d57610d67868686611a02565b50610d6f565b505b5050505050565b6000801b81565b610d8f610d8861150f565b8383611f16565b5050565b6000801b610da0816114e8565b610dca7f9143236d81225394f3bd65b44e6e29fdf4d7ba0773d9bb3f5cc15eb80ba377778361183f565b5050565b7f9143236d81225394f3bd65b44e6e29fdf4d7ba0773d9bb3f5cc15eb80ba37777610df8816114e8565b610e04868686866105cd565b7f832711906223d7b1424466041e692f503b3467cdb4d5dbc5f746adfc531da26d878787878787604051610e3d96959493929190614524565b60405180910390a160006002811115610e5957610e586140cf565b5b836002811115610e6c57610e6b6140cf565b5b03610ed457610ecf8787600081518110610e8957610e88614314565b5b602002602001015187600081518110610ea557610ea4614314565b5b602002602001015187600081518110610ec157610ec0614314565b5b602002602001015186612082565b610fd9565b60016002811115610ee857610ee76140cf565b5b836002811115610efb57610efa6140cf565b5b03610f2d57610f288787600081518110610f1857610f17614314565b5b602002602001015187878661151e565b610fd9565b600280811115610f4057610f3f6140cf565b5b836002811115610f5357610f526140cf565b5b03610fd85760005b8651811015610fd257610fbf88888381518110610f7b57610f7a614314565b5b6020026020010151888481518110610f9657610f95614314565b5b6020026020010151888581518110610fb157610fb0614314565b5b602002602001015187612082565b8080610fca90614372565b915050610f5b565b50610fd9565b5b50505050505050565b7f9f2df0fed2c77648de5860a4cc508cd0818c85b8b8a1ab4ceeef8d981c8956a681565b61100f826107e8565b611018816114e8565b6110228383611920565b505050565b6000600160008473ffffffffffffffffffffffffffffffffffffffff1673ffffffffffffffffffffffffffffffffffffffff16815260200190815260200160002060008373ffffffffffffffffffffffffffffffffffffffff1673ffffffffffffffffffffffffffffffffffffffff16815260200190815260200160002060009054906101000a900460ff16905092915050565b6110c361150f565b73ffffffffffffffffffffffffffffffffffffffff168573ffffffffffffffffffffffffffffffffffffffff16148061110957506111088561110361150f565b611027565b5b611148576040517f08c379a000000000000000000000000000000000000000000000000000000000815260040161113f906141d0565b60405180910390fd5b6111558585858585612082565b5050505050565b61116461150f565b73ffffffffffffffffffffffffffffffffffffffff168373ffffffffffffffffffffffffffffffffffffffff1614806111aa57506111a9836111a461150f565b611027565b5b6111e9576040517f08c379a00000000000000000000000000000000000000000000000000000000081526004016111e0906141d0565b60405180910390fd5b6111f4838383611cd0565b505050565b7f9f2df0fed2c77648de5860a4cc508cd0818c85b8b8a1ab4ceeef8d981c8956a6611223816114e8565b7f87b8ba4f1ba2e813af31d438ace9cf4fa3f0e82e86b679cd044ae1b07276c9c5868686868660405161125a9594939291906145a1565b60405180910390a161126e868686866105cd565b60006002811115611282576112816140cf565b5b836002811115611295576112946140cf565b5b0361130b57611306866000815181106112b1576112b0614314565b5b6020026020010151866000815181106112cd576112cc614314565b5b6020026020010151866000815181106112e9576112e8614314565b5b60200260200101516040518060200160405280600081525061231d565b61142c565b6001600281111561131f5761131e6140cf565b5b836002811115611332576113316140cf565b5b036113725761136d8660008151811061134e5761134d614314565b5b60200260200101518686604051806020016040528060008152506124cd565b61142c565b600280811115611385576113846140cf565b5b836002811115611398576113976140cf565b5b0361142b5760005b8651811015611425576114128782815181106113bf576113be614314565b5b60200260200101518783815181106113da576113d9614314565b5b60200260200101518784815181106113f5576113f4614314565b5b60200260200101516040518060200160405280600081525061231d565b808061141d90614372565b9150506113a0565b5061142c565b5b505050505050565b600061143f33610a66565b1561145357601436033560601c9050611462565b61145b611466565b9050611463565b5b90565b600033905090565b60007f7965db0b000000000000000000000000000000000000000000000000000000007bffffffffffffffffffffffffffffffffffffffffffffffffffffffff1916827bffffffffffffffffffffffffffffffffffffffffffffffffffffffff191614806114e157506114e0826126f9565b5b9050919050565b6114f9816114f461150f565b6127db565b50565b806002908161150b91906147bc565b5050565b6000611519611434565b905090565b8151835114611562576040517f08c379a000000000000000000000000000000000000000000000000000000000815260040161155990614900565b60405180910390fd5b600073ffffffffffffffffffffffffffffffffffffffff168473ffffffffffffffffffffffffffffffffffffffff16036115d1576040517f08c379a00000000000000000000000000000000000000000000000000000000081526004016115c890614992565b60405180910390fd5b60006115db61150f565b90506115eb818787878787612860565b60005b845181101561179c57600085828151811061160c5761160b614314565b5b60200260200101519050600085838151811061162b5761162a614314565b5b60200260200101519050600080600084815260200190815260200160002060008b73ffffffffffffffffffffffffffffffffffffffff1673ffffffffffffffffffffffffffffffffffffffff168152602001908152602001600020549050818110156116cc576040517f08c379a00000000000000000000000000000000000000000000000000000000081526004016116c390614a24565b60405180910390fd5b81810360008085815260200190815260200160002060008c73ffffffffffffffffffffffffffffffffffffffff1673ffffffffffffffffffffffffffffffffffffffff168152602001908152602001600020819055508160008085815260200190815260200160002060008b73ffffffffffffffffffffffffffffffffffffffff1673ffffffffffffffffffffffffffffffffffffffff16815260200190815260200160002060008282546117819190614a44565b925050819055505050508061179590614372565b90506115ee565b508473ffffffffffffffffffffffffffffffffffffffff168673ffffffffffffffffffffffffffffffffffffffff168273ffffffffffffffffffffffffffffffffffffffff167f4a39dc06d4c0dbc64b70af90fd698a233a518aa5d07e595d983b8c0526c8f7fb8787604051611813929190614a78565b60405180910390a4611829818787878787612868565b611837818787878787612870565b505050505050565b6118498282610b7f565b61191c5760016003600084815260200190815260200160002060000160008373ffffffffffffffffffffffffffffffffffffffff1673ffffffffffffffffffffffffffffffffffffffff16815260200190815260200160002060006101000a81548160ff0219169083151502179055506118c161150f565b73ffffffffffffffffffffffffffffffffffffffff168173ffffffffffffffffffffffffffffffffffffffff16837f2f8788117e7eff1d82e926ec794901d17c78024a50270940304540a733656f0d60405160405180910390a45b5050565b61192a8282610b7f565b156119fe5760006003600084815260200190815260200160002060000160008373ffffffffffffffffffffffffffffffffffffffff1673ffffffffffffffffffffffffffffffffffffffff16815260200190815260200160002060006101000a81548160ff0219169083151502179055506119a361150f565b73ffffffffffffffffffffffffffffffffffffffff168173ffffffffffffffffffffffffffffffffffffffff16837ff6391f5c32d9c69d2a47ea670b442974b53935d1edc7fd64eb21e047a839171b60405160405180910390a45b5050565b600073ffffffffffffffffffffffffffffffffffffffff168373ffffffffffffffffffffffffffffffffffffffff1603611a71576040517f08c379a0000000000000000000000000000000000000000000000000000000008152600401611a6890614b21565b60405180910390fd5b8051825114611ab5576040517f08c379a0000000000000000000000000000000000000000000000000000000008152600401611aac90614900565b60405180910390fd5b6000611abf61150f565b9050611adf81856000868660405180602001604052806000815250612860565b60005b8351811015611c2c576000848281518110611b0057611aff614314565b5b602002602001015190506000848381518110611b1f57611b1e614314565b5b60200260200101519050600080600084815260200190815260200160002060008973ffffffffffffffffffffffffffffffffffffffff1673ffffffffffffffffffffffffffffffffffffffff16815260200190815260200160002054905081811015611bc0576040517f08c379a0000000000000000000000000000000000000000000000000000000008152600401611bb790614bb3565b60405180910390fd5b81810360008085815260200190815260200160002060008a73ffffffffffffffffffffffffffffffffffffffff1673ffffffffffffffffffffffffffffffffffffffff168152602001908152602001600020819055505050508080611c2490614372565b915050611ae2565b50600073ffffffffffffffffffffffffffffffffffffffff168473ffffffffffffffffffffffffffffffffffffffff168273ffffffffffffffffffffffffffffffffffffffff167f4a39dc06d4c0dbc64b70af90fd698a233a518aa5d07e595d983b8c0526c8f7fb8686604051611ca4929190614a78565b60405180910390a4611cca81856000868660405180602001604052806000815250612868565b50505050565b600073ffffffffffffffffffffffffffffffffffffffff168373ffffffffffffffffffffffffffffffffffffffff1603611d3f576040517f08c379a0000000000000000000000000000000000000000000000000000000008152600401611d3690614b21565b60405180910390fd5b6000611d4961150f565b90506000611d5684612a47565b90506000611d6384612a47565b9050611d8383876000858560405180602001604052806000815250612860565b600080600087815260200190815260200160002060008873ffffffffffffffffffffffffffffffffffffffff1673ffffffffffffffffffffffffffffffffffffffff16815260200190815260200160002054905084811015611e1a576040517f08c379a0000000000000000000000000000000000000000000000000000000008152600401611e1190614bb3565b60405180910390fd5b84810360008088815260200190815260200160002060008973ffffffffffffffffffffffffffffffffffffffff1673ffffffffffffffffffffffffffffffffffffffff16815260200190815260200160002081905550600073ffffffffffffffffffffffffffffffffffffffff168773ffffffffffffffffffffffffffffffffffffffff168573ffffffffffffffffffffffffffffffffffffffff167fc3d58168c5ae7397731d063d5bbf3d657854427343f4c083240f7aacaa2d0f628989604051611ee7929190614bd3565b60405180910390a4611f0d84886000868660405180602001604052806000815250612868565b50505050505050565b8173ffffffffffffffffffffffffffffffffffffffff168373ffffffffffffffffffffffffffffffffffffffff1603611f84576040517f08c379a0000000000000000000000000000000000000000000000000000000008152600401611f7b90614c6e565b60405180910390fd5b80600160008573ffffffffffffffffffffffffffffffffffffffff1673ffffffffffffffffffffffffffffffffffffffff16815260200190815260200160002060008473ffffffffffffffffffffffffffffffffffffffff1673ffffffffffffffffffffffffffffffffffffffff16815260200190815260200160002060006101000a81548160ff0219169083151502179055508173ffffffffffffffffffffffffffffffffffffffff168373ffffffffffffffffffffffffffffffffffffffff167f17307eab39ab6107e8899845ad3d59bd9653f200f220920489ca2b5937696c31836040516120759190613140565b60405180910390a3505050565b600073ffffffffffffffffffffffffffffffffffffffff168473ffffffffffffffffffffffffffffffffffffffff16036120f1576040517f08c379a00000000000000000000000000000000000000000000000000000000081526004016120e890614992565b60405180910390fd5b60006120fb61150f565b9050600061210885612a47565b9050600061211585612a47565b9050612125838989858589612860565b600080600088815260200190815260200160002060008a73ffffffffffffffffffffffffffffffffffffffff1673ffffffffffffffffffffffffffffffffffffffff168152602001908152602001600020549050858110156121bc576040517f08c379a00000000000000000000000000000000000000000000000000000000081526004016121b390614a24565b60405180910390fd5b85810360008089815260200190815260200160002060008b73ffffffffffffffffffffffffffffffffffffffff1673ffffffffffffffffffffffffffffffffffffffff168152602001908152602001600020819055508560008089815260200190815260200160002060008a73ffffffffffffffffffffffffffffffffffffffff1673ffffffffffffffffffffffffffffffffffffffff16815260200190815260200160002060008282546122719190614a44565b925050819055508773ffffffffffffffffffffffffffffffffffffffff168973ffffffffffffffffffffffffffffffffffffffff168573ffffffffffffffffffffffffffffffffffffffff167fc3d58168c5ae7397731d063d5bbf3d657854427343f4c083240f7aacaa2d0f628a8a6040516122ee929190614bd3565b60405180910390a4612304848a8a86868a612868565b612312848a8a8a8a8a612ac1565b505050505050505050565b600073ffffffffffffffffffffffffffffffffffffffff168473ffffffffffffffffffffffffffffffffffffffff160361238c576040517f08c379a000000000000000000000000000000000000000000000000000000000815260040161238390614d00565b60405180910390fd5b600061239661150f565b905060006123a385612a47565b905060006123b085612a47565b90506123c183600089858589612860565b8460008088815260200190815260200160002060008973ffffffffffffffffffffffffffffffffffffffff1673ffffffffffffffffffffffffffffffffffffffff16815260200190815260200160002060008282546124209190614a44565b925050819055508673ffffffffffffffffffffffffffffffffffffffff16600073ffffffffffffffffffffffffffffffffffffffff168473ffffffffffffffffffffffffffffffffffffffff167fc3d58168c5ae7397731d063d5bbf3d657854427343f4c083240f7aacaa2d0f62898960405161249e929190614bd3565b60405180910390a46124b583600089858589612868565b6124c483600089898989612ac1565b50505050505050565b600073ffffffffffffffffffffffffffffffffffffffff168473ffffffffffffffffffffffffffffffffffffffff160361253c576040517f08c379a000000000000000000000000000000000000000000000000000000000815260040161253390614d00565b60405180910390fd5b8151835114612580576040517f08c379a000000000000000000000000000000000000000000000000000000000815260040161257790614900565b60405180910390fd5b600061258a61150f565b905061259b81600087878787612860565b60005b8451811015612654578381815181106125ba576125b9614314565b5b60200260200101516000808784815181106125d8576125d7614314565b5b6020026020010151815260200190815260200160002060008873ffffffffffffffffffffffffffffffffffffffff1673ffffffffffffffffffffffffffffffffffffffff168152602001908152602001600020600082825461263a9190614a44565b92505081905550808061264c90614372565b91505061259e565b508473ffffffffffffffffffffffffffffffffffffffff16600073ffffffffffffffffffffffffffffffffffffffff168273ffffffffffffffffffffffffffffffffffffffff167f4a39dc06d4c0dbc64b70af90fd698a233a518aa5d07e595d983b8c0526c8f7fb87876040516126cc929190614a78565b60405180910390a46126e381600087878787612868565b6126f281600087878787612870565b5050505050565b60007fd9b67a26000000000000000000000000000000000000000000000000000000007bffffffffffffffffffffffffffffffffffffffffffffffffffffffff1916827bffffffffffffffffffffffffffffffffffffffffffffffffffffffff191614806127c457507f0e89341c000000000000000000000000000000000000000000000000000000007bffffffffffffffffffffffffffffffffffffffffffffffffffffffff1916827bffffffffffffffffffffffffffffffffffffffffffffffffffffffff1916145b806127d457506127d382612c98565b5b9050919050565b6127e58282610b7f565b61285c576127f281612d02565b6128008360001c6020612d2f565b604051602001612811929190614df4565b6040516020818303038152906040526040517f08c379a00000000000000000000000000000000000000000000000000000000081526004016128539190613601565b60405180910390fd5b5050565b505050505050565b505050505050565b61288f8473ffffffffffffffffffffffffffffffffffffffff16612f6b565b15612a3f578373ffffffffffffffffffffffffffffffffffffffff1663bc197c8187878686866040518663ffffffff1660e01b81526004016128d5959493929190614e2e565b6020604051808303816000875af192505050801561291157506040513d601f19601f8201168201806040525081019061290e9190614eab565b60015b6129b65761291d614ee5565b806308c379a0036129795750612931614f07565b8061293c575061297b565b806040517f08c379a00000000000000000000000000000000000000000000000000000000081526004016129709190613601565b60405180910390fd5b505b6040517f08c379a00000000000000000000000000000000000000000000000000000000081526004016129ad90615009565b60405180910390fd5b63bc197c8160e01b7bffffffffffffffffffffffffffffffffffffffffffffffffffffffff1916817bffffffffffffffffffffffffffffffffffffffffffffffffffffffff191614612a3d576040517f08c379a0000000000000000000000000000000000000000000000000000000008152600401612a349061509b565b60405180910390fd5b505b505050505050565b60606000600167ffffffffffffffff811115612a6657612a65613176565b5b604051908082528060200260200182016040528015612a945781602001602082028036833780820191505090505b5090508281600081518110612aac57612aab614314565b5b60200260200101818152505080915050919050565b612ae08473ffffffffffffffffffffffffffffffffffffffff16612f6b565b15612c90578373ffffffffffffffffffffffffffffffffffffffff1663f23a6e6187878686866040518663ffffffff1660e01b8152600401612b269594939291906150bb565b6020604051808303816000875af1925050508015612b6257506040513d601f19601f82011682018060405250810190612b5f9190614eab565b60015b612c0757612b6e614ee5565b806308c379a003612bca5750612b82614f07565b80612b8d5750612bcc565b806040517f08c379a0000000000000000000000000000000000000000000000000000000008152600401612bc19190613601565b60405180910390fd5b505b6040517f08c379a0000000000000000000000000000000000000000000000000000000008152600401612bfe90615009565b60405180910390fd5b63f23a6e6160e01b7bffffffffffffffffffffffffffffffffffffffffffffffffffffffff1916817bffffffffffffffffffffffffffffffffffffffffffffffffffffffff191614612c8e576040517f08c379a0000000000000000000000000000000000000000000000000000000008152600401612c859061509b565b60405180910390fd5b505b505050505050565b60007f01ffc9a7000000000000000000000000000000000000000000000000000000007bffffffffffffffffffffffffffffffffffffffffffffffffffffffff1916827bffffffffffffffffffffffffffffffffffffffffffffffffffffffff1916149050919050565b6060612d288273ffffffffffffffffffffffffffffffffffffffff16601460ff16612d2f565b9050919050565b606060006002836002612d429190615115565b612d4c9190614a44565b67ffffffffffffffff811115612d6557612d64613176565b5b6040519080825280601f01601f191660200182016040528015612d975781602001600182028036833780820191505090505b5090507f300000000000000000000000000000000000000000000000000000000000000081600081518110612dcf57612dce614314565b5b60200101907effffffffffffffffffffffffffffffffffffffffffffffffffffffffffffff1916908160001a9053507f780000000000000000000000000000000000000000000000000000000000000081600181518110612e3357612e32614314565b5b60200101907effffffffffffffffffffffffffffffffffffffffffffffffffffffffffffff1916908160001a90535060006001846002612e739190615115565b612e7d9190614a44565b90505b6001811115612f1d577f3031323334353637383961626364656600000000000000000000000000000000600f861660108110612ebf57612ebe614314565b5b1a60f81b828281518110612ed657612ed5614314565b5b60200101907effffffffffffffffffffffffffffffffffffffffffffffffffffffffffffff1916908160001a905350600485901c945080612f1690615157565b9050612e80565b5060008414612f61576040517f08c379a0000000000000000000000000000000000000000000000000000000008152600401612f58906151cc565b60405180910390fd5b8091505092915050565b6000808273ffffffffffffffffffffffffffffffffffffffff163b119050919050565b6000604051905090565b600080fd5b600080fd5b600073ffffffffffffffffffffffffffffffffffffffff82169050919050565b6000612fcd82612fa2565b9050919050565b612fdd81612fc2565b8114612fe857600080fd5b50565b600081359050612ffa81612fd4565b92915050565b6000819050919050565b61301381613000565b811461301e57600080fd5b50565b6000813590506130308161300a565b92915050565b6000806040838503121561304d5761304c612f98565b5b600061305b85828601612feb565b925050602061306c85828601613021565b9150509250929050565b61307f81613000565b82525050565b600060208201905061309a6000830184613076565b92915050565b60007fffffffff0000000000000000000000000000000000000000000000000000000082169050919050565b6130d5816130a0565b81146130e057600080fd5b50565b6000813590506130f2816130cc565b92915050565b60006020828403121561310e5761310d612f98565b5b600061311c848285016130e3565b91505092915050565b60008115159050919050565b61313a81613125565b82525050565b60006020820190506131556000830184613131565b92915050565b600080fd5b600080fd5b6000601f19601f8301169050919050565b7f4e487b7100000000000000000000000000000000000000000000000000000000600052604160045260246000fd5b6131ae82613165565b810181811067ffffffffffffffff821117156131cd576131cc613176565b5b80604052505050565b60006131e0612f8e565b90506131ec82826131a5565b919050565b600067ffffffffffffffff82111561320c5761320b613176565b5b61321582613165565b9050602081019050919050565b82818337600083830152505050565b600061324461323f846131f1565b6131d6565b9050828152602081018484840111156132605761325f613160565b5b61326b848285613222565b509392505050565b600082601f8301126132885761328761315b565b5b8135613298848260208601613231565b91505092915050565b6000602082840312156132b7576132b6612f98565b5b600082013567ffffffffffffffff8111156132d5576132d4612f9d565b5b6132e184828501613273565b91505092915050565b600067ffffffffffffffff82111561330557613304613176565b5b602082029050602081019050919050565b600080fd5b600061332e613329846132ea565b6131d6565b9050808382526020820190506020840283018581111561335157613350613316565b5b835b8181101561337a57806133668882612feb565b845260208401935050602081019050613353565b5050509392505050565b600082601f8301126133995761339861315b565b5b81356133a984826020860161331b565b91505092915050565b600067ffffffffffffffff8211156133cd576133cc613176565b5b602082029050602081019050919050565b60006133f16133ec846133b2565b6131d6565b9050808382526020820190506020840283018581111561341457613413613316565b5b835b8181101561343d57806134298882613021565b845260208401935050602081019050613416565b5050509392505050565b600082601f83011261345c5761345b61315b565b5b813561346c8482602086016133de565b91505092915050565b6003811061348257600080fd5b50565b60008135905061349481613475565b92915050565b600080600080608085870312156134b4576134b3612f98565b5b600085013567ffffffffffffffff8111156134d2576134d1612f9d565b5b6134de87828801613384565b945050602085013567ffffffffffffffff8111156134ff576134fe612f9d565b5b61350b87828801613447565b935050604085013567ffffffffffffffff81111561352c5761352b612f9d565b5b61353887828801613447565b925050606061354987828801613485565b91505092959194509250565b60006020828403121561356b5761356a612f98565b5b600061357984828501613021565b91505092915050565b600081519050919050565b600082825260208201905092915050565b60005b838110156135bc5780820151818401526020810190506135a1565b60008484015250505050565b60006135d382613582565b6135dd818561358d565b93506135ed81856020860161359e565b6135f681613165565b840191505092915050565b6000602082019050818103600083015261361b81846135c8565b905092915050565b6000819050919050565b61363681613623565b811461364157600080fd5b50565b6000813590506136538161362d565b92915050565b60006020828403121561366f5761366e612f98565b5b600061367d84828501613644565b91505092915050565b61368f81613623565b82525050565b60006020820190506136aa6000830184613686565b92915050565b600067ffffffffffffffff8211156136cb576136ca613176565b5b6136d482613165565b9050602081019050919050565b60006136f46136ef846136b0565b6131d6565b9050828152602081018484840111156137105761370f613160565b5b61371b848285613222565b509392505050565b600082601f8301126137385761373761315b565b5b81356137488482602086016136e1565b91505092915050565b600080600080600060a0868803121561376d5761376c612f98565b5b600061377b88828901612feb565b955050602061378c88828901612feb565b945050604086013567ffffffffffffffff8111156137ad576137ac612f9d565b5b6137b988828901613447565b935050606086013567ffffffffffffffff8111156137da576137d9612f9d565b5b6137e688828901613447565b925050608086013567ffffffffffffffff81111561380757613806612f9d565b5b61381388828901613723565b9150509295509295909350565b6000806040838503121561383757613836612f98565b5b600061384585828601613644565b925050602061385685828601612feb565b9150509250929050565b6000806040838503121561387757613876612f98565b5b600083013567ffffffffffffffff81111561389557613894612f9d565b5b6138a185828601613384565b925050602083013567ffffffffffffffff8111156138c2576138c1612f9d565b5b6138ce85828601613447565b9150509250929050565b600081519050919050565b600082825260208201905092915050565b6000819050602082019050919050565b61390d81613000565b82525050565b600061391f8383613904565b60208301905092915050565b6000602082019050919050565b6000613943826138d8565b61394d81856138e3565b9350613958836138f4565b8060005b838110156139895781516139708882613913565b975061397b8361392b565b92505060018101905061395c565b5085935050505092915050565b600060208201905081810360008301526139b08184613938565b905092915050565b6000602082840312156139ce576139cd612f98565b5b60006139dc84828501612feb565b91505092915050565b6000806000606084860312156139fe576139fd612f98565b5b6000613a0c86828701612feb565b935050602084013567ffffffffffffffff811115613a2d57613a2c612f9d565b5b613a3986828701613447565b925050604084013567ffffffffffffffff811115613a5a57613a59612f9d565b5b613a6686828701613447565b9150509250925092565b60008060008060808587031215613a8a57613a89612f98565b5b6000613a9887828801612feb565b945050602085013567ffffffffffffffff811115613ab957613ab8612f9d565b5b613ac587828801613447565b935050604085013567ffffffffffffffff811115613ae657613ae5612f9d565b5b613af287828801613447565b9250506060613b0387828801613485565b91505092959194509250565b613b1881613125565b8114613b2357600080fd5b50565b600081359050613b3581613b0f565b92915050565b60008060408385031215613b5257613b51612f98565b5b6000613b6085828601612feb565b9250506020613b7185828601613b26565b9150509250929050565b60008060008060008060c08789031215613b9857613b97612f98565b5b6000613ba689828a01612feb565b965050602087013567ffffffffffffffff811115613bc757613bc6612f9d565b5b613bd389828a01613384565b955050604087013567ffffffffffffffff811115613bf457613bf3612f9d565b5b613c0089828a01613447565b945050606087013567ffffffffffffffff811115613c2157613c20612f9d565b5b613c2d89828a01613447565b9350506080613c3e89828a01613485565b92505060a087013567ffffffffffffffff811115613c5f57613c5e612f9d565b5b613c6b89828a01613723565b9150509295509295509295565b60008060408385031215613c8f57613c8e612f98565b5b6000613c9d85828601612feb565b9250506020613cae85828601612feb565b9150509250929050565b600080600080600060a08688031215613cd457613cd3612f98565b5b6000613ce288828901612feb565b9550506020613cf388828901612feb565b9450506040613d0488828901613021565b9350506060613d1588828901613021565b925050608086013567ffffffffffffffff811115613d3657613d35612f9d565b5b613d4288828901613723565b9150509295509295909350565b600080600060608486031215613d6857613d67612f98565b5b6000613d7686828701612feb565b9350506020613d8786828701613021565b9250506040613d9886828701613021565b9150509250925092565b600080600080600060a08688031215613dbe57613dbd612f98565b5b600086013567ffffffffffffffff811115613ddc57613ddb612f9d565b5b613de888828901613384565b955050602086013567ffffffffffffffff811115613e0957613e08612f9d565b5b613e1588828901613447565b945050604086013567ffffffffffffffff811115613e3657613e35612f9d565b5b613e4288828901613447565b9350506060613e5388828901613485565b925050608086013567ffffffffffffffff811115613e7457613e73612f9d565b5b613e8088828901613723565b9150509295509295909350565b7f455243313135353a2061646472657373207a65726f206973206e6f742061207660008201527f616c6964206f776e657200000000000000000000000000000000000000000000602082015250565b6000613ee9602a8361358d565b9150613ef482613e8d565b604082019050919050565b60006020820190508181036000830152613f1881613edc565b9050919050565b7f706172616d206572726f723a206163636f756e7473206973206e756c6c000000600082015250565b6000613f55601d8361358d565b9150613f6082613f1f565b602082019050919050565b60006020820190508181036000830152613f8481613f48565b9050919050565b7f706172616d206572726f723a20696473206973206e756c6c0000000000000000600082015250565b6000613fc160188361358d565b9150613fcc82613f8b565b602082019050919050565b60006020820190508181036000830152613ff081613fb4565b9050919050565b7f706172616d206572726f723a20616d6f756e7473206973206e756c6c00000000600082015250565b600061402d601c8361358d565b915061403882613ff7565b602082019050919050565b6000602082019050818103600083015261405c81614020565b9050919050565b7f706172616d206572726f723a2061727279206973206572726f72000000000000600082015250565b6000614099601a8361358d565b91506140a482614063565b602082019050919050565b600060208201905081810360008301526140c88161408c565b9050919050565b7f4e487b7100000000000000000000000000000000000000000000000000000000600052602160045260246000fd5b7f4e487b7100000000000000000000000000000000000000000000000000000000600052602260045260246000fd5b6000600282049050600182168061414557607f821691505b602082108103614158576141576140fe565b5b50919050565b7f455243313135353a2063616c6c6572206973206e6f7420746f6b656e206f776e60008201527f6572206f7220617070726f766564000000000000000000000000000000000000602082015250565b60006141ba602e8361358d565b91506141c58261415e565b604082019050919050565b600060208201905081810360008301526141e9816141ad565b9050919050565b7f416363657373436f6e74726f6c3a2063616e206f6e6c792072656e6f756e636560008201527f20726f6c657320666f722073656c660000000000000000000000000000000000602082015250565b600061424c602f8361358d565b9150614257826141f0565b604082019050919050565b6000602082019050818103600083015261427b8161423f565b9050919050565b7f455243313135353a206163636f756e747320616e6420696473206c656e67746860008201527f206d69736d617463680000000000000000000000000000000000000000000000602082015250565b60006142de60298361358d565b91506142e982614282565b604082019050919050565b6000602082019050818103600083015261430d816142d1565b9050919050565b7f4e487b7100000000000000000000000000000000000000000000000000000000600052603260045260246000fd5b7f4e487b7100000000000000000000000000000000000000000000000000000000600052601160045260246000fd5b600061437d82613000565b91507fffffffffffffffffffffffffffffffffffffffffffffffffffffffffffffffff82036143af576143ae614343565b5b600182019050919050565b6143c381612fc2565b82525050565b600081519050919050565b600082825260208201905092915050565b6000819050602082019050919050565b6143fe81612fc2565b82525050565b600061441083836143f5565b60208301905092915050565b6000602082019050919050565b6000614434826143c9565b61443e81856143d4565b9350614449836143e5565b8060005b8381101561447a5781516144618882614404565b975061446c8361441c565b92505060018101905061444d565b5085935050505092915050565b60038110614498576144976140cf565b5b50565b60008190506144a982614487565b919050565b60006144b98261449b565b9050919050565b6144c9816144ae565b82525050565b600081519050919050565b600082825260208201905092915050565b60006144f6826144cf565b61450081856144da565b935061451081856020860161359e565b61451981613165565b840191505092915050565b600060c08201905061453960008301896143ba565b818103602083015261454b8188614429565b9050818103604083015261455f8187613938565b905081810360608301526145738186613938565b905061458260808301856144c0565b81810360a083015261459481846144eb565b9050979650505050505050565b600060a08201905081810360008301526145bb8188614429565b905081810360208301526145cf8187613938565b905081810360408301526145e38186613938565b90506145f260608301856144c0565b818103608083015261460481846144eb565b90509695505050505050565b60008190508160005260206000209050919050565b60006020601f8301049050919050565b600082821b905092915050565b6000600883026146727fffffffffffffffffffffffffffffffffffffffffffffffffffffffffffffffff82614635565b61467c8683614635565b95508019841693508086168417925050509392505050565b6000819050919050565b60006146b96146b46146af84613000565b614694565b613000565b9050919050565b6000819050919050565b6146d38361469e565b6146e76146df826146c0565b848454614642565b825550505050565b600090565b6146fc6146ef565b6147078184846146ca565b505050565b5b8181101561472b576147206000826146f4565b60018101905061470d565b5050565b601f8211156147705761474181614610565b61474a84614625565b81016020851015614759578190505b61476d61476585614625565b83018261470c565b50505b505050565b600082821c905092915050565b600061479360001984600802614775565b1980831691505092915050565b60006147ac8383614782565b9150826002028217905092915050565b6147c582613582565b67ffffffffffffffff8111156147de576147dd613176565b5b6147e8825461412d565b6147f382828561472f565b600060209050601f8311600181146148265760008415614814578287015190505b61481e85826147a0565b865550614886565b601f19841661483486614610565b60005b8281101561485c57848901518255600182019150602085019450602081019050614837565b868310156148795784890151614875601f891682614782565b8355505b6001600288020188555050505b505050505050565b7f455243313135353a2069647320616e6420616d6f756e7473206c656e6774682060008201527f6d69736d61746368000000000000000000000000000000000000000000000000602082015250565b60006148ea60288361358d565b91506148f58261488e565b604082019050919050565b60006020820190508181036000830152614919816148dd565b9050919050565b7f455243313135353a207472616e7366657220746f20746865207a65726f20616460008201527f6472657373000000000000000000000000000000000000000000000000000000602082015250565b600061497c60258361358d565b915061498782614920565b604082019050919050565b600060208201905081810360008301526149ab8161496f565b9050919050565b7f455243313135353a20696e73756666696369656e742062616c616e636520666f60008201527f72207472616e7366657200000000000000000000000000000000000000000000602082015250565b6000614a0e602a8361358d565b9150614a19826149b2565b604082019050919050565b60006020820190508181036000830152614a3d81614a01565b9050919050565b6000614a4f82613000565b9150614a5a83613000565b9250828201905080821115614a7257614a71614343565b5b92915050565b60006040820190508181036000830152614a928185613938565b90508181036020830152614aa68184613938565b90509392505050565b7f455243313135353a206275726e2066726f6d20746865207a65726f206164647260008201527f6573730000000000000000000000000000000000000000000000000000000000602082015250565b6000614b0b60238361358d565b9150614b1682614aaf565b604082019050919050565b60006020820190508181036000830152614b3a81614afe565b9050919050565b7f455243313135353a206275726e20616d6f756e7420657863656564732062616c60008201527f616e636500000000000000000000000000000000000000000000000000000000602082015250565b6000614b9d60248361358d565b9150614ba882614b41565b604082019050919050565b60006020820190508181036000830152614bcc81614b90565b9050919050565b6000604082019050614be86000830185613076565b614bf56020830184613076565b9392505050565b7f455243313135353a2073657474696e6720617070726f76616c2073746174757360008201527f20666f722073656c660000000000000000000000000000000000000000000000602082015250565b6000614c5860298361358d565b9150614c6382614bfc565b604082019050919050565b60006020820190508181036000830152614c8781614c4b565b9050919050565b7f455243313135353a206d696e7420746f20746865207a65726f2061646472657360008201527f7300000000000000000000000000000000000000000000000000000000000000602082015250565b6000614cea60218361358d565b9150614cf582614c8e565b604082019050919050565b60006020820190508181036000830152614d1981614cdd565b9050919050565b600081905092915050565b7f416363657373436f6e74726f6c3a206163636f756e7420000000000000000000600082015250565b6000614d61601783614d20565b9150614d6c82614d2b565b601782019050919050565b6000614d8282613582565b614d8c8185614d20565b9350614d9c81856020860161359e565b80840191505092915050565b7f206973206d697373696e6720726f6c6520000000000000000000000000000000600082015250565b6000614dde601183614d20565b9150614de982614da8565b601182019050919050565b6000614dff82614d54565b9150614e0b8285614d77565b9150614e1682614dd1565b9150614e228284614d77565b91508190509392505050565b600060a082019050614e4360008301886143ba565b614e5060208301876143ba565b8181036040830152614e628186613938565b90508181036060830152614e768185613938565b90508181036080830152614e8a81846144eb565b90509695505050505050565b600081519050614ea5816130cc565b92915050565b600060208284031215614ec157614ec0612f98565b5b6000614ecf84828501614e96565b91505092915050565b60008160e01c9050919050565b600060033d1115614f045760046000803e614f01600051614ed8565b90505b90565b600060443d10614f9457614f19612f8e565b60043d036004823e80513d602482011167ffffffffffffffff82111715614f41575050614f94565b808201805167ffffffffffffffff811115614f5f5750505050614f94565b80602083010160043d038501811115614f7c575050505050614f94565b614f8b826020018501866131a5565b82955050505050505b90565b7f455243313135353a207472616e7366657220746f206e6f6e2d4552433131353560008201527f526563656976657220696d706c656d656e746572000000000000000000000000602082015250565b6000614ff360348361358d565b9150614ffe82614f97565b604082019050919050565b6000602082019050818103600083015261502281614fe6565b9050919050565b7f455243313135353a204552433131353552656365697665722072656a6563746560008201527f6420746f6b656e73000000000000000000000000000000000000000000000000602082015250565b600061508560288361358d565b915061509082615029565b604082019050919050565b600060208201905081810360008301526150b481615078565b9050919050565b600060a0820190506150d060008301886143ba565b6150dd60208301876143ba565b6150ea6040830186613076565b6150f76060830185613076565b818103608083015261510981846144eb565b90509695505050505050565b600061512082613000565b915061512b83613000565b925082820261513981613000565b915082820484148315176151505761514f614343565b5b5092915050565b600061516282613000565b91506000820361517557615174614343565b5b600182039050919050565b7f537472696e67733a20686578206c656e67746820696e73756666696369656e74600082015250565b60006151b660208361358d565b91506151c182615180565b602082019050919050565b600060208201905081810360008301526151e5816151a9565b905091905056fea264697066735822122064f476e6be9bca60507e756a85b85e872417da1a9a6f57553b078e0298b0b80b64736f6c6343000812003368747470733a2f2f776865782e6f73732d636e2d68616e677a686f752e616c6979756e63732e636f6d2f6d657461646174612f7b69647d2e6a736f6e",
			"opcodes": "PUSH1 0xA0 PUSH1 0x40 MSTORE CALLVALUE DUP1 ISZERO PUSH3 0x11 JUMPI PUSH1 0x0 DUP1 REVERT JUMPDEST POP PUSH1 0x40 MLOAD PUSH3 0x59AA CODESIZE SUB DUP1 PUSH3 0x59AA DUP4 CODECOPY DUP2 DUP2 ADD PUSH1 0x40 MSTORE DUP2 ADD SWAP1 PUSH3 0x37 SWAP2 SWAP1 PUSH3 0x39D JUMP JUMPDEST DUP1 PUSH1 0x40 MLOAD DUP1 PUSH1 0x60 ADD PUSH1 0x40 MSTORE DUP1 PUSH1 0x3C DUP2 MSTORE PUSH1 0x20 ADD PUSH3 0x596E PUSH1 0x3C SWAP2 CODECOPY PUSH3 0x63 DUP2 PUSH3 0x119 PUSH1 0x20 SHL PUSH1 0x20 SHR JUMP JUMPDEST POP DUP1 PUSH20 0xFFFFFFFFFFFFFFFFFFFFFFFFFFFFFFFFFFFFFFFF AND PUSH1 0x80 DUP2 PUSH20 0xFFFFFFFFFFFFFFFFFFFFFFFFFFFFFFFFFFFFFFFF AND DUP2 MSTORE POP POP POP PUSH3 0xAE PUSH1 0x0 DUP1 SHL CALLER PUSH3 0x12E PUSH1 0x20 SHL PUSH1 0x20 SHR JUMP JUMPDEST PUSH3 0xE0 PUSH32 0x9143236D81225394F3BD65B44E6E29FDF4D7BA0773D9BB3F5CC15EB80BA37777 CALLER PUSH3 0x12E PUSH1 0x20 SHL PUSH1 0x20 SHR JUMP JUMPDEST PUSH3 0x112 PUSH32 0x9F2DF0FED2C77648DE5860A4CC508CD0818C85B8B8A1AB4CEEEF8D981C8956A6 CALLER PUSH3 0x12E PUSH1 0x20 SHL PUSH1 0x20 SHR JUMP JUMPDEST POP PUSH3 0x730 JUMP JUMPDEST DUP1 PUSH1 0x2 SWAP1 DUP2 PUSH3 0x12A SWAP2 SWAP1 PUSH3 0x649 JUMP JUMPDEST POP POP JUMP JUMPDEST PUSH3 0x140 DUP3 DUP3 PUSH3 0x220 PUSH1 0x20 SHL PUSH1 0x20 SHR JUMP JUMPDEST PUSH3 0x21C JUMPI PUSH1 0x1 PUSH1 0x3 PUSH1 0x0 DUP5 DUP2 MSTORE PUSH1 0x20 ADD SWAP1 DUP2 MSTORE PUSH1 0x20 ADD PUSH1 0x0 KECCAK256 PUSH1 0x0 ADD PUSH1 0x0 DUP4 PUSH20 0xFFFFFFFFFFFFFFFFFFFFFFFFFFFFFFFFFFFFFFFF AND PUSH20 0xFFFFFFFFFFFFFFFFFFFFFFFFFFFFFFFFFFFFFFFF AND DUP2 MSTORE PUSH1 0x20 ADD SWAP1 DUP2 MSTORE PUSH1 0x20 ADD PUSH1 0x0 KECCAK256 PUSH1 0x0 PUSH2 0x100 EXP DUP2 SLOAD DUP2 PUSH1 0xFF MUL NOT AND SWAP1 DUP4 ISZERO ISZERO MUL OR SWAP1 SSTORE POP PUSH3 0x1C1 PUSH3 0x28B PUSH1 0x20 SHL PUSH1 0x20 SHR JUMP JUMPDEST PUSH20 0xFFFFFFFFFFFFFFFFFFFFFFFFFFFFFFFFFFFFFFFF AND DUP2 PUSH20 0xFFFFFFFFFFFFFFFFFFFFFFFFFFFFFFFFFFFFFFFF AND DUP4 PUSH32 0x2F8788117E7EFF1D82E926EC794901D17C78024A50270940304540A733656F0D PUSH1 0x40 MLOAD PUSH1 0x40 MLOAD DUP1 SWAP2 SUB SWAP1 LOG4 JUMPDEST POP POP JUMP JUMPDEST PUSH1 0x0 PUSH1 0x3 PUSH1 0x0 DUP5 DUP2 MSTORE PUSH1 0x20 ADD SWAP1 DUP2 MSTORE PUSH1 0x20 ADD PUSH1 0x0 KECCAK256 PUSH1 0x0 ADD PUSH1 0x0 DUP4 PUSH20 0xFFFFFFFFFFFFFFFFFFFFFFFFFFFFFFFFFFFFFFFF AND PUSH20 0xFFFFFFFFFFFFFFFFFFFFFFFFFFFFFFFFFFFFFFFF AND DUP2 MSTORE PUSH1 0x20 ADD SWAP1 DUP2 MSTORE PUSH1 0x20 ADD PUSH1 0x0 KECCAK256 PUSH1 0x0 SWAP1 SLOAD SWAP1 PUSH2 0x100 EXP SWAP1 DIV PUSH1 0xFF AND SWAP1 POP SWAP3 SWAP2 POP POP JUMP JUMPDEST PUSH1 0x0 PUSH3 0x2A2 PUSH3 0x2A7 PUSH1 0x20 SHL PUSH3 0x1434 OR PUSH1 0x20 SHR JUMP JUMPDEST SWAP1 POP SWAP1 JUMP JUMPDEST PUSH1 0x0 PUSH3 0x2BA CALLER PUSH3 0x2F1 PUSH1 0x20 SHL PUSH1 0x20 SHR JUMP JUMPDEST ISZERO PUSH3 0x2D0 JUMPI PUSH1 0x14 CALLDATASIZE SUB CALLDATALOAD PUSH1 0x60 SHR SWAP1 POP PUSH3 0x2ED JUMP JUMPDEST PUSH3 0x2E5 PUSH3 0x32B PUSH1 0x20 SHL PUSH3 0x1466 OR PUSH1 0x20 SHR JUMP JUMPDEST SWAP1 POP PUSH3 0x2EE JUMP JUMPDEST JUMPDEST SWAP1 JUMP JUMPDEST PUSH1 0x0 PUSH1 0x80 MLOAD PUSH20 0xFFFFFFFFFFFFFFFFFFFFFFFFFFFFFFFFFFFFFFFF AND DUP3 PUSH20 0xFFFFFFFFFFFFFFFFFFFFFFFFFFFFFFFFFFFFFFFF AND EQ SWAP1 POP SWAP2 SWAP1 POP JUMP JUMPDEST PUSH1 0x0 CALLER SWAP1 POP SWAP1 JUMP JUMPDEST PUSH1 0x0 DUP1 REVERT JUMPDEST PUSH1 0x0 PUSH20 0xFFFFFFFFFFFFFFFFFFFFFFFFFFFFFFFFFFFFFFFF DUP3 AND SWAP1 POP SWAP2 SWAP1 POP JUMP JUMPDEST PUSH1 0x0 PUSH3 0x365 DUP3 PUSH3 0x338 JUMP JUMPDEST SWAP1 POP SWAP2 SWAP1 POP JUMP JUMPDEST PUSH3 0x377 DUP2 PUSH3 0x358 JUMP JUMPDEST DUP2 EQ PUSH3 0x383 JUMPI PUSH1 0x0 DUP1 REVERT JUMPDEST POP JUMP JUMPDEST PUSH1 0x0 DUP2 MLOAD SWAP1 POP PUSH3 0x397 DUP2 PUSH3 0x36C JUMP JUMPDEST SWAP3 SWAP2 POP POP JUMP JUMPDEST PUSH1 0x0 PUSH1 0x20 DUP3 DUP5 SUB SLT ISZERO PUSH3 0x3B6 JUMPI PUSH3 0x3B5 PUSH3 0x333 JUMP JUMPDEST JUMPDEST PUSH1 0x0 PUSH3 0x3C6 DUP5 DUP3 DUP6 ADD PUSH3 0x386 JUMP JUMPDEST SWAP2 POP POP SWAP3 SWAP2 POP POP JUMP JUMPDEST PUSH1 0x0 DUP2 MLOAD SWAP1 POP SWAP2 SWAP1 POP JUMP JUMPDEST PUSH32 0x4E487B7100000000000000000000000000000000000000000000000000000000 PUSH1 0x0 MSTORE PUSH1 0x41 PUSH1 0x4 MSTORE PUSH1 0x24 PUSH1 0x0 REVERT JUMPDEST PUSH32 0x4E487B7100000000000000000000000000000000000000000000000000000000 PUSH1 0x0 MSTORE PUSH1 0x22 PUSH1 0x4 MSTORE PUSH1 0x24 PUSH1 0x0 REVERT JUMPDEST PUSH1 0x0 PUSH1 0x2 DUP3 DIV SWAP1 POP PUSH1 0x1 DUP3 AND DUP1 PUSH3 0x451 JUMPI PUSH1 0x7F DUP3 AND SWAP2 POP JUMPDEST PUSH1 0x20 DUP3 LT DUP2 SUB PUSH3 0x467 JUMPI PUSH3 0x466 PUSH3 0x409 JUMP JUMPDEST JUMPDEST POP SWAP2 SWAP1 POP JUMP JUMPDEST PUSH1 0x0 DUP2 SWAP1 POP DUP2 PUSH1 0x0 MSTORE PUSH1 0x20 PUSH1 0x0 KECCAK256 SWAP1 POP SWAP2 SWAP1 POP JUMP JUMPDEST PUSH1 0x0 PUSH1 0x20 PUSH1 0x1F DUP4 ADD DIV SWAP1 POP SWAP2 SWAP1 POP JUMP JUMPDEST PUSH1 0x0 DUP3 DUP3 SHL SWAP1 POP SWAP3 SWAP2 POP POP JUMP JUMPDEST PUSH1 0x0 PUSH1 0x8 DUP4 MUL PUSH3 0x4D1 PUSH32 0xFFFFFFFFFFFFFFFFFFFFFFFFFFFFFFFFFFFFFFFFFFFFFFFFFFFFFFFFFFFFFFFF DUP3 PUSH3 0x492 JUMP JUMPDEST PUSH3 0x4DD DUP7 DUP4 PUSH3 0x492 JUMP JUMPDEST SWAP6 POP DUP1 NOT DUP5 AND SWAP4 POP DUP1 DUP7 AND DUP5 OR SWAP3 POP POP POP SWAP4 SWAP3 POP POP POP JUMP JUMPDEST PUSH1 0x0 DUP2 SWAP1 POP SWAP2 SWAP1 POP JUMP JUMPDEST PUSH1 0x0 DUP2 SWAP1 POP SWAP2 SWAP1 POP JUMP JUMPDEST PUSH1 0x0 PUSH3 0x52A PUSH3 0x524 PUSH3 0x51E DUP5 PUSH3 0x4F5 JUMP JUMPDEST PUSH3 0x4FF JUMP JUMPDEST PUSH3 0x4F5 JUMP JUMPDEST SWAP1 POP SWAP2 SWAP1 POP JUMP JUMPDEST PUSH1 0x0 DUP2 SWAP1 POP SWAP2 SWAP1 POP JUMP JUMPDEST PUSH3 0x546 DUP4 PUSH3 0x509 JUMP JUMPDEST PUSH3 0x55E PUSH3 0x555 DUP3 PUSH3 0x531 JUMP JUMPDEST DUP5 DUP5 SLOAD PUSH3 0x49F JUMP JUMPDEST DUP3 SSTORE POP POP POP POP JUMP JUMPDEST PUSH1 0x0 SWAP1 JUMP JUMPDEST PUSH3 0x575 PUSH3 0x566 JUMP JUMPDEST PUSH3 0x582 DUP2 DUP5 DUP5 PUSH3 0x53B JUMP JUMPDEST POP POP POP JUMP JUMPDEST JUMPDEST DUP2 DUP2 LT ISZERO PUSH3 0x5AA JUMPI PUSH3 0x59E PUSH1 0x0 DUP3 PUSH3 0x56B JUMP JUMPDEST PUSH1 0x1 DUP2 ADD SWAP1 POP PUSH3 0x588 JUMP JUMPDEST POP POP JUMP JUMPDEST PUSH1 0x1F DUP3 GT ISZERO PUSH3 0x5F9 JUMPI PUSH3 0x5C3 DUP2 PUSH3 0x46D JUMP JUMPDEST PUSH3 0x5CE DUP5 PUSH3 0x482 JUMP JUMPDEST DUP2 ADD PUSH1 0x20 DUP6 LT ISZERO PUSH3 0x5DE JUMPI DUP2 SWAP1 POP JUMPDEST PUSH3 0x5F6 PUSH3 0x5ED DUP6 PUSH3 0x482 JUMP JUMPDEST DUP4 ADD DUP3 PUSH3 0x587 JUMP JUMPDEST POP POP JUMPDEST POP POP POP JUMP JUMPDEST PUSH1 0x0 DUP3 DUP3 SHR SWAP1 POP SWAP3 SWAP2 POP POP JUMP JUMPDEST PUSH1 0x0 PUSH3 0x61E PUSH1 0x0 NOT DUP5 PUSH1 0x8 MUL PUSH3 0x5FE JUMP JUMPDEST NOT DUP1 DUP4 AND SWAP2 POP POP SWAP3 SWAP2 POP POP JUMP JUMPDEST PUSH1 0x0 PUSH3 0x639 DUP4 DUP4 PUSH3 0x60B JUMP JUMPDEST SWAP2 POP DUP3 PUSH1 0x2 MUL DUP3 OR SWAP1 POP SWAP3 SWAP2 POP POP JUMP JUMPDEST PUSH3 0x654 DUP3 PUSH3 0x3CF JUMP JUMPDEST PUSH8 0xFFFFFFFFFFFFFFFF DUP2 GT ISZERO PUSH3 0x670 JUMPI PUSH3 0x66F PUSH3 0x3DA JUMP JUMPDEST JUMPDEST PUSH3 0x67C DUP3 SLOAD PUSH3 0x438 JUMP JUMPDEST PUSH3 0x689 DUP3 DUP3 DUP6 PUSH3 0x5AE JUMP JUMPDEST PUSH1 0x0 PUSH1 0x20 SWAP1 POP PUSH1 0x1F DUP4 GT PUSH1 0x1 DUP2 EQ PUSH3 0x6C1 JUMPI PUSH1 0x0 DUP5 ISZERO PUSH3 0x6AC JUMPI DUP3 DUP8 ADD MLOAD SWAP1 POP JUMPDEST PUSH3 0x6B8 DUP6 DUP3 PUSH3 0x62B JUMP JUMPDEST DUP7 SSTORE POP PUSH3 0x728 JUMP JUMPDEST PUSH1 0x1F NOT DUP5 AND PUSH3 0x6D1 DUP7 PUSH3 0x46D JUMP JUMPDEST PUSH1 0x0 JUMPDEST DUP3 DUP2 LT ISZERO PUSH3 0x6FB JUMPI DUP5 DUP10 ADD MLOAD DUP3 SSTORE PUSH1 0x1 DUP3 ADD SWAP2 POP PUSH1 0x20 DUP6 ADD SWAP5 POP PUSH1 0x20 DUP2 ADD SWAP1 POP PUSH3 0x6D4 JUMP JUMPDEST DUP7 DUP4 LT ISZERO PUSH3 0x71B JUMPI DUP5 DUP10 ADD MLOAD PUSH3 0x717 PUSH1 0x1F DUP10 AND DUP3 PUSH3 0x60B JUMP JUMPDEST DUP4 SSTORE POP JUMPDEST PUSH1 0x1 PUSH1 0x2 DUP9 MUL ADD DUP9 SSTORE POP POP POP JUMPDEST POP POP POP POP POP POP JUMP JUMPDEST PUSH1 0x80 MLOAD PUSH2 0x5222 PUSH3 0x74C PUSH1 0x0 CODECOPY PUSH1 0x0 PUSH2 0xA6A ADD MSTORE PUSH2 0x5222 PUSH1 0x0 RETURN INVALID PUSH1 0x80 PUSH1 0x40 MSTORE CALLVALUE DUP1 ISZERO PUSH2 0x10 JUMPI PUSH1 0x0 DUP1 REVERT JUMPDEST POP PUSH1 0x4 CALLDATASIZE LT PUSH2 0x172 JUMPI PUSH1 0x0 CALLDATALOAD PUSH1 0xE0 SHR DUP1 PUSH4 0x76420E1D GT PUSH2 0xDE JUMPI DUP1 PUSH4 0xD0EE9D73 GT PUSH2 0x97 JUMPI DUP1 PUSH4 0xE985E9C5 GT PUSH2 0x71 JUMPI DUP1 PUSH4 0xE985E9C5 EQ PUSH2 0x455 JUMPI DUP1 PUSH4 0xF242432A EQ PUSH2 0x485 JUMPI DUP1 PUSH4 0xF5298ACA EQ PUSH2 0x4A1 JUMPI DUP1 PUSH4 0xFB7AE3C2 EQ PUSH2 0x4BD JUMPI PUSH2 0x172 JUMP JUMPDEST DUP1 PUSH4 0xD0EE9D73 EQ PUSH2 0x3FF JUMPI DUP1 PUSH4 0xD5391393 EQ PUSH2 0x41B JUMPI DUP1 PUSH4 0xD547741F EQ PUSH2 0x439 JUMPI PUSH2 0x172 JUMP JUMPDEST DUP1 PUSH4 0x76420E1D EQ PUSH2 0x33F JUMPI DUP1 PUSH4 0x91D14854 EQ PUSH2 0x35D JUMPI DUP1 PUSH4 0x9896233B EQ PUSH2 0x38D JUMPI DUP1 PUSH4 0xA217FDDF EQ PUSH2 0x3A9 JUMPI DUP1 PUSH4 0xA22CB465 EQ PUSH2 0x3C7 JUMPI DUP1 PUSH4 0xAE2B611C EQ PUSH2 0x3E3 JUMPI PUSH2 0x172 JUMP JUMPDEST DUP1 PUSH4 0x2EB2C2D6 GT PUSH2 0x130 JUMPI DUP1 PUSH4 0x2EB2C2D6 EQ PUSH2 0x26F JUMPI DUP1 PUSH4 0x2F2FF15D EQ PUSH2 0x28B JUMPI DUP1 PUSH4 0x36568ABE EQ PUSH2 0x2A7 JUMPI DUP1 PUSH4 0x4E1273F4 EQ PUSH2 0x2C3 JUMPI DUP1 PUSH4 0x572B6C05 EQ PUSH2 0x2F3 JUMPI DUP1 PUSH4 0x6B20C454 EQ PUSH2 0x323 JUMPI PUSH2 0x172 JUMP JUMPDEST DUP1 PUSH3 0xFDD58E EQ PUSH2 0x177 JUMPI DUP1 PUSH4 0x1FFC9A7 EQ PUSH2 0x1A7 JUMPI DUP1 PUSH4 0x2FE5305 EQ PUSH2 0x1D7 JUMPI DUP1 PUSH4 0x4E81BB0 EQ PUSH2 0x1F3 JUMPI DUP1 PUSH4 0xE89341C EQ PUSH2 0x20F JUMPI DUP1 PUSH4 0x248A9CA3 EQ PUSH2 0x23F JUMPI JUMPDEST PUSH1 0x0 DUP1 REVERT JUMPDEST PUSH2 0x191 PUSH1 0x4 DUP1 CALLDATASIZE SUB DUP2 ADD SWAP1 PUSH2 0x18C SWAP2 SWAP1 PUSH2 0x3036 JUMP JUMPDEST PUSH2 0x4D9 JUMP JUMPDEST PUSH1 0x40 MLOAD PUSH2 0x19E SWAP2 SWAP1 PUSH2 0x3085 JUMP JUMPDEST PUSH1 0x40 MLOAD DUP1 SWAP2 SUB SWAP1 RETURN JUMPDEST PUSH2 0x1C1 PUSH1 0x4 DUP1 CALLDATASIZE SUB DUP2 ADD SWAP1 PUSH2 0x1BC SWAP2 SWAP1 PUSH2 0x30F8 JUMP JUMPDEST PUSH2 0x5A1 JUMP JUMPDEST PUSH1 0x40 MLOAD PUSH2 0x1CE SWAP2 SWAP1 PUSH2 0x3140 JUMP JUMPDEST PUSH1 0x40 MLOAD DUP1 SWAP2 SUB SWAP1 RETURN JUMPDEST PUSH2 0x1F1 PUSH1 0x4 DUP1 CALLDATASIZE SUB DUP2 ADD SWAP1 PUSH2 0x1EC SWAP2 SWAP1 PUSH2 0x32A1 JUMP JUMPDEST PUSH2 0x5B3 JUMP JUMPDEST STOP JUMPDEST PUSH2 0x20D PUSH1 0x4 DUP1 CALLDATASIZE SUB DUP2 ADD SWAP1 PUSH2 0x208 SWAP2 SWAP1 PUSH2 0x349A JUMP JUMPDEST PUSH2 0x5CD JUMP JUMPDEST STOP JUMPDEST PUSH2 0x229 PUSH1 0x4 DUP1 CALLDATASIZE SUB DUP2 ADD SWAP1 PUSH2 0x224 SWAP2 SWAP1 PUSH2 0x3555 JUMP JUMPDEST PUSH2 0x754 JUMP JUMPDEST PUSH1 0x40 MLOAD PUSH2 0x236 SWAP2 SWAP1 PUSH2 0x3601 JUMP JUMPDEST PUSH1 0x40 MLOAD DUP1 SWAP2 SUB SWAP1 RETURN JUMPDEST PUSH2 0x259 PUSH1 0x4 DUP1 CALLDATASIZE SUB DUP2 ADD SWAP1 PUSH2 0x254 SWAP2 SWAP1 PUSH2 0x3659 JUMP JUMPDEST PUSH2 0x7E8 JUMP JUMPDEST PUSH1 0x40 MLOAD PUSH2 0x266 SWAP2 SWAP1 PUSH2 0x3695 JUMP JUMPDEST PUSH1 0x40 MLOAD DUP1 SWAP2 SUB SWAP1 RETURN JUMPDEST PUSH2 0x289 PUSH1 0x4 DUP1 CALLDATASIZE SUB DUP2 ADD SWAP1 PUSH2 0x284 SWAP2 SWAP1 PUSH2 0x3751 JUMP JUMPDEST PUSH2 0x808 JUMP JUMPDEST STOP JUMPDEST PUSH2 0x2A5 PUSH1 0x4 DUP1 CALLDATASIZE SUB DUP2 ADD SWAP1 PUSH2 0x2A0 SWAP2 SWAP1 PUSH2 0x3820 JUMP JUMPDEST PUSH2 0x8A9 JUMP JUMPDEST STOP JUMPDEST PUSH2 0x2C1 PUSH1 0x4 DUP1 CALLDATASIZE SUB DUP2 ADD SWAP1 PUSH2 0x2BC SWAP2 SWAP1 PUSH2 0x3820 JUMP JUMPDEST PUSH2 0x8CA JUMP JUMPDEST STOP JUMPDEST PUSH2 0x2DD PUSH1 0x4 DUP1 CALLDATASIZE SUB DUP2 ADD SWAP1 PUSH2 0x2D8 SWAP2 SWAP1 PUSH2 0x3860 JUMP JUMPDEST PUSH2 0x94D JUMP JUMPDEST PUSH1 0x40 MLOAD PUSH2 0x2EA SWAP2 SWAP1 PUSH2 0x3996 JUMP JUMPDEST PUSH1 0x40 MLOAD DUP1 SWAP2 SUB SWAP1 RETURN JUMPDEST PUSH2 0x30D PUSH1 0x4 DUP1 CALLDATASIZE SUB DUP2 ADD SWAP1 PUSH2 0x308 SWAP2 SWAP1 PUSH2 0x39B8 JUMP JUMPDEST PUSH2 0xA66 JUMP JUMPDEST PUSH1 0x40 MLOAD PUSH2 0x31A SWAP2 SWAP1 PUSH2 0x3140 JUMP JUMPDEST PUSH1 0x40 MLOAD DUP1 SWAP2 SUB SWAP1 RETURN JUMPDEST PUSH2 0x33D PUSH1 0x4 DUP1 CALLDATASIZE SUB DUP2 ADD SWAP1 PUSH2 0x338 SWAP2 SWAP1 PUSH2 0x39E5 JUMP JUMPDEST PUSH2 0xABE JUMP JUMPDEST STOP JUMPDEST PUSH2 0x347 PUSH2 0xB5B JUMP JUMPDEST PUSH1 0x40 MLOAD PUSH2 0x354 SWAP2 SWAP1 PUSH2 0x3695 JUMP JUMPDEST PUSH1 0x40 MLOAD DUP1 SWAP2 SUB SWAP1 RETURN JUMPDEST PUSH2 0x377 PUSH1 0x4 DUP1 CALLDATASIZE SUB DUP2 ADD SWAP1 PUSH2 0x372 SWAP2 SWAP1 PUSH2 0x3820 JUMP JUMPDEST PUSH2 0xB7F JUMP JUMPDEST PUSH1 0x40 MLOAD PUSH2 0x384 SWAP2 SWAP1 PUSH2 0x3140 JUMP JUMPDEST PUSH1 0x40 MLOAD DUP1 SWAP2 SUB SWAP1 RETURN JUMPDEST PUSH2 0x3A7 PUSH1 0x4 DUP1 CALLDATASIZE SUB DUP2 ADD SWAP1 PUSH2 0x3A2 SWAP2 SWAP1 PUSH2 0x3A70 JUMP JUMPDEST PUSH2 0xBEA JUMP JUMPDEST STOP JUMPDEST PUSH2 0x3B1 PUSH2 0xD76 JUMP JUMPDEST PUSH1 0x40 MLOAD PUSH2 0x3BE SWAP2 SWAP1 PUSH2 0x3695 JUMP JUMPDEST PUSH1 0x40 MLOAD DUP1 SWAP2 SUB SWAP1 RETURN JUMPDEST PUSH2 0x3E1 PUSH1 0x4 DUP1 CALLDATASIZE SUB DUP2 ADD SWAP1 PUSH2 0x3DC SWAP2 SWAP1 PUSH2 0x3B3B JUMP JUMPDEST PUSH2 0xD7D JUMP JUMPDEST STOP JUMPDEST PUSH2 0x3FD PUSH1 0x4 DUP1 CALLDATASIZE SUB DUP2 ADD SWAP1 PUSH2 0x3F8 SWAP2 SWAP1 PUSH2 0x39B8 JUMP JUMPDEST PUSH2 0xD93 JUMP JUMPDEST STOP JUMPDEST PUSH2 0x419 PUSH1 0x4 DUP1 CALLDATASIZE SUB DUP2 ADD SWAP1 PUSH2 0x414 SWAP2 SWAP1 PUSH2 0x3B7B JUMP JUMPDEST PUSH2 0xDCE JUMP JUMPDEST STOP JUMPDEST PUSH2 0x423 PUSH2 0xFE2 JUMP JUMPDEST PUSH1 0x40 MLOAD PUSH2 0x430 SWAP2 SWAP1 PUSH2 0x3695 JUMP JUMPDEST PUSH1 0x40 MLOAD DUP1 SWAP2 SUB SWAP1 RETURN JUMPDEST PUSH2 0x453 PUSH1 0x4 DUP1 CALLDATASIZE SUB DUP2 ADD SWAP1 PUSH2 0x44E SWAP2 SWAP1 PUSH2 0x3820 JUMP JUMPDEST PUSH2 0x1006 JUMP JUMPDEST STOP JUMPDEST PUSH2 0x46F PUSH1 0x4 DUP1 CALLDATASIZE SUB DUP2 ADD SWAP1 PUSH2 0x46A SWAP2 SWAP1 PUSH2 0x3C78 JUMP JUMPDEST PUSH2 0x1027 JUMP JUMPDEST PUSH1 0x40 MLOAD PUSH2 0x47C SWAP2 SWAP1 PUSH2 0x3140 JUMP JUMPDEST PUSH1 0x40 MLOAD DUP1 SWAP2 SUB SWAP1 RETURN JUMPDEST PUSH2 0x49F PUSH1 0x4 DUP1 CALLDATASIZE SUB DUP2 ADD SWAP1 PUSH2 0x49A SWAP2 SWAP1 PUSH2 0x3CB8 JUMP JUMPDEST PUSH2 0x10BB JUMP JUMPDEST STOP JUMPDEST PUSH2 0x4BB PUSH1 0x4 DUP1 CALLDATASIZE SUB DUP2 ADD SWAP1 PUSH2 0x4B6 SWAP2 SWAP1 PUSH2 0x3D4F JUMP JUMPDEST PUSH2 0x115C JUMP JUMPDEST STOP JUMPDEST PUSH2 0x4D7 PUSH1 0x4 DUP1 CALLDATASIZE SUB DUP2 ADD SWAP1 PUSH2 0x4D2 SWAP2 SWAP1 PUSH2 0x3DA2 JUMP JUMPDEST PUSH2 0x11F9 JUMP JUMPDEST STOP JUMPDEST PUSH1 0x0 DUP1 PUSH20 0xFFFFFFFFFFFFFFFFFFFFFFFFFFFFFFFFFFFFFFFF AND DUP4 PUSH20 0xFFFFFFFFFFFFFFFFFFFFFFFFFFFFFFFFFFFFFFFF AND SUB PUSH2 0x549 JUMPI PUSH1 0x40 MLOAD PUSH32 0x8C379A000000000000000000000000000000000000000000000000000000000 DUP2 MSTORE PUSH1 0x4 ADD PUSH2 0x540 SWAP1 PUSH2 0x3EFF JUMP JUMPDEST PUSH1 0x40 MLOAD DUP1 SWAP2 SUB SWAP1 REVERT JUMPDEST PUSH1 0x0 DUP1 DUP4 DUP2 MSTORE PUSH1 0x20 ADD SWAP1 DUP2 MSTORE PUSH1 0x20 ADD PUSH1 0x0 KECCAK256 PUSH1 0x0 DUP5 PUSH20 0xFFFFFFFFFFFFFFFFFFFFFFFFFFFFFFFFFFFFFFFF AND PUSH20 0xFFFFFFFFFFFFFFFFFFFFFFFFFFFFFFFFFFFFFFFF AND DUP2 MSTORE PUSH1 0x20 ADD SWAP1 DUP2 MSTORE PUSH1 0x20 ADD PUSH1 0x0 KECCAK256 SLOAD SWAP1 POP SWAP3 SWAP2 POP POP JUMP JUMPDEST PUSH1 0x0 PUSH2 0x5AC DUP3 PUSH2 0x146E JUMP JUMPDEST SWAP1 POP SWAP2 SWAP1 POP JUMP JUMPDEST PUSH1 0x0 DUP1 SHL PUSH2 0x5C0 DUP2 PUSH2 0x14E8 JUMP JUMPDEST PUSH2 0x5C9 DUP3 PUSH2 0x14FC JUMP JUMPDEST POP POP JUMP JUMPDEST PUSH1 0x0 DUP5 MLOAD GT PUSH2 0x611 JUMPI PUSH1 0x40 MLOAD PUSH32 0x8C379A000000000000000000000000000000000000000000000000000000000 DUP2 MSTORE PUSH1 0x4 ADD PUSH2 0x608 SWAP1 PUSH2 0x3F6B JUMP JUMPDEST PUSH1 0x40 MLOAD DUP1 SWAP2 SUB SWAP1 REVERT JUMPDEST PUSH1 0x0 DUP4 MLOAD GT PUSH2 0x655 JUMPI PUSH1 0x40 MLOAD PUSH32 0x8C379A000000000000000000000000000000000000000000000000000000000 DUP2 MSTORE PUSH1 0x4 ADD PUSH2 0x64C SWAP1 PUSH2 0x3FD7 JUMP JUMPDEST PUSH1 0x40 MLOAD DUP1 SWAP2 SUB SWAP1 REVERT JUMPDEST PUSH1 0x0 DUP3 MLOAD GT PUSH2 0x699 JUMPI PUSH1 0x40 MLOAD PUSH32 0x8C379A000000000000000000000000000000000000000000000000000000000 DUP2 MSTORE PUSH1 0x4 ADD PUSH2 0x690 SWAP1 PUSH2 0x4043 JUMP JUMPDEST PUSH1 0x40 MLOAD DUP1 SWAP2 SUB SWAP1 REVERT JUMPDEST DUP2 MLOAD DUP4 MLOAD EQ PUSH2 0x6DD JUMPI PUSH1 0x40 MLOAD PUSH32 0x8C379A000000000000000000000000000000000000000000000000000000000 DUP2 MSTORE PUSH1 0x4 ADD PUSH2 0x6D4 SWAP1 PUSH2 0x40AF JUMP JUMPDEST PUSH1 0x40 MLOAD DUP1 SWAP2 SUB SWAP1 REVERT JUMPDEST PUSH1 0x1 PUSH1 0x2 DUP2 GT ISZERO PUSH2 0x6F1 JUMPI PUSH2 0x6F0 PUSH2 0x40CF JUMP JUMPDEST JUMPDEST DUP2 PUSH1 0x2 DUP2 GT ISZERO PUSH2 0x704 JUMPI PUSH2 0x703 PUSH2 0x40CF JUMP JUMPDEST JUMPDEST SUB PUSH2 0x74E JUMPI DUP4 MLOAD DUP4 MLOAD EQ PUSH2 0x74D JUMPI PUSH1 0x40 MLOAD PUSH32 0x8C379A000000000000000000000000000000000000000000000000000000000 DUP2 MSTORE PUSH1 0x4 ADD PUSH2 0x744 SWAP1 PUSH2 0x40AF JUMP JUMPDEST PUSH1 0x40 MLOAD DUP1 SWAP2 SUB SWAP1 REVERT JUMPDEST JUMPDEST POP POP POP POP JUMP JUMPDEST PUSH1 0x60 PUSH1 0x2 DUP1 SLOAD PUSH2 0x763 SWAP1 PUSH2 0x412D JUMP JUMPDEST DUP1 PUSH1 0x1F ADD PUSH1 0x20 DUP1 SWAP2 DIV MUL PUSH1 0x20 ADD PUSH1 0x40 MLOAD SWAP1 DUP2 ADD PUSH1 0x40 MSTORE DUP1 SWAP3 SWAP2 SWAP1 DUP2 DUP2 MSTORE PUSH1 0x20 ADD DUP3 DUP1 SLOAD PUSH2 0x78F SWAP1 PUSH2 0x412D JUMP JUMPDEST DUP1 ISZERO PUSH2 0x7DC JUMPI DUP1 PUSH1 0x1F LT PUSH2 0x7B1 JUMPI PUSH2 0x100 DUP1 DUP4 SLOAD DIV MUL DUP4 MSTORE SWAP2 PUSH1 0x20 ADD SWAP2 PUSH2 0x7DC JUMP JUMPDEST DUP3 ADD SWAP2 SWAP1 PUSH1 0x0 MSTORE PUSH1 0x20 PUSH1 0x0 KECCAK256 SWAP1 JUMPDEST DUP2 SLOAD DUP2 MSTORE SWAP1 PUSH1 0x1 ADD SWAP1 PUSH1 0x20 ADD DUP1 DUP4 GT PUSH2 0x7BF JUMPI DUP3 SWAP1 SUB PUSH1 0x1F AND DUP3 ADD SWAP2 JUMPDEST POP POP POP POP POP SWAP1 POP SWAP2 SWAP1 POP JUMP JUMPDEST PUSH1 0x0 PUSH1 0x3 PUSH1 0x0 DUP4 DUP2 MSTORE PUSH1 0x20 ADD SWAP1 DUP2 MSTORE PUSH1 0x20 ADD PUSH1 0x0 KECCAK256 PUSH1 0x1 ADD SLOAD SWAP1 POP SWAP2 SWAP1 POP JUMP JUMPDEST PUSH2 0x810 PUSH2 0x150F JUMP JUMPDEST PUSH20 0xFFFFFFFFFFFFFFFFFFFFFFFFFFFFFFFFFFFFFFFF AND DUP6 PUSH20 0xFFFFFFFFFFFFFFFFFFFFFFFFFFFFFFFFFFFFFFFF AND EQ DUP1 PUSH2 0x856 JUMPI POP PUSH2 0x855 DUP6 PUSH2 0x850 PUSH2 0x150F JUMP JUMPDEST PUSH2 0x1027 JUMP JUMPDEST JUMPDEST PUSH2 0x895 JUMPI PUSH1 0x40 MLOAD PUSH32 0x8C379A000000000000000000000000000000000000000000000000000000000 DUP2 MSTORE PUSH1 0x4 ADD PUSH2 0x88C SWAP1 PUSH2 0x41D0 JUMP JUMPDEST PUSH1 0x40 MLOAD DUP1 SWAP2 SUB SWAP1 REVERT JUMPDEST PUSH2 0x8A2 DUP6 DUP6 DUP6 DUP6 DUP6 PUSH2 0x151E JUMP JUMPDEST POP POP POP POP POP JUMP JUMPDEST PUSH2 0x8B2 DUP3 PUSH2 0x7E8 JUMP JUMPDEST PUSH2 0x8BB DUP2 PUSH2 0x14E8 JUMP JUMPDEST PUSH2 0x8C5 DUP4 DUP4 PUSH2 0x183F JUMP JUMPDEST POP POP POP JUMP JUMPDEST PUSH2 0x8D2 PUSH2 0x150F JUMP JUMPDEST PUSH20 0xFFFFFFFFFFFFFFFFFFFFFFFFFFFFFFFFFFFFFFFF AND DUP2 PUSH20 0xFFFFFFFFFFFFFFFFFFFFFFFFFFFFFFFFFFFFFFFF AND EQ PUSH2 0x93F JUMPI PUSH1 0x40 MLOAD PUSH32 0x8C379A000000000000000000000000000000000000000000000000000000000 DUP2 MSTORE PUSH1 0x4 ADD PUSH2 0x936 SWAP1 PUSH2 0x4262 JUMP JUMPDEST PUSH1 0x40 MLOAD DUP1 SWAP2 SUB SWAP1 REVERT JUMPDEST PUSH2 0x949 DUP3 DUP3 PUSH2 0x1920 JUMP JUMPDEST POP POP JUMP JUMPDEST PUSH1 0x60 DUP2 MLOAD DUP4 MLOAD EQ PUSH2 0x993 JUMPI PUSH1 0x40 MLOAD PUSH32 0x8C379A000000000000000000000000000000000000000000000000000000000 DUP2 MSTORE PUSH1 0x4 ADD PUSH2 0x98A SWAP1 PUSH2 0x42F4 JUMP JUMPDEST PUSH1 0x40 MLOAD DUP1 SWAP2 SUB SWAP1 REVERT JUMPDEST PUSH1 0x0 DUP4 MLOAD PUSH8 0xFFFFFFFFFFFFFFFF DUP2 GT ISZERO PUSH2 0x9B0 JUMPI PUSH2 0x9AF PUSH2 0x3176 JUMP JUMPDEST JUMPDEST PUSH1 0x40 MLOAD SWAP1 DUP1 DUP3 MSTORE DUP1 PUSH1 0x20 MUL PUSH1 0x20 ADD DUP3 ADD PUSH1 0x40 MSTORE DUP1 ISZERO PUSH2 0x9DE JUMPI DUP2 PUSH1 0x20 ADD PUSH1 0x20 DUP3 MUL DUP1 CALLDATASIZE DUP4 CALLDATACOPY DUP1 DUP3 ADD SWAP2 POP POP SWAP1 POP JUMPDEST POP SWAP1 POP PUSH1 0x0 JUMPDEST DUP5 MLOAD DUP2 LT ISZERO PUSH2 0xA5B JUMPI PUSH2 0xA2B DUP6 DUP3 DUP2 MLOAD DUP2 LT PUSH2 0xA03 JUMPI PUSH2 0xA02 PUSH2 0x4314 JUMP JUMPDEST JUMPDEST PUSH1 0x20 MUL PUSH1 0x20 ADD ADD MLOAD DUP6 DUP4 DUP2 MLOAD DUP2 LT PUSH2 0xA1E JUMPI PUSH2 0xA1D PUSH2 0x4314 JUMP JUMPDEST JUMPDEST PUSH1 0x20 MUL PUSH1 0x20 ADD ADD MLOAD PUSH2 0x4D9 JUMP JUMPDEST DUP3 DUP3 DUP2 MLOAD DUP2 LT PUSH2 0xA3E JUMPI PUSH2 0xA3D PUSH2 0x4314 JUMP JUMPDEST JUMPDEST PUSH1 0x20 MUL PUSH1 0x20 ADD ADD DUP2 DUP2 MSTORE POP POP DUP1 PUSH2 0xA54 SWAP1 PUSH2 0x4372 JUMP JUMPDEST SWAP1 POP PUSH2 0x9E4 JUMP JUMPDEST POP DUP1 SWAP2 POP POP SWAP3 SWAP2 POP POP JUMP JUMPDEST PUSH1 0x0 PUSH32 0x0 PUSH20 0xFFFFFFFFFFFFFFFFFFFFFFFFFFFFFFFFFFFFFFFF AND DUP3 PUSH20 0xFFFFFFFFFFFFFFFFFFFFFFFFFFFFFFFFFFFFFFFF AND EQ SWAP1 POP SWAP2 SWAP1 POP JUMP JUMPDEST PUSH2 0xAC6 PUSH2 0x150F JUMP JUMPDEST PUSH20 0xFFFFFFFFFFFFFFFFFFFFFFFFFFFFFFFFFFFFFFFF AND DUP4 PUSH20 0xFFFFFFFFFFFFFFFFFFFFFFFFFFFFFFFFFFFFFFFF AND EQ DUP1 PUSH2 0xB0C JUMPI POP PUSH2 0xB0B DUP4 PUSH2 0xB06 PUSH2 0x150F JUMP JUMPDEST PUSH2 0x1027 JUMP JUMPDEST JUMPDEST PUSH2 0xB4B JUMPI PUSH1 0x40 MLOAD PUSH32 0x8C379A000000000000000000000000000000000000000000000000000000000 DUP2 MSTORE PUSH1 0x4 ADD PUSH2 0xB42 SWAP1 PUSH2 0x41D0 JUMP JUMPDEST PUSH1 0x40 MLOAD DUP1 SWAP2 SUB SWAP1 REVERT JUMPDEST PUSH2 0xB56 DUP4 DUP4 DUP4 PUSH2 0x1A02 JUMP JUMPDEST POP POP POP JUMP JUMPDEST PUSH32 0x9143236D81225394F3BD65B44E6E29FDF4D7BA0773D9BB3F5CC15EB80BA37777 DUP2 JUMP JUMPDEST PUSH1 0x0 PUSH1 0x3 PUSH1 0x0 DUP5 DUP2 MSTORE PUSH1 0x20 ADD SWAP1 DUP2 MSTORE PUSH1 0x20 ADD PUSH1 0x0 KECCAK256 PUSH1 0x0 ADD PUSH1 0x0 DUP4 PUSH20 0xFFFFFFFFFFFFFFFFFFFFFFFFFFFFFFFFFFFFFFFF AND PUSH20 0xFFFFFFFFFFFFFFFFFFFFFFFFFFFFFFFFFFFFFFFF AND DUP2 MSTORE PUSH1 0x20 ADD SWAP1 DUP2 MSTORE PUSH1 0x20 ADD PUSH1 0x0 KECCAK256 PUSH1 0x0 SWAP1 SLOAD SWAP1 PUSH2 0x100 EXP SWAP1 DIV PUSH1 0xFF AND SWAP1 POP SWAP3 SWAP2 POP POP JUMP JUMPDEST PUSH32 0x9143236D81225394F3BD65B44E6E29FDF4D7BA0773D9BB3F5CC15EB80BA37777 PUSH2 0xC14 DUP2 PUSH2 0x14E8 JUMP JUMPDEST PUSH1 0x0 PUSH1 0x1 PUSH8 0xFFFFFFFFFFFFFFFF DUP2 GT ISZERO PUSH2 0xC31 JUMPI PUSH2 0xC30 PUSH2 0x3176 JUMP JUMPDEST JUMPDEST PUSH1 0x40 MLOAD SWAP1 DUP1 DUP3 MSTORE DUP1 PUSH1 0x20 MUL PUSH1 0x20 ADD DUP3 ADD PUSH1 0x40 MSTORE DUP1 ISZERO PUSH2 0xC5F JUMPI DUP2 PUSH1 0x20 ADD PUSH1 0x20 DUP3 MUL DUP1 CALLDATASIZE DUP4 CALLDATACOPY DUP1 DUP3 ADD SWAP2 POP POP SWAP1 POP JUMPDEST POP SWAP1 POP DUP6 DUP2 PUSH1 0x0 DUP2 MLOAD DUP2 LT PUSH2 0xC77 JUMPI PUSH2 0xC76 PUSH2 0x4314 JUMP JUMPDEST JUMPDEST PUSH1 0x20 MUL PUSH1 0x20 ADD ADD SWAP1 PUSH20 0xFFFFFFFFFFFFFFFFFFFFFFFFFFFFFFFFFFFFFFFF AND SWAP1 DUP2 PUSH20 0xFFFFFFFFFFFFFFFFFFFFFFFFFFFFFFFFFFFFFFFF AND DUP2 MSTORE POP POP PUSH2 0xCBD DUP2 DUP7 DUP7 DUP7 PUSH2 0x5CD JUMP JUMPDEST PUSH1 0x0 PUSH1 0x2 DUP2 GT ISZERO PUSH2 0xCD1 JUMPI PUSH2 0xCD0 PUSH2 0x40CF JUMP JUMPDEST JUMPDEST DUP4 PUSH1 0x2 DUP2 GT ISZERO PUSH2 0xCE4 JUMPI PUSH2 0xCE3 PUSH2 0x40CF JUMP JUMPDEST JUMPDEST SUB PUSH2 0xD30 JUMPI PUSH2 0xD2A DUP7 DUP7 PUSH1 0x0 DUP2 MLOAD DUP2 LT PUSH2 0xD01 JUMPI PUSH2 0xD00 PUSH2 0x4314 JUMP JUMPDEST JUMPDEST PUSH1 0x20 MUL PUSH1 0x20 ADD ADD MLOAD DUP7 PUSH1 0x0 DUP2 MLOAD DUP2 LT PUSH2 0xD1D JUMPI PUSH2 0xD1C PUSH2 0x4314 JUMP JUMPDEST JUMPDEST PUSH1 0x20 MUL PUSH1 0x20 ADD ADD MLOAD PUSH2 0x1CD0 JUMP JUMPDEST POP PUSH2 0xD6F JUMP JUMPDEST PUSH1 0x1 PUSH1 0x2 DUP2 GT ISZERO PUSH2 0xD44 JUMPI PUSH2 0xD43 PUSH2 0x40CF JUMP JUMPDEST JUMPDEST DUP4 PUSH1 0x2 DUP2 GT ISZERO PUSH2 0xD57 JUMPI PUSH2 0xD56 PUSH2 0x40CF JUMP JUMPDEST JUMPDEST SUB PUSH2 0xD6D JUMPI PUSH2 0xD67 DUP7 DUP7 DUP7 PUSH2 0x1A02 JUMP JUMPDEST POP PUSH2 0xD6F JUMP JUMPDEST POP JUMPDEST POP POP POP POP POP JUMP JUMPDEST PUSH1 0x0 DUP1 SHL DUP2 JUMP JUMPDEST PUSH2 0xD8F PUSH2 0xD88 PUSH2 0x150F JUMP JUMPDEST DUP4 DUP4 PUSH2 0x1F16 JUMP JUMPDEST POP POP JUMP JUMPDEST PUSH1 0x0 DUP1 SHL PUSH2 0xDA0 DUP2 PUSH2 0x14E8 JUMP JUMPDEST PUSH2 0xDCA PUSH32 0x9143236D81225394F3BD65B44E6E29FDF4D7BA0773D9BB3F5CC15EB80BA37777 DUP4 PUSH2 0x183F JUMP JUMPDEST POP POP JUMP JUMPDEST PUSH32 0x9143236D81225394F3BD65B44E6E29FDF4D7BA0773D9BB3F5CC15EB80BA37777 PUSH2 0xDF8 DUP2 PUSH2 0x14E8 JUMP JUMPDEST PUSH2 0xE04 DUP7 DUP7 DUP7 DUP7 PUSH2 0x5CD JUMP JUMPDEST PUSH32 0x832711906223D7B1424466041E692F503B3467CDB4D5DBC5F746ADFC531DA26D DUP8 DUP8 DUP8 DUP8 DUP8 DUP8 PUSH1 0x40 MLOAD PUSH2 0xE3D SWAP7 SWAP6 SWAP5 SWAP4 SWAP3 SWAP2 SWAP1 PUSH2 0x4524 JUMP JUMPDEST PUSH1 0x40 MLOAD DUP1 SWAP2 SUB SWAP1 LOG1 PUSH1 0x0 PUSH1 0x2 DUP2 GT ISZERO PUSH2 0xE59 JUMPI PUSH2 0xE58 PUSH2 0x40CF JUMP JUMPDEST JUMPDEST DUP4 PUSH1 0x2 DUP2 GT ISZERO PUSH2 0xE6C JUMPI PUSH2 0xE6B PUSH2 0x40CF JUMP JUMPDEST JUMPDEST SUB PUSH2 0xED4 JUMPI PUSH2 0xECF DUP8 DUP8 PUSH1 0x0 DUP2 MLOAD DUP2 LT PUSH2 0xE89 JUMPI PUSH2 0xE88 PUSH2 0x4314 JUMP JUMPDEST JUMPDEST PUSH1 0x20 MUL PUSH1 0x20 ADD ADD MLOAD DUP8 PUSH1 0x0 DUP2 MLOAD DUP2 LT PUSH2 0xEA5 JUMPI PUSH2 0xEA4 PUSH2 0x4314 JUMP JUMPDEST JUMPDEST PUSH1 0x20 MUL PUSH1 0x20 ADD ADD MLOAD DUP8 PUSH1 0x0 DUP2 MLOAD DUP2 LT PUSH2 0xEC1 JUMPI PUSH2 0xEC0 PUSH2 0x4314 JUMP JUMPDEST JUMPDEST PUSH1 0x20 MUL PUSH1 0x20 ADD ADD MLOAD DUP7 PUSH2 0x2082 JUMP JUMPDEST PUSH2 0xFD9 JUMP JUMPDEST PUSH1 0x1 PUSH1 0x2 DUP2 GT ISZERO PUSH2 0xEE8 JUMPI PUSH2 0xEE7 PUSH2 0x40CF JUMP JUMPDEST JUMPDEST DUP4 PUSH1 0x2 DUP2 GT ISZERO PUSH2 0xEFB JUMPI PUSH2 0xEFA PUSH2 0x40CF JUMP JUMPDEST JUMPDEST SUB PUSH2 0xF2D JUMPI PUSH2 0xF28 DUP8 DUP8 PUSH1 0x0 DUP2 MLOAD DUP2 LT PUSH2 0xF18 JUMPI PUSH2 0xF17 PUSH2 0x4314 JUMP JUMPDEST JUMPDEST PUSH1 0x20 MUL PUSH1 0x20 ADD ADD MLOAD DUP8 DUP8 DUP7 PUSH2 0x151E JUMP JUMPDEST PUSH2 0xFD9 JUMP JUMPDEST PUSH1 0x2 DUP1 DUP2 GT ISZERO PUSH2 0xF40 JUMPI PUSH2 0xF3F PUSH2 0x40CF JUMP JUMPDEST JUMPDEST DUP4 PUSH1 0x2 DUP2 GT ISZERO PUSH2 0xF53 JUMPI PUSH2 0xF52 PUSH2 0x40CF JUMP JUMPDEST JUMPDEST SUB PUSH2 0xFD8 JUMPI PUSH1 0x0 JUMPDEST DUP7 MLOAD DUP2 LT ISZERO PUSH2 0xFD2 JUMPI PUSH2 0xFBF DUP9 DUP9 DUP4 DUP2 MLOAD DUP2 LT PUSH2 0xF7B JUMPI PUSH2 0xF7A PUSH2 0x4314 JUMP JUMPDEST JUMPDEST PUSH1 0x20 MUL PUSH1 0x20 ADD ADD MLOAD DUP9 DUP5 DUP2 MLOAD DUP2 LT PUSH2 0xF96 JUMPI PUSH2 0xF95 PUSH2 0x4314 JUMP JUMPDEST JUMPDEST PUSH1 0x20 MUL PUSH1 0x20 ADD ADD MLOAD DUP9 DUP6 DUP2 MLOAD DUP2 LT PUSH2 0xFB1 JUMPI PUSH2 0xFB0 PUSH2 0x4314 JUMP JUMPDEST JUMPDEST PUSH1 0x20 MUL PUSH1 0x20 ADD ADD MLOAD DUP8 PUSH2 0x2082 JUMP JUMPDEST DUP1 DUP1 PUSH2 0xFCA SWAP1 PUSH2 0x4372 JUMP JUMPDEST SWAP2 POP POP PUSH2 0xF5B JUMP JUMPDEST POP PUSH2 0xFD9 JUMP JUMPDEST JUMPDEST POP POP POP POP POP POP POP JUMP JUMPDEST PUSH32 0x9F2DF0FED2C77648DE5860A4CC508CD0818C85B8B8A1AB4CEEEF8D981C8956A6 DUP2 JUMP JUMPDEST PUSH2 0x100F DUP3 PUSH2 0x7E8 JUMP JUMPDEST PUSH2 0x1018 DUP2 PUSH2 0x14E8 JUMP JUMPDEST PUSH2 0x1022 DUP4 DUP4 PUSH2 0x1920 JUMP JUMPDEST POP POP POP JUMP JUMPDEST PUSH1 0x0 PUSH1 0x1 PUSH1 0x0 DUP5 PUSH20 0xFFFFFFFFFFFFFFFFFFFFFFFFFFFFFFFFFFFFFFFF AND PUSH20 0xFFFFFFFFFFFFFFFFFFFFFFFFFFFFFFFFFFFFFFFF AND DUP2 MSTORE PUSH1 0x20 ADD SWAP1 DUP2 MSTORE PUSH1 0x20 ADD PUSH1 0x0 KECCAK256 PUSH1 0x0 DUP4 PUSH20 0xFFFFFFFFFFFFFFFFFFFFFFFFFFFFFFFFFFFFFFFF AND PUSH20 0xFFFFFFFFFFFFFFFFFFFFFFFFFFFFFFFFFFFFFFFF AND DUP2 MSTORE PUSH1 0x20 ADD SWAP1 DUP2 MSTORE PUSH1 0x20 ADD PUSH1 0x0 KECCAK256 PUSH1 0x0 SWAP1 SLOAD SWAP1 PUSH2 0x100 EXP SWAP1 DIV PUSH1 0xFF AND SWAP1 POP SWAP3 SWAP2 POP POP JUMP JUMPDEST PUSH2 0x10C3 PUSH2 0x150F JUMP JUMPDEST PUSH20 0xFFFFFFFFFFFFFFFFFFFFFFFFFFFFFFFFFFFFFFFF AND DUP6 PUSH20 0xFFFFFFFFFFFFFFFFFFFFFFFFFFFFFFFFFFFFFFFF AND EQ DUP1 PUSH2 0x1109 JUMPI POP PUSH2 0x1108 DUP6 PUSH2 0x1103 PUSH2 0x150F JUMP JUMPDEST PUSH2 0x1027 JUMP JUMPDEST JUMPDEST PUSH2 0x1148 JUMPI PUSH1 0x40 MLOAD PUSH32 0x8C379A000000000000000000000000000000000000000000000000000000000 DUP2 MSTORE PUSH1 0x4 ADD PUSH2 0x113F SWAP1 PUSH2 0x41D0 JUMP JUMPDEST PUSH1 0x40 MLOAD DUP1 SWAP2 SUB SWAP1 REVERT JUMPDEST PUSH2 0x1155 DUP6 DUP6 DUP6 DUP6 DUP6 PUSH2 0x2082 JUMP JUMPDEST POP POP POP POP POP JUMP JUMPDEST PUSH2 0x1164 PUSH2 0x150F JUMP JUMPDEST PUSH20 0xFFFFFFFFFFFFFFFFFFFFFFFFFFFFFFFFFFFFFFFF AND DUP4 PUSH20 0xFFFFFFFFFFFFFFFFFFFFFFFFFFFFFFFFFFFFFFFF AND EQ DUP1 PUSH2 0x11AA JUMPI POP PUSH2 0x11A9 DUP4 PUSH2 0x11A4 PUSH2 0x150F JUMP JUMPDEST PUSH2 0x1027 JUMP JUMPDEST JUMPDEST PUSH2 0x11E9 JUMPI PUSH1 0x40 MLOAD PUSH32 0x8C379A000000000000000000000000000000000000000000000000000000000 DUP2 MSTORE PUSH1 0x4 ADD PUSH2 0x11E0 SWAP1 PUSH2 0x41D0 JUMP JUMPDEST PUSH1 0x40 MLOAD DUP1 SWAP2 SUB SWAP1 REVERT JUMPDEST PUSH2 0x11F4 DUP4 DUP4 DUP4 PUSH2 0x1CD0 JUMP JUMPDEST POP POP POP JUMP JUMPDEST PUSH32 0x9F2DF0FED2C77648DE5860A4CC508CD0818C85B8B8A1AB4CEEEF8D981C8956A6 PUSH2 0x1223 DUP2 PUSH2 0x14E8 JUMP JUMPDEST PUSH32 0x87B8BA4F1BA2E813AF31D438ACE9CF4FA3F0E82E86B679CD044AE1B07276C9C5 DUP7 DUP7 DUP7 DUP7 DUP7 PUSH1 0x40 MLOAD PUSH2 0x125A SWAP6 SWAP5 SWAP4 SWAP3 SWAP2 SWAP1 PUSH2 0x45A1 JUMP JUMPDEST PUSH1 0x40 MLOAD DUP1 SWAP2 SUB SWAP1 LOG1 PUSH2 0x126E DUP7 DUP7 DUP7 DUP7 PUSH2 0x5CD JUMP JUMPDEST PUSH1 0x0 PUSH1 0x2 DUP2 GT ISZERO PUSH2 0x1282 JUMPI PUSH2 0x1281 PUSH2 0x40CF JUMP JUMPDEST JUMPDEST DUP4 PUSH1 0x2 DUP2 GT ISZERO PUSH2 0x1295 JUMPI PUSH2 0x1294 PUSH2 0x40CF JUMP JUMPDEST JUMPDEST SUB PUSH2 0x130B JUMPI PUSH2 0x1306 DUP7 PUSH1 0x0 DUP2 MLOAD DUP2 LT PUSH2 0x12B1 JUMPI PUSH2 0x12B0 PUSH2 0x4314 JUMP JUMPDEST JUMPDEST PUSH1 0x20 MUL PUSH1 0x20 ADD ADD MLOAD DUP7 PUSH1 0x0 DUP2 MLOAD DUP2 LT PUSH2 0x12CD JUMPI PUSH2 0x12CC PUSH2 0x4314 JUMP JUMPDEST JUMPDEST PUSH1 0x20 MUL PUSH1 0x20 ADD ADD MLOAD DUP7 PUSH1 0x0 DUP2 MLOAD DUP2 LT PUSH2 0x12E9 JUMPI PUSH2 0x12E8 PUSH2 0x4314 JUMP JUMPDEST JUMPDEST PUSH1 0x20 MUL PUSH1 0x20 ADD ADD MLOAD PUSH1 0x40 MLOAD DUP1 PUSH1 0x20 ADD PUSH1 0x40 MSTORE DUP1 PUSH1 0x0 DUP2 MSTORE POP PUSH2 0x231D JUMP JUMPDEST PUSH2 0x142C JUMP JUMPDEST PUSH1 0x1 PUSH1 0x2 DUP2 GT ISZERO PUSH2 0x131F JUMPI PUSH2 0x131E PUSH2 0x40CF JUMP JUMPDEST JUMPDEST DUP4 PUSH1 0x2 DUP2 GT ISZERO PUSH2 0x1332 JUMPI PUSH2 0x1331 PUSH2 0x40CF JUMP JUMPDEST JUMPDEST SUB PUSH2 0x1372 JUMPI PUSH2 0x136D DUP7 PUSH1 0x0 DUP2 MLOAD DUP2 LT PUSH2 0x134E JUMPI PUSH2 0x134D PUSH2 0x4314 JUMP JUMPDEST JUMPDEST PUSH1 0x20 MUL PUSH1 0x20 ADD ADD MLOAD DUP7 DUP7 PUSH1 0x40 MLOAD DUP1 PUSH1 0x20 ADD PUSH1 0x40 MSTORE DUP1 PUSH1 0x0 DUP2 MSTORE POP PUSH2 0x24CD JUMP JUMPDEST PUSH2 0x142C JUMP JUMPDEST PUSH1 0x2 DUP1 DUP2 GT ISZERO PUSH2 0x1385 JUMPI PUSH2 0x1384 PUSH2 0x40CF JUMP JUMPDEST JUMPDEST DUP4 PUSH1 0x2 DUP2 GT ISZERO PUSH2 0x1398 JUMPI PUSH2 0x1397 PUSH2 0x40CF JUMP JUMPDEST JUMPDEST SUB PUSH2 0x142B JUMPI PUSH1 0x0 JUMPDEST DUP7 MLOAD DUP2 LT ISZERO PUSH2 0x1425 JUMPI PUSH2 0x1412 DUP8 DUP3 DUP2 MLOAD DUP2 LT PUSH2 0x13BF JUMPI PUSH2 0x13BE PUSH2 0x4314 JUMP JUMPDEST JUMPDEST PUSH1 0x20 MUL PUSH1 0x20 ADD ADD MLOAD DUP8 DUP4 DUP2 MLOAD DUP2 LT PUSH2 0x13DA JUMPI PUSH2 0x13D9 PUSH2 0x4314 JUMP JUMPDEST JUMPDEST PUSH1 0x20 MUL PUSH1 0x20 ADD ADD MLOAD DUP8 DUP5 DUP2 MLOAD DUP2 LT PUSH2 0x13F5 JUMPI PUSH2 0x13F4 PUSH2 0x4314 JUMP JUMPDEST JUMPDEST PUSH1 0x20 MUL PUSH1 0x20 ADD ADD MLOAD PUSH1 0x40 MLOAD DUP1 PUSH1 0x20 ADD PUSH1 0x40 MSTORE DUP1 PUSH1 0x0 DUP2 MSTORE POP PUSH2 0x231D JUMP JUMPDEST DUP1 DUP1 PUSH2 0x141D SWAP1 PUSH2 0x4372 JUMP JUMPDEST SWAP2 POP POP PUSH2 0x13A0 JUMP JUMPDEST POP PUSH2 0x142C JUMP JUMPDEST JUMPDEST POP POP POP POP POP POP JUMP JUMPDEST PUSH1 0x0 PUSH2 0x143F CALLER PUSH2 0xA66 JUMP JUMPDEST ISZERO PUSH2 0x1453 JUMPI PUSH1 0x14 CALLDATASIZE SUB CALLDATALOAD PUSH1 0x60 SHR SWAP1 POP PUSH2 0x1462 JUMP JUMPDEST PUSH2 0x145B PUSH2 0x1466 JUMP JUMPDEST SWAP1 POP PUSH2 0x1463 JUMP JUMPDEST JUMPDEST SWAP1 JUMP JUMPDEST PUSH1 0x0 CALLER SWAP1 POP SWAP1 JUMP JUMPDEST PUSH1 0x0 PUSH32 0x7965DB0B00000000000000000000000000000000000000000000000000000000 PUSH28 0xFFFFFFFFFFFFFFFFFFFFFFFFFFFFFFFFFFFFFFFFFFFFFFFFFFFFFFFF NOT AND DUP3 PUSH28 0xFFFFFFFFFFFFFFFFFFFFFFFFFFFFFFFFFFFFFFFFFFFFFFFFFFFFFFFF NOT AND EQ DUP1 PUSH2 0x14E1 JUMPI POP PUSH2 0x14E0 DUP3 PUSH2 0x26F9 JUMP JUMPDEST JUMPDEST SWAP1 POP SWAP2 SWAP1 POP JUMP JUMPDEST PUSH2 0x14F9 DUP2 PUSH2 0x14F4 PUSH2 0x150F JUMP JUMPDEST PUSH2 0x27DB JUMP JUMPDEST POP JUMP JUMPDEST DUP1 PUSH1 0x2 SWAP1 DUP2 PUSH2 0x150B SWAP2 SWAP1 PUSH2 0x47BC JUMP JUMPDEST POP POP JUMP JUMPDEST PUSH1 0x0 PUSH2 0x1519 PUSH2 0x1434 JUMP JUMPDEST SWAP1 POP SWAP1 JUMP JUMPDEST DUP2 MLOAD DUP4 MLOAD EQ PUSH2 0x1562 JUMPI PUSH1 0x40 MLOAD PUSH32 0x8C379A000000000000000000000000000000000000000000000000000000000 DUP2 MSTORE PUSH1 0x4 ADD PUSH2 0x1559 SWAP1 PUSH2 0x4900 JUMP JUMPDEST PUSH1 0x40 MLOAD DUP1 SWAP2 SUB SWAP1 REVERT JUMPDEST PUSH1 0x0 PUSH20 0xFFFFFFFFFFFFFFFFFFFFFFFFFFFFFFFFFFFFFFFF AND DUP5 PUSH20 0xFFFFFFFFFFFFFFFFFFFFFFFFFFFFFFFFFFFFFFFF AND SUB PUSH2 0x15D1 JUMPI PUSH1 0x40 MLOAD PUSH32 0x8C379A000000000000000000000000000000000000000000000000000000000 DUP2 MSTORE PUSH1 0x4 ADD PUSH2 0x15C8 SWAP1 PUSH2 0x4992 JUMP JUMPDEST PUSH1 0x40 MLOAD DUP1 SWAP2 SUB SWAP1 REVERT JUMPDEST PUSH1 0x0 PUSH2 0x15DB PUSH2 0x150F JUMP JUMPDEST SWAP1 POP PUSH2 0x15EB DUP2 DUP8 DUP8 DUP8 DUP8 DUP8 PUSH2 0x2860 JUMP JUMPDEST PUSH1 0x0 JUMPDEST DUP5 MLOAD DUP2 LT ISZERO PUSH2 0x179C JUMPI PUSH1 0x0 DUP6 DUP3 DUP2 MLOAD DUP2 LT PUSH2 0x160C JUMPI PUSH2 0x160B PUSH2 0x4314 JUMP JUMPDEST JUMPDEST PUSH1 0x20 MUL PUSH1 0x20 ADD ADD MLOAD SWAP1 POP PUSH1 0x0 DUP6 DUP4 DUP2 MLOAD DUP2 LT PUSH2 0x162B JUMPI PUSH2 0x162A PUSH2 0x4314 JUMP JUMPDEST JUMPDEST PUSH1 0x20 MUL PUSH1 0x20 ADD ADD MLOAD SWAP1 POP PUSH1 0x0 DUP1 PUSH1 0x0 DUP5 DUP2 MSTORE PUSH1 0x20 ADD SWAP1 DUP2 MSTORE PUSH1 0x20 ADD PUSH1 0x0 KECCAK256 PUSH1 0x0 DUP12 PUSH20 0xFFFFFFFFFFFFFFFFFFFFFFFFFFFFFFFFFFFFFFFF AND PUSH20 0xFFFFFFFFFFFFFFFFFFFFFFFFFFFFFFFFFFFFFFFF AND DUP2 MSTORE PUSH1 0x20 ADD SWAP1 DUP2 MSTORE PUSH1 0x20 ADD PUSH1 0x0 KECCAK256 SLOAD SWAP1 POP DUP2 DUP2 LT ISZERO PUSH2 0x16CC JUMPI PUSH1 0x40 MLOAD PUSH32 0x8C379A000000000000000000000000000000000000000000000000000000000 DUP2 MSTORE PUSH1 0x4 ADD PUSH2 0x16C3 SWAP1 PUSH2 0x4A24 JUMP JUMPDEST PUSH1 0x40 MLOAD DUP1 SWAP2 SUB SWAP1 REVERT JUMPDEST DUP2 DUP2 SUB PUSH1 0x0 DUP1 DUP6 DUP2 MSTORE PUSH1 0x20 ADD SWAP1 DUP2 MSTORE PUSH1 0x20 ADD PUSH1 0x0 KECCAK256 PUSH1 0x0 DUP13 PUSH20 0xFFFFFFFFFFFFFFFFFFFFFFFFFFFFFFFFFFFFFFFF AND PUSH20 0xFFFFFFFFFFFFFFFFFFFFFFFFFFFFFFFFFFFFFFFF AND DUP2 MSTORE PUSH1 0x20 ADD SWAP1 DUP2 MSTORE PUSH1 0x20 ADD PUSH1 0x0 KECCAK256 DUP2 SWAP1 SSTORE POP DUP2 PUSH1 0x0 DUP1 DUP6 DUP2 MSTORE PUSH1 0x20 ADD SWAP1 DUP2 MSTORE PUSH1 0x20 ADD PUSH1 0x0 KECCAK256 PUSH1 0x0 DUP12 PUSH20 0xFFFFFFFFFFFFFFFFFFFFFFFFFFFFFFFFFFFFFFFF AND PUSH20 0xFFFFFFFFFFFFFFFFFFFFFFFFFFFFFFFFFFFFFFFF AND DUP2 MSTORE PUSH1 0x20 ADD SWAP1 DUP2 MSTORE PUSH1 0x20 ADD PUSH1 0x0 KECCAK256 PUSH1 0x0 DUP3 DUP3 SLOAD PUSH2 0x1781 SWAP2 SWAP1 PUSH2 0x4A44 JUMP JUMPDEST SWAP3 POP POP DUP2 SWAP1 SSTORE POP POP POP POP DUP1 PUSH2 0x1795 SWAP1 PUSH2 0x4372 JUMP JUMPDEST SWAP1 POP PUSH2 0x15EE JUMP JUMPDEST POP DUP5 PUSH20 0xFFFFFFFFFFFFFFFFFFFFFFFFFFFFFFFFFFFFFFFF AND DUP7 PUSH20 0xFFFFFFFFFFFFFFFFFFFFFFFFFFFFFFFFFFFFFFFF AND DUP3 PUSH20 0xFFFFFFFFFFFFFFFFFFFFFFFFFFFFFFFFFFFFFFFF AND PUSH32 0x4A39DC06D4C0DBC64B70AF90FD698A233A518AA5D07E595D983B8C0526C8F7FB DUP8 DUP8 PUSH1 0x40 MLOAD PUSH2 0x1813 SWAP3 SWAP2 SWAP1 PUSH2 0x4A78 JUMP JUMPDEST PUSH1 0x40 MLOAD DUP1 SWAP2 SUB SWAP1 LOG4 PUSH2 0x1829 DUP2 DUP8 DUP8 DUP8 DUP8 DUP8 PUSH2 0x2868 JUMP JUMPDEST PUSH2 0x1837 DUP2 DUP8 DUP8 DUP8 DUP8 DUP8 PUSH2 0x2870 JUMP JUMPDEST POP POP POP POP POP POP JUMP JUMPDEST PUSH2 0x1849 DUP3 DUP3 PUSH2 0xB7F JUMP JUMPDEST PUSH2 0x191C JUMPI PUSH1 0x1 PUSH1 0x3 PUSH1 0x0 DUP5 DUP2 MSTORE PUSH1 0x20 ADD SWAP1 DUP2 MSTORE PUSH1 0x20 ADD PUSH1 0x0 KECCAK256 PUSH1 0x0 ADD PUSH1 0x0 DUP4 PUSH20 0xFFFFFFFFFFFFFFFFFFFFFFFFFFFFFFFFFFFFFFFF AND PUSH20 0xFFFFFFFFFFFFFFFFFFFFFFFFFFFFFFFFFFFFFFFF AND DUP2 MSTORE PUSH1 0x20 ADD SWAP1 DUP2 MSTORE PUSH1 0x20 ADD PUSH1 0x0 KECCAK256 PUSH1 0x0 PUSH2 0x100 EXP DUP2 SLOAD DUP2 PUSH1 0xFF MUL NOT AND SWAP1 DUP4 ISZERO ISZERO MUL OR SWAP1 SSTORE POP PUSH2 0x18C1 PUSH2 0x150F JUMP JUMPDEST PUSH20 0xFFFFFFFFFFFFFFFFFFFFFFFFFFFFFFFFFFFFFFFF AND DUP2 PUSH20 0xFFFFFFFFFFFFFFFFFFFFFFFFFFFFFFFFFFFFFFFF AND DUP4 PUSH32 0x2F8788117E7EFF1D82E926EC794901D17C78024A50270940304540A733656F0D PUSH1 0x40 MLOAD PUSH1 0x40 MLOAD DUP1 SWAP2 SUB SWAP1 LOG4 JUMPDEST POP POP JUMP JUMPDEST PUSH2 0x192A DUP3 DUP3 PUSH2 0xB7F JUMP JUMPDEST ISZERO PUSH2 0x19FE JUMPI PUSH1 0x0 PUSH1 0x3 PUSH1 0x0 DUP5 DUP2 MSTORE PUSH1 0x20 ADD SWAP1 DUP2 MSTORE PUSH1 0x20 ADD PUSH1 0x0 KECCAK256 PUSH1 0x0 ADD PUSH1 0x0 DUP4 PUSH20 0xFFFFFFFFFFFFFFFFFFFFFFFFFFFFFFFFFFFFFFFF AND PUSH20 0xFFFFFFFFFFFFFFFFFFFFFFFFFFFFFFFFFFFFFFFF AND DUP2 MSTORE PUSH1 0x20 ADD SWAP1 DUP2 MSTORE PUSH1 0x20 ADD PUSH1 0x0 KECCAK256 PUSH1 0x0 PUSH2 0x100 EXP DUP2 SLOAD DUP2 PUSH1 0xFF MUL NOT AND SWAP1 DUP4 ISZERO ISZERO MUL OR SWAP1 SSTORE POP PUSH2 0x19A3 PUSH2 0x150F JUMP JUMPDEST PUSH20 0xFFFFFFFFFFFFFFFFFFFFFFFFFFFFFFFFFFFFFFFF AND DUP2 PUSH20 0xFFFFFFFFFFFFFFFFFFFFFFFFFFFFFFFFFFFFFFFF AND DUP4 PUSH32 0xF6391F5C32D9C69D2A47EA670B442974B53935D1EDC7FD64EB21E047A839171B PUSH1 0x40 MLOAD PUSH1 0x40 MLOAD DUP1 SWAP2 SUB SWAP1 LOG4 JUMPDEST POP POP JUMP JUMPDEST PUSH1 0x0 PUSH20 0xFFFFFFFFFFFFFFFFFFFFFFFFFFFFFFFFFFFFFFFF AND DUP4 PUSH20 0xFFFFFFFFFFFFFFFFFFFFFFFFFFFFFFFFFFFFFFFF AND SUB PUSH2 0x1A71 JUMPI PUSH1 0x40 MLOAD PUSH32 0x8C379A000000000000000000000000000000000000000000000000000000000 DUP2 MSTORE PUSH1 0x4 ADD PUSH2 0x1A68 SWAP1 PUSH2 0x4B21 JUMP JUMPDEST PUSH1 0x40 MLOAD DUP1 SWAP2 SUB SWAP1 REVERT JUMPDEST DUP1 MLOAD DUP3 MLOAD EQ PUSH2 0x1AB5 JUMPI PUSH1 0x40 MLOAD PUSH32 0x8C379A000000000000000000000000000000000000000000000000000000000 DUP2 MSTORE PUSH1 0x4 ADD PUSH2 0x1AAC SWAP1 PUSH2 0x4900 JUMP JUMPDEST PUSH1 0x40 MLOAD DUP1 SWAP2 SUB SWAP1 REVERT JUMPDEST PUSH1 0x0 PUSH2 0x1ABF PUSH2 0x150F JUMP JUMPDEST SWAP1 POP PUSH2 0x1ADF DUP2 DUP6 PUSH1 0x0 DUP7 DUP7 PUSH1 0x40 MLOAD DUP1 PUSH1 0x20 ADD PUSH1 0x40 MSTORE DUP1 PUSH1 0x0 DUP2 MSTORE POP PUSH2 0x2860 JUMP JUMPDEST PUSH1 0x0 JUMPDEST DUP4 MLOAD DUP2 LT ISZERO PUSH2 0x1C2C JUMPI PUSH1 0x0 DUP5 DUP3 DUP2 MLOAD DUP2 LT PUSH2 0x1B00 JUMPI PUSH2 0x1AFF PUSH2 0x4314 JUMP JUMPDEST JUMPDEST PUSH1 0x20 MUL PUSH1 0x20 ADD ADD MLOAD SWAP1 POP PUSH1 0x0 DUP5 DUP4 DUP2 MLOAD DUP2 LT PUSH2 0x1B1F JUMPI PUSH2 0x1B1E PUSH2 0x4314 JUMP JUMPDEST JUMPDEST PUSH1 0x20 MUL PUSH1 0x20 ADD ADD MLOAD SWAP1 POP PUSH1 0x0 DUP1 PUSH1 0x0 DUP5 DUP2 MSTORE PUSH1 0x20 ADD SWAP1 DUP2 MSTORE PUSH1 0x20 ADD PUSH1 0x0 KECCAK256 PUSH1 0x0 DUP10 PUSH20 0xFFFFFFFFFFFFFFFFFFFFFFFFFFFFFFFFFFFFFFFF AND PUSH20 0xFFFFFFFFFFFFFFFFFFFFFFFFFFFFFFFFFFFFFFFF AND DUP2 MSTORE PUSH1 0x20 ADD SWAP1 DUP2 MSTORE PUSH1 0x20 ADD PUSH1 0x0 KECCAK256 SLOAD SWAP1 POP DUP2 DUP2 LT ISZERO PUSH2 0x1BC0 JUMPI PUSH1 0x40 MLOAD PUSH32 0x8C379A000000000000000000000000000000000000000000000000000000000 DUP2 MSTORE PUSH1 0x4 ADD PUSH2 0x1BB7 SWAP1 PUSH2 0x4BB3 JUMP JUMPDEST PUSH1 0x40 MLOAD DUP1 SWAP2 SUB SWAP1 REVERT JUMPDEST DUP2 DUP2 SUB PUSH1 0x0 DUP1 DUP6 DUP2 MSTORE PUSH1 0x20 ADD SWAP1 DUP2 MSTORE PUSH1 0x20 ADD PUSH1 0x0 KECCAK256 PUSH1 0x0 DUP11 PUSH20 0xFFFFFFFFFFFFFFFFFFFFFFFFFFFFFFFFFFFFFFFF AND PUSH20 0xFFFFFFFFFFFFFFFFFFFFFFFFFFFFFFFFFFFFFFFF AND DUP2 MSTORE PUSH1 0x20 ADD SWAP1 DUP2 MSTORE PUSH1 0x20 ADD PUSH1 0x0 KECCAK256 DUP2 SWAP1 SSTORE POP POP POP POP DUP1 DUP1 PUSH2 0x1C24 SWAP1 PUSH2 0x4372 JUMP JUMPDEST SWAP2 POP POP PUSH2 0x1AE2 JUMP JUMPDEST POP PUSH1 0x0 PUSH20 0xFFFFFFFFFFFFFFFFFFFFFFFFFFFFFFFFFFFFFFFF AND DUP5 PUSH20 0xFFFFFFFFFFFFFFFFFFFFFFFFFFFFFFFFFFFFFFFF AND DUP3 PUSH20 0xFFFFFFFFFFFFFFFFFFFFFFFFFFFFFFFFFFFFFFFF AND PUSH32 0x4A39DC06D4C0DBC64B70AF90FD698A233A518AA5D07E595D983B8C0526C8F7FB DUP7 DUP7 PUSH1 0x40 MLOAD PUSH2 0x1CA4 SWAP3 SWAP2 SWAP1 PUSH2 0x4A78 JUMP JUMPDEST PUSH1 0x40 MLOAD DUP1 SWAP2 SUB SWAP1 LOG4 PUSH2 0x1CCA DUP2 DUP6 PUSH1 0x0 DUP7 DUP7 PUSH1 0x40 MLOAD DUP1 PUSH1 0x20 ADD PUSH1 0x40 MSTORE DUP1 PUSH1 0x0 DUP2 MSTORE POP PUSH2 0x2868 JUMP JUMPDEST POP POP POP POP JUMP JUMPDEST PUSH1 0x0 PUSH20 0xFFFFFFFFFFFFFFFFFFFFFFFFFFFFFFFFFFFFFFFF AND DUP4 PUSH20 0xFFFFFFFFFFFFFFFFFFFFFFFFFFFFFFFFFFFFFFFF AND SUB PUSH2 0x1D3F JUMPI PUSH1 0x40 MLOAD PUSH32 0x8C379A000000000000000000000000000000000000000000000000000000000 DUP2 MSTORE PUSH1 0x4 ADD PUSH2 0x1D36 SWAP1 PUSH2 0x4B21 JUMP JUMPDEST PUSH1 0x40 MLOAD DUP1 SWAP2 SUB SWAP1 REVERT JUMPDEST PUSH1 0x0 PUSH2 0x1D49 PUSH2 0x150F JUMP JUMPDEST SWAP1 POP PUSH1 0x0 PUSH2 0x1D56 DUP5 PUSH2 0x2A47 JUMP JUMPDEST SWAP1 POP PUSH1 0x0 PUSH2 0x1D63 DUP5 PUSH2 0x2A47 JUMP JUMPDEST SWAP1 POP PUSH2 0x1D83 DUP4 DUP8 PUSH1 0x0 DUP6 DUP6 PUSH1 0x40 MLOAD DUP1 PUSH1 0x20 ADD PUSH1 0x40 MSTORE DUP1 PUSH1 0x0 DUP2 MSTORE POP PUSH2 0x2860 JUMP JUMPDEST PUSH1 0x0 DUP1 PUSH1 0x0 DUP8 DUP2 MSTORE PUSH1 0x20 ADD SWAP1 DUP2 MSTORE PUSH1 0x20 ADD PUSH1 0x0 KECCAK256 PUSH1 0x0 DUP9 PUSH20 0xFFFFFFFFFFFFFFFFFFFFFFFFFFFFFFFFFFFFFFFF AND PUSH20 0xFFFFFFFFFFFFFFFFFFFFFFFFFFFFFFFFFFFFFFFF AND DUP2 MSTORE PUSH1 0x20 ADD SWAP1 DUP2 MSTORE PUSH1 0x20 ADD PUSH1 0x0 KECCAK256 SLOAD SWAP1 POP DUP5 DUP2 LT ISZERO PUSH2 0x1E1A JUMPI PUSH1 0x40 MLOAD PUSH32 0x8C379A000000000000000000000000000000000000000000000000000000000 DUP2 MSTORE PUSH1 0x4 ADD PUSH2 0x1E11 SWAP1 PUSH2 0x4BB3 JUMP JUMPDEST PUSH1 0x40 MLOAD DUP1 SWAP2 SUB SWAP1 REVERT JUMPDEST DUP5 DUP2 SUB PUSH1 0x0 DUP1 DUP9 DUP2 MSTORE PUSH1 0x20 ADD SWAP1 DUP2 MSTORE PUSH1 0x20 ADD PUSH1 0x0 KECCAK256 PUSH1 0x0 DUP10 PUSH20 0xFFFFFFFFFFFFFFFFFFFFFFFFFFFFFFFFFFFFFFFF AND PUSH20 0xFFFFFFFFFFFFFFFFFFFFFFFFFFFFFFFFFFFFFFFF AND DUP2 MSTORE PUSH1 0x20 ADD SWAP1 DUP2 MSTORE PUSH1 0x20 ADD PUSH1 0x0 KECCAK256 DUP2 SWAP1 SSTORE POP PUSH1 0x0 PUSH20 0xFFFFFFFFFFFFFFFFFFFFFFFFFFFFFFFFFFFFFFFF AND DUP8 PUSH20 0xFFFFFFFFFFFFFFFFFFFFFFFFFFFFFFFFFFFFFFFF AND DUP6 PUSH20 0xFFFFFFFFFFFFFFFFFFFFFFFFFFFFFFFFFFFFFFFF AND PUSH32 0xC3D58168C5AE7397731D063D5BBF3D657854427343F4C083240F7AACAA2D0F62 DUP10 DUP10 PUSH1 0x40 MLOAD PUSH2 0x1EE7 SWAP3 SWAP2 SWAP1 PUSH2 0x4BD3 JUMP JUMPDEST PUSH1 0x40 MLOAD DUP1 SWAP2 SUB SWAP1 LOG4 PUSH2 0x1F0D DUP5 DUP9 PUSH1 0x0 DUP7 DUP7 PUSH1 0x40 MLOAD DUP1 PUSH1 0x20 ADD PUSH1 0x40 MSTORE DUP1 PUSH1 0x0 DUP2 MSTORE POP PUSH2 0x2868 JUMP JUMPDEST POP POP POP POP POP POP POP JUMP JUMPDEST DUP2 PUSH20 0xFFFFFFFFFFFFFFFFFFFFFFFFFFFFFFFFFFFFFFFF AND DUP4 PUSH20 0xFFFFFFFFFFFFFFFFFFFFFFFFFFFFFFFFFFFFFFFF AND SUB PUSH2 0x1F84 JUMPI PUSH1 0x40 MLOAD PUSH32 0x8C379A000000000000000000000000000000000000000000000000000000000 DUP2 MSTORE PUSH1 0x4 ADD PUSH2 0x1F7B SWAP1 PUSH2 0x4C6E JUMP JUMPDEST PUSH1 0x40 MLOAD DUP1 SWAP2 SUB SWAP1 REVERT JUMPDEST DUP1 PUSH1 0x1 PUSH1 0x0 DUP6 PUSH20 0xFFFFFFFFFFFFFFFFFFFFFFFFFFFFFFFFFFFFFFFF AND PUSH20 0xFFFFFFFFFFFFFFFFFFFFFFFFFFFFFFFFFFFFFFFF AND DUP2 MSTORE PUSH1 0x20 ADD SWAP1 DUP2 MSTORE PUSH1 0x20 ADD PUSH1 0x0 KECCAK256 PUSH1 0x0 DUP5 PUSH20 0xFFFFFFFFFFFFFFFFFFFFFFFFFFFFFFFFFFFFFFFF AND PUSH20 0xFFFFFFFFFFFFFFFFFFFFFFFFFFFFFFFFFFFFFFFF AND DUP2 MSTORE PUSH1 0x20 ADD SWAP1 DUP2 MSTORE PUSH1 0x20 ADD PUSH1 0x0 KECCAK256 PUSH1 0x0 PUSH2 0x100 EXP DUP2 SLOAD DUP2 PUSH1 0xFF MUL NOT AND SWAP1 DUP4 ISZERO ISZERO MUL OR SWAP1 SSTORE POP DUP2 PUSH20 0xFFFFFFFFFFFFFFFFFFFFFFFFFFFFFFFFFFFFFFFF AND DUP4 PUSH20 0xFFFFFFFFFFFFFFFFFFFFFFFFFFFFFFFFFFFFFFFF AND PUSH32 0x17307EAB39AB6107E8899845AD3D59BD9653F200F220920489CA2B5937696C31 DUP4 PUSH1 0x40 MLOAD PUSH2 0x2075 SWAP2 SWAP1 PUSH2 0x3140 JUMP JUMPDEST PUSH1 0x40 MLOAD DUP1 SWAP2 SUB SWAP1 LOG3 POP POP POP JUMP JUMPDEST PUSH1 0x0 PUSH20 0xFFFFFFFFFFFFFFFFFFFFFFFFFFFFFFFFFFFFFFFF AND DUP5 PUSH20 0xFFFFFFFFFFFFFFFFFFFFFFFFFFFFFFFFFFFFFFFF AND SUB PUSH2 0x20F1 JUMPI PUSH1 0x40 MLOAD PUSH32 0x8C379A000000000000000000000000000000000000000000000000000000000 DUP2 MSTORE PUSH1 0x4 ADD PUSH2 0x20E8 SWAP1 PUSH2 0x4992 JUMP JUMPDEST PUSH1 0x40 MLOAD DUP1 SWAP2 SUB SWAP1 REVERT JUMPDEST PUSH1 0x0 PUSH2 0x20FB PUSH2 0x150F JUMP JUMPDEST SWAP1 POP PUSH1 0x0 PUSH2 0x2108 DUP6 PUSH2 0x2A47 JUMP JUMPDEST SWAP1 POP PUSH1 0x0 PUSH2 0x2115 DUP6 PUSH2 0x2A47 JUMP JUMPDEST SWAP1 POP PUSH2 0x2125 DUP4 DUP10 DUP10 DUP6 DUP6 DUP10 PUSH2 0x2860 JUMP JUMPDEST PUSH1 0x0 DUP1 PUSH1 0x0 DUP9 DUP2 MSTORE PUSH1 0x20 ADD SWAP1 DUP2 MSTORE PUSH1 0x20 ADD PUSH1 0x0 KECCAK256 PUSH1 0x0 DUP11 PUSH20 0xFFFFFFFFFFFFFFFFFFFFFFFFFFFFFFFFFFFFFFFF AND PUSH20 0xFFFFFFFFFFFFFFFFFFFFFFFFFFFFFFFFFFFFFFFF AND DUP2 MSTORE PUSH1 0x20 ADD SWAP1 DUP2 MSTORE PUSH1 0x20 ADD PUSH1 0x0 KECCAK256 SLOAD SWAP1 POP DUP6 DUP2 LT ISZERO PUSH2 0x21BC JUMPI PUSH1 0x40 MLOAD PUSH32 0x8C379A000000000000000000000000000000000000000000000000000000000 DUP2 MSTORE PUSH1 0x4 ADD PUSH2 0x21B3 SWAP1 PUSH2 0x4A24 JUMP JUMPDEST PUSH1 0x40 MLOAD DUP1 SWAP2 SUB SWAP1 REVERT JUMPDEST DUP6 DUP2 SUB PUSH1 0x0 DUP1 DUP10 DUP2 MSTORE PUSH1 0x20 ADD SWAP1 DUP2 MSTORE PUSH1 0x20 ADD PUSH1 0x0 KECCAK256 PUSH1 0x0 DUP12 PUSH20 0xFFFFFFFFFFFFFFFFFFFFFFFFFFFFFFFFFFFFFFFF AND PUSH20 0xFFFFFFFFFFFFFFFFFFFFFFFFFFFFFFFFFFFFFFFF AND DUP2 MSTORE PUSH1 0x20 ADD SWAP1 DUP2 MSTORE PUSH1 0x20 ADD PUSH1 0x0 KECCAK256 DUP2 SWAP1 SSTORE POP DUP6 PUSH1 0x0 DUP1 DUP10 DUP2 MSTORE PUSH1 0x20 ADD SWAP1 DUP2 MSTORE PUSH1 0x20 ADD PUSH1 0x0 KECCAK256 PUSH1 0x0 DUP11 PUSH20 0xFFFFFFFFFFFFFFFFFFFFFFFFFFFFFFFFFFFFFFFF AND PUSH20 0xFFFFFFFFFFFFFFFFFFFFFFFFFFFFFFFFFFFFFFFF AND DUP2 MSTORE PUSH1 0x20 ADD SWAP1 DUP2 MSTORE PUSH1 0x20 ADD PUSH1 0x0 KECCAK256 PUSH1 0x0 DUP3 DUP3 SLOAD PUSH2 0x2271 SWAP2 SWAP1 PUSH2 0x4A44 JUMP JUMPDEST SWAP3 POP POP DUP2 SWAP1 SSTORE POP DUP8 PUSH20 0xFFFFFFFFFFFFFFFFFFFFFFFFFFFFFFFFFFFFFFFF AND DUP10 PUSH20 0xFFFFFFFFFFFFFFFFFFFFFFFFFFFFFFFFFFFFFFFF AND DUP6 PUSH20 0xFFFFFFFFFFFFFFFFFFFFFFFFFFFFFFFFFFFFFFFF AND PUSH32 0xC3D58168C5AE7397731D063D5BBF3D657854427343F4C083240F7AACAA2D0F62 DUP11 DUP11 PUSH1 0x40 MLOAD PUSH2 0x22EE SWAP3 SWAP2 SWAP1 PUSH2 0x4BD3 JUMP JUMPDEST PUSH1 0x40 MLOAD DUP1 SWAP2 SUB SWAP1 LOG4 PUSH2 0x2304 DUP5 DUP11 DUP11 DUP7 DUP7 DUP11 PUSH2 0x2868 JUMP JUMPDEST PUSH2 0x2312 DUP5 DUP11 DUP11 DUP11 DUP11 DUP11 PUSH2 0x2AC1 JUMP JUMPDEST POP POP POP POP POP POP POP POP POP JUMP JUMPDEST PUSH1 0x0 PUSH20 0xFFFFFFFFFFFFFFFFFFFFFFFFFFFFFFFFFFFFFFFF AND DUP5 PUSH20 0xFFFFFFFFFFFFFFFFFFFFFFFFFFFFFFFFFFFFFFFF AND SUB PUSH2 0x238C JUMPI PUSH1 0x40 MLOAD PUSH32 0x8C379A000000000000000000000000000000000000000000000000000000000 DUP2 MSTORE PUSH1 0x4 ADD PUSH2 0x2383 SWAP1 PUSH2 0x4D00 JUMP JUMPDEST PUSH1 0x40 MLOAD DUP1 SWAP2 SUB SWAP1 REVERT JUMPDEST PUSH1 0x0 PUSH2 0x2396 PUSH2 0x150F JUMP JUMPDEST SWAP1 POP PUSH1 0x0 PUSH2 0x23A3 DUP6 PUSH2 0x2A47 JUMP JUMPDEST SWAP1 POP PUSH1 0x0 PUSH2 0x23B0 DUP6 PUSH2 0x2A47 JUMP JUMPDEST SWAP1 POP PUSH2 0x23C1 DUP4 PUSH1 0x0 DUP10 DUP6 DUP6 DUP10 PUSH2 0x2860 JUMP JUMPDEST DUP5 PUSH1 0x0 DUP1 DUP9 DUP2 MSTORE PUSH1 0x20 ADD SWAP1 DUP2 MSTORE PUSH1 0x20 ADD PUSH1 0x0 KECCAK256 PUSH1 0x0 DUP10 PUSH20 0xFFFFFFFFFFFFFFFFFFFFFFFFFFFFFFFFFFFFFFFF AND PUSH20 0xFFFFFFFFFFFFFFFFFFFFFFFFFFFFFFFFFFFFFFFF AND DUP2 MSTORE PUSH1 0x20 ADD SWAP1 DUP2 MSTORE PUSH1 0x20 ADD PUSH1 0x0 KECCAK256 PUSH1 0x0 DUP3 DUP3 SLOAD PUSH2 0x2420 SWAP2 SWAP1 PUSH2 0x4A44 JUMP JUMPDEST SWAP3 POP POP DUP2 SWAP1 SSTORE POP DUP7 PUSH20 0xFFFFFFFFFFFFFFFFFFFFFFFFFFFFFFFFFFFFFFFF AND PUSH1 0x0 PUSH20 0xFFFFFFFFFFFFFFFFFFFFFFFFFFFFFFFFFFFFFFFF AND DUP5 PUSH20 0xFFFFFFFFFFFFFFFFFFFFFFFFFFFFFFFFFFFFFFFF AND PUSH32 0xC3D58168C5AE7397731D063D5BBF3D657854427343F4C083240F7AACAA2D0F62 DUP10 DUP10 PUSH1 0x40 MLOAD PUSH2 0x249E SWAP3 SWAP2 SWAP1 PUSH2 0x4BD3 JUMP JUMPDEST PUSH1 0x40 MLOAD DUP1 SWAP2 SUB SWAP1 LOG4 PUSH2 0x24B5 DUP4 PUSH1 0x0 DUP10 DUP6 DUP6 DUP10 PUSH2 0x2868 JUMP JUMPDEST PUSH2 0x24C4 DUP4 PUSH1 0x0 DUP10 DUP10 DUP10 DUP10 PUSH2 0x2AC1 JUMP JUMPDEST POP POP POP POP POP POP POP JUMP JUMPDEST PUSH1 0x0 PUSH20 0xFFFFFFFFFFFFFFFFFFFFFFFFFFFFFFFFFFFFFFFF AND DUP5 PUSH20 0xFFFFFFFFFFFFFFFFFFFFFFFFFFFFFFFFFFFFFFFF AND SUB PUSH2 0x253C JUMPI PUSH1 0x40 MLOAD PUSH32 0x8C379A000000000000000000000000000000000000000000000000000000000 DUP2 MSTORE PUSH1 0x4 ADD PUSH2 0x2533 SWAP1 PUSH2 0x4D00 JUMP JUMPDEST PUSH1 0x40 MLOAD DUP1 SWAP2 SUB SWAP1 REVERT JUMPDEST DUP2 MLOAD DUP4 MLOAD EQ PUSH2 0x2580 JUMPI PUSH1 0x40 MLOAD PUSH32 0x8C379A000000000000000000000000000000000000000000000000000000000 DUP2 MSTORE PUSH1 0x4 ADD PUSH2 0x2577 SWAP1 PUSH2 0x4900 JUMP JUMPDEST PUSH1 0x40 MLOAD DUP1 SWAP2 SUB SWAP1 REVERT JUMPDEST PUSH1 0x0 PUSH2 0x258A PUSH2 0x150F JUMP JUMPDEST SWAP1 POP PUSH2 0x259B DUP2 PUSH1 0x0 DUP8 DUP8 DUP8 DUP8 PUSH2 0x2860 JUMP JUMPDEST PUSH1 0x0 JUMPDEST DUP5 MLOAD DUP2 LT ISZERO PUSH2 0x2654 JUMPI DUP4 DUP2 DUP2 MLOAD DUP2 LT PUSH2 0x25BA JUMPI PUSH2 0x25B9 PUSH2 0x4314 JUMP JUMPDEST JUMPDEST PUSH1 0x20 MUL PUSH1 0x20 ADD ADD MLOAD PUSH1 0x0 DUP1 DUP8 DUP5 DUP2 MLOAD DUP2 LT PUSH2 0x25D8 JUMPI PUSH2 0x25D7 PUSH2 0x4314 JUMP JUMPDEST JUMPDEST PUSH1 0x20 MUL PUSH1 0x20 ADD ADD MLOAD DUP2 MSTORE PUSH1 0x20 ADD SWAP1 DUP2 MSTORE PUSH1 0x20 ADD PUSH1 0x0 KECCAK256 PUSH1 0x0 DUP9 PUSH20 0xFFFFFFFFFFFFFFFFFFFFFFFFFFFFFFFFFFFFFFFF AND PUSH20 0xFFFFFFFFFFFFFFFFFFFFFFFFFFFFFFFFFFFFFFFF AND DUP2 MSTORE PUSH1 0x20 ADD SWAP1 DUP2 MSTORE PUSH1 0x20 ADD PUSH1 0x0 KECCAK256 PUSH1 0x0 DUP3 DUP3 SLOAD PUSH2 0x263A SWAP2 SWAP1 PUSH2 0x4A44 JUMP JUMPDEST SWAP3 POP POP DUP2 SWAP1 SSTORE POP DUP1 DUP1 PUSH2 0x264C SWAP1 PUSH2 0x4372 JUMP JUMPDEST SWAP2 POP POP PUSH2 0x259E JUMP JUMPDEST POP DUP5 PUSH20 0xFFFFFFFFFFFFFFFFFFFFFFFFFFFFFFFFFFFFFFFF AND PUSH1 0x0 PUSH20 0xFFFFFFFFFFFFFFFFFFFFFFFFFFFFFFFFFFFFFFFF AND DUP3 PUSH20 0xFFFFFFFFFFFFFFFFFFFFFFFFFFFFFFFFFFFFFFFF AND PUSH32 0x4A39DC06D4C0DBC64B70AF90FD698A233A518AA5D07E595D983B8C0526C8F7FB DUP8 DUP8 PUSH1 0x40 MLOAD PUSH2 0x26CC SWAP3 SWAP2 SWAP1 PUSH2 0x4A78 JUMP JUMPDEST PUSH1 0x40 MLOAD DUP1 SWAP2 SUB SWAP1 LOG4 PUSH2 0x26E3 DUP2 PUSH1 0x0 DUP8 DUP8 DUP8 DUP8 PUSH2 0x2868 JUMP JUMPDEST PUSH2 0x26F2 DUP2 PUSH1 0x0 DUP8 DUP8 DUP8 DUP8 PUSH2 0x2870 JUMP JUMPDEST POP POP POP POP POP JUMP JUMPDEST PUSH1 0x0 PUSH32 0xD9B67A2600000000000000000000000000000000000000000000000000000000 PUSH28 0xFFFFFFFFFFFFFFFFFFFFFFFFFFFFFFFFFFFFFFFFFFFFFFFFFFFFFFFF NOT AND DUP3 PUSH28 0xFFFFFFFFFFFFFFFFFFFFFFFFFFFFFFFFFFFFFFFFFFFFFFFFFFFFFFFF NOT AND EQ DUP1 PUSH2 0x27C4 JUMPI POP PUSH32 0xE89341C00000000000000000000000000000000000000000000000000000000 PUSH28 0xFFFFFFFFFFFFFFFFFFFFFFFFFFFFFFFFFFFFFFFFFFFFFFFFFFFFFFFF NOT AND DUP3 PUSH28 0xFFFFFFFFFFFFFFFFFFFFFFFFFFFFFFFFFFFFFFFFFFFFFFFFFFFFFFFF NOT AND EQ JUMPDEST DUP1 PUSH2 0x27D4 JUMPI POP PUSH2 0x27D3 DUP3 PUSH2 0x2C98 JUMP JUMPDEST JUMPDEST SWAP1 POP SWAP2 SWAP1 POP JUMP JUMPDEST PUSH2 0x27E5 DUP3 DUP3 PUSH2 0xB7F JUMP JUMPDEST PUSH2 0x285C JUMPI PUSH2 0x27F2 DUP2 PUSH2 0x2D02 JUMP JUMPDEST PUSH2 0x2800 DUP4 PUSH1 0x0 SHR PUSH1 0x20 PUSH2 0x2D2F JUMP JUMPDEST PUSH1 0x40 MLOAD PUSH1 0x20 ADD PUSH2 0x2811 SWAP3 SWAP2 SWAP1 PUSH2 0x4DF4 JUMP JUMPDEST PUSH1 0x40 MLOAD PUSH1 0x20 DUP2 DUP4 SUB SUB DUP2 MSTORE SWAP1 PUSH1 0x40 MSTORE PUSH1 0x40 MLOAD PUSH32 0x8C379A000000000000000000000000000000000000000000000000000000000 DUP2 MSTORE PUSH1 0x4 ADD PUSH2 0x2853 SWAP2 SWAP1 PUSH2 0x3601 JUMP JUMPDEST PUSH1 0x40 MLOAD DUP1 SWAP2 SUB SWAP1 REVERT JUMPDEST POP POP JUMP JUMPDEST POP POP POP POP POP POP JUMP JUMPDEST POP POP POP POP POP POP JUMP JUMPDEST PUSH2 0x288F DUP5 PUSH20 0xFFFFFFFFFFFFFFFFFFFFFFFFFFFFFFFFFFFFFFFF AND PUSH2 0x2F6B JUMP JUMPDEST ISZERO PUSH2 0x2A3F JUMPI DUP4 PUSH20 0xFFFFFFFFFFFFFFFFFFFFFFFFFFFFFFFFFFFFFFFF AND PUSH4 0xBC197C81 DUP8 DUP8 DUP7 DUP7 DUP7 PUSH1 0x40 MLOAD DUP7 PUSH4 0xFFFFFFFF AND PUSH1 0xE0 SHL DUP2 MSTORE PUSH1 0x4 ADD PUSH2 0x28D5 SWAP6 SWAP5 SWAP4 SWAP3 SWAP2 SWAP1 PUSH2 0x4E2E JUMP JUMPDEST PUSH1 0x20 PUSH1 0x40 MLOAD DUP1 DUP4 SUB DUP2 PUSH1 0x0 DUP8 GAS CALL SWAP3 POP POP POP DUP1 ISZERO PUSH2 0x2911 JUMPI POP PUSH1 0x40 MLOAD RETURNDATASIZE PUSH1 0x1F NOT PUSH1 0x1F DUP3 ADD AND DUP3 ADD DUP1 PUSH1 0x40 MSTORE POP DUP2 ADD SWAP1 PUSH2 0x290E SWAP2 SWAP1 PUSH2 0x4EAB JUMP JUMPDEST PUSH1 0x1 JUMPDEST PUSH2 0x29B6 JUMPI PUSH2 0x291D PUSH2 0x4EE5 JUMP JUMPDEST DUP1 PUSH4 0x8C379A0 SUB PUSH2 0x2979 JUMPI POP PUSH2 0x2931 PUSH2 0x4F07 JUMP JUMPDEST DUP1 PUSH2 0x293C JUMPI POP PUSH2 0x297B JUMP JUMPDEST DUP1 PUSH1 0x40 MLOAD PUSH32 0x8C379A000000000000000000000000000000000000000000000000000000000 DUP2 MSTORE PUSH1 0x4 ADD PUSH2 0x2970 SWAP2 SWAP1 PUSH2 0x3601 JUMP JUMPDEST PUSH1 0x40 MLOAD DUP1 SWAP2 SUB SWAP1 REVERT JUMPDEST POP JUMPDEST PUSH1 0x40 MLOAD PUSH32 0x8C379A000000000000000000000000000000000000000000000000000000000 DUP2 MSTORE PUSH1 0x4 ADD PUSH2 0x29AD SWAP1 PUSH2 0x5009 JUMP JUMPDEST PUSH1 0x40 MLOAD DUP1 SWAP2 SUB SWAP1 REVERT JUMPDEST PUSH4 0xBC197C81 PUSH1 0xE0 SHL PUSH28 0xFFFFFFFFFFFFFFFFFFFFFFFFFFFFFFFFFFFFFFFFFFFFFFFFFFFFFFFF NOT AND DUP2 PUSH28 0xFFFFFFFFFFFFFFFFFFFFFFFFFFFFFFFFFFFFFFFFFFFFFFFFFFFFFFFF NOT AND EQ PUSH2 0x2A3D JUMPI PUSH1 0x40 MLOAD PUSH32 0x8C379A000000000000000000000000000000000000000000000000000000000 DUP2 MSTORE PUSH1 0x4 ADD PUSH2 0x2A34 SWAP1 PUSH2 0x509B JUMP JUMPDEST PUSH1 0x40 MLOAD DUP1 SWAP2 SUB SWAP1 REVERT JUMPDEST POP JUMPDEST POP POP POP POP POP POP JUMP JUMPDEST PUSH1 0x60 PUSH1 0x0 PUSH1 0x1 PUSH8 0xFFFFFFFFFFFFFFFF DUP2 GT ISZERO PUSH2 0x2A66 JUMPI PUSH2 0x2A65 PUSH2 0x3176 JUMP JUMPDEST JUMPDEST PUSH1 0x40 MLOAD SWAP1 DUP1 DUP3 MSTORE DUP1 PUSH1 0x20 MUL PUSH1 0x20 ADD DUP3 ADD PUSH1 0x40 MSTORE DUP1 ISZERO PUSH2 0x2A94 JUMPI DUP2 PUSH1 0x20 ADD PUSH1 0x20 DUP3 MUL DUP1 CALLDATASIZE DUP4 CALLDATACOPY DUP1 DUP3 ADD SWAP2 POP POP SWAP1 POP JUMPDEST POP SWAP1 POP DUP3 DUP2 PUSH1 0x0 DUP2 MLOAD DUP2 LT PUSH2 0x2AAC JUMPI PUSH2 0x2AAB PUSH2 0x4314 JUMP JUMPDEST JUMPDEST PUSH1 0x20 MUL PUSH1 0x20 ADD ADD DUP2 DUP2 MSTORE POP POP DUP1 SWAP2 POP POP SWAP2 SWAP1 POP JUMP JUMPDEST PUSH2 0x2AE0 DUP5 PUSH20 0xFFFFFFFFFFFFFFFFFFFFFFFFFFFFFFFFFFFFFFFF AND PUSH2 0x2F6B JUMP JUMPDEST ISZERO PUSH2 0x2C90 JUMPI DUP4 PUSH20 0xFFFFFFFFFFFFFFFFFFFFFFFFFFFFFFFFFFFFFFFF AND PUSH4 0xF23A6E61 DUP8 DUP8 DUP7 DUP7 DUP7 PUSH1 0x40 MLOAD DUP7 PUSH4 0xFFFFFFFF AND PUSH1 0xE0 SHL DUP2 MSTORE PUSH1 0x4 ADD PUSH2 0x2B26 SWAP6 SWAP5 SWAP4 SWAP3 SWAP2 SWAP1 PUSH2 0x50BB JUMP JUMPDEST PUSH1 0x20 PUSH1 0x40 MLOAD DUP1 DUP4 SUB DUP2 PUSH1 0x0 DUP8 GAS CALL SWAP3 POP POP POP DUP1 ISZERO PUSH2 0x2B62 JUMPI POP PUSH1 0x40 MLOAD RETURNDATASIZE PUSH1 0x1F NOT PUSH1 0x1F DUP3 ADD AND DUP3 ADD DUP1 PUSH1 0x40 MSTORE POP DUP2 ADD SWAP1 PUSH2 0x2B5F SWAP2 SWAP1 PUSH2 0x4EAB JUMP JUMPDEST PUSH1 0x1 JUMPDEST PUSH2 0x2C07 JUMPI PUSH2 0x2B6E PUSH2 0x4EE5 JUMP JUMPDEST DUP1 PUSH4 0x8C379A0 SUB PUSH2 0x2BCA JUMPI POP PUSH2 0x2B82 PUSH2 0x4F07 JUMP JUMPDEST DUP1 PUSH2 0x2B8D JUMPI POP PUSH2 0x2BCC JUMP JUMPDEST DUP1 PUSH1 0x40 MLOAD PUSH32 0x8C379A000000000000000000000000000000000000000000000000000000000 DUP2 MSTORE PUSH1 0x4 ADD PUSH2 0x2BC1 SWAP2 SWAP1 PUSH2 0x3601 JUMP JUMPDEST PUSH1 0x40 MLOAD DUP1 SWAP2 SUB SWAP1 REVERT JUMPDEST POP JUMPDEST PUSH1 0x40 MLOAD PUSH32 0x8C379A000000000000000000000000000000000000000000000000000000000 DUP2 MSTORE PUSH1 0x4 ADD PUSH2 0x2BFE SWAP1 PUSH2 0x5009 JUMP JUMPDEST PUSH1 0x40 MLOAD DUP1 SWAP2 SUB SWAP1 REVERT JUMPDEST PUSH4 0xF23A6E61 PUSH1 0xE0 SHL PUSH28 0xFFFFFFFFFFFFFFFFFFFFFFFFFFFFFFFFFFFFFFFFFFFFFFFFFFFFFFFF NOT AND DUP2 PUSH28 0xFFFFFFFFFFFFFFFFFFFFFFFFFFFFFFFFFFFFFFFFFFFFFFFFFFFFFFFF NOT AND EQ PUSH2 0x2C8E JUMPI PUSH1 0x40 MLOAD PUSH32 0x8C379A000000000000000000000000000000000000000000000000000000000 DUP2 MSTORE PUSH1 0x4 ADD PUSH2 0x2C85 SWAP1 PUSH2 0x509B JUMP JUMPDEST PUSH1 0x40 MLOAD DUP1 SWAP2 SUB SWAP1 REVERT JUMPDEST POP JUMPDEST POP POP POP POP POP POP JUMP JUMPDEST PUSH1 0x0 PUSH32 0x1FFC9A700000000000000000000000000000000000000000000000000000000 PUSH28 0xFFFFFFFFFFFFFFFFFFFFFFFFFFFFFFFFFFFFFFFFFFFFFFFFFFFFFFFF NOT AND DUP3 PUSH28 0xFFFFFFFFFFFFFFFFFFFFFFFFFFFFFFFFFFFFFFFFFFFFFFFFFFFFFFFF NOT AND EQ SWAP1 POP SWAP2 SWAP1 POP JUMP JUMPDEST PUSH1 0x60 PUSH2 0x2D28 DUP3 PUSH20 0xFFFFFFFFFFFFFFFFFFFFFFFFFFFFFFFFFFFFFFFF AND PUSH1 0x14 PUSH1 0xFF AND PUSH2 0x2D2F JUMP JUMPDEST SWAP1 POP SWAP2 SWAP1 POP JUMP JUMPDEST PUSH1 0x60 PUSH1 0x0 PUSH1 0x2 DUP4 PUSH1 0x2 PUSH2 0x2D42 SWAP2 SWAP1 PUSH2 0x5115 JUMP JUMPDEST PUSH2 0x2D4C SWAP2 SWAP1 PUSH2 0x4A44 JUMP JUMPDEST PUSH8 0xFFFFFFFFFFFFFFFF DUP2 GT ISZERO PUSH2 0x2D65 JUMPI PUSH2 0x2D64 PUSH2 0x3176 JUMP JUMPDEST JUMPDEST PUSH1 0x40 MLOAD SWAP1 DUP1 DUP3 MSTORE DUP1 PUSH1 0x1F ADD PUSH1 0x1F NOT AND PUSH1 0x20 ADD DUP3 ADD PUSH1 0x40 MSTORE DUP1 ISZERO PUSH2 0x2D97 JUMPI DUP2 PUSH1 0x20 ADD PUSH1 0x1 DUP3 MUL DUP1 CALLDATASIZE DUP4 CALLDATACOPY DUP1 DUP3 ADD SWAP2 POP POP SWAP1 POP JUMPDEST POP SWAP1 POP PUSH32 0x3000000000000000000000000000000000000000000000000000000000000000 DUP2 PUSH1 0x0 DUP2 MLOAD DUP2 LT PUSH2 0x2DCF JUMPI PUSH2 0x2DCE PUSH2 0x4314 JUMP JUMPDEST JUMPDEST PUSH1 0x20 ADD ADD SWAP1 PUSH31 0xFFFFFFFFFFFFFFFFFFFFFFFFFFFFFFFFFFFFFFFFFFFFFFFFFFFFFFFFFFFFFF NOT AND SWAP1 DUP2 PUSH1 0x0 BYTE SWAP1 MSTORE8 POP PUSH32 0x7800000000000000000000000000000000000000000000000000000000000000 DUP2 PUSH1 0x1 DUP2 MLOAD DUP2 LT PUSH2 0x2E33 JUMPI PUSH2 0x2E32 PUSH2 0x4314 JUMP JUMPDEST JUMPDEST PUSH1 0x20 ADD ADD SWAP1 PUSH31 0xFFFFFFFFFFFFFFFFFFFFFFFFFFFFFFFFFFFFFFFFFFFFFFFFFFFFFFFFFFFFFF NOT AND SWAP1 DUP2 PUSH1 0x0 BYTE SWAP1 MSTORE8 POP PUSH1 0x0 PUSH1 0x1 DUP5 PUSH1 0x2 PUSH2 0x2E73 SWAP2 SWAP1 PUSH2 0x5115 JUMP JUMPDEST PUSH2 0x2E7D SWAP2 SWAP1 PUSH2 0x4A44 JUMP JUMPDEST SWAP1 POP JUMPDEST PUSH1 0x1 DUP2 GT ISZERO PUSH2 0x2F1D JUMPI PUSH32 0x3031323334353637383961626364656600000000000000000000000000000000 PUSH1 0xF DUP7 AND PUSH1 0x10 DUP2 LT PUSH2 0x2EBF JUMPI PUSH2 0x2EBE PUSH2 0x4314 JUMP JUMPDEST JUMPDEST BYTE PUSH1 0xF8 SHL DUP3 DUP3 DUP2 MLOAD DUP2 LT PUSH2 0x2ED6 JUMPI PUSH2 0x2ED5 PUSH2 0x4314 JUMP JUMPDEST JUMPDEST PUSH1 0x20 ADD ADD SWAP1 PUSH31 0xFFFFFFFFFFFFFFFFFFFFFFFFFFFFFFFFFFFFFFFFFFFFFFFFFFFFFFFFFFFFFF NOT AND SWAP1 DUP2 PUSH1 0x0 BYTE SWAP1 MSTORE8 POP PUSH1 0x4 DUP6 SWAP1 SHR SWAP5 POP DUP1 PUSH2 0x2F16 SWAP1 PUSH2 0x5157 JUMP JUMPDEST SWAP1 POP PUSH2 0x2E80 JUMP JUMPDEST POP PUSH1 0x0 DUP5 EQ PUSH2 0x2F61 JUMPI PUSH1 0x40 MLOAD PUSH32 0x8C379A000000000000000000000000000000000000000000000000000000000 DUP2 MSTORE PUSH1 0x4 ADD PUSH2 0x2F58 SWAP1 PUSH2 0x51CC JUMP JUMPDEST PUSH1 0x40 MLOAD DUP1 SWAP2 SUB SWAP1 REVERT JUMPDEST DUP1 SWAP2 POP POP SWAP3 SWAP2 POP POP JUMP JUMPDEST PUSH1 0x0 DUP1 DUP3 PUSH20 0xFFFFFFFFFFFFFFFFFFFFFFFFFFFFFFFFFFFFFFFF AND EXTCODESIZE GT SWAP1 POP SWAP2 SWAP1 POP JUMP JUMPDEST PUSH1 0x0 PUSH1 0x40 MLOAD SWAP1 POP SWAP1 JUMP JUMPDEST PUSH1 0x0 DUP1 REVERT JUMPDEST PUSH1 0x0 DUP1 REVERT JUMPDEST PUSH1 0x0 PUSH20 0xFFFFFFFFFFFFFFFFFFFFFFFFFFFFFFFFFFFFFFFF DUP3 AND SWAP1 POP SWAP2 SWAP1 POP JUMP JUMPDEST PUSH1 0x0 PUSH2 0x2FCD DUP3 PUSH2 0x2FA2 JUMP JUMPDEST SWAP1 POP SWAP2 SWAP1 POP JUMP JUMPDEST PUSH2 0x2FDD DUP2 PUSH2 0x2FC2 JUMP JUMPDEST DUP2 EQ PUSH2 0x2FE8 JUMPI PUSH1 0x0 DUP1 REVERT JUMPDEST POP JUMP JUMPDEST PUSH1 0x0 DUP2 CALLDATALOAD SWAP1 POP PUSH2 0x2FFA DUP2 PUSH2 0x2FD4 JUMP JUMPDEST SWAP3 SWAP2 POP POP JUMP JUMPDEST PUSH1 0x0 DUP2 SWAP1 POP SWAP2 SWAP1 POP JUMP JUMPDEST PUSH2 0x3013 DUP2 PUSH2 0x3000 JUMP JUMPDEST DUP2 EQ PUSH2 0x301E JUMPI PUSH1 0x0 DUP1 REVERT JUMPDEST POP JUMP JUMPDEST PUSH1 0x0 DUP2 CALLDATALOAD SWAP1 POP PUSH2 0x3030 DUP2 PUSH2 0x300A JUMP JUMPDEST SWAP3 SWAP2 POP POP JUMP JUMPDEST PUSH1 0x0 DUP1 PUSH1 0x40 DUP4 DUP6 SUB SLT ISZERO PUSH2 0x304D JUMPI PUSH2 0x304C PUSH2 0x2F98 JUMP JUMPDEST JUMPDEST PUSH1 0x0 PUSH2 0x305B DUP6 DUP3 DUP7 ADD PUSH2 0x2FEB JUMP JUMPDEST SWAP3 POP POP PUSH1 0x20 PUSH2 0x306C DUP6 DUP3 DUP7 ADD PUSH2 0x3021 JUMP JUMPDEST SWAP2 POP POP SWAP3 POP SWAP3 SWAP1 POP JUMP JUMPDEST PUSH2 0x307F DUP2 PUSH2 0x3000 JUMP JUMPDEST DUP3 MSTORE POP POP JUMP JUMPDEST PUSH1 0x0 PUSH1 0x20 DUP3 ADD SWAP1 POP PUSH2 0x309A PUSH1 0x0 DUP4 ADD DUP5 PUSH2 0x3076 JUMP JUMPDEST SWAP3 SWAP2 POP POP JUMP JUMPDEST PUSH1 0x0 PUSH32 0xFFFFFFFF00000000000000000000000000000000000000000000000000000000 DUP3 AND SWAP1 POP SWAP2 SWAP1 POP JUMP JUMPDEST PUSH2 0x30D5 DUP2 PUSH2 0x30A0 JUMP JUMPDEST DUP2 EQ PUSH2 0x30E0 JUMPI PUSH1 0x0 DUP1 REVERT JUMPDEST POP JUMP JUMPDEST PUSH1 0x0 DUP2 CALLDATALOAD SWAP1 POP PUSH2 0x30F2 DUP2 PUSH2 0x30CC JUMP JUMPDEST SWAP3 SWAP2 POP POP JUMP JUMPDEST PUSH1 0x0 PUSH1 0x20 DUP3 DUP5 SUB SLT ISZERO PUSH2 0x310E JUMPI PUSH2 0x310D PUSH2 0x2F98 JUMP JUMPDEST JUMPDEST PUSH1 0x0 PUSH2 0x311C DUP5 DUP3 DUP6 ADD PUSH2 0x30E3 JUMP JUMPDEST SWAP2 POP POP SWAP3 SWAP2 POP POP JUMP JUMPDEST PUSH1 0x0 DUP2 ISZERO ISZERO SWAP1 POP SWAP2 SWAP1 POP JUMP JUMPDEST PUSH2 0x313A DUP2 PUSH2 0x3125 JUMP JUMPDEST DUP3 MSTORE POP POP JUMP JUMPDEST PUSH1 0x0 PUSH1 0x20 DUP3 ADD SWAP1 POP PUSH2 0x3155 PUSH1 0x0 DUP4 ADD DUP5 PUSH2 0x3131 JUMP JUMPDEST SWAP3 SWAP2 POP POP JUMP JUMPDEST PUSH1 0x0 DUP1 REVERT JUMPDEST PUSH1 0x0 DUP1 REVERT JUMPDEST PUSH1 0x0 PUSH1 0x1F NOT PUSH1 0x1F DUP4 ADD AND SWAP1 POP SWAP2 SWAP1 POP JUMP JUMPDEST PUSH32 0x4E487B7100000000000000000000000000000000000000000000000000000000 PUSH1 0x0 MSTORE PUSH1 0x41 PUSH1 0x4 MSTORE PUSH1 0x24 PUSH1 0x0 REVERT JUMPDEST PUSH2 0x31AE DUP3 PUSH2 0x3165 JUMP JUMPDEST DUP2 ADD DUP2 DUP2 LT PUSH8 0xFFFFFFFFFFFFFFFF DUP3 GT OR ISZERO PUSH2 0x31CD JUMPI PUSH2 0x31CC PUSH2 0x3176 JUMP JUMPDEST JUMPDEST DUP1 PUSH1 0x40 MSTORE POP POP POP JUMP JUMPDEST PUSH1 0x0 PUSH2 0x31E0 PUSH2 0x2F8E JUMP JUMPDEST SWAP1 POP PUSH2 0x31EC DUP3 DUP3 PUSH2 0x31A5 JUMP JUMPDEST SWAP2 SWAP1 POP JUMP JUMPDEST PUSH1 0x0 PUSH8 0xFFFFFFFFFFFFFFFF DUP3 GT ISZERO PUSH2 0x320C JUMPI PUSH2 0x320B PUSH2 0x3176 JUMP JUMPDEST JUMPDEST PUSH2 0x3215 DUP3 PUSH2 0x3165 JUMP JUMPDEST SWAP1 POP PUSH1 0x20 DUP2 ADD SWAP1 POP SWAP2 SWAP1 POP JUMP JUMPDEST DUP3 DUP2 DUP4 CALLDATACOPY PUSH1 0x0 DUP4 DUP4 ADD MSTORE POP POP POP JUMP JUMPDEST PUSH1 0x0 PUSH2 0x3244 PUSH2 0x323F DUP5 PUSH2 0x31F1 JUMP JUMPDEST PUSH2 0x31D6 JUMP JUMPDEST SWAP1 POP DUP3 DUP2 MSTORE PUSH1 0x20 DUP2 ADD DUP5 DUP5 DUP5 ADD GT ISZERO PUSH2 0x3260 JUMPI PUSH2 0x325F PUSH2 0x3160 JUMP JUMPDEST JUMPDEST PUSH2 0x326B DUP5 DUP3 DUP6 PUSH2 0x3222 JUMP JUMPDEST POP SWAP4 SWAP3 POP POP POP JUMP JUMPDEST PUSH1 0x0 DUP3 PUSH1 0x1F DUP4 ADD SLT PUSH2 0x3288 JUMPI PUSH2 0x3287 PUSH2 0x315B JUMP JUMPDEST JUMPDEST DUP2 CALLDATALOAD PUSH2 0x3298 DUP5 DUP3 PUSH1 0x20 DUP7 ADD PUSH2 0x3231 JUMP JUMPDEST SWAP2 POP POP SWAP3 SWAP2 POP POP JUMP JUMPDEST PUSH1 0x0 PUSH1 0x20 DUP3 DUP5 SUB SLT ISZERO PUSH2 0x32B7 JUMPI PUSH2 0x32B6 PUSH2 0x2F98 JUMP JUMPDEST JUMPDEST PUSH1 0x0 DUP3 ADD CALLDATALOAD PUSH8 0xFFFFFFFFFFFFFFFF DUP2 GT ISZERO PUSH2 0x32D5 JUMPI PUSH2 0x32D4 PUSH2 0x2F9D JUMP JUMPDEST JUMPDEST PUSH2 0x32E1 DUP5 DUP3 DUP6 ADD PUSH2 0x3273 JUMP JUMPDEST SWAP2 POP POP SWAP3 SWAP2 POP POP JUMP JUMPDEST PUSH1 0x0 PUSH8 0xFFFFFFFFFFFFFFFF DUP3 GT ISZERO PUSH2 0x3305 JUMPI PUSH2 0x3304 PUSH2 0x3176 JUMP JUMPDEST JUMPDEST PUSH1 0x20 DUP3 MUL SWAP1 POP PUSH1 0x20 DUP2 ADD SWAP1 POP SWAP2 SWAP1 POP JUMP JUMPDEST PUSH1 0x0 DUP1 REVERT JUMPDEST PUSH1 0x0 PUSH2 0x332E PUSH2 0x3329 DUP5 PUSH2 0x32EA JUMP JUMPDEST PUSH2 0x31D6 JUMP JUMPDEST SWAP1 POP DUP1 DUP4 DUP3 MSTORE PUSH1 0x20 DUP3 ADD SWAP1 POP PUSH1 0x20 DUP5 MUL DUP4 ADD DUP6 DUP2 GT ISZERO PUSH2 0x3351 JUMPI PUSH2 0x3350 PUSH2 0x3316 JUMP JUMPDEST JUMPDEST DUP4 JUMPDEST DUP2 DUP2 LT ISZERO PUSH2 0x337A JUMPI DUP1 PUSH2 0x3366 DUP9 DUP3 PUSH2 0x2FEB JUMP JUMPDEST DUP5 MSTORE PUSH1 0x20 DUP5 ADD SWAP4 POP POP PUSH1 0x20 DUP2 ADD SWAP1 POP PUSH2 0x3353 JUMP JUMPDEST POP POP POP SWAP4 SWAP3 POP POP POP JUMP JUMPDEST PUSH1 0x0 DUP3 PUSH1 0x1F DUP4 ADD SLT PUSH2 0x3399 JUMPI PUSH2 0x3398 PUSH2 0x315B JUMP JUMPDEST JUMPDEST DUP2 CALLDATALOAD PUSH2 0x33A9 DUP5 DUP3 PUSH1 0x20 DUP7 ADD PUSH2 0x331B JUMP JUMPDEST SWAP2 POP POP SWAP3 SWAP2 POP POP JUMP JUMPDEST PUSH1 0x0 PUSH8 0xFFFFFFFFFFFFFFFF DUP3 GT ISZERO PUSH2 0x33CD JUMPI PUSH2 0x33CC PUSH2 0x3176 JUMP JUMPDEST JUMPDEST PUSH1 0x20 DUP3 MUL SWAP1 POP PUSH1 0x20 DUP2 ADD SWAP1 POP SWAP2 SWAP1 POP JUMP JUMPDEST PUSH1 0x0 PUSH2 0x33F1 PUSH2 0x33EC DUP5 PUSH2 0x33B2 JUMP JUMPDEST PUSH2 0x31D6 JUMP JUMPDEST SWAP1 POP DUP1 DUP4 DUP3 MSTORE PUSH1 0x20 DUP3 ADD SWAP1 POP PUSH1 0x20 DUP5 MUL DUP4 ADD DUP6 DUP2 GT ISZERO PUSH2 0x3414 JUMPI PUSH2 0x3413 PUSH2 0x3316 JUMP JUMPDEST JUMPDEST DUP4 JUMPDEST DUP2 DUP2 LT ISZERO PUSH2 0x343D JUMPI DUP1 PUSH2 0x3429 DUP9 DUP3 PUSH2 0x3021 JUMP JUMPDEST DUP5 MSTORE PUSH1 0x20 DUP5 ADD SWAP4 POP POP PUSH1 0x20 DUP2 ADD SWAP1 POP PUSH2 0x3416 JUMP JUMPDEST POP POP POP SWAP4 SWAP3 POP POP POP JUMP JUMPDEST PUSH1 0x0 DUP3 PUSH1 0x1F DUP4 ADD SLT PUSH2 0x345C JUMPI PUSH2 0x345B PUSH2 0x315B JUMP JUMPDEST JUMPDEST DUP2 CALLDATALOAD PUSH2 0x346C DUP5 DUP3 PUSH1 0x20 DUP7 ADD PUSH2 0x33DE JUMP JUMPDEST SWAP2 POP POP SWAP3 SWAP2 POP POP JUMP JUMPDEST PUSH1 0x3 DUP2 LT PUSH2 0x3482 JUMPI PUSH1 0x0 DUP1 REVERT JUMPDEST POP JUMP JUMPDEST PUSH1 0x0 DUP2 CALLDATALOAD SWAP1 POP PUSH2 0x3494 DUP2 PUSH2 0x3475 JUMP JUMPDEST SWAP3 SWAP2 POP POP JUMP JUMPDEST PUSH1 0x0 DUP1 PUSH1 0x0 DUP1 PUSH1 0x80 DUP6 DUP8 SUB SLT ISZERO PUSH2 0x34B4 JUMPI PUSH2 0x34B3 PUSH2 0x2F98 JUMP JUMPDEST JUMPDEST PUSH1 0x0 DUP6 ADD CALLDATALOAD PUSH8 0xFFFFFFFFFFFFFFFF DUP2 GT ISZERO PUSH2 0x34D2 JUMPI PUSH2 0x34D1 PUSH2 0x2F9D JUMP JUMPDEST JUMPDEST PUSH2 0x34DE DUP8 DUP3 DUP9 ADD PUSH2 0x3384 JUMP JUMPDEST SWAP5 POP POP PUSH1 0x20 DUP6 ADD CALLDATALOAD PUSH8 0xFFFFFFFFFFFFFFFF DUP2 GT ISZERO PUSH2 0x34FF JUMPI PUSH2 0x34FE PUSH2 0x2F9D JUMP JUMPDEST JUMPDEST PUSH2 0x350B DUP8 DUP3 DUP9 ADD PUSH2 0x3447 JUMP JUMPDEST SWAP4 POP POP PUSH1 0x40 DUP6 ADD CALLDATALOAD PUSH8 0xFFFFFFFFFFFFFFFF DUP2 GT ISZERO PUSH2 0x352C JUMPI PUSH2 0x352B PUSH2 0x2F9D JUMP JUMPDEST JUMPDEST PUSH2 0x3538 DUP8 DUP3 DUP9 ADD PUSH2 0x3447 JUMP JUMPDEST SWAP3 POP POP PUSH1 0x60 PUSH2 0x3549 DUP8 DUP3 DUP9 ADD PUSH2 0x3485 JUMP JUMPDEST SWAP2 POP POP SWAP3 SWAP6 SWAP2 SWAP5 POP SWAP3 POP JUMP JUMPDEST PUSH1 0x0 PUSH1 0x20 DUP3 DUP5 SUB SLT ISZERO PUSH2 0x356B JUMPI PUSH2 0x356A PUSH2 0x2F98 JUMP JUMPDEST JUMPDEST PUSH1 0x0 PUSH2 0x3579 DUP5 DUP3 DUP6 ADD PUSH2 0x3021 JUMP JUMPDEST SWAP2 POP POP SWAP3 SWAP2 POP POP JUMP JUMPDEST PUSH1 0x0 DUP2 MLOAD SWAP1 POP SWAP2 SWAP1 POP JUMP JUMPDEST PUSH1 0x0 DUP3 DUP3 MSTORE PUSH1 0x20 DUP3 ADD SWAP1 POP SWAP3 SWAP2 POP POP JUMP JUMPDEST PUSH1 0x0 JUMPDEST DUP4 DUP2 LT ISZERO PUSH2 0x35BC JUMPI DUP1 DUP3 ADD MLOAD DUP2 DUP5 ADD MSTORE PUSH1 0x20 DUP2 ADD SWAP1 POP PUSH2 0x35A1 JUMP JUMPDEST PUSH1 0x0 DUP5 DUP5 ADD MSTORE POP POP POP POP JUMP JUMPDEST PUSH1 0x0 PUSH2 0x35D3 DUP3 PUSH2 0x3582 JUMP JUMPDEST PUSH2 0x35DD DUP2 DUP6 PUSH2 0x358D JUMP JUMPDEST SWAP4 POP PUSH2 0x35ED DUP2 DUP6 PUSH1 0x20 DUP7 ADD PUSH2 0x359E JUMP JUMPDEST PUSH2 0x35F6 DUP2 PUSH2 0x3165 JUMP JUMPDEST DUP5 ADD SWAP2 POP POP SWAP3 SWAP2 POP POP JUMP JUMPDEST PUSH1 0x0 PUSH1 0x20 DUP3 ADD SWAP1 POP DUP2 DUP2 SUB PUSH1 0x0 DUP4 ADD MSTORE PUSH2 0x361B DUP2 DUP5 PUSH2 0x35C8 JUMP JUMPDEST SWAP1 POP SWAP3 SWAP2 POP POP JUMP JUMPDEST PUSH1 0x0 DUP2 SWAP1 POP SWAP2 SWAP1 POP JUMP JUMPDEST PUSH2 0x3636 DUP2 PUSH2 0x3623 JUMP JUMPDEST DUP2 EQ PUSH2 0x3641 JUMPI PUSH1 0x0 DUP1 REVERT JUMPDEST POP JUMP JUMPDEST PUSH1 0x0 DUP2 CALLDATALOAD SWAP1 POP PUSH2 0x3653 DUP2 PUSH2 0x362D JUMP JUMPDEST SWAP3 SWAP2 POP POP JUMP JUMPDEST PUSH1 0x0 PUSH1 0x20 DUP3 DUP5 SUB SLT ISZERO PUSH2 0x366F JUMPI PUSH2 0x366E PUSH2 0x2F98 JUMP JUMPDEST JUMPDEST PUSH1 0x0 PUSH2 0x367D DUP5 DUP3 DUP6 ADD PUSH2 0x3644 JUMP JUMPDEST SWAP2 POP POP SWAP3 SWAP2 POP POP JUMP JUMPDEST PUSH2 0x368F DUP2 PUSH2 0x3623 JUMP JUMPDEST DUP3 MSTORE POP POP JUMP JUMPDEST PUSH1 0x0 PUSH1 0x20 DUP3 ADD SWAP1 POP PUSH2 0x36AA PUSH1 0x0 DUP4 ADD DUP5 PUSH2 0x3686 JUMP JUMPDEST SWAP3 SWAP2 POP POP JUMP JUMPDEST PUSH1 0x0 PUSH8 0xFFFFFFFFFFFFFFFF DUP3 GT ISZERO PUSH2 0x36CB JUMPI PUSH2 0x36CA PUSH2 0x3176 JUMP JUMPDEST JUMPDEST PUSH2 0x36D4 DUP3 PUSH2 0x3165 JUMP JUMPDEST SWAP1 POP PUSH1 0x20 DUP2 ADD SWAP1 POP SWAP2 SWAP1 POP JUMP JUMPDEST PUSH1 0x0 PUSH2 0x36F4 PUSH2 0x36EF DUP5 PUSH2 0x36B0 JUMP JUMPDEST PUSH2 0x31D6 JUMP JUMPDEST SWAP1 POP DUP3 DUP2 MSTORE PUSH1 0x20 DUP2 ADD DUP5 DUP5 DUP5 ADD GT ISZERO PUSH2 0x3710 JUMPI PUSH2 0x370F PUSH2 0x3160 JUMP JUMPDEST JUMPDEST PUSH2 0x371B DUP5 DUP3 DUP6 PUSH2 0x3222 JUMP JUMPDEST POP SWAP4 SWAP3 POP POP POP JUMP JUMPDEST PUSH1 0x0 DUP3 PUSH1 0x1F DUP4 ADD SLT PUSH2 0x3738 JUMPI PUSH2 0x3737 PUSH2 0x315B JUMP JUMPDEST JUMPDEST DUP2 CALLDATALOAD PUSH2 0x3748 DUP5 DUP3 PUSH1 0x20 DUP7 ADD PUSH2 0x36E1 JUMP JUMPDEST SWAP2 POP POP SWAP3 SWAP2 POP POP JUMP JUMPDEST PUSH1 0x0 DUP1 PUSH1 0x0 DUP1 PUSH1 0x0 PUSH1 0xA0 DUP7 DUP9 SUB SLT ISZERO PUSH2 0x376D JUMPI PUSH2 0x376C PUSH2 0x2F98 JUMP JUMPDEST JUMPDEST PUSH1 0x0 PUSH2 0x377B DUP9 DUP3 DUP10 ADD PUSH2 0x2FEB JUMP JUMPDEST SWAP6 POP POP PUSH1 0x20 PUSH2 0x378C DUP9 DUP3 DUP10 ADD PUSH2 0x2FEB JUMP JUMPDEST SWAP5 POP POP PUSH1 0x40 DUP7 ADD CALLDATALOAD PUSH8 0xFFFFFFFFFFFFFFFF DUP2 GT ISZERO PUSH2 0x37AD JUMPI PUSH2 0x37AC PUSH2 0x2F9D JUMP JUMPDEST JUMPDEST PUSH2 0x37B9 DUP9 DUP3 DUP10 ADD PUSH2 0x3447 JUMP JUMPDEST SWAP4 POP POP PUSH1 0x60 DUP7 ADD CALLDATALOAD PUSH8 0xFFFFFFFFFFFFFFFF DUP2 GT ISZERO PUSH2 0x37DA JUMPI PUSH2 0x37D9 PUSH2 0x2F9D JUMP JUMPDEST JUMPDEST PUSH2 0x37E6 DUP9 DUP3 DUP10 ADD PUSH2 0x3447 JUMP JUMPDEST SWAP3 POP POP PUSH1 0x80 DUP7 ADD CALLDATALOAD PUSH8 0xFFFFFFFFFFFFFFFF DUP2 GT ISZERO PUSH2 0x3807 JUMPI PUSH2 0x3806 PUSH2 0x2F9D JUMP JUMPDEST JUMPDEST PUSH2 0x3813 DUP9 DUP3 DUP10 ADD PUSH2 0x3723 JUMP JUMPDEST SWAP2 POP POP SWAP3 SWAP6 POP SWAP3 SWAP6 SWAP1 SWAP4 POP JUMP JUMPDEST PUSH1 0x0 DUP1 PUSH1 0x40 DUP4 DUP6 SUB SLT ISZERO PUSH2 0x3837 JUMPI PUSH2 0x3836 PUSH2 0x2F98 JUMP JUMPDEST JUMPDEST PUSH1 0x0 PUSH2 0x3845 DUP6 DUP3 DUP7 ADD PUSH2 0x3644 JUMP JUMPDEST SWAP3 POP POP PUSH1 0x20 PUSH2 0x3856 DUP6 DUP3 DUP7 ADD PUSH2 0x2FEB JUMP JUMPDEST SWAP2 POP POP SWAP3 POP SWAP3 SWAP1 POP JUMP JUMPDEST PUSH1 0x0 DUP1 PUSH1 0x40 DUP4 DUP6 SUB SLT ISZERO PUSH2 0x3877 JUMPI PUSH2 0x3876 PUSH2 0x2F98 JUMP JUMPDEST JUMPDEST PUSH1 0x0 DUP4 ADD CALLDATALOAD PUSH8 0xFFFFFFFFFFFFFFFF DUP2 GT ISZERO PUSH2 0x3895 JUMPI PUSH2 0x3894 PUSH2 0x2F9D JUMP JUMPDEST JUMPDEST PUSH2 0x38A1 DUP6 DUP3 DUP7 ADD PUSH2 0x3384 JUMP JUMPDEST SWAP3 POP POP PUSH1 0x20 DUP4 ADD CALLDATALOAD PUSH8 0xFFFFFFFFFFFFFFFF DUP2 GT ISZERO PUSH2 0x38C2 JUMPI PUSH2 0x38C1 PUSH2 0x2F9D JUMP JUMPDEST JUMPDEST PUSH2 0x38CE DUP6 DUP3 DUP7 ADD PUSH2 0x3447 JUMP JUMPDEST SWAP2 POP POP SWAP3 POP SWAP3 SWAP1 POP JUMP JUMPDEST PUSH1 0x0 DUP2 MLOAD SWAP1 POP SWAP2 SWAP1 POP JUMP JUMPDEST PUSH1 0x0 DUP3 DUP3 MSTORE PUSH1 0x20 DUP3 ADD SWAP1 POP SWAP3 SWAP2 POP POP JUMP JUMPDEST PUSH1 0x0 DUP2 SWAP1 POP PUSH1 0x20 DUP3 ADD SWAP1 POP SWAP2 SWAP1 POP JUMP JUMPDEST PUSH2 0x390D DUP2 PUSH2 0x3000 JUMP JUMPDEST DUP3 MSTORE POP POP JUMP JUMPDEST PUSH1 0x0 PUSH2 0x391F DUP4 DUP4 PUSH2 0x3904 JUMP JUMPDEST PUSH1 0x20 DUP4 ADD SWAP1 POP SWAP3 SWAP2 POP POP JUMP JUMPDEST PUSH1 0x0 PUSH1 0x20 DUP3 ADD SWAP1 POP SWAP2 SWAP1 POP JUMP JUMPDEST PUSH1 0x0 PUSH2 0x3943 DUP3 PUSH2 0x38D8 JUMP JUMPDEST PUSH2 0x394D DUP2 DUP6 PUSH2 0x38E3 JUMP JUMPDEST SWAP4 POP PUSH2 0x3958 DUP4 PUSH2 0x38F4 JUMP JUMPDEST DUP1 PUSH1 0x0 JUMPDEST DUP4 DUP2 LT ISZERO PUSH2 0x3989 JUMPI DUP2 MLOAD PUSH2 0x3970 DUP9 DUP3 PUSH2 0x3913 JUMP JUMPDEST SWAP8 POP PUSH2 0x397B DUP4 PUSH2 0x392B JUMP JUMPDEST SWAP3 POP POP PUSH1 0x1 DUP2 ADD SWAP1 POP PUSH2 0x395C JUMP JUMPDEST POP DUP6 SWAP4 POP POP POP POP SWAP3 SWAP2 POP POP JUMP JUMPDEST PUSH1 0x0 PUSH1 0x20 DUP3 ADD SWAP1 POP DUP2 DUP2 SUB PUSH1 0x0 DUP4 ADD MSTORE PUSH2 0x39B0 DUP2 DUP5 PUSH2 0x3938 JUMP JUMPDEST SWAP1 POP SWAP3 SWAP2 POP POP JUMP JUMPDEST PUSH1 0x0 PUSH1 0x20 DUP3 DUP5 SUB SLT ISZERO PUSH2 0x39CE JUMPI PUSH2 0x39CD PUSH2 0x2F98 JUMP JUMPDEST JUMPDEST PUSH1 0x0 PUSH2 0x39DC DUP5 DUP3 DUP6 ADD PUSH2 0x2FEB JUMP JUMPDEST SWAP2 POP POP SWAP3 SWAP2 POP POP JUMP JUMPDEST PUSH1 0x0 DUP1 PUSH1 0x0 PUSH1 0x60 DUP5 DUP7 SUB SLT ISZERO PUSH2 0x39FE JUMPI PUSH2 0x39FD PUSH2 0x2F98 JUMP JUMPDEST JUMPDEST PUSH1 0x0 PUSH2 0x3A0C DUP7 DUP3 DUP8 ADD PUSH2 0x2FEB JUMP JUMPDEST SWAP4 POP POP PUSH1 0x20 DUP5 ADD CALLDATALOAD PUSH8 0xFFFFFFFFFFFFFFFF DUP2 GT ISZERO PUSH2 0x3A2D JUMPI PUSH2 0x3A2C PUSH2 0x2F9D JUMP JUMPDEST JUMPDEST PUSH2 0x3A39 DUP7 DUP3 DUP8 ADD PUSH2 0x3447 JUMP JUMPDEST SWAP3 POP POP PUSH1 0x40 DUP5 ADD CALLDATALOAD PUSH8 0xFFFFFFFFFFFFFFFF DUP2 GT ISZERO PUSH2 0x3A5A JUMPI PUSH2 0x3A59 PUSH2 0x2F9D JUMP JUMPDEST JUMPDEST PUSH2 0x3A66 DUP7 DUP3 DUP8 ADD PUSH2 0x3447 JUMP JUMPDEST SWAP2 POP POP SWAP3 POP SWAP3 POP SWAP3 JUMP JUMPDEST PUSH1 0x0 DUP1 PUSH1 0x0 DUP1 PUSH1 0x80 DUP6 DUP8 SUB SLT ISZERO PUSH2 0x3A8A JUMPI PUSH2 0x3A89 PUSH2 0x2F98 JUMP JUMPDEST JUMPDEST PUSH1 0x0 PUSH2 0x3A98 DUP8 DUP3 DUP9 ADD PUSH2 0x2FEB JUMP JUMPDEST SWAP5 POP POP PUSH1 0x20 DUP6 ADD CALLDATALOAD PUSH8 0xFFFFFFFFFFFFFFFF DUP2 GT ISZERO PUSH2 0x3AB9 JUMPI PUSH2 0x3AB8 PUSH2 0x2F9D JUMP JUMPDEST JUMPDEST PUSH2 0x3AC5 DUP8 DUP3 DUP9 ADD PUSH2 0x3447 JUMP JUMPDEST SWAP4 POP POP PUSH1 0x40 DUP6 ADD CALLDATALOAD PUSH8 0xFFFFFFFFFFFFFFFF DUP2 GT ISZERO PUSH2 0x3AE6 JUMPI PUSH2 0x3AE5 PUSH2 0x2F9D JUMP JUMPDEST JUMPDEST PUSH2 0x3AF2 DUP8 DUP3 DUP9 ADD PUSH2 0x3447 JUMP JUMPDEST SWAP3 POP POP PUSH1 0x60 PUSH2 0x3B03 DUP8 DUP3 DUP9 ADD PUSH2 0x3485 JUMP JUMPDEST SWAP2 POP POP SWAP3 SWAP6 SWAP2 SWAP5 POP SWAP3 POP JUMP JUMPDEST PUSH2 0x3B18 DUP2 PUSH2 0x3125 JUMP JUMPDEST DUP2 EQ PUSH2 0x3B23 JUMPI PUSH1 0x0 DUP1 REVERT JUMPDEST POP JUMP JUMPDEST PUSH1 0x0 DUP2 CALLDATALOAD SWAP1 POP PUSH2 0x3B35 DUP2 PUSH2 0x3B0F JUMP JUMPDEST SWAP3 SWAP2 POP POP JUMP JUMPDEST PUSH1 0x0 DUP1 PUSH1 0x40 DUP4 DUP6 SUB SLT ISZERO PUSH2 0x3B52 JUMPI PUSH2 0x3B51 PUSH2 0x2F98 JUMP JUMPDEST JUMPDEST PUSH1 0x0 PUSH2 0x3B60 DUP6 DUP3 DUP7 ADD PUSH2 0x2FEB JUMP JUMPDEST SWAP3 POP POP PUSH1 0x20 PUSH2 0x3B71 DUP6 DUP3 DUP7 ADD PUSH2 0x3B26 JUMP JUMPDEST SWAP2 POP POP SWAP3 POP SWAP3 SWAP1 POP JUMP JUMPDEST PUSH1 0x0 DUP1 PUSH1 0x0 DUP1 PUSH1 0x0 DUP1 PUSH1 0xC0 DUP8 DUP10 SUB SLT ISZERO PUSH2 0x3B98 JUMPI PUSH2 0x3B97 PUSH2 0x2F98 JUMP JUMPDEST JUMPDEST PUSH1 0x0 PUSH2 0x3BA6 DUP10 DUP3 DUP11 ADD PUSH2 0x2FEB JUMP JUMPDEST SWAP7 POP POP PUSH1 0x20 DUP8 ADD CALLDATALOAD PUSH8 0xFFFFFFFFFFFFFFFF DUP2 GT ISZERO PUSH2 0x3BC7 JUMPI PUSH2 0x3BC6 PUSH2 0x2F9D JUMP JUMPDEST JUMPDEST PUSH2 0x3BD3 DUP10 DUP3 DUP11 ADD PUSH2 0x3384 JUMP JUMPDEST SWAP6 POP POP PUSH1 0x40 DUP8 ADD CALLDATALOAD PUSH8 0xFFFFFFFFFFFFFFFF DUP2 GT ISZERO PUSH2 0x3BF4 JUMPI PUSH2 0x3BF3 PUSH2 0x2F9D JUMP JUMPDEST JUMPDEST PUSH2 0x3C00 DUP10 DUP3 DUP11 ADD PUSH2 0x3447 JUMP JUMPDEST SWAP5 POP POP PUSH1 0x60 DUP8 ADD CALLDATALOAD PUSH8 0xFFFFFFFFFFFFFFFF DUP2 GT ISZERO PUSH2 0x3C21 JUMPI PUSH2 0x3C20 PUSH2 0x2F9D JUMP JUMPDEST JUMPDEST PUSH2 0x3C2D DUP10 DUP3 DUP11 ADD PUSH2 0x3447 JUMP JUMPDEST SWAP4 POP POP PUSH1 0x80 PUSH2 0x3C3E DUP10 DUP3 DUP11 ADD PUSH2 0x3485 JUMP JUMPDEST SWAP3 POP POP PUSH1 0xA0 DUP8 ADD CALLDATALOAD PUSH8 0xFFFFFFFFFFFFFFFF DUP2 GT ISZERO PUSH2 0x3C5F JUMPI PUSH2 0x3C5E PUSH2 0x2F9D JUMP JUMPDEST JUMPDEST PUSH2 0x3C6B DUP10 DUP3 DUP11 ADD PUSH2 0x3723 JUMP JUMPDEST SWAP2 POP POP SWAP3 SWAP6 POP SWAP3 SWAP6 POP SWAP3 SWAP6 JUMP JUMPDEST PUSH1 0x0 DUP1 PUSH1 0x40 DUP4 DUP6 SUB SLT ISZERO PUSH2 0x3C8F JUMPI PUSH2 0x3C8E PUSH2 0x2F98 JUMP JUMPDEST JUMPDEST PUSH1 0x0 PUSH2 0x3C9D DUP6 DUP3 DUP7 ADD PUSH2 0x2FEB JUMP JUMPDEST SWAP3 POP POP PUSH1 0x20 PUSH2 0x3CAE DUP6 DUP3 DUP7 ADD PUSH2 0x2FEB JUMP JUMPDEST SWAP2 POP POP SWAP3 POP SWAP3 SWAP1 POP JUMP JUMPDEST PUSH1 0x0 DUP1 PUSH1 0x0 DUP1 PUSH1 0x0 PUSH1 0xA0 DUP7 DUP9 SUB SLT ISZERO PUSH2 0x3CD4 JUMPI PUSH2 0x3CD3 PUSH2 0x2F98 JUMP JUMPDEST JUMPDEST PUSH1 0x0 PUSH2 0x3CE2 DUP9 DUP3 DUP10 ADD PUSH2 0x2FEB JUMP JUMPDEST SWAP6 POP POP PUSH1 0x20 PUSH2 0x3CF3 DUP9 DUP3 DUP10 ADD PUSH2 0x2FEB JUMP JUMPDEST SWAP5 POP POP PUSH1 0x40 PUSH2 0x3D04 DUP9 DUP3 DUP10 ADD PUSH2 0x3021 JUMP JUMPDEST SWAP4 POP POP PUSH1 0x60 PUSH2 0x3D15 DUP9 DUP3 DUP10 ADD PUSH2 0x3021 JUMP JUMPDEST SWAP3 POP POP PUSH1 0x80 DUP7 ADD CALLDATALOAD PUSH8 0xFFFFFFFFFFFFFFFF DUP2 GT ISZERO PUSH2 0x3D36 JUMPI PUSH2 0x3D35 PUSH2 0x2F9D JUMP JUMPDEST JUMPDEST PUSH2 0x3D42 DUP9 DUP3 DUP10 ADD PUSH2 0x3723 JUMP JUMPDEST SWAP2 POP POP SWAP3 SWAP6 POP SWAP3 SWAP6 SWAP1 SWAP4 POP JUMP JUMPDEST PUSH1 0x0 DUP1 PUSH1 0x0 PUSH1 0x60 DUP5 DUP7 SUB SLT ISZERO PUSH2 0x3D68 JUMPI PUSH2 0x3D67 PUSH2 0x2F98 JUMP JUMPDEST JUMPDEST PUSH1 0x0 PUSH2 0x3D76 DUP7 DUP3 DUP8 ADD PUSH2 0x2FEB JUMP JUMPDEST SWAP4 POP POP PUSH1 0x20 PUSH2 0x3D87 DUP7 DUP3 DUP8 ADD PUSH2 0x3021 JUMP JUMPDEST SWAP3 POP POP PUSH1 0x40 PUSH2 0x3D98 DUP7 DUP3 DUP8 ADD PUSH2 0x3021 JUMP JUMPDEST SWAP2 POP POP SWAP3 POP SWAP3 POP SWAP3 JUMP JUMPDEST PUSH1 0x0 DUP1 PUSH1 0x0 DUP1 PUSH1 0x0 PUSH1 0xA0 DUP7 DUP9 SUB SLT ISZERO PUSH2 0x3DBE JUMPI PUSH2 0x3DBD PUSH2 0x2F98 JUMP JUMPDEST JUMPDEST PUSH1 0x0 DUP7 ADD CALLDATALOAD PUSH8 0xFFFFFFFFFFFFFFFF DUP2 GT ISZERO PUSH2 0x3DDC JUMPI PUSH2 0x3DDB PUSH2 0x2F9D JUMP JUMPDEST JUMPDEST PUSH2 0x3DE8 DUP9 DUP3 DUP10 ADD PUSH2 0x3384 JUMP JUMPDEST SWAP6 POP POP PUSH1 0x20 DUP7 ADD CALLDATALOAD PUSH8 0xFFFFFFFFFFFFFFFF DUP2 GT ISZERO PUSH2 0x3E09 JUMPI PUSH2 0x3E08 PUSH2 0x2F9D JUMP JUMPDEST JUMPDEST PUSH2 0x3E15 DUP9 DUP3 DUP10 ADD PUSH2 0x3447 JUMP JUMPDEST SWAP5 POP POP PUSH1 0x40 DUP7 ADD CALLDATALOAD PUSH8 0xFFFFFFFFFFFFFFFF DUP2 GT ISZERO PUSH2 0x3E36 JUMPI PUSH2 0x3E35 PUSH2 0x2F9D JUMP JUMPDEST JUMPDEST PUSH2 0x3E42 DUP9 DUP3 DUP10 ADD PUSH2 0x3447 JUMP JUMPDEST SWAP4 POP POP PUSH1 0x60 PUSH2 0x3E53 DUP9 DUP3 DUP10 ADD PUSH2 0x3485 JUMP JUMPDEST SWAP3 POP POP PUSH1 0x80 DUP7 ADD CALLDATALOAD PUSH8 0xFFFFFFFFFFFFFFFF DUP2 GT ISZERO PUSH2 0x3E74 JUMPI PUSH2 0x3E73 PUSH2 0x2F9D JUMP JUMPDEST JUMPDEST PUSH2 0x3E80 DUP9 DUP3 DUP10 ADD PUSH2 0x3723 JUMP JUMPDEST SWAP2 POP POP SWAP3 SWAP6 POP SWAP3 SWAP6 SWAP1 SWAP4 POP JUMP JUMPDEST PUSH32 0x455243313135353A2061646472657373207A65726F206973206E6F7420612076 PUSH1 0x0 DUP3 ADD MSTORE PUSH32 0x616C6964206F776E657200000000000000000000000000000000000000000000 PUSH1 0x20 DUP3 ADD MSTORE POP JUMP JUMPDEST PUSH1 0x0 PUSH2 0x3EE9 PUSH1 0x2A DUP4 PUSH2 0x358D JUMP JUMPDEST SWAP2 POP PUSH2 0x3EF4 DUP3 PUSH2 0x3E8D JUMP JUMPDEST PUSH1 0x40 DUP3 ADD SWAP1 POP SWAP2 SWAP1 POP JUMP JUMPDEST PUSH1 0x0 PUSH1 0x20 DUP3 ADD SWAP1 POP DUP2 DUP2 SUB PUSH1 0x0 DUP4 ADD MSTORE PUSH2 0x3F18 DUP2 PUSH2 0x3EDC JUMP JUMPDEST SWAP1 POP SWAP2 SWAP1 POP JUMP JUMPDEST PUSH32 0x706172616D206572726F723A206163636F756E7473206973206E756C6C000000 PUSH1 0x0 DUP3 ADD MSTORE POP JUMP JUMPDEST PUSH1 0x0 PUSH2 0x3F55 PUSH1 0x1D DUP4 PUSH2 0x358D JUMP JUMPDEST SWAP2 POP PUSH2 0x3F60 DUP3 PUSH2 0x3F1F JUMP JUMPDEST PUSH1 0x20 DUP3 ADD SWAP1 POP SWAP2 SWAP1 POP JUMP JUMPDEST PUSH1 0x0 PUSH1 0x20 DUP3 ADD SWAP1 POP DUP2 DUP2 SUB PUSH1 0x0 DUP4 ADD MSTORE PUSH2 0x3F84 DUP2 PUSH2 0x3F48 JUMP JUMPDEST SWAP1 POP SWAP2 SWAP1 POP JUMP JUMPDEST PUSH32 0x706172616D206572726F723A20696473206973206E756C6C0000000000000000 PUSH1 0x0 DUP3 ADD MSTORE POP JUMP JUMPDEST PUSH1 0x0 PUSH2 0x3FC1 PUSH1 0x18 DUP4 PUSH2 0x358D JUMP JUMPDEST SWAP2 POP PUSH2 0x3FCC DUP3 PUSH2 0x3F8B JUMP JUMPDEST PUSH1 0x20 DUP3 ADD SWAP1 POP SWAP2 SWAP1 POP JUMP JUMPDEST PUSH1 0x0 PUSH1 0x20 DUP3 ADD SWAP1 POP DUP2 DUP2 SUB PUSH1 0x0 DUP4 ADD MSTORE PUSH2 0x3FF0 DUP2 PUSH2 0x3FB4 JUMP JUMPDEST SWAP1 POP SWAP2 SWAP1 POP JUMP JUMPDEST PUSH32 0x706172616D206572726F723A20616D6F756E7473206973206E756C6C00000000 PUSH1 0x0 DUP3 ADD MSTORE POP JUMP JUMPDEST PUSH1 0x0 PUSH2 0x402D PUSH1 0x1C DUP4 PUSH2 0x358D JUMP JUMPDEST SWAP2 POP PUSH2 0x4038 DUP3 PUSH2 0x3FF7 JUMP JUMPDEST PUSH1 0x20 DUP3 ADD SWAP1 POP SWAP2 SWAP1 POP JUMP JUMPDEST PUSH1 0x0 PUSH1 0x20 DUP3 ADD SWAP1 POP DUP2 DUP2 SUB PUSH1 0x0 DUP4 ADD MSTORE PUSH2 0x405C DUP2 PUSH2 0x4020 JUMP JUMPDEST SWAP1 POP SWAP2 SWAP1 POP JUMP JUMPDEST PUSH32 0x706172616D206572726F723A2061727279206973206572726F72000000000000 PUSH1 0x0 DUP3 ADD MSTORE POP JUMP JUMPDEST PUSH1 0x0 PUSH2 0x4099 PUSH1 0x1A DUP4 PUSH2 0x358D JUMP JUMPDEST SWAP2 POP PUSH2 0x40A4 DUP3 PUSH2 0x4063 JUMP JUMPDEST PUSH1 0x20 DUP3 ADD SWAP1 POP SWAP2 SWAP1 POP JUMP JUMPDEST PUSH1 0x0 PUSH1 0x20 DUP3 ADD SWAP1 POP DUP2 DUP2 SUB PUSH1 0x0 DUP4 ADD MSTORE PUSH2 0x40C8 DUP2 PUSH2 0x408C JUMP JUMPDEST SWAP1 POP SWAP2 SWAP1 POP JUMP JUMPDEST PUSH32 0x4E487B7100000000000000000000000000000000000000000000000000000000 PUSH1 0x0 MSTORE PUSH1 0x21 PUSH1 0x4 MSTORE PUSH1 0x24 PUSH1 0x0 REVERT JUMPDEST PUSH32 0x4E487B7100000000000000000000000000000000000000000000000000000000 PUSH1 0x0 MSTORE PUSH1 0x22 PUSH1 0x4 MSTORE PUSH1 0x24 PUSH1 0x0 REVERT JUMPDEST PUSH1 0x0 PUSH1 0x2 DUP3 DIV SWAP1 POP PUSH1 0x1 DUP3 AND DUP1 PUSH2 0x4145 JUMPI PUSH1 0x7F DUP3 AND SWAP2 POP JUMPDEST PUSH1 0x20 DUP3 LT DUP2 SUB PUSH2 0x4158 JUMPI PUSH2 0x4157 PUSH2 0x40FE JUMP JUMPDEST JUMPDEST POP SWAP2 SWAP1 POP JUMP JUMPDEST PUSH32 0x455243313135353A2063616C6C6572206973206E6F7420746F6B656E206F776E PUSH1 0x0 DUP3 ADD MSTORE PUSH32 0x6572206F7220617070726F766564000000000000000000000000000000000000 PUSH1 0x20 DUP3 ADD MSTORE POP JUMP JUMPDEST PUSH1 0x0 PUSH2 0x41BA PUSH1 0x2E DUP4 PUSH2 0x358D JUMP JUMPDEST SWAP2 POP PUSH2 0x41C5 DUP3 PUSH2 0x415E JUMP JUMPDEST PUSH1 0x40 DUP3 ADD SWAP1 POP SWAP2 SWAP1 POP JUMP JUMPDEST PUSH1 0x0 PUSH1 0x20 DUP3 ADD SWAP1 POP DUP2 DUP2 SUB PUSH1 0x0 DUP4 ADD MSTORE PUSH2 0x41E9 DUP2 PUSH2 0x41AD JUMP JUMPDEST SWAP1 POP SWAP2 SWAP1 POP JUMP JUMPDEST PUSH32 0x416363657373436F6E74726F6C3A2063616E206F6E6C792072656E6F756E6365 PUSH1 0x0 DUP3 ADD MSTORE PUSH32 0x20726F6C657320666F722073656C660000000000000000000000000000000000 PUSH1 0x20 DUP3 ADD MSTORE POP JUMP JUMPDEST PUSH1 0x0 PUSH2 0x424C PUSH1 0x2F DUP4 PUSH2 0x358D JUMP JUMPDEST SWAP2 POP PUSH2 0x4257 DUP3 PUSH2 0x41F0 JUMP JUMPDEST PUSH1 0x40 DUP3 ADD SWAP1 POP SWAP2 SWAP1 POP JUMP JUMPDEST PUSH1 0x0 PUSH1 0x20 DUP3 ADD SWAP1 POP DUP2 DUP2 SUB PUSH1 0x0 DUP4 ADD MSTORE PUSH2 0x427B DUP2 PUSH2 0x423F JUMP JUMPDEST SWAP1 POP SWAP2 SWAP1 POP JUMP JUMPDEST PUSH32 0x455243313135353A206163636F756E747320616E6420696473206C656E677468 PUSH1 0x0 DUP3 ADD MSTORE PUSH32 0x206D69736D617463680000000000000000000000000000000000000000000000 PUSH1 0x20 DUP3 ADD MSTORE POP JUMP JUMPDEST PUSH1 0x0 PUSH2 0x42DE PUSH1 0x29 DUP4 PUSH2 0x358D JUMP JUMPDEST SWAP2 POP PUSH2 0x42E9 DUP3 PUSH2 0x4282 JUMP JUMPDEST PUSH1 0x40 DUP3 ADD SWAP1 POP SWAP2 SWAP1 POP JUMP JUMPDEST PUSH1 0x0 PUSH1 0x20 DUP3 ADD SWAP1 POP DUP2 DUP2 SUB PUSH1 0x0 DUP4 ADD MSTORE PUSH2 0x430D DUP2 PUSH2 0x42D1 JUMP JUMPDEST SWAP1 POP SWAP2 SWAP1 POP JUMP JUMPDEST PUSH32 0x4E487B7100000000000000000000000000000000000000000000000000000000 PUSH1 0x0 MSTORE PUSH1 0x32 PUSH1 0x4 MSTORE PUSH1 0x24 PUSH1 0x0 REVERT JUMPDEST PUSH32 0x4E487B7100000000000000000000000000000000000000000000000000000000 PUSH1 0x0 MSTORE PUSH1 0x11 PUSH1 0x4 MSTORE PUSH1 0x24 PUSH1 0x0 REVERT JUMPDEST PUSH1 0x0 PUSH2 0x437D DUP3 PUSH2 0x3000 JUMP JUMPDEST SWAP2 POP PUSH32 0xFFFFFFFFFFFFFFFFFFFFFFFFFFFFFFFFFFFFFFFFFFFFFFFFFFFFFFFFFFFFFFFF DUP3 SUB PUSH2 0x43AF JUMPI PUSH2 0x43AE PUSH2 0x4343 JUMP JUMPDEST JUMPDEST PUSH1 0x1 DUP3 ADD SWAP1 POP SWAP2 SWAP1 POP JUMP JUMPDEST PUSH2 0x43C3 DUP2 PUSH2 0x2FC2 JUMP JUMPDEST DUP3 MSTORE POP POP JUMP JUMPDEST PUSH1 0x0 DUP2 MLOAD SWAP1 POP SWAP2 SWAP1 POP JUMP JUMPDEST PUSH1 0x0 DUP3 DUP3 MSTORE PUSH1 0x20 DUP3 ADD SWAP1 POP SWAP3 SWAP2 POP POP JUMP JUMPDEST PUSH1 0x0 DUP2 SWAP1 POP PUSH1 0x20 DUP3 ADD SWAP1 POP SWAP2 SWAP1 POP JUMP JUMPDEST PUSH2 0x43FE DUP2 PUSH2 0x2FC2 JUMP JUMPDEST DUP3 MSTORE POP POP JUMP JUMPDEST PUSH1 0x0 PUSH2 0x4410 DUP4 DUP4 PUSH2 0x43F5 JUMP JUMPDEST PUSH1 0x20 DUP4 ADD SWAP1 POP SWAP3 SWAP2 POP POP JUMP JUMPDEST PUSH1 0x0 PUSH1 0x20 DUP3 ADD SWAP1 POP SWAP2 SWAP1 POP JUMP JUMPDEST PUSH1 0x0 PUSH2 0x4434 DUP3 PUSH2 0x43C9 JUMP JUMPDEST PUSH2 0x443E DUP2 DUP6 PUSH2 0x43D4 JUMP JUMPDEST SWAP4 POP PUSH2 0x4449 DUP4 PUSH2 0x43E5 JUMP JUMPDEST DUP1 PUSH1 0x0 JUMPDEST DUP4 DUP2 LT ISZERO PUSH2 0x447A JUMPI DUP2 MLOAD PUSH2 0x4461 DUP9 DUP3 PUSH2 0x4404 JUMP JUMPDEST SWAP8 POP PUSH2 0x446C DUP4 PUSH2 0x441C JUMP JUMPDEST SWAP3 POP POP PUSH1 0x1 DUP2 ADD SWAP1 POP PUSH2 0x444D JUMP JUMPDEST POP DUP6 SWAP4 POP POP POP POP SWAP3 SWAP2 POP POP JUMP JUMPDEST PUSH1 0x3 DUP2 LT PUSH2 0x4498 JUMPI PUSH2 0x4497 PUSH2 0x40CF JUMP JUMPDEST JUMPDEST POP JUMP JUMPDEST PUSH1 0x0 DUP2 SWAP1 POP PUSH2 0x44A9 DUP3 PUSH2 0x4487 JUMP JUMPDEST SWAP2 SWAP1 POP JUMP JUMPDEST PUSH1 0x0 PUSH2 0x44B9 DUP3 PUSH2 0x449B JUMP JUMPDEST SWAP1 POP SWAP2 SWAP1 POP JUMP JUMPDEST PUSH2 0x44C9 DUP2 PUSH2 0x44AE JUMP JUMPDEST DUP3 MSTORE POP POP JUMP JUMPDEST PUSH1 0x0 DUP2 MLOAD SWAP1 POP SWAP2 SWAP1 POP JUMP JUMPDEST PUSH1 0x0 DUP3 DUP3 MSTORE PUSH1 0x20 DUP3 ADD SWAP1 POP SWAP3 SWAP2 POP POP JUMP JUMPDEST PUSH1 0x0 PUSH2 0x44F6 DUP3 PUSH2 0x44CF JUMP JUMPDEST PUSH2 0x4500 DUP2 DUP6 PUSH2 0x44DA JUMP JUMPDEST SWAP4 POP PUSH2 0x4510 DUP2 DUP6 PUSH1 0x20 DUP7 ADD PUSH2 0x359E JUMP JUMPDEST PUSH2 0x4519 DUP2 PUSH2 0x3165 JUMP JUMPDEST DUP5 ADD SWAP2 POP POP SWAP3 SWAP2 POP POP JUMP JUMPDEST PUSH1 0x0 PUSH1 0xC0 DUP3 ADD SWAP1 POP PUSH2 0x4539 PUSH1 0x0 DUP4 ADD DUP10 PUSH2 0x43BA JUMP JUMPDEST DUP2 DUP2 SUB PUSH1 0x20 DUP4 ADD MSTORE PUSH2 0x454B DUP2 DUP9 PUSH2 0x4429 JUMP JUMPDEST SWAP1 POP DUP2 DUP2 SUB PUSH1 0x40 DUP4 ADD MSTORE PUSH2 0x455F DUP2 DUP8 PUSH2 0x3938 JUMP JUMPDEST SWAP1 POP DUP2 DUP2 SUB PUSH1 0x60 DUP4 ADD MSTORE PUSH2 0x4573 DUP2 DUP7 PUSH2 0x3938 JUMP JUMPDEST SWAP1 POP PUSH2 0x4582 PUSH1 0x80 DUP4 ADD DUP6 PUSH2 0x44C0 JUMP JUMPDEST DUP2 DUP2 SUB PUSH1 0xA0 DUP4 ADD MSTORE PUSH2 0x4594 DUP2 DUP5 PUSH2 0x44EB JUMP JUMPDEST SWAP1 POP SWAP8 SWAP7 POP POP POP POP POP POP POP JUMP JUMPDEST PUSH1 0x0 PUSH1 0xA0 DUP3 ADD SWAP1 POP DUP2 DUP2 SUB PUSH1 0x0 DUP4 ADD MSTORE PUSH2 0x45BB DUP2 DUP9 PUSH2 0x4429 JUMP JUMPDEST SWAP1 POP DUP2 DUP2 SUB PUSH1 0x20 DUP4 ADD MSTORE PUSH2 0x45CF DUP2 DUP8 PUSH2 0x3938 JUMP JUMPDEST SWAP1 POP DUP2 DUP2 SUB PUSH1 0x40 DUP4 ADD MSTORE PUSH2 0x45E3 DUP2 DUP7 PUSH2 0x3938 JUMP JUMPDEST SWAP1 POP PUSH2 0x45F2 PUSH1 0x60 DUP4 ADD DUP6 PUSH2 0x44C0 JUMP JUMPDEST DUP2 DUP2 SUB PUSH1 0x80 DUP4 ADD MSTORE PUSH2 0x4604 DUP2 DUP5 PUSH2 0x44EB JUMP JUMPDEST SWAP1 POP SWAP7 SWAP6 POP POP POP POP POP POP JUMP JUMPDEST PUSH1 0x0 DUP2 SWAP1 POP DUP2 PUSH1 0x0 MSTORE PUSH1 0x20 PUSH1 0x0 KECCAK256 SWAP1 POP SWAP2 SWAP1 POP JUMP JUMPDEST PUSH1 0x0 PUSH1 0x20 PUSH1 0x1F DUP4 ADD DIV SWAP1 POP SWAP2 SWAP1 POP JUMP JUMPDEST PUSH1 0x0 DUP3 DUP3 SHL SWAP1 POP SWAP3 SWAP2 POP POP JUMP JUMPDEST PUSH1 0x0 PUSH1 0x8 DUP4 MUL PUSH2 0x4672 PUSH32 0xFFFFFFFFFFFFFFFFFFFFFFFFFFFFFFFFFFFFFFFFFFFFFFFFFFFFFFFFFFFFFFFF DUP3 PUSH2 0x4635 JUMP JUMPDEST PUSH2 0x467C DUP7 DUP4 PUSH2 0x4635 JUMP JUMPDEST SWAP6 POP DUP1 NOT DUP5 AND SWAP4 POP DUP1 DUP7 AND DUP5 OR SWAP3 POP POP POP SWAP4 SWAP3 POP POP POP JUMP JUMPDEST PUSH1 0x0 DUP2 SWAP1 POP SWAP2 SWAP1 POP JUMP JUMPDEST PUSH1 0x0 PUSH2 0x46B9 PUSH2 0x46B4 PUSH2 0x46AF DUP5 PUSH2 0x3000 JUMP JUMPDEST PUSH2 0x4694 JUMP JUMPDEST PUSH2 0x3000 JUMP JUMPDEST SWAP1 POP SWAP2 SWAP1 POP JUMP JUMPDEST PUSH1 0x0 DUP2 SWAP1 POP SWAP2 SWAP1 POP JUMP JUMPDEST PUSH2 0x46D3 DUP4 PUSH2 0x469E JUMP JUMPDEST PUSH2 0x46E7 PUSH2 0x46DF DUP3 PUSH2 0x46C0 JUMP JUMPDEST DUP5 DUP5 SLOAD PUSH2 0x4642 JUMP JUMPDEST DUP3 SSTORE POP POP POP POP JUMP JUMPDEST PUSH1 0x0 SWAP1 JUMP JUMPDEST PUSH2 0x46FC PUSH2 0x46EF JUMP JUMPDEST PUSH2 0x4707 DUP2 DUP5 DUP5 PUSH2 0x46CA JUMP JUMPDEST POP POP POP JUMP JUMPDEST JUMPDEST DUP2 DUP2 LT ISZERO PUSH2 0x472B JUMPI PUSH2 0x4720 PUSH1 0x0 DUP3 PUSH2 0x46F4 JUMP JUMPDEST PUSH1 0x1 DUP2 ADD SWAP1 POP PUSH2 0x470D JUMP JUMPDEST POP POP JUMP JUMPDEST PUSH1 0x1F DUP3 GT ISZERO PUSH2 0x4770 JUMPI PUSH2 0x4741 DUP2 PUSH2 0x4610 JUMP JUMPDEST PUSH2 0x474A DUP5 PUSH2 0x4625 JUMP JUMPDEST DUP2 ADD PUSH1 0x20 DUP6 LT ISZERO PUSH2 0x4759 JUMPI DUP2 SWAP1 POP JUMPDEST PUSH2 0x476D PUSH2 0x4765 DUP6 PUSH2 0x4625 JUMP JUMPDEST DUP4 ADD DUP3 PUSH2 0x470C JUMP JUMPDEST POP POP JUMPDEST POP POP POP JUMP JUMPDEST PUSH1 0x0 DUP3 DUP3 SHR SWAP1 POP SWAP3 SWAP2 POP POP JUMP JUMPDEST PUSH1 0x0 PUSH2 0x4793 PUSH1 0x0 NOT DUP5 PUSH1 0x8 MUL PUSH2 0x4775 JUMP JUMPDEST NOT DUP1 DUP4 AND SWAP2 POP POP SWAP3 SWAP2 POP POP JUMP JUMPDEST PUSH1 0x0 PUSH2 0x47AC DUP4 DUP4 PUSH2 0x4782 JUMP JUMPDEST SWAP2 POP DUP3 PUSH1 0x2 MUL DUP3 OR SWAP1 POP SWAP3 SWAP2 POP POP JUMP JUMPDEST PUSH2 0x47C5 DUP3 PUSH2 0x3582 JUMP JUMPDEST PUSH8 0xFFFFFFFFFFFFFFFF DUP2 GT ISZERO PUSH2 0x47DE JUMPI PUSH2 0x47DD PUSH2 0x3176 JUMP JUMPDEST JUMPDEST PUSH2 0x47E8 DUP3 SLOAD PUSH2 0x412D JUMP JUMPDEST PUSH2 0x47F3 DUP3 DUP3 DUP6 PUSH2 0x472F JUMP JUMPDEST PUSH1 0x0 PUSH1 0x20 SWAP1 POP PUSH1 0x1F DUP4 GT PUSH1 0x1 DUP2 EQ PUSH2 0x4826 JUMPI PUSH1 0x0 DUP5 ISZERO PUSH2 0x4814 JUMPI DUP3 DUP8 ADD MLOAD SWAP1 POP JUMPDEST PUSH2 0x481E DUP6 DUP3 PUSH2 0x47A0 JUMP JUMPDEST DUP7 SSTORE POP PUSH2 0x4886 JUMP JUMPDEST PUSH1 0x1F NOT DUP5 AND PUSH2 0x4834 DUP7 PUSH2 0x4610 JUMP JUMPDEST PUSH1 0x0 JUMPDEST DUP3 DUP2 LT ISZERO PUSH2 0x485C JUMPI DUP5 DUP10 ADD MLOAD DUP3 SSTORE PUSH1 0x1 DUP3 ADD SWAP2 POP PUSH1 0x20 DUP6 ADD SWAP5 POP PUSH1 0x20 DUP2 ADD SWAP1 POP PUSH2 0x4837 JUMP JUMPDEST DUP7 DUP4 LT ISZERO PUSH2 0x4879 JUMPI DUP5 DUP10 ADD MLOAD PUSH2 0x4875 PUSH1 0x1F DUP10 AND DUP3 PUSH2 0x4782 JUMP JUMPDEST DUP4 SSTORE POP JUMPDEST PUSH1 0x1 PUSH1 0x2 DUP9 MUL ADD DUP9 SSTORE POP POP POP JUMPDEST POP POP POP POP POP POP JUMP JUMPDEST PUSH32 0x455243313135353A2069647320616E6420616D6F756E7473206C656E67746820 PUSH1 0x0 DUP3 ADD MSTORE PUSH32 0x6D69736D61746368000000000000000000000000000000000000000000000000 PUSH1 0x20 DUP3 ADD MSTORE POP JUMP JUMPDEST PUSH1 0x0 PUSH2 0x48EA PUSH1 0x28 DUP4 PUSH2 0x358D JUMP JUMPDEST SWAP2 POP PUSH2 0x48F5 DUP3 PUSH2 0x488E JUMP JUMPDEST PUSH1 0x40 DUP3 ADD SWAP1 POP SWAP2 SWAP1 POP JUMP JUMPDEST PUSH1 0x0 PUSH1 0x20 DUP3 ADD SWAP1 POP DUP2 DUP2 SUB PUSH1 0x0 DUP4 ADD MSTORE PUSH2 0x4919 DUP2 PUSH2 0x48DD JUMP JUMPDEST SWAP1 POP SWAP2 SWAP1 POP JUMP JUMPDEST PUSH32 0x455243313135353A207472616E7366657220746F20746865207A65726F206164 PUSH1 0x0 DUP3 ADD MSTORE PUSH32 0x6472657373000000000000000000000000000000000000000000000000000000 PUSH1 0x20 DUP3 ADD MSTORE POP JUMP JUMPDEST PUSH1 0x0 PUSH2 0x497C PUSH1 0x25 DUP4 PUSH2 0x358D JUMP JUMPDEST SWAP2 POP PUSH2 0x4987 DUP3 PUSH2 0x4920 JUMP JUMPDEST PUSH1 0x40 DUP3 ADD SWAP1 POP SWAP2 SWAP1 POP JUMP JUMPDEST PUSH1 0x0 PUSH1 0x20 DUP3 ADD SWAP1 POP DUP2 DUP2 SUB PUSH1 0x0 DUP4 ADD MSTORE PUSH2 0x49AB DUP2 PUSH2 0x496F JUMP JUMPDEST SWAP1 POP SWAP2 SWAP1 POP JUMP JUMPDEST PUSH32 0x455243313135353A20696E73756666696369656E742062616C616E636520666F PUSH1 0x0 DUP3 ADD MSTORE PUSH32 0x72207472616E7366657200000000000000000000000000000000000000000000 PUSH1 0x20 DUP3 ADD MSTORE POP JUMP JUMPDEST PUSH1 0x0 PUSH2 0x4A0E PUSH1 0x2A DUP4 PUSH2 0x358D JUMP JUMPDEST SWAP2 POP PUSH2 0x4A19 DUP3 PUSH2 0x49B2 JUMP JUMPDEST PUSH1 0x40 DUP3 ADD SWAP1 POP SWAP2 SWAP1 POP JUMP JUMPDEST PUSH1 0x0 PUSH1 0x20 DUP3 ADD SWAP1 POP DUP2 DUP2 SUB PUSH1 0x0 DUP4 ADD MSTORE PUSH2 0x4A3D DUP2 PUSH2 0x4A01 JUMP JUMPDEST SWAP1 POP SWAP2 SWAP1 POP JUMP JUMPDEST PUSH1 0x0 PUSH2 0x4A4F DUP3 PUSH2 0x3000 JUMP JUMPDEST SWAP2 POP PUSH2 0x4A5A DUP4 PUSH2 0x3000 JUMP JUMPDEST SWAP3 POP DUP3 DUP3 ADD SWAP1 POP DUP1 DUP3 GT ISZERO PUSH2 0x4A72 JUMPI PUSH2 0x4A71 PUSH2 0x4343 JUMP JUMPDEST JUMPDEST SWAP3 SWAP2 POP POP JUMP JUMPDEST PUSH1 0x0 PUSH1 0x40 DUP3 ADD SWAP1 POP DUP2 DUP2 SUB PUSH1 0x0 DUP4 ADD MSTORE PUSH2 0x4A92 DUP2 DUP6 PUSH2 0x3938 JUMP JUMPDEST SWAP1 POP DUP2 DUP2 SUB PUSH1 0x20 DUP4 ADD MSTORE PUSH2 0x4AA6 DUP2 DUP5 PUSH2 0x3938 JUMP JUMPDEST SWAP1 POP SWAP4 SWAP3 POP POP POP JUMP JUMPDEST PUSH32 0x455243313135353A206275726E2066726F6D20746865207A65726F2061646472 PUSH1 0x0 DUP3 ADD MSTORE PUSH32 0x6573730000000000000000000000000000000000000000000000000000000000 PUSH1 0x20 DUP3 ADD MSTORE POP JUMP JUMPDEST PUSH1 0x0 PUSH2 0x4B0B PUSH1 0x23 DUP4 PUSH2 0x358D JUMP JUMPDEST SWAP2 POP PUSH2 0x4B16 DUP3 PUSH2 0x4AAF JUMP JUMPDEST PUSH1 0x40 DUP3 ADD SWAP1 POP SWAP2 SWAP1 POP JUMP JUMPDEST PUSH1 0x0 PUSH1 0x20 DUP3 ADD SWAP1 POP DUP2 DUP2 SUB PUSH1 0x0 DUP4 ADD MSTORE PUSH2 0x4B3A DUP2 PUSH2 0x4AFE JUMP JUMPDEST SWAP1 POP SWAP2 SWAP1 POP JUMP JUMPDEST PUSH32 0x455243313135353A206275726E20616D6F756E7420657863656564732062616C PUSH1 0x0 DUP3 ADD MSTORE PUSH32 0x616E636500000000000000000000000000000000000000000000000000000000 PUSH1 0x20 DUP3 ADD MSTORE POP JUMP JUMPDEST PUSH1 0x0 PUSH2 0x4B9D PUSH1 0x24 DUP4 PUSH2 0x358D JUMP JUMPDEST SWAP2 POP PUSH2 0x4BA8 DUP3 PUSH2 0x4B41 JUMP JUMPDEST PUSH1 0x40 DUP3 ADD SWAP1 POP SWAP2 SWAP1 POP JUMP JUMPDEST PUSH1 0x0 PUSH1 0x20 DUP3 ADD SWAP1 POP DUP2 DUP2 SUB PUSH1 0x0 DUP4 ADD MSTORE PUSH2 0x4BCC DUP2 PUSH2 0x4B90 JUMP JUMPDEST SWAP1 POP SWAP2 SWAP1 POP JUMP JUMPDEST PUSH1 0x0 PUSH1 0x40 DUP3 ADD SWAP1 POP PUSH2 0x4BE8 PUSH1 0x0 DUP4 ADD DUP6 PUSH2 0x3076 JUMP JUMPDEST PUSH2 0x4BF5 PUSH1 0x20 DUP4 ADD DUP5 PUSH2 0x3076 JUMP JUMPDEST SWAP4 SWAP3 POP POP POP JUMP JUMPDEST PUSH32 0x455243313135353A2073657474696E6720617070726F76616C20737461747573 PUSH1 0x0 DUP3 ADD MSTORE PUSH32 0x20666F722073656C660000000000000000000000000000000000000000000000 PUSH1 0x20 DUP3 ADD MSTORE POP JUMP JUMPDEST PUSH1 0x0 PUSH2 0x4C58 PUSH1 0x29 DUP4 PUSH2 0x358D JUMP JUMPDEST SWAP2 POP PUSH2 0x4C63 DUP3 PUSH2 0x4BFC JUMP JUMPDEST PUSH1 0x40 DUP3 ADD SWAP1 POP SWAP2 SWAP1 POP JUMP JUMPDEST PUSH1 0x0 PUSH1 0x20 DUP3 ADD SWAP1 POP DUP2 DUP2 SUB PUSH1 0x0 DUP4 ADD MSTORE PUSH2 0x4C87 DUP2 PUSH2 0x4C4B JUMP JUMPDEST SWAP1 POP SWAP2 SWAP1 POP JUMP JUMPDEST PUSH32 0x455243313135353A206D696E7420746F20746865207A65726F20616464726573 PUSH1 0x0 DUP3 ADD MSTORE PUSH32 0x7300000000000000000000000000000000000000000000000000000000000000 PUSH1 0x20 DUP3 ADD MSTORE POP JUMP JUMPDEST PUSH1 0x0 PUSH2 0x4CEA PUSH1 0x21 DUP4 PUSH2 0x358D JUMP JUMPDEST SWAP2 POP PUSH2 0x4CF5 DUP3 PUSH2 0x4C8E JUMP JUMPDEST PUSH1 0x40 DUP3 ADD SWAP1 POP SWAP2 SWAP1 POP JUMP JUMPDEST PUSH1 0x0 PUSH1 0x20 DUP3 ADD SWAP1 POP DUP2 DUP2 SUB PUSH1 0x0 DUP4 ADD MSTORE PUSH2 0x4D19 DUP2 PUSH2 0x4CDD JUMP JUMPDEST SWAP1 POP SWAP2 SWAP1 POP JUMP JUMPDEST PUSH1 0x0 DUP2 SWAP1 POP SWAP3 SWAP2 POP POP JUMP JUMPDEST PUSH32 0x416363657373436F6E74726F6C3A206163636F756E7420000000000000000000 PUSH1 0x0 DUP3 ADD MSTORE POP JUMP JUMPDEST PUSH1 0x0 PUSH2 0x4D61 PUSH1 0x17 DUP4 PUSH2 0x4D20 JUMP JUMPDEST SWAP2 POP PUSH2 0x4D6C DUP3 PUSH2 0x4D2B JUMP JUMPDEST PUSH1 0x17 DUP3 ADD SWAP1 POP SWAP2 SWAP1 POP JUMP JUMPDEST PUSH1 0x0 PUSH2 0x4D82 DUP3 PUSH2 0x3582 JUMP JUMPDEST PUSH2 0x4D8C DUP2 DUP6 PUSH2 0x4D20 JUMP JUMPDEST SWAP4 POP PUSH2 0x4D9C DUP2 DUP6 PUSH1 0x20 DUP7 ADD PUSH2 0x359E JUMP JUMPDEST DUP1 DUP5 ADD SWAP2 POP POP SWAP3 SWAP2 POP POP JUMP JUMPDEST PUSH32 0x206973206D697373696E6720726F6C6520000000000000000000000000000000 PUSH1 0x0 DUP3 ADD MSTORE POP JUMP JUMPDEST PUSH1 0x0 PUSH2 0x4DDE PUSH1 0x11 DUP4 PUSH2 0x4D20 JUMP JUMPDEST SWAP2 POP PUSH2 0x4DE9 DUP3 PUSH2 0x4DA8 JUMP JUMPDEST PUSH1 0x11 DUP3 ADD SWAP1 POP SWAP2 SWAP1 POP JUMP JUMPDEST PUSH1 0x0 PUSH2 0x4DFF DUP3 PUSH2 0x4D54 JUMP JUMPDEST SWAP2 POP PUSH2 0x4E0B DUP3 DUP6 PUSH2 0x4D77 JUMP JUMPDEST SWAP2 POP PUSH2 0x4E16 DUP3 PUSH2 0x4DD1 JUMP JUMPDEST SWAP2 POP PUSH2 0x4E22 DUP3 DUP5 PUSH2 0x4D77 JUMP JUMPDEST SWAP2 POP DUP2 SWAP1 POP SWAP4 SWAP3 POP POP POP JUMP JUMPDEST PUSH1 0x0 PUSH1 0xA0 DUP3 ADD SWAP1 POP PUSH2 0x4E43 PUSH1 0x0 DUP4 ADD DUP9 PUSH2 0x43BA JUMP JUMPDEST PUSH2 0x4E50 PUSH1 0x20 DUP4 ADD DUP8 PUSH2 0x43BA JUMP JUMPDEST DUP2 DUP2 SUB PUSH1 0x40 DUP4 ADD MSTORE PUSH2 0x4E62 DUP2 DUP7 PUSH2 0x3938 JUMP JUMPDEST SWAP1 POP DUP2 DUP2 SUB PUSH1 0x60 DUP4 ADD MSTORE PUSH2 0x4E76 DUP2 DUP6 PUSH2 0x3938 JUMP JUMPDEST SWAP1 POP DUP2 DUP2 SUB PUSH1 0x80 DUP4 ADD MSTORE PUSH2 0x4E8A DUP2 DUP5 PUSH2 0x44EB JUMP JUMPDEST SWAP1 POP SWAP7 SWAP6 POP POP POP POP POP POP JUMP JUMPDEST PUSH1 0x0 DUP2 MLOAD SWAP1 POP PUSH2 0x4EA5 DUP2 PUSH2 0x30CC JUMP JUMPDEST SWAP3 SWAP2 POP POP JUMP JUMPDEST PUSH1 0x0 PUSH1 0x20 DUP3 DUP5 SUB SLT ISZERO PUSH2 0x4EC1 JUMPI PUSH2 0x4EC0 PUSH2 0x2F98 JUMP JUMPDEST JUMPDEST PUSH1 0x0 PUSH2 0x4ECF DUP5 DUP3 DUP6 ADD PUSH2 0x4E96 JUMP JUMPDEST SWAP2 POP POP SWAP3 SWAP2 POP POP JUMP JUMPDEST PUSH1 0x0 DUP2 PUSH1 0xE0 SHR SWAP1 POP SWAP2 SWAP1 POP JUMP JUMPDEST PUSH1 0x0 PUSH1 0x3 RETURNDATASIZE GT ISZERO PUSH2 0x4F04 JUMPI PUSH1 0x4 PUSH1 0x0 DUP1 RETURNDATACOPY PUSH2 0x4F01 PUSH1 0x0 MLOAD PUSH2 0x4ED8 JUMP JUMPDEST SWAP1 POP JUMPDEST SWAP1 JUMP JUMPDEST PUSH1 0x0 PUSH1 0x44 RETURNDATASIZE LT PUSH2 0x4F94 JUMPI PUSH2 0x4F19 PUSH2 0x2F8E JUMP JUMPDEST PUSH1 0x4 RETURNDATASIZE SUB PUSH1 0x4 DUP3 RETURNDATACOPY DUP1 MLOAD RETURNDATASIZE PUSH1 0x24 DUP3 ADD GT PUSH8 0xFFFFFFFFFFFFFFFF DUP3 GT OR ISZERO PUSH2 0x4F41 JUMPI POP POP PUSH2 0x4F94 JUMP JUMPDEST DUP1 DUP3 ADD DUP1 MLOAD PUSH8 0xFFFFFFFFFFFFFFFF DUP2 GT ISZERO PUSH2 0x4F5F JUMPI POP POP POP POP PUSH2 0x4F94 JUMP JUMPDEST DUP1 PUSH1 0x20 DUP4 ADD ADD PUSH1 0x4 RETURNDATASIZE SUB DUP6 ADD DUP2 GT ISZERO PUSH2 0x4F7C JUMPI POP POP POP POP POP PUSH2 0x4F94 JUMP JUMPDEST PUSH2 0x4F8B DUP3 PUSH1 0x20 ADD DUP6 ADD DUP7 PUSH2 0x31A5 JUMP JUMPDEST DUP3 SWAP6 POP POP POP POP POP POP JUMPDEST SWAP1 JUMP JUMPDEST PUSH32 0x455243313135353A207472616E7366657220746F206E6F6E2D45524331313535 PUSH1 0x0 DUP3 ADD MSTORE PUSH32 0x526563656976657220696D706C656D656E746572000000000000000000000000 PUSH1 0x20 DUP3 ADD MSTORE POP JUMP JUMPDEST PUSH1 0x0 PUSH2 0x4FF3 PUSH1 0x34 DUP4 PUSH2 0x358D JUMP JUMPDEST SWAP2 POP PUSH2 0x4FFE DUP3 PUSH2 0x4F97 JUMP JUMPDEST PUSH1 0x40 DUP3 ADD SWAP1 POP SWAP2 SWAP1 POP JUMP JUMPDEST PUSH1 0x0 PUSH1 0x20 DUP3 ADD SWAP1 POP DUP2 DUP2 SUB PUSH1 0x0 DUP4 ADD MSTORE PUSH2 0x5022 DUP2 PUSH2 0x4FE6 JUMP JUMPDEST SWAP1 POP SWAP2 SWAP1 POP JUMP JUMPDEST PUSH32 0x455243313135353A204552433131353552656365697665722072656A65637465 PUSH1 0x0 DUP3 ADD MSTORE PUSH32 0x6420746F6B656E73000000000000000000000000000000000000000000000000 PUSH1 0x20 DUP3 ADD MSTORE POP JUMP JUMPDEST PUSH1 0x0 PUSH2 0x5085 PUSH1 0x28 DUP4 PUSH2 0x358D JUMP JUMPDEST SWAP2 POP PUSH2 0x5090 DUP3 PUSH2 0x5029 JUMP JUMPDEST PUSH1 0x40 DUP3 ADD SWAP1 POP SWAP2 SWAP1 POP JUMP JUMPDEST PUSH1 0x0 PUSH1 0x20 DUP3 ADD SWAP1 POP DUP2 DUP2 SUB PUSH1 0x0 DUP4 ADD MSTORE PUSH2 0x50B4 DUP2 PUSH2 0x5078 JUMP JUMPDEST SWAP1 POP SWAP2 SWAP1 POP JUMP JUMPDEST PUSH1 0x0 PUSH1 0xA0 DUP3 ADD SWAP1 POP PUSH2 0x50D0 PUSH1 0x0 DUP4 ADD DUP9 PUSH2 0x43BA JUMP JUMPDEST PUSH2 0x50DD PUSH1 0x20 DUP4 ADD DUP8 PUSH2 0x43BA JUMP JUMPDEST PUSH2 0x50EA PUSH1 0x40 DUP4 ADD DUP7 PUSH2 0x3076 JUMP JUMPDEST PUSH2 0x50F7 PUSH1 0x60 DUP4 ADD DUP6 PUSH2 0x3076 JUMP JUMPDEST DUP2 DUP2 SUB PUSH1 0x80 DUP4 ADD MSTORE PUSH2 0x5109 DUP2 DUP5 PUSH2 0x44EB JUMP JUMPDEST SWAP1 POP SWAP7 SWAP6 POP POP POP POP POP POP JUMP JUMPDEST PUSH1 0x0 PUSH2 0x5120 DUP3 PUSH2 0x3000 JUMP JUMPDEST SWAP2 POP PUSH2 0x512B DUP4 PUSH2 0x3000 JUMP JUMPDEST SWAP3 POP DUP3 DUP3 MUL PUSH2 0x5139 DUP2 PUSH2 0x3000 JUMP JUMPDEST SWAP2 POP DUP3 DUP3 DIV DUP5 EQ DUP4 ISZERO OR PUSH2 0x5150 JUMPI PUSH2 0x514F PUSH2 0x4343 JUMP JUMPDEST JUMPDEST POP SWAP3 SWAP2 POP POP JUMP JUMPDEST PUSH1 0x0 PUSH2 0x5162 DUP3 PUSH2 0x3000 JUMP JUMPDEST SWAP2 POP PUSH1 0x0 DUP3 SUB PUSH2 0x5175 JUMPI PUSH2 0x5174 PUSH2 0x4343 JUMP JUMPDEST JUMPDEST PUSH1 0x1 DUP3 SUB SWAP1 POP SWAP2 SWAP1 POP JUMP JUMPDEST PUSH32 0x537472696E67733A20686578206C656E67746820696E73756666696369656E74 PUSH1 0x0 DUP3 ADD MSTORE POP JUMP JUMPDEST PUSH1 0x0 PUSH2 0x51B6 PUSH1 0x20 DUP4 PUSH2 0x358D JUMP JUMPDEST SWAP2 POP PUSH2 0x51C1 DUP3 PUSH2 0x5180 JUMP JUMPDEST PUSH1 0x20 DUP3 ADD SWAP1 POP SWAP2 SWAP1 POP JUMP JUMPDEST PUSH1 0x0 PUSH1 0x20 DUP3 ADD SWAP1 POP DUP2 DUP2 SUB PUSH1 0x0 DUP4 ADD MSTORE PUSH2 0x51E5 DUP2 PUSH2 0x51A9 JUMP JUMPDEST SWAP1 POP SWAP2 SWAP1 POP JUMP INVALID LOG2 PUSH5 0x6970667358 0x22 SLT KECCAK256 PUSH5 0xF476E6BE9B 0xCA PUSH1 0x50 PUSH31 0x756A85B85E872417DA1A9A6F57553B078E0298B0B80B64736F6C6343000812 STOP CALLER PUSH9 0x747470733A2F2F7768 PUSH6 0x782E6F73732D PUSH4 0x6E2D6861 PUSH15 0x677A686F752E616C6979756E63732E PUSH4 0x6F6D2F6D PUSH6 0x746164617461 0x2F PUSH28 0x69647D2E6A736F6E0000000000000000000000000000000000000000 "
		},
		"gasEstimates": {
			"creation": {
				"codeDepositCost": "4205200",
				"executionCost": "infinite",
				"totalCost": "infinite"
			},
			"external": {
				"DEFAULT_ADMIN_ROLE()": "424",
				"MINTER_ROLE()": "396",
				"TRANSFER()": "352",
				"_paramCheck(address[],uint256[],uint256[],uint8)": "infinite",
				"balanceOf(address,uint256)": "infinite",
				"balanceOfBatch(address[],uint256[])": "infinite",
				"burn(address,uint256,uint256)": "infinite",
				"burnBatch(address,uint256[],uint256[])": "infinite",
				"exchangeBurn(address,uint256[],uint256[],uint8)": "infinite",
				"exchangeMint(address[],uint256[],uint256[],uint8,bytes)": "infinite",
				"exchangeTransfer(address,address[],uint256[],uint256[],uint8,bytes)": "infinite",
				"getRoleAdmin(bytes32)": "infinite",
				"grantRole(bytes32,address)": "infinite",
				"hasRole(bytes32,address)": "3185",
				"isApprovedForAll(address,address)": "infinite",
				"isTrustedForwarder(address)": "infinite",
				"renounceRole(bytes32,address)": "infinite",
				"revokeRole(bytes32,address)": "infinite",
				"safeBatchTransferFrom(address,address,uint256[],uint256[],bytes)": "infinite",
				"safeTransferFrom(address,address,uint256,uint256,bytes)": "infinite",
				"setApprovalForAll(address,bool)": "infinite",
				"setTransfer(address)": "infinite",
				"setURI(string)": "infinite",
				"supportsInterface(bytes4)": "951",
				"uri(uint256)": "infinite"
			},
			"internal": {
				"_msgData()": "infinite",
				"_msgSender()": "infinite"
			}
		},
		"methodIdentifiers": {
			"DEFAULT_ADMIN_ROLE()": "a217fddf",
			"MINTER_ROLE()": "d5391393",
			"TRANSFER()": "76420e1d",
			"_paramCheck(address[],uint256[],uint256[],uint8)": "04e81bb0",
			"balanceOf(address,uint256)": "00fdd58e",
			"balanceOfBatch(address[],uint256[])": "4e1273f4",
			"burn(address,uint256,uint256)": "f5298aca",
			"burnBatch(address,uint256[],uint256[])": "6b20c454",
			"exchangeBurn(address,uint256[],uint256[],uint8)": "9896233b",
			"exchangeMint(address[],uint256[],uint256[],uint8,bytes)": "fb7ae3c2",
			"exchangeTransfer(address,address[],uint256[],uint256[],uint8,bytes)": "d0ee9d73",
			"getRoleAdmin(bytes32)": "248a9ca3",
			"grantRole(bytes32,address)": "2f2ff15d",
			"hasRole(bytes32,address)": "91d14854",
			"isApprovedForAll(address,address)": "e985e9c5",
			"isTrustedForwarder(address)": "572b6c05",
			"renounceRole(bytes32,address)": "36568abe",
			"revokeRole(bytes32,address)": "d547741f",
			"safeBatchTransferFrom(address,address,uint256[],uint256[],bytes)": "2eb2c2d6",
			"safeTransferFrom(address,address,uint256,uint256,bytes)": "f242432a",
			"setApprovalForAll(address,bool)": "a22cb465",
			"setTransfer(address)": "ae2b611c",
			"setURI(string)": "02fe5305",
			"supportsInterface(bytes4)": "01ffc9a7",
			"uri(uint256)": "0e89341c"
		}
	},
	"abi": [
		{
			"inputs": [
				{
					"internalType": "address",
					"name": "trustedForwarder",
					"type": "address"
				}
			],
			"stateMutability": "nonpayable",
			"type": "constructor"
		},
		{
			"anonymous": false,
			"inputs": [
				{
					"indexed": true,
					"internalType": "address",
					"name": "account",
					"type": "address"
				},
				{
					"indexed": true,
					"internalType": "address",
					"name": "operator",
					"type": "address"
				},
				{
					"indexed": false,
					"internalType": "bool",
					"name": "approved",
					"type": "bool"
				}
			],
			"name": "ApprovalForAll",
			"type": "event"
		},
		{
			"anonymous": false,
			"inputs": [
				{
					"indexed": false,
					"internalType": "address[]",
					"name": "",
					"type": "address[]"
				},
				{
					"indexed": false,
					"internalType": "uint256[]",
					"name": "",
					"type": "uint256[]"
				},
				{
					"indexed": false,
					"internalType": "uint256[]",
					"name": "",
					"type": "uint256[]"
				},
				{
					"indexed": false,
					"internalType": "enum XunWenGe.TxEnum",
					"name": "",
					"type": "uint8"
				},
				{
					"indexed": false,
					"internalType": "bytes",
					"name": "",
					"type": "bytes"
				}
			],
			"name": "MintLog",
			"type": "event"
		},
		{
			"anonymous": false,
			"inputs": [
				{
					"indexed": true,
					"internalType": "bytes32",
					"name": "role",
					"type": "bytes32"
				},
				{
					"indexed": true,
					"internalType": "bytes32",
					"name": "previousAdminRole",
					"type": "bytes32"
				},
				{
					"indexed": true,
					"internalType": "bytes32",
					"name": "newAdminRole",
					"type": "bytes32"
				}
			],
			"name": "RoleAdminChanged",
			"type": "event"
		},
		{
			"anonymous": false,
			"inputs": [
				{
					"indexed": true,
					"internalType": "bytes32",
					"name": "role",
					"type": "bytes32"
				},
				{
					"indexed": true,
					"internalType": "address",
					"name": "account",
					"type": "address"
				},
				{
					"indexed": true,
					"internalType": "address",
					"name": "sender",
					"type": "address"
				}
			],
			"name": "RoleGranted",
			"type": "event"
		},
		{
			"anonymous": false,
			"inputs": [
				{
					"indexed": true,
					"internalType": "bytes32",
					"name": "role",
					"type": "bytes32"
				},
				{
					"indexed": true,
					"internalType": "address",
					"name": "account",
					"type": "address"
				},
				{
					"indexed": true,
					"internalType": "address",
					"name": "sender",
					"type": "address"
				}
			],
			"name": "RoleRevoked",
			"type": "event"
		},
		{
			"anonymous": false,
			"inputs": [
				{
					"indexed": true,
					"internalType": "address",
					"name": "operator",
					"type": "address"
				},
				{
					"indexed": true,
					"internalType": "address",
					"name": "from",
					"type": "address"
				},
				{
					"indexed": true,
					"internalType": "address",
					"name": "to",
					"type": "address"
				},
				{
					"indexed": false,
					"internalType": "uint256[]",
					"name": "ids",
					"type": "uint256[]"
				},
				{
					"indexed": false,
					"internalType": "uint256[]",
					"name": "values",
					"type": "uint256[]"
				}
			],
			"name": "TransferBatch",
			"type": "event"
		},
		{
			"anonymous": false,
			"inputs": [
				{
					"indexed": false,
					"internalType": "address",
					"name": "",
					"type": "address"
				},
				{
					"indexed": false,
					"internalType": "address[]",
					"name": "",
					"type": "address[]"
				},
				{
					"indexed": false,
					"internalType": "uint256[]",
					"name": "",
					"type": "uint256[]"
				},
				{
					"indexed": false,
					"internalType": "uint256[]",
					"name": "",
					"type": "uint256[]"
				},
				{
					"indexed": false,
					"internalType": "enum XunWenGe.TxEnum",
					"name": "",
					"type": "uint8"
				},
				{
					"indexed": false,
					"internalType": "bytes",
					"name": "data",
					"type": "bytes"
				}
			],
			"name": "TransferLog",
			"type": "event"
		},
		{
			"anonymous": false,
			"inputs": [
				{
					"indexed": true,
					"internalType": "address",
					"name": "operator",
					"type": "address"
				},
				{
					"indexed": true,
					"internalType": "address",
					"name": "from",
					"type": "address"
				},
				{
					"indexed": true,
					"internalType": "address",
					"name": "to",
					"type": "address"
				},
				{
					"indexed": false,
					"internalType": "uint256",
					"name": "id",
					"type": "uint256"
				},
				{
					"indexed": false,
					"internalType": "uint256",
					"name": "value",
					"type": "uint256"
				}
			],
			"name": "TransferSingle",
			"type": "event"
		},
		{
			"anonymous": false,
			"inputs": [
				{
					"indexed": false,
					"internalType": "string",
					"name": "value",
					"type": "string"
				},
				{
					"indexed": true,
					"internalType": "uint256",
					"name": "id",
					"type": "uint256"
				}
			],
			"name": "URI",
			"type": "event"
		},
		{
			"inputs": [],
			"name": "DEFAULT_ADMIN_ROLE",
			"outputs": [
				{
					"internalType": "bytes32",
					"name": "",
					"type": "bytes32"
				}
			],
			"stateMutability": "view",
			"type": "function"
		},
		{
			"inputs": [],
			"name": "MINTER_ROLE",
			"outputs": [
				{
					"internalType": "bytes32",
					"name": "",
					"type": "bytes32"
				}
			],
			"stateMutability": "view",
			"type": "function"
		},
		{
			"inputs": [],
			"name": "TRANSFER",
			"outputs": [
				{
					"internalType": "bytes32",
					"name": "",
					"type": "bytes32"
				}
			],
			"stateMutability": "view",
			"type": "function"
		},
		{
			"inputs": [
				{
					"internalType": "address[]",
					"name": "accounts",
					"type": "address[]"
				},
				{
					"internalType": "uint256[]",
					"name": "ids",
					"type": "uint256[]"
				},
				{
					"internalType": "uint256[]",
					"name": "amounts",
					"type": "uint256[]"
				},
				{
					"internalType": "enum XunWenGe.TxEnum",
					"name": "enumType",
					"type": "uint8"
				}
			],
			"name": "_paramCheck",
			"outputs": [],
			"stateMutability": "pure",
			"type": "function"
		},
		{
			"inputs": [
				{
					"internalType": "address",
					"name": "account",
					"type": "address"
				},
				{
					"internalType": "uint256",
					"name": "id",
					"type": "uint256"
				}
			],
			"name": "balanceOf",
			"outputs": [
				{
					"internalType": "uint256",
					"name": "",
					"type": "uint256"
				}
			],
			"stateMutability": "view",
			"type": "function"
		},
		{
			"inputs": [
				{
					"internalType": "address[]",
					"name": "accounts",
					"type": "address[]"
				},
				{
					"internalType": "uint256[]",
					"name": "ids",
					"type": "uint256[]"
				}
			],
			"name": "balanceOfBatch",
			"outputs": [
				{
					"internalType": "uint256[]",
					"name": "",
					"type": "uint256[]"
				}
			],
			"stateMutability": "view",
			"type": "function"
		},
		{
			"inputs": [
				{
					"internalType": "address",
					"name": "account",
					"type": "address"
				},
				{
					"internalType": "uint256",
					"name": "id",
					"type": "uint256"
				},
				{
					"internalType": "uint256",
					"name": "value",
					"type": "uint256"
				}
			],
			"name": "burn",
			"outputs": [],
			"stateMutability": "nonpayable",
			"type": "function"
		},
		{
			"inputs": [
				{
					"internalType": "address",
					"name": "account",
					"type": "address"
				},
				{
					"internalType": "uint256[]",
					"name": "ids",
					"type": "uint256[]"
				},
				{
					"internalType": "uint256[]",
					"name": "values",
					"type": "uint256[]"
				}
			],
			"name": "burnBatch",
			"outputs": [],
			"stateMutability": "nonpayable",
			"type": "function"
		},
		{
			"inputs": [
				{
					"internalType": "address",
					"name": "from",
					"type": "address"
				},
				{
					"internalType": "uint256[]",
					"name": "ids",
					"type": "uint256[]"
				},
				{
					"internalType": "uint256[]",
					"name": "amounts",
					"type": "uint256[]"
				},
				{
					"internalType": "enum XunWenGe.TxEnum",
					"name": "txType",
					"type": "uint8"
				}
			],
			"name": "exchangeBurn",
			"outputs": [],
			"stateMutability": "nonpayable",
			"type": "function"
		},
		{
			"inputs": [
				{
					"internalType": "address[]",
					"name": "tos",
					"type": "address[]"
				},
				{
					"internalType": "uint256[]",
					"name": "ids",
					"type": "uint256[]"
				},
				{
					"internalType": "uint256[]",
					"name": "amounts",
					"type": "uint256[]"
				},
				{
					"internalType": "enum XunWenGe.TxEnum",
					"name": "txType",
					"type": "uint8"
				},
				{
					"internalType": "bytes",
					"name": "data",
					"type": "bytes"
				}
			],
			"name": "exchangeMint",
			"outputs": [],
			"stateMutability": "nonpayable",
			"type": "function"
		},
		{
			"inputs": [
				{
					"internalType": "address",
					"name": "from",
					"type": "address"
				},
				{
					"internalType": "address[]",
					"name": "tos",
					"type": "address[]"
				},
				{
					"internalType": "uint256[]",
					"name": "ids",
					"type": "uint256[]"
				},
				{
					"internalType": "uint256[]",
					"name": "amounts",
					"type": "uint256[]"
				},
				{
					"internalType": "enum XunWenGe.TxEnum",
					"name": "txType",
					"type": "uint8"
				},
				{
					"internalType": "bytes",
					"name": "data",
					"type": "bytes"
				}
			],
			"name": "exchangeTransfer",
			"outputs": [],
			"stateMutability": "nonpayable",
			"type": "function"
		},
		{
			"inputs": [
				{
					"internalType": "bytes32",
					"name": "role",
					"type": "bytes32"
				}
			],
			"name": "getRoleAdmin",
			"outputs": [
				{
					"internalType": "bytes32",
					"name": "",
					"type": "bytes32"
				}
			],
			"stateMutability": "view",
			"type": "function"
		},
		{
			"inputs": [
				{
					"internalType": "bytes32",
					"name": "role",
					"type": "bytes32"
				},
				{
					"internalType": "address",
					"name": "account",
					"type": "address"
				}
			],
			"name": "grantRole",
			"outputs": [],
			"stateMutability": "nonpayable",
			"type": "function"
		},
		{
			"inputs": [
				{
					"internalType": "bytes32",
					"name": "role",
					"type": "bytes32"
				},
				{
					"internalType": "address",
					"name": "account",
					"type": "address"
				}
			],
			"name": "hasRole",
			"outputs": [
				{
					"internalType": "bool",
					"name": "",
					"type": "bool"
				}
			],
			"stateMutability": "view",
			"type": "function"
		},
		{
			"inputs": [
				{
					"internalType": "address",
					"name": "account",
					"type": "address"
				},
				{
					"internalType": "address",
					"name": "operator",
					"type": "address"
				}
			],
			"name": "isApprovedForAll",
			"outputs": [
				{
					"internalType": "bool",
					"name": "",
					"type": "bool"
				}
			],
			"stateMutability": "view",
			"type": "function"
		},
		{
			"inputs": [
				{
					"internalType": "address",
					"name": "forwarder",
					"type": "address"
				}
			],
			"name": "isTrustedForwarder",
			"outputs": [
				{
					"internalType": "bool",
					"name": "",
					"type": "bool"
				}
			],
			"stateMutability": "view",
			"type": "function"
		},
		{
			"inputs": [
				{
					"internalType": "bytes32",
					"name": "role",
					"type": "bytes32"
				},
				{
					"internalType": "address",
					"name": "account",
					"type": "address"
				}
			],
			"name": "renounceRole",
			"outputs": [],
			"stateMutability": "nonpayable",
			"type": "function"
		},
		{
			"inputs": [
				{
					"internalType": "bytes32",
					"name": "role",
					"type": "bytes32"
				},
				{
					"internalType": "address",
					"name": "account",
					"type": "address"
				}
			],
			"name": "revokeRole",
			"outputs": [],
			"stateMutability": "nonpayable",
			"type": "function"
		},
		{
			"inputs": [
				{
					"internalType": "address",
					"name": "from",
					"type": "address"
				},
				{
					"internalType": "address",
					"name": "to",
					"type": "address"
				},
				{
					"internalType": "uint256[]",
					"name": "ids",
					"type": "uint256[]"
				},
				{
					"internalType": "uint256[]",
					"name": "amounts",
					"type": "uint256[]"
				},
				{
					"internalType": "bytes",
					"name": "data",
					"type": "bytes"
				}
			],
			"name": "safeBatchTransferFrom",
			"outputs": [],
			"stateMutability": "nonpayable",
			"type": "function"
		},
		{
			"inputs": [
				{
					"internalType": "address",
					"name": "from",
					"type": "address"
				},
				{
					"internalType": "address",
					"name": "to",
					"type": "address"
				},
				{
					"internalType": "uint256",
					"name": "id",
					"type": "uint256"
				},
				{
					"internalType": "uint256",
					"name": "amount",
					"type": "uint256"
				},
				{
					"internalType": "bytes",
					"name": "data",
					"type": "bytes"
				}
			],
			"name": "safeTransferFrom",
			"outputs": [],
			"stateMutability": "nonpayable",
			"type": "function"
		},
		{
			"inputs": [
				{
					"internalType": "address",
					"name": "operator",
					"type": "address"
				},
				{
					"internalType": "bool",
					"name": "approved",
					"type": "bool"
				}
			],
			"name": "setApprovalForAll",
			"outputs": [],
			"stateMutability": "nonpayable",
			"type": "function"
		},
		{
			"inputs": [
				{
					"internalType": "address",
					"name": "transferAddress",
					"type": "address"
				}
			],
			"name": "setTransfer",
			"outputs": [],
			"stateMutability": "nonpayable",
			"type": "function"
		},
		{
			"inputs": [
				{
					"internalType": "string",
					"name": "newuri",
					"type": "string"
				}
			],
			"name": "setURI",
			"outputs": [],
			"stateMutability": "nonpayable",
			"type": "function"
		},
		{
			"inputs": [
				{
					"internalType": "bytes4",
					"name": "interfaceId",
					"type": "bytes4"
				}
			],
			"name": "supportsInterface",
			"outputs": [
				{
					"internalType": "bool",
					"name": "",
					"type": "bool"
				}
			],
			"stateMutability": "view",
			"type": "function"
		},
		{
			"inputs": [
				{
					"internalType": "uint256",
					"name": "",
					"type": "uint256"
				}
			],
			"name": "uri",
			"outputs": [
				{
					"internalType": "string",
					"name": "",
					"type": "string"
				}
			],
			"stateMutability": "view",
			"type": "function"
		}
	]
}