{
  "contractName": "V1",
  "abi": [
    {
      "anonymous": false,
      "inputs": [
        {
          "indexed": false,
          "internalType": "uint256",
          "name": "data",
          "type": "uint256"
        }
      ],
      "name": "V1LogicCallEvent",
      "type": "event"
    },
    {
      "inputs": [],
      "name": "getData",
      "outputs": [
        {
          "internalType": "uint256",
          "name": "",
          "type": "uint256"
        }
      ],
      "stateMutability": "view",
      "type": "function",
      "constant": true
    },
    {
      "inputs": [
        {
          "internalType": "uint256",
          "name": "a",
          "type": "uint256"
        },
        {
          "internalType": "uint256",
          "name": "b",
          "type": "uint256"
        }
      ],
      "name": "logicCall",
      "outputs": [],
      "stateMutability": "nonpayable",
      "type": "function"
    }
  ],
  "bytecode": "0x608060405234801561001057600080fd5b50610202806100206000396000f3fe608060405234801561001057600080fd5b50600436106100365760003560e01c80631b8792fa1461003b5780633bc5de3014610057575b600080fd5b610055600480360381019061005091906100e2565b610075565b005b61005f6100c4565b60405161006c919061012d565b60405180910390f35b80826100819190610148565b6000819055507f1c2d68599757e45f0940f3cf8dd1dfe26164423e89f151bbd73972211079cc236000546040516100b8919061012d565b60405180910390a15050565b60008054905090565b6000813590506100dc816101b5565b92915050565b600080604083850312156100f557600080fd5b6000610103858286016100cd565b9250506020610114858286016100cd565b9150509250929050565b6101278161017c565b82525050565b6000602082019050610142600083018461011e565b92915050565b60006101538261017c565b915061015e8361017c565b92508282101561017157610170610186565b5b828203905092915050565b6000819050919050565b7f4e487b7100000000000000000000000000000000000000000000000000000000600052601160045260246000fd5b6101be8161017c565b81146101c957600080fd5b5056fea264697066735822122085ad30ae1ab1323d5db3d93041dc3b73d995e29846e074cac8b93202cd9e951b64736f6c63430008000033",
  "immutableReferences": {},
  "source": "//SPDX-License-Identifier: MIT \n\npragma solidity ^0.8.0;\n\nimport \"./Data.sol\";\n\ncontract V1 is Data {\n\n  event V1LogicCallEvent(uint data);\n\n  function logicCall(uint a, uint b) external {\n    _data = a - b;\n    emit V1LogicCallEvent(_data);\n  }\n}",
  "sourcePath": "/Users/hoangdung/Documents/BLOCKCHAIN/proxy-smart-contract/contracts/V1.sol",
  "compiler": {
    "name": "solc",
    "version": "0.8.0+commit.c7dfd78e.Emscripten.clang"
  },
  "schemaVersion": "3.4.1",
  "updatedAt": "2021-08-13T16:10:35.031Z",
  "networkType": "ethereum",
  "devdoc": {
    "kind": "dev",
    "methods": {},
    "version": 1
  },
  "userdoc": {
    "kind": "user",
    "methods": {},
    "version": 1
  }
}