{
  "contractName": "Vproxy",
  "abi": [
    {
      "inputs": [
        {
          "internalType": "address",
          "name": "contractAddress",
          "type": "address"
        }
      ],
      "stateMutability": "nonpayable",
      "type": "constructor"
    },
    {
      "anonymous": false,
      "inputs": [
        {
          "indexed": true,
          "internalType": "address",
          "name": "newContractAddress",
          "type": "address"
        }
      ],
      "name": "UpdatenContractAddress",
      "type": "event"
    },
    {
      "stateMutability": "payable",
      "type": "fallback",
      "payable": true
    },
    {
      "inputs": [],
      "name": "getData",
      "outputs": [
        {
          "internalType": "uint256",
          "name": "",
          "type": "uint256"
        }
      ],
      "stateMutability": "view",
      "type": "function",
      "constant": true
    },
    {
      "inputs": [
        {
          "internalType": "address",
          "name": "_newAddress",
          "type": "address"
        }
      ],
      "name": "updateContractAddress",
      "outputs": [],
      "stateMutability": "nonpayable",
      "type": "function"
    },
    {
      "inputs": [],
      "name": "getContractAddress",
      "outputs": [
        {
          "internalType": "address",
          "name": "",
          "type": "address"
        }
      ],
      "stateMutability": "view",
      "type": "function",
      "constant": true
    },
    {
      "inputs": [],
      "name": "getOwner",
      "outputs": [
        {
          "internalType": "address",
          "name": "",
          "type": "address"
        }
      ],
      "stateMutability": "view",
      "type": "function",
      "constant": true
    },
    {
      "inputs": [
        {
          "internalType": "address",
          "name": "_newOnwerAddress",
          "type": "address"
        }
      ],
      "name": "changeOwner",
      "outputs": [],
      "stateMutability": "nonpayable",
      "type": "function"
    }
  ],
  "bytecode": "0x608060405234801561001057600080fd5b506040516108cf3803806108cf83398181016040528101906100329190610112565b80600260006101000a81548173ffffffffffffffffffffffffffffffffffffffff021916908373ffffffffffffffffffffffffffffffffffffffff16021790555033600160006101000a81548173ffffffffffffffffffffffffffffffffffffffff021916908373ffffffffffffffffffffffffffffffffffffffff1602179055508073ffffffffffffffffffffffffffffffffffffffff167fd4b1f253be90e85edba022db47ddcef61b9c545fd52a494dcaf25568caf56b0360405160405180910390a250610184565b60008151905061010c8161016d565b92915050565b60006020828403121561012457600080fd5b6000610132848285016100fd565b91505092915050565b60006101468261014d565b9050919050565b600073ffffffffffffffffffffffffffffffffffffffff82169050919050565b6101768161013b565b811461018157600080fd5b50565b61073c806101936000396000f3fe60806040526004361061004e5760003560e01c806332a2c5d01461012a5780633bc5de3014610155578063893d20e814610180578063a6f9dae1146101ab578063bdf3e088146101d45761004f565b5b60006060600260009054906101000a900473ffffffffffffffffffffffffffffffffffffffff1673ffffffffffffffffffffffffffffffffffffffff1660003660405161009d9291906105d9565b600060405180830381855af49150503d80600081146100d8576040519150601f19603f3d011682016040523d82523d6000602084013e6100dd565b606091505b50809250819350505081610126576040517f08c379a000000000000000000000000000000000000000000000000000000000815260040161011d9061064d565b60405180910390fd5b5050005b34801561013657600080fd5b5061013f6101fd565b60405161014c91906105f2565b60405180910390f35b34801561016157600080fd5b5061016a610227565b604051610177919061066d565b60405180910390f35b34801561018c57600080fd5b50610195610230565b6040516101a291906105f2565b60405180910390f35b3480156101b757600080fd5b506101d260048036038101906101cd9190610487565b61025a565b005b3480156101e057600080fd5b506101fb60048036038101906101f69190610487565b61032e565b005b6000600260009054906101000a900473ffffffffffffffffffffffffffffffffffffffff16905090565b60008054905090565b6000600160009054906101000a900473ffffffffffffffffffffffffffffffffffffffff16905090565b3373ffffffffffffffffffffffffffffffffffffffff16600160009054906101000a900473ffffffffffffffffffffffffffffffffffffffff1673ffffffffffffffffffffffffffffffffffffffff16146102ea576040517f08c379a00000000000000000000000000000000000000000000000000000000081526004016102e19061060d565b60405180910390fd5b80600160006101000a81548173ffffffffffffffffffffffffffffffffffffffff021916908373ffffffffffffffffffffffffffffffffffffffff16021790555050565b3373ffffffffffffffffffffffffffffffffffffffff16600160009054906101000a900473ffffffffffffffffffffffffffffffffffffffff1673ffffffffffffffffffffffffffffffffffffffff16146103be576040517f08c379a00000000000000000000000000000000000000000000000000000000081526004016103b59061060d565b60405180910390fd5b600073ffffffffffffffffffffffffffffffffffffffff168173ffffffffffffffffffffffffffffffffffffffff16141561042e576040517f08c379a00000000000000000000000000000000000000000000000000000000081526004016104259061062d565b60405180910390fd5b80600260006101000a81548173ffffffffffffffffffffffffffffffffffffffff021916908373ffffffffffffffffffffffffffffffffffffffff16021790555050565b600081359050610481816106ef565b92915050565b60006020828403121561049957600080fd5b60006104a784828501610472565b91505092915050565b6104b9816106a4565b82525050565b60006104cb8385610688565b93506104d88385846106e0565b82840190509392505050565b60006104f1601c83610693565b91507f5670726f78793a2043616c6c657220776173206e6f74206f776e6572000000006000830152602082019050919050565b6000610531602a83610693565b91507f496e76616c696420616464726573732c206661696c656420746f20757064617460008301527f65206164647265737373000000000000000000000000000000000000000000006020830152604082019050919050565b6000610597601f83610693565b91507f50726f78793a20496e7465726e616c2063616c6c20776173206661696c6564006000830152602082019050919050565b6105d3816106d6565b82525050565b60006105e68284866104bf565b91508190509392505050565b600060208201905061060760008301846104b0565b92915050565b60006020820190508181036000830152610626816104e4565b9050919050565b6000602082019050818103600083015261064681610524565b9050919050565b600060208201905081810360008301526106668161058a565b9050919050565b600060208201905061068260008301846105ca565b92915050565b600081905092915050565b600082825260208201905092915050565b60006106af826106b6565b9050919050565b600073ffffffffffffffffffffffffffffffffffffffff82169050919050565b6000819050919050565b82818337600083830152505050565b6106f8816106a4565b811461070357600080fd5b5056fea2646970667358221220432984923aeb6e2e831edecbf4e535085024de6ac363619574637be8a22e08c964736f6c63430008000033",
  "immutableReferences": {},
  "source": "//SPDX-License-Identifier: MIT \npragma solidity ^0.8.0;\n\nimport \"./Data.sol\";\n\ncontract Vproxy is Data {\n  address private _owner;\n  address private _contractAddress;\n\n  event UpdatenContractAddress(address indexed newContractAddress);\n\n  constructor(address contractAddress){\n    _contractAddress = contractAddress;\n    _owner = msg.sender;\n    emit UpdatenContractAddress(contractAddress);\n  }\n\n  modifier onlyOwner{\n    require (_owner == msg.sender,\"Vproxy: Caller was not owner\");\n    _;\n  }\n\n  fallback() external payable {\n        bool successCall = false;\n        bytes memory retData;\n        (successCall, retData) = _contractAddress.delegatecall(msg.data);\n        require(successCall, \"Proxy: Internal call was failed\");\n    }\n\n  //@TODO: imporve this by using multisignature algorithm\n  function updateContractAddress(address _newAddress) external onlyOwner{\n    require(_newAddress != address(0), \"Invalid address, failed to update addresss\");\n\n    _contractAddress = _newAddress;\n  }\n\n  function getContractAddress() public view returns(address) {\n    return _contractAddress;\n  }\n\n  function getOwner() public view returns(address) {\n    return _owner;  \n  }\n\n  function changeOwner(address _newOnwerAddress) public onlyOwner {\n    _owner = _newOnwerAddress;\n  }\n}",
  "sourcePath": "/Users/hoangdung/Documents/BLOCKCHAIN/proxy-smart-contract/contracts/Vproxy.sol",
  "compiler": {
    "name": "solc",
    "version": "0.8.0+commit.c7dfd78e.Emscripten.clang"
  },
  "schemaVersion": "3.4.1",
  "updatedAt": "2021-08-13T16:10:35.036Z",
  "networkType": "ethereum",
  "devdoc": {
    "kind": "dev",
    "methods": {},
    "version": 1
  },
  "userdoc": {
    "kind": "user",
    "methods": {},
    "version": 1
  }
}