{
  "_format": "hh-sol-artifact-1",
  "contractName": "NFT",
  "sourceName": "contracts/NFT.sol",
  "abi": [
    {
      "inputs": [
        {
          "internalType": "string",
          "name": "name",
          "type": "string"
        },
        {
          "internalType": "string",
          "name": "symbol",
          "type": "string"
        },
        {
          "internalType": "address",
          "name": "trustedForwarder",
          "type": "address"
        }
      ],
      "stateMutability": "nonpayable",
      "type": "constructor"
    },
    {
      "anonymous": false,
      "inputs": [
        {
          "indexed": true,
          "internalType": "address",
          "name": "owner",
          "type": "address"
        },
        {
          "indexed": true,
          "internalType": "address",
          "name": "approved",
          "type": "address"
        },
        {
          "indexed": true,
          "internalType": "uint256",
          "name": "tokenId",
          "type": "uint256"
        }
      ],
      "name": "Approval",
      "type": "event"
    },
    {
      "anonymous": false,
      "inputs": [
        {
          "indexed": true,
          "internalType": "address",
          "name": "owner",
          "type": "address"
        },
        {
          "indexed": true,
          "internalType": "address",
          "name": "operator",
          "type": "address"
        },
        {
          "indexed": false,
          "internalType": "bool",
          "name": "approved",
          "type": "bool"
        }
      ],
      "name": "ApprovalForAll",
      "type": "event"
    },
    {
      "anonymous": false,
      "inputs": [
        {
          "indexed": true,
          "internalType": "address",
          "name": "from",
          "type": "address"
        },
        {
          "indexed": true,
          "internalType": "address",
          "name": "to",
          "type": "address"
        },
        {
          "indexed": true,
          "internalType": "uint256",
          "name": "tokenId",
          "type": "uint256"
        }
      ],
      "name": "Transfer",
      "type": "event"
    },
    {
      "inputs": [
        {
          "internalType": "address",
          "name": "to",
          "type": "address"
        },
        {
          "internalType": "uint256",
          "name": "tokenId",
          "type": "uint256"
        }
      ],
      "name": "approve",
      "outputs": [],
      "stateMutability": "nonpayable",
      "type": "function"
    },
    {
      "inputs": [
        {
          "internalType": "address",
          "name": "owner",
          "type": "address"
        }
      ],
      "name": "balanceOf",
      "outputs": [
        {
          "internalType": "uint256",
          "name": "",
          "type": "uint256"
        }
      ],
      "stateMutability": "view",
      "type": "function"
    },
    {
      "inputs": [
        {
          "internalType": "uint256",
          "name": "tokenId",
          "type": "uint256"
        }
      ],
      "name": "getApproved",
      "outputs": [
        {
          "internalType": "address",
          "name": "",
          "type": "address"
        }
      ],
      "stateMutability": "view",
      "type": "function"
    },
    {
      "inputs": [],
      "name": "getCurrTokenId",
      "outputs": [
        {
          "internalType": "uint256",
          "name": "",
          "type": "uint256"
        }
      ],
      "stateMutability": "view",
      "type": "function"
    },
    {
      "inputs": [
        {
          "internalType": "address",
          "name": "owner",
          "type": "address"
        },
        {
          "internalType": "address",
          "name": "operator",
          "type": "address"
        }
      ],
      "name": "isApprovedForAll",
      "outputs": [
        {
          "internalType": "bool",
          "name": "",
          "type": "bool"
        }
      ],
      "stateMutability": "view",
      "type": "function"
    },
    {
      "inputs": [
        {
          "internalType": "address",
          "name": "forwarder",
          "type": "address"
        }
      ],
      "name": "isTrustedForwarder",
      "outputs": [
        {
          "internalType": "bool",
          "name": "",
          "type": "bool"
        }
      ],
      "stateMutability": "view",
      "type": "function"
    },
    {
      "inputs": [],
      "name": "name",
      "outputs": [
        {
          "internalType": "string",
          "name": "",
          "type": "string"
        }
      ],
      "stateMutability": "view",
      "type": "function"
    },
    {
      "inputs": [
        {
          "internalType": "uint256",
          "name": "tokenId",
          "type": "uint256"
        }
      ],
      "name": "ownerOf",
      "outputs": [
        {
          "internalType": "address",
          "name": "",
          "type": "address"
        }
      ],
      "stateMutability": "view",
      "type": "function"
    },
    {
      "inputs": [],
      "name": "safeMint",
      "outputs": [],
      "stateMutability": "nonpayable",
      "type": "function"
    },
    {
      "inputs": [
        {
          "internalType": "address",
          "name": "from",
          "type": "address"
        },
        {
          "internalType": "address",
          "name": "to",
          "type": "address"
        },
        {
          "internalType": "uint256",
          "name": "tokenId",
          "type": "uint256"
        }
      ],
      "name": "safeTransferFrom",
      "outputs": [],
      "stateMutability": "nonpayable",
      "type": "function"
    },
    {
      "inputs": [
        {
          "internalType": "address",
          "name": "from",
          "type": "address"
        },
        {
          "internalType": "address",
          "name": "to",
          "type": "address"
        },
        {
          "internalType": "uint256",
          "name": "tokenId",
          "type": "uint256"
        },
        {
          "internalType": "bytes",
          "name": "data",
          "type": "bytes"
        }
      ],
      "name": "safeTransferFrom",
      "outputs": [],
      "stateMutability": "nonpayable",
      "type": "function"
    },
    {
      "inputs": [
        {
          "internalType": "address",
          "name": "operator",
          "type": "address"
        },
        {
          "internalType": "bool",
          "name": "approved",
          "type": "bool"
        }
      ],
      "name": "setApprovalForAll",
      "outputs": [],
      "stateMutability": "nonpayable",
      "type": "function"
    },
    {
      "inputs": [
        {
          "internalType": "bytes4",
          "name": "interfaceId",
          "type": "bytes4"
        }
      ],
      "name": "supportsInterface",
      "outputs": [
        {
          "internalType": "bool",
          "name": "",
          "type": "bool"
        }
      ],
      "stateMutability": "view",
      "type": "function"
    },
    {
      "inputs": [],
      "name": "symbol",
      "outputs": [
        {
          "internalType": "string",
          "name": "",
          "type": "string"
        }
      ],
      "stateMutability": "view",
      "type": "function"
    },
    {
      "inputs": [
        {
          "internalType": "uint256",
          "name": "tokenId",
          "type": "uint256"
        }
      ],
      "name": "tokenURI",
      "outputs": [
        {
          "internalType": "string",
          "name": "",
          "type": "string"
        }
      ],
      "stateMutability": "view",
      "type": "function"
    },
    {
      "inputs": [
        {
          "internalType": "address",
          "name": "from",
          "type": "address"
        },
        {
          "internalType": "address",
          "name": "to",
          "type": "address"
        },
        {
          "internalType": "uint256",
          "name": "tokenId",
          "type": "uint256"
        }
      ],
      "name": "transferFrom",
      "outputs": [],
      "stateMutability": "nonpayable",
      "type": "function"
    }
  ],
  "bytecode": "0x60a060405260006006553480156200001657600080fd5b5060405162002eaf38038062002eaf83398181016040528101906200003c91906200029b565b8282828073ffffffffffffffffffffffffffffffffffffffff1660808173ffffffffffffffffffffffffffffffffffffffff168152505050816000908162000085919062000580565b50806001908162000097919062000580565b50505050505062000667565b6000604051905090565b600080fd5b600080fd5b600080fd5b600080fd5b6000601f19601f8301169050919050565b7f4e487b7100000000000000000000000000000000000000000000000000000000600052604160045260246000fd5b6200010c82620000c1565b810181811067ffffffffffffffff821117156200012e576200012d620000d2565b5b80604052505050565b600062000143620000a3565b905062000151828262000101565b919050565b600067ffffffffffffffff821115620001745762000173620000d2565b5b6200017f82620000c1565b9050602081019050919050565b60005b83811015620001ac5780820151818401526020810190506200018f565b60008484015250505050565b6000620001cf620001c98462000156565b62000137565b905082815260208101848484011115620001ee57620001ed620000bc565b5b620001fb8482856200018c565b509392505050565b600082601f8301126200021b576200021a620000b7565b5b81516200022d848260208601620001b8565b91505092915050565b600073ffffffffffffffffffffffffffffffffffffffff82169050919050565b6000620002638262000236565b9050919050565b620002758162000256565b81146200028157600080fd5b50565b60008151905062000295816200026a565b92915050565b600080600060608486031215620002b757620002b6620000ad565b5b600084015167ffffffffffffffff811115620002d857620002d7620000b2565b5b620002e68682870162000203565b935050602084015167ffffffffffffffff8111156200030a5762000309620000b2565b5b620003188682870162000203565b92505060406200032b8682870162000284565b9150509250925092565b600081519050919050565b7f4e487b7100000000000000000000000000000000000000000000000000000000600052602260045260246000fd5b600060028204905060018216806200038857607f821691505b6020821081036200039e576200039d62000340565b5b50919050565b60008190508160005260206000209050919050565b60006020601f8301049050919050565b600082821b905092915050565b600060088302620004087fffffffffffffffffffffffffffffffffffffffffffffffffffffffffffffffff82620003c9565b620004148683620003c9565b95508019841693508086168417925050509392505050565b6000819050919050565b6000819050919050565b6000620004616200045b62000455846200042c565b62000436565b6200042c565b9050919050565b6000819050919050565b6200047d8362000440565b620004956200048c8262000468565b848454620003d6565b825550505050565b600090565b620004ac6200049d565b620004b981848462000472565b505050565b5b81811015620004e157620004d5600082620004a2565b600181019050620004bf565b5050565b601f8211156200053057620004fa81620003a4565b6200050584620003b9565b8101602085101562000515578190505b6200052d6200052485620003b9565b830182620004be565b50505b505050565b600082821c905092915050565b6000620005556000198460080262000535565b1980831691505092915050565b600062000570838362000542565b9150826002028217905092915050565b6200058b8262000335565b67ffffffffffffffff811115620005a757620005a6620000d2565b5b620005b382546200036f565b620005c0828285620004e5565b600060209050601f831160018114620005f85760008415620005e3578287015190505b620005ef858262000562565b8655506200065f565b601f1984166200060886620003a4565b60005b8281101562000632578489015182556001820191506020850194506020810190506200060b565b868310156200065257848901516200064e601f89168262000542565b8355505b6001600288020188555050505b505050505050565b60805161282c62000683600039600061069a015261282c6000f3fe608060405234801561001057600080fd5b50600436106101005760003560e01c80636352211e11610097578063a22cb46511610066578063a22cb465146102ad578063b88d4fde146102c9578063c87b56dd146102e5578063e985e9c51461031557610100565b80636352211e146102255780636871ee401461025557806370a082311461025f57806395d89b411461028f57610100565b806323b872dd116100d357806323b872dd1461019f57806342842e0e146101bb578063572b6c05146101d75780635938dcd31461020757610100565b806301ffc9a71461010557806306fdde0314610135578063081812fc14610153578063095ea7b314610183575b600080fd5b61011f600480360381019061011a9190611a49565b610345565b60405161012c9190611a91565b60405180910390f35b61013d610427565b60405161014a9190611b3c565b60405180910390f35b61016d60048036038101906101689190611b94565b6104b9565b60405161017a9190611c02565b60405180910390f35b61019d60048036038101906101989190611c49565b6104ff565b005b6101b960048036038101906101b49190611c89565b610616565b005b6101d560048036038101906101d09190611c89565b610676565b005b6101f160048036038101906101ec9190611cdc565b610696565b6040516101fe9190611a91565b60405180910390f35b61020f6106ee565b60405161021c9190611d18565b60405180910390f35b61023f600480360381019061023a9190611b94565b6106f8565b60405161024c9190611c02565b60405180910390f35b61025d61077e565b005b61027960048036038101906102749190611cdc565b610798565b6040516102869190611d18565b60405180910390f35b61029761084f565b6040516102a49190611b3c565b60405180910390f35b6102c760048036038101906102c29190611d5f565b6108e1565b005b6102e360048036038101906102de9190611ed4565b6108f7565b005b6102ff60048036038101906102fa9190611b94565b610959565b60405161030c9190611b3c565b60405180910390f35b61032f600480360381019061032a9190611f57565b6109c1565b60405161033c9190611a91565b60405180910390f35b60007f80ac58cd000000000000000000000000000000000000000000000000000000007bffffffffffffffffffffffffffffffffffffffffffffffffffffffff1916827bffffffffffffffffffffffffffffffffffffffffffffffffffffffff1916148061041057507f5b5e139f000000000000000000000000000000000000000000000000000000007bffffffffffffffffffffffffffffffffffffffffffffffffffffffff1916827bffffffffffffffffffffffffffffffffffffffffffffffffffffffff1916145b80610420575061041f82610a55565b5b9050919050565b60606000805461043690611fc6565b80601f016020809104026020016040519081016040528092919081815260200182805461046290611fc6565b80156104af5780601f10610484576101008083540402835291602001916104af565b820191906000526020600020905b81548152906001019060200180831161049257829003601f168201915b5050505050905090565b60006104c482610abf565b6004600083815260200190815260200160002060009054906101000a900473ffffffffffffffffffffffffffffffffffffffff169050919050565b600061050a826106f8565b90508073ffffffffffffffffffffffffffffffffffffffff168373ffffffffffffffffffffffffffffffffffffffff160361057a576040517f08c379a000000000000000000000000000000000000000000000000000000000815260040161057190612069565b60405180910390fd5b8073ffffffffffffffffffffffffffffffffffffffff16610599610b0a565b73ffffffffffffffffffffffffffffffffffffffff1614806105c857506105c7816105c2610b0a565b6109c1565b5b610607576040517f08c379a00000000000000000000000000000000000000000000000000000000081526004016105fe906120fb565b60405180910390fd5b6106118383610b19565b505050565b610627610621610b0a565b82610bd2565b610666576040517f08c379a000000000000000000000000000000000000000000000000000000000815260040161065d9061218d565b60405180910390fd5b610671838383610c67565b505050565b610691838383604051806020016040528060008152506108f7565b505050565b60007f000000000000000000000000000000000000000000000000000000000000000073ffffffffffffffffffffffffffffffffffffffff168273ffffffffffffffffffffffffffffffffffffffff16149050919050565b6000600654905090565b60008061070483610f60565b9050600073ffffffffffffffffffffffffffffffffffffffff168173ffffffffffffffffffffffffffffffffffffffff1603610775576040517f08c379a000000000000000000000000000000000000000000000000000000000815260040161076c906121f9565b60405180910390fd5b80915050919050565b61079660405180602001604052806000815250610f9d565b565b60008073ffffffffffffffffffffffffffffffffffffffff168273ffffffffffffffffffffffffffffffffffffffff1603610808576040517f08c379a00000000000000000000000000000000000000000000000000000000081526004016107ff9061228b565b60405180910390fd5b600360008373ffffffffffffffffffffffffffffffffffffffff1673ffffffffffffffffffffffffffffffffffffffff168152602001908152602001600020549050919050565b60606001805461085e90611fc6565b80601f016020809104026020016040519081016040528092919081815260200182805461088a90611fc6565b80156108d75780601f106108ac576101008083540402835291602001916108d7565b820191906000526020600020905b8154815290600101906020018083116108ba57829003601f168201915b5050505050905090565b6108f36108ec610b0a565b8383610fc7565b5050565b610908610902610b0a565b83610bd2565b610947576040517f08c379a000000000000000000000000000000000000000000000000000000000815260040161093e9061218d565b60405180910390fd5b61095384848484611133565b50505050565b606061096482610abf565b600061096e61118f565b9050600081511161098e57604051806020016040528060008152506109b9565b80610998846111a6565b6040516020016109a99291906122e7565b6040516020818303038152906040525b915050919050565b6000600560008473ffffffffffffffffffffffffffffffffffffffff1673ffffffffffffffffffffffffffffffffffffffff16815260200190815260200160002060008373ffffffffffffffffffffffffffffffffffffffff1673ffffffffffffffffffffffffffffffffffffffff16815260200190815260200160002060009054906101000a900460ff16905092915050565b60007f01ffc9a7000000000000000000000000000000000000000000000000000000007bffffffffffffffffffffffffffffffffffffffffffffffffffffffff1916827bffffffffffffffffffffffffffffffffffffffffffffffffffffffff1916149050919050565b610ac881611274565b610b07576040517f08c379a0000000000000000000000000000000000000000000000000000000008152600401610afe906121f9565b60405180910390fd5b50565b6000610b146112b5565b905090565b816004600083815260200190815260200160002060006101000a81548173ffffffffffffffffffffffffffffffffffffffff021916908373ffffffffffffffffffffffffffffffffffffffff160217905550808273ffffffffffffffffffffffffffffffffffffffff16610b8c836106f8565b73ffffffffffffffffffffffffffffffffffffffff167f8c5be1e5ebec7d5bd14f71427d1e84f3dd0314c0f7b2291e5b200ac8c7c3b92560405160405180910390a45050565b600080610bde836106f8565b90508073ffffffffffffffffffffffffffffffffffffffff168473ffffffffffffffffffffffffffffffffffffffff161480610c205750610c1f81856109c1565b5b80610c5e57508373ffffffffffffffffffffffffffffffffffffffff16610c46846104b9565b73ffffffffffffffffffffffffffffffffffffffff16145b91505092915050565b8273ffffffffffffffffffffffffffffffffffffffff16610c87826106f8565b73ffffffffffffffffffffffffffffffffffffffff1614610cdd576040517f08c379a0000000000000000000000000000000000000000000000000000000008152600401610cd49061237d565b60405180910390fd5b600073ffffffffffffffffffffffffffffffffffffffff168273ffffffffffffffffffffffffffffffffffffffff1603610d4c576040517f08c379a0000000000000000000000000000000000000000000000000000000008152600401610d439061240f565b60405180910390fd5b610d5983838360016112e7565b8273ffffffffffffffffffffffffffffffffffffffff16610d79826106f8565b73ffffffffffffffffffffffffffffffffffffffff1614610dcf576040517f08c379a0000000000000000000000000000000000000000000000000000000008152600401610dc69061237d565b60405180910390fd5b6004600082815260200190815260200160002060006101000a81549073ffffffffffffffffffffffffffffffffffffffff02191690556001600360008573ffffffffffffffffffffffffffffffffffffffff1673ffffffffffffffffffffffffffffffffffffffff168152602001908152602001600020600082825403925050819055506001600360008473ffffffffffffffffffffffffffffffffffffffff1673ffffffffffffffffffffffffffffffffffffffff16815260200190815260200160002060008282540192505081905550816002600083815260200190815260200160002060006101000a81548173ffffffffffffffffffffffffffffffffffffffff021916908373ffffffffffffffffffffffffffffffffffffffff160217905550808273ffffffffffffffffffffffffffffffffffffffff168473ffffffffffffffffffffffffffffffffffffffff167fddf252ad1be2c89b69c2b068fc378daa952ba7f163c4a11628f55a4df523b3ef60405160405180910390a4610f5b838383600161140d565b505050565b60006002600083815260200190815260200160002060009054906101000a900473ffffffffffffffffffffffffffffffffffffffff169050919050565b6000610fa7611413565b9050610fb1611430565b610fc3610fbc610b0a565b828461144a565b5050565b8173ffffffffffffffffffffffffffffffffffffffff168373ffffffffffffffffffffffffffffffffffffffff1603611035576040517f08c379a000000000000000000000000000000000000000000000000000000000815260040161102c9061247b565b60405180910390fd5b80600560008573ffffffffffffffffffffffffffffffffffffffff1673ffffffffffffffffffffffffffffffffffffffff16815260200190815260200160002060008473ffffffffffffffffffffffffffffffffffffffff1673ffffffffffffffffffffffffffffffffffffffff16815260200190815260200160002060006101000a81548160ff0219169083151502179055508173ffffffffffffffffffffffffffffffffffffffff168373ffffffffffffffffffffffffffffffffffffffff167f17307eab39ab6107e8899845ad3d59bd9653f200f220920489ca2b5937696c31836040516111269190611a91565b60405180910390a3505050565b61113e848484610c67565b61114a848484846114a5565b611189576040517f08c379a00000000000000000000000000000000000000000000000000000000081526004016111809061250d565b60405180910390fd5b50505050565b606060405180602001604052806000815250905090565b6060600060016111b58461162c565b01905060008167ffffffffffffffff8111156111d4576111d3611da9565b5b6040519080825280601f01601f1916602001820160405280156112065781602001600182028036833780820191505090505b509050600082602001820190505b600115611269578080600190039150507f3031323334353637383961626364656600000000000000000000000000000000600a86061a8153600a858161125d5761125c61252d565b5b04945060008503611214575b819350505050919050565b60008073ffffffffffffffffffffffffffffffffffffffff1661129683610f60565b73ffffffffffffffffffffffffffffffffffffffff1614159050919050565b60006112c033610696565b156112d457601436033560601c90506112e3565b6112dc61177f565b90506112e4565b5b90565b600181111561140757600073ffffffffffffffffffffffffffffffffffffffff168473ffffffffffffffffffffffffffffffffffffffff161461137b5780600360008673ffffffffffffffffffffffffffffffffffffffff1673ffffffffffffffffffffffffffffffffffffffff1681526020019081526020016000206000828254611373919061258b565b925050819055505b600073ffffffffffffffffffffffffffffffffffffffff168373ffffffffffffffffffffffffffffffffffffffff16146114065780600360008573ffffffffffffffffffffffffffffffffffffffff1673ffffffffffffffffffffffffffffffffffffffff16815260200190815260200160002060008282546113fe91906125bf565b925050819055505b5b50505050565b50505050565b600061142b600160065461178790919063ffffffff16565b905090565b60066000815480929190611443906125f3565b9190505550565b611454838361179d565b61146160008484846114a5565b6114a0576040517f08c379a00000000000000000000000000000000000000000000000000000000081526004016114979061250d565b60405180910390fd5b505050565b60006114c68473ffffffffffffffffffffffffffffffffffffffff166119ba565b1561161f578373ffffffffffffffffffffffffffffffffffffffff1663150b7a026114ef610b0a565b8786866040518563ffffffff1660e01b81526004016115119493929190612690565b6020604051808303816000875af192505050801561154d57506040513d601f19601f8201168201806040525081019061154a91906126f1565b60015b6115cf573d806000811461157d576040519150601f19603f3d011682016040523d82523d6000602084013e611582565b606091505b5060008151036115c7576040517f08c379a00000000000000000000000000000000000000000000000000000000081526004016115be9061250d565b60405180910390fd5b805181602001fd5b63150b7a0260e01b7bffffffffffffffffffffffffffffffffffffffffffffffffffffffff1916817bffffffffffffffffffffffffffffffffffffffffffffffffffffffff191614915050611624565b600190505b949350505050565b600080600090507a184f03e93ff9f4daa797ed6e38ed64bf6a1f010000000000000000831061168a577a184f03e93ff9f4daa797ed6e38ed64bf6a1f01000000000000000083816116805761167f61252d565b5b0492506040810190505b6d04ee2d6d415b85acef810000000083106116c7576d04ee2d6d415b85acef810000000083816116bd576116bc61252d565b5b0492506020810190505b662386f26fc1000083106116f657662386f26fc1000083816116ec576116eb61252d565b5b0492506010810190505b6305f5e100831061171f576305f5e10083816117155761171461252d565b5b0492506008810190505b612710831061174457612710838161173a5761173961252d565b5b0492506004810190505b60648310611767576064838161175d5761175c61252d565b5b0492506002810190505b600a8310611776576001810190505b80915050919050565b600033905090565b6000818361179591906125bf565b905092915050565b600073ffffffffffffffffffffffffffffffffffffffff168273ffffffffffffffffffffffffffffffffffffffff160361180c576040517f08c379a00000000000000000000000000000000000000000000000000000000081526004016118039061276a565b60405180910390fd5b61181581611274565b15611855576040517f08c379a000000000000000000000000000000000000000000000000000000000815260040161184c906127d6565b60405180910390fd5b6118636000838360016112e7565b61186c81611274565b156118ac576040517f08c379a00000000000000000000000000000000000000000000000000000000081526004016118a3906127d6565b60405180910390fd5b6001600360008473ffffffffffffffffffffffffffffffffffffffff1673ffffffffffffffffffffffffffffffffffffffff16815260200190815260200160002060008282540192505081905550816002600083815260200190815260200160002060006101000a81548173ffffffffffffffffffffffffffffffffffffffff021916908373ffffffffffffffffffffffffffffffffffffffff160217905550808273ffffffffffffffffffffffffffffffffffffffff16600073ffffffffffffffffffffffffffffffffffffffff167fddf252ad1be2c89b69c2b068fc378daa952ba7f163c4a11628f55a4df523b3ef60405160405180910390a46119b660008383600161140d565b5050565b6000808273ffffffffffffffffffffffffffffffffffffffff163b119050919050565b6000604051905090565b600080fd5b600080fd5b60007fffffffff0000000000000000000000000000000000000000000000000000000082169050919050565b611a26816119f1565b8114611a3157600080fd5b50565b600081359050611a4381611a1d565b92915050565b600060208284031215611a5f57611a5e6119e7565b5b6000611a6d84828501611a34565b91505092915050565b60008115159050919050565b611a8b81611a76565b82525050565b6000602082019050611aa66000830184611a82565b92915050565b600081519050919050565b600082825260208201905092915050565b60005b83811015611ae6578082015181840152602081019050611acb565b60008484015250505050565b6000601f19601f8301169050919050565b6000611b0e82611aac565b611b188185611ab7565b9350611b28818560208601611ac8565b611b3181611af2565b840191505092915050565b60006020820190508181036000830152611b568184611b03565b905092915050565b6000819050919050565b611b7181611b5e565b8114611b7c57600080fd5b50565b600081359050611b8e81611b68565b92915050565b600060208284031215611baa57611ba96119e7565b5b6000611bb884828501611b7f565b91505092915050565b600073ffffffffffffffffffffffffffffffffffffffff82169050919050565b6000611bec82611bc1565b9050919050565b611bfc81611be1565b82525050565b6000602082019050611c176000830184611bf3565b92915050565b611c2681611be1565b8114611c3157600080fd5b50565b600081359050611c4381611c1d565b92915050565b60008060408385031215611c6057611c5f6119e7565b5b6000611c6e85828601611c34565b9250506020611c7f85828601611b7f565b9150509250929050565b600080600060608486031215611ca257611ca16119e7565b5b6000611cb086828701611c34565b9350506020611cc186828701611c34565b9250506040611cd286828701611b7f565b9150509250925092565b600060208284031215611cf257611cf16119e7565b5b6000611d0084828501611c34565b91505092915050565b611d1281611b5e565b82525050565b6000602082019050611d2d6000830184611d09565b92915050565b611d3c81611a76565b8114611d4757600080fd5b50565b600081359050611d5981611d33565b92915050565b60008060408385031215611d7657611d756119e7565b5b6000611d8485828601611c34565b9250506020611d9585828601611d4a565b9150509250929050565b600080fd5b600080fd5b7f4e487b7100000000000000000000000000000000000000000000000000000000600052604160045260246000fd5b611de182611af2565b810181811067ffffffffffffffff82111715611e0057611dff611da9565b5b80604052505050565b6000611e136119dd565b9050611e1f8282611dd8565b919050565b600067ffffffffffffffff821115611e3f57611e3e611da9565b5b611e4882611af2565b9050602081019050919050565b82818337600083830152505050565b6000611e77611e7284611e24565b611e09565b905082815260208101848484011115611e9357611e92611da4565b5b611e9e848285611e55565b509392505050565b600082601f830112611ebb57611eba611d9f565b5b8135611ecb848260208601611e64565b91505092915050565b60008060008060808587031215611eee57611eed6119e7565b5b6000611efc87828801611c34565b9450506020611f0d87828801611c34565b9350506040611f1e87828801611b7f565b925050606085013567ffffffffffffffff811115611f3f57611f3e6119ec565b5b611f4b87828801611ea6565b91505092959194509250565b60008060408385031215611f6e57611f6d6119e7565b5b6000611f7c85828601611c34565b9250506020611f8d85828601611c34565b9150509250929050565b7f4e487b7100000000000000000000000000000000000000000000000000000000600052602260045260246000fd5b60006002820490506001821680611fde57607f821691505b602082108103611ff157611ff0611f97565b5b50919050565b7f4552433732313a20617070726f76616c20746f2063757272656e74206f776e6560008201527f7200000000000000000000000000000000000000000000000000000000000000602082015250565b6000612053602183611ab7565b915061205e82611ff7565b604082019050919050565b6000602082019050818103600083015261208281612046565b9050919050565b7f4552433732313a20617070726f76652063616c6c6572206973206e6f7420746f60008201527f6b656e206f776e6572206f7220617070726f76656420666f7220616c6c000000602082015250565b60006120e5603d83611ab7565b91506120f082612089565b604082019050919050565b60006020820190508181036000830152612114816120d8565b9050919050565b7f4552433732313a2063616c6c6572206973206e6f7420746f6b656e206f776e6560008201527f72206f7220617070726f76656400000000000000000000000000000000000000602082015250565b6000612177602d83611ab7565b91506121828261211b565b604082019050919050565b600060208201905081810360008301526121a68161216a565b9050919050565b7f4552433732313a20696e76616c696420746f6b656e2049440000000000000000600082015250565b60006121e3601883611ab7565b91506121ee826121ad565b602082019050919050565b60006020820190508181036000830152612212816121d6565b9050919050565b7f4552433732313a2061646472657373207a65726f206973206e6f74206120766160008201527f6c6964206f776e65720000000000000000000000000000000000000000000000602082015250565b6000612275602983611ab7565b915061228082612219565b604082019050919050565b600060208201905081810360008301526122a481612268565b9050919050565b600081905092915050565b60006122c182611aac565b6122cb81856122ab565b93506122db818560208601611ac8565b80840191505092915050565b60006122f382856122b6565b91506122ff82846122b6565b91508190509392505050565b7f4552433732313a207472616e736665722066726f6d20696e636f72726563742060008201527f6f776e6572000000000000000000000000000000000000000000000000000000602082015250565b6000612367602583611ab7565b91506123728261230b565b604082019050919050565b600060208201905081810360008301526123968161235a565b9050919050565b7f4552433732313a207472616e7366657220746f20746865207a65726f2061646460008201527f7265737300000000000000000000000000000000000000000000000000000000602082015250565b60006123f9602483611ab7565b91506124048261239d565b604082019050919050565b60006020820190508181036000830152612428816123ec565b9050919050565b7f4552433732313a20617070726f766520746f2063616c6c657200000000000000600082015250565b6000612465601983611ab7565b91506124708261242f565b602082019050919050565b6000602082019050818103600083015261249481612458565b9050919050565b7f4552433732313a207472616e7366657220746f206e6f6e20455243373231526560008201527f63656976657220696d706c656d656e7465720000000000000000000000000000602082015250565b60006124f7603283611ab7565b91506125028261249b565b604082019050919050565b60006020820190508181036000830152612526816124ea565b9050919050565b7f4e487b7100000000000000000000000000000000000000000000000000000000600052601260045260246000fd5b7f4e487b7100000000000000000000000000000000000000000000000000000000600052601160045260246000fd5b600061259682611b5e565b91506125a183611b5e565b92508282039050818111156125b9576125b861255c565b5b92915050565b60006125ca82611b5e565b91506125d583611b5e565b92508282019050808211156125ed576125ec61255c565b5b92915050565b60006125fe82611b5e565b91507fffffffffffffffffffffffffffffffffffffffffffffffffffffffffffffffff82036126305761262f61255c565b5b600182019050919050565b600081519050919050565b600082825260208201905092915050565b60006126628261263b565b61266c8185612646565b935061267c818560208601611ac8565b61268581611af2565b840191505092915050565b60006080820190506126a56000830187611bf3565b6126b26020830186611bf3565b6126bf6040830185611d09565b81810360608301526126d18184612657565b905095945050505050565b6000815190506126eb81611a1d565b92915050565b600060208284031215612707576127066119e7565b5b6000612715848285016126dc565b91505092915050565b7f4552433732313a206d696e7420746f20746865207a65726f2061646472657373600082015250565b6000612754602083611ab7565b915061275f8261271e565b602082019050919050565b6000602082019050818103600083015261278381612747565b9050919050565b7f4552433732313a20746f6b656e20616c7265616479206d696e74656400000000600082015250565b60006127c0601c83611ab7565b91506127cb8261278a565b602082019050919050565b600060208201905081810360008301526127ef816127b3565b905091905056fea26469706673582212205a32d8600fa7dd4a24515876a9b771236e469273e47234213bd5e26b1dca8acd64736f6c63430008110033",
  "linkReferences": {},
  "deployedLinkReferences": {}
}