{
  "_format": "hh-sol-artifact-1",
  "contractName": "$MetaTxForwarder",
  "sourceName": "contracts-exposed/MetaTxForwarder.sol",
  "abi": [
    {
      "inputs": [],
      "stateMutability": "nonpayable",
      "type": "constructor"
    },
    {
      "anonymous": false,
      "inputs": [
        {
          "indexed": false,
          "internalType": "address",
          "name": "",
          "type": "address"
        }
      ],
      "name": "log",
      "type": "event"
    },
    {
      "inputs": [],
      "name": "$_domainSeparatorV4",
      "outputs": [
        {
          "internalType": "bytes32",
          "name": "ret0",
          "type": "bytes32"
        }
      ],
      "stateMutability": "view",
      "type": "function"
    },
    {
      "inputs": [
        {
          "internalType": "bytes32",
          "name": "structHash",
          "type": "bytes32"
        }
      ],
      "name": "$_hashTypedDataV4",
      "outputs": [
        {
          "internalType": "bytes32",
          "name": "ret0",
          "type": "bytes32"
        }
      ],
      "stateMutability": "view",
      "type": "function"
    },
    {
      "inputs": [],
      "name": "__hh_exposed_bytecode_marker",
      "outputs": [
        {
          "internalType": "bytes32",
          "name": "",
          "type": "bytes32"
        }
      ],
      "stateMutability": "view",
      "type": "function"
    },
    {
      "inputs": [
        {
          "components": [
            {
              "internalType": "address",
              "name": "from",
              "type": "address"
            },
            {
              "internalType": "address",
              "name": "to",
              "type": "address"
            },
            {
              "internalType": "uint256",
              "name": "value",
              "type": "uint256"
            },
            {
              "internalType": "uint256",
              "name": "gas",
              "type": "uint256"
            },
            {
              "internalType": "uint256",
              "name": "nonce",
              "type": "uint256"
            },
            {
              "internalType": "bytes",
              "name": "data",
              "type": "bytes"
            }
          ],
          "internalType": "struct MetaTxForwarder.ForwardRequest",
          "name": "req",
          "type": "tuple"
        },
        {
          "internalType": "bytes",
          "name": "signature",
          "type": "bytes"
        }
      ],
      "name": "execute",
      "outputs": [
        {
          "internalType": "bool",
          "name": "",
          "type": "bool"
        },
        {
          "internalType": "bytes",
          "name": "",
          "type": "bytes"
        }
      ],
      "stateMutability": "payable",
      "type": "function"
    },
    {
      "inputs": [
        {
          "internalType": "address",
          "name": "from",
          "type": "address"
        }
      ],
      "name": "getNonce",
      "outputs": [
        {
          "internalType": "uint256",
          "name": "",
          "type": "uint256"
        }
      ],
      "stateMutability": "view",
      "type": "function"
    },
    {
      "inputs": [
        {
          "components": [
            {
              "internalType": "address",
              "name": "from",
              "type": "address"
            },
            {
              "internalType": "address",
              "name": "to",
              "type": "address"
            },
            {
              "internalType": "uint256",
              "name": "value",
              "type": "uint256"
            },
            {
              "internalType": "uint256",
              "name": "gas",
              "type": "uint256"
            },
            {
              "internalType": "uint256",
              "name": "nonce",
              "type": "uint256"
            },
            {
              "internalType": "bytes",
              "name": "data",
              "type": "bytes"
            }
          ],
          "internalType": "struct MetaTxForwarder.ForwardRequest",
          "name": "req",
          "type": "tuple"
        },
        {
          "internalType": "bytes",
          "name": "signature",
          "type": "bytes"
        }
      ],
      "name": "verify",
      "outputs": [
        {
          "internalType": "bool",
          "name": "",
          "type": "bool"
        }
      ],
      "stateMutability": "view",
      "type": "function"
    },
    {
      "stateMutability": "payable",
      "type": "receive"
    }
  ],
  "bytecode": "0x6101406040527f686172646861742d6578706f73656400000000000000000000000000000000006001553480156200003657600080fd5b506040518060400160405280601081526020017f4d696e696d616c466f72776172646572000000000000000000000000000000008152506040518060400160405280600581526020017f302e302e3100000000000000000000000000000000000000000000000000000081525060008280519060200120905060008280519060200120905060007f8b73c3c69bb8fe3d512ecc4cf759cc79239f7b179b0ffacaa9a75d522b39400f90508260e081815250508161010081815250504660a081815250506200010c8184846200015b60201b60201c565b608081815250503073ffffffffffffffffffffffffffffffffffffffff1660c08173ffffffffffffffffffffffffffffffffffffffff168152505080610120818152505050505050506200026f565b600083838346306040516020016200017895949392919062000212565b6040516020818303038152906040528051906020012090509392505050565b6000819050919050565b620001ac8162000197565b82525050565b6000819050919050565b620001c781620001b2565b82525050565b600073ffffffffffffffffffffffffffffffffffffffff82169050919050565b6000620001fa82620001cd565b9050919050565b6200020c81620001ed565b82525050565b600060a082019050620002296000830188620001a1565b620002386020830187620001a1565b620002476040830186620001a1565b620002566060830185620001bc565b62000265608083018462000201565b9695505050505050565b60805160a05160c05160e05161010051610120516113be620002bf600039600061063a0152600061067c0152600061065b01526000610590015260006105e60152600061060f01526113be6000f3fe6080604052600436106100595760003560e01c80632d0335ab14610065578063342db739146100a257806347153f82146100cd578063506a6f0c146100fe5780635f8d5e741461013b578063bf5d3bdb1461016657610060565b3661006057005b600080fd5b34801561007157600080fd5b5061008c60048036038101906100879190610a3b565b6101a3565b6040516100999190610a81565b60405180910390f35b3480156100ae57600080fd5b506100b76101eb565b6040516100c49190610ab5565b60405180910390f35b6100e760048036038101906100e29190610b59565b6101f1565b6040516100f5929190610c80565b60405180910390f35b34801561010a57600080fd5b5061012560048036038101906101209190610cdc565b61039c565b6040516101329190610ab5565b60405180910390f35b34801561014757600080fd5b506101506103ae565b60405161015d9190610ab5565b60405180910390f35b34801561017257600080fd5b5061018d60048036038101906101889190610b59565b6103bd565b60405161019a9190610d09565b60405180910390f35b60008060008373ffffffffffffffffffffffffffffffffffffffff1673ffffffffffffffffffffffffffffffffffffffff168152602001908152602001600020549050919050565b60015481565b600060606102008585856103bd565b61023f576040517f08c379a000000000000000000000000000000000000000000000000000000000815260040161023690610da7565b60405180910390fd5b600185608001356102509190610df6565b6000808760000160208101906102669190610a3b565b73ffffffffffffffffffffffffffffffffffffffff1673ffffffffffffffffffffffffffffffffffffffff168152602001908152602001600020819055506000808660200160208101906102ba9190610a3b565b73ffffffffffffffffffffffffffffffffffffffff1687606001358860400135898060a001906102ea9190610e39565b8b60000160208101906102fd9190610a3b565b60405160200161030f93929190610f23565b60405160208183030381529060405260405161032b9190610f7e565b600060405180830381858888f193505050503d8060008114610369576040519150601f19603f3d011682016040523d82523d6000602084013e61036e565b606091505b5091509150603f87606001356103849190610fc4565b5a1161038c57fe5b8181935093505050935093915050565b60006103a782610572565b9050919050565b60006103b861058c565b905090565b6000806104c684848080601f016020809104026020016040519081016040528093929190818152602001838380828437600081840152601f19601f820116905080830192505050505050506104b87fdd8f4b70b0f4393e889bd39128a30628a78b61816a9eb8199759e7a349657e4888600001602081019061043f9190610a3b565b8960200160208101906104529190610a3b565b8a604001358b606001358c608001358d8060a001906104719190610e39565b60405161047f929190610ff5565b604051809103902060405160200161049d979695949392919061101d565b60405160208183030381529060405280519060200120610572565b6106a690919063ffffffff16565b905084608001356000808760000160208101906104e39190610a3b565b73ffffffffffffffffffffffffffffffffffffffff1673ffffffffffffffffffffffffffffffffffffffff1681526020019081526020016000205414801561056857508460000160208101906105399190610a3b565b73ffffffffffffffffffffffffffffffffffffffff168173ffffffffffffffffffffffffffffffffffffffff16145b9150509392505050565b600061058561057f61058c565b836106cd565b9050919050565b60007f000000000000000000000000000000000000000000000000000000000000000073ffffffffffffffffffffffffffffffffffffffff163073ffffffffffffffffffffffffffffffffffffffff1614801561060857507f000000000000000000000000000000000000000000000000000000000000000046145b15610635577f000000000000000000000000000000000000000000000000000000000000000090506106a3565b6106a07f00000000000000000000000000000000000000000000000000000000000000007f00000000000000000000000000000000000000000000000000000000000000007f0000000000000000000000000000000000000000000000000000000000000000610700565b90505b90565b60008060006106b5858561073a565b915091506106c28161078b565b819250505092915050565b600082826040516020016106e2929190611104565b60405160208183030381529060405280519060200120905092915050565b6000838383463060405160200161071b95949392919061113b565b6040516020818303038152906040528051906020012090509392505050565b600080604183510361077b5760008060006020860151925060408601519150606086015160001a905061076f878285856108f1565b94509450505050610784565b60006002915091505b9250929050565b6000600481111561079f5761079e61118e565b5b8160048111156107b2576107b161118e565b5b03156108ee57600160048111156107cc576107cb61118e565b5b8160048111156107df576107de61118e565b5b0361081f576040517f08c379a000000000000000000000000000000000000000000000000000000000815260040161081690611209565b60405180910390fd5b600260048111156108335761083261118e565b5b8160048111156108465761084561118e565b5b03610886576040517f08c379a000000000000000000000000000000000000000000000000000000000815260040161087d90611275565b60405180910390fd5b6003600481111561089a5761089961118e565b5b8160048111156108ad576108ac61118e565b5b036108ed576040517f08c379a00000000000000000000000000000000000000000000000000000000081526004016108e490611307565b60405180910390fd5b5b50565b6000807f7fffffffffffffffffffffffffffffff5d576e7357a4501ddfe92f46681b20a08360001c111561092c5760006003915091506109ca565b6000600187878787604051600081526020016040526040516109519493929190611343565b6020604051602081039080840390855afa158015610973573d6000803e3d6000fd5b505050602060405103519050600073ffffffffffffffffffffffffffffffffffffffff168173ffffffffffffffffffffffffffffffffffffffff16036109c1576000600192509250506109ca565b80600092509250505b94509492505050565b600080fd5b600080fd5b600073ffffffffffffffffffffffffffffffffffffffff82169050919050565b6000610a08826109dd565b9050919050565b610a18816109fd565b8114610a2357600080fd5b50565b600081359050610a3581610a0f565b92915050565b600060208284031215610a5157610a506109d3565b5b6000610a5f84828501610a26565b91505092915050565b6000819050919050565b610a7b81610a68565b82525050565b6000602082019050610a966000830184610a72565b92915050565b6000819050919050565b610aaf81610a9c565b82525050565b6000602082019050610aca6000830184610aa6565b92915050565b600080fd5b600060c08284031215610aeb57610aea610ad0565b5b81905092915050565b600080fd5b600080fd5b600080fd5b60008083601f840112610b1957610b18610af4565b5b8235905067ffffffffffffffff811115610b3657610b35610af9565b5b602083019150836001820283011115610b5257610b51610afe565b5b9250929050565b600080600060408486031215610b7257610b716109d3565b5b600084013567ffffffffffffffff811115610b9057610b8f6109d8565b5b610b9c86828701610ad5565b935050602084013567ffffffffffffffff811115610bbd57610bbc6109d8565b5b610bc986828701610b03565b92509250509250925092565b60008115159050919050565b610bea81610bd5565b82525050565b600081519050919050565b600082825260208201905092915050565b60005b83811015610c2a578082015181840152602081019050610c0f565b60008484015250505050565b6000601f19601f8301169050919050565b6000610c5282610bf0565b610c5c8185610bfb565b9350610c6c818560208601610c0c565b610c7581610c36565b840191505092915050565b6000604082019050610c956000830185610be1565b8181036020830152610ca78184610c47565b90509392505050565b610cb981610a9c565b8114610cc457600080fd5b50565b600081359050610cd681610cb0565b92915050565b600060208284031215610cf257610cf16109d3565b5b6000610d0084828501610cc7565b91505092915050565b6000602082019050610d1e6000830184610be1565b92915050565b600082825260208201905092915050565b7f4d696e696d616c466f727761726465723a207369676e617475726520646f657360008201527f206e6f74206d6174636820726571756573740000000000000000000000000000602082015250565b6000610d91603283610d24565b9150610d9c82610d35565b604082019050919050565b60006020820190508181036000830152610dc081610d84565b9050919050565b7f4e487b7100000000000000000000000000000000000000000000000000000000600052601160045260246000fd5b6000610e0182610a68565b9150610e0c83610a68565b9250828201905080821115610e2457610e23610dc7565b5b92915050565b600080fd5b600080fd5b600080fd5b60008083356001602003843603038112610e5657610e55610e2a565b5b80840192508235915067ffffffffffffffff821115610e7857610e77610e2f565b5b602083019250600182023603831315610e9457610e93610e34565b5b509250929050565b600081905092915050565b82818337600083830152505050565b6000610ec28385610e9c565b9350610ecf838584610ea7565b82840190509392505050565b60008160601b9050919050565b6000610ef382610edb565b9050919050565b6000610f0582610ee8565b9050919050565b610f1d610f18826109fd565b610efa565b82525050565b6000610f30828587610eb6565b9150610f3c8284610f0c565b601482019150819050949350505050565b6000610f5882610bf0565b610f628185610e9c565b9350610f72818560208601610c0c565b80840191505092915050565b6000610f8a8284610f4d565b915081905092915050565b7f4e487b7100000000000000000000000000000000000000000000000000000000600052601260045260246000fd5b6000610fcf82610a68565b9150610fda83610a68565b925082610fea57610fe9610f95565b5b828204905092915050565b6000611002828486610eb6565b91508190509392505050565b611017816109fd565b82525050565b600060e082019050611032600083018a610aa6565b61103f602083018961100e565b61104c604083018861100e565b6110596060830187610a72565b6110666080830186610a72565b61107360a0830185610a72565b61108060c0830184610aa6565b98975050505050505050565b600081905092915050565b7f1901000000000000000000000000000000000000000000000000000000000000600082015250565b60006110cd60028361108c565b91506110d882611097565b600282019050919050565b6000819050919050565b6110fe6110f982610a9c565b6110e3565b82525050565b600061110f826110c0565b915061111b82856110ed565b60208201915061112b82846110ed565b6020820191508190509392505050565b600060a0820190506111506000830188610aa6565b61115d6020830187610aa6565b61116a6040830186610aa6565b6111776060830185610a72565b611184608083018461100e565b9695505050505050565b7f4e487b7100000000000000000000000000000000000000000000000000000000600052602160045260246000fd5b7f45434453413a20696e76616c6964207369676e61747572650000000000000000600082015250565b60006111f3601883610d24565b91506111fe826111bd565b602082019050919050565b60006020820190508181036000830152611222816111e6565b9050919050565b7f45434453413a20696e76616c6964207369676e6174757265206c656e67746800600082015250565b600061125f601f83610d24565b915061126a82611229565b602082019050919050565b6000602082019050818103600083015261128e81611252565b9050919050565b7f45434453413a20696e76616c6964207369676e6174757265202773272076616c60008201527f7565000000000000000000000000000000000000000000000000000000000000602082015250565b60006112f1602283610d24565b91506112fc82611295565b604082019050919050565b60006020820190508181036000830152611320816112e4565b9050919050565b600060ff82169050919050565b61133d81611327565b82525050565b60006080820190506113586000830187610aa6565b6113656020830186611334565b6113726040830185610aa6565b61137f6060830184610aa6565b9594505050505056fea2646970667358221220fb9330ddc438be9000d9e0fbfe5a99442408f5787a0556a592f9342729945b4064736f6c63430008110033",
  "linkReferences": {},
  "deployedLinkReferences": {}
}