{
  "_format": "hh-sol-artifact-1",
  "contractName": "$NFT",
  "sourceName": "contracts-exposed/NFT.sol",
  "abi": [
    {
      "inputs": [
        {
          "internalType": "string",
          "name": "name",
          "type": "string"
        },
        {
          "internalType": "string",
          "name": "symbol",
          "type": "string"
        },
        {
          "internalType": "address",
          "name": "trustedForwarder",
          "type": "address"
        }
      ],
      "stateMutability": "nonpayable",
      "type": "constructor"
    },
    {
      "anonymous": false,
      "inputs": [
        {
          "indexed": true,
          "internalType": "address",
          "name": "owner",
          "type": "address"
        },
        {
          "indexed": true,
          "internalType": "address",
          "name": "approved",
          "type": "address"
        },
        {
          "indexed": true,
          "internalType": "uint256",
          "name": "tokenId",
          "type": "uint256"
        }
      ],
      "name": "Approval",
      "type": "event"
    },
    {
      "anonymous": false,
      "inputs": [
        {
          "indexed": true,
          "internalType": "address",
          "name": "owner",
          "type": "address"
        },
        {
          "indexed": true,
          "internalType": "address",
          "name": "operator",
          "type": "address"
        },
        {
          "indexed": false,
          "internalType": "bool",
          "name": "approved",
          "type": "bool"
        }
      ],
      "name": "ApprovalForAll",
      "type": "event"
    },
    {
      "anonymous": false,
      "inputs": [
        {
          "indexed": true,
          "internalType": "address",
          "name": "from",
          "type": "address"
        },
        {
          "indexed": true,
          "internalType": "address",
          "name": "to",
          "type": "address"
        },
        {
          "indexed": true,
          "internalType": "uint256",
          "name": "tokenId",
          "type": "uint256"
        }
      ],
      "name": "Transfer",
      "type": "event"
    },
    {
      "inputs": [
        {
          "internalType": "address",
          "name": "from",
          "type": "address"
        },
        {
          "internalType": "address",
          "name": "to",
          "type": "address"
        },
        {
          "internalType": "uint256",
          "name": "firstTokenId",
          "type": "uint256"
        },
        {
          "internalType": "uint256",
          "name": "batchSize",
          "type": "uint256"
        }
      ],
      "name": "$_afterTokenTransfer",
      "outputs": [],
      "stateMutability": "nonpayable",
      "type": "function"
    },
    {
      "inputs": [
        {
          "internalType": "address",
          "name": "to",
          "type": "address"
        },
        {
          "internalType": "uint256",
          "name": "tokenId",
          "type": "uint256"
        }
      ],
      "name": "$_approve",
      "outputs": [],
      "stateMutability": "nonpayable",
      "type": "function"
    },
    {
      "inputs": [],
      "name": "$_baseURI",
      "outputs": [
        {
          "internalType": "string",
          "name": "ret0",
          "type": "string"
        }
      ],
      "stateMutability": "view",
      "type": "function"
    },
    {
      "inputs": [
        {
          "internalType": "address",
          "name": "from",
          "type": "address"
        },
        {
          "internalType": "address",
          "name": "to",
          "type": "address"
        },
        {
          "internalType": "uint256",
          "name": "arg2",
          "type": "uint256"
        },
        {
          "internalType": "uint256",
          "name": "batchSize",
          "type": "uint256"
        }
      ],
      "name": "$_beforeTokenTransfer",
      "outputs": [],
      "stateMutability": "nonpayable",
      "type": "function"
    },
    {
      "inputs": [
        {
          "internalType": "uint256",
          "name": "tokenId",
          "type": "uint256"
        }
      ],
      "name": "$_burn",
      "outputs": [],
      "stateMutability": "nonpayable",
      "type": "function"
    },
    {
      "inputs": [
        {
          "internalType": "uint256",
          "name": "tokenId",
          "type": "uint256"
        }
      ],
      "name": "$_exists",
      "outputs": [
        {
          "internalType": "bool",
          "name": "ret0",
          "type": "bool"
        }
      ],
      "stateMutability": "view",
      "type": "function"
    },
    {
      "inputs": [],
      "name": "$_getNextTokenId",
      "outputs": [
        {
          "internalType": "uint256",
          "name": "ret0",
          "type": "uint256"
        }
      ],
      "stateMutability": "view",
      "type": "function"
    },
    {
      "inputs": [],
      "name": "$_incrementTokenId",
      "outputs": [],
      "stateMutability": "nonpayable",
      "type": "function"
    },
    {
      "inputs": [
        {
          "internalType": "address",
          "name": "spender",
          "type": "address"
        },
        {
          "internalType": "uint256",
          "name": "tokenId",
          "type": "uint256"
        }
      ],
      "name": "$_isApprovedOrOwner",
      "outputs": [
        {
          "internalType": "bool",
          "name": "ret0",
          "type": "bool"
        }
      ],
      "stateMutability": "view",
      "type": "function"
    },
    {
      "inputs": [
        {
          "internalType": "address",
          "name": "to",
          "type": "address"
        },
        {
          "internalType": "uint256",
          "name": "tokenId",
          "type": "uint256"
        }
      ],
      "name": "$_mint",
      "outputs": [],
      "stateMutability": "nonpayable",
      "type": "function"
    },
    {
      "inputs": [],
      "name": "$_msgData",
      "outputs": [
        {
          "internalType": "bytes",
          "name": "ret0",
          "type": "bytes"
        }
      ],
      "stateMutability": "view",
      "type": "function"
    },
    {
      "inputs": [],
      "name": "$_msgSender",
      "outputs": [
        {
          "internalType": "address",
          "name": "ret0",
          "type": "address"
        }
      ],
      "stateMutability": "view",
      "type": "function"
    },
    {
      "inputs": [
        {
          "internalType": "uint256",
          "name": "tokenId",
          "type": "uint256"
        }
      ],
      "name": "$_ownerOf",
      "outputs": [
        {
          "internalType": "address",
          "name": "ret0",
          "type": "address"
        }
      ],
      "stateMutability": "view",
      "type": "function"
    },
    {
      "inputs": [
        {
          "internalType": "uint256",
          "name": "tokenId",
          "type": "uint256"
        }
      ],
      "name": "$_requireMinted",
      "outputs": [],
      "stateMutability": "view",
      "type": "function"
    },
    {
      "inputs": [
        {
          "internalType": "address",
          "name": "to",
          "type": "address"
        },
        {
          "internalType": "uint256",
          "name": "tokenId",
          "type": "uint256"
        },
        {
          "internalType": "bytes",
          "name": "data",
          "type": "bytes"
        }
      ],
      "name": "$_safeMint",
      "outputs": [],
      "stateMutability": "nonpayable",
      "type": "function"
    },
    {
      "inputs": [
        {
          "internalType": "address",
          "name": "to",
          "type": "address"
        },
        {
          "internalType": "uint256",
          "name": "tokenId",
          "type": "uint256"
        }
      ],
      "name": "$_safeMint",
      "outputs": [],
      "stateMutability": "nonpayable",
      "type": "function"
    },
    {
      "inputs": [
        {
          "internalType": "address",
          "name": "from",
          "type": "address"
        },
        {
          "internalType": "address",
          "name": "to",
          "type": "address"
        },
        {
          "internalType": "uint256",
          "name": "tokenId",
          "type": "uint256"
        },
        {
          "internalType": "bytes",
          "name": "data",
          "type": "bytes"
        }
      ],
      "name": "$_safeTransfer",
      "outputs": [],
      "stateMutability": "nonpayable",
      "type": "function"
    },
    {
      "inputs": [
        {
          "internalType": "address",
          "name": "owner",
          "type": "address"
        },
        {
          "internalType": "address",
          "name": "operator",
          "type": "address"
        },
        {
          "internalType": "bool",
          "name": "approved",
          "type": "bool"
        }
      ],
      "name": "$_setApprovalForAll",
      "outputs": [],
      "stateMutability": "nonpayable",
      "type": "function"
    },
    {
      "inputs": [
        {
          "internalType": "address",
          "name": "from",
          "type": "address"
        },
        {
          "internalType": "address",
          "name": "to",
          "type": "address"
        },
        {
          "internalType": "uint256",
          "name": "tokenId",
          "type": "uint256"
        }
      ],
      "name": "$_transfer",
      "outputs": [],
      "stateMutability": "nonpayable",
      "type": "function"
    },
    {
      "inputs": [
        {
          "internalType": "bytes",
          "name": "_data",
          "type": "bytes"
        }
      ],
      "name": "$safeMint",
      "outputs": [],
      "stateMutability": "nonpayable",
      "type": "function"
    },
    {
      "inputs": [],
      "name": "__hh_exposed_bytecode_marker",
      "outputs": [
        {
          "internalType": "bytes32",
          "name": "",
          "type": "bytes32"
        }
      ],
      "stateMutability": "view",
      "type": "function"
    },
    {
      "inputs": [
        {
          "internalType": "address",
          "name": "to",
          "type": "address"
        },
        {
          "internalType": "uint256",
          "name": "tokenId",
          "type": "uint256"
        }
      ],
      "name": "approve",
      "outputs": [],
      "stateMutability": "nonpayable",
      "type": "function"
    },
    {
      "inputs": [
        {
          "internalType": "address",
          "name": "owner",
          "type": "address"
        }
      ],
      "name": "balanceOf",
      "outputs": [
        {
          "internalType": "uint256",
          "name": "",
          "type": "uint256"
        }
      ],
      "stateMutability": "view",
      "type": "function"
    },
    {
      "inputs": [
        {
          "internalType": "uint256",
          "name": "tokenId",
          "type": "uint256"
        }
      ],
      "name": "getApproved",
      "outputs": [
        {
          "internalType": "address",
          "name": "",
          "type": "address"
        }
      ],
      "stateMutability": "view",
      "type": "function"
    },
    {
      "inputs": [],
      "name": "getCurrTokenId",
      "outputs": [
        {
          "internalType": "uint256",
          "name": "",
          "type": "uint256"
        }
      ],
      "stateMutability": "view",
      "type": "function"
    },
    {
      "inputs": [
        {
          "internalType": "address",
          "name": "owner",
          "type": "address"
        },
        {
          "internalType": "address",
          "name": "operator",
          "type": "address"
        }
      ],
      "name": "isApprovedForAll",
      "outputs": [
        {
          "internalType": "bool",
          "name": "",
          "type": "bool"
        }
      ],
      "stateMutability": "view",
      "type": "function"
    },
    {
      "inputs": [
        {
          "internalType": "address",
          "name": "forwarder",
          "type": "address"
        }
      ],
      "name": "isTrustedForwarder",
      "outputs": [
        {
          "internalType": "bool",
          "name": "",
          "type": "bool"
        }
      ],
      "stateMutability": "view",
      "type": "function"
    },
    {
      "inputs": [],
      "name": "name",
      "outputs": [
        {
          "internalType": "string",
          "name": "",
          "type": "string"
        }
      ],
      "stateMutability": "view",
      "type": "function"
    },
    {
      "inputs": [
        {
          "internalType": "uint256",
          "name": "tokenId",
          "type": "uint256"
        }
      ],
      "name": "ownerOf",
      "outputs": [
        {
          "internalType": "address",
          "name": "",
          "type": "address"
        }
      ],
      "stateMutability": "view",
      "type": "function"
    },
    {
      "inputs": [],
      "name": "safeMint",
      "outputs": [],
      "stateMutability": "nonpayable",
      "type": "function"
    },
    {
      "inputs": [
        {
          "internalType": "address",
          "name": "from",
          "type": "address"
        },
        {
          "internalType": "address",
          "name": "to",
          "type": "address"
        },
        {
          "internalType": "uint256",
          "name": "tokenId",
          "type": "uint256"
        }
      ],
      "name": "safeTransferFrom",
      "outputs": [],
      "stateMutability": "nonpayable",
      "type": "function"
    },
    {
      "inputs": [
        {
          "internalType": "address",
          "name": "from",
          "type": "address"
        },
        {
          "internalType": "address",
          "name": "to",
          "type": "address"
        },
        {
          "internalType": "uint256",
          "name": "tokenId",
          "type": "uint256"
        },
        {
          "internalType": "bytes",
          "name": "data",
          "type": "bytes"
        }
      ],
      "name": "safeTransferFrom",
      "outputs": [],
      "stateMutability": "nonpayable",
      "type": "function"
    },
    {
      "inputs": [
        {
          "internalType": "address",
          "name": "operator",
          "type": "address"
        },
        {
          "internalType": "bool",
          "name": "approved",
          "type": "bool"
        }
      ],
      "name": "setApprovalForAll",
      "outputs": [],
      "stateMutability": "nonpayable",
      "type": "function"
    },
    {
      "inputs": [
        {
          "internalType": "bytes4",
          "name": "interfaceId",
          "type": "bytes4"
        }
      ],
      "name": "supportsInterface",
      "outputs": [
        {
          "internalType": "bool",
          "name": "",
          "type": "bool"
        }
      ],
      "stateMutability": "view",
      "type": "function"
    },
    {
      "inputs": [],
      "name": "symbol",
      "outputs": [
        {
          "internalType": "string",
          "name": "",
          "type": "string"
        }
      ],
      "stateMutability": "view",
      "type": "function"
    },
    {
      "inputs": [
        {
          "internalType": "uint256",
          "name": "tokenId",
          "type": "uint256"
        }
      ],
      "name": "tokenURI",
      "outputs": [
        {
          "internalType": "string",
          "name": "",
          "type": "string"
        }
      ],
      "stateMutability": "view",
      "type": "function"
    },
    {
      "inputs": [
        {
          "internalType": "address",
          "name": "from",
          "type": "address"
        },
        {
          "internalType": "address",
          "name": "to",
          "type": "address"
        },
        {
          "internalType": "uint256",
          "name": "tokenId",
          "type": "uint256"
        }
      ],
      "name": "transferFrom",
      "outputs": [],
      "stateMutability": "nonpayable",
      "type": "function"
    },
    {
      "stateMutability": "payable",
      "type": "receive"
    }
  ],
  "bytecode": "0x60a060405260006006557f686172646861742d6578706f73656400000000000000000000000000000000006007553480156200003a57600080fd5b5060405162003b8238038062003b828339818101604052810190620000609190620002c5565b8282828282828073ffffffffffffffffffffffffffffffffffffffff1660808173ffffffffffffffffffffffffffffffffffffffff1681525050508160009081620000ac9190620005aa565b508060019081620000be9190620005aa565b50505050505050505062000691565b6000604051905090565b600080fd5b600080fd5b600080fd5b600080fd5b6000601f19601f8301169050919050565b7f4e487b7100000000000000000000000000000000000000000000000000000000600052604160045260246000fd5b6200013682620000eb565b810181811067ffffffffffffffff82111715620001585762000157620000fc565b5b80604052505050565b60006200016d620000cd565b90506200017b82826200012b565b919050565b600067ffffffffffffffff8211156200019e576200019d620000fc565b5b620001a982620000eb565b9050602081019050919050565b60005b83811015620001d6578082015181840152602081019050620001b9565b60008484015250505050565b6000620001f9620001f38462000180565b62000161565b905082815260208101848484011115620002185762000217620000e6565b5b62000225848285620001b6565b509392505050565b600082601f830112620002455762000244620000e1565b5b815162000257848260208601620001e2565b91505092915050565b600073ffffffffffffffffffffffffffffffffffffffff82169050919050565b60006200028d8262000260565b9050919050565b6200029f8162000280565b8114620002ab57600080fd5b50565b600081519050620002bf8162000294565b92915050565b600080600060608486031215620002e157620002e0620000d7565b5b600084015167ffffffffffffffff811115620003025762000301620000dc565b5b62000310868287016200022d565b935050602084015167ffffffffffffffff811115620003345762000333620000dc565b5b62000342868287016200022d565b92505060406200035586828701620002ae565b9150509250925092565b600081519050919050565b7f4e487b7100000000000000000000000000000000000000000000000000000000600052602260045260246000fd5b60006002820490506001821680620003b257607f821691505b602082108103620003c857620003c76200036a565b5b50919050565b60008190508160005260206000209050919050565b60006020601f8301049050919050565b600082821b905092915050565b600060088302620004327fffffffffffffffffffffffffffffffffffffffffffffffffffffffffffffffff82620003f3565b6200043e8683620003f3565b95508019841693508086168417925050509392505050565b6000819050919050565b6000819050919050565b60006200048b620004856200047f8462000456565b62000460565b62000456565b9050919050565b6000819050919050565b620004a7836200046a565b620004bf620004b68262000492565b84845462000400565b825550505050565b600090565b620004d6620004c7565b620004e38184846200049c565b505050565b5b818110156200050b57620004ff600082620004cc565b600181019050620004e9565b5050565b601f8211156200055a576200052481620003ce565b6200052f84620003e3565b810160208510156200053f578190505b620005576200054e85620003e3565b830182620004e8565b50505b505050565b600082821c905092915050565b60006200057f600019846008026200055f565b1980831691505092915050565b60006200059a83836200056c565b9150826002028217905092915050565b620005b5826200035f565b67ffffffffffffffff811115620005d157620005d0620000fc565b5b620005dd825462000399565b620005ea8282856200050f565b600060209050601f8311600181146200062257600084156200060d578287015190505b6200061985826200058c565b86555062000689565b601f1984166200063286620003ce565b60005b828110156200065c5784890151825560018201915060208501945060208101905062000635565b868310156200067c578489015162000678601f8916826200056c565b8355505b6001600288020188555050505b505050505050565b6080516134d5620006ad6000396000610d1701526134d56000f3fe60806040526004361061021e5760003560e01c806370a0823111610123578063c37add51116100ab578063cfeea0d41161006f578063cfeea0d4146107ea578063d261af5414610813578063e07084c21461083c578063e985e9c514610865578063efb43b07146108a257610225565b8063c37add51146106e1578063c4a96fa61461071e578063c87b56dd1461075b578063cc461d6214610798578063cd43f47d146107c157610225565b80639dd60334116100f25780639dd60334146106125780639ff2f02d1461063d578063a22cb46514610666578063a2373a821461068f578063b88d4fde146106b857610225565b806370a082311461056a578063733555ec146105a757806389521b93146105d057806395d89b41146105e757610225565b80632904df29116101a6578063458ee00211610175578063458ee00214610471578063572b6c05146104ae5780635938dcd3146104eb5780636352211e146105165780636871ee401461055357610225565b80632904df29146103c757806332cadf3c146103f2578063342db7391461041d57806342842e0e1461044857610225565b806309854d72116101ed57806309854d72146102f85780630a6af1b814610321578063147619da1461034a578063161e977d1461037357806323b872dd1461039e57610225565b806301ffc9a71461022a57806306fdde0314610267578063081812fc14610292578063095ea7b3146102cf57610225565b3661022557005b600080fd5b34801561023657600080fd5b50610251600480360381019061024c91906123f4565b6108cb565b60405161025e919061243c565b60405180910390f35b34801561027357600080fd5b5061027c6109ad565b60405161028991906124e7565b60405180910390f35b34801561029e57600080fd5b506102b960048036038101906102b4919061253f565b610a3f565b6040516102c691906125ad565b60405180910390f35b3480156102db57600080fd5b506102f660048036038101906102f191906125f4565b610a85565b005b34801561030457600080fd5b5061031f600480360381019061031a919061253f565b610b9c565b005b34801561032d57600080fd5b5061034860048036038101906103439190612699565b610ba8565b005b34801561035657600080fd5b50610371600480360381019061036c91906126e6565b610bf9565b005b34801561037f57600080fd5b50610388610c0b565b60405161039591906124e7565b60405180910390f35b3480156103aa57600080fd5b506103c560048036038101906103c0919061274d565b610c1a565b005b3480156103d357600080fd5b506103dc610c7a565b6040516103e991906125ad565b60405180910390f35b3480156103fe57600080fd5b50610407610c89565b60405161041491906127f5565b60405180910390f35b34801561042957600080fd5b50610432610cdb565b60405161043f9190612830565b60405180910390f35b34801561045457600080fd5b5061046f600480360381019061046a919061274d565b610ce1565b005b34801561047d57600080fd5b506104986004803603810190610493919061253f565b610d01565b6040516104a591906125ad565b60405180910390f35b3480156104ba57600080fd5b506104d560048036038101906104d0919061284b565b610d13565b6040516104e2919061243c565b60405180910390f35b3480156104f757600080fd5b50610500610d6b565b60405161050d9190612887565b60405180910390f35b34801561052257600080fd5b5061053d6004803603810190610538919061253f565b610d75565b60405161054a91906125ad565b60405180910390f35b34801561055f57600080fd5b50610568610dfb565b005b34801561057657600080fd5b50610591600480360381019061058c919061284b565b610e15565b60405161059e9190612887565b60405180910390f35b3480156105b357600080fd5b506105ce60048036038101906105c991906128a2565b610ecc565b005b3480156105dc57600080fd5b506105e5610f23565b005b3480156105f357600080fd5b506105fc610f2d565b60405161060991906124e7565b60405180910390f35b34801561061e57600080fd5b50610627610fbf565b6040516106349190612887565b60405180910390f35b34801561064957600080fd5b50610664600480360381019061065f919061292a565b610fce565b005b34801561067257600080fd5b5061068d600480360381019061068891906129ca565b611023565b005b34801561069b57600080fd5b506106b660048036038101906106b1919061253f565b611039565b005b3480156106c457600080fd5b506106df60048036038101906106da9190612b3a565b611045565b005b3480156106ed57600080fd5b506107086004803603810190610703919061253f565b6110a7565b604051610715919061243c565b60405180910390f35b34801561072a57600080fd5b50610745600480360381019061074091906125f4565b6110b9565b604051610752919061243c565b60405180910390f35b34801561076757600080fd5b50610782600480360381019061077d919061253f565b6110cd565b60405161078f91906124e7565b60405180910390f35b3480156107a457600080fd5b506107bf60048036038101906107ba91906125f4565b611135565b005b3480156107cd57600080fd5b506107e860048036038101906107e391906125f4565b611143565b005b3480156107f657600080fd5b50610811600480360381019061080c9190612bbd565b611151565b005b34801561081f57600080fd5b5061083a600480360381019061083591906125f4565b611161565b005b34801561084857600080fd5b50610863600480360381019061085e91906126e6565b61116f565b005b34801561087157600080fd5b5061088c60048036038101906108879190612c10565b611181565b604051610899919061243c565b60405180910390f35b3480156108ae57600080fd5b506108c960048036038101906108c4919061274d565b611215565b005b60007f80ac58cd000000000000000000000000000000000000000000000000000000007bffffffffffffffffffffffffffffffffffffffffffffffffffffffff1916827bffffffffffffffffffffffffffffffffffffffffffffffffffffffff1916148061099657507f5b5e139f000000000000000000000000000000000000000000000000000000007bffffffffffffffffffffffffffffffffffffffffffffffffffffffff1916827bffffffffffffffffffffffffffffffffffffffffffffffffffffffff1916145b806109a657506109a582611225565b5b9050919050565b6060600080546109bc90612c7f565b80601f01602080910402602001604051908101604052809291908181526020018280546109e890612c7f565b8015610a355780601f10610a0a57610100808354040283529160200191610a35565b820191906000526020600020905b815481529060010190602001808311610a1857829003601f168201915b5050505050905090565b6000610a4a8261128f565b6004600083815260200190815260200160002060009054906101000a900473ffffffffffffffffffffffffffffffffffffffff169050919050565b6000610a9082610d75565b90508073ffffffffffffffffffffffffffffffffffffffff168373ffffffffffffffffffffffffffffffffffffffff1603610b00576040517f08c379a0000000000000000000000000000000000000000000000000000000008152600401610af790612d22565b60405180910390fd5b8073ffffffffffffffffffffffffffffffffffffffff16610b1f6112da565b73ffffffffffffffffffffffffffffffffffffffff161480610b4e5750610b4d81610b486112da565b611181565b5b610b8d576040517f08c379a0000000000000000000000000000000000000000000000000000000008152600401610b8490612db4565b60405180910390fd5b610b9783836112e9565b505050565b610ba58161128f565b50565b610bf582828080601f016020809104026020016040519081016040528093929190818152602001838380828437600081840152601f19601f820116905080830192505050505050506113a2565b5050565b610c05848484846113cc565b50505050565b6060610c156114f2565b905090565b610c2b610c256112da565b82611509565b610c6a576040517f08c379a0000000000000000000000000000000000000000000000000000000008152600401610c6190612e46565b60405180910390fd5b610c7583838361159e565b505050565b6000610c846112da565b905090565b6060610c93611897565b8080601f016020809104026020016040519081016040528093929190818152602001838380828437600081840152601f19601f82011690508083019250505050505050905090565b60075481565b610cfc83838360405180602001604052806000815250611045565b505050565b6000610d0c826118aa565b9050919050565b60007f000000000000000000000000000000000000000000000000000000000000000073ffffffffffffffffffffffffffffffffffffffff168273ffffffffffffffffffffffffffffffffffffffff16149050919050565b6000600654905090565b600080610d81836118aa565b9050600073ffffffffffffffffffffffffffffffffffffffff168173ffffffffffffffffffffffffffffffffffffffff1603610df2576040517f08c379a0000000000000000000000000000000000000000000000000000000008152600401610de990612eb2565b60405180910390fd5b80915050919050565b610e13604051806020016040528060008152506113a2565b565b60008073ffffffffffffffffffffffffffffffffffffffff168273ffffffffffffffffffffffffffffffffffffffff1603610e85576040517f08c379a0000000000000000000000000000000000000000000000000000000008152600401610e7c90612f44565b60405180910390fd5b600360008373ffffffffffffffffffffffffffffffffffffffff1673ffffffffffffffffffffffffffffffffffffffff168152602001908152602001600020549050919050565b610f1c85858585858080601f016020809104026020016040519081016040528093929190818152602001838380828437600081840152601f19601f820116905080830192505050505050506118e7565b5050505050565b610f2b611943565b565b606060018054610f3c90612c7f565b80601f0160208091040260200160405190810160405280929190818152602001828054610f6890612c7f565b8015610fb55780601f10610f8a57610100808354040283529160200191610fb5565b820191906000526020600020905b815481529060010190602001808311610f9857829003601f168201915b5050505050905090565b6000610fc961195d565b905090565b61101d848484848080601f016020809104026020016040519081016040528093929190818152602001838380828437600081840152601f19601f8201169050808301925050505050505061197a565b50505050565b61103561102e6112da565b83836119d5565b5050565b61104281611b41565b50565b6110566110506112da565b83611509565b611095576040517f08c379a000000000000000000000000000000000000000000000000000000000815260040161108c90612e46565b60405180910390fd5b6110a1848484846118e7565b50505050565b60006110b282611c8f565b9050919050565b60006110c58383611509565b905092915050565b60606110d88261128f565b60006110e26114f2565b90506000815111611102576040518060200160405280600081525061112d565b8061110c84611cd0565b60405160200161111d929190612fa0565b6040516020818303038152906040525b915050919050565b61113f8282611d9e565b5050565b61114d82826112e9565b5050565b61115c8383836119d5565b505050565b61116b8282611fbb565b5050565b61117b84848484611fd9565b50505050565b6000600560008473ffffffffffffffffffffffffffffffffffffffff1673ffffffffffffffffffffffffffffffffffffffff16815260200190815260200160002060008373ffffffffffffffffffffffffffffffffffffffff1673ffffffffffffffffffffffffffffffffffffffff16815260200190815260200160002060009054906101000a900460ff16905092915050565b61122083838361159e565b505050565b60007f01ffc9a7000000000000000000000000000000000000000000000000000000007bffffffffffffffffffffffffffffffffffffffffffffffffffffffff1916827bffffffffffffffffffffffffffffffffffffffffffffffffffffffff1916149050919050565b61129881611c8f565b6112d7576040517f08c379a00000000000000000000000000000000000000000000000000000000081526004016112ce90612eb2565b60405180910390fd5b50565b60006112e4611fdf565b905090565b816004600083815260200190815260200160002060006101000a81548173ffffffffffffffffffffffffffffffffffffffff021916908373ffffffffffffffffffffffffffffffffffffffff160217905550808273ffffffffffffffffffffffffffffffffffffffff1661135c83610d75565b73ffffffffffffffffffffffffffffffffffffffff167f8c5be1e5ebec7d5bd14f71427d1e84f3dd0314c0f7b2291e5b200ac8c7c3b92560405160405180910390a45050565b60006113ac61195d565b90506113b6611943565b6113c86113c16112da565b828461197a565b5050565b60018111156114ec57600073ffffffffffffffffffffffffffffffffffffffff168473ffffffffffffffffffffffffffffffffffffffff16146114605780600360008673ffffffffffffffffffffffffffffffffffffffff1673ffffffffffffffffffffffffffffffffffffffff16815260200190815260200160002060008282546114589190612ff3565b925050819055505b600073ffffffffffffffffffffffffffffffffffffffff168373ffffffffffffffffffffffffffffffffffffffff16146114eb5780600360008573ffffffffffffffffffffffffffffffffffffffff1673ffffffffffffffffffffffffffffffffffffffff16815260200190815260200160002060008282546114e39190613027565b925050819055505b5b50505050565b606060405180602001604052806000815250905090565b60008061151583610d75565b90508073ffffffffffffffffffffffffffffffffffffffff168473ffffffffffffffffffffffffffffffffffffffff16148061155757506115568185611181565b5b8061159557508373ffffffffffffffffffffffffffffffffffffffff1661157d84610a3f565b73ffffffffffffffffffffffffffffffffffffffff16145b91505092915050565b8273ffffffffffffffffffffffffffffffffffffffff166115be82610d75565b73ffffffffffffffffffffffffffffffffffffffff1614611614576040517f08c379a000000000000000000000000000000000000000000000000000000000815260040161160b906130cd565b60405180910390fd5b600073ffffffffffffffffffffffffffffffffffffffff168273ffffffffffffffffffffffffffffffffffffffff1603611683576040517f08c379a000000000000000000000000000000000000000000000000000000000815260040161167a9061315f565b60405180910390fd5b61169083838360016113cc565b8273ffffffffffffffffffffffffffffffffffffffff166116b082610d75565b73ffffffffffffffffffffffffffffffffffffffff1614611706576040517f08c379a00000000000000000000000000000000000000000000000000000000081526004016116fd906130cd565b60405180910390fd5b6004600082815260200190815260200160002060006101000a81549073ffffffffffffffffffffffffffffffffffffffff02191690556001600360008573ffffffffffffffffffffffffffffffffffffffff1673ffffffffffffffffffffffffffffffffffffffff168152602001908152602001600020600082825403925050819055506001600360008473ffffffffffffffffffffffffffffffffffffffff1673ffffffffffffffffffffffffffffffffffffffff16815260200190815260200160002060008282540192505081905550816002600083815260200190815260200160002060006101000a81548173ffffffffffffffffffffffffffffffffffffffff021916908373ffffffffffffffffffffffffffffffffffffffff160217905550808273ffffffffffffffffffffffffffffffffffffffff168473ffffffffffffffffffffffffffffffffffffffff167fddf252ad1be2c89b69c2b068fc378daa952ba7f163c4a11628f55a4df523b3ef60405160405180910390a46118928383836001611fd9565b505050565b3660006118a2612011565b915091509091565b60006002600083815260200190815260200160002060009054906101000a900473ffffffffffffffffffffffffffffffffffffffff169050919050565b6118f284848461159e565b6118fe84848484612060565b61193d576040517f08c379a0000000000000000000000000000000000000000000000000000000008152600401611934906131f1565b60405180910390fd5b50505050565b6006600081548092919061195690613211565b9190505550565b600061197560016006546121e790919063ffffffff16565b905090565b6119848383611d9e565b6119916000848484612060565b6119d0576040517f08c379a00000000000000000000000000000000000000000000000000000000081526004016119c7906131f1565b60405180910390fd5b505050565b8173ffffffffffffffffffffffffffffffffffffffff168373ffffffffffffffffffffffffffffffffffffffff1603611a43576040517f08c379a0000000000000000000000000000000000000000000000000000000008152600401611a3a906132a5565b60405180910390fd5b80600560008573ffffffffffffffffffffffffffffffffffffffff1673ffffffffffffffffffffffffffffffffffffffff16815260200190815260200160002060008473ffffffffffffffffffffffffffffffffffffffff1673ffffffffffffffffffffffffffffffffffffffff16815260200190815260200160002060006101000a81548160ff0219169083151502179055508173ffffffffffffffffffffffffffffffffffffffff168373ffffffffffffffffffffffffffffffffffffffff167f17307eab39ab6107e8899845ad3d59bd9653f200f220920489ca2b5937696c3183604051611b34919061243c565b60405180910390a3505050565b6000611b4c82610d75565b9050611b5c8160008460016113cc565b611b6582610d75565b90506004600083815260200190815260200160002060006101000a81549073ffffffffffffffffffffffffffffffffffffffff02191690556001600360008373ffffffffffffffffffffffffffffffffffffffff1673ffffffffffffffffffffffffffffffffffffffff168152602001908152602001600020600082825403925050819055506002600083815260200190815260200160002060006101000a81549073ffffffffffffffffffffffffffffffffffffffff021916905581600073ffffffffffffffffffffffffffffffffffffffff168273ffffffffffffffffffffffffffffffffffffffff167fddf252ad1be2c89b69c2b068fc378daa952ba7f163c4a11628f55a4df523b3ef60405160405180910390a4611c8b816000846001611fd9565b5050565b60008073ffffffffffffffffffffffffffffffffffffffff16611cb1836118aa565b73ffffffffffffffffffffffffffffffffffffffff1614159050919050565b606060006001611cdf846121fd565b01905060008167ffffffffffffffff811115611cfe57611cfd612a0f565b5b6040519080825280601f01601f191660200182016040528015611d305781602001600182028036833780820191505090505b509050600082602001820190505b600115611d93578080600190039150507f3031323334353637383961626364656600000000000000000000000000000000600a86061a8153600a8581611d8757611d866132c5565b5b04945060008503611d3e575b819350505050919050565b600073ffffffffffffffffffffffffffffffffffffffff168273ffffffffffffffffffffffffffffffffffffffff1603611e0d576040517f08c379a0000000000000000000000000000000000000000000000000000000008152600401611e0490613340565b60405180910390fd5b611e1681611c8f565b15611e56576040517f08c379a0000000000000000000000000000000000000000000000000000000008152600401611e4d906133ac565b60405180910390fd5b611e646000838360016113cc565b611e6d81611c8f565b15611ead576040517f08c379a0000000000000000000000000000000000000000000000000000000008152600401611ea4906133ac565b60405180910390fd5b6001600360008473ffffffffffffffffffffffffffffffffffffffff1673ffffffffffffffffffffffffffffffffffffffff16815260200190815260200160002060008282540192505081905550816002600083815260200190815260200160002060006101000a81548173ffffffffffffffffffffffffffffffffffffffff021916908373ffffffffffffffffffffffffffffffffffffffff160217905550808273ffffffffffffffffffffffffffffffffffffffff16600073ffffffffffffffffffffffffffffffffffffffff167fddf252ad1be2c89b69c2b068fc378daa952ba7f163c4a11628f55a4df523b3ef60405160405180910390a4611fb7600083836001611fd9565b5050565b611fd582826040518060200160405280600081525061197a565b5050565b50505050565b6000611fea33610d13565b15611ffe57601436033560601c905061200d565b612006612350565b905061200e565b5b90565b36600061201d33610d13565b1561204f57600036600090601460003690506120399190612ff3565b92612046939291906133d6565b9150915061205c565b612057612358565b915091505b9091565b60006120818473ffffffffffffffffffffffffffffffffffffffff16612365565b156121da578373ffffffffffffffffffffffffffffffffffffffff1663150b7a026120aa6112da565b8786866040518563ffffffff1660e01b81526004016120cc9493929190613411565b6020604051808303816000875af192505050801561210857506040513d601f19601f820116820180604052508101906121059190613472565b60015b61218a573d8060008114612138576040519150601f19603f3d011682016040523d82523d6000602084013e61213d565b606091505b506000815103612182576040517f08c379a0000000000000000000000000000000000000000000000000000000008152600401612179906131f1565b60405180910390fd5b805181602001fd5b63150b7a0260e01b7bffffffffffffffffffffffffffffffffffffffffffffffffffffffff1916817bffffffffffffffffffffffffffffffffffffffffffffffffffffffff1916149150506121df565b600190505b949350505050565b600081836121f59190613027565b905092915050565b600080600090507a184f03e93ff9f4daa797ed6e38ed64bf6a1f010000000000000000831061225b577a184f03e93ff9f4daa797ed6e38ed64bf6a1f0100000000000000008381612251576122506132c5565b5b0492506040810190505b6d04ee2d6d415b85acef81000000008310612298576d04ee2d6d415b85acef8100000000838161228e5761228d6132c5565b5b0492506020810190505b662386f26fc1000083106122c757662386f26fc1000083816122bd576122bc6132c5565b5b0492506010810190505b6305f5e10083106122f0576305f5e10083816122e6576122e56132c5565b5b0492506008810190505b612710831061231557612710838161230b5761230a6132c5565b5b0492506004810190505b60648310612338576064838161232e5761232d6132c5565b5b0492506002810190505b600a8310612347576001810190505b80915050919050565b600033905090565b3660008036915091509091565b6000808273ffffffffffffffffffffffffffffffffffffffff163b119050919050565b6000604051905090565b600080fd5b600080fd5b60007fffffffff0000000000000000000000000000000000000000000000000000000082169050919050565b6123d18161239c565b81146123dc57600080fd5b50565b6000813590506123ee816123c8565b92915050565b60006020828403121561240a57612409612392565b5b6000612418848285016123df565b91505092915050565b60008115159050919050565b61243681612421565b82525050565b6000602082019050612451600083018461242d565b92915050565b600081519050919050565b600082825260208201905092915050565b60005b83811015612491578082015181840152602081019050612476565b60008484015250505050565b6000601f19601f8301169050919050565b60006124b982612457565b6124c38185612462565b93506124d3818560208601612473565b6124dc8161249d565b840191505092915050565b6000602082019050818103600083015261250181846124ae565b905092915050565b6000819050919050565b61251c81612509565b811461252757600080fd5b50565b60008135905061253981612513565b92915050565b60006020828403121561255557612554612392565b5b60006125638482850161252a565b91505092915050565b600073ffffffffffffffffffffffffffffffffffffffff82169050919050565b60006125978261256c565b9050919050565b6125a78161258c565b82525050565b60006020820190506125c2600083018461259e565b92915050565b6125d18161258c565b81146125dc57600080fd5b50565b6000813590506125ee816125c8565b92915050565b6000806040838503121561260b5761260a612392565b5b6000612619858286016125df565b925050602061262a8582860161252a565b9150509250929050565b600080fd5b600080fd5b600080fd5b60008083601f84011261265957612658612634565b5b8235905067ffffffffffffffff81111561267657612675612639565b5b6020830191508360018202830111156126925761269161263e565b5b9250929050565b600080602083850312156126b0576126af612392565b5b600083013567ffffffffffffffff8111156126ce576126cd612397565b5b6126da85828601612643565b92509250509250929050565b60008060008060808587031215612700576126ff612392565b5b600061270e878288016125df565b945050602061271f878288016125df565b93505060406127308782880161252a565b92505060606127418782880161252a565b91505092959194509250565b60008060006060848603121561276657612765612392565b5b6000612774868287016125df565b9350506020612785868287016125df565b92505060406127968682870161252a565b9150509250925092565b600081519050919050565b600082825260208201905092915050565b60006127c7826127a0565b6127d181856127ab565b93506127e1818560208601612473565b6127ea8161249d565b840191505092915050565b6000602082019050818103600083015261280f81846127bc565b905092915050565b6000819050919050565b61282a81612817565b82525050565b60006020820190506128456000830184612821565b92915050565b60006020828403121561286157612860612392565b5b600061286f848285016125df565b91505092915050565b61288181612509565b82525050565b600060208201905061289c6000830184612878565b92915050565b6000806000806000608086880312156128be576128bd612392565b5b60006128cc888289016125df565b95505060206128dd888289016125df565b94505060406128ee8882890161252a565b935050606086013567ffffffffffffffff81111561290f5761290e612397565b5b61291b88828901612643565b92509250509295509295909350565b6000806000806060858703121561294457612943612392565b5b6000612952878288016125df565b94505060206129638782880161252a565b935050604085013567ffffffffffffffff81111561298457612983612397565b5b61299087828801612643565b925092505092959194509250565b6129a781612421565b81146129b257600080fd5b50565b6000813590506129c48161299e565b92915050565b600080604083850312156129e1576129e0612392565b5b60006129ef858286016125df565b9250506020612a00858286016129b5565b9150509250929050565b600080fd5b7f4e487b7100000000000000000000000000000000000000000000000000000000600052604160045260246000fd5b612a478261249d565b810181811067ffffffffffffffff82111715612a6657612a65612a0f565b5b80604052505050565b6000612a79612388565b9050612a858282612a3e565b919050565b600067ffffffffffffffff821115612aa557612aa4612a0f565b5b612aae8261249d565b9050602081019050919050565b82818337600083830152505050565b6000612add612ad884612a8a565b612a6f565b905082815260208101848484011115612af957612af8612a0a565b5b612b04848285612abb565b509392505050565b600082601f830112612b2157612b20612634565b5b8135612b31848260208601612aca565b91505092915050565b60008060008060808587031215612b5457612b53612392565b5b6000612b62878288016125df565b9450506020612b73878288016125df565b9350506040612b848782880161252a565b925050606085013567ffffffffffffffff811115612ba557612ba4612397565b5b612bb187828801612b0c565b91505092959194509250565b600080600060608486031215612bd657612bd5612392565b5b6000612be4868287016125df565b9350506020612bf5868287016125df565b9250506040612c06868287016129b5565b9150509250925092565b60008060408385031215612c2757612c26612392565b5b6000612c35858286016125df565b9250506020612c46858286016125df565b9150509250929050565b7f4e487b7100000000000000000000000000000000000000000000000000000000600052602260045260246000fd5b60006002820490506001821680612c9757607f821691505b602082108103612caa57612ca9612c50565b5b50919050565b7f4552433732313a20617070726f76616c20746f2063757272656e74206f776e6560008201527f7200000000000000000000000000000000000000000000000000000000000000602082015250565b6000612d0c602183612462565b9150612d1782612cb0565b604082019050919050565b60006020820190508181036000830152612d3b81612cff565b9050919050565b7f4552433732313a20617070726f76652063616c6c6572206973206e6f7420746f60008201527f6b656e206f776e6572206f7220617070726f76656420666f7220616c6c000000602082015250565b6000612d9e603d83612462565b9150612da982612d42565b604082019050919050565b60006020820190508181036000830152612dcd81612d91565b9050919050565b7f4552433732313a2063616c6c6572206973206e6f7420746f6b656e206f776e6560008201527f72206f7220617070726f76656400000000000000000000000000000000000000602082015250565b6000612e30602d83612462565b9150612e3b82612dd4565b604082019050919050565b60006020820190508181036000830152612e5f81612e23565b9050919050565b7f4552433732313a20696e76616c696420746f6b656e2049440000000000000000600082015250565b6000612e9c601883612462565b9150612ea782612e66565b602082019050919050565b60006020820190508181036000830152612ecb81612e8f565b9050919050565b7f4552433732313a2061646472657373207a65726f206973206e6f74206120766160008201527f6c6964206f776e65720000000000000000000000000000000000000000000000602082015250565b6000612f2e602983612462565b9150612f3982612ed2565b604082019050919050565b60006020820190508181036000830152612f5d81612f21565b9050919050565b600081905092915050565b6000612f7a82612457565b612f848185612f64565b9350612f94818560208601612473565b80840191505092915050565b6000612fac8285612f6f565b9150612fb88284612f6f565b91508190509392505050565b7f4e487b7100000000000000000000000000000000000000000000000000000000600052601160045260246000fd5b6000612ffe82612509565b915061300983612509565b925082820390508181111561302157613020612fc4565b5b92915050565b600061303282612509565b915061303d83612509565b925082820190508082111561305557613054612fc4565b5b92915050565b7f4552433732313a207472616e736665722066726f6d20696e636f72726563742060008201527f6f776e6572000000000000000000000000000000000000000000000000000000602082015250565b60006130b7602583612462565b91506130c28261305b565b604082019050919050565b600060208201905081810360008301526130e6816130aa565b9050919050565b7f4552433732313a207472616e7366657220746f20746865207a65726f2061646460008201527f7265737300000000000000000000000000000000000000000000000000000000602082015250565b6000613149602483612462565b9150613154826130ed565b604082019050919050565b600060208201905081810360008301526131788161313c565b9050919050565b7f4552433732313a207472616e7366657220746f206e6f6e20455243373231526560008201527f63656976657220696d706c656d656e7465720000000000000000000000000000602082015250565b60006131db603283612462565b91506131e68261317f565b604082019050919050565b6000602082019050818103600083015261320a816131ce565b9050919050565b600061321c82612509565b91507fffffffffffffffffffffffffffffffffffffffffffffffffffffffffffffffff820361324e5761324d612fc4565b5b600182019050919050565b7f4552433732313a20617070726f766520746f2063616c6c657200000000000000600082015250565b600061328f601983612462565b915061329a82613259565b602082019050919050565b600060208201905081810360008301526132be81613282565b9050919050565b7f4e487b7100000000000000000000000000000000000000000000000000000000600052601260045260246000fd5b7f4552433732313a206d696e7420746f20746865207a65726f2061646472657373600082015250565b600061332a602083612462565b9150613335826132f4565b602082019050919050565b600060208201905081810360008301526133598161331d565b9050919050565b7f4552433732313a20746f6b656e20616c7265616479206d696e74656400000000600082015250565b6000613396601c83612462565b91506133a182613360565b602082019050919050565b600060208201905081810360008301526133c581613389565b9050919050565b600080fd5b600080fd5b600080858511156133ea576133e96133cc565b5b838611156133fb576133fa6133d1565b5b6001850283019150848603905094509492505050565b6000608082019050613426600083018761259e565b613433602083018661259e565b6134406040830185612878565b818103606083015261345281846127bc565b905095945050505050565b60008151905061346c816123c8565b92915050565b60006020828403121561348857613487612392565b5b60006134968482850161345d565b9150509291505056fea26469706673582212200eefdb8602632655523f989355e45c75cbfce4b1e4746d3060f4f6286c10630064736f6c63430008110033",
  "linkReferences": {},
  "deployedLinkReferences": {}
}