{
	"contracts/ERC20MSHKTokenVendor.sol": {
		"ERC20MSHKTokenVendor": {
			"abi": [
				{
					"inputs": [
						{
							"internalType": "address",
							"name": "tokenAddress",
							"type": "address"
						}
					],
					"stateMutability": "nonpayable",
					"type": "constructor"
				},
				{
					"anonymous": false,
					"inputs": [
						{
							"indexed": false,
							"internalType": "address",
							"name": "buyer",
							"type": "address"
						},
						{
							"indexed": false,
							"internalType": "uint256",
							"name": "amountOfETH",
							"type": "uint256"
						},
						{
							"indexed": false,
							"internalType": "uint256",
							"name": "amountOfTokens",
							"type": "uint256"
						}
					],
					"name": "BuyTokens",
					"type": "event"
				},
				{
					"anonymous": false,
					"inputs": [
						{
							"indexed": false,
							"internalType": "string",
							"name": "",
							"type": "string"
						}
					],
					"name": "Log",
					"type": "event"
				},
				{
					"anonymous": false,
					"inputs": [
						{
							"indexed": false,
							"internalType": "uint256",
							"name": "",
							"type": "uint256"
						}
					],
					"name": "Log",
					"type": "event"
				},
				{
					"anonymous": false,
					"inputs": [
						{
							"indexed": true,
							"internalType": "address",
							"name": "previousOwner",
							"type": "address"
						},
						{
							"indexed": true,
							"internalType": "address",
							"name": "newOwner",
							"type": "address"
						}
					],
					"name": "OwnershipTransferred",
					"type": "event"
				},
				{
					"anonymous": false,
					"inputs": [
						{
							"indexed": false,
							"internalType": "address",
							"name": "seller",
							"type": "address"
						},
						{
							"indexed": false,
							"internalType": "uint256",
							"name": "amountOfTokens",
							"type": "uint256"
						},
						{
							"indexed": false,
							"internalType": "uint256",
							"name": "amountOfETH",
							"type": "uint256"
						}
					],
					"name": "SellTokens",
					"type": "event"
				},
				{
					"inputs": [],
					"name": "buyTokens",
					"outputs": [
						{
							"internalType": "uint256",
							"name": "tokenAmount",
							"type": "uint256"
						}
					],
					"stateMutability": "payable",
					"type": "function"
				},
				{
					"inputs": [],
					"name": "owner",
					"outputs": [
						{
							"internalType": "address",
							"name": "",
							"type": "address"
						}
					],
					"stateMutability": "view",
					"type": "function"
				},
				{
					"inputs": [],
					"name": "renounceOwnership",
					"outputs": [],
					"stateMutability": "nonpayable",
					"type": "function"
				},
				{
					"inputs": [
						{
							"internalType": "uint256",
							"name": "tokenAmountToSell",
							"type": "uint256"
						}
					],
					"name": "sellTokens",
					"outputs": [],
					"stateMutability": "nonpayable",
					"type": "function"
				},
				{
					"inputs": [],
					"name": "tokensPerEth",
					"outputs": [
						{
							"internalType": "uint256",
							"name": "",
							"type": "uint256"
						}
					],
					"stateMutability": "view",
					"type": "function"
				},
				{
					"inputs": [
						{
							"internalType": "address",
							"name": "newOwner",
							"type": "address"
						}
					],
					"name": "transferOwnership",
					"outputs": [],
					"stateMutability": "nonpayable",
					"type": "function"
				},
				{
					"inputs": [],
					"name": "withdraw",
					"outputs": [],
					"stateMutability": "nonpayable",
					"type": "function"
				}
			],
			"devdoc": {
				"kind": "dev",
				"methods": {
					"owner()": {
						"details": "Returns the address of the current owner."
					},
					"renounceOwnership()": {
						"details": "Leaves the contract without owner. It will not be possible to call `onlyOwner` functions anymore. Can only be called by the current owner. NOTE: Renouncing ownership will leave the contract without an owner, thereby removing any functionality that is only available to the owner."
					},
					"transferOwnership(address)": {
						"details": "Transfers ownership of the contract to a new account (`newOwner`). Can only be called by the current owner."
					}
				},
				"version": 1
			},
			"evm": {
				"assembly": "    /* \"contracts/ERC20MSHKTokenVendor.sol\":277:3469  contract ERC20MSHKTokenVendor is Ownable {... */\n  mstore(0x40, 0x80)\n    /* \"contracts/ERC20MSHKTokenVendor.sol\":431:434  100 */\n  0x64\n    /* \"contracts/ERC20MSHKTokenVendor.sol\":401:434  uint256 public tokensPerEth = 100 */\n  0x02\n  sstore\n    /* \"contracts/ERC20MSHKTokenVendor.sol\":667:783  constructor(address tokenAddress) {... */\n  callvalue\n  dup1\n  iszero\n  tag_1\n  jumpi\n  0x00\n  dup1\n  revert\ntag_1:\n  pop\n  mload(0x40)\n  sub(codesize, bytecodeSize)\n  dup1\n  bytecodeSize\n  dup4\n  codecopy\n  dup2\n  dup2\n  add\n  0x40\n  mstore\n  dup2\n  add\n  swap1\n  tag_2\n  swap2\n  swap1\n  tag_3\n  jump\t// in\ntag_2:\n    /* \"@openzeppelin/contracts/access/Ownable.sol\":936:968  _transferOwnership(_msgSender()) */\n  tag_7\n    /* \"@openzeppelin/contracts/access/Ownable.sol\":955:967  _msgSender() */\n  tag_8\n    /* \"@openzeppelin/contracts/access/Ownable.sol\":955:965  _msgSender */\n  shl(0x20, tag_9)\n    /* \"@openzeppelin/contracts/access/Ownable.sol\":955:967  _msgSender() */\n  0x20\n  shr\n  jump\t// in\ntag_8:\n    /* \"@openzeppelin/contracts/access/Ownable.sol\":936:954  _transferOwnership */\n  shl(0x20, tag_10)\n    /* \"@openzeppelin/contracts/access/Ownable.sol\":936:968  _transferOwnership(_msgSender()) */\n  0x20\n  shr\n  jump\t// in\ntag_7:\n    /* \"contracts/ERC20MSHKTokenVendor.sol\":765:777  tokenAddress */\n  dup1\n    /* \"contracts/ERC20MSHKTokenVendor.sol\":738:747  mshkToken */\n  0x01\n  0x00\n    /* \"contracts/ERC20MSHKTokenVendor.sol\":738:778  mshkToken = ERC20MSHKToken(tokenAddress) */\n  0x0100\n  exp\n  dup2\n  sload\n  dup2\n  0xffffffffffffffffffffffffffffffffffffffff\n  mul\n  not\n  and\n  swap1\n  dup4\n  0xffffffffffffffffffffffffffffffffffffffff\n  and\n  mul\n  or\n  swap1\n  sstore\n  pop\n    /* \"contracts/ERC20MSHKTokenVendor.sol\":667:783  constructor(address tokenAddress) {... */\n  pop\n    /* \"contracts/ERC20MSHKTokenVendor.sol\":277:3469  contract ERC20MSHKTokenVendor is Ownable {... */\n  jump(tag_12)\n    /* \"@openzeppelin/contracts/utils/Context.sol\":640:736  function _msgSender() internal view virtual returns (address) {... */\ntag_9:\n    /* \"@openzeppelin/contracts/utils/Context.sol\":693:700  address */\n  0x00\n    /* \"@openzeppelin/contracts/utils/Context.sol\":719:729  msg.sender */\n  caller\n    /* \"@openzeppelin/contracts/utils/Context.sol\":712:729  return msg.sender */\n  swap1\n  pop\n    /* \"@openzeppelin/contracts/utils/Context.sol\":640:736  function _msgSender() internal view virtual returns (address) {... */\n  swap1\n  jump\t// out\n    /* \"@openzeppelin/contracts/access/Ownable.sol\":2433:2620  function _transferOwnership(address newOwner) internal virtual {... */\ntag_10:\n    /* \"@openzeppelin/contracts/access/Ownable.sol\":2506:2522  address oldOwner */\n  0x00\n    /* \"@openzeppelin/contracts/access/Ownable.sol\":2525:2531  _owner */\n  dup1\n  0x00\n  swap1\n  sload\n  swap1\n  0x0100\n  exp\n  swap1\n  div\n  0xffffffffffffffffffffffffffffffffffffffff\n  and\n    /* \"@openzeppelin/contracts/access/Ownable.sol\":2506:2531  address oldOwner = _owner */\n  swap1\n  pop\n    /* \"@openzeppelin/contracts/access/Ownable.sol\":2550:2558  newOwner */\n  dup2\n    /* \"@openzeppelin/contracts/access/Ownable.sol\":2541:2547  _owner */\n  0x00\n  dup1\n    /* \"@openzeppelin/contracts/access/Ownable.sol\":2541:2558  _owner = newOwner */\n  0x0100\n  exp\n  dup2\n  sload\n  dup2\n  0xffffffffffffffffffffffffffffffffffffffff\n  mul\n  not\n  and\n  swap1\n  dup4\n  0xffffffffffffffffffffffffffffffffffffffff\n  and\n  mul\n  or\n  swap1\n  sstore\n  pop\n    /* \"@openzeppelin/contracts/access/Ownable.sol\":2604:2612  newOwner */\n  dup2\n    /* \"@openzeppelin/contracts/access/Ownable.sol\":2573:2613  OwnershipTransferred(oldOwner, newOwner) */\n  0xffffffffffffffffffffffffffffffffffffffff\n  and\n    /* \"@openzeppelin/contracts/access/Ownable.sol\":2594:2602  oldOwner */\n  dup2\n    /* \"@openzeppelin/contracts/access/Ownable.sol\":2573:2613  OwnershipTransferred(oldOwner, newOwner) */\n  0xffffffffffffffffffffffffffffffffffffffff\n  and\n  0x8be0079c531659141344cd1fd0a4f28419497f9722a3daafe3b4186f6b6457e0\n  mload(0x40)\n  mload(0x40)\n  dup1\n  swap2\n  sub\n  swap1\n  log3\n    /* \"@openzeppelin/contracts/access/Ownable.sol\":2496:2620  {... */\n  pop\n    /* \"@openzeppelin/contracts/access/Ownable.sol\":2433:2620  function _transferOwnership(address newOwner) internal virtual {... */\n  pop\n  jump\t// out\n    /* \"#utility.yul\":88:205   */\ntag_16:\n    /* \"#utility.yul\":197:198   */\n  0x00\n    /* \"#utility.yul\":194:195   */\n  dup1\n    /* \"#utility.yul\":187:199   */\n  revert\n    /* \"#utility.yul\":334:460   */\ntag_18:\n    /* \"#utility.yul\":371:378   */\n  0x00\n    /* \"#utility.yul\":411:453   */\n  0xffffffffffffffffffffffffffffffffffffffff\n    /* \"#utility.yul\":404:409   */\n  dup3\n    /* \"#utility.yul\":400:454   */\n  and\n    /* \"#utility.yul\":389:454   */\n  swap1\n  pop\n    /* \"#utility.yul\":334:460   */\n  swap2\n  swap1\n  pop\n  jump\t// out\n    /* \"#utility.yul\":466:562   */\ntag_19:\n    /* \"#utility.yul\":503:510   */\n  0x00\n    /* \"#utility.yul\":532:556   */\n  tag_28\n    /* \"#utility.yul\":550:555   */\n  dup3\n    /* \"#utility.yul\":532:556   */\n  tag_18\n  jump\t// in\ntag_28:\n    /* \"#utility.yul\":521:556   */\n  swap1\n  pop\n    /* \"#utility.yul\":466:562   */\n  swap2\n  swap1\n  pop\n  jump\t// out\n    /* \"#utility.yul\":568:690   */\ntag_20:\n    /* \"#utility.yul\":641:665   */\n  tag_30\n    /* \"#utility.yul\":659:664   */\n  dup2\n    /* \"#utility.yul\":641:665   */\n  tag_19\n  jump\t// in\ntag_30:\n    /* \"#utility.yul\":634:639   */\n  dup2\n    /* \"#utility.yul\":631:666   */\n  eq\n    /* \"#utility.yul\":621:684   */\n  tag_31\n  jumpi\n    /* \"#utility.yul\":680:681   */\n  0x00\n    /* \"#utility.yul\":677:678   */\n  dup1\n    /* \"#utility.yul\":670:682   */\n  revert\n    /* \"#utility.yul\":621:684   */\ntag_31:\n    /* \"#utility.yul\":568:690   */\n  pop\n  jump\t// out\n    /* \"#utility.yul\":696:839   */\ntag_21:\n    /* \"#utility.yul\":753:758   */\n  0x00\n    /* \"#utility.yul\":784:790   */\n  dup2\n    /* \"#utility.yul\":778:791   */\n  mload\n    /* \"#utility.yul\":769:791   */\n  swap1\n  pop\n    /* \"#utility.yul\":800:833   */\n  tag_33\n    /* \"#utility.yul\":827:832   */\n  dup2\n    /* \"#utility.yul\":800:833   */\n  tag_20\n  jump\t// in\ntag_33:\n    /* \"#utility.yul\":696:839   */\n  swap3\n  swap2\n  pop\n  pop\n  jump\t// out\n    /* \"#utility.yul\":845:1196   */\ntag_3:\n    /* \"#utility.yul\":915:921   */\n  0x00\n    /* \"#utility.yul\":964:966   */\n  0x20\n    /* \"#utility.yul\":952:961   */\n  dup3\n    /* \"#utility.yul\":943:950   */\n  dup5\n    /* \"#utility.yul\":939:962   */\n  sub\n    /* \"#utility.yul\":935:967   */\n  slt\n    /* \"#utility.yul\":932:1051   */\n  iszero\n  tag_35\n  jumpi\n    /* \"#utility.yul\":970:1049   */\n  tag_36\n  tag_16\n  jump\t// in\ntag_36:\n    /* \"#utility.yul\":932:1051   */\ntag_35:\n    /* \"#utility.yul\":1090:1091   */\n  0x00\n    /* \"#utility.yul\":1115:1179   */\n  tag_37\n    /* \"#utility.yul\":1171:1178   */\n  dup5\n    /* \"#utility.yul\":1162:1168   */\n  dup3\n    /* \"#utility.yul\":1151:1160   */\n  dup6\n    /* \"#utility.yul\":1147:1169   */\n  add\n    /* \"#utility.yul\":1115:1179   */\n  tag_21\n  jump\t// in\ntag_37:\n    /* \"#utility.yul\":1105:1179   */\n  swap2\n  pop\n    /* \"#utility.yul\":1061:1189   */\n  pop\n    /* \"#utility.yul\":845:1196   */\n  swap3\n  swap2\n  pop\n  pop\n  jump\t// out\n    /* \"contracts/ERC20MSHKTokenVendor.sol\":277:3469  contract ERC20MSHKTokenVendor is Ownable {... */\ntag_12:\n  dataSize(sub_0)\n  dup1\n  dataOffset(sub_0)\n  0x00\n  codecopy\n  0x00\n  return\nstop\n\nsub_0: assembly {\n        /* \"contracts/ERC20MSHKTokenVendor.sol\":277:3469  contract ERC20MSHKTokenVendor is Ownable {... */\n      mstore(0x40, 0x80)\n      jumpi(tag_1, lt(calldatasize, 0x04))\n      shr(0xe0, calldataload(0x00))\n      dup1\n      0x8da5cb5b\n      gt\n      tag_9\n      jumpi\n      dup1\n      0x8da5cb5b\n      eq\n      tag_5\n      jumpi\n      dup1\n      0xcbdd69b5\n      eq\n      tag_6\n      jumpi\n      dup1\n      0xd0febe4c\n      eq\n      tag_7\n      jumpi\n      dup1\n      0xf2fde38b\n      eq\n      tag_8\n      jumpi\n      jump(tag_1)\n    tag_9:\n      dup1\n      0x3ccfd60b\n      eq\n      tag_2\n      jumpi\n      dup1\n      0x6c11bcd3\n      eq\n      tag_3\n      jumpi\n      dup1\n      0x715018a6\n      eq\n      tag_4\n      jumpi\n    tag_1:\n      0x00\n      dup1\n      revert\n        /* \"contracts/ERC20MSHKTokenVendor.sol\":3094:3466  function withdraw() public onlyOwner {... */\n    tag_2:\n      callvalue\n      dup1\n      iszero\n      tag_10\n      jumpi\n      0x00\n      dup1\n      revert\n    tag_10:\n      pop\n      tag_11\n      tag_12\n      jump\t// in\n    tag_11:\n      stop\n        /* \"contracts/ERC20MSHKTokenVendor.sol\":1876:3026  function sellTokens(uint256 tokenAmountToSell) public {... */\n    tag_3:\n      callvalue\n      dup1\n      iszero\n      tag_13\n      jumpi\n      0x00\n      dup1\n      revert\n    tag_13:\n      pop\n      tag_14\n      0x04\n      dup1\n      calldatasize\n      sub\n      dup2\n      add\n      swap1\n      tag_15\n      swap2\n      swap1\n      tag_16\n      jump\t// in\n    tag_15:\n      tag_17\n      jump\t// in\n    tag_14:\n      stop\n        /* \"@openzeppelin/contracts/access/Ownable.sol\":1831:1932  function renounceOwnership() public virtual onlyOwner {... */\n    tag_4:\n      callvalue\n      dup1\n      iszero\n      tag_18\n      jumpi\n      0x00\n      dup1\n      revert\n    tag_18:\n      pop\n      tag_19\n      tag_20\n      jump\t// in\n    tag_19:\n      stop\n        /* \"@openzeppelin/contracts/access/Ownable.sol\":1201:1286  function owner() public view virtual returns (address) {... */\n    tag_5:\n      callvalue\n      dup1\n      iszero\n      tag_21\n      jumpi\n      0x00\n      dup1\n      revert\n    tag_21:\n      pop\n      tag_22\n      tag_23\n      jump\t// in\n    tag_22:\n      mload(0x40)\n      tag_24\n      swap2\n      swap1\n      tag_25\n      jump\t// in\n    tag_24:\n      mload(0x40)\n      dup1\n      swap2\n      sub\n      swap1\n      return\n        /* \"contracts/ERC20MSHKTokenVendor.sol\":401:434  uint256 public tokensPerEth = 100 */\n    tag_6:\n      callvalue\n      dup1\n      iszero\n      tag_26\n      jumpi\n      0x00\n      dup1\n      revert\n    tag_26:\n      pop\n      tag_27\n      tag_28\n      jump\t// in\n    tag_27:\n      mload(0x40)\n      tag_29\n      swap2\n      swap1\n      tag_30\n      jump\t// in\n    tag_29:\n      mload(0x40)\n      dup1\n      swap2\n      sub\n      swap1\n      return\n        /* \"contracts/ERC20MSHKTokenVendor.sol\":836:1821  function buyTokens() public payable returns (uint256 tokenAmount) {... */\n    tag_7:\n      tag_31\n      tag_32\n      jump\t// in\n    tag_31:\n      mload(0x40)\n      tag_33\n      swap2\n      swap1\n      tag_30\n      jump\t// in\n    tag_33:\n      mload(0x40)\n      dup1\n      swap2\n      sub\n      swap1\n      return\n        /* \"@openzeppelin/contracts/access/Ownable.sol\":2081:2279  function transferOwnership(address newOwner) public virtual onlyOwner {... */\n    tag_8:\n      callvalue\n      dup1\n      iszero\n      tag_34\n      jumpi\n      0x00\n      dup1\n      revert\n    tag_34:\n      pop\n      tag_35\n      0x04\n      dup1\n      calldatasize\n      sub\n      dup2\n      add\n      swap1\n      tag_36\n      swap2\n      swap1\n      tag_37\n      jump\t// in\n    tag_36:\n      tag_38\n      jump\t// in\n    tag_35:\n      stop\n        /* \"contracts/ERC20MSHKTokenVendor.sol\":3094:3466  function withdraw() public onlyOwner {... */\n    tag_12:\n        /* \"@openzeppelin/contracts/access/Ownable.sol\":1094:1107  _checkOwner() */\n      tag_40\n        /* \"@openzeppelin/contracts/access/Ownable.sol\":1094:1105  _checkOwner */\n      tag_41\n        /* \"@openzeppelin/contracts/access/Ownable.sol\":1094:1107  _checkOwner() */\n      jump\t// in\n    tag_40:\n        /* \"contracts/ERC20MSHKTokenVendor.sol\":3137:3157  uint256 ownerBalance */\n      0x00\n        /* \"contracts/ERC20MSHKTokenVendor.sol\":3160:3181  address(this).balance */\n      selfbalance\n        /* \"contracts/ERC20MSHKTokenVendor.sol\":3137:3181  uint256 ownerBalance = address(this).balance */\n      swap1\n      pop\n        /* \"contracts/ERC20MSHKTokenVendor.sol\":3210:3211  0 */\n      0x00\n        /* \"contracts/ERC20MSHKTokenVendor.sol\":3195:3207  ownerBalance */\n      dup2\n        /* \"contracts/ERC20MSHKTokenVendor.sol\":3195:3211  ownerBalance > 0 */\n      gt\n        /* \"contracts/ERC20MSHKTokenVendor.sol\":3187:3249  require(ownerBalance > 0, \"Owner has not balance to withdraw\") */\n      tag_43\n      jumpi\n      mload(0x40)\n      0x08c379a000000000000000000000000000000000000000000000000000000000\n      dup2\n      mstore\n      0x04\n      add\n      tag_44\n      swap1\n      tag_45\n      jump\t// in\n    tag_44:\n      mload(0x40)\n      dup1\n      swap2\n      sub\n      swap1\n      revert\n    tag_43:\n        /* \"contracts/ERC20MSHKTokenVendor.sol\":3330:3339  bool sent */\n      0x00\n        /* \"contracts/ERC20MSHKTokenVendor.sol\":3344:3354  msg.sender */\n      caller\n        /* \"contracts/ERC20MSHKTokenVendor.sol\":3344:3359  msg.sender.call */\n      0xffffffffffffffffffffffffffffffffffffffff\n      and\n        /* \"contracts/ERC20MSHKTokenVendor.sol\":3367:3388  address(this).balance */\n      selfbalance\n        /* \"contracts/ERC20MSHKTokenVendor.sol\":3344:3393  msg.sender.call{value: address(this).balance}(\"\") */\n      mload(0x40)\n      tag_46\n      swap1\n      tag_47\n      jump\t// in\n    tag_46:\n      0x00\n      mload(0x40)\n      dup1\n      dup4\n      sub\n      dup2\n      dup6\n      dup8\n      gas\n      call\n      swap3\n      pop\n      pop\n      pop\n      returndatasize\n      dup1\n      0x00\n      dup2\n      eq\n      tag_50\n      jumpi\n      mload(0x40)\n      swap2\n      pop\n      and(add(returndatasize, 0x3f), not(0x1f))\n      dup3\n      add\n      0x40\n      mstore\n      returndatasize\n      dup3\n      mstore\n      returndatasize\n      0x00\n      0x20\n      dup5\n      add\n      returndatacopy\n      jump(tag_49)\n    tag_50:\n      0x60\n      swap2\n      pop\n    tag_49:\n      pop\n        /* \"contracts/ERC20MSHKTokenVendor.sol\":3329:3393  (bool sent,) = msg.sender.call{value: address(this).balance}(\"\") */\n      pop\n      swap1\n      pop\n        /* \"contracts/ERC20MSHKTokenVendor.sol\":3407:3411  sent */\n      dup1\n        /* \"contracts/ERC20MSHKTokenVendor.sol\":3399:3461  require(sent, \"Failed to send user balance back to the owner\") */\n      tag_51\n      jumpi\n      mload(0x40)\n      0x08c379a000000000000000000000000000000000000000000000000000000000\n      dup2\n      mstore\n      0x04\n      add\n      tag_52\n      swap1\n      tag_53\n      jump\t// in\n    tag_52:\n      mload(0x40)\n      dup1\n      swap2\n      sub\n      swap1\n      revert\n    tag_51:\n        /* \"contracts/ERC20MSHKTokenVendor.sol\":3131:3466  {... */\n      pop\n      pop\n        /* \"contracts/ERC20MSHKTokenVendor.sol\":3094:3466  function withdraw() public onlyOwner {... */\n      jump\t// out\n        /* \"contracts/ERC20MSHKTokenVendor.sol\":1876:3026  function sellTokens(uint256 tokenAmountToSell) public {... */\n    tag_17:\n        /* \"contracts/ERC20MSHKTokenVendor.sol\":1997:1998  0 */\n      0x00\n        /* \"contracts/ERC20MSHKTokenVendor.sol\":1977:1994  tokenAmountToSell */\n      dup2\n        /* \"contracts/ERC20MSHKTokenVendor.sol\":1977:1998  tokenAmountToSell > 0 */\n      gt\n        /* \"contracts/ERC20MSHKTokenVendor.sol\":1969:2047  require(tokenAmountToSell > 0, \"Specify an amount of token greater than zero\") */\n      tag_55\n      jumpi\n      mload(0x40)\n      0x08c379a000000000000000000000000000000000000000000000000000000000\n      dup2\n      mstore\n      0x04\n      add\n      tag_56\n      swap1\n      tag_57\n      jump\t// in\n    tag_56:\n      mload(0x40)\n      dup1\n      swap2\n      sub\n      swap1\n      revert\n    tag_55:\n        /* \"contracts/ERC20MSHKTokenVendor.sol\":2104:2123  uint256 userBalance */\n      0x00\n        /* \"contracts/ERC20MSHKTokenVendor.sol\":2126:2135  mshkToken */\n      0x01\n      0x00\n      swap1\n      sload\n      swap1\n      0x0100\n      exp\n      swap1\n      div\n      0xffffffffffffffffffffffffffffffffffffffff\n      and\n        /* \"contracts/ERC20MSHKTokenVendor.sol\":2126:2145  mshkToken.balanceOf */\n      0xffffffffffffffffffffffffffffffffffffffff\n      and\n      0x70a08231\n        /* \"contracts/ERC20MSHKTokenVendor.sol\":2146:2156  msg.sender */\n      caller\n        /* \"contracts/ERC20MSHKTokenVendor.sol\":2126:2157  mshkToken.balanceOf(msg.sender) */\n      mload(0x40)\n      dup3\n      0xffffffff\n      and\n      0xe0\n      shl\n      dup2\n      mstore\n      0x04\n      add\n      tag_58\n      swap2\n      swap1\n      tag_25\n      jump\t// in\n    tag_58:\n      0x20\n      mload(0x40)\n      dup1\n      dup4\n      sub\n      dup2\n      dup7\n      gas\n      staticcall\n      iszero\n      dup1\n      iszero\n      tag_60\n      jumpi\n      returndatasize\n      0x00\n      dup1\n      returndatacopy\n      revert(0x00, returndatasize)\n    tag_60:\n      pop\n      pop\n      pop\n      pop\n      mload(0x40)\n      returndatasize\n      not(0x1f)\n      0x1f\n      dup3\n      add\n      and\n      dup3\n      add\n      dup1\n      0x40\n      mstore\n      pop\n      dup2\n      add\n      swap1\n      tag_61\n      swap2\n      swap1\n      tag_62\n      jump\t// in\n    tag_61:\n        /* \"contracts/ERC20MSHKTokenVendor.sol\":2104:2157  uint256 userBalance = mshkToken.balanceOf(msg.sender) */\n      swap1\n      pop\n        /* \"contracts/ERC20MSHKTokenVendor.sol\":2186:2203  tokenAmountToSell */\n      dup2\n        /* \"contracts/ERC20MSHKTokenVendor.sol\":2171:2182  userBalance */\n      dup2\n        /* \"contracts/ERC20MSHKTokenVendor.sol\":2171:2203  userBalance >= tokenAmountToSell */\n      lt\n      iszero\n        /* \"contracts/ERC20MSHKTokenVendor.sol\":2163:2272  require(userBalance >= tokenAmountToSell, \"Your balance is lower than the amount of tokens you want to sell\") */\n      tag_63\n      jumpi\n      mload(0x40)\n      0x08c379a000000000000000000000000000000000000000000000000000000000\n      dup2\n      mstore\n      0x04\n      add\n      tag_64\n      swap1\n      tag_65\n      jump\t// in\n    tag_64:\n      mload(0x40)\n      dup1\n      swap2\n      sub\n      swap1\n      revert\n    tag_63:\n        /* \"contracts/ERC20MSHKTokenVendor.sol\":2329:2358  uint256 amountOfETHToTransfer */\n      0x00\n        /* \"contracts/ERC20MSHKTokenVendor.sol\":2381:2393  tokensPerEth */\n      sload(0x02)\n        /* \"contracts/ERC20MSHKTokenVendor.sol\":2361:2378  tokenAmountToSell */\n      dup4\n        /* \"contracts/ERC20MSHKTokenVendor.sol\":2361:2393  tokenAmountToSell / tokensPerEth */\n      tag_66\n      swap2\n      swap1\n      tag_67\n      jump\t// in\n    tag_66:\n        /* \"contracts/ERC20MSHKTokenVendor.sol\":2329:2393  uint256 amountOfETHToTransfer = tokenAmountToSell / tokensPerEth */\n      swap1\n      pop\n        /* \"contracts/ERC20MSHKTokenVendor.sol\":2399:2422  uint256 ownerETHBalance */\n      0x00\n        /* \"contracts/ERC20MSHKTokenVendor.sol\":2425:2446  address(this).balance */\n      selfbalance\n        /* \"contracts/ERC20MSHKTokenVendor.sol\":2399:2446  uint256 ownerETHBalance = address(this).balance */\n      swap1\n      pop\n        /* \"contracts/ERC20MSHKTokenVendor.sol\":2479:2500  amountOfETHToTransfer */\n      dup2\n        /* \"contracts/ERC20MSHKTokenVendor.sol\":2460:2475  ownerETHBalance */\n      dup2\n        /* \"contracts/ERC20MSHKTokenVendor.sol\":2460:2500  ownerETHBalance >= amountOfETHToTransfer */\n      lt\n      iszero\n        /* \"contracts/ERC20MSHKTokenVendor.sol\":2452:2559  require(ownerETHBalance >= amountOfETHToTransfer, \"Vendor has not enough funds to accept the sell request\") */\n      tag_68\n      jumpi\n      mload(0x40)\n      0x08c379a000000000000000000000000000000000000000000000000000000000\n      dup2\n      mstore\n      0x04\n      add\n      tag_69\n      swap1\n      tag_70\n      jump\t// in\n    tag_69:\n      mload(0x40)\n      dup1\n      swap2\n      sub\n      swap1\n      revert\n    tag_68:\n        /* \"contracts/ERC20MSHKTokenVendor.sol\":2611:2620  bool sent */\n      0x00\n        /* \"contracts/ERC20MSHKTokenVendor.sol\":2624:2633  mshkToken */\n      0x01\n      0x00\n      swap1\n      sload\n      swap1\n      0x0100\n      exp\n      swap1\n      div\n      0xffffffffffffffffffffffffffffffffffffffff\n      and\n        /* \"contracts/ERC20MSHKTokenVendor.sol\":2624:2646  mshkToken.transferFrom */\n      0xffffffffffffffffffffffffffffffffffffffff\n      and\n      0x23b872dd\n        /* \"contracts/ERC20MSHKTokenVendor.sol\":2647:2657  msg.sender */\n      caller\n        /* \"contracts/ERC20MSHKTokenVendor.sol\":2667:2671  this */\n      address\n        /* \"contracts/ERC20MSHKTokenVendor.sol\":2674:2691  tokenAmountToSell */\n      dup9\n        /* \"contracts/ERC20MSHKTokenVendor.sol\":2624:2692  mshkToken.transferFrom(msg.sender, address(this), tokenAmountToSell) */\n      mload(0x40)\n      dup5\n      0xffffffff\n      and\n      0xe0\n      shl\n      dup2\n      mstore\n      0x04\n      add\n      tag_71\n      swap4\n      swap3\n      swap2\n      swap1\n      tag_72\n      jump\t// in\n    tag_71:\n      0x20\n      mload(0x40)\n      dup1\n      dup4\n      sub\n      dup2\n      0x00\n      dup8\n      gas\n      call\n      iszero\n      dup1\n      iszero\n      tag_74\n      jumpi\n      returndatasize\n      0x00\n      dup1\n      returndatacopy\n      revert(0x00, returndatasize)\n    tag_74:\n      pop\n      pop\n      pop\n      pop\n      mload(0x40)\n      returndatasize\n      not(0x1f)\n      0x1f\n      dup3\n      add\n      and\n      dup3\n      add\n      dup1\n      0x40\n      mstore\n      pop\n      dup2\n      add\n      swap1\n      tag_75\n      swap2\n      swap1\n      tag_76\n      jump\t// in\n    tag_75:\n        /* \"contracts/ERC20MSHKTokenVendor.sol\":2610:2692  (bool sent) = mshkToken.transferFrom(msg.sender, address(this), tokenAmountToSell) */\n      swap1\n      pop\n        /* \"contracts/ERC20MSHKTokenVendor.sol\":2706:2710  sent */\n      dup1\n        /* \"contracts/ERC20MSHKTokenVendor.sol\":2698:2760  require(sent, \"Failed to transfer tokens from user to vendor\") */\n      tag_77\n      jumpi\n      mload(0x40)\n      0x08c379a000000000000000000000000000000000000000000000000000000000\n      dup2\n      mstore\n      0x04\n      add\n      tag_78\n      swap1\n      tag_79\n      jump\t// in\n    tag_78:\n      mload(0x40)\n      dup1\n      swap2\n      sub\n      swap1\n      revert\n    tag_77:\n        /* \"contracts/ERC20MSHKTokenVendor.sol\":2822:2832  msg.sender */\n      caller\n        /* \"contracts/ERC20MSHKTokenVendor.sol\":2822:2837  msg.sender.call */\n      0xffffffffffffffffffffffffffffffffffffffff\n      and\n        /* \"contracts/ERC20MSHKTokenVendor.sol\":2845:2866  amountOfETHToTransfer */\n      dup4\n        /* \"contracts/ERC20MSHKTokenVendor.sol\":2822:2871  msg.sender.call{value: amountOfETHToTransfer}(\"\") */\n      mload(0x40)\n      tag_80\n      swap1\n      tag_47\n      jump\t// in\n    tag_80:\n      0x00\n      mload(0x40)\n      dup1\n      dup4\n      sub\n      dup2\n      dup6\n      dup8\n      gas\n      call\n      swap3\n      pop\n      pop\n      pop\n      returndatasize\n      dup1\n      0x00\n      dup2\n      eq\n      tag_83\n      jumpi\n      mload(0x40)\n      swap2\n      pop\n      and(add(returndatasize, 0x3f), not(0x1f))\n      dup3\n      add\n      0x40\n      mstore\n      returndatasize\n      dup3\n      mstore\n      returndatasize\n      0x00\n      0x20\n      dup5\n      add\n      returndatacopy\n      jump(tag_82)\n    tag_83:\n      0x60\n      swap2\n      pop\n    tag_82:\n      pop\n        /* \"contracts/ERC20MSHKTokenVendor.sol\":2812:2871  (sent,) = msg.sender.call{value: amountOfETHToTransfer}(\"\") */\n      pop\n      dup1\n      swap2\n      pop\n      pop\n        /* \"contracts/ERC20MSHKTokenVendor.sol\":2885:2889  sent */\n      dup1\n        /* \"contracts/ERC20MSHKTokenVendor.sol\":2877:2924  require(sent, \"Failed to send ETH to the user\") */\n      tag_84\n      jumpi\n      mload(0x40)\n      0x08c379a000000000000000000000000000000000000000000000000000000000\n      dup2\n      mstore\n      0x04\n      add\n      tag_85\n      swap1\n      tag_86\n      jump\t// in\n    tag_85:\n      mload(0x40)\n      dup1\n      swap2\n      sub\n      swap1\n      revert\n    tag_84:\n        /* \"contracts/ERC20MSHKTokenVendor.sol\":2956:3020  SellTokens(msg.sender, tokenAmountToSell, amountOfETHToTransfer) */\n      0xa24838acd4af5195a2396965dae5abf54e84e8c19f5698bb966ae64e29994ee5\n        /* \"contracts/ERC20MSHKTokenVendor.sol\":2967:2977  msg.sender */\n      caller\n        /* \"contracts/ERC20MSHKTokenVendor.sol\":2979:2996  tokenAmountToSell */\n      dup7\n        /* \"contracts/ERC20MSHKTokenVendor.sol\":2998:3019  amountOfETHToTransfer */\n      dup6\n        /* \"contracts/ERC20MSHKTokenVendor.sol\":2956:3020  SellTokens(msg.sender, tokenAmountToSell, amountOfETHToTransfer) */\n      mload(0x40)\n      tag_87\n      swap4\n      swap3\n      swap2\n      swap1\n      tag_88\n      jump\t// in\n    tag_87:\n      mload(0x40)\n      dup1\n      swap2\n      sub\n      swap1\n      log1\n        /* \"contracts/ERC20MSHKTokenVendor.sol\":1930:3026  {... */\n      pop\n      pop\n      pop\n      pop\n        /* \"contracts/ERC20MSHKTokenVendor.sol\":1876:3026  function sellTokens(uint256 tokenAmountToSell) public {... */\n      pop\n      jump\t// out\n        /* \"@openzeppelin/contracts/access/Ownable.sol\":1831:1932  function renounceOwnership() public virtual onlyOwner {... */\n    tag_20:\n        /* \"@openzeppelin/contracts/access/Ownable.sol\":1094:1107  _checkOwner() */\n      tag_90\n        /* \"@openzeppelin/contracts/access/Ownable.sol\":1094:1105  _checkOwner */\n      tag_41\n        /* \"@openzeppelin/contracts/access/Ownable.sol\":1094:1107  _checkOwner() */\n      jump\t// in\n    tag_90:\n        /* \"@openzeppelin/contracts/access/Ownable.sol\":1895:1925  _transferOwnership(address(0)) */\n      tag_92\n        /* \"@openzeppelin/contracts/access/Ownable.sol\":1922:1923  0 */\n      0x00\n        /* \"@openzeppelin/contracts/access/Ownable.sol\":1895:1913  _transferOwnership */\n      tag_93\n        /* \"@openzeppelin/contracts/access/Ownable.sol\":1895:1925  _transferOwnership(address(0)) */\n      jump\t// in\n    tag_92:\n        /* \"@openzeppelin/contracts/access/Ownable.sol\":1831:1932  function renounceOwnership() public virtual onlyOwner {... */\n      jump\t// out\n        /* \"@openzeppelin/contracts/access/Ownable.sol\":1201:1286  function owner() public view virtual returns (address) {... */\n    tag_23:\n        /* \"@openzeppelin/contracts/access/Ownable.sol\":1247:1254  address */\n      0x00\n        /* \"@openzeppelin/contracts/access/Ownable.sol\":1273:1279  _owner */\n      dup1\n      0x00\n      swap1\n      sload\n      swap1\n      0x0100\n      exp\n      swap1\n      div\n      0xffffffffffffffffffffffffffffffffffffffff\n      and\n        /* \"@openzeppelin/contracts/access/Ownable.sol\":1266:1279  return _owner */\n      swap1\n      pop\n        /* \"@openzeppelin/contracts/access/Ownable.sol\":1201:1286  function owner() public view virtual returns (address) {... */\n      swap1\n      jump\t// out\n        /* \"contracts/ERC20MSHKTokenVendor.sol\":401:434  uint256 public tokensPerEth = 100 */\n    tag_28:\n      sload(0x02)\n      dup2\n      jump\t// out\n        /* \"contracts/ERC20MSHKTokenVendor.sol\":836:1821  function buyTokens() public payable returns (uint256 tokenAmount) {... */\n    tag_32:\n        /* \"contracts/ERC20MSHKTokenVendor.sol\":881:900  uint256 tokenAmount */\n      0x00\n        /* \"contracts/ERC20MSHKTokenVendor.sol\":964:965  0 */\n      dup1\n        /* \"contracts/ERC20MSHKTokenVendor.sol\":952:961  msg.value */\n      callvalue\n        /* \"contracts/ERC20MSHKTokenVendor.sol\":952:965  msg.value > 0 */\n      gt\n        /* \"contracts/ERC20MSHKTokenVendor.sol\":944:997  require(msg.value > 0, \"Send ETH to buy some tokens\") */\n      tag_96\n      jumpi\n      mload(0x40)\n      0x08c379a000000000000000000000000000000000000000000000000000000000\n      dup2\n      mstore\n      0x04\n      add\n      tag_97\n      swap1\n      tag_98\n      jump\t// in\n    tag_97:\n      mload(0x40)\n      dup1\n      swap2\n      sub\n      swap1\n      revert\n    tag_96:\n        /* \"contracts/ERC20MSHKTokenVendor.sol\":1041:1060  uint256 amountToBuy */\n      0x00\n        /* \"contracts/ERC20MSHKTokenVendor.sol\":1075:1087  tokensPerEth */\n      sload(0x02)\n        /* \"contracts/ERC20MSHKTokenVendor.sol\":1063:1072  msg.value */\n      callvalue\n        /* \"contracts/ERC20MSHKTokenVendor.sol\":1063:1087  msg.value * tokensPerEth */\n      tag_99\n      swap2\n      swap1\n      tag_100\n      jump\t// in\n    tag_99:\n        /* \"contracts/ERC20MSHKTokenVendor.sol\":1041:1087  uint256 amountToBuy = msg.value * tokensPerEth */\n      swap1\n      pop\n        /* \"contracts/ERC20MSHKTokenVendor.sol\":1341:1362  uint256 vendorBalance */\n      0x00\n        /* \"contracts/ERC20MSHKTokenVendor.sol\":1365:1374  mshkToken */\n      0x01\n      0x00\n      swap1\n      sload\n      swap1\n      0x0100\n      exp\n      swap1\n      div\n      0xffffffffffffffffffffffffffffffffffffffff\n      and\n        /* \"contracts/ERC20MSHKTokenVendor.sol\":1365:1384  mshkToken.balanceOf */\n      0xffffffffffffffffffffffffffffffffffffffff\n      and\n      0x70a08231\n        /* \"contracts/ERC20MSHKTokenVendor.sol\":1393:1397  this */\n      address\n        /* \"contracts/ERC20MSHKTokenVendor.sol\":1365:1399  mshkToken.balanceOf(address(this)) */\n      mload(0x40)\n      dup3\n      0xffffffff\n      and\n      0xe0\n      shl\n      dup2\n      mstore\n      0x04\n      add\n      tag_101\n      swap2\n      swap1\n      tag_25\n      jump\t// in\n    tag_101:\n      0x20\n      mload(0x40)\n      dup1\n      dup4\n      sub\n      dup2\n      dup7\n      gas\n      staticcall\n      iszero\n      dup1\n      iszero\n      tag_103\n      jumpi\n      returndatasize\n      0x00\n      dup1\n      returndatacopy\n      revert(0x00, returndatasize)\n    tag_103:\n      pop\n      pop\n      pop\n      pop\n      mload(0x40)\n      returndatasize\n      not(0x1f)\n      0x1f\n      dup3\n      add\n      and\n      dup3\n      add\n      dup1\n      0x40\n      mstore\n      pop\n      dup2\n      add\n      swap1\n      tag_104\n      swap2\n      swap1\n      tag_62\n      jump\t// in\n    tag_104:\n        /* \"contracts/ERC20MSHKTokenVendor.sol\":1341:1399  uint256 vendorBalance = mshkToken.balanceOf(address(this)) */\n      swap1\n      pop\n        /* \"contracts/ERC20MSHKTokenVendor.sol\":1430:1431  0 */\n      0x00\n        /* \"contracts/ERC20MSHKTokenVendor.sol\":1414:1427  vendorBalance */\n      dup2\n        /* \"contracts/ERC20MSHKTokenVendor.sol\":1414:1431  vendorBalance > 0 */\n      gt\n        /* \"contracts/ERC20MSHKTokenVendor.sol\":1406:1454  require(vendorBalance > 0, \"vendorBalance is 0\") */\n      tag_105\n      jumpi\n      mload(0x40)\n      0x08c379a000000000000000000000000000000000000000000000000000000000\n      dup2\n      mstore\n      0x04\n      add\n      tag_106\n      swap1\n      tag_107\n      jump\t// in\n    tag_106:\n      mload(0x40)\n      dup1\n      swap2\n      sub\n      swap1\n      revert\n    tag_105:\n        /* \"contracts/ERC20MSHKTokenVendor.sol\":1485:1496  amountToBuy */\n      dup2\n        /* \"contracts/ERC20MSHKTokenVendor.sol\":1468:1481  vendorBalance */\n      dup2\n        /* \"contracts/ERC20MSHKTokenVendor.sol\":1468:1496  vendorBalance >= amountToBuy */\n      lt\n      iszero\n        /* \"contracts/ERC20MSHKTokenVendor.sol\":1460:1553  require(vendorBalance >= amountToBuy, \"Vendor contract has not enough tokens in its balance\") */\n      tag_108\n      jumpi\n      mload(0x40)\n      0x08c379a000000000000000000000000000000000000000000000000000000000\n      dup2\n      mstore\n      0x04\n      add\n      tag_109\n      swap1\n      tag_110\n      jump\t// in\n    tag_109:\n      mload(0x40)\n      dup1\n      swap2\n      sub\n      swap1\n      revert\n    tag_108:\n        /* \"contracts/ERC20MSHKTokenVendor.sol\":1603:1612  bool sent */\n      0x00\n        /* \"contracts/ERC20MSHKTokenVendor.sol\":1616:1625  mshkToken */\n      0x01\n      0x00\n      swap1\n      sload\n      swap1\n      0x0100\n      exp\n      swap1\n      div\n      0xffffffffffffffffffffffffffffffffffffffff\n      and\n        /* \"contracts/ERC20MSHKTokenVendor.sol\":1616:1634  mshkToken.transfer */\n      0xffffffffffffffffffffffffffffffffffffffff\n      and\n      0xa9059cbb\n        /* \"contracts/ERC20MSHKTokenVendor.sol\":1635:1645  msg.sender */\n      caller\n        /* \"contracts/ERC20MSHKTokenVendor.sol\":1647:1658  amountToBuy */\n      dup6\n        /* \"contracts/ERC20MSHKTokenVendor.sol\":1616:1659  mshkToken.transfer(msg.sender, amountToBuy) */\n      mload(0x40)\n      dup4\n      0xffffffff\n      and\n      0xe0\n      shl\n      dup2\n      mstore\n      0x04\n      add\n      tag_111\n      swap3\n      swap2\n      swap1\n      tag_112\n      jump\t// in\n    tag_111:\n      0x20\n      mload(0x40)\n      dup1\n      dup4\n      sub\n      dup2\n      0x00\n      dup8\n      gas\n      call\n      iszero\n      dup1\n      iszero\n      tag_114\n      jumpi\n      returndatasize\n      0x00\n      dup1\n      returndatacopy\n      revert(0x00, returndatasize)\n    tag_114:\n      pop\n      pop\n      pop\n      pop\n      mload(0x40)\n      returndatasize\n      not(0x1f)\n      0x1f\n      dup3\n      add\n      and\n      dup3\n      add\n      dup1\n      0x40\n      mstore\n      pop\n      dup2\n      add\n      swap1\n      tag_115\n      swap2\n      swap1\n      tag_76\n      jump\t// in\n    tag_115:\n        /* \"contracts/ERC20MSHKTokenVendor.sol\":1602:1659  (bool sent) = mshkToken.transfer(msg.sender, amountToBuy) */\n      swap1\n      pop\n        /* \"contracts/ERC20MSHKTokenVendor.sol\":1673:1677  sent */\n      dup1\n        /* \"contracts/ERC20MSHKTokenVendor.sol\":1665:1714  require(sent, \"Failed to transfer token to user\") */\n      tag_116\n      jumpi\n      mload(0x40)\n      0x08c379a000000000000000000000000000000000000000000000000000000000\n      dup2\n      mstore\n      0x04\n      add\n      tag_117\n      swap1\n      tag_118\n      jump\t// in\n    tag_117:\n      mload(0x40)\n      dup1\n      swap2\n      sub\n      swap1\n      revert\n    tag_116:\n        /* \"contracts/ERC20MSHKTokenVendor.sol\":1746:1791  BuyTokens(msg.sender, msg.value, amountToBuy) */\n      0x0a37b72bb67eee30e09084cf386f8a17817c57f620c3ab95fb25d6a20356ec77\n        /* \"contracts/ERC20MSHKTokenVendor.sol\":1756:1766  msg.sender */\n      caller\n        /* \"contracts/ERC20MSHKTokenVendor.sol\":1768:1777  msg.value */\n      callvalue\n        /* \"contracts/ERC20MSHKTokenVendor.sol\":1779:1790  amountToBuy */\n      dup6\n        /* \"contracts/ERC20MSHKTokenVendor.sol\":1746:1791  BuyTokens(msg.sender, msg.value, amountToBuy) */\n      mload(0x40)\n      tag_119\n      swap4\n      swap3\n      swap2\n      swap1\n      tag_88\n      jump\t// in\n    tag_119:\n      mload(0x40)\n      dup1\n      swap2\n      sub\n      swap1\n      log1\n        /* \"contracts/ERC20MSHKTokenVendor.sol\":1805:1816  amountToBuy */\n      dup3\n        /* \"contracts/ERC20MSHKTokenVendor.sol\":1798:1816  return amountToBuy */\n      swap4\n      pop\n      pop\n      pop\n      pop\n        /* \"contracts/ERC20MSHKTokenVendor.sol\":836:1821  function buyTokens() public payable returns (uint256 tokenAmount) {... */\n      swap1\n      jump\t// out\n        /* \"@openzeppelin/contracts/access/Ownable.sol\":2081:2279  function transferOwnership(address newOwner) public virtual onlyOwner {... */\n    tag_38:\n        /* \"@openzeppelin/contracts/access/Ownable.sol\":1094:1107  _checkOwner() */\n      tag_121\n        /* \"@openzeppelin/contracts/access/Ownable.sol\":1094:1105  _checkOwner */\n      tag_41\n        /* \"@openzeppelin/contracts/access/Ownable.sol\":1094:1107  _checkOwner() */\n      jump\t// in\n    tag_121:\n        /* \"@openzeppelin/contracts/access/Ownable.sol\":2189:2190  0 */\n      0x00\n        /* \"@openzeppelin/contracts/access/Ownable.sol\":2169:2191  newOwner != address(0) */\n      0xffffffffffffffffffffffffffffffffffffffff\n      and\n        /* \"@openzeppelin/contracts/access/Ownable.sol\":2169:2177  newOwner */\n      dup2\n        /* \"@openzeppelin/contracts/access/Ownable.sol\":2169:2191  newOwner != address(0) */\n      0xffffffffffffffffffffffffffffffffffffffff\n      and\n      sub\n        /* \"@openzeppelin/contracts/access/Ownable.sol\":2161:2234  require(newOwner != address(0), \"Ownable: new owner is the zero address\") */\n      tag_123\n      jumpi\n      mload(0x40)\n      0x08c379a000000000000000000000000000000000000000000000000000000000\n      dup2\n      mstore\n      0x04\n      add\n      tag_124\n      swap1\n      tag_125\n      jump\t// in\n    tag_124:\n      mload(0x40)\n      dup1\n      swap2\n      sub\n      swap1\n      revert\n    tag_123:\n        /* \"@openzeppelin/contracts/access/Ownable.sol\":2244:2272  _transferOwnership(newOwner) */\n      tag_126\n        /* \"@openzeppelin/contracts/access/Ownable.sol\":2263:2271  newOwner */\n      dup2\n        /* \"@openzeppelin/contracts/access/Ownable.sol\":2244:2262  _transferOwnership */\n      tag_93\n        /* \"@openzeppelin/contracts/access/Ownable.sol\":2244:2272  _transferOwnership(newOwner) */\n      jump\t// in\n    tag_126:\n        /* \"@openzeppelin/contracts/access/Ownable.sol\":2081:2279  function transferOwnership(address newOwner) public virtual onlyOwner {... */\n      pop\n      jump\t// out\n        /* \"@openzeppelin/contracts/access/Ownable.sol\":1359:1489  function _checkOwner() internal view virtual {... */\n    tag_41:\n        /* \"@openzeppelin/contracts/access/Ownable.sol\":1433:1445  _msgSender() */\n      tag_128\n        /* \"@openzeppelin/contracts/access/Ownable.sol\":1433:1443  _msgSender */\n      tag_129\n        /* \"@openzeppelin/contracts/access/Ownable.sol\":1433:1445  _msgSender() */\n      jump\t// in\n    tag_128:\n        /* \"@openzeppelin/contracts/access/Ownable.sol\":1422:1445  owner() == _msgSender() */\n      0xffffffffffffffffffffffffffffffffffffffff\n      and\n        /* \"@openzeppelin/contracts/access/Ownable.sol\":1422:1429  owner() */\n      tag_130\n        /* \"@openzeppelin/contracts/access/Ownable.sol\":1422:1427  owner */\n      tag_23\n        /* \"@openzeppelin/contracts/access/Ownable.sol\":1422:1429  owner() */\n      jump\t// in\n    tag_130:\n        /* \"@openzeppelin/contracts/access/Ownable.sol\":1422:1445  owner() == _msgSender() */\n      0xffffffffffffffffffffffffffffffffffffffff\n      and\n      eq\n        /* \"@openzeppelin/contracts/access/Ownable.sol\":1414:1482  require(owner() == _msgSender(), \"Ownable: caller is not the owner\") */\n      tag_131\n      jumpi\n      mload(0x40)\n      0x08c379a000000000000000000000000000000000000000000000000000000000\n      dup2\n      mstore\n      0x04\n      add\n      tag_132\n      swap1\n      tag_133\n      jump\t// in\n    tag_132:\n      mload(0x40)\n      dup1\n      swap2\n      sub\n      swap1\n      revert\n    tag_131:\n        /* \"@openzeppelin/contracts/access/Ownable.sol\":1359:1489  function _checkOwner() internal view virtual {... */\n      jump\t// out\n        /* \"@openzeppelin/contracts/access/Ownable.sol\":2433:2620  function _transferOwnership(address newOwner) internal virtual {... */\n    tag_93:\n        /* \"@openzeppelin/contracts/access/Ownable.sol\":2506:2522  address oldOwner */\n      0x00\n        /* \"@openzeppelin/contracts/access/Ownable.sol\":2525:2531  _owner */\n      dup1\n      0x00\n      swap1\n      sload\n      swap1\n      0x0100\n      exp\n      swap1\n      div\n      0xffffffffffffffffffffffffffffffffffffffff\n      and\n        /* \"@openzeppelin/contracts/access/Ownable.sol\":2506:2531  address oldOwner = _owner */\n      swap1\n      pop\n        /* \"@openzeppelin/contracts/access/Ownable.sol\":2550:2558  newOwner */\n      dup2\n        /* \"@openzeppelin/contracts/access/Ownable.sol\":2541:2547  _owner */\n      0x00\n      dup1\n        /* \"@openzeppelin/contracts/access/Ownable.sol\":2541:2558  _owner = newOwner */\n      0x0100\n      exp\n      dup2\n      sload\n      dup2\n      0xffffffffffffffffffffffffffffffffffffffff\n      mul\n      not\n      and\n      swap1\n      dup4\n      0xffffffffffffffffffffffffffffffffffffffff\n      and\n      mul\n      or\n      swap1\n      sstore\n      pop\n        /* \"@openzeppelin/contracts/access/Ownable.sol\":2604:2612  newOwner */\n      dup2\n        /* \"@openzeppelin/contracts/access/Ownable.sol\":2573:2613  OwnershipTransferred(oldOwner, newOwner) */\n      0xffffffffffffffffffffffffffffffffffffffff\n      and\n        /* \"@openzeppelin/contracts/access/Ownable.sol\":2594:2602  oldOwner */\n      dup2\n        /* \"@openzeppelin/contracts/access/Ownable.sol\":2573:2613  OwnershipTransferred(oldOwner, newOwner) */\n      0xffffffffffffffffffffffffffffffffffffffff\n      and\n      0x8be0079c531659141344cd1fd0a4f28419497f9722a3daafe3b4186f6b6457e0\n      mload(0x40)\n      mload(0x40)\n      dup1\n      swap2\n      sub\n      swap1\n      log3\n        /* \"@openzeppelin/contracts/access/Ownable.sol\":2496:2620  {... */\n      pop\n        /* \"@openzeppelin/contracts/access/Ownable.sol\":2433:2620  function _transferOwnership(address newOwner) internal virtual {... */\n      pop\n      jump\t// out\n        /* \"@openzeppelin/contracts/utils/Context.sol\":640:736  function _msgSender() internal view virtual returns (address) {... */\n    tag_129:\n        /* \"@openzeppelin/contracts/utils/Context.sol\":693:700  address */\n      0x00\n        /* \"@openzeppelin/contracts/utils/Context.sol\":719:729  msg.sender */\n      caller\n        /* \"@openzeppelin/contracts/utils/Context.sol\":712:729  return msg.sender */\n      swap1\n      pop\n        /* \"@openzeppelin/contracts/utils/Context.sol\":640:736  function _msgSender() internal view virtual returns (address) {... */\n      swap1\n      jump\t// out\n        /* \"#utility.yul\":88:205   */\n    tag_137:\n        /* \"#utility.yul\":197:198   */\n      0x00\n        /* \"#utility.yul\":194:195   */\n      dup1\n        /* \"#utility.yul\":187:199   */\n      revert\n        /* \"#utility.yul\":334:411   */\n    tag_139:\n        /* \"#utility.yul\":371:378   */\n      0x00\n        /* \"#utility.yul\":400:405   */\n      dup2\n        /* \"#utility.yul\":389:405   */\n      swap1\n      pop\n        /* \"#utility.yul\":334:411   */\n      swap2\n      swap1\n      pop\n      jump\t// out\n        /* \"#utility.yul\":417:539   */\n    tag_140:\n        /* \"#utility.yul\":490:514   */\n      tag_190\n        /* \"#utility.yul\":508:513   */\n      dup2\n        /* \"#utility.yul\":490:514   */\n      tag_139\n      jump\t// in\n    tag_190:\n        /* \"#utility.yul\":483:488   */\n      dup2\n        /* \"#utility.yul\":480:515   */\n      eq\n        /* \"#utility.yul\":470:533   */\n      tag_191\n      jumpi\n        /* \"#utility.yul\":529:530   */\n      0x00\n        /* \"#utility.yul\":526:527   */\n      dup1\n        /* \"#utility.yul\":519:531   */\n      revert\n        /* \"#utility.yul\":470:533   */\n    tag_191:\n        /* \"#utility.yul\":417:539   */\n      pop\n      jump\t// out\n        /* \"#utility.yul\":545:684   */\n    tag_141:\n        /* \"#utility.yul\":591:596   */\n      0x00\n        /* \"#utility.yul\":629:635   */\n      dup2\n        /* \"#utility.yul\":616:636   */\n      calldataload\n        /* \"#utility.yul\":607:636   */\n      swap1\n      pop\n        /* \"#utility.yul\":645:678   */\n      tag_193\n        /* \"#utility.yul\":672:677   */\n      dup2\n        /* \"#utility.yul\":645:678   */\n      tag_140\n      jump\t// in\n    tag_193:\n        /* \"#utility.yul\":545:684   */\n      swap3\n      swap2\n      pop\n      pop\n      jump\t// out\n        /* \"#utility.yul\":690:1019   */\n    tag_16:\n        /* \"#utility.yul\":749:755   */\n      0x00\n        /* \"#utility.yul\":798:800   */\n      0x20\n        /* \"#utility.yul\":786:795   */\n      dup3\n        /* \"#utility.yul\":777:784   */\n      dup5\n        /* \"#utility.yul\":773:796   */\n      sub\n        /* \"#utility.yul\":769:801   */\n      slt\n        /* \"#utility.yul\":766:885   */\n      iszero\n      tag_195\n      jumpi\n        /* \"#utility.yul\":804:883   */\n      tag_196\n      tag_137\n      jump\t// in\n    tag_196:\n        /* \"#utility.yul\":766:885   */\n    tag_195:\n        /* \"#utility.yul\":924:925   */\n      0x00\n        /* \"#utility.yul\":949:1002   */\n      tag_197\n        /* \"#utility.yul\":994:1001   */\n      dup5\n        /* \"#utility.yul\":985:991   */\n      dup3\n        /* \"#utility.yul\":974:983   */\n      dup6\n        /* \"#utility.yul\":970:992   */\n      add\n        /* \"#utility.yul\":949:1002   */\n      tag_141\n      jump\t// in\n    tag_197:\n        /* \"#utility.yul\":939:1002   */\n      swap2\n      pop\n        /* \"#utility.yul\":895:1012   */\n      pop\n        /* \"#utility.yul\":690:1019   */\n      swap3\n      swap2\n      pop\n      pop\n      jump\t// out\n        /* \"#utility.yul\":1025:1151   */\n    tag_142:\n        /* \"#utility.yul\":1062:1069   */\n      0x00\n        /* \"#utility.yul\":1102:1144   */\n      0xffffffffffffffffffffffffffffffffffffffff\n        /* \"#utility.yul\":1095:1100   */\n      dup3\n        /* \"#utility.yul\":1091:1145   */\n      and\n        /* \"#utility.yul\":1080:1145   */\n      swap1\n      pop\n        /* \"#utility.yul\":1025:1151   */\n      swap2\n      swap1\n      pop\n      jump\t// out\n        /* \"#utility.yul\":1157:1253   */\n    tag_143:\n        /* \"#utility.yul\":1194:1201   */\n      0x00\n        /* \"#utility.yul\":1223:1247   */\n      tag_200\n        /* \"#utility.yul\":1241:1246   */\n      dup3\n        /* \"#utility.yul\":1223:1247   */\n      tag_142\n      jump\t// in\n    tag_200:\n        /* \"#utility.yul\":1212:1247   */\n      swap1\n      pop\n        /* \"#utility.yul\":1157:1253   */\n      swap2\n      swap1\n      pop\n      jump\t// out\n        /* \"#utility.yul\":1259:1377   */\n    tag_144:\n        /* \"#utility.yul\":1346:1370   */\n      tag_202\n        /* \"#utility.yul\":1364:1369   */\n      dup2\n        /* \"#utility.yul\":1346:1370   */\n      tag_143\n      jump\t// in\n    tag_202:\n        /* \"#utility.yul\":1341:1344   */\n      dup3\n        /* \"#utility.yul\":1334:1371   */\n      mstore\n        /* \"#utility.yul\":1259:1377   */\n      pop\n      pop\n      jump\t// out\n        /* \"#utility.yul\":1383:1605   */\n    tag_25:\n        /* \"#utility.yul\":1476:1480   */\n      0x00\n        /* \"#utility.yul\":1514:1516   */\n      0x20\n        /* \"#utility.yul\":1503:1512   */\n      dup3\n        /* \"#utility.yul\":1499:1517   */\n      add\n        /* \"#utility.yul\":1491:1517   */\n      swap1\n      pop\n        /* \"#utility.yul\":1527:1598   */\n      tag_204\n        /* \"#utility.yul\":1595:1596   */\n      0x00\n        /* \"#utility.yul\":1584:1593   */\n      dup4\n        /* \"#utility.yul\":1580:1597   */\n      add\n        /* \"#utility.yul\":1571:1577   */\n      dup5\n        /* \"#utility.yul\":1527:1598   */\n      tag_144\n      jump\t// in\n    tag_204:\n        /* \"#utility.yul\":1383:1605   */\n      swap3\n      swap2\n      pop\n      pop\n      jump\t// out\n        /* \"#utility.yul\":1611:1729   */\n    tag_145:\n        /* \"#utility.yul\":1698:1722   */\n      tag_206\n        /* \"#utility.yul\":1716:1721   */\n      dup2\n        /* \"#utility.yul\":1698:1722   */\n      tag_139\n      jump\t// in\n    tag_206:\n        /* \"#utility.yul\":1693:1696   */\n      dup3\n        /* \"#utility.yul\":1686:1723   */\n      mstore\n        /* \"#utility.yul\":1611:1729   */\n      pop\n      pop\n      jump\t// out\n        /* \"#utility.yul\":1735:1957   */\n    tag_30:\n        /* \"#utility.yul\":1828:1832   */\n      0x00\n        /* \"#utility.yul\":1866:1868   */\n      0x20\n        /* \"#utility.yul\":1855:1864   */\n      dup3\n        /* \"#utility.yul\":1851:1869   */\n      add\n        /* \"#utility.yul\":1843:1869   */\n      swap1\n      pop\n        /* \"#utility.yul\":1879:1950   */\n      tag_208\n        /* \"#utility.yul\":1947:1948   */\n      0x00\n        /* \"#utility.yul\":1936:1945   */\n      dup4\n        /* \"#utility.yul\":1932:1949   */\n      add\n        /* \"#utility.yul\":1923:1929   */\n      dup5\n        /* \"#utility.yul\":1879:1950   */\n      tag_145\n      jump\t// in\n    tag_208:\n        /* \"#utility.yul\":1735:1957   */\n      swap3\n      swap2\n      pop\n      pop\n      jump\t// out\n        /* \"#utility.yul\":1963:2085   */\n    tag_146:\n        /* \"#utility.yul\":2036:2060   */\n      tag_210\n        /* \"#utility.yul\":2054:2059   */\n      dup2\n        /* \"#utility.yul\":2036:2060   */\n      tag_143\n      jump\t// in\n    tag_210:\n        /* \"#utility.yul\":2029:2034   */\n      dup2\n        /* \"#utility.yul\":2026:2061   */\n      eq\n        /* \"#utility.yul\":2016:2079   */\n      tag_211\n      jumpi\n        /* \"#utility.yul\":2075:2076   */\n      0x00\n        /* \"#utility.yul\":2072:2073   */\n      dup1\n        /* \"#utility.yul\":2065:2077   */\n      revert\n        /* \"#utility.yul\":2016:2079   */\n    tag_211:\n        /* \"#utility.yul\":1963:2085   */\n      pop\n      jump\t// out\n        /* \"#utility.yul\":2091:2230   */\n    tag_147:\n        /* \"#utility.yul\":2137:2142   */\n      0x00\n        /* \"#utility.yul\":2175:2181   */\n      dup2\n        /* \"#utility.yul\":2162:2182   */\n      calldataload\n        /* \"#utility.yul\":2153:2182   */\n      swap1\n      pop\n        /* \"#utility.yul\":2191:2224   */\n      tag_213\n        /* \"#utility.yul\":2218:2223   */\n      dup2\n        /* \"#utility.yul\":2191:2224   */\n      tag_146\n      jump\t// in\n    tag_213:\n        /* \"#utility.yul\":2091:2230   */\n      swap3\n      swap2\n      pop\n      pop\n      jump\t// out\n        /* \"#utility.yul\":2236:2565   */\n    tag_37:\n        /* \"#utility.yul\":2295:2301   */\n      0x00\n        /* \"#utility.yul\":2344:2346   */\n      0x20\n        /* \"#utility.yul\":2332:2341   */\n      dup3\n        /* \"#utility.yul\":2323:2330   */\n      dup5\n        /* \"#utility.yul\":2319:2342   */\n      sub\n        /* \"#utility.yul\":2315:2347   */\n      slt\n        /* \"#utility.yul\":2312:2431   */\n      iszero\n      tag_215\n      jumpi\n        /* \"#utility.yul\":2350:2429   */\n      tag_216\n      tag_137\n      jump\t// in\n    tag_216:\n        /* \"#utility.yul\":2312:2431   */\n    tag_215:\n        /* \"#utility.yul\":2470:2471   */\n      0x00\n        /* \"#utility.yul\":2495:2548   */\n      tag_217\n        /* \"#utility.yul\":2540:2547   */\n      dup5\n        /* \"#utility.yul\":2531:2537   */\n      dup3\n        /* \"#utility.yul\":2520:2529   */\n      dup6\n        /* \"#utility.yul\":2516:2538   */\n      add\n        /* \"#utility.yul\":2495:2548   */\n      tag_147\n      jump\t// in\n    tag_217:\n        /* \"#utility.yul\":2485:2548   */\n      swap2\n      pop\n        /* \"#utility.yul\":2441:2558   */\n      pop\n        /* \"#utility.yul\":2236:2565   */\n      swap3\n      swap2\n      pop\n      pop\n      jump\t// out\n        /* \"#utility.yul\":2571:2740   */\n    tag_148:\n        /* \"#utility.yul\":2655:2666   */\n      0x00\n        /* \"#utility.yul\":2689:2695   */\n      dup3\n        /* \"#utility.yul\":2684:2687   */\n      dup3\n        /* \"#utility.yul\":2677:2696   */\n      mstore\n        /* \"#utility.yul\":2729:2733   */\n      0x20\n        /* \"#utility.yul\":2724:2727   */\n      dup3\n        /* \"#utility.yul\":2720:2734   */\n      add\n        /* \"#utility.yul\":2705:2734   */\n      swap1\n      pop\n        /* \"#utility.yul\":2571:2740   */\n      swap3\n      swap2\n      pop\n      pop\n      jump\t// out\n        /* \"#utility.yul\":2746:2966   */\n    tag_149:\n        /* \"#utility.yul\":2886:2920   */\n      0x4f776e657220686173206e6f742062616c616e636520746f2077697468647261\n        /* \"#utility.yul\":2882:2883   */\n      0x00\n        /* \"#utility.yul\":2874:2880   */\n      dup3\n        /* \"#utility.yul\":2870:2884   */\n      add\n        /* \"#utility.yul\":2863:2921   */\n      mstore\n        /* \"#utility.yul\":2955:2958   */\n      0x7700000000000000000000000000000000000000000000000000000000000000\n        /* \"#utility.yul\":2950:2952   */\n      0x20\n        /* \"#utility.yul\":2942:2948   */\n      dup3\n        /* \"#utility.yul\":2938:2953   */\n      add\n        /* \"#utility.yul\":2931:2959   */\n      mstore\n        /* \"#utility.yul\":2746:2966   */\n      pop\n      jump\t// out\n        /* \"#utility.yul\":2972:3338   */\n    tag_150:\n        /* \"#utility.yul\":3114:3117   */\n      0x00\n        /* \"#utility.yul\":3135:3202   */\n      tag_221\n        /* \"#utility.yul\":3199:3201   */\n      0x21\n        /* \"#utility.yul\":3194:3197   */\n      dup4\n        /* \"#utility.yul\":3135:3202   */\n      tag_148\n      jump\t// in\n    tag_221:\n        /* \"#utility.yul\":3128:3202   */\n      swap2\n      pop\n        /* \"#utility.yul\":3211:3304   */\n      tag_222\n        /* \"#utility.yul\":3300:3303   */\n      dup3\n        /* \"#utility.yul\":3211:3304   */\n      tag_149\n      jump\t// in\n    tag_222:\n        /* \"#utility.yul\":3329:3331   */\n      0x40\n        /* \"#utility.yul\":3324:3327   */\n      dup3\n        /* \"#utility.yul\":3320:3332   */\n      add\n        /* \"#utility.yul\":3313:3332   */\n      swap1\n      pop\n        /* \"#utility.yul\":2972:3338   */\n      swap2\n      swap1\n      pop\n      jump\t// out\n        /* \"#utility.yul\":3344:3763   */\n    tag_45:\n        /* \"#utility.yul\":3510:3514   */\n      0x00\n        /* \"#utility.yul\":3548:3550   */\n      0x20\n        /* \"#utility.yul\":3537:3546   */\n      dup3\n        /* \"#utility.yul\":3533:3551   */\n      add\n        /* \"#utility.yul\":3525:3551   */\n      swap1\n      pop\n        /* \"#utility.yul\":3597:3606   */\n      dup2\n        /* \"#utility.yul\":3591:3595   */\n      dup2\n        /* \"#utility.yul\":3587:3607   */\n      sub\n        /* \"#utility.yul\":3583:3584   */\n      0x00\n        /* \"#utility.yul\":3572:3581   */\n      dup4\n        /* \"#utility.yul\":3568:3585   */\n      add\n        /* \"#utility.yul\":3561:3608   */\n      mstore\n        /* \"#utility.yul\":3625:3756   */\n      tag_224\n        /* \"#utility.yul\":3751:3755   */\n      dup2\n        /* \"#utility.yul\":3625:3756   */\n      tag_150\n      jump\t// in\n    tag_224:\n        /* \"#utility.yul\":3617:3756   */\n      swap1\n      pop\n        /* \"#utility.yul\":3344:3763   */\n      swap2\n      swap1\n      pop\n      jump\t// out\n        /* \"#utility.yul\":3769:3916   */\n    tag_151:\n        /* \"#utility.yul\":3870:3881   */\n      0x00\n        /* \"#utility.yul\":3907:3910   */\n      dup2\n        /* \"#utility.yul\":3892:3910   */\n      swap1\n      pop\n        /* \"#utility.yul\":3769:3916   */\n      swap3\n      swap2\n      pop\n      pop\n      jump\t// out\n        /* \"#utility.yul\":3922:4036   */\n    tag_152:\n      pop\n      jump\t// out\n        /* \"#utility.yul\":4042:4440   */\n    tag_153:\n        /* \"#utility.yul\":4201:4204   */\n      0x00\n        /* \"#utility.yul\":4222:4305   */\n      tag_228\n        /* \"#utility.yul\":4303:4304   */\n      0x00\n        /* \"#utility.yul\":4298:4301   */\n      dup4\n        /* \"#utility.yul\":4222:4305   */\n      tag_151\n      jump\t// in\n    tag_228:\n        /* \"#utility.yul\":4215:4305   */\n      swap2\n      pop\n        /* \"#utility.yul\":4314:4407   */\n      tag_229\n        /* \"#utility.yul\":4403:4406   */\n      dup3\n        /* \"#utility.yul\":4314:4407   */\n      tag_152\n      jump\t// in\n    tag_229:\n        /* \"#utility.yul\":4432:4433   */\n      0x00\n        /* \"#utility.yul\":4427:4430   */\n      dup3\n        /* \"#utility.yul\":4423:4434   */\n      add\n        /* \"#utility.yul\":4416:4434   */\n      swap1\n      pop\n        /* \"#utility.yul\":4042:4440   */\n      swap2\n      swap1\n      pop\n      jump\t// out\n        /* \"#utility.yul\":4446:4825   */\n    tag_47:\n        /* \"#utility.yul\":4630:4633   */\n      0x00\n        /* \"#utility.yul\":4652:4799   */\n      tag_231\n        /* \"#utility.yul\":4795:4798   */\n      dup3\n        /* \"#utility.yul\":4652:4799   */\n      tag_153\n      jump\t// in\n    tag_231:\n        /* \"#utility.yul\":4645:4799   */\n      swap2\n      pop\n        /* \"#utility.yul\":4816:4819   */\n      dup2\n        /* \"#utility.yul\":4809:4819   */\n      swap1\n      pop\n        /* \"#utility.yul\":4446:4825   */\n      swap2\n      swap1\n      pop\n      jump\t// out\n        /* \"#utility.yul\":4831:5063   */\n    tag_154:\n        /* \"#utility.yul\":4971:5005   */\n      0x4661696c656420746f2073656e6420757365722062616c616e6365206261636b\n        /* \"#utility.yul\":4967:4968   */\n      0x00\n        /* \"#utility.yul\":4959:4965   */\n      dup3\n        /* \"#utility.yul\":4955:4969   */\n      add\n        /* \"#utility.yul\":4948:5006   */\n      mstore\n        /* \"#utility.yul\":5040:5055   */\n      0x20746f20746865206f776e657200000000000000000000000000000000000000\n        /* \"#utility.yul\":5035:5037   */\n      0x20\n        /* \"#utility.yul\":5027:5033   */\n      dup3\n        /* \"#utility.yul\":5023:5038   */\n      add\n        /* \"#utility.yul\":5016:5056   */\n      mstore\n        /* \"#utility.yul\":4831:5063   */\n      pop\n      jump\t// out\n        /* \"#utility.yul\":5069:5435   */\n    tag_155:\n        /* \"#utility.yul\":5211:5214   */\n      0x00\n        /* \"#utility.yul\":5232:5299   */\n      tag_234\n        /* \"#utility.yul\":5296:5298   */\n      0x2d\n        /* \"#utility.yul\":5291:5294   */\n      dup4\n        /* \"#utility.yul\":5232:5299   */\n      tag_148\n      jump\t// in\n    tag_234:\n        /* \"#utility.yul\":5225:5299   */\n      swap2\n      pop\n        /* \"#utility.yul\":5308:5401   */\n      tag_235\n        /* \"#utility.yul\":5397:5400   */\n      dup3\n        /* \"#utility.yul\":5308:5401   */\n      tag_154\n      jump\t// in\n    tag_235:\n        /* \"#utility.yul\":5426:5428   */\n      0x40\n        /* \"#utility.yul\":5421:5424   */\n      dup3\n        /* \"#utility.yul\":5417:5429   */\n      add\n        /* \"#utility.yul\":5410:5429   */\n      swap1\n      pop\n        /* \"#utility.yul\":5069:5435   */\n      swap2\n      swap1\n      pop\n      jump\t// out\n        /* \"#utility.yul\":5441:5860   */\n    tag_53:\n        /* \"#utility.yul\":5607:5611   */\n      0x00\n        /* \"#utility.yul\":5645:5647   */\n      0x20\n        /* \"#utility.yul\":5634:5643   */\n      dup3\n        /* \"#utility.yul\":5630:5648   */\n      add\n        /* \"#utility.yul\":5622:5648   */\n      swap1\n      pop\n        /* \"#utility.yul\":5694:5703   */\n      dup2\n        /* \"#utility.yul\":5688:5692   */\n      dup2\n        /* \"#utility.yul\":5684:5704   */\n      sub\n        /* \"#utility.yul\":5680:5681   */\n      0x00\n        /* \"#utility.yul\":5669:5678   */\n      dup4\n        /* \"#utility.yul\":5665:5682   */\n      add\n        /* \"#utility.yul\":5658:5705   */\n      mstore\n        /* \"#utility.yul\":5722:5853   */\n      tag_237\n        /* \"#utility.yul\":5848:5852   */\n      dup2\n        /* \"#utility.yul\":5722:5853   */\n      tag_155\n      jump\t// in\n    tag_237:\n        /* \"#utility.yul\":5714:5853   */\n      swap1\n      pop\n        /* \"#utility.yul\":5441:5860   */\n      swap2\n      swap1\n      pop\n      jump\t// out\n        /* \"#utility.yul\":5866:6097   */\n    tag_156:\n        /* \"#utility.yul\":6006:6040   */\n      0x5370656369667920616e20616d6f756e74206f6620746f6b656e206772656174\n        /* \"#utility.yul\":6002:6003   */\n      0x00\n        /* \"#utility.yul\":5994:6000   */\n      dup3\n        /* \"#utility.yul\":5990:6004   */\n      add\n        /* \"#utility.yul\":5983:6041   */\n      mstore\n        /* \"#utility.yul\":6075:6089   */\n      0x6572207468616e207a65726f0000000000000000000000000000000000000000\n        /* \"#utility.yul\":6070:6072   */\n      0x20\n        /* \"#utility.yul\":6062:6068   */\n      dup3\n        /* \"#utility.yul\":6058:6073   */\n      add\n        /* \"#utility.yul\":6051:6090   */\n      mstore\n        /* \"#utility.yul\":5866:6097   */\n      pop\n      jump\t// out\n        /* \"#utility.yul\":6103:6469   */\n    tag_157:\n        /* \"#utility.yul\":6245:6248   */\n      0x00\n        /* \"#utility.yul\":6266:6333   */\n      tag_240\n        /* \"#utility.yul\":6330:6332   */\n      0x2c\n        /* \"#utility.yul\":6325:6328   */\n      dup4\n        /* \"#utility.yul\":6266:6333   */\n      tag_148\n      jump\t// in\n    tag_240:\n        /* \"#utility.yul\":6259:6333   */\n      swap2\n      pop\n        /* \"#utility.yul\":6342:6435   */\n      tag_241\n        /* \"#utility.yul\":6431:6434   */\n      dup3\n        /* \"#utility.yul\":6342:6435   */\n      tag_156\n      jump\t// in\n    tag_241:\n        /* \"#utility.yul\":6460:6462   */\n      0x40\n        /* \"#utility.yul\":6455:6458   */\n      dup3\n        /* \"#utility.yul\":6451:6463   */\n      add\n        /* \"#utility.yul\":6444:6463   */\n      swap1\n      pop\n        /* \"#utility.yul\":6103:6469   */\n      swap2\n      swap1\n      pop\n      jump\t// out\n        /* \"#utility.yul\":6475:6894   */\n    tag_57:\n        /* \"#utility.yul\":6641:6645   */\n      0x00\n        /* \"#utility.yul\":6679:6681   */\n      0x20\n        /* \"#utility.yul\":6668:6677   */\n      dup3\n        /* \"#utility.yul\":6664:6682   */\n      add\n        /* \"#utility.yul\":6656:6682   */\n      swap1\n      pop\n        /* \"#utility.yul\":6728:6737   */\n      dup2\n        /* \"#utility.yul\":6722:6726   */\n      dup2\n        /* \"#utility.yul\":6718:6738   */\n      sub\n        /* \"#utility.yul\":6714:6715   */\n      0x00\n        /* \"#utility.yul\":6703:6712   */\n      dup4\n        /* \"#utility.yul\":6699:6716   */\n      add\n        /* \"#utility.yul\":6692:6739   */\n      mstore\n        /* \"#utility.yul\":6756:6887   */\n      tag_243\n        /* \"#utility.yul\":6882:6886   */\n      dup2\n        /* \"#utility.yul\":6756:6887   */\n      tag_157\n      jump\t// in\n    tag_243:\n        /* \"#utility.yul\":6748:6887   */\n      swap1\n      pop\n        /* \"#utility.yul\":6475:6894   */\n      swap2\n      swap1\n      pop\n      jump\t// out\n        /* \"#utility.yul\":6900:7043   */\n    tag_158:\n        /* \"#utility.yul\":6957:6962   */\n      0x00\n        /* \"#utility.yul\":6988:6994   */\n      dup2\n        /* \"#utility.yul\":6982:6995   */\n      mload\n        /* \"#utility.yul\":6973:6995   */\n      swap1\n      pop\n        /* \"#utility.yul\":7004:7037   */\n      tag_245\n        /* \"#utility.yul\":7031:7036   */\n      dup2\n        /* \"#utility.yul\":7004:7037   */\n      tag_140\n      jump\t// in\n    tag_245:\n        /* \"#utility.yul\":6900:7043   */\n      swap3\n      swap2\n      pop\n      pop\n      jump\t// out\n        /* \"#utility.yul\":7049:7400   */\n    tag_62:\n        /* \"#utility.yul\":7119:7125   */\n      0x00\n        /* \"#utility.yul\":7168:7170   */\n      0x20\n        /* \"#utility.yul\":7156:7165   */\n      dup3\n        /* \"#utility.yul\":7147:7154   */\n      dup5\n        /* \"#utility.yul\":7143:7166   */\n      sub\n        /* \"#utility.yul\":7139:7171   */\n      slt\n        /* \"#utility.yul\":7136:7255   */\n      iszero\n      tag_247\n      jumpi\n        /* \"#utility.yul\":7174:7253   */\n      tag_248\n      tag_137\n      jump\t// in\n    tag_248:\n        /* \"#utility.yul\":7136:7255   */\n    tag_247:\n        /* \"#utility.yul\":7294:7295   */\n      0x00\n        /* \"#utility.yul\":7319:7383   */\n      tag_249\n        /* \"#utility.yul\":7375:7382   */\n      dup5\n        /* \"#utility.yul\":7366:7372   */\n      dup3\n        /* \"#utility.yul\":7355:7364   */\n      dup6\n        /* \"#utility.yul\":7351:7373   */\n      add\n        /* \"#utility.yul\":7319:7383   */\n      tag_158\n      jump\t// in\n    tag_249:\n        /* \"#utility.yul\":7309:7383   */\n      swap2\n      pop\n        /* \"#utility.yul\":7265:7393   */\n      pop\n        /* \"#utility.yul\":7049:7400   */\n      swap3\n      swap2\n      pop\n      pop\n      jump\t// out\n        /* \"#utility.yul\":7406:7657   */\n    tag_159:\n        /* \"#utility.yul\":7546:7580   */\n      0x596f75722062616c616e6365206973206c6f776572207468616e207468652061\n        /* \"#utility.yul\":7542:7543   */\n      0x00\n        /* \"#utility.yul\":7534:7540   */\n      dup3\n        /* \"#utility.yul\":7530:7544   */\n      add\n        /* \"#utility.yul\":7523:7581   */\n      mstore\n        /* \"#utility.yul\":7615:7649   */\n      0x6d6f756e74206f6620746f6b656e7320796f752077616e7420746f2073656c6c\n        /* \"#utility.yul\":7610:7612   */\n      0x20\n        /* \"#utility.yul\":7602:7608   */\n      dup3\n        /* \"#utility.yul\":7598:7613   */\n      add\n        /* \"#utility.yul\":7591:7650   */\n      mstore\n        /* \"#utility.yul\":7406:7657   */\n      pop\n      jump\t// out\n        /* \"#utility.yul\":7663:8029   */\n    tag_160:\n        /* \"#utility.yul\":7805:7808   */\n      0x00\n        /* \"#utility.yul\":7826:7893   */\n      tag_252\n        /* \"#utility.yul\":7890:7892   */\n      0x40\n        /* \"#utility.yul\":7885:7888   */\n      dup4\n        /* \"#utility.yul\":7826:7893   */\n      tag_148\n      jump\t// in\n    tag_252:\n        /* \"#utility.yul\":7819:7893   */\n      swap2\n      pop\n        /* \"#utility.yul\":7902:7995   */\n      tag_253\n        /* \"#utility.yul\":7991:7994   */\n      dup3\n        /* \"#utility.yul\":7902:7995   */\n      tag_159\n      jump\t// in\n    tag_253:\n        /* \"#utility.yul\":8020:8022   */\n      0x40\n        /* \"#utility.yul\":8015:8018   */\n      dup3\n        /* \"#utility.yul\":8011:8023   */\n      add\n        /* \"#utility.yul\":8004:8023   */\n      swap1\n      pop\n        /* \"#utility.yul\":7663:8029   */\n      swap2\n      swap1\n      pop\n      jump\t// out\n        /* \"#utility.yul\":8035:8454   */\n    tag_65:\n        /* \"#utility.yul\":8201:8205   */\n      0x00\n        /* \"#utility.yul\":8239:8241   */\n      0x20\n        /* \"#utility.yul\":8228:8237   */\n      dup3\n        /* \"#utility.yul\":8224:8242   */\n      add\n        /* \"#utility.yul\":8216:8242   */\n      swap1\n      pop\n        /* \"#utility.yul\":8288:8297   */\n      dup2\n        /* \"#utility.yul\":8282:8286   */\n      dup2\n        /* \"#utility.yul\":8278:8298   */\n      sub\n        /* \"#utility.yul\":8274:8275   */\n      0x00\n        /* \"#utility.yul\":8263:8272   */\n      dup4\n        /* \"#utility.yul\":8259:8276   */\n      add\n        /* \"#utility.yul\":8252:8299   */\n      mstore\n        /* \"#utility.yul\":8316:8447   */\n      tag_255\n        /* \"#utility.yul\":8442:8446   */\n      dup2\n        /* \"#utility.yul\":8316:8447   */\n      tag_160\n      jump\t// in\n    tag_255:\n        /* \"#utility.yul\":8308:8447   */\n      swap1\n      pop\n        /* \"#utility.yul\":8035:8454   */\n      swap2\n      swap1\n      pop\n      jump\t// out\n        /* \"#utility.yul\":8460:8640   */\n    tag_161:\n        /* \"#utility.yul\":8508:8585   */\n      0x4e487b7100000000000000000000000000000000000000000000000000000000\n        /* \"#utility.yul\":8505:8506   */\n      0x00\n        /* \"#utility.yul\":8498:8586   */\n      mstore\n        /* \"#utility.yul\":8605:8609   */\n      0x12\n        /* \"#utility.yul\":8602:8603   */\n      0x04\n        /* \"#utility.yul\":8595:8610   */\n      mstore\n        /* \"#utility.yul\":8629:8633   */\n      0x24\n        /* \"#utility.yul\":8626:8627   */\n      0x00\n        /* \"#utility.yul\":8619:8634   */\n      revert\n        /* \"#utility.yul\":8646:8826   */\n    tag_162:\n        /* \"#utility.yul\":8694:8771   */\n      0x4e487b7100000000000000000000000000000000000000000000000000000000\n        /* \"#utility.yul\":8691:8692   */\n      0x00\n        /* \"#utility.yul\":8684:8772   */\n      mstore\n        /* \"#utility.yul\":8791:8795   */\n      0x11\n        /* \"#utility.yul\":8788:8789   */\n      0x04\n        /* \"#utility.yul\":8781:8796   */\n      mstore\n        /* \"#utility.yul\":8815:8819   */\n      0x24\n        /* \"#utility.yul\":8812:8813   */\n      0x00\n        /* \"#utility.yul\":8805:8820   */\n      revert\n        /* \"#utility.yul\":8832:9017   */\n    tag_67:\n        /* \"#utility.yul\":8872:8873   */\n      0x00\n        /* \"#utility.yul\":8889:8909   */\n      tag_259\n        /* \"#utility.yul\":8907:8908   */\n      dup3\n        /* \"#utility.yul\":8889:8909   */\n      tag_139\n      jump\t// in\n    tag_259:\n        /* \"#utility.yul\":8884:8909   */\n      swap2\n      pop\n        /* \"#utility.yul\":8923:8943   */\n      tag_260\n        /* \"#utility.yul\":8941:8942   */\n      dup4\n        /* \"#utility.yul\":8923:8943   */\n      tag_139\n      jump\t// in\n    tag_260:\n        /* \"#utility.yul\":8918:8943   */\n      swap3\n      pop\n        /* \"#utility.yul\":8962:8963   */\n      dup3\n        /* \"#utility.yul\":8952:8987   */\n      tag_261\n      jumpi\n        /* \"#utility.yul\":8967:8985   */\n      tag_262\n      tag_161\n      jump\t// in\n    tag_262:\n        /* \"#utility.yul\":8952:8987   */\n    tag_261:\n        /* \"#utility.yul\":9009:9010   */\n      dup3\n        /* \"#utility.yul\":9006:9007   */\n      dup3\n        /* \"#utility.yul\":9002:9011   */\n      div\n        /* \"#utility.yul\":8997:9011   */\n      swap1\n      pop\n        /* \"#utility.yul\":8832:9017   */\n      swap3\n      swap2\n      pop\n      pop\n      jump\t// out\n        /* \"#utility.yul\":9023:9264   */\n    tag_163:\n        /* \"#utility.yul\":9163:9197   */\n      0x56656e646f7220686173206e6f7420656e6f7567682066756e647320746f2061\n        /* \"#utility.yul\":9159:9160   */\n      0x00\n        /* \"#utility.yul\":9151:9157   */\n      dup3\n        /* \"#utility.yul\":9147:9161   */\n      add\n        /* \"#utility.yul\":9140:9198   */\n      mstore\n        /* \"#utility.yul\":9232:9256   */\n      0x6363657074207468652073656c6c207265717565737400000000000000000000\n        /* \"#utility.yul\":9227:9229   */\n      0x20\n        /* \"#utility.yul\":9219:9225   */\n      dup3\n        /* \"#utility.yul\":9215:9230   */\n      add\n        /* \"#utility.yul\":9208:9257   */\n      mstore\n        /* \"#utility.yul\":9023:9264   */\n      pop\n      jump\t// out\n        /* \"#utility.yul\":9270:9636   */\n    tag_164:\n        /* \"#utility.yul\":9412:9415   */\n      0x00\n        /* \"#utility.yul\":9433:9500   */\n      tag_265\n        /* \"#utility.yul\":9497:9499   */\n      0x36\n        /* \"#utility.yul\":9492:9495   */\n      dup4\n        /* \"#utility.yul\":9433:9500   */\n      tag_148\n      jump\t// in\n    tag_265:\n        /* \"#utility.yul\":9426:9500   */\n      swap2\n      pop\n        /* \"#utility.yul\":9509:9602   */\n      tag_266\n        /* \"#utility.yul\":9598:9601   */\n      dup3\n        /* \"#utility.yul\":9509:9602   */\n      tag_163\n      jump\t// in\n    tag_266:\n        /* \"#utility.yul\":9627:9629   */\n      0x40\n        /* \"#utility.yul\":9622:9625   */\n      dup3\n        /* \"#utility.yul\":9618:9630   */\n      add\n        /* \"#utility.yul\":9611:9630   */\n      swap1\n      pop\n        /* \"#utility.yul\":9270:9636   */\n      swap2\n      swap1\n      pop\n      jump\t// out\n        /* \"#utility.yul\":9642:10061   */\n    tag_70:\n        /* \"#utility.yul\":9808:9812   */\n      0x00\n        /* \"#utility.yul\":9846:9848   */\n      0x20\n        /* \"#utility.yul\":9835:9844   */\n      dup3\n        /* \"#utility.yul\":9831:9849   */\n      add\n        /* \"#utility.yul\":9823:9849   */\n      swap1\n      pop\n        /* \"#utility.yul\":9895:9904   */\n      dup2\n        /* \"#utility.yul\":9889:9893   */\n      dup2\n        /* \"#utility.yul\":9885:9905   */\n      sub\n        /* \"#utility.yul\":9881:9882   */\n      0x00\n        /* \"#utility.yul\":9870:9879   */\n      dup4\n        /* \"#utility.yul\":9866:9883   */\n      add\n        /* \"#utility.yul\":9859:9906   */\n      mstore\n        /* \"#utility.yul\":9923:10054   */\n      tag_268\n        /* \"#utility.yul\":10049:10053   */\n      dup2\n        /* \"#utility.yul\":9923:10054   */\n      tag_164\n      jump\t// in\n    tag_268:\n        /* \"#utility.yul\":9915:10054   */\n      swap1\n      pop\n        /* \"#utility.yul\":9642:10061   */\n      swap2\n      swap1\n      pop\n      jump\t// out\n        /* \"#utility.yul\":10067:10509   */\n    tag_72:\n        /* \"#utility.yul\":10216:10220   */\n      0x00\n        /* \"#utility.yul\":10254:10256   */\n      0x60\n        /* \"#utility.yul\":10243:10252   */\n      dup3\n        /* \"#utility.yul\":10239:10257   */\n      add\n        /* \"#utility.yul\":10231:10257   */\n      swap1\n      pop\n        /* \"#utility.yul\":10267:10338   */\n      tag_270\n        /* \"#utility.yul\":10335:10336   */\n      0x00\n        /* \"#utility.yul\":10324:10333   */\n      dup4\n        /* \"#utility.yul\":10320:10337   */\n      add\n        /* \"#utility.yul\":10311:10317   */\n      dup7\n        /* \"#utility.yul\":10267:10338   */\n      tag_144\n      jump\t// in\n    tag_270:\n        /* \"#utility.yul\":10348:10420   */\n      tag_271\n        /* \"#utility.yul\":10416:10418   */\n      0x20\n        /* \"#utility.yul\":10405:10414   */\n      dup4\n        /* \"#utility.yul\":10401:10419   */\n      add\n        /* \"#utility.yul\":10392:10398   */\n      dup6\n        /* \"#utility.yul\":10348:10420   */\n      tag_144\n      jump\t// in\n    tag_271:\n        /* \"#utility.yul\":10430:10502   */\n      tag_272\n        /* \"#utility.yul\":10498:10500   */\n      0x40\n        /* \"#utility.yul\":10487:10496   */\n      dup4\n        /* \"#utility.yul\":10483:10501   */\n      add\n        /* \"#utility.yul\":10474:10480   */\n      dup5\n        /* \"#utility.yul\":10430:10502   */\n      tag_145\n      jump\t// in\n    tag_272:\n        /* \"#utility.yul\":10067:10509   */\n      swap5\n      swap4\n      pop\n      pop\n      pop\n      pop\n      jump\t// out\n        /* \"#utility.yul\":10515:10605   */\n    tag_165:\n        /* \"#utility.yul\":10549:10556   */\n      0x00\n        /* \"#utility.yul\":10592:10597   */\n      dup2\n        /* \"#utility.yul\":10585:10598   */\n      iszero\n        /* \"#utility.yul\":10578:10599   */\n      iszero\n        /* \"#utility.yul\":10567:10599   */\n      swap1\n      pop\n        /* \"#utility.yul\":10515:10605   */\n      swap2\n      swap1\n      pop\n      jump\t// out\n        /* \"#utility.yul\":10611:10727   */\n    tag_166:\n        /* \"#utility.yul\":10681:10702   */\n      tag_275\n        /* \"#utility.yul\":10696:10701   */\n      dup2\n        /* \"#utility.yul\":10681:10702   */\n      tag_165\n      jump\t// in\n    tag_275:\n        /* \"#utility.yul\":10674:10679   */\n      dup2\n        /* \"#utility.yul\":10671:10703   */\n      eq\n        /* \"#utility.yul\":10661:10721   */\n      tag_276\n      jumpi\n        /* \"#utility.yul\":10717:10718   */\n      0x00\n        /* \"#utility.yul\":10714:10715   */\n      dup1\n        /* \"#utility.yul\":10707:10719   */\n      revert\n        /* \"#utility.yul\":10661:10721   */\n    tag_276:\n        /* \"#utility.yul\":10611:10727   */\n      pop\n      jump\t// out\n        /* \"#utility.yul\":10733:10870   */\n    tag_167:\n        /* \"#utility.yul\":10787:10792   */\n      0x00\n        /* \"#utility.yul\":10818:10824   */\n      dup2\n        /* \"#utility.yul\":10812:10825   */\n      mload\n        /* \"#utility.yul\":10803:10825   */\n      swap1\n      pop\n        /* \"#utility.yul\":10834:10864   */\n      tag_278\n        /* \"#utility.yul\":10858:10863   */\n      dup2\n        /* \"#utility.yul\":10834:10864   */\n      tag_166\n      jump\t// in\n    tag_278:\n        /* \"#utility.yul\":10733:10870   */\n      swap3\n      swap2\n      pop\n      pop\n      jump\t// out\n        /* \"#utility.yul\":10876:11221   */\n    tag_76:\n        /* \"#utility.yul\":10943:10949   */\n      0x00\n        /* \"#utility.yul\":10992:10994   */\n      0x20\n        /* \"#utility.yul\":10980:10989   */\n      dup3\n        /* \"#utility.yul\":10971:10978   */\n      dup5\n        /* \"#utility.yul\":10967:10990   */\n      sub\n        /* \"#utility.yul\":10963:10995   */\n      slt\n        /* \"#utility.yul\":10960:11079   */\n      iszero\n      tag_280\n      jumpi\n        /* \"#utility.yul\":10998:11077   */\n      tag_281\n      tag_137\n      jump\t// in\n    tag_281:\n        /* \"#utility.yul\":10960:11079   */\n    tag_280:\n        /* \"#utility.yul\":11118:11119   */\n      0x00\n        /* \"#utility.yul\":11143:11204   */\n      tag_282\n        /* \"#utility.yul\":11196:11203   */\n      dup5\n        /* \"#utility.yul\":11187:11193   */\n      dup3\n        /* \"#utility.yul\":11176:11185   */\n      dup6\n        /* \"#utility.yul\":11172:11194   */\n      add\n        /* \"#utility.yul\":11143:11204   */\n      tag_167\n      jump\t// in\n    tag_282:\n        /* \"#utility.yul\":11133:11204   */\n      swap2\n      pop\n        /* \"#utility.yul\":11089:11214   */\n      pop\n        /* \"#utility.yul\":10876:11221   */\n      swap3\n      swap2\n      pop\n      pop\n      jump\t// out\n        /* \"#utility.yul\":11227:11459   */\n    tag_168:\n        /* \"#utility.yul\":11367:11401   */\n      0x4661696c656420746f207472616e7366657220746f6b656e732066726f6d2075\n        /* \"#utility.yul\":11363:11364   */\n      0x00\n        /* \"#utility.yul\":11355:11361   */\n      dup3\n        /* \"#utility.yul\":11351:11365   */\n      add\n        /* \"#utility.yul\":11344:11402   */\n      mstore\n        /* \"#utility.yul\":11436:11451   */\n      0x73657220746f2076656e646f7200000000000000000000000000000000000000\n        /* \"#utility.yul\":11431:11433   */\n      0x20\n        /* \"#utility.yul\":11423:11429   */\n      dup3\n        /* \"#utility.yul\":11419:11434   */\n      add\n        /* \"#utility.yul\":11412:11452   */\n      mstore\n        /* \"#utility.yul\":11227:11459   */\n      pop\n      jump\t// out\n        /* \"#utility.yul\":11465:11831   */\n    tag_169:\n        /* \"#utility.yul\":11607:11610   */\n      0x00\n        /* \"#utility.yul\":11628:11695   */\n      tag_285\n        /* \"#utility.yul\":11692:11694   */\n      0x2d\n        /* \"#utility.yul\":11687:11690   */\n      dup4\n        /* \"#utility.yul\":11628:11695   */\n      tag_148\n      jump\t// in\n    tag_285:\n        /* \"#utility.yul\":11621:11695   */\n      swap2\n      pop\n        /* \"#utility.yul\":11704:11797   */\n      tag_286\n        /* \"#utility.yul\":11793:11796   */\n      dup3\n        /* \"#utility.yul\":11704:11797   */\n      tag_168\n      jump\t// in\n    tag_286:\n        /* \"#utility.yul\":11822:11824   */\n      0x40\n        /* \"#utility.yul\":11817:11820   */\n      dup3\n        /* \"#utility.yul\":11813:11825   */\n      add\n        /* \"#utility.yul\":11806:11825   */\n      swap1\n      pop\n        /* \"#utility.yul\":11465:11831   */\n      swap2\n      swap1\n      pop\n      jump\t// out\n        /* \"#utility.yul\":11837:12256   */\n    tag_79:\n        /* \"#utility.yul\":12003:12007   */\n      0x00\n        /* \"#utility.yul\":12041:12043   */\n      0x20\n        /* \"#utility.yul\":12030:12039   */\n      dup3\n        /* \"#utility.yul\":12026:12044   */\n      add\n        /* \"#utility.yul\":12018:12044   */\n      swap1\n      pop\n        /* \"#utility.yul\":12090:12099   */\n      dup2\n        /* \"#utility.yul\":12084:12088   */\n      dup2\n        /* \"#utility.yul\":12080:12100   */\n      sub\n        /* \"#utility.yul\":12076:12077   */\n      0x00\n        /* \"#utility.yul\":12065:12074   */\n      dup4\n        /* \"#utility.yul\":12061:12078   */\n      add\n        /* \"#utility.yul\":12054:12101   */\n      mstore\n        /* \"#utility.yul\":12118:12249   */\n      tag_288\n        /* \"#utility.yul\":12244:12248   */\n      dup2\n        /* \"#utility.yul\":12118:12249   */\n      tag_169\n      jump\t// in\n    tag_288:\n        /* \"#utility.yul\":12110:12249   */\n      swap1\n      pop\n        /* \"#utility.yul\":11837:12256   */\n      swap2\n      swap1\n      pop\n      jump\t// out\n        /* \"#utility.yul\":12262:12442   */\n    tag_170:\n        /* \"#utility.yul\":12402:12434   */\n      0x4661696c656420746f2073656e642045544820746f2074686520757365720000\n        /* \"#utility.yul\":12398:12399   */\n      0x00\n        /* \"#utility.yul\":12390:12396   */\n      dup3\n        /* \"#utility.yul\":12386:12400   */\n      add\n        /* \"#utility.yul\":12379:12435   */\n      mstore\n        /* \"#utility.yul\":12262:12442   */\n      pop\n      jump\t// out\n        /* \"#utility.yul\":12448:12814   */\n    tag_171:\n        /* \"#utility.yul\":12590:12593   */\n      0x00\n        /* \"#utility.yul\":12611:12678   */\n      tag_291\n        /* \"#utility.yul\":12675:12677   */\n      0x1e\n        /* \"#utility.yul\":12670:12673   */\n      dup4\n        /* \"#utility.yul\":12611:12678   */\n      tag_148\n      jump\t// in\n    tag_291:\n        /* \"#utility.yul\":12604:12678   */\n      swap2\n      pop\n        /* \"#utility.yul\":12687:12780   */\n      tag_292\n        /* \"#utility.yul\":12776:12779   */\n      dup3\n        /* \"#utility.yul\":12687:12780   */\n      tag_170\n      jump\t// in\n    tag_292:\n        /* \"#utility.yul\":12805:12807   */\n      0x20\n        /* \"#utility.yul\":12800:12803   */\n      dup3\n        /* \"#utility.yul\":12796:12808   */\n      add\n        /* \"#utility.yul\":12789:12808   */\n      swap1\n      pop\n        /* \"#utility.yul\":12448:12814   */\n      swap2\n      swap1\n      pop\n      jump\t// out\n        /* \"#utility.yul\":12820:13239   */\n    tag_86:\n        /* \"#utility.yul\":12986:12990   */\n      0x00\n        /* \"#utility.yul\":13024:13026   */\n      0x20\n        /* \"#utility.yul\":13013:13022   */\n      dup3\n        /* \"#utility.yul\":13009:13027   */\n      add\n        /* \"#utility.yul\":13001:13027   */\n      swap1\n      pop\n        /* \"#utility.yul\":13073:13082   */\n      dup2\n        /* \"#utility.yul\":13067:13071   */\n      dup2\n        /* \"#utility.yul\":13063:13083   */\n      sub\n        /* \"#utility.yul\":13059:13060   */\n      0x00\n        /* \"#utility.yul\":13048:13057   */\n      dup4\n        /* \"#utility.yul\":13044:13061   */\n      add\n        /* \"#utility.yul\":13037:13084   */\n      mstore\n        /* \"#utility.yul\":13101:13232   */\n      tag_294\n        /* \"#utility.yul\":13227:13231   */\n      dup2\n        /* \"#utility.yul\":13101:13232   */\n      tag_171\n      jump\t// in\n    tag_294:\n        /* \"#utility.yul\":13093:13232   */\n      swap1\n      pop\n        /* \"#utility.yul\":12820:13239   */\n      swap2\n      swap1\n      pop\n      jump\t// out\n        /* \"#utility.yul\":13245:13687   */\n    tag_88:\n        /* \"#utility.yul\":13394:13398   */\n      0x00\n        /* \"#utility.yul\":13432:13434   */\n      0x60\n        /* \"#utility.yul\":13421:13430   */\n      dup3\n        /* \"#utility.yul\":13417:13435   */\n      add\n        /* \"#utility.yul\":13409:13435   */\n      swap1\n      pop\n        /* \"#utility.yul\":13445:13516   */\n      tag_296\n        /* \"#utility.yul\":13513:13514   */\n      0x00\n        /* \"#utility.yul\":13502:13511   */\n      dup4\n        /* \"#utility.yul\":13498:13515   */\n      add\n        /* \"#utility.yul\":13489:13495   */\n      dup7\n        /* \"#utility.yul\":13445:13516   */\n      tag_144\n      jump\t// in\n    tag_296:\n        /* \"#utility.yul\":13526:13598   */\n      tag_297\n        /* \"#utility.yul\":13594:13596   */\n      0x20\n        /* \"#utility.yul\":13583:13592   */\n      dup4\n        /* \"#utility.yul\":13579:13597   */\n      add\n        /* \"#utility.yul\":13570:13576   */\n      dup6\n        /* \"#utility.yul\":13526:13598   */\n      tag_145\n      jump\t// in\n    tag_297:\n        /* \"#utility.yul\":13608:13680   */\n      tag_298\n        /* \"#utility.yul\":13676:13678   */\n      0x40\n        /* \"#utility.yul\":13665:13674   */\n      dup4\n        /* \"#utility.yul\":13661:13679   */\n      add\n        /* \"#utility.yul\":13652:13658   */\n      dup5\n        /* \"#utility.yul\":13608:13680   */\n      tag_145\n      jump\t// in\n    tag_298:\n        /* \"#utility.yul\":13245:13687   */\n      swap5\n      swap4\n      pop\n      pop\n      pop\n      pop\n      jump\t// out\n        /* \"#utility.yul\":13693:13870   */\n    tag_172:\n        /* \"#utility.yul\":13833:13862   */\n      0x53656e642045544820746f2062757920736f6d6520746f6b656e730000000000\n        /* \"#utility.yul\":13829:13830   */\n      0x00\n        /* \"#utility.yul\":13821:13827   */\n      dup3\n        /* \"#utility.yul\":13817:13831   */\n      add\n        /* \"#utility.yul\":13810:13863   */\n      mstore\n        /* \"#utility.yul\":13693:13870   */\n      pop\n      jump\t// out\n        /* \"#utility.yul\":13876:14242   */\n    tag_173:\n        /* \"#utility.yul\":14018:14021   */\n      0x00\n        /* \"#utility.yul\":14039:14106   */\n      tag_301\n        /* \"#utility.yul\":14103:14105   */\n      0x1b\n        /* \"#utility.yul\":14098:14101   */\n      dup4\n        /* \"#utility.yul\":14039:14106   */\n      tag_148\n      jump\t// in\n    tag_301:\n        /* \"#utility.yul\":14032:14106   */\n      swap2\n      pop\n        /* \"#utility.yul\":14115:14208   */\n      tag_302\n        /* \"#utility.yul\":14204:14207   */\n      dup3\n        /* \"#utility.yul\":14115:14208   */\n      tag_172\n      jump\t// in\n    tag_302:\n        /* \"#utility.yul\":14233:14235   */\n      0x20\n        /* \"#utility.yul\":14228:14231   */\n      dup3\n        /* \"#utility.yul\":14224:14236   */\n      add\n        /* \"#utility.yul\":14217:14236   */\n      swap1\n      pop\n        /* \"#utility.yul\":13876:14242   */\n      swap2\n      swap1\n      pop\n      jump\t// out\n        /* \"#utility.yul\":14248:14667   */\n    tag_98:\n        /* \"#utility.yul\":14414:14418   */\n      0x00\n        /* \"#utility.yul\":14452:14454   */\n      0x20\n        /* \"#utility.yul\":14441:14450   */\n      dup3\n        /* \"#utility.yul\":14437:14455   */\n      add\n        /* \"#utility.yul\":14429:14455   */\n      swap1\n      pop\n        /* \"#utility.yul\":14501:14510   */\n      dup2\n        /* \"#utility.yul\":14495:14499   */\n      dup2\n        /* \"#utility.yul\":14491:14511   */\n      sub\n        /* \"#utility.yul\":14487:14488   */\n      0x00\n        /* \"#utility.yul\":14476:14485   */\n      dup4\n        /* \"#utility.yul\":14472:14489   */\n      add\n        /* \"#utility.yul\":14465:14512   */\n      mstore\n        /* \"#utility.yul\":14529:14660   */\n      tag_304\n        /* \"#utility.yul\":14655:14659   */\n      dup2\n        /* \"#utility.yul\":14529:14660   */\n      tag_173\n      jump\t// in\n    tag_304:\n        /* \"#utility.yul\":14521:14660   */\n      swap1\n      pop\n        /* \"#utility.yul\":14248:14667   */\n      swap2\n      swap1\n      pop\n      jump\t// out\n        /* \"#utility.yul\":14673:15083   */\n    tag_100:\n        /* \"#utility.yul\":14713:14720   */\n      0x00\n        /* \"#utility.yul\":14736:14756   */\n      tag_306\n        /* \"#utility.yul\":14754:14755   */\n      dup3\n        /* \"#utility.yul\":14736:14756   */\n      tag_139\n      jump\t// in\n    tag_306:\n        /* \"#utility.yul\":14731:14756   */\n      swap2\n      pop\n        /* \"#utility.yul\":14770:14790   */\n      tag_307\n        /* \"#utility.yul\":14788:14789   */\n      dup4\n        /* \"#utility.yul\":14770:14790   */\n      tag_139\n      jump\t// in\n    tag_307:\n        /* \"#utility.yul\":14765:14790   */\n      swap3\n      pop\n        /* \"#utility.yul\":14825:14826   */\n      dup3\n        /* \"#utility.yul\":14822:14823   */\n      dup3\n        /* \"#utility.yul\":14818:14827   */\n      mul\n        /* \"#utility.yul\":14847:14877   */\n      tag_308\n        /* \"#utility.yul\":14865:14876   */\n      dup2\n        /* \"#utility.yul\":14847:14877   */\n      tag_139\n      jump\t// in\n    tag_308:\n        /* \"#utility.yul\":14836:14877   */\n      swap2\n      pop\n        /* \"#utility.yul\":15026:15027   */\n      dup3\n        /* \"#utility.yul\":15017:15024   */\n      dup3\n        /* \"#utility.yul\":15013:15028   */\n      div\n        /* \"#utility.yul\":15010:15011   */\n      dup5\n        /* \"#utility.yul\":15007:15029   */\n      eq\n        /* \"#utility.yul\":14987:14988   */\n      dup4\n        /* \"#utility.yul\":14980:14989   */\n      iszero\n        /* \"#utility.yul\":14960:15043   */\n      or\n        /* \"#utility.yul\":14937:15076   */\n      tag_309\n      jumpi\n        /* \"#utility.yul\":15056:15074   */\n      tag_310\n      tag_162\n      jump\t// in\n    tag_310:\n        /* \"#utility.yul\":14937:15076   */\n    tag_309:\n        /* \"#utility.yul\":14721:15083   */\n      pop\n        /* \"#utility.yul\":14673:15083   */\n      swap3\n      swap2\n      pop\n      pop\n      jump\t// out\n        /* \"#utility.yul\":15089:15257   */\n    tag_174:\n        /* \"#utility.yul\":15229:15249   */\n      0x76656e646f7242616c616e636520697320300000000000000000000000000000\n        /* \"#utility.yul\":15225:15226   */\n      0x00\n        /* \"#utility.yul\":15217:15223   */\n      dup3\n        /* \"#utility.yul\":15213:15227   */\n      add\n        /* \"#utility.yul\":15206:15250   */\n      mstore\n        /* \"#utility.yul\":15089:15257   */\n      pop\n      jump\t// out\n        /* \"#utility.yul\":15263:15629   */\n    tag_175:\n        /* \"#utility.yul\":15405:15408   */\n      0x00\n        /* \"#utility.yul\":15426:15493   */\n      tag_313\n        /* \"#utility.yul\":15490:15492   */\n      0x12\n        /* \"#utility.yul\":15485:15488   */\n      dup4\n        /* \"#utility.yul\":15426:15493   */\n      tag_148\n      jump\t// in\n    tag_313:\n        /* \"#utility.yul\":15419:15493   */\n      swap2\n      pop\n        /* \"#utility.yul\":15502:15595   */\n      tag_314\n        /* \"#utility.yul\":15591:15594   */\n      dup3\n        /* \"#utility.yul\":15502:15595   */\n      tag_174\n      jump\t// in\n    tag_314:\n        /* \"#utility.yul\":15620:15622   */\n      0x20\n        /* \"#utility.yul\":15615:15618   */\n      dup3\n        /* \"#utility.yul\":15611:15623   */\n      add\n        /* \"#utility.yul\":15604:15623   */\n      swap1\n      pop\n        /* \"#utility.yul\":15263:15629   */\n      swap2\n      swap1\n      pop\n      jump\t// out\n        /* \"#utility.yul\":15635:16054   */\n    tag_107:\n        /* \"#utility.yul\":15801:15805   */\n      0x00\n        /* \"#utility.yul\":15839:15841   */\n      0x20\n        /* \"#utility.yul\":15828:15837   */\n      dup3\n        /* \"#utility.yul\":15824:15842   */\n      add\n        /* \"#utility.yul\":15816:15842   */\n      swap1\n      pop\n        /* \"#utility.yul\":15888:15897   */\n      dup2\n        /* \"#utility.yul\":15882:15886   */\n      dup2\n        /* \"#utility.yul\":15878:15898   */\n      sub\n        /* \"#utility.yul\":15874:15875   */\n      0x00\n        /* \"#utility.yul\":15863:15872   */\n      dup4\n        /* \"#utility.yul\":15859:15876   */\n      add\n        /* \"#utility.yul\":15852:15899   */\n      mstore\n        /* \"#utility.yul\":15916:16047   */\n      tag_316\n        /* \"#utility.yul\":16042:16046   */\n      dup2\n        /* \"#utility.yul\":15916:16047   */\n      tag_175\n      jump\t// in\n    tag_316:\n        /* \"#utility.yul\":15908:16047   */\n      swap1\n      pop\n        /* \"#utility.yul\":15635:16054   */\n      swap2\n      swap1\n      pop\n      jump\t// out\n        /* \"#utility.yul\":16060:16299   */\n    tag_176:\n        /* \"#utility.yul\":16200:16234   */\n      0x56656e646f7220636f6e747261637420686173206e6f7420656e6f7567682074\n        /* \"#utility.yul\":16196:16197   */\n      0x00\n        /* \"#utility.yul\":16188:16194   */\n      dup3\n        /* \"#utility.yul\":16184:16198   */\n      add\n        /* \"#utility.yul\":16177:16235   */\n      mstore\n        /* \"#utility.yul\":16269:16291   */\n      0x6f6b656e7320696e206974732062616c616e6365000000000000000000000000\n        /* \"#utility.yul\":16264:16266   */\n      0x20\n        /* \"#utility.yul\":16256:16262   */\n      dup3\n        /* \"#utility.yul\":16252:16267   */\n      add\n        /* \"#utility.yul\":16245:16292   */\n      mstore\n        /* \"#utility.yul\":16060:16299   */\n      pop\n      jump\t// out\n        /* \"#utility.yul\":16305:16671   */\n    tag_177:\n        /* \"#utility.yul\":16447:16450   */\n      0x00\n        /* \"#utility.yul\":16468:16535   */\n      tag_319\n        /* \"#utility.yul\":16532:16534   */\n      0x34\n        /* \"#utility.yul\":16527:16530   */\n      dup4\n        /* \"#utility.yul\":16468:16535   */\n      tag_148\n      jump\t// in\n    tag_319:\n        /* \"#utility.yul\":16461:16535   */\n      swap2\n      pop\n        /* \"#utility.yul\":16544:16637   */\n      tag_320\n        /* \"#utility.yul\":16633:16636   */\n      dup3\n        /* \"#utility.yul\":16544:16637   */\n      tag_176\n      jump\t// in\n    tag_320:\n        /* \"#utility.yul\":16662:16664   */\n      0x40\n        /* \"#utility.yul\":16657:16660   */\n      dup3\n        /* \"#utility.yul\":16653:16665   */\n      add\n        /* \"#utility.yul\":16646:16665   */\n      swap1\n      pop\n        /* \"#utility.yul\":16305:16671   */\n      swap2\n      swap1\n      pop\n      jump\t// out\n        /* \"#utility.yul\":16677:17096   */\n    tag_110:\n        /* \"#utility.yul\":16843:16847   */\n      0x00\n        /* \"#utility.yul\":16881:16883   */\n      0x20\n        /* \"#utility.yul\":16870:16879   */\n      dup3\n        /* \"#utility.yul\":16866:16884   */\n      add\n        /* \"#utility.yul\":16858:16884   */\n      swap1\n      pop\n        /* \"#utility.yul\":16930:16939   */\n      dup2\n        /* \"#utility.yul\":16924:16928   */\n      dup2\n        /* \"#utility.yul\":16920:16940   */\n      sub\n        /* \"#utility.yul\":16916:16917   */\n      0x00\n        /* \"#utility.yul\":16905:16914   */\n      dup4\n        /* \"#utility.yul\":16901:16918   */\n      add\n        /* \"#utility.yul\":16894:16941   */\n      mstore\n        /* \"#utility.yul\":16958:17089   */\n      tag_322\n        /* \"#utility.yul\":17084:17088   */\n      dup2\n        /* \"#utility.yul\":16958:17089   */\n      tag_177\n      jump\t// in\n    tag_322:\n        /* \"#utility.yul\":16950:17089   */\n      swap1\n      pop\n        /* \"#utility.yul\":16677:17096   */\n      swap2\n      swap1\n      pop\n      jump\t// out\n        /* \"#utility.yul\":17102:17434   */\n    tag_112:\n        /* \"#utility.yul\":17223:17227   */\n      0x00\n        /* \"#utility.yul\":17261:17263   */\n      0x40\n        /* \"#utility.yul\":17250:17259   */\n      dup3\n        /* \"#utility.yul\":17246:17264   */\n      add\n        /* \"#utility.yul\":17238:17264   */\n      swap1\n      pop\n        /* \"#utility.yul\":17274:17345   */\n      tag_324\n        /* \"#utility.yul\":17342:17343   */\n      0x00\n        /* \"#utility.yul\":17331:17340   */\n      dup4\n        /* \"#utility.yul\":17327:17344   */\n      add\n        /* \"#utility.yul\":17318:17324   */\n      dup6\n        /* \"#utility.yul\":17274:17345   */\n      tag_144\n      jump\t// in\n    tag_324:\n        /* \"#utility.yul\":17355:17427   */\n      tag_325\n        /* \"#utility.yul\":17423:17425   */\n      0x20\n        /* \"#utility.yul\":17412:17421   */\n      dup4\n        /* \"#utility.yul\":17408:17426   */\n      add\n        /* \"#utility.yul\":17399:17405   */\n      dup5\n        /* \"#utility.yul\":17355:17427   */\n      tag_145\n      jump\t// in\n    tag_325:\n        /* \"#utility.yul\":17102:17434   */\n      swap4\n      swap3\n      pop\n      pop\n      pop\n      jump\t// out\n        /* \"#utility.yul\":17440:17622   */\n    tag_178:\n        /* \"#utility.yul\":17580:17614   */\n      0x4661696c656420746f207472616e7366657220746f6b656e20746f2075736572\n        /* \"#utility.yul\":17576:17577   */\n      0x00\n        /* \"#utility.yul\":17568:17574   */\n      dup3\n        /* \"#utility.yul\":17564:17578   */\n      add\n        /* \"#utility.yul\":17557:17615   */\n      mstore\n        /* \"#utility.yul\":17440:17622   */\n      pop\n      jump\t// out\n        /* \"#utility.yul\":17628:17994   */\n    tag_179:\n        /* \"#utility.yul\":17770:17773   */\n      0x00\n        /* \"#utility.yul\":17791:17858   */\n      tag_328\n        /* \"#utility.yul\":17855:17857   */\n      0x20\n        /* \"#utility.yul\":17850:17853   */\n      dup4\n        /* \"#utility.yul\":17791:17858   */\n      tag_148\n      jump\t// in\n    tag_328:\n        /* \"#utility.yul\":17784:17858   */\n      swap2\n      pop\n        /* \"#utility.yul\":17867:17960   */\n      tag_329\n        /* \"#utility.yul\":17956:17959   */\n      dup3\n        /* \"#utility.yul\":17867:17960   */\n      tag_178\n      jump\t// in\n    tag_329:\n        /* \"#utility.yul\":17985:17987   */\n      0x20\n        /* \"#utility.yul\":17980:17983   */\n      dup3\n        /* \"#utility.yul\":17976:17988   */\n      add\n        /* \"#utility.yul\":17969:17988   */\n      swap1\n      pop\n        /* \"#utility.yul\":17628:17994   */\n      swap2\n      swap1\n      pop\n      jump\t// out\n        /* \"#utility.yul\":18000:18419   */\n    tag_118:\n        /* \"#utility.yul\":18166:18170   */\n      0x00\n        /* \"#utility.yul\":18204:18206   */\n      0x20\n        /* \"#utility.yul\":18193:18202   */\n      dup3\n        /* \"#utility.yul\":18189:18207   */\n      add\n        /* \"#utility.yul\":18181:18207   */\n      swap1\n      pop\n        /* \"#utility.yul\":18253:18262   */\n      dup2\n        /* \"#utility.yul\":18247:18251   */\n      dup2\n        /* \"#utility.yul\":18243:18263   */\n      sub\n        /* \"#utility.yul\":18239:18240   */\n      0x00\n        /* \"#utility.yul\":18228:18237   */\n      dup4\n        /* \"#utility.yul\":18224:18241   */\n      add\n        /* \"#utility.yul\":18217:18264   */\n      mstore\n        /* \"#utility.yul\":18281:18412   */\n      tag_331\n        /* \"#utility.yul\":18407:18411   */\n      dup2\n        /* \"#utility.yul\":18281:18412   */\n      tag_179\n      jump\t// in\n    tag_331:\n        /* \"#utility.yul\":18273:18412   */\n      swap1\n      pop\n        /* \"#utility.yul\":18000:18419   */\n      swap2\n      swap1\n      pop\n      jump\t// out\n        /* \"#utility.yul\":18425:18650   */\n    tag_180:\n        /* \"#utility.yul\":18565:18599   */\n      0x4f776e61626c653a206e6577206f776e657220697320746865207a65726f2061\n        /* \"#utility.yul\":18561:18562   */\n      0x00\n        /* \"#utility.yul\":18553:18559   */\n      dup3\n        /* \"#utility.yul\":18549:18563   */\n      add\n        /* \"#utility.yul\":18542:18600   */\n      mstore\n        /* \"#utility.yul\":18634:18642   */\n      0x6464726573730000000000000000000000000000000000000000000000000000\n        /* \"#utility.yul\":18629:18631   */\n      0x20\n        /* \"#utility.yul\":18621:18627   */\n      dup3\n        /* \"#utility.yul\":18617:18632   */\n      add\n        /* \"#utility.yul\":18610:18643   */\n      mstore\n        /* \"#utility.yul\":18425:18650   */\n      pop\n      jump\t// out\n        /* \"#utility.yul\":18656:19022   */\n    tag_181:\n        /* \"#utility.yul\":18798:18801   */\n      0x00\n        /* \"#utility.yul\":18819:18886   */\n      tag_334\n        /* \"#utility.yul\":18883:18885   */\n      0x26\n        /* \"#utility.yul\":18878:18881   */\n      dup4\n        /* \"#utility.yul\":18819:18886   */\n      tag_148\n      jump\t// in\n    tag_334:\n        /* \"#utility.yul\":18812:18886   */\n      swap2\n      pop\n        /* \"#utility.yul\":18895:18988   */\n      tag_335\n        /* \"#utility.yul\":18984:18987   */\n      dup3\n        /* \"#utility.yul\":18895:18988   */\n      tag_180\n      jump\t// in\n    tag_335:\n        /* \"#utility.yul\":19013:19015   */\n      0x40\n        /* \"#utility.yul\":19008:19011   */\n      dup3\n        /* \"#utility.yul\":19004:19016   */\n      add\n        /* \"#utility.yul\":18997:19016   */\n      swap1\n      pop\n        /* \"#utility.yul\":18656:19022   */\n      swap2\n      swap1\n      pop\n      jump\t// out\n        /* \"#utility.yul\":19028:19447   */\n    tag_125:\n        /* \"#utility.yul\":19194:19198   */\n      0x00\n        /* \"#utility.yul\":19232:19234   */\n      0x20\n        /* \"#utility.yul\":19221:19230   */\n      dup3\n        /* \"#utility.yul\":19217:19235   */\n      add\n        /* \"#utility.yul\":19209:19235   */\n      swap1\n      pop\n        /* \"#utility.yul\":19281:19290   */\n      dup2\n        /* \"#utility.yul\":19275:19279   */\n      dup2\n        /* \"#utility.yul\":19271:19291   */\n      sub\n        /* \"#utility.yul\":19267:19268   */\n      0x00\n        /* \"#utility.yul\":19256:19265   */\n      dup4\n        /* \"#utility.yul\":19252:19269   */\n      add\n        /* \"#utility.yul\":19245:19292   */\n      mstore\n        /* \"#utility.yul\":19309:19440   */\n      tag_337\n        /* \"#utility.yul\":19435:19439   */\n      dup2\n        /* \"#utility.yul\":19309:19440   */\n      tag_181\n      jump\t// in\n    tag_337:\n        /* \"#utility.yul\":19301:19440   */\n      swap1\n      pop\n        /* \"#utility.yul\":19028:19447   */\n      swap2\n      swap1\n      pop\n      jump\t// out\n        /* \"#utility.yul\":19453:19635   */\n    tag_182:\n        /* \"#utility.yul\":19593:19627   */\n      0x4f776e61626c653a2063616c6c6572206973206e6f7420746865206f776e6572\n        /* \"#utility.yul\":19589:19590   */\n      0x00\n        /* \"#utility.yul\":19581:19587   */\n      dup3\n        /* \"#utility.yul\":19577:19591   */\n      add\n        /* \"#utility.yul\":19570:19628   */\n      mstore\n        /* \"#utility.yul\":19453:19635   */\n      pop\n      jump\t// out\n        /* \"#utility.yul\":19641:20007   */\n    tag_183:\n        /* \"#utility.yul\":19783:19786   */\n      0x00\n        /* \"#utility.yul\":19804:19871   */\n      tag_340\n        /* \"#utility.yul\":19868:19870   */\n      0x20\n        /* \"#utility.yul\":19863:19866   */\n      dup4\n        /* \"#utility.yul\":19804:19871   */\n      tag_148\n      jump\t// in\n    tag_340:\n        /* \"#utility.yul\":19797:19871   */\n      swap2\n      pop\n        /* \"#utility.yul\":19880:19973   */\n      tag_341\n        /* \"#utility.yul\":19969:19972   */\n      dup3\n        /* \"#utility.yul\":19880:19973   */\n      tag_182\n      jump\t// in\n    tag_341:\n        /* \"#utility.yul\":19998:20000   */\n      0x20\n        /* \"#utility.yul\":19993:19996   */\n      dup3\n        /* \"#utility.yul\":19989:20001   */\n      add\n        /* \"#utility.yul\":19982:20001   */\n      swap1\n      pop\n        /* \"#utility.yul\":19641:20007   */\n      swap2\n      swap1\n      pop\n      jump\t// out\n        /* \"#utility.yul\":20013:20432   */\n    tag_133:\n        /* \"#utility.yul\":20179:20183   */\n      0x00\n        /* \"#utility.yul\":20217:20219   */\n      0x20\n        /* \"#utility.yul\":20206:20215   */\n      dup3\n        /* \"#utility.yul\":20202:20220   */\n      add\n        /* \"#utility.yul\":20194:20220   */\n      swap1\n      pop\n        /* \"#utility.yul\":20266:20275   */\n      dup2\n        /* \"#utility.yul\":20260:20264   */\n      dup2\n        /* \"#utility.yul\":20256:20276   */\n      sub\n        /* \"#utility.yul\":20252:20253   */\n      0x00\n        /* \"#utility.yul\":20241:20250   */\n      dup4\n        /* \"#utility.yul\":20237:20254   */\n      add\n        /* \"#utility.yul\":20230:20277   */\n      mstore\n        /* \"#utility.yul\":20294:20425   */\n      tag_343\n        /* \"#utility.yul\":20420:20424   */\n      dup2\n        /* \"#utility.yul\":20294:20425   */\n      tag_183\n      jump\t// in\n    tag_343:\n        /* \"#utility.yul\":20286:20425   */\n      swap1\n      pop\n        /* \"#utility.yul\":20013:20432   */\n      swap2\n      swap1\n      pop\n      jump\t// out\n\n    auxdata: 0xa2646970667358221220736e90039ca124f8ba1ab03fbe9fafe451f886b95cc96c223a55772ea8a56d1664736f6c63430008110033\n}\n",
				"bytecode": {
					"linkReferences": {},
					"object": "608060405260646002553480156200001657600080fd5b506040516200171c3803806200171c83398181016040528101906200003c9190620001da565b6200005c62000050620000a460201b60201c565b620000ac60201b60201c565b80600160006101000a81548173ffffffffffffffffffffffffffffffffffffffff021916908373ffffffffffffffffffffffffffffffffffffffff160217905550506200020c565b600033905090565b60008060009054906101000a900473ffffffffffffffffffffffffffffffffffffffff169050816000806101000a81548173ffffffffffffffffffffffffffffffffffffffff021916908373ffffffffffffffffffffffffffffffffffffffff1602179055508173ffffffffffffffffffffffffffffffffffffffff168173ffffffffffffffffffffffffffffffffffffffff167f8be0079c531659141344cd1fd0a4f28419497f9722a3daafe3b4186f6b6457e060405160405180910390a35050565b600080fd5b600073ffffffffffffffffffffffffffffffffffffffff82169050919050565b6000620001a28262000175565b9050919050565b620001b48162000195565b8114620001c057600080fd5b50565b600081519050620001d481620001a9565b92915050565b600060208284031215620001f357620001f262000170565b5b60006200020384828501620001c3565b91505092915050565b611500806200021c6000396000f3fe6080604052600436106100705760003560e01c80638da5cb5b1161004e5780638da5cb5b146100cc578063cbdd69b5146100f7578063d0febe4c14610122578063f2fde38b1461014057610070565b80633ccfd60b146100755780636c11bcd31461008c578063715018a6146100b5575b600080fd5b34801561008157600080fd5b5061008a610169565b005b34801561009857600080fd5b506100b360048036038101906100ae9190610aac565b610269565b005b3480156100c157600080fd5b506100ca6105bd565b005b3480156100d857600080fd5b506100e16105d1565b6040516100ee9190610b1a565b60405180910390f35b34801561010357600080fd5b5061010c6105fa565b6040516101199190610b44565b60405180910390f35b61012a610600565b6040516101379190610b44565b60405180910390f35b34801561014c57600080fd5b5061016760048036038101906101629190610b8b565b6108a4565b005b610171610927565b6000479050600081116101b9576040517f08c379a00000000000000000000000000000000000000000000000000000000081526004016101b090610c3b565b60405180910390fd5b60003373ffffffffffffffffffffffffffffffffffffffff16476040516101df90610c8c565b60006040518083038185875af1925050503d806000811461021c576040519150601f19603f3d011682016040523d82523d6000602084013e610221565b606091505b5050905080610265576040517f08c379a000000000000000000000000000000000000000000000000000000000815260040161025c90610d13565b60405180910390fd5b5050565b600081116102ac576040517f08c379a00000000000000000000000000000000000000000000000000000000081526004016102a390610da5565b60405180910390fd5b6000600160009054906101000a900473ffffffffffffffffffffffffffffffffffffffff1673ffffffffffffffffffffffffffffffffffffffff166370a08231336040518263ffffffff1660e01b81526004016103099190610b1a565b602060405180830381865afa158015610326573d6000803e3d6000fd5b505050506040513d601f19601f8201168201806040525081019061034a9190610dda565b90508181101561038f576040517f08c379a000000000000000000000000000000000000000000000000000000000815260040161038690610e79565b60405180910390fd5b60006002548361039f9190610ef7565b90506000479050818110156103e9576040517f08c379a00000000000000000000000000000000000000000000000000000000081526004016103e090610f9a565b60405180910390fd5b6000600160009054906101000a900473ffffffffffffffffffffffffffffffffffffffff1673ffffffffffffffffffffffffffffffffffffffff166323b872dd3330886040518463ffffffff1660e01b815260040161044a93929190610fba565b6020604051808303816000875af1158015610469573d6000803e3d6000fd5b505050506040513d601f19601f8201168201806040525081019061048d9190611029565b9050806104cf576040517f08c379a00000000000000000000000000000000000000000000000000000000081526004016104c6906110c8565b60405180910390fd5b3373ffffffffffffffffffffffffffffffffffffffff16836040516104f390610c8c565b60006040518083038185875af1925050503d8060008114610530576040519150601f19603f3d011682016040523d82523d6000602084013e610535565b606091505b5050809150508061057b576040517f08c379a000000000000000000000000000000000000000000000000000000000815260040161057290611134565b60405180910390fd5b7fa24838acd4af5195a2396965dae5abf54e84e8c19f5698bb966ae64e29994ee53386856040516105ae93929190611154565b60405180910390a15050505050565b6105c5610927565b6105cf60006109a5565b565b60008060009054906101000a900473ffffffffffffffffffffffffffffffffffffffff16905090565b60025481565b6000803411610644576040517f08c379a000000000000000000000000000000000000000000000000000000000815260040161063b906111d7565b60405180910390fd5b60006002543461065491906111f7565b90506000600160009054906101000a900473ffffffffffffffffffffffffffffffffffffffff1673ffffffffffffffffffffffffffffffffffffffff166370a08231306040518263ffffffff1660e01b81526004016106b39190610b1a565b602060405180830381865afa1580156106d0573d6000803e3d6000fd5b505050506040513d601f19601f820116820180604052508101906106f49190610dda565b905060008111610739576040517f08c379a000000000000000000000000000000000000000000000000000000000815260040161073090611285565b60405180910390fd5b8181101561077c576040517f08c379a000000000000000000000000000000000000000000000000000000000815260040161077390611317565b60405180910390fd5b6000600160009054906101000a900473ffffffffffffffffffffffffffffffffffffffff1673ffffffffffffffffffffffffffffffffffffffff1663a9059cbb33856040518363ffffffff1660e01b81526004016107db929190611337565b6020604051808303816000875af11580156107fa573d6000803e3d6000fd5b505050506040513d601f19601f8201168201806040525081019061081e9190611029565b905080610860576040517f08c379a0000000000000000000000000000000000000000000000000000000008152600401610857906113ac565b60405180910390fd5b7f0a37b72bb67eee30e09084cf386f8a17817c57f620c3ab95fb25d6a20356ec7733348560405161089393929190611154565b60405180910390a182935050505090565b6108ac610927565b600073ffffffffffffffffffffffffffffffffffffffff168173ffffffffffffffffffffffffffffffffffffffff160361091b576040517f08c379a00000000000000000000000000000000000000000000000000000000081526004016109129061143e565b60405180910390fd5b610924816109a5565b50565b61092f610a69565b73ffffffffffffffffffffffffffffffffffffffff1661094d6105d1565b73ffffffffffffffffffffffffffffffffffffffff16146109a3576040517f08c379a000000000000000000000000000000000000000000000000000000000815260040161099a906114aa565b60405180910390fd5b565b60008060009054906101000a900473ffffffffffffffffffffffffffffffffffffffff169050816000806101000a81548173ffffffffffffffffffffffffffffffffffffffff021916908373ffffffffffffffffffffffffffffffffffffffff1602179055508173ffffffffffffffffffffffffffffffffffffffff168173ffffffffffffffffffffffffffffffffffffffff167f8be0079c531659141344cd1fd0a4f28419497f9722a3daafe3b4186f6b6457e060405160405180910390a35050565b600033905090565b600080fd5b6000819050919050565b610a8981610a76565b8114610a9457600080fd5b50565b600081359050610aa681610a80565b92915050565b600060208284031215610ac257610ac1610a71565b5b6000610ad084828501610a97565b91505092915050565b600073ffffffffffffffffffffffffffffffffffffffff82169050919050565b6000610b0482610ad9565b9050919050565b610b1481610af9565b82525050565b6000602082019050610b2f6000830184610b0b565b92915050565b610b3e81610a76565b82525050565b6000602082019050610b596000830184610b35565b92915050565b610b6881610af9565b8114610b7357600080fd5b50565b600081359050610b8581610b5f565b92915050565b600060208284031215610ba157610ba0610a71565b5b6000610baf84828501610b76565b91505092915050565b600082825260208201905092915050565b7f4f776e657220686173206e6f742062616c616e636520746f207769746864726160008201527f7700000000000000000000000000000000000000000000000000000000000000602082015250565b6000610c25602183610bb8565b9150610c3082610bc9565b604082019050919050565b60006020820190508181036000830152610c5481610c18565b9050919050565b600081905092915050565b50565b6000610c76600083610c5b565b9150610c8182610c66565b600082019050919050565b6000610c9782610c69565b9150819050919050565b7f4661696c656420746f2073656e6420757365722062616c616e6365206261636b60008201527f20746f20746865206f776e657200000000000000000000000000000000000000602082015250565b6000610cfd602d83610bb8565b9150610d0882610ca1565b604082019050919050565b60006020820190508181036000830152610d2c81610cf0565b9050919050565b7f5370656369667920616e20616d6f756e74206f6620746f6b656e20677265617460008201527f6572207468616e207a65726f0000000000000000000000000000000000000000602082015250565b6000610d8f602c83610bb8565b9150610d9a82610d33565b604082019050919050565b60006020820190508181036000830152610dbe81610d82565b9050919050565b600081519050610dd481610a80565b92915050565b600060208284031215610df057610def610a71565b5b6000610dfe84828501610dc5565b91505092915050565b7f596f75722062616c616e6365206973206c6f776572207468616e20746865206160008201527f6d6f756e74206f6620746f6b656e7320796f752077616e7420746f2073656c6c602082015250565b6000610e63604083610bb8565b9150610e6e82610e07565b604082019050919050565b60006020820190508181036000830152610e9281610e56565b9050919050565b7f4e487b7100000000000000000000000000000000000000000000000000000000600052601260045260246000fd5b7f4e487b7100000000000000000000000000000000000000000000000000000000600052601160045260246000fd5b6000610f0282610a76565b9150610f0d83610a76565b925082610f1d57610f1c610e99565b5b828204905092915050565b7f56656e646f7220686173206e6f7420656e6f7567682066756e647320746f206160008201527f6363657074207468652073656c6c207265717565737400000000000000000000602082015250565b6000610f84603683610bb8565b9150610f8f82610f28565b604082019050919050565b60006020820190508181036000830152610fb381610f77565b9050919050565b6000606082019050610fcf6000830186610b0b565b610fdc6020830185610b0b565b610fe96040830184610b35565b949350505050565b60008115159050919050565b61100681610ff1565b811461101157600080fd5b50565b60008151905061102381610ffd565b92915050565b60006020828403121561103f5761103e610a71565b5b600061104d84828501611014565b91505092915050565b7f4661696c656420746f207472616e7366657220746f6b656e732066726f6d207560008201527f73657220746f2076656e646f7200000000000000000000000000000000000000602082015250565b60006110b2602d83610bb8565b91506110bd82611056565b604082019050919050565b600060208201905081810360008301526110e1816110a5565b9050919050565b7f4661696c656420746f2073656e642045544820746f2074686520757365720000600082015250565b600061111e601e83610bb8565b9150611129826110e8565b602082019050919050565b6000602082019050818103600083015261114d81611111565b9050919050565b60006060820190506111696000830186610b0b565b6111766020830185610b35565b6111836040830184610b35565b949350505050565b7f53656e642045544820746f2062757920736f6d6520746f6b656e730000000000600082015250565b60006111c1601b83610bb8565b91506111cc8261118b565b602082019050919050565b600060208201905081810360008301526111f0816111b4565b9050919050565b600061120282610a76565b915061120d83610a76565b925082820261121b81610a76565b9150828204841483151761123257611231610ec8565b5b5092915050565b7f76656e646f7242616c616e636520697320300000000000000000000000000000600082015250565b600061126f601283610bb8565b915061127a82611239565b602082019050919050565b6000602082019050818103600083015261129e81611262565b9050919050565b7f56656e646f7220636f6e747261637420686173206e6f7420656e6f756768207460008201527f6f6b656e7320696e206974732062616c616e6365000000000000000000000000602082015250565b6000611301603483610bb8565b915061130c826112a5565b604082019050919050565b60006020820190508181036000830152611330816112f4565b9050919050565b600060408201905061134c6000830185610b0b565b6113596020830184610b35565b9392505050565b7f4661696c656420746f207472616e7366657220746f6b656e20746f2075736572600082015250565b6000611396602083610bb8565b91506113a182611360565b602082019050919050565b600060208201905081810360008301526113c581611389565b9050919050565b7f4f776e61626c653a206e6577206f776e657220697320746865207a65726f206160008201527f6464726573730000000000000000000000000000000000000000000000000000602082015250565b6000611428602683610bb8565b9150611433826113cc565b604082019050919050565b600060208201905081810360008301526114578161141b565b9050919050565b7f4f776e61626c653a2063616c6c6572206973206e6f7420746865206f776e6572600082015250565b6000611494602083610bb8565b915061149f8261145e565b602082019050919050565b600060208201905081810360008301526114c381611487565b905091905056fea2646970667358221220736e90039ca124f8ba1ab03fbe9fafe451f886b95cc96c223a55772ea8a56d1664736f6c63430008110033",
					"opcodes": "PUSH1 0x80 PUSH1 0x40 MSTORE PUSH1 0x64 PUSH1 0x2 SSTORE CALLVALUE DUP1 ISZERO PUSH3 0x16 JUMPI PUSH1 0x0 DUP1 REVERT JUMPDEST POP PUSH1 0x40 MLOAD PUSH3 0x171C CODESIZE SUB DUP1 PUSH3 0x171C DUP4 CODECOPY DUP2 DUP2 ADD PUSH1 0x40 MSTORE DUP2 ADD SWAP1 PUSH3 0x3C SWAP2 SWAP1 PUSH3 0x1DA JUMP JUMPDEST PUSH3 0x5C PUSH3 0x50 PUSH3 0xA4 PUSH1 0x20 SHL PUSH1 0x20 SHR JUMP JUMPDEST PUSH3 0xAC PUSH1 0x20 SHL PUSH1 0x20 SHR JUMP JUMPDEST DUP1 PUSH1 0x1 PUSH1 0x0 PUSH2 0x100 EXP DUP2 SLOAD DUP2 PUSH20 0xFFFFFFFFFFFFFFFFFFFFFFFFFFFFFFFFFFFFFFFF MUL NOT AND SWAP1 DUP4 PUSH20 0xFFFFFFFFFFFFFFFFFFFFFFFFFFFFFFFFFFFFFFFF AND MUL OR SWAP1 SSTORE POP POP PUSH3 0x20C JUMP JUMPDEST PUSH1 0x0 CALLER SWAP1 POP SWAP1 JUMP JUMPDEST PUSH1 0x0 DUP1 PUSH1 0x0 SWAP1 SLOAD SWAP1 PUSH2 0x100 EXP SWAP1 DIV PUSH20 0xFFFFFFFFFFFFFFFFFFFFFFFFFFFFFFFFFFFFFFFF AND SWAP1 POP DUP2 PUSH1 0x0 DUP1 PUSH2 0x100 EXP DUP2 SLOAD DUP2 PUSH20 0xFFFFFFFFFFFFFFFFFFFFFFFFFFFFFFFFFFFFFFFF MUL NOT AND SWAP1 DUP4 PUSH20 0xFFFFFFFFFFFFFFFFFFFFFFFFFFFFFFFFFFFFFFFF AND MUL OR SWAP1 SSTORE POP DUP2 PUSH20 0xFFFFFFFFFFFFFFFFFFFFFFFFFFFFFFFFFFFFFFFF AND DUP2 PUSH20 0xFFFFFFFFFFFFFFFFFFFFFFFFFFFFFFFFFFFFFFFF AND PUSH32 0x8BE0079C531659141344CD1FD0A4F28419497F9722A3DAAFE3B4186F6B6457E0 PUSH1 0x40 MLOAD PUSH1 0x40 MLOAD DUP1 SWAP2 SUB SWAP1 LOG3 POP POP JUMP JUMPDEST PUSH1 0x0 DUP1 REVERT JUMPDEST PUSH1 0x0 PUSH20 0xFFFFFFFFFFFFFFFFFFFFFFFFFFFFFFFFFFFFFFFF DUP3 AND SWAP1 POP SWAP2 SWAP1 POP JUMP JUMPDEST PUSH1 0x0 PUSH3 0x1A2 DUP3 PUSH3 0x175 JUMP JUMPDEST SWAP1 POP SWAP2 SWAP1 POP JUMP JUMPDEST PUSH3 0x1B4 DUP2 PUSH3 0x195 JUMP JUMPDEST DUP2 EQ PUSH3 0x1C0 JUMPI PUSH1 0x0 DUP1 REVERT JUMPDEST POP JUMP JUMPDEST PUSH1 0x0 DUP2 MLOAD SWAP1 POP PUSH3 0x1D4 DUP2 PUSH3 0x1A9 JUMP JUMPDEST SWAP3 SWAP2 POP POP JUMP JUMPDEST PUSH1 0x0 PUSH1 0x20 DUP3 DUP5 SUB SLT ISZERO PUSH3 0x1F3 JUMPI PUSH3 0x1F2 PUSH3 0x170 JUMP JUMPDEST JUMPDEST PUSH1 0x0 PUSH3 0x203 DUP5 DUP3 DUP6 ADD PUSH3 0x1C3 JUMP JUMPDEST SWAP2 POP POP SWAP3 SWAP2 POP POP JUMP JUMPDEST PUSH2 0x1500 DUP1 PUSH3 0x21C PUSH1 0x0 CODECOPY PUSH1 0x0 RETURN INVALID PUSH1 0x80 PUSH1 0x40 MSTORE PUSH1 0x4 CALLDATASIZE LT PUSH2 0x70 JUMPI PUSH1 0x0 CALLDATALOAD PUSH1 0xE0 SHR DUP1 PUSH4 0x8DA5CB5B GT PUSH2 0x4E JUMPI DUP1 PUSH4 0x8DA5CB5B EQ PUSH2 0xCC JUMPI DUP1 PUSH4 0xCBDD69B5 EQ PUSH2 0xF7 JUMPI DUP1 PUSH4 0xD0FEBE4C EQ PUSH2 0x122 JUMPI DUP1 PUSH4 0xF2FDE38B EQ PUSH2 0x140 JUMPI PUSH2 0x70 JUMP JUMPDEST DUP1 PUSH4 0x3CCFD60B EQ PUSH2 0x75 JUMPI DUP1 PUSH4 0x6C11BCD3 EQ PUSH2 0x8C JUMPI DUP1 PUSH4 0x715018A6 EQ PUSH2 0xB5 JUMPI JUMPDEST PUSH1 0x0 DUP1 REVERT JUMPDEST CALLVALUE DUP1 ISZERO PUSH2 0x81 JUMPI PUSH1 0x0 DUP1 REVERT JUMPDEST POP PUSH2 0x8A PUSH2 0x169 JUMP JUMPDEST STOP JUMPDEST CALLVALUE DUP1 ISZERO PUSH2 0x98 JUMPI PUSH1 0x0 DUP1 REVERT JUMPDEST POP PUSH2 0xB3 PUSH1 0x4 DUP1 CALLDATASIZE SUB DUP2 ADD SWAP1 PUSH2 0xAE SWAP2 SWAP1 PUSH2 0xAAC JUMP JUMPDEST PUSH2 0x269 JUMP JUMPDEST STOP JUMPDEST CALLVALUE DUP1 ISZERO PUSH2 0xC1 JUMPI PUSH1 0x0 DUP1 REVERT JUMPDEST POP PUSH2 0xCA PUSH2 0x5BD JUMP JUMPDEST STOP JUMPDEST CALLVALUE DUP1 ISZERO PUSH2 0xD8 JUMPI PUSH1 0x0 DUP1 REVERT JUMPDEST POP PUSH2 0xE1 PUSH2 0x5D1 JUMP JUMPDEST PUSH1 0x40 MLOAD PUSH2 0xEE SWAP2 SWAP1 PUSH2 0xB1A JUMP JUMPDEST PUSH1 0x40 MLOAD DUP1 SWAP2 SUB SWAP1 RETURN JUMPDEST CALLVALUE DUP1 ISZERO PUSH2 0x103 JUMPI PUSH1 0x0 DUP1 REVERT JUMPDEST POP PUSH2 0x10C PUSH2 0x5FA JUMP JUMPDEST PUSH1 0x40 MLOAD PUSH2 0x119 SWAP2 SWAP1 PUSH2 0xB44 JUMP JUMPDEST PUSH1 0x40 MLOAD DUP1 SWAP2 SUB SWAP1 RETURN JUMPDEST PUSH2 0x12A PUSH2 0x600 JUMP JUMPDEST PUSH1 0x40 MLOAD PUSH2 0x137 SWAP2 SWAP1 PUSH2 0xB44 JUMP JUMPDEST PUSH1 0x40 MLOAD DUP1 SWAP2 SUB SWAP1 RETURN JUMPDEST CALLVALUE DUP1 ISZERO PUSH2 0x14C JUMPI PUSH1 0x0 DUP1 REVERT JUMPDEST POP PUSH2 0x167 PUSH1 0x4 DUP1 CALLDATASIZE SUB DUP2 ADD SWAP1 PUSH2 0x162 SWAP2 SWAP1 PUSH2 0xB8B JUMP JUMPDEST PUSH2 0x8A4 JUMP JUMPDEST STOP JUMPDEST PUSH2 0x171 PUSH2 0x927 JUMP JUMPDEST PUSH1 0x0 SELFBALANCE SWAP1 POP PUSH1 0x0 DUP2 GT PUSH2 0x1B9 JUMPI PUSH1 0x40 MLOAD PUSH32 0x8C379A000000000000000000000000000000000000000000000000000000000 DUP2 MSTORE PUSH1 0x4 ADD PUSH2 0x1B0 SWAP1 PUSH2 0xC3B JUMP JUMPDEST PUSH1 0x40 MLOAD DUP1 SWAP2 SUB SWAP1 REVERT JUMPDEST PUSH1 0x0 CALLER PUSH20 0xFFFFFFFFFFFFFFFFFFFFFFFFFFFFFFFFFFFFFFFF AND SELFBALANCE PUSH1 0x40 MLOAD PUSH2 0x1DF SWAP1 PUSH2 0xC8C JUMP JUMPDEST PUSH1 0x0 PUSH1 0x40 MLOAD DUP1 DUP4 SUB DUP2 DUP6 DUP8 GAS CALL SWAP3 POP POP POP RETURNDATASIZE DUP1 PUSH1 0x0 DUP2 EQ PUSH2 0x21C JUMPI PUSH1 0x40 MLOAD SWAP2 POP PUSH1 0x1F NOT PUSH1 0x3F RETURNDATASIZE ADD AND DUP3 ADD PUSH1 0x40 MSTORE RETURNDATASIZE DUP3 MSTORE RETURNDATASIZE PUSH1 0x0 PUSH1 0x20 DUP5 ADD RETURNDATACOPY PUSH2 0x221 JUMP JUMPDEST PUSH1 0x60 SWAP2 POP JUMPDEST POP POP SWAP1 POP DUP1 PUSH2 0x265 JUMPI PUSH1 0x40 MLOAD PUSH32 0x8C379A000000000000000000000000000000000000000000000000000000000 DUP2 MSTORE PUSH1 0x4 ADD PUSH2 0x25C SWAP1 PUSH2 0xD13 JUMP JUMPDEST PUSH1 0x40 MLOAD DUP1 SWAP2 SUB SWAP1 REVERT JUMPDEST POP POP JUMP JUMPDEST PUSH1 0x0 DUP2 GT PUSH2 0x2AC JUMPI PUSH1 0x40 MLOAD PUSH32 0x8C379A000000000000000000000000000000000000000000000000000000000 DUP2 MSTORE PUSH1 0x4 ADD PUSH2 0x2A3 SWAP1 PUSH2 0xDA5 JUMP JUMPDEST PUSH1 0x40 MLOAD DUP1 SWAP2 SUB SWAP1 REVERT JUMPDEST PUSH1 0x0 PUSH1 0x1 PUSH1 0x0 SWAP1 SLOAD SWAP1 PUSH2 0x100 EXP SWAP1 DIV PUSH20 0xFFFFFFFFFFFFFFFFFFFFFFFFFFFFFFFFFFFFFFFF AND PUSH20 0xFFFFFFFFFFFFFFFFFFFFFFFFFFFFFFFFFFFFFFFF AND PUSH4 0x70A08231 CALLER PUSH1 0x40 MLOAD DUP3 PUSH4 0xFFFFFFFF AND PUSH1 0xE0 SHL DUP2 MSTORE PUSH1 0x4 ADD PUSH2 0x309 SWAP2 SWAP1 PUSH2 0xB1A JUMP JUMPDEST PUSH1 0x20 PUSH1 0x40 MLOAD DUP1 DUP4 SUB DUP2 DUP7 GAS STATICCALL ISZERO DUP1 ISZERO PUSH2 0x326 JUMPI RETURNDATASIZE PUSH1 0x0 DUP1 RETURNDATACOPY RETURNDATASIZE PUSH1 0x0 REVERT JUMPDEST POP POP POP POP PUSH1 0x40 MLOAD RETURNDATASIZE PUSH1 0x1F NOT PUSH1 0x1F DUP3 ADD AND DUP3 ADD DUP1 PUSH1 0x40 MSTORE POP DUP2 ADD SWAP1 PUSH2 0x34A SWAP2 SWAP1 PUSH2 0xDDA JUMP JUMPDEST SWAP1 POP DUP2 DUP2 LT ISZERO PUSH2 0x38F JUMPI PUSH1 0x40 MLOAD PUSH32 0x8C379A000000000000000000000000000000000000000000000000000000000 DUP2 MSTORE PUSH1 0x4 ADD PUSH2 0x386 SWAP1 PUSH2 0xE79 JUMP JUMPDEST PUSH1 0x40 MLOAD DUP1 SWAP2 SUB SWAP1 REVERT JUMPDEST PUSH1 0x0 PUSH1 0x2 SLOAD DUP4 PUSH2 0x39F SWAP2 SWAP1 PUSH2 0xEF7 JUMP JUMPDEST SWAP1 POP PUSH1 0x0 SELFBALANCE SWAP1 POP DUP2 DUP2 LT ISZERO PUSH2 0x3E9 JUMPI PUSH1 0x40 MLOAD PUSH32 0x8C379A000000000000000000000000000000000000000000000000000000000 DUP2 MSTORE PUSH1 0x4 ADD PUSH2 0x3E0 SWAP1 PUSH2 0xF9A JUMP JUMPDEST PUSH1 0x40 MLOAD DUP1 SWAP2 SUB SWAP1 REVERT JUMPDEST PUSH1 0x0 PUSH1 0x1 PUSH1 0x0 SWAP1 SLOAD SWAP1 PUSH2 0x100 EXP SWAP1 DIV PUSH20 0xFFFFFFFFFFFFFFFFFFFFFFFFFFFFFFFFFFFFFFFF AND PUSH20 0xFFFFFFFFFFFFFFFFFFFFFFFFFFFFFFFFFFFFFFFF AND PUSH4 0x23B872DD CALLER ADDRESS DUP9 PUSH1 0x40 MLOAD DUP5 PUSH4 0xFFFFFFFF AND PUSH1 0xE0 SHL DUP2 MSTORE PUSH1 0x4 ADD PUSH2 0x44A SWAP4 SWAP3 SWAP2 SWAP1 PUSH2 0xFBA JUMP JUMPDEST PUSH1 0x20 PUSH1 0x40 MLOAD DUP1 DUP4 SUB DUP2 PUSH1 0x0 DUP8 GAS CALL ISZERO DUP1 ISZERO PUSH2 0x469 JUMPI RETURNDATASIZE PUSH1 0x0 DUP1 RETURNDATACOPY RETURNDATASIZE PUSH1 0x0 REVERT JUMPDEST POP POP POP POP PUSH1 0x40 MLOAD RETURNDATASIZE PUSH1 0x1F NOT PUSH1 0x1F DUP3 ADD AND DUP3 ADD DUP1 PUSH1 0x40 MSTORE POP DUP2 ADD SWAP1 PUSH2 0x48D SWAP2 SWAP1 PUSH2 0x1029 JUMP JUMPDEST SWAP1 POP DUP1 PUSH2 0x4CF JUMPI PUSH1 0x40 MLOAD PUSH32 0x8C379A000000000000000000000000000000000000000000000000000000000 DUP2 MSTORE PUSH1 0x4 ADD PUSH2 0x4C6 SWAP1 PUSH2 0x10C8 JUMP JUMPDEST PUSH1 0x40 MLOAD DUP1 SWAP2 SUB SWAP1 REVERT JUMPDEST CALLER PUSH20 0xFFFFFFFFFFFFFFFFFFFFFFFFFFFFFFFFFFFFFFFF AND DUP4 PUSH1 0x40 MLOAD PUSH2 0x4F3 SWAP1 PUSH2 0xC8C JUMP JUMPDEST PUSH1 0x0 PUSH1 0x40 MLOAD DUP1 DUP4 SUB DUP2 DUP6 DUP8 GAS CALL SWAP3 POP POP POP RETURNDATASIZE DUP1 PUSH1 0x0 DUP2 EQ PUSH2 0x530 JUMPI PUSH1 0x40 MLOAD SWAP2 POP PUSH1 0x1F NOT PUSH1 0x3F RETURNDATASIZE ADD AND DUP3 ADD PUSH1 0x40 MSTORE RETURNDATASIZE DUP3 MSTORE RETURNDATASIZE PUSH1 0x0 PUSH1 0x20 DUP5 ADD RETURNDATACOPY PUSH2 0x535 JUMP JUMPDEST PUSH1 0x60 SWAP2 POP JUMPDEST POP POP DUP1 SWAP2 POP POP DUP1 PUSH2 0x57B JUMPI PUSH1 0x40 MLOAD PUSH32 0x8C379A000000000000000000000000000000000000000000000000000000000 DUP2 MSTORE PUSH1 0x4 ADD PUSH2 0x572 SWAP1 PUSH2 0x1134 JUMP JUMPDEST PUSH1 0x40 MLOAD DUP1 SWAP2 SUB SWAP1 REVERT JUMPDEST PUSH32 0xA24838ACD4AF5195A2396965DAE5ABF54E84E8C19F5698BB966AE64E29994EE5 CALLER DUP7 DUP6 PUSH1 0x40 MLOAD PUSH2 0x5AE SWAP4 SWAP3 SWAP2 SWAP1 PUSH2 0x1154 JUMP JUMPDEST PUSH1 0x40 MLOAD DUP1 SWAP2 SUB SWAP1 LOG1 POP POP POP POP POP JUMP JUMPDEST PUSH2 0x5C5 PUSH2 0x927 JUMP JUMPDEST PUSH2 0x5CF PUSH1 0x0 PUSH2 0x9A5 JUMP JUMPDEST JUMP JUMPDEST PUSH1 0x0 DUP1 PUSH1 0x0 SWAP1 SLOAD SWAP1 PUSH2 0x100 EXP SWAP1 DIV PUSH20 0xFFFFFFFFFFFFFFFFFFFFFFFFFFFFFFFFFFFFFFFF AND SWAP1 POP SWAP1 JUMP JUMPDEST PUSH1 0x2 SLOAD DUP2 JUMP JUMPDEST PUSH1 0x0 DUP1 CALLVALUE GT PUSH2 0x644 JUMPI PUSH1 0x40 MLOAD PUSH32 0x8C379A000000000000000000000000000000000000000000000000000000000 DUP2 MSTORE PUSH1 0x4 ADD PUSH2 0x63B SWAP1 PUSH2 0x11D7 JUMP JUMPDEST PUSH1 0x40 MLOAD DUP1 SWAP2 SUB SWAP1 REVERT JUMPDEST PUSH1 0x0 PUSH1 0x2 SLOAD CALLVALUE PUSH2 0x654 SWAP2 SWAP1 PUSH2 0x11F7 JUMP JUMPDEST SWAP1 POP PUSH1 0x0 PUSH1 0x1 PUSH1 0x0 SWAP1 SLOAD SWAP1 PUSH2 0x100 EXP SWAP1 DIV PUSH20 0xFFFFFFFFFFFFFFFFFFFFFFFFFFFFFFFFFFFFFFFF AND PUSH20 0xFFFFFFFFFFFFFFFFFFFFFFFFFFFFFFFFFFFFFFFF AND PUSH4 0x70A08231 ADDRESS PUSH1 0x40 MLOAD DUP3 PUSH4 0xFFFFFFFF AND PUSH1 0xE0 SHL DUP2 MSTORE PUSH1 0x4 ADD PUSH2 0x6B3 SWAP2 SWAP1 PUSH2 0xB1A JUMP JUMPDEST PUSH1 0x20 PUSH1 0x40 MLOAD DUP1 DUP4 SUB DUP2 DUP7 GAS STATICCALL ISZERO DUP1 ISZERO PUSH2 0x6D0 JUMPI RETURNDATASIZE PUSH1 0x0 DUP1 RETURNDATACOPY RETURNDATASIZE PUSH1 0x0 REVERT JUMPDEST POP POP POP POP PUSH1 0x40 MLOAD RETURNDATASIZE PUSH1 0x1F NOT PUSH1 0x1F DUP3 ADD AND DUP3 ADD DUP1 PUSH1 0x40 MSTORE POP DUP2 ADD SWAP1 PUSH2 0x6F4 SWAP2 SWAP1 PUSH2 0xDDA JUMP JUMPDEST SWAP1 POP PUSH1 0x0 DUP2 GT PUSH2 0x739 JUMPI PUSH1 0x40 MLOAD PUSH32 0x8C379A000000000000000000000000000000000000000000000000000000000 DUP2 MSTORE PUSH1 0x4 ADD PUSH2 0x730 SWAP1 PUSH2 0x1285 JUMP JUMPDEST PUSH1 0x40 MLOAD DUP1 SWAP2 SUB SWAP1 REVERT JUMPDEST DUP2 DUP2 LT ISZERO PUSH2 0x77C JUMPI PUSH1 0x40 MLOAD PUSH32 0x8C379A000000000000000000000000000000000000000000000000000000000 DUP2 MSTORE PUSH1 0x4 ADD PUSH2 0x773 SWAP1 PUSH2 0x1317 JUMP JUMPDEST PUSH1 0x40 MLOAD DUP1 SWAP2 SUB SWAP1 REVERT JUMPDEST PUSH1 0x0 PUSH1 0x1 PUSH1 0x0 SWAP1 SLOAD SWAP1 PUSH2 0x100 EXP SWAP1 DIV PUSH20 0xFFFFFFFFFFFFFFFFFFFFFFFFFFFFFFFFFFFFFFFF AND PUSH20 0xFFFFFFFFFFFFFFFFFFFFFFFFFFFFFFFFFFFFFFFF AND PUSH4 0xA9059CBB CALLER DUP6 PUSH1 0x40 MLOAD DUP4 PUSH4 0xFFFFFFFF AND PUSH1 0xE0 SHL DUP2 MSTORE PUSH1 0x4 ADD PUSH2 0x7DB SWAP3 SWAP2 SWAP1 PUSH2 0x1337 JUMP JUMPDEST PUSH1 0x20 PUSH1 0x40 MLOAD DUP1 DUP4 SUB DUP2 PUSH1 0x0 DUP8 GAS CALL ISZERO DUP1 ISZERO PUSH2 0x7FA JUMPI RETURNDATASIZE PUSH1 0x0 DUP1 RETURNDATACOPY RETURNDATASIZE PUSH1 0x0 REVERT JUMPDEST POP POP POP POP PUSH1 0x40 MLOAD RETURNDATASIZE PUSH1 0x1F NOT PUSH1 0x1F DUP3 ADD AND DUP3 ADD DUP1 PUSH1 0x40 MSTORE POP DUP2 ADD SWAP1 PUSH2 0x81E SWAP2 SWAP1 PUSH2 0x1029 JUMP JUMPDEST SWAP1 POP DUP1 PUSH2 0x860 JUMPI PUSH1 0x40 MLOAD PUSH32 0x8C379A000000000000000000000000000000000000000000000000000000000 DUP2 MSTORE PUSH1 0x4 ADD PUSH2 0x857 SWAP1 PUSH2 0x13AC JUMP JUMPDEST PUSH1 0x40 MLOAD DUP1 SWAP2 SUB SWAP1 REVERT JUMPDEST PUSH32 0xA37B72BB67EEE30E09084CF386F8A17817C57F620C3AB95FB25D6A20356EC77 CALLER CALLVALUE DUP6 PUSH1 0x40 MLOAD PUSH2 0x893 SWAP4 SWAP3 SWAP2 SWAP1 PUSH2 0x1154 JUMP JUMPDEST PUSH1 0x40 MLOAD DUP1 SWAP2 SUB SWAP1 LOG1 DUP3 SWAP4 POP POP POP POP SWAP1 JUMP JUMPDEST PUSH2 0x8AC PUSH2 0x927 JUMP JUMPDEST PUSH1 0x0 PUSH20 0xFFFFFFFFFFFFFFFFFFFFFFFFFFFFFFFFFFFFFFFF AND DUP2 PUSH20 0xFFFFFFFFFFFFFFFFFFFFFFFFFFFFFFFFFFFFFFFF AND SUB PUSH2 0x91B JUMPI PUSH1 0x40 MLOAD PUSH32 0x8C379A000000000000000000000000000000000000000000000000000000000 DUP2 MSTORE PUSH1 0x4 ADD PUSH2 0x912 SWAP1 PUSH2 0x143E JUMP JUMPDEST PUSH1 0x40 MLOAD DUP1 SWAP2 SUB SWAP1 REVERT JUMPDEST PUSH2 0x924 DUP2 PUSH2 0x9A5 JUMP JUMPDEST POP JUMP JUMPDEST PUSH2 0x92F PUSH2 0xA69 JUMP JUMPDEST PUSH20 0xFFFFFFFFFFFFFFFFFFFFFFFFFFFFFFFFFFFFFFFF AND PUSH2 0x94D PUSH2 0x5D1 JUMP JUMPDEST PUSH20 0xFFFFFFFFFFFFFFFFFFFFFFFFFFFFFFFFFFFFFFFF AND EQ PUSH2 0x9A3 JUMPI PUSH1 0x40 MLOAD PUSH32 0x8C379A000000000000000000000000000000000000000000000000000000000 DUP2 MSTORE PUSH1 0x4 ADD PUSH2 0x99A SWAP1 PUSH2 0x14AA JUMP JUMPDEST PUSH1 0x40 MLOAD DUP1 SWAP2 SUB SWAP1 REVERT JUMPDEST JUMP JUMPDEST PUSH1 0x0 DUP1 PUSH1 0x0 SWAP1 SLOAD SWAP1 PUSH2 0x100 EXP SWAP1 DIV PUSH20 0xFFFFFFFFFFFFFFFFFFFFFFFFFFFFFFFFFFFFFFFF AND SWAP1 POP DUP2 PUSH1 0x0 DUP1 PUSH2 0x100 EXP DUP2 SLOAD DUP2 PUSH20 0xFFFFFFFFFFFFFFFFFFFFFFFFFFFFFFFFFFFFFFFF MUL NOT AND SWAP1 DUP4 PUSH20 0xFFFFFFFFFFFFFFFFFFFFFFFFFFFFFFFFFFFFFFFF AND MUL OR SWAP1 SSTORE POP DUP2 PUSH20 0xFFFFFFFFFFFFFFFFFFFFFFFFFFFFFFFFFFFFFFFF AND DUP2 PUSH20 0xFFFFFFFFFFFFFFFFFFFFFFFFFFFFFFFFFFFFFFFF AND PUSH32 0x8BE0079C531659141344CD1FD0A4F28419497F9722A3DAAFE3B4186F6B6457E0 PUSH1 0x40 MLOAD PUSH1 0x40 MLOAD DUP1 SWAP2 SUB SWAP1 LOG3 POP POP JUMP JUMPDEST PUSH1 0x0 CALLER SWAP1 POP SWAP1 JUMP JUMPDEST PUSH1 0x0 DUP1 REVERT JUMPDEST PUSH1 0x0 DUP2 SWAP1 POP SWAP2 SWAP1 POP JUMP JUMPDEST PUSH2 0xA89 DUP2 PUSH2 0xA76 JUMP JUMPDEST DUP2 EQ PUSH2 0xA94 JUMPI PUSH1 0x0 DUP1 REVERT JUMPDEST POP JUMP JUMPDEST PUSH1 0x0 DUP2 CALLDATALOAD SWAP1 POP PUSH2 0xAA6 DUP2 PUSH2 0xA80 JUMP JUMPDEST SWAP3 SWAP2 POP POP JUMP JUMPDEST PUSH1 0x0 PUSH1 0x20 DUP3 DUP5 SUB SLT ISZERO PUSH2 0xAC2 JUMPI PUSH2 0xAC1 PUSH2 0xA71 JUMP JUMPDEST JUMPDEST PUSH1 0x0 PUSH2 0xAD0 DUP5 DUP3 DUP6 ADD PUSH2 0xA97 JUMP JUMPDEST SWAP2 POP POP SWAP3 SWAP2 POP POP JUMP JUMPDEST PUSH1 0x0 PUSH20 0xFFFFFFFFFFFFFFFFFFFFFFFFFFFFFFFFFFFFFFFF DUP3 AND SWAP1 POP SWAP2 SWAP1 POP JUMP JUMPDEST PUSH1 0x0 PUSH2 0xB04 DUP3 PUSH2 0xAD9 JUMP JUMPDEST SWAP1 POP SWAP2 SWAP1 POP JUMP JUMPDEST PUSH2 0xB14 DUP2 PUSH2 0xAF9 JUMP JUMPDEST DUP3 MSTORE POP POP JUMP JUMPDEST PUSH1 0x0 PUSH1 0x20 DUP3 ADD SWAP1 POP PUSH2 0xB2F PUSH1 0x0 DUP4 ADD DUP5 PUSH2 0xB0B JUMP JUMPDEST SWAP3 SWAP2 POP POP JUMP JUMPDEST PUSH2 0xB3E DUP2 PUSH2 0xA76 JUMP JUMPDEST DUP3 MSTORE POP POP JUMP JUMPDEST PUSH1 0x0 PUSH1 0x20 DUP3 ADD SWAP1 POP PUSH2 0xB59 PUSH1 0x0 DUP4 ADD DUP5 PUSH2 0xB35 JUMP JUMPDEST SWAP3 SWAP2 POP POP JUMP JUMPDEST PUSH2 0xB68 DUP2 PUSH2 0xAF9 JUMP JUMPDEST DUP2 EQ PUSH2 0xB73 JUMPI PUSH1 0x0 DUP1 REVERT JUMPDEST POP JUMP JUMPDEST PUSH1 0x0 DUP2 CALLDATALOAD SWAP1 POP PUSH2 0xB85 DUP2 PUSH2 0xB5F JUMP JUMPDEST SWAP3 SWAP2 POP POP JUMP JUMPDEST PUSH1 0x0 PUSH1 0x20 DUP3 DUP5 SUB SLT ISZERO PUSH2 0xBA1 JUMPI PUSH2 0xBA0 PUSH2 0xA71 JUMP JUMPDEST JUMPDEST PUSH1 0x0 PUSH2 0xBAF DUP5 DUP3 DUP6 ADD PUSH2 0xB76 JUMP JUMPDEST SWAP2 POP POP SWAP3 SWAP2 POP POP JUMP JUMPDEST PUSH1 0x0 DUP3 DUP3 MSTORE PUSH1 0x20 DUP3 ADD SWAP1 POP SWAP3 SWAP2 POP POP JUMP JUMPDEST PUSH32 0x4F776E657220686173206E6F742062616C616E636520746F2077697468647261 PUSH1 0x0 DUP3 ADD MSTORE PUSH32 0x7700000000000000000000000000000000000000000000000000000000000000 PUSH1 0x20 DUP3 ADD MSTORE POP JUMP JUMPDEST PUSH1 0x0 PUSH2 0xC25 PUSH1 0x21 DUP4 PUSH2 0xBB8 JUMP JUMPDEST SWAP2 POP PUSH2 0xC30 DUP3 PUSH2 0xBC9 JUMP JUMPDEST PUSH1 0x40 DUP3 ADD SWAP1 POP SWAP2 SWAP1 POP JUMP JUMPDEST PUSH1 0x0 PUSH1 0x20 DUP3 ADD SWAP1 POP DUP2 DUP2 SUB PUSH1 0x0 DUP4 ADD MSTORE PUSH2 0xC54 DUP2 PUSH2 0xC18 JUMP JUMPDEST SWAP1 POP SWAP2 SWAP1 POP JUMP JUMPDEST PUSH1 0x0 DUP2 SWAP1 POP SWAP3 SWAP2 POP POP JUMP JUMPDEST POP JUMP JUMPDEST PUSH1 0x0 PUSH2 0xC76 PUSH1 0x0 DUP4 PUSH2 0xC5B JUMP JUMPDEST SWAP2 POP PUSH2 0xC81 DUP3 PUSH2 0xC66 JUMP JUMPDEST PUSH1 0x0 DUP3 ADD SWAP1 POP SWAP2 SWAP1 POP JUMP JUMPDEST PUSH1 0x0 PUSH2 0xC97 DUP3 PUSH2 0xC69 JUMP JUMPDEST SWAP2 POP DUP2 SWAP1 POP SWAP2 SWAP1 POP JUMP JUMPDEST PUSH32 0x4661696C656420746F2073656E6420757365722062616C616E6365206261636B PUSH1 0x0 DUP3 ADD MSTORE PUSH32 0x20746F20746865206F776E657200000000000000000000000000000000000000 PUSH1 0x20 DUP3 ADD MSTORE POP JUMP JUMPDEST PUSH1 0x0 PUSH2 0xCFD PUSH1 0x2D DUP4 PUSH2 0xBB8 JUMP JUMPDEST SWAP2 POP PUSH2 0xD08 DUP3 PUSH2 0xCA1 JUMP JUMPDEST PUSH1 0x40 DUP3 ADD SWAP1 POP SWAP2 SWAP1 POP JUMP JUMPDEST PUSH1 0x0 PUSH1 0x20 DUP3 ADD SWAP1 POP DUP2 DUP2 SUB PUSH1 0x0 DUP4 ADD MSTORE PUSH2 0xD2C DUP2 PUSH2 0xCF0 JUMP JUMPDEST SWAP1 POP SWAP2 SWAP1 POP JUMP JUMPDEST PUSH32 0x5370656369667920616E20616D6F756E74206F6620746F6B656E206772656174 PUSH1 0x0 DUP3 ADD MSTORE PUSH32 0x6572207468616E207A65726F0000000000000000000000000000000000000000 PUSH1 0x20 DUP3 ADD MSTORE POP JUMP JUMPDEST PUSH1 0x0 PUSH2 0xD8F PUSH1 0x2C DUP4 PUSH2 0xBB8 JUMP JUMPDEST SWAP2 POP PUSH2 0xD9A DUP3 PUSH2 0xD33 JUMP JUMPDEST PUSH1 0x40 DUP3 ADD SWAP1 POP SWAP2 SWAP1 POP JUMP JUMPDEST PUSH1 0x0 PUSH1 0x20 DUP3 ADD SWAP1 POP DUP2 DUP2 SUB PUSH1 0x0 DUP4 ADD MSTORE PUSH2 0xDBE DUP2 PUSH2 0xD82 JUMP JUMPDEST SWAP1 POP SWAP2 SWAP1 POP JUMP JUMPDEST PUSH1 0x0 DUP2 MLOAD SWAP1 POP PUSH2 0xDD4 DUP2 PUSH2 0xA80 JUMP JUMPDEST SWAP3 SWAP2 POP POP JUMP JUMPDEST PUSH1 0x0 PUSH1 0x20 DUP3 DUP5 SUB SLT ISZERO PUSH2 0xDF0 JUMPI PUSH2 0xDEF PUSH2 0xA71 JUMP JUMPDEST JUMPDEST PUSH1 0x0 PUSH2 0xDFE DUP5 DUP3 DUP6 ADD PUSH2 0xDC5 JUMP JUMPDEST SWAP2 POP POP SWAP3 SWAP2 POP POP JUMP JUMPDEST PUSH32 0x596F75722062616C616E6365206973206C6F776572207468616E207468652061 PUSH1 0x0 DUP3 ADD MSTORE PUSH32 0x6D6F756E74206F6620746F6B656E7320796F752077616E7420746F2073656C6C PUSH1 0x20 DUP3 ADD MSTORE POP JUMP JUMPDEST PUSH1 0x0 PUSH2 0xE63 PUSH1 0x40 DUP4 PUSH2 0xBB8 JUMP JUMPDEST SWAP2 POP PUSH2 0xE6E DUP3 PUSH2 0xE07 JUMP JUMPDEST PUSH1 0x40 DUP3 ADD SWAP1 POP SWAP2 SWAP1 POP JUMP JUMPDEST PUSH1 0x0 PUSH1 0x20 DUP3 ADD SWAP1 POP DUP2 DUP2 SUB PUSH1 0x0 DUP4 ADD MSTORE PUSH2 0xE92 DUP2 PUSH2 0xE56 JUMP JUMPDEST SWAP1 POP SWAP2 SWAP1 POP JUMP JUMPDEST PUSH32 0x4E487B7100000000000000000000000000000000000000000000000000000000 PUSH1 0x0 MSTORE PUSH1 0x12 PUSH1 0x4 MSTORE PUSH1 0x24 PUSH1 0x0 REVERT JUMPDEST PUSH32 0x4E487B7100000000000000000000000000000000000000000000000000000000 PUSH1 0x0 MSTORE PUSH1 0x11 PUSH1 0x4 MSTORE PUSH1 0x24 PUSH1 0x0 REVERT JUMPDEST PUSH1 0x0 PUSH2 0xF02 DUP3 PUSH2 0xA76 JUMP JUMPDEST SWAP2 POP PUSH2 0xF0D DUP4 PUSH2 0xA76 JUMP JUMPDEST SWAP3 POP DUP3 PUSH2 0xF1D JUMPI PUSH2 0xF1C PUSH2 0xE99 JUMP JUMPDEST JUMPDEST DUP3 DUP3 DIV SWAP1 POP SWAP3 SWAP2 POP POP JUMP JUMPDEST PUSH32 0x56656E646F7220686173206E6F7420656E6F7567682066756E647320746F2061 PUSH1 0x0 DUP3 ADD MSTORE PUSH32 0x6363657074207468652073656C6C207265717565737400000000000000000000 PUSH1 0x20 DUP3 ADD MSTORE POP JUMP JUMPDEST PUSH1 0x0 PUSH2 0xF84 PUSH1 0x36 DUP4 PUSH2 0xBB8 JUMP JUMPDEST SWAP2 POP PUSH2 0xF8F DUP3 PUSH2 0xF28 JUMP JUMPDEST PUSH1 0x40 DUP3 ADD SWAP1 POP SWAP2 SWAP1 POP JUMP JUMPDEST PUSH1 0x0 PUSH1 0x20 DUP3 ADD SWAP1 POP DUP2 DUP2 SUB PUSH1 0x0 DUP4 ADD MSTORE PUSH2 0xFB3 DUP2 PUSH2 0xF77 JUMP JUMPDEST SWAP1 POP SWAP2 SWAP1 POP JUMP JUMPDEST PUSH1 0x0 PUSH1 0x60 DUP3 ADD SWAP1 POP PUSH2 0xFCF PUSH1 0x0 DUP4 ADD DUP7 PUSH2 0xB0B JUMP JUMPDEST PUSH2 0xFDC PUSH1 0x20 DUP4 ADD DUP6 PUSH2 0xB0B JUMP JUMPDEST PUSH2 0xFE9 PUSH1 0x40 DUP4 ADD DUP5 PUSH2 0xB35 JUMP JUMPDEST SWAP5 SWAP4 POP POP POP POP JUMP JUMPDEST PUSH1 0x0 DUP2 ISZERO ISZERO SWAP1 POP SWAP2 SWAP1 POP JUMP JUMPDEST PUSH2 0x1006 DUP2 PUSH2 0xFF1 JUMP JUMPDEST DUP2 EQ PUSH2 0x1011 JUMPI PUSH1 0x0 DUP1 REVERT JUMPDEST POP JUMP JUMPDEST PUSH1 0x0 DUP2 MLOAD SWAP1 POP PUSH2 0x1023 DUP2 PUSH2 0xFFD JUMP JUMPDEST SWAP3 SWAP2 POP POP JUMP JUMPDEST PUSH1 0x0 PUSH1 0x20 DUP3 DUP5 SUB SLT ISZERO PUSH2 0x103F JUMPI PUSH2 0x103E PUSH2 0xA71 JUMP JUMPDEST JUMPDEST PUSH1 0x0 PUSH2 0x104D DUP5 DUP3 DUP6 ADD PUSH2 0x1014 JUMP JUMPDEST SWAP2 POP POP SWAP3 SWAP2 POP POP JUMP JUMPDEST PUSH32 0x4661696C656420746F207472616E7366657220746F6B656E732066726F6D2075 PUSH1 0x0 DUP3 ADD MSTORE PUSH32 0x73657220746F2076656E646F7200000000000000000000000000000000000000 PUSH1 0x20 DUP3 ADD MSTORE POP JUMP JUMPDEST PUSH1 0x0 PUSH2 0x10B2 PUSH1 0x2D DUP4 PUSH2 0xBB8 JUMP JUMPDEST SWAP2 POP PUSH2 0x10BD DUP3 PUSH2 0x1056 JUMP JUMPDEST PUSH1 0x40 DUP3 ADD SWAP1 POP SWAP2 SWAP1 POP JUMP JUMPDEST PUSH1 0x0 PUSH1 0x20 DUP3 ADD SWAP1 POP DUP2 DUP2 SUB PUSH1 0x0 DUP4 ADD MSTORE PUSH2 0x10E1 DUP2 PUSH2 0x10A5 JUMP JUMPDEST SWAP1 POP SWAP2 SWAP1 POP JUMP JUMPDEST PUSH32 0x4661696C656420746F2073656E642045544820746F2074686520757365720000 PUSH1 0x0 DUP3 ADD MSTORE POP JUMP JUMPDEST PUSH1 0x0 PUSH2 0x111E PUSH1 0x1E DUP4 PUSH2 0xBB8 JUMP JUMPDEST SWAP2 POP PUSH2 0x1129 DUP3 PUSH2 0x10E8 JUMP JUMPDEST PUSH1 0x20 DUP3 ADD SWAP1 POP SWAP2 SWAP1 POP JUMP JUMPDEST PUSH1 0x0 PUSH1 0x20 DUP3 ADD SWAP1 POP DUP2 DUP2 SUB PUSH1 0x0 DUP4 ADD MSTORE PUSH2 0x114D DUP2 PUSH2 0x1111 JUMP JUMPDEST SWAP1 POP SWAP2 SWAP1 POP JUMP JUMPDEST PUSH1 0x0 PUSH1 0x60 DUP3 ADD SWAP1 POP PUSH2 0x1169 PUSH1 0x0 DUP4 ADD DUP7 PUSH2 0xB0B JUMP JUMPDEST PUSH2 0x1176 PUSH1 0x20 DUP4 ADD DUP6 PUSH2 0xB35 JUMP JUMPDEST PUSH2 0x1183 PUSH1 0x40 DUP4 ADD DUP5 PUSH2 0xB35 JUMP JUMPDEST SWAP5 SWAP4 POP POP POP POP JUMP JUMPDEST PUSH32 0x53656E642045544820746F2062757920736F6D6520746F6B656E730000000000 PUSH1 0x0 DUP3 ADD MSTORE POP JUMP JUMPDEST PUSH1 0x0 PUSH2 0x11C1 PUSH1 0x1B DUP4 PUSH2 0xBB8 JUMP JUMPDEST SWAP2 POP PUSH2 0x11CC DUP3 PUSH2 0x118B JUMP JUMPDEST PUSH1 0x20 DUP3 ADD SWAP1 POP SWAP2 SWAP1 POP JUMP JUMPDEST PUSH1 0x0 PUSH1 0x20 DUP3 ADD SWAP1 POP DUP2 DUP2 SUB PUSH1 0x0 DUP4 ADD MSTORE PUSH2 0x11F0 DUP2 PUSH2 0x11B4 JUMP JUMPDEST SWAP1 POP SWAP2 SWAP1 POP JUMP JUMPDEST PUSH1 0x0 PUSH2 0x1202 DUP3 PUSH2 0xA76 JUMP JUMPDEST SWAP2 POP PUSH2 0x120D DUP4 PUSH2 0xA76 JUMP JUMPDEST SWAP3 POP DUP3 DUP3 MUL PUSH2 0x121B DUP2 PUSH2 0xA76 JUMP JUMPDEST SWAP2 POP DUP3 DUP3 DIV DUP5 EQ DUP4 ISZERO OR PUSH2 0x1232 JUMPI PUSH2 0x1231 PUSH2 0xEC8 JUMP JUMPDEST JUMPDEST POP SWAP3 SWAP2 POP POP JUMP JUMPDEST PUSH32 0x76656E646F7242616C616E636520697320300000000000000000000000000000 PUSH1 0x0 DUP3 ADD MSTORE POP JUMP JUMPDEST PUSH1 0x0 PUSH2 0x126F PUSH1 0x12 DUP4 PUSH2 0xBB8 JUMP JUMPDEST SWAP2 POP PUSH2 0x127A DUP3 PUSH2 0x1239 JUMP JUMPDEST PUSH1 0x20 DUP3 ADD SWAP1 POP SWAP2 SWAP1 POP JUMP JUMPDEST PUSH1 0x0 PUSH1 0x20 DUP3 ADD SWAP1 POP DUP2 DUP2 SUB PUSH1 0x0 DUP4 ADD MSTORE PUSH2 0x129E DUP2 PUSH2 0x1262 JUMP JUMPDEST SWAP1 POP SWAP2 SWAP1 POP JUMP JUMPDEST PUSH32 0x56656E646F7220636F6E747261637420686173206E6F7420656E6F7567682074 PUSH1 0x0 DUP3 ADD MSTORE PUSH32 0x6F6B656E7320696E206974732062616C616E6365000000000000000000000000 PUSH1 0x20 DUP3 ADD MSTORE POP JUMP JUMPDEST PUSH1 0x0 PUSH2 0x1301 PUSH1 0x34 DUP4 PUSH2 0xBB8 JUMP JUMPDEST SWAP2 POP PUSH2 0x130C DUP3 PUSH2 0x12A5 JUMP JUMPDEST PUSH1 0x40 DUP3 ADD SWAP1 POP SWAP2 SWAP1 POP JUMP JUMPDEST PUSH1 0x0 PUSH1 0x20 DUP3 ADD SWAP1 POP DUP2 DUP2 SUB PUSH1 0x0 DUP4 ADD MSTORE PUSH2 0x1330 DUP2 PUSH2 0x12F4 JUMP JUMPDEST SWAP1 POP SWAP2 SWAP1 POP JUMP JUMPDEST PUSH1 0x0 PUSH1 0x40 DUP3 ADD SWAP1 POP PUSH2 0x134C PUSH1 0x0 DUP4 ADD DUP6 PUSH2 0xB0B JUMP JUMPDEST PUSH2 0x1359 PUSH1 0x20 DUP4 ADD DUP5 PUSH2 0xB35 JUMP JUMPDEST SWAP4 SWAP3 POP POP POP JUMP JUMPDEST PUSH32 0x4661696C656420746F207472616E7366657220746F6B656E20746F2075736572 PUSH1 0x0 DUP3 ADD MSTORE POP JUMP JUMPDEST PUSH1 0x0 PUSH2 0x1396 PUSH1 0x20 DUP4 PUSH2 0xBB8 JUMP JUMPDEST SWAP2 POP PUSH2 0x13A1 DUP3 PUSH2 0x1360 JUMP JUMPDEST PUSH1 0x20 DUP3 ADD SWAP1 POP SWAP2 SWAP1 POP JUMP JUMPDEST PUSH1 0x0 PUSH1 0x20 DUP3 ADD SWAP1 POP DUP2 DUP2 SUB PUSH1 0x0 DUP4 ADD MSTORE PUSH2 0x13C5 DUP2 PUSH2 0x1389 JUMP JUMPDEST SWAP1 POP SWAP2 SWAP1 POP JUMP JUMPDEST PUSH32 0x4F776E61626C653A206E6577206F776E657220697320746865207A65726F2061 PUSH1 0x0 DUP3 ADD MSTORE PUSH32 0x6464726573730000000000000000000000000000000000000000000000000000 PUSH1 0x20 DUP3 ADD MSTORE POP JUMP JUMPDEST PUSH1 0x0 PUSH2 0x1428 PUSH1 0x26 DUP4 PUSH2 0xBB8 JUMP JUMPDEST SWAP2 POP PUSH2 0x1433 DUP3 PUSH2 0x13CC JUMP JUMPDEST PUSH1 0x40 DUP3 ADD SWAP1 POP SWAP2 SWAP1 POP JUMP JUMPDEST PUSH1 0x0 PUSH1 0x20 DUP3 ADD SWAP1 POP DUP2 DUP2 SUB PUSH1 0x0 DUP4 ADD MSTORE PUSH2 0x1457 DUP2 PUSH2 0x141B JUMP JUMPDEST SWAP1 POP SWAP2 SWAP1 POP JUMP JUMPDEST PUSH32 0x4F776E61626C653A2063616C6C6572206973206E6F7420746865206F776E6572 PUSH1 0x0 DUP3 ADD MSTORE POP JUMP JUMPDEST PUSH1 0x0 PUSH2 0x1494 PUSH1 0x20 DUP4 PUSH2 0xBB8 JUMP JUMPDEST SWAP2 POP PUSH2 0x149F DUP3 PUSH2 0x145E JUMP JUMPDEST PUSH1 0x20 DUP3 ADD SWAP1 POP SWAP2 SWAP1 POP JUMP JUMPDEST PUSH1 0x0 PUSH1 0x20 DUP3 ADD SWAP1 POP DUP2 DUP2 SUB PUSH1 0x0 DUP4 ADD MSTORE PUSH2 0x14C3 DUP2 PUSH2 0x1487 JUMP JUMPDEST SWAP1 POP SWAP2 SWAP1 POP JUMP INVALID LOG2 PUSH5 0x6970667358 0x22 SLT KECCAK256 PUSH20 0x6E90039CA124F8BA1AB03FBE9FAFE451F886B95C 0xC9 PUSH13 0x223A55772EA8A56D1664736F6C PUSH4 0x43000811 STOP CALLER "
				},
				"gasEstimates": {
					"creation": {
						"codeDepositCost": "1075200",
						"executionCost": "infinite",
						"totalCost": "infinite"
					},
					"external": {
						"buyTokens()": "infinite",
						"owner()": "2522",
						"renounceOwnership()": "30443",
						"sellTokens(uint256)": "infinite",
						"tokensPerEth()": "2451",
						"transferOwnership(address)": "30810",
						"withdraw()": "infinite"
					}
				},
				"methodIdentifiers": {
					"buyTokens()": "d0febe4c",
					"owner()": "8da5cb5b",
					"renounceOwnership()": "715018a6",
					"sellTokens(uint256)": "6c11bcd3",
					"tokensPerEth()": "cbdd69b5",
					"transferOwnership(address)": "f2fde38b",
					"withdraw()": "3ccfd60b"
				}
			},
			"storageLayout": {
				"storage": [
					{
						"astId": 7,
						"contract": "contracts/ERC20MSHKTokenVendor.sol:ERC20MSHKTokenVendor",
						"label": "_owner",
						"offset": 0,
						"slot": "0",
						"type": "t_address"
					},
					{
						"astId": 856,
						"contract": "contracts/ERC20MSHKTokenVendor.sol:ERC20MSHKTokenVendor",
						"label": "mshkToken",
						"offset": 0,
						"slot": "1",
						"type": "t_contract(ERC20MSHKToken)847"
					},
					{
						"astId": 859,
						"contract": "contracts/ERC20MSHKTokenVendor.sol:ERC20MSHKTokenVendor",
						"label": "tokensPerEth",
						"offset": 0,
						"slot": "2",
						"type": "t_uint256"
					}
				],
				"types": {
					"t_address": {
						"encoding": "inplace",
						"label": "address",
						"numberOfBytes": "20"
					},
					"t_contract(ERC20MSHKToken)847": {
						"encoding": "inplace",
						"label": "contract ERC20MSHKToken",
						"numberOfBytes": "20"
					},
					"t_uint256": {
						"encoding": "inplace",
						"label": "uint256",
						"numberOfBytes": "32"
					}
				}
			},
			"userdoc": {
				"kind": "user",
				"methods": {
					"buyTokens()": {
						"notice": "允许用户使用BNB购买 Token"
					},
					"sellTokens(uint256)": {
						"notice": "允许用户卖出 Token 换回 BNB"
					},
					"withdraw()": {
						"notice": "允许我们转出所有的BNB，测试时使用"
					}
				},
				"version": 1
			}
		}
	}
}