{
	"contracts/uu.sol": {
		"uu": {
			"abi": [
				{
					"inputs": [],
					"stateMutability": "nonpayable",
					"type": "constructor"
				},
				{
					"anonymous": false,
					"inputs": [
						{
							"indexed": true,
							"internalType": "address",
							"name": "owner",
							"type": "address"
						},
						{
							"indexed": true,
							"internalType": "address",
							"name": "spender",
							"type": "address"
						},
						{
							"indexed": false,
							"internalType": "uint256",
							"name": "value",
							"type": "uint256"
						}
					],
					"name": "Approval",
					"type": "event"
				},
				{
					"anonymous": false,
					"inputs": [
						{
							"indexed": true,
							"internalType": "address",
							"name": "from",
							"type": "address"
						},
						{
							"indexed": true,
							"internalType": "address",
							"name": "to",
							"type": "address"
						},
						{
							"indexed": false,
							"internalType": "uint256",
							"name": "value",
							"type": "uint256"
						}
					],
					"name": "Transfer",
					"type": "event"
				},
				{
					"inputs": [
						{
							"internalType": "address",
							"name": "owner",
							"type": "address"
						},
						{
							"internalType": "address",
							"name": "spender",
							"type": "address"
						}
					],
					"name": "allowance",
					"outputs": [
						{
							"internalType": "uint256",
							"name": "",
							"type": "uint256"
						}
					],
					"stateMutability": "view",
					"type": "function"
				},
				{
					"inputs": [
						{
							"internalType": "address",
							"name": "spender",
							"type": "address"
						},
						{
							"internalType": "uint256",
							"name": "amount",
							"type": "uint256"
						}
					],
					"name": "approve",
					"outputs": [
						{
							"internalType": "bool",
							"name": "",
							"type": "bool"
						}
					],
					"stateMutability": "nonpayable",
					"type": "function"
				},
				{
					"inputs": [
						{
							"internalType": "address",
							"name": "account",
							"type": "address"
						}
					],
					"name": "balanceOf",
					"outputs": [
						{
							"internalType": "uint256",
							"name": "",
							"type": "uint256"
						}
					],
					"stateMutability": "view",
					"type": "function"
				},
				{
					"inputs": [],
					"name": "decimals",
					"outputs": [
						{
							"internalType": "uint8",
							"name": "",
							"type": "uint8"
						}
					],
					"stateMutability": "view",
					"type": "function"
				},
				{
					"inputs": [
						{
							"internalType": "address",
							"name": "spender",
							"type": "address"
						},
						{
							"internalType": "uint256",
							"name": "subtractedValue",
							"type": "uint256"
						}
					],
					"name": "decreaseAllowance",
					"outputs": [
						{
							"internalType": "bool",
							"name": "",
							"type": "bool"
						}
					],
					"stateMutability": "nonpayable",
					"type": "function"
				},
				{
					"inputs": [
						{
							"internalType": "address",
							"name": "spender",
							"type": "address"
						},
						{
							"internalType": "uint256",
							"name": "addedValue",
							"type": "uint256"
						}
					],
					"name": "increaseAllowance",
					"outputs": [
						{
							"internalType": "bool",
							"name": "",
							"type": "bool"
						}
					],
					"stateMutability": "nonpayable",
					"type": "function"
				},
				{
					"inputs": [],
					"name": "name",
					"outputs": [
						{
							"internalType": "string",
							"name": "",
							"type": "string"
						}
					],
					"stateMutability": "view",
					"type": "function"
				},
				{
					"inputs": [
						{
							"internalType": "uint256",
							"name": "_amount",
							"type": "uint256"
						}
					],
					"name": "stake",
					"outputs": [],
					"stateMutability": "nonpayable",
					"type": "function"
				},
				{
					"inputs": [],
					"name": "symbol",
					"outputs": [
						{
							"internalType": "string",
							"name": "",
							"type": "string"
						}
					],
					"stateMutability": "view",
					"type": "function"
				},
				{
					"inputs": [],
					"name": "totalSupply",
					"outputs": [
						{
							"internalType": "uint256",
							"name": "",
							"type": "uint256"
						}
					],
					"stateMutability": "view",
					"type": "function"
				},
				{
					"inputs": [
						{
							"internalType": "address",
							"name": "to",
							"type": "address"
						},
						{
							"internalType": "uint256",
							"name": "amount",
							"type": "uint256"
						}
					],
					"name": "transfer",
					"outputs": [
						{
							"internalType": "bool",
							"name": "",
							"type": "bool"
						}
					],
					"stateMutability": "nonpayable",
					"type": "function"
				},
				{
					"inputs": [
						{
							"internalType": "address",
							"name": "from",
							"type": "address"
						},
						{
							"internalType": "address",
							"name": "to",
							"type": "address"
						},
						{
							"internalType": "uint256",
							"name": "amount",
							"type": "uint256"
						}
					],
					"name": "transferFrom",
					"outputs": [
						{
							"internalType": "bool",
							"name": "",
							"type": "bool"
						}
					],
					"stateMutability": "nonpayable",
					"type": "function"
				}
			],
			"devdoc": {
				"kind": "dev",
				"methods": {
					"allowance(address,address)": {
						"details": "See {IERC20-allowance}."
					},
					"approve(address,uint256)": {
						"details": "See {IERC20-approve}. NOTE: If `amount` is the maximum `uint256`, the allowance is not updated on `transferFrom`. This is semantically equivalent to an infinite approval. Requirements: - `spender` cannot be the zero address."
					},
					"balanceOf(address)": {
						"details": "See {IERC20-balanceOf}."
					},
					"decimals()": {
						"details": "Returns the number of decimals used to get its user representation. For example, if `decimals` equals `2`, a balance of `505` tokens should be displayed to a user as `5.05` (`505 / 10 ** 2`). Tokens usually opt for a value of 18, imitating the relationship between Ether and Wei. This is the value {ERC20} uses, unless this function is overridden; NOTE: This information is only used for _display_ purposes: it in no way affects any of the arithmetic of the contract, including {IERC20-balanceOf} and {IERC20-transfer}."
					},
					"decreaseAllowance(address,uint256)": {
						"details": "Atomically decreases the allowance granted to `spender` by the caller. This is an alternative to {approve} that can be used as a mitigation for problems described in {IERC20-approve}. Emits an {Approval} event indicating the updated allowance. Requirements: - `spender` cannot be the zero address. - `spender` must have allowance for the caller of at least `subtractedValue`."
					},
					"increaseAllowance(address,uint256)": {
						"details": "Atomically increases the allowance granted to `spender` by the caller. This is an alternative to {approve} that can be used as a mitigation for problems described in {IERC20-approve}. Emits an {Approval} event indicating the updated allowance. Requirements: - `spender` cannot be the zero address."
					},
					"name()": {
						"details": "Returns the name of the token."
					},
					"symbol()": {
						"details": "Returns the symbol of the token, usually a shorter version of the name."
					},
					"totalSupply()": {
						"details": "See {IERC20-totalSupply}."
					},
					"transfer(address,uint256)": {
						"details": "See {IERC20-transfer}. Requirements: - `to` cannot be the zero address. - the caller must have a balance of at least `amount`."
					},
					"transferFrom(address,address,uint256)": {
						"details": "See {IERC20-transferFrom}. Emits an {Approval} event indicating the updated allowance. This is not required by the EIP. See the note at the beginning of {ERC20}. NOTE: Does not update the allowance if the current allowance is the maximum `uint256`. Requirements: - `from` and `to` cannot be the zero address. - `from` must have a balance of at least `amount`. - the caller must have allowance for ``from``'s tokens of at least `amount`."
					}
				},
				"version": 1
			},
			"evm": {
				"assembly": "    /* \"contracts/uu.sol\":136:380  contract uu is ERC20 {... */\n  mstore(0x40, 0x80)\n    /* \"contracts/uu.sol\":164:261  constructor() public ERC20(\"uu\", \"uu\") {... */\n  callvalue\n  dup1\n  iszero\n  tag_1\n  jumpi\n  0x00\n  dup1\n  revert\ntag_1:\n  pop\n    /* \"@openzeppelin/contracts/token/ERC20/ERC20.sol\":1978:2091  constructor(string memory name_, string memory symbol_) {... */\n  mload(0x40)\n  dup1\n  0x40\n  add\n  0x40\n  mstore\n  dup1\n  0x02\n  dup2\n  mstore\n  0x20\n  add\n  0x7575000000000000000000000000000000000000000000000000000000000000\n  dup2\n  mstore\n  pop\n  mload(0x40)\n  dup1\n  0x40\n  add\n  0x40\n  mstore\n  dup1\n  0x02\n  dup2\n  mstore\n  0x20\n  add\n  0x7575000000000000000000000000000000000000000000000000000000000000\n  dup2\n  mstore\n  pop\n    /* \"@openzeppelin/contracts/token/ERC20/ERC20.sol\":2052:2057  name_ */\n  dup2\n    /* \"@openzeppelin/contracts/token/ERC20/ERC20.sol\":2044:2049  _name */\n  0x03\n    /* \"@openzeppelin/contracts/token/ERC20/ERC20.sol\":2044:2057  _name = name_ */\n  swap1\n  dup2\n  tag_5\n  swap2\n  swap1\n  tag_6\n  jump\t// in\ntag_5:\n  pop\n    /* \"@openzeppelin/contracts/token/ERC20/ERC20.sol\":2077:2084  symbol_ */\n  dup1\n    /* \"@openzeppelin/contracts/token/ERC20/ERC20.sol\":2067:2074  _symbol */\n  0x04\n    /* \"@openzeppelin/contracts/token/ERC20/ERC20.sol\":2067:2084  _symbol = symbol_ */\n  swap1\n  dup2\n  tag_7\n  swap2\n  swap1\n  tag_6\n  jump\t// in\ntag_7:\n  pop\n    /* \"@openzeppelin/contracts/token/ERC20/ERC20.sol\":1978:2091  constructor(string memory name_, string memory symbol_) {... */\n  pop\n  pop\n    /* \"contracts/uu.sol\":215:254  _mint(address(this),1000000 * 10 ** 18) */\n  tag_9\n    /* \"contracts/uu.sol\":229:233  this */\n  address\n    /* \"contracts/uu.sol\":235:253  1000000 * 10 ** 18 */\n  0xd3c21bcecceda1000000\n    /* \"contracts/uu.sol\":215:220  _mint */\n  shl(0x20, tag_10)\n    /* \"contracts/uu.sol\":215:254  _mint(address(this),1000000 * 10 ** 18) */\n  0x20\n  shr\n  jump\t// in\ntag_9:\n    /* \"contracts/uu.sol\":136:380  contract uu is ERC20 {... */\n  jump(tag_11)\n    /* \"@openzeppelin/contracts/token/ERC20/ERC20.sol\":8402:8791  function _mint(address account, uint256 amount) internal virtual {... */\ntag_10:\n    /* \"@openzeppelin/contracts/token/ERC20/ERC20.sol\":8504:8505  0 */\n  0x00\n    /* \"@openzeppelin/contracts/token/ERC20/ERC20.sol\":8485:8506  account != address(0) */\n  0xffffffffffffffffffffffffffffffffffffffff\n  and\n    /* \"@openzeppelin/contracts/token/ERC20/ERC20.sol\":8485:8492  account */\n  dup3\n    /* \"@openzeppelin/contracts/token/ERC20/ERC20.sol\":8485:8506  account != address(0) */\n  0xffffffffffffffffffffffffffffffffffffffff\n  and\n  sub\n    /* \"@openzeppelin/contracts/token/ERC20/ERC20.sol\":8477:8542  require(account != address(0), \"ERC20: mint to the zero address\") */\n  tag_13\n  jumpi\n  mload(0x40)\n  0x08c379a000000000000000000000000000000000000000000000000000000000\n  dup2\n  mstore\n  0x04\n  add\n  tag_14\n  swap1\n  tag_15\n  jump\t// in\ntag_14:\n  mload(0x40)\n  dup1\n  swap2\n  sub\n  swap1\n  revert\ntag_13:\n    /* \"@openzeppelin/contracts/token/ERC20/ERC20.sol\":8553:8602  _beforeTokenTransfer(address(0), account, amount) */\n  tag_16\n    /* \"@openzeppelin/contracts/token/ERC20/ERC20.sol\":8582:8583  0 */\n  0x00\n    /* \"@openzeppelin/contracts/token/ERC20/ERC20.sol\":8586:8593  account */\n  dup4\n    /* \"@openzeppelin/contracts/token/ERC20/ERC20.sol\":8595:8601  amount */\n  dup4\n    /* \"@openzeppelin/contracts/token/ERC20/ERC20.sol\":8553:8573  _beforeTokenTransfer */\n  shl(0x20, tag_17)\n    /* \"@openzeppelin/contracts/token/ERC20/ERC20.sol\":8553:8602  _beforeTokenTransfer(address(0), account, amount) */\n  0x20\n  shr\n  jump\t// in\ntag_16:\n    /* \"@openzeppelin/contracts/token/ERC20/ERC20.sol\":8629:8635  amount */\n  dup1\n    /* \"@openzeppelin/contracts/token/ERC20/ERC20.sol\":8613:8625  _totalSupply */\n  0x02\n  0x00\n    /* \"@openzeppelin/contracts/token/ERC20/ERC20.sol\":8613:8635  _totalSupply += amount */\n  dup3\n  dup3\n  sload\n  tag_18\n  swap2\n  swap1\n  tag_19\n  jump\t// in\ntag_18:\n  swap3\n  pop\n  pop\n  dup2\n  swap1\n  sstore\n  pop\n    /* \"@openzeppelin/contracts/token/ERC20/ERC20.sol\":8667:8673  amount */\n  dup1\n    /* \"@openzeppelin/contracts/token/ERC20/ERC20.sol\":8645:8654  _balances */\n  0x00\n    /* \"@openzeppelin/contracts/token/ERC20/ERC20.sol\":8645:8663  _balances[account] */\n  dup1\n    /* \"@openzeppelin/contracts/token/ERC20/ERC20.sol\":8655:8662  account */\n  dup5\n    /* \"@openzeppelin/contracts/token/ERC20/ERC20.sol\":8645:8663  _balances[account] */\n  0xffffffffffffffffffffffffffffffffffffffff\n  and\n  0xffffffffffffffffffffffffffffffffffffffff\n  and\n  dup2\n  mstore\n  0x20\n  add\n  swap1\n  dup2\n  mstore\n  0x20\n  add\n  0x00\n  keccak256\n  0x00\n    /* \"@openzeppelin/contracts/token/ERC20/ERC20.sol\":8645:8673  _balances[account] += amount */\n  dup3\n  dup3\n  sload\n  tag_20\n  swap2\n  swap1\n  tag_19\n  jump\t// in\ntag_20:\n  swap3\n  pop\n  pop\n  dup2\n  swap1\n  sstore\n  pop\n    /* \"@openzeppelin/contracts/token/ERC20/ERC20.sol\":8709:8716  account */\n  dup2\n    /* \"@openzeppelin/contracts/token/ERC20/ERC20.sol\":8688:8725  Transfer(address(0), account, amount) */\n  0xffffffffffffffffffffffffffffffffffffffff\n  and\n    /* \"@openzeppelin/contracts/token/ERC20/ERC20.sol\":8705:8706  0 */\n  0x00\n    /* \"@openzeppelin/contracts/token/ERC20/ERC20.sol\":8688:8725  Transfer(address(0), account, amount) */\n  0xffffffffffffffffffffffffffffffffffffffff\n  and\n  0xddf252ad1be2c89b69c2b068fc378daa952ba7f163c4a11628f55a4df523b3ef\n    /* \"@openzeppelin/contracts/token/ERC20/ERC20.sol\":8718:8724  amount */\n  dup4\n    /* \"@openzeppelin/contracts/token/ERC20/ERC20.sol\":8688:8725  Transfer(address(0), account, amount) */\n  mload(0x40)\n  tag_21\n  swap2\n  swap1\n  tag_22\n  jump\t// in\ntag_21:\n  mload(0x40)\n  dup1\n  swap2\n  sub\n  swap1\n  log3\n    /* \"@openzeppelin/contracts/token/ERC20/ERC20.sol\":8736:8784  _afterTokenTransfer(address(0), account, amount) */\n  tag_23\n    /* \"@openzeppelin/contracts/token/ERC20/ERC20.sol\":8764:8765  0 */\n  0x00\n    /* \"@openzeppelin/contracts/token/ERC20/ERC20.sol\":8768:8775  account */\n  dup4\n    /* \"@openzeppelin/contracts/token/ERC20/ERC20.sol\":8777:8783  amount */\n  dup4\n    /* \"@openzeppelin/contracts/token/ERC20/ERC20.sol\":8736:8755  _afterTokenTransfer */\n  shl(0x20, tag_24)\n    /* \"@openzeppelin/contracts/token/ERC20/ERC20.sol\":8736:8784  _afterTokenTransfer(address(0), account, amount) */\n  0x20\n  shr\n  jump\t// in\ntag_23:\n    /* \"@openzeppelin/contracts/token/ERC20/ERC20.sol\":8402:8791  function _mint(address account, uint256 amount) internal virtual {... */\n  pop\n  pop\n  jump\t// out\n    /* \"@openzeppelin/contracts/token/ERC20/ERC20.sol\":11786:11907  function _beforeTokenTransfer(... */\ntag_17:\n  pop\n  pop\n  pop\n  jump\t// out\n    /* \"@openzeppelin/contracts/token/ERC20/ERC20.sol\":12495:12615  function _afterTokenTransfer(... */\ntag_24:\n  pop\n  pop\n  pop\n  jump\t// out\n    /* \"#utility.yul\":7:106   */\ntag_27:\n    /* \"#utility.yul\":59:65   */\n  0x00\n    /* \"#utility.yul\":93:98   */\n  dup2\n    /* \"#utility.yul\":87:99   */\n  mload\n    /* \"#utility.yul\":77:99   */\n  swap1\n  pop\n    /* \"#utility.yul\":7:106   */\n  swap2\n  swap1\n  pop\n  jump\t// out\n    /* \"#utility.yul\":112:292   */\ntag_28:\n    /* \"#utility.yul\":160:237   */\n  0x4e487b7100000000000000000000000000000000000000000000000000000000\n    /* \"#utility.yul\":157:158   */\n  0x00\n    /* \"#utility.yul\":150:238   */\n  mstore\n    /* \"#utility.yul\":257:261   */\n  0x41\n    /* \"#utility.yul\":254:255   */\n  0x04\n    /* \"#utility.yul\":247:262   */\n  mstore\n    /* \"#utility.yul\":281:285   */\n  0x24\n    /* \"#utility.yul\":278:279   */\n  0x00\n    /* \"#utility.yul\":271:286   */\n  revert\n    /* \"#utility.yul\":298:478   */\ntag_29:\n    /* \"#utility.yul\":346:423   */\n  0x4e487b7100000000000000000000000000000000000000000000000000000000\n    /* \"#utility.yul\":343:344   */\n  0x00\n    /* \"#utility.yul\":336:424   */\n  mstore\n    /* \"#utility.yul\":443:447   */\n  0x22\n    /* \"#utility.yul\":440:441   */\n  0x04\n    /* \"#utility.yul\":433:448   */\n  mstore\n    /* \"#utility.yul\":467:471   */\n  0x24\n    /* \"#utility.yul\":464:465   */\n  0x00\n    /* \"#utility.yul\":457:472   */\n  revert\n    /* \"#utility.yul\":484:804   */\ntag_30:\n    /* \"#utility.yul\":528:534   */\n  0x00\n    /* \"#utility.yul\":565:566   */\n  0x02\n    /* \"#utility.yul\":559:563   */\n  dup3\n    /* \"#utility.yul\":555:567   */\n  div\n    /* \"#utility.yul\":545:567   */\n  swap1\n  pop\n    /* \"#utility.yul\":612:613   */\n  0x01\n    /* \"#utility.yul\":606:610   */\n  dup3\n    /* \"#utility.yul\":602:614   */\n  and\n    /* \"#utility.yul\":633:651   */\n  dup1\n    /* \"#utility.yul\":623:704   */\n  tag_57\n  jumpi\n    /* \"#utility.yul\":689:693   */\n  0x7f\n    /* \"#utility.yul\":681:687   */\n  dup3\n    /* \"#utility.yul\":677:694   */\n  and\n    /* \"#utility.yul\":667:694   */\n  swap2\n  pop\n    /* \"#utility.yul\":623:704   */\ntag_57:\n    /* \"#utility.yul\":751:753   */\n  0x20\n    /* \"#utility.yul\":743:749   */\n  dup3\n    /* \"#utility.yul\":740:754   */\n  lt\n    /* \"#utility.yul\":720:738   */\n  dup2\n    /* \"#utility.yul\":717:755   */\n  sub\n    /* \"#utility.yul\":714:798   */\n  tag_58\n  jumpi\n    /* \"#utility.yul\":770:788   */\n  tag_59\n  tag_29\n  jump\t// in\ntag_59:\n    /* \"#utility.yul\":714:798   */\ntag_58:\n    /* \"#utility.yul\":535:804   */\n  pop\n    /* \"#utility.yul\":484:804   */\n  swap2\n  swap1\n  pop\n  jump\t// out\n    /* \"#utility.yul\":810:951   */\ntag_31:\n    /* \"#utility.yul\":859:863   */\n  0x00\n    /* \"#utility.yul\":882:885   */\n  dup2\n    /* \"#utility.yul\":874:885   */\n  swap1\n  pop\n    /* \"#utility.yul\":905:908   */\n  dup2\n    /* \"#utility.yul\":902:903   */\n  0x00\n    /* \"#utility.yul\":895:909   */\n  mstore\n    /* \"#utility.yul\":939:943   */\n  0x20\n    /* \"#utility.yul\":936:937   */\n  0x00\n    /* \"#utility.yul\":926:944   */\n  keccak256\n    /* \"#utility.yul\":918:944   */\n  swap1\n  pop\n    /* \"#utility.yul\":810:951   */\n  swap2\n  swap1\n  pop\n  jump\t// out\n    /* \"#utility.yul\":957:1050   */\ntag_32:\n    /* \"#utility.yul\":994:1000   */\n  0x00\n    /* \"#utility.yul\":1041:1043   */\n  0x20\n    /* \"#utility.yul\":1036:1038   */\n  0x1f\n    /* \"#utility.yul\":1029:1034   */\n  dup4\n    /* \"#utility.yul\":1025:1039   */\n  add\n    /* \"#utility.yul\":1021:1044   */\n  div\n    /* \"#utility.yul\":1011:1044   */\n  swap1\n  pop\n    /* \"#utility.yul\":957:1050   */\n  swap2\n  swap1\n  pop\n  jump\t// out\n    /* \"#utility.yul\":1056:1163   */\ntag_33:\n    /* \"#utility.yul\":1100:1108   */\n  0x00\n    /* \"#utility.yul\":1150:1155   */\n  dup3\n    /* \"#utility.yul\":1144:1148   */\n  dup3\n    /* \"#utility.yul\":1140:1156   */\n  shl\n    /* \"#utility.yul\":1119:1156   */\n  swap1\n  pop\n    /* \"#utility.yul\":1056:1163   */\n  swap3\n  swap2\n  pop\n  pop\n  jump\t// out\n    /* \"#utility.yul\":1169:1562   */\ntag_34:\n    /* \"#utility.yul\":1238:1244   */\n  0x00\n    /* \"#utility.yul\":1288:1289   */\n  0x08\n    /* \"#utility.yul\":1276:1286   */\n  dup4\n    /* \"#utility.yul\":1272:1290   */\n  mul\n    /* \"#utility.yul\":1311:1408   */\n  tag_64\n    /* \"#utility.yul\":1341:1407   */\n  0xffffffffffffffffffffffffffffffffffffffffffffffffffffffffffffffff\n    /* \"#utility.yul\":1330:1339   */\n  dup3\n    /* \"#utility.yul\":1311:1408   */\n  tag_33\n  jump\t// in\ntag_64:\n    /* \"#utility.yul\":1429:1468   */\n  tag_65\n    /* \"#utility.yul\":1459:1467   */\n  dup7\n    /* \"#utility.yul\":1448:1457   */\n  dup4\n    /* \"#utility.yul\":1429:1468   */\n  tag_33\n  jump\t// in\ntag_65:\n    /* \"#utility.yul\":1417:1468   */\n  swap6\n  pop\n    /* \"#utility.yul\":1501:1505   */\n  dup1\n    /* \"#utility.yul\":1497:1506   */\n  not\n    /* \"#utility.yul\":1490:1495   */\n  dup5\n    /* \"#utility.yul\":1486:1507   */\n  and\n    /* \"#utility.yul\":1477:1507   */\n  swap4\n  pop\n    /* \"#utility.yul\":1550:1554   */\n  dup1\n    /* \"#utility.yul\":1540:1548   */\n  dup7\n    /* \"#utility.yul\":1536:1555   */\n  and\n    /* \"#utility.yul\":1529:1534   */\n  dup5\n    /* \"#utility.yul\":1526:1556   */\n  or\n    /* \"#utility.yul\":1516:1556   */\n  swap3\n  pop\n    /* \"#utility.yul\":1245:1562   */\n  pop\n  pop\n    /* \"#utility.yul\":1169:1562   */\n  swap4\n  swap3\n  pop\n  pop\n  pop\n  jump\t// out\n    /* \"#utility.yul\":1568:1645   */\ntag_35:\n    /* \"#utility.yul\":1605:1612   */\n  0x00\n    /* \"#utility.yul\":1634:1639   */\n  dup2\n    /* \"#utility.yul\":1623:1639   */\n  swap1\n  pop\n    /* \"#utility.yul\":1568:1645   */\n  swap2\n  swap1\n  pop\n  jump\t// out\n    /* \"#utility.yul\":1651:1711   */\ntag_36:\n    /* \"#utility.yul\":1679:1682   */\n  0x00\n    /* \"#utility.yul\":1700:1705   */\n  dup2\n    /* \"#utility.yul\":1693:1705   */\n  swap1\n  pop\n    /* \"#utility.yul\":1651:1711   */\n  swap2\n  swap1\n  pop\n  jump\t// out\n    /* \"#utility.yul\":1717:1859   */\ntag_37:\n    /* \"#utility.yul\":1767:1776   */\n  0x00\n    /* \"#utility.yul\":1800:1853   */\n  tag_69\n    /* \"#utility.yul\":1818:1852   */\n  tag_70\n    /* \"#utility.yul\":1827:1851   */\n  tag_71\n    /* \"#utility.yul\":1845:1850   */\n  dup5\n    /* \"#utility.yul\":1827:1851   */\n  tag_35\n  jump\t// in\ntag_71:\n    /* \"#utility.yul\":1818:1852   */\n  tag_36\n  jump\t// in\ntag_70:\n    /* \"#utility.yul\":1800:1853   */\n  tag_35\n  jump\t// in\ntag_69:\n    /* \"#utility.yul\":1787:1853   */\n  swap1\n  pop\n    /* \"#utility.yul\":1717:1859   */\n  swap2\n  swap1\n  pop\n  jump\t// out\n    /* \"#utility.yul\":1865:1940   */\ntag_38:\n    /* \"#utility.yul\":1908:1911   */\n  0x00\n    /* \"#utility.yul\":1929:1934   */\n  dup2\n    /* \"#utility.yul\":1922:1934   */\n  swap1\n  pop\n    /* \"#utility.yul\":1865:1940   */\n  swap2\n  swap1\n  pop\n  jump\t// out\n    /* \"#utility.yul\":1946:2215   */\ntag_39:\n    /* \"#utility.yul\":2056:2095   */\n  tag_74\n    /* \"#utility.yul\":2087:2094   */\n  dup4\n    /* \"#utility.yul\":2056:2095   */\n  tag_37\n  jump\t// in\ntag_74:\n    /* \"#utility.yul\":2117:2208   */\n  tag_75\n    /* \"#utility.yul\":2166:2207   */\n  tag_76\n    /* \"#utility.yul\":2190:2206   */\n  dup3\n    /* \"#utility.yul\":2166:2207   */\n  tag_38\n  jump\t// in\ntag_76:\n    /* \"#utility.yul\":2158:2164   */\n  dup5\n    /* \"#utility.yul\":2151:2155   */\n  dup5\n    /* \"#utility.yul\":2145:2156   */\n  sload\n    /* \"#utility.yul\":2117:2208   */\n  tag_34\n  jump\t// in\ntag_75:\n    /* \"#utility.yul\":2111:2115   */\n  dup3\n    /* \"#utility.yul\":2104:2209   */\n  sstore\n    /* \"#utility.yul\":2022:2215   */\n  pop\n    /* \"#utility.yul\":1946:2215   */\n  pop\n  pop\n  pop\n  jump\t// out\n    /* \"#utility.yul\":2221:2294   */\ntag_40:\n    /* \"#utility.yul\":2266:2269   */\n  0x00\n    /* \"#utility.yul\":2221:2294   */\n  swap1\n  jump\t// out\n    /* \"#utility.yul\":2300:2489   */\ntag_41:\n    /* \"#utility.yul\":2377:2409   */\n  tag_79\n  tag_40\n  jump\t// in\ntag_79:\n    /* \"#utility.yul\":2418:2483   */\n  tag_80\n    /* \"#utility.yul\":2476:2482   */\n  dup2\n    /* \"#utility.yul\":2468:2474   */\n  dup5\n    /* \"#utility.yul\":2462:2466   */\n  dup5\n    /* \"#utility.yul\":2418:2483   */\n  tag_39\n  jump\t// in\ntag_80:\n    /* \"#utility.yul\":2353:2489   */\n  pop\n    /* \"#utility.yul\":2300:2489   */\n  pop\n  pop\n  jump\t// out\n    /* \"#utility.yul\":2495:2681   */\ntag_42:\n    /* \"#utility.yul\":2555:2675   */\ntag_82:\n    /* \"#utility.yul\":2572:2575   */\n  dup2\n    /* \"#utility.yul\":2565:2570   */\n  dup2\n    /* \"#utility.yul\":2562:2576   */\n  lt\n    /* \"#utility.yul\":2555:2675   */\n  iszero\n  tag_84\n  jumpi\n    /* \"#utility.yul\":2626:2665   */\n  tag_85\n    /* \"#utility.yul\":2663:2664   */\n  0x00\n    /* \"#utility.yul\":2656:2661   */\n  dup3\n    /* \"#utility.yul\":2626:2665   */\n  tag_41\n  jump\t// in\ntag_85:\n    /* \"#utility.yul\":2599:2600   */\n  0x01\n    /* \"#utility.yul\":2592:2597   */\n  dup2\n    /* \"#utility.yul\":2588:2601   */\n  add\n    /* \"#utility.yul\":2579:2601   */\n  swap1\n  pop\n    /* \"#utility.yul\":2555:2675   */\n  jump(tag_82)\ntag_84:\n    /* \"#utility.yul\":2495:2681   */\n  pop\n  pop\n  jump\t// out\n    /* \"#utility.yul\":2687:3230   */\ntag_43:\n    /* \"#utility.yul\":2788:2790   */\n  0x1f\n    /* \"#utility.yul\":2783:2786   */\n  dup3\n    /* \"#utility.yul\":2780:2791   */\n  gt\n    /* \"#utility.yul\":2777:3223   */\n  iszero\n  tag_87\n  jumpi\n    /* \"#utility.yul\":2822:2860   */\n  tag_88\n    /* \"#utility.yul\":2854:2859   */\n  dup2\n    /* \"#utility.yul\":2822:2860   */\n  tag_31\n  jump\t// in\ntag_88:\n    /* \"#utility.yul\":2906:2935   */\n  tag_89\n    /* \"#utility.yul\":2924:2934   */\n  dup5\n    /* \"#utility.yul\":2906:2935   */\n  tag_32\n  jump\t// in\ntag_89:\n    /* \"#utility.yul\":2896:2904   */\n  dup2\n    /* \"#utility.yul\":2892:2936   */\n  add\n    /* \"#utility.yul\":3089:3091   */\n  0x20\n    /* \"#utility.yul\":3077:3087   */\n  dup6\n    /* \"#utility.yul\":3074:3092   */\n  lt\n    /* \"#utility.yul\":3071:3120   */\n  iszero\n  tag_90\n  jumpi\n    /* \"#utility.yul\":3110:3118   */\n  dup2\n    /* \"#utility.yul\":3095:3118   */\n  swap1\n  pop\n    /* \"#utility.yul\":3071:3120   */\ntag_90:\n    /* \"#utility.yul\":3133:3213   */\n  tag_91\n    /* \"#utility.yul\":3189:3211   */\n  tag_92\n    /* \"#utility.yul\":3207:3210   */\n  dup6\n    /* \"#utility.yul\":3189:3211   */\n  tag_32\n  jump\t// in\ntag_92:\n    /* \"#utility.yul\":3179:3187   */\n  dup4\n    /* \"#utility.yul\":3175:3212   */\n  add\n    /* \"#utility.yul\":3162:3173   */\n  dup3\n    /* \"#utility.yul\":3133:3213   */\n  tag_42\n  jump\t// in\ntag_91:\n    /* \"#utility.yul\":2792:3223   */\n  pop\n  pop\n    /* \"#utility.yul\":2777:3223   */\ntag_87:\n    /* \"#utility.yul\":2687:3230   */\n  pop\n  pop\n  pop\n  jump\t// out\n    /* \"#utility.yul\":3236:3353   */\ntag_44:\n    /* \"#utility.yul\":3290:3298   */\n  0x00\n    /* \"#utility.yul\":3340:3345   */\n  dup3\n    /* \"#utility.yul\":3334:3338   */\n  dup3\n    /* \"#utility.yul\":3330:3346   */\n  shr\n    /* \"#utility.yul\":3309:3346   */\n  swap1\n  pop\n    /* \"#utility.yul\":3236:3353   */\n  swap3\n  swap2\n  pop\n  pop\n  jump\t// out\n    /* \"#utility.yul\":3359:3528   */\ntag_45:\n    /* \"#utility.yul\":3403:3409   */\n  0x00\n    /* \"#utility.yul\":3436:3487   */\n  tag_95\n    /* \"#utility.yul\":3484:3485   */\n  0x00\n    /* \"#utility.yul\":3480:3486   */\n  not\n    /* \"#utility.yul\":3472:3477   */\n  dup5\n    /* \"#utility.yul\":3469:3470   */\n  0x08\n    /* \"#utility.yul\":3465:3478   */\n  mul\n    /* \"#utility.yul\":3436:3487   */\n  tag_44\n  jump\t// in\ntag_95:\n    /* \"#utility.yul\":3432:3488   */\n  not\n    /* \"#utility.yul\":3517:3521   */\n  dup1\n    /* \"#utility.yul\":3511:3515   */\n  dup4\n    /* \"#utility.yul\":3507:3522   */\n  and\n    /* \"#utility.yul\":3497:3522   */\n  swap2\n  pop\n    /* \"#utility.yul\":3410:3528   */\n  pop\n    /* \"#utility.yul\":3359:3528   */\n  swap3\n  swap2\n  pop\n  pop\n  jump\t// out\n    /* \"#utility.yul\":3533:3828   */\ntag_46:\n    /* \"#utility.yul\":3609:3613   */\n  0x00\n    /* \"#utility.yul\":3755:3784   */\n  tag_97\n    /* \"#utility.yul\":3780:3783   */\n  dup4\n    /* \"#utility.yul\":3774:3778   */\n  dup4\n    /* \"#utility.yul\":3755:3784   */\n  tag_45\n  jump\t// in\ntag_97:\n    /* \"#utility.yul\":3747:3784   */\n  swap2\n  pop\n    /* \"#utility.yul\":3817:3820   */\n  dup3\n    /* \"#utility.yul\":3814:3815   */\n  0x02\n    /* \"#utility.yul\":3810:3821   */\n  mul\n    /* \"#utility.yul\":3804:3808   */\n  dup3\n    /* \"#utility.yul\":3801:3822   */\n  or\n    /* \"#utility.yul\":3793:3822   */\n  swap1\n  pop\n    /* \"#utility.yul\":3533:3828   */\n  swap3\n  swap2\n  pop\n  pop\n  jump\t// out\n    /* \"#utility.yul\":3833:5228   */\ntag_6:\n    /* \"#utility.yul\":3950:3987   */\n  tag_99\n    /* \"#utility.yul\":3983:3986   */\n  dup3\n    /* \"#utility.yul\":3950:3987   */\n  tag_27\n  jump\t// in\ntag_99:\n    /* \"#utility.yul\":4052:4070   */\n  0xffffffffffffffff\n    /* \"#utility.yul\":4044:4050   */\n  dup2\n    /* \"#utility.yul\":4041:4071   */\n  gt\n    /* \"#utility.yul\":4038:4094   */\n  iszero\n  tag_100\n  jumpi\n    /* \"#utility.yul\":4074:4092   */\n  tag_101\n  tag_28\n  jump\t// in\ntag_101:\n    /* \"#utility.yul\":4038:4094   */\ntag_100:\n    /* \"#utility.yul\":4118:4156   */\n  tag_102\n    /* \"#utility.yul\":4150:4154   */\n  dup3\n    /* \"#utility.yul\":4144:4155   */\n  sload\n    /* \"#utility.yul\":4118:4156   */\n  tag_30\n  jump\t// in\ntag_102:\n    /* \"#utility.yul\":4203:4270   */\n  tag_103\n    /* \"#utility.yul\":4263:4269   */\n  dup3\n    /* \"#utility.yul\":4255:4261   */\n  dup3\n    /* \"#utility.yul\":4249:4253   */\n  dup6\n    /* \"#utility.yul\":4203:4270   */\n  tag_43\n  jump\t// in\ntag_103:\n    /* \"#utility.yul\":4297:4298   */\n  0x00\n    /* \"#utility.yul\":4321:4325   */\n  0x20\n    /* \"#utility.yul\":4308:4325   */\n  swap1\n  pop\n    /* \"#utility.yul\":4353:4355   */\n  0x1f\n    /* \"#utility.yul\":4345:4351   */\n  dup4\n    /* \"#utility.yul\":4342:4356   */\n  gt\n    /* \"#utility.yul\":4370:4371   */\n  0x01\n    /* \"#utility.yul\":4365:4983   */\n  dup2\n  eq\n  tag_105\n  jumpi\n    /* \"#utility.yul\":5027:5028   */\n  0x00\n    /* \"#utility.yul\":5044:5050   */\n  dup5\n    /* \"#utility.yul\":5041:5118   */\n  iszero\n  tag_106\n  jumpi\n    /* \"#utility.yul\":5093:5102   */\n  dup3\n    /* \"#utility.yul\":5088:5091   */\n  dup8\n    /* \"#utility.yul\":5084:5103   */\n  add\n    /* \"#utility.yul\":5078:5104   */\n  mload\n    /* \"#utility.yul\":5069:5104   */\n  swap1\n  pop\n    /* \"#utility.yul\":5041:5118   */\ntag_106:\n    /* \"#utility.yul\":5144:5211   */\n  tag_107\n    /* \"#utility.yul\":5204:5210   */\n  dup6\n    /* \"#utility.yul\":5197:5202   */\n  dup3\n    /* \"#utility.yul\":5144:5211   */\n  tag_46\n  jump\t// in\ntag_107:\n    /* \"#utility.yul\":5138:5142   */\n  dup7\n    /* \"#utility.yul\":5131:5212   */\n  sstore\n    /* \"#utility.yul\":5000:5222   */\n  pop\n    /* \"#utility.yul\":4335:5222   */\n  jump(tag_104)\n    /* \"#utility.yul\":4365:4983   */\ntag_105:\n    /* \"#utility.yul\":4417:4421   */\n  0x1f\n    /* \"#utility.yul\":4413:4422   */\n  not\n    /* \"#utility.yul\":4405:4411   */\n  dup5\n    /* \"#utility.yul\":4401:4423   */\n  and\n    /* \"#utility.yul\":4451:4488   */\n  tag_108\n    /* \"#utility.yul\":4483:4487   */\n  dup7\n    /* \"#utility.yul\":4451:4488   */\n  tag_31\n  jump\t// in\ntag_108:\n    /* \"#utility.yul\":4510:4511   */\n  0x00\n    /* \"#utility.yul\":4524:4732   */\ntag_109:\n    /* \"#utility.yul\":4538:4545   */\n  dup3\n    /* \"#utility.yul\":4535:4536   */\n  dup2\n    /* \"#utility.yul\":4532:4546   */\n  lt\n    /* \"#utility.yul\":4524:4732   */\n  iszero\n  tag_111\n  jumpi\n    /* \"#utility.yul\":4617:4626   */\n  dup5\n    /* \"#utility.yul\":4612:4615   */\n  dup10\n    /* \"#utility.yul\":4608:4627   */\n  add\n    /* \"#utility.yul\":4602:4628   */\n  mload\n    /* \"#utility.yul\":4594:4600   */\n  dup3\n    /* \"#utility.yul\":4587:4629   */\n  sstore\n    /* \"#utility.yul\":4668:4669   */\n  0x01\n    /* \"#utility.yul\":4660:4666   */\n  dup3\n    /* \"#utility.yul\":4656:4670   */\n  add\n    /* \"#utility.yul\":4646:4670   */\n  swap2\n  pop\n    /* \"#utility.yul\":4715:4717   */\n  0x20\n    /* \"#utility.yul\":4704:4713   */\n  dup6\n    /* \"#utility.yul\":4700:4718   */\n  add\n    /* \"#utility.yul\":4687:4718   */\n  swap5\n  pop\n    /* \"#utility.yul\":4561:4565   */\n  0x20\n    /* \"#utility.yul\":4558:4559   */\n  dup2\n    /* \"#utility.yul\":4554:4566   */\n  add\n    /* \"#utility.yul\":4549:4566   */\n  swap1\n  pop\n    /* \"#utility.yul\":4524:4732   */\n  jump(tag_109)\ntag_111:\n    /* \"#utility.yul\":4760:4766   */\n  dup7\n    /* \"#utility.yul\":4751:4758   */\n  dup4\n    /* \"#utility.yul\":4748:4767   */\n  lt\n    /* \"#utility.yul\":4745:4924   */\n  iszero\n  tag_112\n  jumpi\n    /* \"#utility.yul\":4818:4827   */\n  dup5\n    /* \"#utility.yul\":4813:4816   */\n  dup10\n    /* \"#utility.yul\":4809:4828   */\n  add\n    /* \"#utility.yul\":4803:4829   */\n  mload\n    /* \"#utility.yul\":4861:4909   */\n  tag_113\n    /* \"#utility.yul\":4903:4907   */\n  0x1f\n    /* \"#utility.yul\":4895:4901   */\n  dup10\n    /* \"#utility.yul\":4891:4908   */\n  and\n    /* \"#utility.yul\":4880:4889   */\n  dup3\n    /* \"#utility.yul\":4861:4909   */\n  tag_45\n  jump\t// in\ntag_113:\n    /* \"#utility.yul\":4853:4859   */\n  dup4\n    /* \"#utility.yul\":4846:4910   */\n  sstore\n    /* \"#utility.yul\":4768:4924   */\n  pop\n    /* \"#utility.yul\":4745:4924   */\ntag_112:\n    /* \"#utility.yul\":4970:4971   */\n  0x01\n    /* \"#utility.yul\":4966:4967   */\n  0x02\n    /* \"#utility.yul\":4958:4964   */\n  dup9\n    /* \"#utility.yul\":4954:4968   */\n  mul\n    /* \"#utility.yul\":4950:4972   */\n  add\n    /* \"#utility.yul\":4944:4948   */\n  dup9\n    /* \"#utility.yul\":4937:4973   */\n  sstore\n    /* \"#utility.yul\":4372:4983   */\n  pop\n  pop\n  pop\n    /* \"#utility.yul\":4335:5222   */\ntag_104:\n  pop\n    /* \"#utility.yul\":3925:5228   */\n  pop\n  pop\n  pop\n    /* \"#utility.yul\":3833:5228   */\n  pop\n  pop\n  jump\t// out\n    /* \"#utility.yul\":5234:5403   */\ntag_47:\n    /* \"#utility.yul\":5318:5329   */\n  0x00\n    /* \"#utility.yul\":5352:5358   */\n  dup3\n    /* \"#utility.yul\":5347:5350   */\n  dup3\n    /* \"#utility.yul\":5340:5359   */\n  mstore\n    /* \"#utility.yul\":5392:5396   */\n  0x20\n    /* \"#utility.yul\":5387:5390   */\n  dup3\n    /* \"#utility.yul\":5383:5397   */\n  add\n    /* \"#utility.yul\":5368:5397   */\n  swap1\n  pop\n    /* \"#utility.yul\":5234:5403   */\n  swap3\n  swap2\n  pop\n  pop\n  jump\t// out\n    /* \"#utility.yul\":5409:5590   */\ntag_48:\n    /* \"#utility.yul\":5549:5582   */\n  0x45524332303a206d696e7420746f20746865207a65726f206164647265737300\n    /* \"#utility.yul\":5545:5546   */\n  0x00\n    /* \"#utility.yul\":5537:5543   */\n  dup3\n    /* \"#utility.yul\":5533:5547   */\n  add\n    /* \"#utility.yul\":5526:5583   */\n  mstore\n    /* \"#utility.yul\":5409:5590   */\n  pop\n  jump\t// out\n    /* \"#utility.yul\":5596:5962   */\ntag_49:\n    /* \"#utility.yul\":5738:5741   */\n  0x00\n    /* \"#utility.yul\":5759:5826   */\n  tag_117\n    /* \"#utility.yul\":5823:5825   */\n  0x1f\n    /* \"#utility.yul\":5818:5821   */\n  dup4\n    /* \"#utility.yul\":5759:5826   */\n  tag_47\n  jump\t// in\ntag_117:\n    /* \"#utility.yul\":5752:5826   */\n  swap2\n  pop\n    /* \"#utility.yul\":5835:5928   */\n  tag_118\n    /* \"#utility.yul\":5924:5927   */\n  dup3\n    /* \"#utility.yul\":5835:5928   */\n  tag_48\n  jump\t// in\ntag_118:\n    /* \"#utility.yul\":5953:5955   */\n  0x20\n    /* \"#utility.yul\":5948:5951   */\n  dup3\n    /* \"#utility.yul\":5944:5956   */\n  add\n    /* \"#utility.yul\":5937:5956   */\n  swap1\n  pop\n    /* \"#utility.yul\":5596:5962   */\n  swap2\n  swap1\n  pop\n  jump\t// out\n    /* \"#utility.yul\":5968:6387   */\ntag_15:\n    /* \"#utility.yul\":6134:6138   */\n  0x00\n    /* \"#utility.yul\":6172:6174   */\n  0x20\n    /* \"#utility.yul\":6161:6170   */\n  dup3\n    /* \"#utility.yul\":6157:6175   */\n  add\n    /* \"#utility.yul\":6149:6175   */\n  swap1\n  pop\n    /* \"#utility.yul\":6221:6230   */\n  dup2\n    /* \"#utility.yul\":6215:6219   */\n  dup2\n    /* \"#utility.yul\":6211:6231   */\n  sub\n    /* \"#utility.yul\":6207:6208   */\n  0x00\n    /* \"#utility.yul\":6196:6205   */\n  dup4\n    /* \"#utility.yul\":6192:6209   */\n  add\n    /* \"#utility.yul\":6185:6232   */\n  mstore\n    /* \"#utility.yul\":6249:6380   */\n  tag_120\n    /* \"#utility.yul\":6375:6379   */\n  dup2\n    /* \"#utility.yul\":6249:6380   */\n  tag_49\n  jump\t// in\ntag_120:\n    /* \"#utility.yul\":6241:6380   */\n  swap1\n  pop\n    /* \"#utility.yul\":5968:6387   */\n  swap2\n  swap1\n  pop\n  jump\t// out\n    /* \"#utility.yul\":6393:6573   */\ntag_50:\n    /* \"#utility.yul\":6441:6518   */\n  0x4e487b7100000000000000000000000000000000000000000000000000000000\n    /* \"#utility.yul\":6438:6439   */\n  0x00\n    /* \"#utility.yul\":6431:6519   */\n  mstore\n    /* \"#utility.yul\":6538:6542   */\n  0x11\n    /* \"#utility.yul\":6535:6536   */\n  0x04\n    /* \"#utility.yul\":6528:6543   */\n  mstore\n    /* \"#utility.yul\":6562:6566   */\n  0x24\n    /* \"#utility.yul\":6559:6560   */\n  0x00\n    /* \"#utility.yul\":6552:6567   */\n  revert\n    /* \"#utility.yul\":6579:6770   */\ntag_19:\n    /* \"#utility.yul\":6619:6622   */\n  0x00\n    /* \"#utility.yul\":6638:6658   */\n  tag_123\n    /* \"#utility.yul\":6656:6657   */\n  dup3\n    /* \"#utility.yul\":6638:6658   */\n  tag_35\n  jump\t// in\ntag_123:\n    /* \"#utility.yul\":6633:6658   */\n  swap2\n  pop\n    /* \"#utility.yul\":6672:6692   */\n  tag_124\n    /* \"#utility.yul\":6690:6691   */\n  dup4\n    /* \"#utility.yul\":6672:6692   */\n  tag_35\n  jump\t// in\ntag_124:\n    /* \"#utility.yul\":6667:6692   */\n  swap3\n  pop\n    /* \"#utility.yul\":6715:6716   */\n  dup3\n    /* \"#utility.yul\":6712:6713   */\n  dup3\n    /* \"#utility.yul\":6708:6717   */\n  add\n    /* \"#utility.yul\":6701:6717   */\n  swap1\n  pop\n    /* \"#utility.yul\":6736:6739   */\n  dup1\n    /* \"#utility.yul\":6733:6734   */\n  dup3\n    /* \"#utility.yul\":6730:6740   */\n  gt\n    /* \"#utility.yul\":6727:6763   */\n  iszero\n  tag_125\n  jumpi\n    /* \"#utility.yul\":6743:6761   */\n  tag_126\n  tag_50\n  jump\t// in\ntag_126:\n    /* \"#utility.yul\":6727:6763   */\ntag_125:\n    /* \"#utility.yul\":6579:6770   */\n  swap3\n  swap2\n  pop\n  pop\n  jump\t// out\n    /* \"#utility.yul\":6776:6894   */\ntag_51:\n    /* \"#utility.yul\":6863:6887   */\n  tag_128\n    /* \"#utility.yul\":6881:6886   */\n  dup2\n    /* \"#utility.yul\":6863:6887   */\n  tag_35\n  jump\t// in\ntag_128:\n    /* \"#utility.yul\":6858:6861   */\n  dup3\n    /* \"#utility.yul\":6851:6888   */\n  mstore\n    /* \"#utility.yul\":6776:6894   */\n  pop\n  pop\n  jump\t// out\n    /* \"#utility.yul\":6900:7122   */\ntag_22:\n    /* \"#utility.yul\":6993:6997   */\n  0x00\n    /* \"#utility.yul\":7031:7033   */\n  0x20\n    /* \"#utility.yul\":7020:7029   */\n  dup3\n    /* \"#utility.yul\":7016:7034   */\n  add\n    /* \"#utility.yul\":7008:7034   */\n  swap1\n  pop\n    /* \"#utility.yul\":7044:7115   */\n  tag_130\n    /* \"#utility.yul\":7112:7113   */\n  0x00\n    /* \"#utility.yul\":7101:7110   */\n  dup4\n    /* \"#utility.yul\":7097:7114   */\n  add\n    /* \"#utility.yul\":7088:7094   */\n  dup5\n    /* \"#utility.yul\":7044:7115   */\n  tag_51\n  jump\t// in\ntag_130:\n    /* \"#utility.yul\":6900:7122   */\n  swap3\n  swap2\n  pop\n  pop\n  jump\t// out\n    /* \"contracts/uu.sol\":136:380  contract uu is ERC20 {... */\ntag_11:\n  dataSize(sub_0)\n  dup1\n  dataOffset(sub_0)\n  0x00\n  codecopy\n  0x00\n  return\nstop\n\nsub_0: assembly {\n        /* \"contracts/uu.sol\":136:380  contract uu is ERC20 {... */\n      mstore(0x40, 0x80)\n      callvalue\n      dup1\n      iszero\n      tag_1\n      jumpi\n      0x00\n      dup1\n      revert\n    tag_1:\n      pop\n      jumpi(tag_2, lt(calldatasize, 0x04))\n      shr(0xe0, calldataload(0x00))\n      dup1\n      0x70a08231\n      gt\n      tag_15\n      jumpi\n      dup1\n      0x70a08231\n      eq\n      tag_9\n      jumpi\n      dup1\n      0x95d89b41\n      eq\n      tag_10\n      jumpi\n      dup1\n      0xa457c2d7\n      eq\n      tag_11\n      jumpi\n      dup1\n      0xa694fc3a\n      eq\n      tag_12\n      jumpi\n      dup1\n      0xa9059cbb\n      eq\n      tag_13\n      jumpi\n      dup1\n      0xdd62ed3e\n      eq\n      tag_14\n      jumpi\n      jump(tag_2)\n    tag_15:\n      dup1\n      0x06fdde03\n      eq\n      tag_3\n      jumpi\n      dup1\n      0x095ea7b3\n      eq\n      tag_4\n      jumpi\n      dup1\n      0x18160ddd\n      eq\n      tag_5\n      jumpi\n      dup1\n      0x23b872dd\n      eq\n      tag_6\n      jumpi\n      dup1\n      0x313ce567\n      eq\n      tag_7\n      jumpi\n      dup1\n      0x39509351\n      eq\n      tag_8\n      jumpi\n    tag_2:\n      0x00\n      dup1\n      revert\n        /* \"@openzeppelin/contracts/token/ERC20/ERC20.sol\":2156:2254  function name() public view virtual override returns (string memory) {... */\n    tag_3:\n      tag_16\n      tag_17\n      jump\t// in\n    tag_16:\n      mload(0x40)\n      tag_18\n      swap2\n      swap1\n      tag_19\n      jump\t// in\n    tag_18:\n      mload(0x40)\n      dup1\n      swap2\n      sub\n      swap1\n      return\n        /* \"@openzeppelin/contracts/token/ERC20/ERC20.sol\":4433:4630  function approve(address spender, uint256 amount) public virtual override returns (bool) {... */\n    tag_4:\n      tag_20\n      0x04\n      dup1\n      calldatasize\n      sub\n      dup2\n      add\n      swap1\n      tag_21\n      swap2\n      swap1\n      tag_22\n      jump\t// in\n    tag_21:\n      tag_23\n      jump\t// in\n    tag_20:\n      mload(0x40)\n      tag_24\n      swap2\n      swap1\n      tag_25\n      jump\t// in\n    tag_24:\n      mload(0x40)\n      dup1\n      swap2\n      sub\n      swap1\n      return\n        /* \"@openzeppelin/contracts/token/ERC20/ERC20.sol\":3244:3350  function totalSupply() public view virtual override returns (uint256) {... */\n    tag_5:\n      tag_26\n      tag_27\n      jump\t// in\n    tag_26:\n      mload(0x40)\n      tag_28\n      swap2\n      swap1\n      tag_29\n      jump\t// in\n    tag_28:\n      mload(0x40)\n      dup1\n      swap2\n      sub\n      swap1\n      return\n        /* \"@openzeppelin/contracts/token/ERC20/ERC20.sol\":5192:5478  function transferFrom(... */\n    tag_6:\n      tag_30\n      0x04\n      dup1\n      calldatasize\n      sub\n      dup2\n      add\n      swap1\n      tag_31\n      swap2\n      swap1\n      tag_32\n      jump\t// in\n    tag_31:\n      tag_33\n      jump\t// in\n    tag_30:\n      mload(0x40)\n      tag_34\n      swap2\n      swap1\n      tag_25\n      jump\t// in\n    tag_34:\n      mload(0x40)\n      dup1\n      swap2\n      sub\n      swap1\n      return\n        /* \"@openzeppelin/contracts/token/ERC20/ERC20.sol\":3093:3184  function decimals() public view virtual override returns (uint8) {... */\n    tag_7:\n      tag_35\n      tag_36\n      jump\t// in\n    tag_35:\n      mload(0x40)\n      tag_37\n      swap2\n      swap1\n      tag_38\n      jump\t// in\n    tag_37:\n      mload(0x40)\n      dup1\n      swap2\n      sub\n      swap1\n      return\n        /* \"@openzeppelin/contracts/token/ERC20/ERC20.sol\":5873:6107  function increaseAllowance(address spender, uint256 addedValue) public virtual returns (bool) {... */\n    tag_8:\n      tag_39\n      0x04\n      dup1\n      calldatasize\n      sub\n      dup2\n      add\n      swap1\n      tag_40\n      swap2\n      swap1\n      tag_22\n      jump\t// in\n    tag_40:\n      tag_41\n      jump\t// in\n    tag_39:\n      mload(0x40)\n      tag_42\n      swap2\n      swap1\n      tag_25\n      jump\t// in\n    tag_42:\n      mload(0x40)\n      dup1\n      swap2\n      sub\n      swap1\n      return\n        /* \"@openzeppelin/contracts/token/ERC20/ERC20.sol\":3408:3533  function balanceOf(address account) public view virtual override returns (uint256) {... */\n    tag_9:\n      tag_43\n      0x04\n      dup1\n      calldatasize\n      sub\n      dup2\n      add\n      swap1\n      tag_44\n      swap2\n      swap1\n      tag_45\n      jump\t// in\n    tag_44:\n      tag_46\n      jump\t// in\n    tag_43:\n      mload(0x40)\n      tag_47\n      swap2\n      swap1\n      tag_29\n      jump\t// in\n    tag_47:\n      mload(0x40)\n      dup1\n      swap2\n      sub\n      swap1\n      return\n        /* \"@openzeppelin/contracts/token/ERC20/ERC20.sol\":2367:2469  function symbol() public view virtual override returns (string memory) {... */\n    tag_10:\n      tag_48\n      tag_49\n      jump\t// in\n    tag_48:\n      mload(0x40)\n      tag_50\n      swap2\n      swap1\n      tag_19\n      jump\t// in\n    tag_50:\n      mload(0x40)\n      dup1\n      swap2\n      sub\n      swap1\n      return\n        /* \"@openzeppelin/contracts/token/ERC20/ERC20.sol\":6594:7021  function decreaseAllowance(address spender, uint256 subtractedValue) public virtual returns (bool) {... */\n    tag_11:\n      tag_51\n      0x04\n      dup1\n      calldatasize\n      sub\n      dup2\n      add\n      swap1\n      tag_52\n      swap2\n      swap1\n      tag_22\n      jump\t// in\n    tag_52:\n      tag_53\n      jump\t// in\n    tag_51:\n      mload(0x40)\n      tag_54\n      swap2\n      swap1\n      tag_25\n      jump\t// in\n    tag_54:\n      mload(0x40)\n      dup1\n      swap2\n      sub\n      swap1\n      return\n        /* \"contracts/uu.sol\":267:374  function stake(uint _amount) external {... */\n    tag_12:\n      tag_55\n      0x04\n      dup1\n      calldatasize\n      sub\n      dup2\n      add\n      swap1\n      tag_56\n      swap2\n      swap1\n      tag_57\n      jump\t// in\n    tag_56:\n      tag_58\n      jump\t// in\n    tag_55:\n      stop\n        /* \"@openzeppelin/contracts/token/ERC20/ERC20.sol\":3729:3918  function transfer(address to, uint256 amount) public virtual override returns (bool) {... */\n    tag_13:\n      tag_59\n      0x04\n      dup1\n      calldatasize\n      sub\n      dup2\n      add\n      swap1\n      tag_60\n      swap2\n      swap1\n      tag_22\n      jump\t// in\n    tag_60:\n      tag_61\n      jump\t// in\n    tag_59:\n      mload(0x40)\n      tag_62\n      swap2\n      swap1\n      tag_25\n      jump\t// in\n    tag_62:\n      mload(0x40)\n      dup1\n      swap2\n      sub\n      swap1\n      return\n        /* \"@openzeppelin/contracts/token/ERC20/ERC20.sol\":3976:4125  function allowance(address owner, address spender) public view virtual override returns (uint256) {... */\n    tag_14:\n      tag_63\n      0x04\n      dup1\n      calldatasize\n      sub\n      dup2\n      add\n      swap1\n      tag_64\n      swap2\n      swap1\n      tag_65\n      jump\t// in\n    tag_64:\n      tag_66\n      jump\t// in\n    tag_63:\n      mload(0x40)\n      tag_67\n      swap2\n      swap1\n      tag_29\n      jump\t// in\n    tag_67:\n      mload(0x40)\n      dup1\n      swap2\n      sub\n      swap1\n      return\n        /* \"@openzeppelin/contracts/token/ERC20/ERC20.sol\":2156:2254  function name() public view virtual override returns (string memory) {... */\n    tag_17:\n        /* \"@openzeppelin/contracts/token/ERC20/ERC20.sol\":2210:2223  string memory */\n      0x60\n        /* \"@openzeppelin/contracts/token/ERC20/ERC20.sol\":2242:2247  _name */\n      0x03\n        /* \"@openzeppelin/contracts/token/ERC20/ERC20.sol\":2235:2247  return _name */\n      dup1\n      sload\n      tag_69\n      swap1\n      tag_70\n      jump\t// in\n    tag_69:\n      dup1\n      0x1f\n      add\n      0x20\n      dup1\n      swap2\n      div\n      mul\n      0x20\n      add\n      mload(0x40)\n      swap1\n      dup2\n      add\n      0x40\n      mstore\n      dup1\n      swap3\n      swap2\n      swap1\n      dup2\n      dup2\n      mstore\n      0x20\n      add\n      dup3\n      dup1\n      sload\n      tag_71\n      swap1\n      tag_70\n      jump\t// in\n    tag_71:\n      dup1\n      iszero\n      tag_72\n      jumpi\n      dup1\n      0x1f\n      lt\n      tag_73\n      jumpi\n      0x0100\n      dup1\n      dup4\n      sload\n      div\n      mul\n      dup4\n      mstore\n      swap2\n      0x20\n      add\n      swap2\n      jump(tag_72)\n    tag_73:\n      dup3\n      add\n      swap2\n      swap1\n      0x00\n      mstore\n      keccak256(0x00, 0x20)\n      swap1\n    tag_74:\n      dup2\n      sload\n      dup2\n      mstore\n      swap1\n      0x01\n      add\n      swap1\n      0x20\n      add\n      dup1\n      dup4\n      gt\n      tag_74\n      jumpi\n      dup3\n      swap1\n      sub\n      0x1f\n      and\n      dup3\n      add\n      swap2\n    tag_72:\n      pop\n      pop\n      pop\n      pop\n      pop\n      swap1\n      pop\n        /* \"@openzeppelin/contracts/token/ERC20/ERC20.sol\":2156:2254  function name() public view virtual override returns (string memory) {... */\n      swap1\n      jump\t// out\n        /* \"@openzeppelin/contracts/token/ERC20/ERC20.sol\":4433:4630  function approve(address spender, uint256 amount) public virtual override returns (bool) {... */\n    tag_23:\n        /* \"@openzeppelin/contracts/token/ERC20/ERC20.sol\":4516:4520  bool */\n      0x00\n        /* \"@openzeppelin/contracts/token/ERC20/ERC20.sol\":4532:4545  address owner */\n      dup1\n        /* \"@openzeppelin/contracts/token/ERC20/ERC20.sol\":4548:4560  _msgSender() */\n      tag_76\n        /* \"@openzeppelin/contracts/token/ERC20/ERC20.sol\":4548:4558  _msgSender */\n      tag_77\n        /* \"@openzeppelin/contracts/token/ERC20/ERC20.sol\":4548:4560  _msgSender() */\n      jump\t// in\n    tag_76:\n        /* \"@openzeppelin/contracts/token/ERC20/ERC20.sol\":4532:4560  address owner = _msgSender() */\n      swap1\n      pop\n        /* \"@openzeppelin/contracts/token/ERC20/ERC20.sol\":4570:4602  _approve(owner, spender, amount) */\n      tag_78\n        /* \"@openzeppelin/contracts/token/ERC20/ERC20.sol\":4579:4584  owner */\n      dup2\n        /* \"@openzeppelin/contracts/token/ERC20/ERC20.sol\":4586:4593  spender */\n      dup6\n        /* \"@openzeppelin/contracts/token/ERC20/ERC20.sol\":4595:4601  amount */\n      dup6\n        /* \"@openzeppelin/contracts/token/ERC20/ERC20.sol\":4570:4578  _approve */\n      tag_79\n        /* \"@openzeppelin/contracts/token/ERC20/ERC20.sol\":4570:4602  _approve(owner, spender, amount) */\n      jump\t// in\n    tag_78:\n        /* \"@openzeppelin/contracts/token/ERC20/ERC20.sol\":4619:4623  true */\n      0x01\n        /* \"@openzeppelin/contracts/token/ERC20/ERC20.sol\":4612:4623  return true */\n      swap2\n      pop\n      pop\n        /* \"@openzeppelin/contracts/token/ERC20/ERC20.sol\":4433:4630  function approve(address spender, uint256 amount) public virtual override returns (bool) {... */\n      swap3\n      swap2\n      pop\n      pop\n      jump\t// out\n        /* \"@openzeppelin/contracts/token/ERC20/ERC20.sol\":3244:3350  function totalSupply() public view virtual override returns (uint256) {... */\n    tag_27:\n        /* \"@openzeppelin/contracts/token/ERC20/ERC20.sol\":3305:3312  uint256 */\n      0x00\n        /* \"@openzeppelin/contracts/token/ERC20/ERC20.sol\":3331:3343  _totalSupply */\n      sload(0x02)\n        /* \"@openzeppelin/contracts/token/ERC20/ERC20.sol\":3324:3343  return _totalSupply */\n      swap1\n      pop\n        /* \"@openzeppelin/contracts/token/ERC20/ERC20.sol\":3244:3350  function totalSupply() public view virtual override returns (uint256) {... */\n      swap1\n      jump\t// out\n        /* \"@openzeppelin/contracts/token/ERC20/ERC20.sol\":5192:5478  function transferFrom(... */\n    tag_33:\n        /* \"@openzeppelin/contracts/token/ERC20/ERC20.sol\":5319:5323  bool */\n      0x00\n        /* \"@openzeppelin/contracts/token/ERC20/ERC20.sol\":5335:5350  address spender */\n      dup1\n        /* \"@openzeppelin/contracts/token/ERC20/ERC20.sol\":5353:5365  _msgSender() */\n      tag_82\n        /* \"@openzeppelin/contracts/token/ERC20/ERC20.sol\":5353:5363  _msgSender */\n      tag_77\n        /* \"@openzeppelin/contracts/token/ERC20/ERC20.sol\":5353:5365  _msgSender() */\n      jump\t// in\n    tag_82:\n        /* \"@openzeppelin/contracts/token/ERC20/ERC20.sol\":5335:5365  address spender = _msgSender() */\n      swap1\n      pop\n        /* \"@openzeppelin/contracts/token/ERC20/ERC20.sol\":5375:5413  _spendAllowance(from, spender, amount) */\n      tag_83\n        /* \"@openzeppelin/contracts/token/ERC20/ERC20.sol\":5391:5395  from */\n      dup6\n        /* \"@openzeppelin/contracts/token/ERC20/ERC20.sol\":5397:5404  spender */\n      dup3\n        /* \"@openzeppelin/contracts/token/ERC20/ERC20.sol\":5406:5412  amount */\n      dup6\n        /* \"@openzeppelin/contracts/token/ERC20/ERC20.sol\":5375:5390  _spendAllowance */\n      tag_84\n        /* \"@openzeppelin/contracts/token/ERC20/ERC20.sol\":5375:5413  _spendAllowance(from, spender, amount) */\n      jump\t// in\n    tag_83:\n        /* \"@openzeppelin/contracts/token/ERC20/ERC20.sol\":5423:5450  _transfer(from, to, amount) */\n      tag_85\n        /* \"@openzeppelin/contracts/token/ERC20/ERC20.sol\":5433:5437  from */\n      dup6\n        /* \"@openzeppelin/contracts/token/ERC20/ERC20.sol\":5439:5441  to */\n      dup6\n        /* \"@openzeppelin/contracts/token/ERC20/ERC20.sol\":5443:5449  amount */\n      dup6\n        /* \"@openzeppelin/contracts/token/ERC20/ERC20.sol\":5423:5432  _transfer */\n      tag_86\n        /* \"@openzeppelin/contracts/token/ERC20/ERC20.sol\":5423:5450  _transfer(from, to, amount) */\n      jump\t// in\n    tag_85:\n        /* \"@openzeppelin/contracts/token/ERC20/ERC20.sol\":5467:5471  true */\n      0x01\n        /* \"@openzeppelin/contracts/token/ERC20/ERC20.sol\":5460:5471  return true */\n      swap2\n      pop\n      pop\n        /* \"@openzeppelin/contracts/token/ERC20/ERC20.sol\":5192:5478  function transferFrom(... */\n      swap4\n      swap3\n      pop\n      pop\n      pop\n      jump\t// out\n        /* \"@openzeppelin/contracts/token/ERC20/ERC20.sol\":3093:3184  function decimals() public view virtual override returns (uint8) {... */\n    tag_36:\n        /* \"@openzeppelin/contracts/token/ERC20/ERC20.sol\":3151:3156  uint8 */\n      0x00\n        /* \"@openzeppelin/contracts/token/ERC20/ERC20.sol\":3175:3177  18 */\n      0x12\n        /* \"@openzeppelin/contracts/token/ERC20/ERC20.sol\":3168:3177  return 18 */\n      swap1\n      pop\n        /* \"@openzeppelin/contracts/token/ERC20/ERC20.sol\":3093:3184  function decimals() public view virtual override returns (uint8) {... */\n      swap1\n      jump\t// out\n        /* \"@openzeppelin/contracts/token/ERC20/ERC20.sol\":5873:6107  function increaseAllowance(address spender, uint256 addedValue) public virtual returns (bool) {... */\n    tag_41:\n        /* \"@openzeppelin/contracts/token/ERC20/ERC20.sol\":5961:5965  bool */\n      0x00\n        /* \"@openzeppelin/contracts/token/ERC20/ERC20.sol\":5977:5990  address owner */\n      dup1\n        /* \"@openzeppelin/contracts/token/ERC20/ERC20.sol\":5993:6005  _msgSender() */\n      tag_89\n        /* \"@openzeppelin/contracts/token/ERC20/ERC20.sol\":5993:6003  _msgSender */\n      tag_77\n        /* \"@openzeppelin/contracts/token/ERC20/ERC20.sol\":5993:6005  _msgSender() */\n      jump\t// in\n    tag_89:\n        /* \"@openzeppelin/contracts/token/ERC20/ERC20.sol\":5977:6005  address owner = _msgSender() */\n      swap1\n      pop\n        /* \"@openzeppelin/contracts/token/ERC20/ERC20.sol\":6015:6079  _approve(owner, spender, allowance(owner, spender) + addedValue) */\n      tag_90\n        /* \"@openzeppelin/contracts/token/ERC20/ERC20.sol\":6024:6029  owner */\n      dup2\n        /* \"@openzeppelin/contracts/token/ERC20/ERC20.sol\":6031:6038  spender */\n      dup6\n        /* \"@openzeppelin/contracts/token/ERC20/ERC20.sol\":6068:6078  addedValue */\n      dup6\n        /* \"@openzeppelin/contracts/token/ERC20/ERC20.sol\":6040:6065  allowance(owner, spender) */\n      tag_91\n        /* \"@openzeppelin/contracts/token/ERC20/ERC20.sol\":6050:6055  owner */\n      dup6\n        /* \"@openzeppelin/contracts/token/ERC20/ERC20.sol\":6057:6064  spender */\n      dup10\n        /* \"@openzeppelin/contracts/token/ERC20/ERC20.sol\":6040:6049  allowance */\n      tag_66\n        /* \"@openzeppelin/contracts/token/ERC20/ERC20.sol\":6040:6065  allowance(owner, spender) */\n      jump\t// in\n    tag_91:\n        /* \"@openzeppelin/contracts/token/ERC20/ERC20.sol\":6040:6078  allowance(owner, spender) + addedValue */\n      tag_92\n      swap2\n      swap1\n      tag_93\n      jump\t// in\n    tag_92:\n        /* \"@openzeppelin/contracts/token/ERC20/ERC20.sol\":6015:6023  _approve */\n      tag_79\n        /* \"@openzeppelin/contracts/token/ERC20/ERC20.sol\":6015:6079  _approve(owner, spender, allowance(owner, spender) + addedValue) */\n      jump\t// in\n    tag_90:\n        /* \"@openzeppelin/contracts/token/ERC20/ERC20.sol\":6096:6100  true */\n      0x01\n        /* \"@openzeppelin/contracts/token/ERC20/ERC20.sol\":6089:6100  return true */\n      swap2\n      pop\n      pop\n        /* \"@openzeppelin/contracts/token/ERC20/ERC20.sol\":5873:6107  function increaseAllowance(address spender, uint256 addedValue) public virtual returns (bool) {... */\n      swap3\n      swap2\n      pop\n      pop\n      jump\t// out\n        /* \"@openzeppelin/contracts/token/ERC20/ERC20.sol\":3408:3533  function balanceOf(address account) public view virtual override returns (uint256) {... */\n    tag_46:\n        /* \"@openzeppelin/contracts/token/ERC20/ERC20.sol\":3482:3489  uint256 */\n      0x00\n        /* \"@openzeppelin/contracts/token/ERC20/ERC20.sol\":3508:3517  _balances */\n      dup1\n        /* \"@openzeppelin/contracts/token/ERC20/ERC20.sol\":3508:3526  _balances[account] */\n      0x00\n        /* \"@openzeppelin/contracts/token/ERC20/ERC20.sol\":3518:3525  account */\n      dup4\n        /* \"@openzeppelin/contracts/token/ERC20/ERC20.sol\":3508:3526  _balances[account] */\n      0xffffffffffffffffffffffffffffffffffffffff\n      and\n      0xffffffffffffffffffffffffffffffffffffffff\n      and\n      dup2\n      mstore\n      0x20\n      add\n      swap1\n      dup2\n      mstore\n      0x20\n      add\n      0x00\n      keccak256\n      sload\n        /* \"@openzeppelin/contracts/token/ERC20/ERC20.sol\":3501:3526  return _balances[account] */\n      swap1\n      pop\n        /* \"@openzeppelin/contracts/token/ERC20/ERC20.sol\":3408:3533  function balanceOf(address account) public view virtual override returns (uint256) {... */\n      swap2\n      swap1\n      pop\n      jump\t// out\n        /* \"@openzeppelin/contracts/token/ERC20/ERC20.sol\":2367:2469  function symbol() public view virtual override returns (string memory) {... */\n    tag_49:\n        /* \"@openzeppelin/contracts/token/ERC20/ERC20.sol\":2423:2436  string memory */\n      0x60\n        /* \"@openzeppelin/contracts/token/ERC20/ERC20.sol\":2455:2462  _symbol */\n      0x04\n        /* \"@openzeppelin/contracts/token/ERC20/ERC20.sol\":2448:2462  return _symbol */\n      dup1\n      sload\n      tag_96\n      swap1\n      tag_70\n      jump\t// in\n    tag_96:\n      dup1\n      0x1f\n      add\n      0x20\n      dup1\n      swap2\n      div\n      mul\n      0x20\n      add\n      mload(0x40)\n      swap1\n      dup2\n      add\n      0x40\n      mstore\n      dup1\n      swap3\n      swap2\n      swap1\n      dup2\n      dup2\n      mstore\n      0x20\n      add\n      dup3\n      dup1\n      sload\n      tag_97\n      swap1\n      tag_70\n      jump\t// in\n    tag_97:\n      dup1\n      iszero\n      tag_98\n      jumpi\n      dup1\n      0x1f\n      lt\n      tag_99\n      jumpi\n      0x0100\n      dup1\n      dup4\n      sload\n      div\n      mul\n      dup4\n      mstore\n      swap2\n      0x20\n      add\n      swap2\n      jump(tag_98)\n    tag_99:\n      dup3\n      add\n      swap2\n      swap1\n      0x00\n      mstore\n      keccak256(0x00, 0x20)\n      swap1\n    tag_100:\n      dup2\n      sload\n      dup2\n      mstore\n      swap1\n      0x01\n      add\n      swap1\n      0x20\n      add\n      dup1\n      dup4\n      gt\n      tag_100\n      jumpi\n      dup3\n      swap1\n      sub\n      0x1f\n      and\n      dup3\n      add\n      swap2\n    tag_98:\n      pop\n      pop\n      pop\n      pop\n      pop\n      swap1\n      pop\n        /* \"@openzeppelin/contracts/token/ERC20/ERC20.sol\":2367:2469  function symbol() public view virtual override returns (string memory) {... */\n      swap1\n      jump\t// out\n        /* \"@openzeppelin/contracts/token/ERC20/ERC20.sol\":6594:7021  function decreaseAllowance(address spender, uint256 subtractedValue) public virtual returns (bool) {... */\n    tag_53:\n        /* \"@openzeppelin/contracts/token/ERC20/ERC20.sol\":6687:6691  bool */\n      0x00\n        /* \"@openzeppelin/contracts/token/ERC20/ERC20.sol\":6703:6716  address owner */\n      dup1\n        /* \"@openzeppelin/contracts/token/ERC20/ERC20.sol\":6719:6731  _msgSender() */\n      tag_102\n        /* \"@openzeppelin/contracts/token/ERC20/ERC20.sol\":6719:6729  _msgSender */\n      tag_77\n        /* \"@openzeppelin/contracts/token/ERC20/ERC20.sol\":6719:6731  _msgSender() */\n      jump\t// in\n    tag_102:\n        /* \"@openzeppelin/contracts/token/ERC20/ERC20.sol\":6703:6731  address owner = _msgSender() */\n      swap1\n      pop\n        /* \"@openzeppelin/contracts/token/ERC20/ERC20.sol\":6741:6765  uint256 currentAllowance */\n      0x00\n        /* \"@openzeppelin/contracts/token/ERC20/ERC20.sol\":6768:6793  allowance(owner, spender) */\n      tag_103\n        /* \"@openzeppelin/contracts/token/ERC20/ERC20.sol\":6778:6783  owner */\n      dup3\n        /* \"@openzeppelin/contracts/token/ERC20/ERC20.sol\":6785:6792  spender */\n      dup7\n        /* \"@openzeppelin/contracts/token/ERC20/ERC20.sol\":6768:6777  allowance */\n      tag_66\n        /* \"@openzeppelin/contracts/token/ERC20/ERC20.sol\":6768:6793  allowance(owner, spender) */\n      jump\t// in\n    tag_103:\n        /* \"@openzeppelin/contracts/token/ERC20/ERC20.sol\":6741:6793  uint256 currentAllowance = allowance(owner, spender) */\n      swap1\n      pop\n        /* \"@openzeppelin/contracts/token/ERC20/ERC20.sol\":6831:6846  subtractedValue */\n      dup4\n        /* \"@openzeppelin/contracts/token/ERC20/ERC20.sol\":6811:6827  currentAllowance */\n      dup2\n        /* \"@openzeppelin/contracts/token/ERC20/ERC20.sol\":6811:6846  currentAllowance >= subtractedValue */\n      lt\n      iszero\n        /* \"@openzeppelin/contracts/token/ERC20/ERC20.sol\":6803:6888  require(currentAllowance >= subtractedValue, \"ERC20: decreased allowance below zero\") */\n      tag_104\n      jumpi\n      mload(0x40)\n      0x08c379a000000000000000000000000000000000000000000000000000000000\n      dup2\n      mstore\n      0x04\n      add\n      tag_105\n      swap1\n      tag_106\n      jump\t// in\n    tag_105:\n      mload(0x40)\n      dup1\n      swap2\n      sub\n      swap1\n      revert\n    tag_104:\n        /* \"@openzeppelin/contracts/token/ERC20/ERC20.sol\":6922:6982  _approve(owner, spender, currentAllowance - subtractedValue) */\n      tag_107\n        /* \"@openzeppelin/contracts/token/ERC20/ERC20.sol\":6931:6936  owner */\n      dup3\n        /* \"@openzeppelin/contracts/token/ERC20/ERC20.sol\":6938:6945  spender */\n      dup7\n        /* \"@openzeppelin/contracts/token/ERC20/ERC20.sol\":6966:6981  subtractedValue */\n      dup7\n        /* \"@openzeppelin/contracts/token/ERC20/ERC20.sol\":6947:6963  currentAllowance */\n      dup5\n        /* \"@openzeppelin/contracts/token/ERC20/ERC20.sol\":6947:6981  currentAllowance - subtractedValue */\n      sub\n        /* \"@openzeppelin/contracts/token/ERC20/ERC20.sol\":6922:6930  _approve */\n      tag_79\n        /* \"@openzeppelin/contracts/token/ERC20/ERC20.sol\":6922:6982  _approve(owner, spender, currentAllowance - subtractedValue) */\n      jump\t// in\n    tag_107:\n        /* \"@openzeppelin/contracts/token/ERC20/ERC20.sol\":7010:7014  true */\n      0x01\n        /* \"@openzeppelin/contracts/token/ERC20/ERC20.sol\":7003:7014  return true */\n      swap3\n      pop\n      pop\n      pop\n        /* \"@openzeppelin/contracts/token/ERC20/ERC20.sol\":6594:7021  function decreaseAllowance(address spender, uint256 subtractedValue) public virtual returns (bool) {... */\n      swap3\n      swap2\n      pop\n      pop\n      jump\t// out\n        /* \"contracts/uu.sol\":267:374  function stake(uint _amount) external {... */\n    tag_58:\n        /* \"contracts/uu.sol\":341:351  msg.sender */\n      caller\n        /* \"contracts/uu.sol\":320:367  Transfer(address(0), msg.sender, 10 * 10 ** 18) */\n      0xffffffffffffffffffffffffffffffffffffffff\n      and\n        /* \"contracts/uu.sol\":337:338  0 */\n      0x00\n        /* \"contracts/uu.sol\":320:367  Transfer(address(0), msg.sender, 10 * 10 ** 18) */\n      0xffffffffffffffffffffffffffffffffffffffff\n      and\n      0xddf252ad1be2c89b69c2b068fc378daa952ba7f163c4a11628f55a4df523b3ef\n        /* \"contracts/uu.sol\":353:366  10 * 10 ** 18 */\n      0x8ac7230489e80000\n        /* \"contracts/uu.sol\":320:367  Transfer(address(0), msg.sender, 10 * 10 ** 18) */\n      mload(0x40)\n      tag_109\n      swap2\n      swap1\n      tag_110\n      jump\t// in\n    tag_109:\n      mload(0x40)\n      dup1\n      swap2\n      sub\n      swap1\n      log3\n        /* \"contracts/uu.sol\":267:374  function stake(uint _amount) external {... */\n      pop\n      jump\t// out\n        /* \"@openzeppelin/contracts/token/ERC20/ERC20.sol\":3729:3918  function transfer(address to, uint256 amount) public virtual override returns (bool) {... */\n    tag_61:\n        /* \"@openzeppelin/contracts/token/ERC20/ERC20.sol\":3808:3812  bool */\n      0x00\n        /* \"@openzeppelin/contracts/token/ERC20/ERC20.sol\":3824:3837  address owner */\n      dup1\n        /* \"@openzeppelin/contracts/token/ERC20/ERC20.sol\":3840:3852  _msgSender() */\n      tag_112\n        /* \"@openzeppelin/contracts/token/ERC20/ERC20.sol\":3840:3850  _msgSender */\n      tag_77\n        /* \"@openzeppelin/contracts/token/ERC20/ERC20.sol\":3840:3852  _msgSender() */\n      jump\t// in\n    tag_112:\n        /* \"@openzeppelin/contracts/token/ERC20/ERC20.sol\":3824:3852  address owner = _msgSender() */\n      swap1\n      pop\n        /* \"@openzeppelin/contracts/token/ERC20/ERC20.sol\":3862:3890  _transfer(owner, to, amount) */\n      tag_113\n        /* \"@openzeppelin/contracts/token/ERC20/ERC20.sol\":3872:3877  owner */\n      dup2\n        /* \"@openzeppelin/contracts/token/ERC20/ERC20.sol\":3879:3881  to */\n      dup6\n        /* \"@openzeppelin/contracts/token/ERC20/ERC20.sol\":3883:3889  amount */\n      dup6\n        /* \"@openzeppelin/contracts/token/ERC20/ERC20.sol\":3862:3871  _transfer */\n      tag_86\n        /* \"@openzeppelin/contracts/token/ERC20/ERC20.sol\":3862:3890  _transfer(owner, to, amount) */\n      jump\t// in\n    tag_113:\n        /* \"@openzeppelin/contracts/token/ERC20/ERC20.sol\":3907:3911  true */\n      0x01\n        /* \"@openzeppelin/contracts/token/ERC20/ERC20.sol\":3900:3911  return true */\n      swap2\n      pop\n      pop\n        /* \"@openzeppelin/contracts/token/ERC20/ERC20.sol\":3729:3918  function transfer(address to, uint256 amount) public virtual override returns (bool) {... */\n      swap3\n      swap2\n      pop\n      pop\n      jump\t// out\n        /* \"@openzeppelin/contracts/token/ERC20/ERC20.sol\":3976:4125  function allowance(address owner, address spender) public view virtual override returns (uint256) {... */\n    tag_66:\n        /* \"@openzeppelin/contracts/token/ERC20/ERC20.sol\":4065:4072  uint256 */\n      0x00\n        /* \"@openzeppelin/contracts/token/ERC20/ERC20.sol\":4091:4102  _allowances */\n      0x01\n        /* \"@openzeppelin/contracts/token/ERC20/ERC20.sol\":4091:4109  _allowances[owner] */\n      0x00\n        /* \"@openzeppelin/contracts/token/ERC20/ERC20.sol\":4103:4108  owner */\n      dup5\n        /* \"@openzeppelin/contracts/token/ERC20/ERC20.sol\":4091:4109  _allowances[owner] */\n      0xffffffffffffffffffffffffffffffffffffffff\n      and\n      0xffffffffffffffffffffffffffffffffffffffff\n      and\n      dup2\n      mstore\n      0x20\n      add\n      swap1\n      dup2\n      mstore\n      0x20\n      add\n      0x00\n      keccak256\n        /* \"@openzeppelin/contracts/token/ERC20/ERC20.sol\":4091:4118  _allowances[owner][spender] */\n      0x00\n        /* \"@openzeppelin/contracts/token/ERC20/ERC20.sol\":4110:4117  spender */\n      dup4\n        /* \"@openzeppelin/contracts/token/ERC20/ERC20.sol\":4091:4118  _allowances[owner][spender] */\n      0xffffffffffffffffffffffffffffffffffffffff\n      and\n      0xffffffffffffffffffffffffffffffffffffffff\n      and\n      dup2\n      mstore\n      0x20\n      add\n      swap1\n      dup2\n      mstore\n      0x20\n      add\n      0x00\n      keccak256\n      sload\n        /* \"@openzeppelin/contracts/token/ERC20/ERC20.sol\":4084:4118  return _allowances[owner][spender] */\n      swap1\n      pop\n        /* \"@openzeppelin/contracts/token/ERC20/ERC20.sol\":3976:4125  function allowance(address owner, address spender) public view virtual override returns (uint256) {... */\n      swap3\n      swap2\n      pop\n      pop\n      jump\t// out\n        /* \"@openzeppelin/contracts/utils/Context.sol\":640:736  function _msgSender() internal view virtual returns (address) {... */\n    tag_77:\n        /* \"@openzeppelin/contracts/utils/Context.sol\":693:700  address */\n      0x00\n        /* \"@openzeppelin/contracts/utils/Context.sol\":719:729  msg.sender */\n      caller\n        /* \"@openzeppelin/contracts/utils/Context.sol\":712:729  return msg.sender */\n      swap1\n      pop\n        /* \"@openzeppelin/contracts/utils/Context.sol\":640:736  function _msgSender() internal view virtual returns (address) {... */\n      swap1\n      jump\t// out\n        /* \"@openzeppelin/contracts/token/ERC20/ERC20.sol\":10110:10480  function _approve(... */\n    tag_79:\n        /* \"@openzeppelin/contracts/token/ERC20/ERC20.sol\":10258:10259  0 */\n      0x00\n        /* \"@openzeppelin/contracts/token/ERC20/ERC20.sol\":10241:10260  owner != address(0) */\n      0xffffffffffffffffffffffffffffffffffffffff\n      and\n        /* \"@openzeppelin/contracts/token/ERC20/ERC20.sol\":10241:10246  owner */\n      dup4\n        /* \"@openzeppelin/contracts/token/ERC20/ERC20.sol\":10241:10260  owner != address(0) */\n      0xffffffffffffffffffffffffffffffffffffffff\n      and\n      sub\n        /* \"@openzeppelin/contracts/token/ERC20/ERC20.sol\":10233:10301  require(owner != address(0), \"ERC20: approve from the zero address\") */\n      tag_117\n      jumpi\n      mload(0x40)\n      0x08c379a000000000000000000000000000000000000000000000000000000000\n      dup2\n      mstore\n      0x04\n      add\n      tag_118\n      swap1\n      tag_119\n      jump\t// in\n    tag_118:\n      mload(0x40)\n      dup1\n      swap2\n      sub\n      swap1\n      revert\n    tag_117:\n        /* \"@openzeppelin/contracts/token/ERC20/ERC20.sol\":10338:10339  0 */\n      0x00\n        /* \"@openzeppelin/contracts/token/ERC20/ERC20.sol\":10319:10340  spender != address(0) */\n      0xffffffffffffffffffffffffffffffffffffffff\n      and\n        /* \"@openzeppelin/contracts/token/ERC20/ERC20.sol\":10319:10326  spender */\n      dup3\n        /* \"@openzeppelin/contracts/token/ERC20/ERC20.sol\":10319:10340  spender != address(0) */\n      0xffffffffffffffffffffffffffffffffffffffff\n      and\n      sub\n        /* \"@openzeppelin/contracts/token/ERC20/ERC20.sol\":10311:10379  require(spender != address(0), \"ERC20: approve to the zero address\") */\n      tag_120\n      jumpi\n      mload(0x40)\n      0x08c379a000000000000000000000000000000000000000000000000000000000\n      dup2\n      mstore\n      0x04\n      add\n      tag_121\n      swap1\n      tag_122\n      jump\t// in\n    tag_121:\n      mload(0x40)\n      dup1\n      swap2\n      sub\n      swap1\n      revert\n    tag_120:\n        /* \"@openzeppelin/contracts/token/ERC20/ERC20.sol\":10420:10426  amount */\n      dup1\n        /* \"@openzeppelin/contracts/token/ERC20/ERC20.sol\":10390:10401  _allowances */\n      0x01\n        /* \"@openzeppelin/contracts/token/ERC20/ERC20.sol\":10390:10408  _allowances[owner] */\n      0x00\n        /* \"@openzeppelin/contracts/token/ERC20/ERC20.sol\":10402:10407  owner */\n      dup6\n        /* \"@openzeppelin/contracts/token/ERC20/ERC20.sol\":10390:10408  _allowances[owner] */\n      0xffffffffffffffffffffffffffffffffffffffff\n      and\n      0xffffffffffffffffffffffffffffffffffffffff\n      and\n      dup2\n      mstore\n      0x20\n      add\n      swap1\n      dup2\n      mstore\n      0x20\n      add\n      0x00\n      keccak256\n        /* \"@openzeppelin/contracts/token/ERC20/ERC20.sol\":10390:10417  _allowances[owner][spender] */\n      0x00\n        /* \"@openzeppelin/contracts/token/ERC20/ERC20.sol\":10409:10416  spender */\n      dup5\n        /* \"@openzeppelin/contracts/token/ERC20/ERC20.sol\":10390:10417  _allowances[owner][spender] */\n      0xffffffffffffffffffffffffffffffffffffffff\n      and\n      0xffffffffffffffffffffffffffffffffffffffff\n      and\n      dup2\n      mstore\n      0x20\n      add\n      swap1\n      dup2\n      mstore\n      0x20\n      add\n      0x00\n      keccak256\n        /* \"@openzeppelin/contracts/token/ERC20/ERC20.sol\":10390:10426  _allowances[owner][spender] = amount */\n      dup2\n      swap1\n      sstore\n      pop\n        /* \"@openzeppelin/contracts/token/ERC20/ERC20.sol\":10457:10464  spender */\n      dup2\n        /* \"@openzeppelin/contracts/token/ERC20/ERC20.sol\":10441:10473  Approval(owner, spender, amount) */\n      0xffffffffffffffffffffffffffffffffffffffff\n      and\n        /* \"@openzeppelin/contracts/token/ERC20/ERC20.sol\":10450:10455  owner */\n      dup4\n        /* \"@openzeppelin/contracts/token/ERC20/ERC20.sol\":10441:10473  Approval(owner, spender, amount) */\n      0xffffffffffffffffffffffffffffffffffffffff\n      and\n      0x8c5be1e5ebec7d5bd14f71427d1e84f3dd0314c0f7b2291e5b200ac8c7c3b925\n        /* \"@openzeppelin/contracts/token/ERC20/ERC20.sol\":10466:10472  amount */\n      dup4\n        /* \"@openzeppelin/contracts/token/ERC20/ERC20.sol\":10441:10473  Approval(owner, spender, amount) */\n      mload(0x40)\n      tag_123\n      swap2\n      swap1\n      tag_29\n      jump\t// in\n    tag_123:\n      mload(0x40)\n      dup1\n      swap2\n      sub\n      swap1\n      log3\n        /* \"@openzeppelin/contracts/token/ERC20/ERC20.sol\":10110:10480  function _approve(... */\n      pop\n      pop\n      pop\n      jump\t// out\n        /* \"@openzeppelin/contracts/token/ERC20/ERC20.sol\":10761:11202  function _spendAllowance(... */\n    tag_84:\n        /* \"@openzeppelin/contracts/token/ERC20/ERC20.sol\":10891:10915  uint256 currentAllowance */\n      0x00\n        /* \"@openzeppelin/contracts/token/ERC20/ERC20.sol\":10918:10943  allowance(owner, spender) */\n      tag_125\n        /* \"@openzeppelin/contracts/token/ERC20/ERC20.sol\":10928:10933  owner */\n      dup5\n        /* \"@openzeppelin/contracts/token/ERC20/ERC20.sol\":10935:10942  spender */\n      dup5\n        /* \"@openzeppelin/contracts/token/ERC20/ERC20.sol\":10918:10927  allowance */\n      tag_66\n        /* \"@openzeppelin/contracts/token/ERC20/ERC20.sol\":10918:10943  allowance(owner, spender) */\n      jump\t// in\n    tag_125:\n        /* \"@openzeppelin/contracts/token/ERC20/ERC20.sol\":10891:10943  uint256 currentAllowance = allowance(owner, spender) */\n      swap1\n      pop\n        /* \"@openzeppelin/contracts/token/ERC20/ERC20.sol\":10977:10994  type(uint256).max */\n      0xffffffffffffffffffffffffffffffffffffffffffffffffffffffffffffffff\n        /* \"@openzeppelin/contracts/token/ERC20/ERC20.sol\":10957:10973  currentAllowance */\n      dup2\n        /* \"@openzeppelin/contracts/token/ERC20/ERC20.sol\":10957:10994  currentAllowance != type(uint256).max */\n      eq\n        /* \"@openzeppelin/contracts/token/ERC20/ERC20.sol\":10953:11196  if (currentAllowance != type(uint256).max) {... */\n      tag_126\n      jumpi\n        /* \"@openzeppelin/contracts/token/ERC20/ERC20.sol\":11038:11044  amount */\n      dup2\n        /* \"@openzeppelin/contracts/token/ERC20/ERC20.sol\":11018:11034  currentAllowance */\n      dup2\n        /* \"@openzeppelin/contracts/token/ERC20/ERC20.sol\":11018:11044  currentAllowance >= amount */\n      lt\n      iszero\n        /* \"@openzeppelin/contracts/token/ERC20/ERC20.sol\":11010:11078  require(currentAllowance >= amount, \"ERC20: insufficient allowance\") */\n      tag_127\n      jumpi\n      mload(0x40)\n      0x08c379a000000000000000000000000000000000000000000000000000000000\n      dup2\n      mstore\n      0x04\n      add\n      tag_128\n      swap1\n      tag_129\n      jump\t// in\n    tag_128:\n      mload(0x40)\n      dup1\n      swap2\n      sub\n      swap1\n      revert\n    tag_127:\n        /* \"@openzeppelin/contracts/token/ERC20/ERC20.sol\":11120:11171  _approve(owner, spender, currentAllowance - amount) */\n      tag_130\n        /* \"@openzeppelin/contracts/token/ERC20/ERC20.sol\":11129:11134  owner */\n      dup5\n        /* \"@openzeppelin/contracts/token/ERC20/ERC20.sol\":11136:11143  spender */\n      dup5\n        /* \"@openzeppelin/contracts/token/ERC20/ERC20.sol\":11164:11170  amount */\n      dup5\n        /* \"@openzeppelin/contracts/token/ERC20/ERC20.sol\":11145:11161  currentAllowance */\n      dup5\n        /* \"@openzeppelin/contracts/token/ERC20/ERC20.sol\":11145:11170  currentAllowance - amount */\n      sub\n        /* \"@openzeppelin/contracts/token/ERC20/ERC20.sol\":11120:11128  _approve */\n      tag_79\n        /* \"@openzeppelin/contracts/token/ERC20/ERC20.sol\":11120:11171  _approve(owner, spender, currentAllowance - amount) */\n      jump\t// in\n    tag_130:\n        /* \"@openzeppelin/contracts/token/ERC20/ERC20.sol\":10953:11196  if (currentAllowance != type(uint256).max) {... */\n    tag_126:\n        /* \"@openzeppelin/contracts/token/ERC20/ERC20.sol\":10881:11202  {... */\n      pop\n        /* \"@openzeppelin/contracts/token/ERC20/ERC20.sol\":10761:11202  function _spendAllowance(... */\n      pop\n      pop\n      pop\n      jump\t// out\n        /* \"@openzeppelin/contracts/token/ERC20/ERC20.sol\":7475:8126  function _transfer(... */\n    tag_86:\n        /* \"@openzeppelin/contracts/token/ERC20/ERC20.sol\":7617:7618  0 */\n      0x00\n        /* \"@openzeppelin/contracts/token/ERC20/ERC20.sol\":7601:7619  from != address(0) */\n      0xffffffffffffffffffffffffffffffffffffffff\n      and\n        /* \"@openzeppelin/contracts/token/ERC20/ERC20.sol\":7601:7605  from */\n      dup4\n        /* \"@openzeppelin/contracts/token/ERC20/ERC20.sol\":7601:7619  from != address(0) */\n      0xffffffffffffffffffffffffffffffffffffffff\n      and\n      sub\n        /* \"@openzeppelin/contracts/token/ERC20/ERC20.sol\":7593:7661  require(from != address(0), \"ERC20: transfer from the zero address\") */\n      tag_132\n      jumpi\n      mload(0x40)\n      0x08c379a000000000000000000000000000000000000000000000000000000000\n      dup2\n      mstore\n      0x04\n      add\n      tag_133\n      swap1\n      tag_134\n      jump\t// in\n    tag_133:\n      mload(0x40)\n      dup1\n      swap2\n      sub\n      swap1\n      revert\n    tag_132:\n        /* \"@openzeppelin/contracts/token/ERC20/ERC20.sol\":7693:7694  0 */\n      0x00\n        /* \"@openzeppelin/contracts/token/ERC20/ERC20.sol\":7679:7695  to != address(0) */\n      0xffffffffffffffffffffffffffffffffffffffff\n      and\n        /* \"@openzeppelin/contracts/token/ERC20/ERC20.sol\":7679:7681  to */\n      dup3\n        /* \"@openzeppelin/contracts/token/ERC20/ERC20.sol\":7679:7695  to != address(0) */\n      0xffffffffffffffffffffffffffffffffffffffff\n      and\n      sub\n        /* \"@openzeppelin/contracts/token/ERC20/ERC20.sol\":7671:7735  require(to != address(0), \"ERC20: transfer to the zero address\") */\n      tag_135\n      jumpi\n      mload(0x40)\n      0x08c379a000000000000000000000000000000000000000000000000000000000\n      dup2\n      mstore\n      0x04\n      add\n      tag_136\n      swap1\n      tag_137\n      jump\t// in\n    tag_136:\n      mload(0x40)\n      dup1\n      swap2\n      sub\n      swap1\n      revert\n    tag_135:\n        /* \"@openzeppelin/contracts/token/ERC20/ERC20.sol\":7746:7784  _beforeTokenTransfer(from, to, amount) */\n      tag_138\n        /* \"@openzeppelin/contracts/token/ERC20/ERC20.sol\":7767:7771  from */\n      dup4\n        /* \"@openzeppelin/contracts/token/ERC20/ERC20.sol\":7773:7775  to */\n      dup4\n        /* \"@openzeppelin/contracts/token/ERC20/ERC20.sol\":7777:7783  amount */\n      dup4\n        /* \"@openzeppelin/contracts/token/ERC20/ERC20.sol\":7746:7766  _beforeTokenTransfer */\n      tag_139\n        /* \"@openzeppelin/contracts/token/ERC20/ERC20.sol\":7746:7784  _beforeTokenTransfer(from, to, amount) */\n      jump\t// in\n    tag_138:\n        /* \"@openzeppelin/contracts/token/ERC20/ERC20.sol\":7795:7814  uint256 fromBalance */\n      0x00\n        /* \"@openzeppelin/contracts/token/ERC20/ERC20.sol\":7817:7826  _balances */\n      dup1\n        /* \"@openzeppelin/contracts/token/ERC20/ERC20.sol\":7817:7832  _balances[from] */\n      0x00\n        /* \"@openzeppelin/contracts/token/ERC20/ERC20.sol\":7827:7831  from */\n      dup6\n        /* \"@openzeppelin/contracts/token/ERC20/ERC20.sol\":7817:7832  _balances[from] */\n      0xffffffffffffffffffffffffffffffffffffffff\n      and\n      0xffffffffffffffffffffffffffffffffffffffff\n      and\n      dup2\n      mstore\n      0x20\n      add\n      swap1\n      dup2\n      mstore\n      0x20\n      add\n      0x00\n      keccak256\n      sload\n        /* \"@openzeppelin/contracts/token/ERC20/ERC20.sol\":7795:7832  uint256 fromBalance = _balances[from] */\n      swap1\n      pop\n        /* \"@openzeppelin/contracts/token/ERC20/ERC20.sol\":7865:7871  amount */\n      dup2\n        /* \"@openzeppelin/contracts/token/ERC20/ERC20.sol\":7850:7861  fromBalance */\n      dup2\n        /* \"@openzeppelin/contracts/token/ERC20/ERC20.sol\":7850:7871  fromBalance >= amount */\n      lt\n      iszero\n        /* \"@openzeppelin/contracts/token/ERC20/ERC20.sol\":7842:7914  require(fromBalance >= amount, \"ERC20: transfer amount exceeds balance\") */\n      tag_140\n      jumpi\n      mload(0x40)\n      0x08c379a000000000000000000000000000000000000000000000000000000000\n      dup2\n      mstore\n      0x04\n      add\n      tag_141\n      swap1\n      tag_142\n      jump\t// in\n    tag_141:\n      mload(0x40)\n      dup1\n      swap2\n      sub\n      swap1\n      revert\n    tag_140:\n        /* \"@openzeppelin/contracts/token/ERC20/ERC20.sol\":7980:7986  amount */\n      dup2\n        /* \"@openzeppelin/contracts/token/ERC20/ERC20.sol\":7966:7977  fromBalance */\n      dup2\n        /* \"@openzeppelin/contracts/token/ERC20/ERC20.sol\":7966:7986  fromBalance - amount */\n      sub\n        /* \"@openzeppelin/contracts/token/ERC20/ERC20.sol\":7948:7957  _balances */\n      0x00\n        /* \"@openzeppelin/contracts/token/ERC20/ERC20.sol\":7948:7963  _balances[from] */\n      dup1\n        /* \"@openzeppelin/contracts/token/ERC20/ERC20.sol\":7958:7962  from */\n      dup7\n        /* \"@openzeppelin/contracts/token/ERC20/ERC20.sol\":7948:7963  _balances[from] */\n      0xffffffffffffffffffffffffffffffffffffffff\n      and\n      0xffffffffffffffffffffffffffffffffffffffff\n      and\n      dup2\n      mstore\n      0x20\n      add\n      swap1\n      dup2\n      mstore\n      0x20\n      add\n      0x00\n      keccak256\n        /* \"@openzeppelin/contracts/token/ERC20/ERC20.sol\":7948:7986  _balances[from] = fromBalance - amount */\n      dup2\n      swap1\n      sstore\n      pop\n        /* \"@openzeppelin/contracts/token/ERC20/ERC20.sol\":8023:8029  amount */\n      dup2\n        /* \"@openzeppelin/contracts/token/ERC20/ERC20.sol\":8006:8015  _balances */\n      0x00\n        /* \"@openzeppelin/contracts/token/ERC20/ERC20.sol\":8006:8019  _balances[to] */\n      dup1\n        /* \"@openzeppelin/contracts/token/ERC20/ERC20.sol\":8016:8018  to */\n      dup6\n        /* \"@openzeppelin/contracts/token/ERC20/ERC20.sol\":8006:8019  _balances[to] */\n      0xffffffffffffffffffffffffffffffffffffffff\n      and\n      0xffffffffffffffffffffffffffffffffffffffff\n      and\n      dup2\n      mstore\n      0x20\n      add\n      swap1\n      dup2\n      mstore\n      0x20\n      add\n      0x00\n      keccak256\n      0x00\n        /* \"@openzeppelin/contracts/token/ERC20/ERC20.sol\":8006:8029  _balances[to] += amount */\n      dup3\n      dup3\n      sload\n      tag_143\n      swap2\n      swap1\n      tag_93\n      jump\t// in\n    tag_143:\n      swap3\n      pop\n      pop\n      dup2\n      swap1\n      sstore\n      pop\n        /* \"@openzeppelin/contracts/token/ERC20/ERC20.sol\":8060:8062  to */\n      dup3\n        /* \"@openzeppelin/contracts/token/ERC20/ERC20.sol\":8045:8071  Transfer(from, to, amount) */\n      0xffffffffffffffffffffffffffffffffffffffff\n      and\n        /* \"@openzeppelin/contracts/token/ERC20/ERC20.sol\":8054:8058  from */\n      dup5\n        /* \"@openzeppelin/contracts/token/ERC20/ERC20.sol\":8045:8071  Transfer(from, to, amount) */\n      0xffffffffffffffffffffffffffffffffffffffff\n      and\n      0xddf252ad1be2c89b69c2b068fc378daa952ba7f163c4a11628f55a4df523b3ef\n        /* \"@openzeppelin/contracts/token/ERC20/ERC20.sol\":8064:8070  amount */\n      dup5\n        /* \"@openzeppelin/contracts/token/ERC20/ERC20.sol\":8045:8071  Transfer(from, to, amount) */\n      mload(0x40)\n      tag_144\n      swap2\n      swap1\n      tag_29\n      jump\t// in\n    tag_144:\n      mload(0x40)\n      dup1\n      swap2\n      sub\n      swap1\n      log3\n        /* \"@openzeppelin/contracts/token/ERC20/ERC20.sol\":8082:8119  _afterTokenTransfer(from, to, amount) */\n      tag_145\n        /* \"@openzeppelin/contracts/token/ERC20/ERC20.sol\":8102:8106  from */\n      dup5\n        /* \"@openzeppelin/contracts/token/ERC20/ERC20.sol\":8108:8110  to */\n      dup5\n        /* \"@openzeppelin/contracts/token/ERC20/ERC20.sol\":8112:8118  amount */\n      dup5\n        /* \"@openzeppelin/contracts/token/ERC20/ERC20.sol\":8082:8101  _afterTokenTransfer */\n      tag_146\n        /* \"@openzeppelin/contracts/token/ERC20/ERC20.sol\":8082:8119  _afterTokenTransfer(from, to, amount) */\n      jump\t// in\n    tag_145:\n        /* \"@openzeppelin/contracts/token/ERC20/ERC20.sol\":7583:8126  {... */\n      pop\n        /* \"@openzeppelin/contracts/token/ERC20/ERC20.sol\":7475:8126  function _transfer(... */\n      pop\n      pop\n      pop\n      jump\t// out\n        /* \"@openzeppelin/contracts/token/ERC20/ERC20.sol\":11786:11907  function _beforeTokenTransfer(... */\n    tag_139:\n      pop\n      pop\n      pop\n      jump\t// out\n        /* \"@openzeppelin/contracts/token/ERC20/ERC20.sol\":12495:12615  function _afterTokenTransfer(... */\n    tag_146:\n      pop\n      pop\n      pop\n      jump\t// out\n        /* \"#utility.yul\":7:106   */\n    tag_149:\n        /* \"#utility.yul\":59:65   */\n      0x00\n        /* \"#utility.yul\":93:98   */\n      dup2\n        /* \"#utility.yul\":87:99   */\n      mload\n        /* \"#utility.yul\":77:99   */\n      swap1\n      pop\n        /* \"#utility.yul\":7:106   */\n      swap2\n      swap1\n      pop\n      jump\t// out\n        /* \"#utility.yul\":112:281   */\n    tag_150:\n        /* \"#utility.yul\":196:207   */\n      0x00\n        /* \"#utility.yul\":230:236   */\n      dup3\n        /* \"#utility.yul\":225:228   */\n      dup3\n        /* \"#utility.yul\":218:237   */\n      mstore\n        /* \"#utility.yul\":270:274   */\n      0x20\n        /* \"#utility.yul\":265:268   */\n      dup3\n        /* \"#utility.yul\":261:275   */\n      add\n        /* \"#utility.yul\":246:275   */\n      swap1\n      pop\n        /* \"#utility.yul\":112:281   */\n      swap3\n      swap2\n      pop\n      pop\n      jump\t// out\n        /* \"#utility.yul\":287:533   */\n    tag_151:\n        /* \"#utility.yul\":368:369   */\n      0x00\n        /* \"#utility.yul\":378:491   */\n    tag_193:\n        /* \"#utility.yul\":392:398   */\n      dup4\n        /* \"#utility.yul\":389:390   */\n      dup2\n        /* \"#utility.yul\":386:399   */\n      lt\n        /* \"#utility.yul\":378:491   */\n      iszero\n      tag_195\n      jumpi\n        /* \"#utility.yul\":477:478   */\n      dup1\n        /* \"#utility.yul\":472:475   */\n      dup3\n        /* \"#utility.yul\":468:479   */\n      add\n        /* \"#utility.yul\":462:480   */\n      mload\n        /* \"#utility.yul\":458:459   */\n      dup2\n        /* \"#utility.yul\":453:456   */\n      dup5\n        /* \"#utility.yul\":449:460   */\n      add\n        /* \"#utility.yul\":442:481   */\n      mstore\n        /* \"#utility.yul\":414:416   */\n      0x20\n        /* \"#utility.yul\":411:412   */\n      dup2\n        /* \"#utility.yul\":407:417   */\n      add\n        /* \"#utility.yul\":402:417   */\n      swap1\n      pop\n        /* \"#utility.yul\":378:491   */\n      jump(tag_193)\n    tag_195:\n        /* \"#utility.yul\":525:526   */\n      0x00\n        /* \"#utility.yul\":516:522   */\n      dup5\n        /* \"#utility.yul\":511:514   */\n      dup5\n        /* \"#utility.yul\":507:523   */\n      add\n        /* \"#utility.yul\":500:527   */\n      mstore\n        /* \"#utility.yul\":349:533   */\n      pop\n        /* \"#utility.yul\":287:533   */\n      pop\n      pop\n      pop\n      jump\t// out\n        /* \"#utility.yul\":539:641   */\n    tag_152:\n        /* \"#utility.yul\":580:586   */\n      0x00\n        /* \"#utility.yul\":631:633   */\n      0x1f\n        /* \"#utility.yul\":627:634   */\n      not\n        /* \"#utility.yul\":622:624   */\n      0x1f\n        /* \"#utility.yul\":615:620   */\n      dup4\n        /* \"#utility.yul\":611:625   */\n      add\n        /* \"#utility.yul\":607:635   */\n      and\n        /* \"#utility.yul\":597:635   */\n      swap1\n      pop\n        /* \"#utility.yul\":539:641   */\n      swap2\n      swap1\n      pop\n      jump\t// out\n        /* \"#utility.yul\":647:1024   */\n    tag_153:\n        /* \"#utility.yul\":735:738   */\n      0x00\n        /* \"#utility.yul\":763:802   */\n      tag_198\n        /* \"#utility.yul\":796:801   */\n      dup3\n        /* \"#utility.yul\":763:802   */\n      tag_149\n      jump\t// in\n    tag_198:\n        /* \"#utility.yul\":818:889   */\n      tag_199\n        /* \"#utility.yul\":882:888   */\n      dup2\n        /* \"#utility.yul\":877:880   */\n      dup6\n        /* \"#utility.yul\":818:889   */\n      tag_150\n      jump\t// in\n    tag_199:\n        /* \"#utility.yul\":811:889   */\n      swap4\n      pop\n        /* \"#utility.yul\":898:963   */\n      tag_200\n        /* \"#utility.yul\":956:962   */\n      dup2\n        /* \"#utility.yul\":951:954   */\n      dup6\n        /* \"#utility.yul\":944:948   */\n      0x20\n        /* \"#utility.yul\":937:942   */\n      dup7\n        /* \"#utility.yul\":933:949   */\n      add\n        /* \"#utility.yul\":898:963   */\n      tag_151\n      jump\t// in\n    tag_200:\n        /* \"#utility.yul\":988:1017   */\n      tag_201\n        /* \"#utility.yul\":1010:1016   */\n      dup2\n        /* \"#utility.yul\":988:1017   */\n      tag_152\n      jump\t// in\n    tag_201:\n        /* \"#utility.yul\":983:986   */\n      dup5\n        /* \"#utility.yul\":979:1018   */\n      add\n        /* \"#utility.yul\":972:1018   */\n      swap2\n      pop\n        /* \"#utility.yul\":739:1024   */\n      pop\n        /* \"#utility.yul\":647:1024   */\n      swap3\n      swap2\n      pop\n      pop\n      jump\t// out\n        /* \"#utility.yul\":1030:1343   */\n    tag_19:\n        /* \"#utility.yul\":1143:1147   */\n      0x00\n        /* \"#utility.yul\":1181:1183   */\n      0x20\n        /* \"#utility.yul\":1170:1179   */\n      dup3\n        /* \"#utility.yul\":1166:1184   */\n      add\n        /* \"#utility.yul\":1158:1184   */\n      swap1\n      pop\n        /* \"#utility.yul\":1230:1239   */\n      dup2\n        /* \"#utility.yul\":1224:1228   */\n      dup2\n        /* \"#utility.yul\":1220:1240   */\n      sub\n        /* \"#utility.yul\":1216:1217   */\n      0x00\n        /* \"#utility.yul\":1205:1214   */\n      dup4\n        /* \"#utility.yul\":1201:1218   */\n      add\n        /* \"#utility.yul\":1194:1241   */\n      mstore\n        /* \"#utility.yul\":1258:1336   */\n      tag_203\n        /* \"#utility.yul\":1331:1335   */\n      dup2\n        /* \"#utility.yul\":1322:1328   */\n      dup5\n        /* \"#utility.yul\":1258:1336   */\n      tag_153\n      jump\t// in\n    tag_203:\n        /* \"#utility.yul\":1250:1336   */\n      swap1\n      pop\n        /* \"#utility.yul\":1030:1343   */\n      swap3\n      swap2\n      pop\n      pop\n      jump\t// out\n        /* \"#utility.yul\":1430:1547   */\n    tag_155:\n        /* \"#utility.yul\":1539:1540   */\n      0x00\n        /* \"#utility.yul\":1536:1537   */\n      dup1\n        /* \"#utility.yul\":1529:1541   */\n      revert\n        /* \"#utility.yul\":1676:1802   */\n    tag_157:\n        /* \"#utility.yul\":1713:1720   */\n      0x00\n        /* \"#utility.yul\":1753:1795   */\n      0xffffffffffffffffffffffffffffffffffffffff\n        /* \"#utility.yul\":1746:1751   */\n      dup3\n        /* \"#utility.yul\":1742:1796   */\n      and\n        /* \"#utility.yul\":1731:1796   */\n      swap1\n      pop\n        /* \"#utility.yul\":1676:1802   */\n      swap2\n      swap1\n      pop\n      jump\t// out\n        /* \"#utility.yul\":1808:1904   */\n    tag_158:\n        /* \"#utility.yul\":1845:1852   */\n      0x00\n        /* \"#utility.yul\":1874:1898   */\n      tag_209\n        /* \"#utility.yul\":1892:1897   */\n      dup3\n        /* \"#utility.yul\":1874:1898   */\n      tag_157\n      jump\t// in\n    tag_209:\n        /* \"#utility.yul\":1863:1898   */\n      swap1\n      pop\n        /* \"#utility.yul\":1808:1904   */\n      swap2\n      swap1\n      pop\n      jump\t// out\n        /* \"#utility.yul\":1910:2032   */\n    tag_159:\n        /* \"#utility.yul\":1983:2007   */\n      tag_211\n        /* \"#utility.yul\":2001:2006   */\n      dup2\n        /* \"#utility.yul\":1983:2007   */\n      tag_158\n      jump\t// in\n    tag_211:\n        /* \"#utility.yul\":1976:1981   */\n      dup2\n        /* \"#utility.yul\":1973:2008   */\n      eq\n        /* \"#utility.yul\":1963:2026   */\n      tag_212\n      jumpi\n        /* \"#utility.yul\":2022:2023   */\n      0x00\n        /* \"#utility.yul\":2019:2020   */\n      dup1\n        /* \"#utility.yul\":2012:2024   */\n      revert\n        /* \"#utility.yul\":1963:2026   */\n    tag_212:\n        /* \"#utility.yul\":1910:2032   */\n      pop\n      jump\t// out\n        /* \"#utility.yul\":2038:2177   */\n    tag_160:\n        /* \"#utility.yul\":2084:2089   */\n      0x00\n        /* \"#utility.yul\":2122:2128   */\n      dup2\n        /* \"#utility.yul\":2109:2129   */\n      calldataload\n        /* \"#utility.yul\":2100:2129   */\n      swap1\n      pop\n        /* \"#utility.yul\":2138:2171   */\n      tag_214\n        /* \"#utility.yul\":2165:2170   */\n      dup2\n        /* \"#utility.yul\":2138:2171   */\n      tag_159\n      jump\t// in\n    tag_214:\n        /* \"#utility.yul\":2038:2177   */\n      swap3\n      swap2\n      pop\n      pop\n      jump\t// out\n        /* \"#utility.yul\":2183:2260   */\n    tag_161:\n        /* \"#utility.yul\":2220:2227   */\n      0x00\n        /* \"#utility.yul\":2249:2254   */\n      dup2\n        /* \"#utility.yul\":2238:2254   */\n      swap1\n      pop\n        /* \"#utility.yul\":2183:2260   */\n      swap2\n      swap1\n      pop\n      jump\t// out\n        /* \"#utility.yul\":2266:2388   */\n    tag_162:\n        /* \"#utility.yul\":2339:2363   */\n      tag_217\n        /* \"#utility.yul\":2357:2362   */\n      dup2\n        /* \"#utility.yul\":2339:2363   */\n      tag_161\n      jump\t// in\n    tag_217:\n        /* \"#utility.yul\":2332:2337   */\n      dup2\n        /* \"#utility.yul\":2329:2364   */\n      eq\n        /* \"#utility.yul\":2319:2382   */\n      tag_218\n      jumpi\n        /* \"#utility.yul\":2378:2379   */\n      0x00\n        /* \"#utility.yul\":2375:2376   */\n      dup1\n        /* \"#utility.yul\":2368:2380   */\n      revert\n        /* \"#utility.yul\":2319:2382   */\n    tag_218:\n        /* \"#utility.yul\":2266:2388   */\n      pop\n      jump\t// out\n        /* \"#utility.yul\":2394:2533   */\n    tag_163:\n        /* \"#utility.yul\":2440:2445   */\n      0x00\n        /* \"#utility.yul\":2478:2484   */\n      dup2\n        /* \"#utility.yul\":2465:2485   */\n      calldataload\n        /* \"#utility.yul\":2456:2485   */\n      swap1\n      pop\n        /* \"#utility.yul\":2494:2527   */\n      tag_220\n        /* \"#utility.yul\":2521:2526   */\n      dup2\n        /* \"#utility.yul\":2494:2527   */\n      tag_162\n      jump\t// in\n    tag_220:\n        /* \"#utility.yul\":2394:2533   */\n      swap3\n      swap2\n      pop\n      pop\n      jump\t// out\n        /* \"#utility.yul\":2539:3013   */\n    tag_22:\n        /* \"#utility.yul\":2607:2613   */\n      0x00\n        /* \"#utility.yul\":2615:2621   */\n      dup1\n        /* \"#utility.yul\":2664:2666   */\n      0x40\n        /* \"#utility.yul\":2652:2661   */\n      dup4\n        /* \"#utility.yul\":2643:2650   */\n      dup6\n        /* \"#utility.yul\":2639:2662   */\n      sub\n        /* \"#utility.yul\":2635:2667   */\n      slt\n        /* \"#utility.yul\":2632:2751   */\n      iszero\n      tag_222\n      jumpi\n        /* \"#utility.yul\":2670:2749   */\n      tag_223\n      tag_155\n      jump\t// in\n    tag_223:\n        /* \"#utility.yul\":2632:2751   */\n    tag_222:\n        /* \"#utility.yul\":2790:2791   */\n      0x00\n        /* \"#utility.yul\":2815:2868   */\n      tag_224\n        /* \"#utility.yul\":2860:2867   */\n      dup6\n        /* \"#utility.yul\":2851:2857   */\n      dup3\n        /* \"#utility.yul\":2840:2849   */\n      dup7\n        /* \"#utility.yul\":2836:2858   */\n      add\n        /* \"#utility.yul\":2815:2868   */\n      tag_160\n      jump\t// in\n    tag_224:\n        /* \"#utility.yul\":2805:2868   */\n      swap3\n      pop\n        /* \"#utility.yul\":2761:2878   */\n      pop\n        /* \"#utility.yul\":2917:2919   */\n      0x20\n        /* \"#utility.yul\":2943:2996   */\n      tag_225\n        /* \"#utility.yul\":2988:2995   */\n      dup6\n        /* \"#utility.yul\":2979:2985   */\n      dup3\n        /* \"#utility.yul\":2968:2977   */\n      dup7\n        /* \"#utility.yul\":2964:2986   */\n      add\n        /* \"#utility.yul\":2943:2996   */\n      tag_163\n      jump\t// in\n    tag_225:\n        /* \"#utility.yul\":2933:2996   */\n      swap2\n      pop\n        /* \"#utility.yul\":2888:3006   */\n      pop\n        /* \"#utility.yul\":2539:3013   */\n      swap3\n      pop\n      swap3\n      swap1\n      pop\n      jump\t// out\n        /* \"#utility.yul\":3019:3109   */\n    tag_164:\n        /* \"#utility.yul\":3053:3060   */\n      0x00\n        /* \"#utility.yul\":3096:3101   */\n      dup2\n        /* \"#utility.yul\":3089:3102   */\n      iszero\n        /* \"#utility.yul\":3082:3103   */\n      iszero\n        /* \"#utility.yul\":3071:3103   */\n      swap1\n      pop\n        /* \"#utility.yul\":3019:3109   */\n      swap2\n      swap1\n      pop\n      jump\t// out\n        /* \"#utility.yul\":3115:3224   */\n    tag_165:\n        /* \"#utility.yul\":3196:3217   */\n      tag_228\n        /* \"#utility.yul\":3211:3216   */\n      dup2\n        /* \"#utility.yul\":3196:3217   */\n      tag_164\n      jump\t// in\n    tag_228:\n        /* \"#utility.yul\":3191:3194   */\n      dup3\n        /* \"#utility.yul\":3184:3218   */\n      mstore\n        /* \"#utility.yul\":3115:3224   */\n      pop\n      pop\n      jump\t// out\n        /* \"#utility.yul\":3230:3440   */\n    tag_25:\n        /* \"#utility.yul\":3317:3321   */\n      0x00\n        /* \"#utility.yul\":3355:3357   */\n      0x20\n        /* \"#utility.yul\":3344:3353   */\n      dup3\n        /* \"#utility.yul\":3340:3358   */\n      add\n        /* \"#utility.yul\":3332:3358   */\n      swap1\n      pop\n        /* \"#utility.yul\":3368:3433   */\n      tag_230\n        /* \"#utility.yul\":3430:3431   */\n      0x00\n        /* \"#utility.yul\":3419:3428   */\n      dup4\n        /* \"#utility.yul\":3415:3432   */\n      add\n        /* \"#utility.yul\":3406:3412   */\n      dup5\n        /* \"#utility.yul\":3368:3433   */\n      tag_165\n      jump\t// in\n    tag_230:\n        /* \"#utility.yul\":3230:3440   */\n      swap3\n      swap2\n      pop\n      pop\n      jump\t// out\n        /* \"#utility.yul\":3446:3564   */\n    tag_166:\n        /* \"#utility.yul\":3533:3557   */\n      tag_232\n        /* \"#utility.yul\":3551:3556   */\n      dup2\n        /* \"#utility.yul\":3533:3557   */\n      tag_161\n      jump\t// in\n    tag_232:\n        /* \"#utility.yul\":3528:3531   */\n      dup3\n        /* \"#utility.yul\":3521:3558   */\n      mstore\n        /* \"#utility.yul\":3446:3564   */\n      pop\n      pop\n      jump\t// out\n        /* \"#utility.yul\":3570:3792   */\n    tag_29:\n        /* \"#utility.yul\":3663:3667   */\n      0x00\n        /* \"#utility.yul\":3701:3703   */\n      0x20\n        /* \"#utility.yul\":3690:3699   */\n      dup3\n        /* \"#utility.yul\":3686:3704   */\n      add\n        /* \"#utility.yul\":3678:3704   */\n      swap1\n      pop\n        /* \"#utility.yul\":3714:3785   */\n      tag_234\n        /* \"#utility.yul\":3782:3783   */\n      0x00\n        /* \"#utility.yul\":3771:3780   */\n      dup4\n        /* \"#utility.yul\":3767:3784   */\n      add\n        /* \"#utility.yul\":3758:3764   */\n      dup5\n        /* \"#utility.yul\":3714:3785   */\n      tag_166\n      jump\t// in\n    tag_234:\n        /* \"#utility.yul\":3570:3792   */\n      swap3\n      swap2\n      pop\n      pop\n      jump\t// out\n        /* \"#utility.yul\":3798:4417   */\n    tag_32:\n        /* \"#utility.yul\":3875:3881   */\n      0x00\n        /* \"#utility.yul\":3883:3889   */\n      dup1\n        /* \"#utility.yul\":3891:3897   */\n      0x00\n        /* \"#utility.yul\":3940:3942   */\n      0x60\n        /* \"#utility.yul\":3928:3937   */\n      dup5\n        /* \"#utility.yul\":3919:3926   */\n      dup7\n        /* \"#utility.yul\":3915:3938   */\n      sub\n        /* \"#utility.yul\":3911:3943   */\n      slt\n        /* \"#utility.yul\":3908:4027   */\n      iszero\n      tag_236\n      jumpi\n        /* \"#utility.yul\":3946:4025   */\n      tag_237\n      tag_155\n      jump\t// in\n    tag_237:\n        /* \"#utility.yul\":3908:4027   */\n    tag_236:\n        /* \"#utility.yul\":4066:4067   */\n      0x00\n        /* \"#utility.yul\":4091:4144   */\n      tag_238\n        /* \"#utility.yul\":4136:4143   */\n      dup7\n        /* \"#utility.yul\":4127:4133   */\n      dup3\n        /* \"#utility.yul\":4116:4125   */\n      dup8\n        /* \"#utility.yul\":4112:4134   */\n      add\n        /* \"#utility.yul\":4091:4144   */\n      tag_160\n      jump\t// in\n    tag_238:\n        /* \"#utility.yul\":4081:4144   */\n      swap4\n      pop\n        /* \"#utility.yul\":4037:4154   */\n      pop\n        /* \"#utility.yul\":4193:4195   */\n      0x20\n        /* \"#utility.yul\":4219:4272   */\n      tag_239\n        /* \"#utility.yul\":4264:4271   */\n      dup7\n        /* \"#utility.yul\":4255:4261   */\n      dup3\n        /* \"#utility.yul\":4244:4253   */\n      dup8\n        /* \"#utility.yul\":4240:4262   */\n      add\n        /* \"#utility.yul\":4219:4272   */\n      tag_160\n      jump\t// in\n    tag_239:\n        /* \"#utility.yul\":4209:4272   */\n      swap3\n      pop\n        /* \"#utility.yul\":4164:4282   */\n      pop\n        /* \"#utility.yul\":4321:4323   */\n      0x40\n        /* \"#utility.yul\":4347:4400   */\n      tag_240\n        /* \"#utility.yul\":4392:4399   */\n      dup7\n        /* \"#utility.yul\":4383:4389   */\n      dup3\n        /* \"#utility.yul\":4372:4381   */\n      dup8\n        /* \"#utility.yul\":4368:4390   */\n      add\n        /* \"#utility.yul\":4347:4400   */\n      tag_163\n      jump\t// in\n    tag_240:\n        /* \"#utility.yul\":4337:4400   */\n      swap2\n      pop\n        /* \"#utility.yul\":4292:4410   */\n      pop\n        /* \"#utility.yul\":3798:4417   */\n      swap3\n      pop\n      swap3\n      pop\n      swap3\n      jump\t// out\n        /* \"#utility.yul\":4423:4509   */\n    tag_167:\n        /* \"#utility.yul\":4458:4465   */\n      0x00\n        /* \"#utility.yul\":4498:4502   */\n      0xff\n        /* \"#utility.yul\":4491:4496   */\n      dup3\n        /* \"#utility.yul\":4487:4503   */\n      and\n        /* \"#utility.yul\":4476:4503   */\n      swap1\n      pop\n        /* \"#utility.yul\":4423:4509   */\n      swap2\n      swap1\n      pop\n      jump\t// out\n        /* \"#utility.yul\":4515:4627   */\n    tag_168:\n        /* \"#utility.yul\":4598:4620   */\n      tag_243\n        /* \"#utility.yul\":4614:4619   */\n      dup2\n        /* \"#utility.yul\":4598:4620   */\n      tag_167\n      jump\t// in\n    tag_243:\n        /* \"#utility.yul\":4593:4596   */\n      dup3\n        /* \"#utility.yul\":4586:4621   */\n      mstore\n        /* \"#utility.yul\":4515:4627   */\n      pop\n      pop\n      jump\t// out\n        /* \"#utility.yul\":4633:4847   */\n    tag_38:\n        /* \"#utility.yul\":4722:4726   */\n      0x00\n        /* \"#utility.yul\":4760:4762   */\n      0x20\n        /* \"#utility.yul\":4749:4758   */\n      dup3\n        /* \"#utility.yul\":4745:4763   */\n      add\n        /* \"#utility.yul\":4737:4763   */\n      swap1\n      pop\n        /* \"#utility.yul\":4773:4840   */\n      tag_245\n        /* \"#utility.yul\":4837:4838   */\n      0x00\n        /* \"#utility.yul\":4826:4835   */\n      dup4\n        /* \"#utility.yul\":4822:4839   */\n      add\n        /* \"#utility.yul\":4813:4819   */\n      dup5\n        /* \"#utility.yul\":4773:4840   */\n      tag_168\n      jump\t// in\n    tag_245:\n        /* \"#utility.yul\":4633:4847   */\n      swap3\n      swap2\n      pop\n      pop\n      jump\t// out\n        /* \"#utility.yul\":4853:5182   */\n    tag_45:\n        /* \"#utility.yul\":4912:4918   */\n      0x00\n        /* \"#utility.yul\":4961:4963   */\n      0x20\n        /* \"#utility.yul\":4949:4958   */\n      dup3\n        /* \"#utility.yul\":4940:4947   */\n      dup5\n        /* \"#utility.yul\":4936:4959   */\n      sub\n        /* \"#utility.yul\":4932:4964   */\n      slt\n        /* \"#utility.yul\":4929:5048   */\n      iszero\n      tag_247\n      jumpi\n        /* \"#utility.yul\":4967:5046   */\n      tag_248\n      tag_155\n      jump\t// in\n    tag_248:\n        /* \"#utility.yul\":4929:5048   */\n    tag_247:\n        /* \"#utility.yul\":5087:5088   */\n      0x00\n        /* \"#utility.yul\":5112:5165   */\n      tag_249\n        /* \"#utility.yul\":5157:5164   */\n      dup5\n        /* \"#utility.yul\":5148:5154   */\n      dup3\n        /* \"#utility.yul\":5137:5146   */\n      dup6\n        /* \"#utility.yul\":5133:5155   */\n      add\n        /* \"#utility.yul\":5112:5165   */\n      tag_160\n      jump\t// in\n    tag_249:\n        /* \"#utility.yul\":5102:5165   */\n      swap2\n      pop\n        /* \"#utility.yul\":5058:5175   */\n      pop\n        /* \"#utility.yul\":4853:5182   */\n      swap3\n      swap2\n      pop\n      pop\n      jump\t// out\n        /* \"#utility.yul\":5188:5517   */\n    tag_57:\n        /* \"#utility.yul\":5247:5253   */\n      0x00\n        /* \"#utility.yul\":5296:5298   */\n      0x20\n        /* \"#utility.yul\":5284:5293   */\n      dup3\n        /* \"#utility.yul\":5275:5282   */\n      dup5\n        /* \"#utility.yul\":5271:5294   */\n      sub\n        /* \"#utility.yul\":5267:5299   */\n      slt\n        /* \"#utility.yul\":5264:5383   */\n      iszero\n      tag_251\n      jumpi\n        /* \"#utility.yul\":5302:5381   */\n      tag_252\n      tag_155\n      jump\t// in\n    tag_252:\n        /* \"#utility.yul\":5264:5383   */\n    tag_251:\n        /* \"#utility.yul\":5422:5423   */\n      0x00\n        /* \"#utility.yul\":5447:5500   */\n      tag_253\n        /* \"#utility.yul\":5492:5499   */\n      dup5\n        /* \"#utility.yul\":5483:5489   */\n      dup3\n        /* \"#utility.yul\":5472:5481   */\n      dup6\n        /* \"#utility.yul\":5468:5490   */\n      add\n        /* \"#utility.yul\":5447:5500   */\n      tag_163\n      jump\t// in\n    tag_253:\n        /* \"#utility.yul\":5437:5500   */\n      swap2\n      pop\n        /* \"#utility.yul\":5393:5510   */\n      pop\n        /* \"#utility.yul\":5188:5517   */\n      swap3\n      swap2\n      pop\n      pop\n      jump\t// out\n        /* \"#utility.yul\":5523:5997   */\n    tag_65:\n        /* \"#utility.yul\":5591:5597   */\n      0x00\n        /* \"#utility.yul\":5599:5605   */\n      dup1\n        /* \"#utility.yul\":5648:5650   */\n      0x40\n        /* \"#utility.yul\":5636:5645   */\n      dup4\n        /* \"#utility.yul\":5627:5634   */\n      dup6\n        /* \"#utility.yul\":5623:5646   */\n      sub\n        /* \"#utility.yul\":5619:5651   */\n      slt\n        /* \"#utility.yul\":5616:5735   */\n      iszero\n      tag_255\n      jumpi\n        /* \"#utility.yul\":5654:5733   */\n      tag_256\n      tag_155\n      jump\t// in\n    tag_256:\n        /* \"#utility.yul\":5616:5735   */\n    tag_255:\n        /* \"#utility.yul\":5774:5775   */\n      0x00\n        /* \"#utility.yul\":5799:5852   */\n      tag_257\n        /* \"#utility.yul\":5844:5851   */\n      dup6\n        /* \"#utility.yul\":5835:5841   */\n      dup3\n        /* \"#utility.yul\":5824:5833   */\n      dup7\n        /* \"#utility.yul\":5820:5842   */\n      add\n        /* \"#utility.yul\":5799:5852   */\n      tag_160\n      jump\t// in\n    tag_257:\n        /* \"#utility.yul\":5789:5852   */\n      swap3\n      pop\n        /* \"#utility.yul\":5745:5862   */\n      pop\n        /* \"#utility.yul\":5901:5903   */\n      0x20\n        /* \"#utility.yul\":5927:5980   */\n      tag_258\n        /* \"#utility.yul\":5972:5979   */\n      dup6\n        /* \"#utility.yul\":5963:5969   */\n      dup3\n        /* \"#utility.yul\":5952:5961   */\n      dup7\n        /* \"#utility.yul\":5948:5970   */\n      add\n        /* \"#utility.yul\":5927:5980   */\n      tag_160\n      jump\t// in\n    tag_258:\n        /* \"#utility.yul\":5917:5980   */\n      swap2\n      pop\n        /* \"#utility.yul\":5872:5990   */\n      pop\n        /* \"#utility.yul\":5523:5997   */\n      swap3\n      pop\n      swap3\n      swap1\n      pop\n      jump\t// out\n        /* \"#utility.yul\":6003:6183   */\n    tag_169:\n        /* \"#utility.yul\":6051:6128   */\n      0x4e487b7100000000000000000000000000000000000000000000000000000000\n        /* \"#utility.yul\":6048:6049   */\n      0x00\n        /* \"#utility.yul\":6041:6129   */\n      mstore\n        /* \"#utility.yul\":6148:6152   */\n      0x22\n        /* \"#utility.yul\":6145:6146   */\n      0x04\n        /* \"#utility.yul\":6138:6153   */\n      mstore\n        /* \"#utility.yul\":6172:6176   */\n      0x24\n        /* \"#utility.yul\":6169:6170   */\n      0x00\n        /* \"#utility.yul\":6162:6177   */\n      revert\n        /* \"#utility.yul\":6189:6509   */\n    tag_70:\n        /* \"#utility.yul\":6233:6239   */\n      0x00\n        /* \"#utility.yul\":6270:6271   */\n      0x02\n        /* \"#utility.yul\":6264:6268   */\n      dup3\n        /* \"#utility.yul\":6260:6272   */\n      div\n        /* \"#utility.yul\":6250:6272   */\n      swap1\n      pop\n        /* \"#utility.yul\":6317:6318   */\n      0x01\n        /* \"#utility.yul\":6311:6315   */\n      dup3\n        /* \"#utility.yul\":6307:6319   */\n      and\n        /* \"#utility.yul\":6338:6356   */\n      dup1\n        /* \"#utility.yul\":6328:6409   */\n      tag_261\n      jumpi\n        /* \"#utility.yul\":6394:6398   */\n      0x7f\n        /* \"#utility.yul\":6386:6392   */\n      dup3\n        /* \"#utility.yul\":6382:6399   */\n      and\n        /* \"#utility.yul\":6372:6399   */\n      swap2\n      pop\n        /* \"#utility.yul\":6328:6409   */\n    tag_261:\n        /* \"#utility.yul\":6456:6458   */\n      0x20\n        /* \"#utility.yul\":6448:6454   */\n      dup3\n        /* \"#utility.yul\":6445:6459   */\n      lt\n        /* \"#utility.yul\":6425:6443   */\n      dup2\n        /* \"#utility.yul\":6422:6460   */\n      sub\n        /* \"#utility.yul\":6419:6503   */\n      tag_262\n      jumpi\n        /* \"#utility.yul\":6475:6493   */\n      tag_263\n      tag_169\n      jump\t// in\n    tag_263:\n        /* \"#utility.yul\":6419:6503   */\n    tag_262:\n        /* \"#utility.yul\":6240:6509   */\n      pop\n        /* \"#utility.yul\":6189:6509   */\n      swap2\n      swap1\n      pop\n      jump\t// out\n        /* \"#utility.yul\":6515:6695   */\n    tag_170:\n        /* \"#utility.yul\":6563:6640   */\n      0x4e487b7100000000000000000000000000000000000000000000000000000000\n        /* \"#utility.yul\":6560:6561   */\n      0x00\n        /* \"#utility.yul\":6553:6641   */\n      mstore\n        /* \"#utility.yul\":6660:6664   */\n      0x11\n        /* \"#utility.yul\":6657:6658   */\n      0x04\n        /* \"#utility.yul\":6650:6665   */\n      mstore\n        /* \"#utility.yul\":6684:6688   */\n      0x24\n        /* \"#utility.yul\":6681:6682   */\n      0x00\n        /* \"#utility.yul\":6674:6689   */\n      revert\n        /* \"#utility.yul\":6701:6892   */\n    tag_93:\n        /* \"#utility.yul\":6741:6744   */\n      0x00\n        /* \"#utility.yul\":6760:6780   */\n      tag_266\n        /* \"#utility.yul\":6778:6779   */\n      dup3\n        /* \"#utility.yul\":6760:6780   */\n      tag_161\n      jump\t// in\n    tag_266:\n        /* \"#utility.yul\":6755:6780   */\n      swap2\n      pop\n        /* \"#utility.yul\":6794:6814   */\n      tag_267\n        /* \"#utility.yul\":6812:6813   */\n      dup4\n        /* \"#utility.yul\":6794:6814   */\n      tag_161\n      jump\t// in\n    tag_267:\n        /* \"#utility.yul\":6789:6814   */\n      swap3\n      pop\n        /* \"#utility.yul\":6837:6838   */\n      dup3\n        /* \"#utility.yul\":6834:6835   */\n      dup3\n        /* \"#utility.yul\":6830:6839   */\n      add\n        /* \"#utility.yul\":6823:6839   */\n      swap1\n      pop\n        /* \"#utility.yul\":6858:6861   */\n      dup1\n        /* \"#utility.yul\":6855:6856   */\n      dup3\n        /* \"#utility.yul\":6852:6862   */\n      gt\n        /* \"#utility.yul\":6849:6885   */\n      iszero\n      tag_268\n      jumpi\n        /* \"#utility.yul\":6865:6883   */\n      tag_269\n      tag_170\n      jump\t// in\n    tag_269:\n        /* \"#utility.yul\":6849:6885   */\n    tag_268:\n        /* \"#utility.yul\":6701:6892   */\n      swap3\n      swap2\n      pop\n      pop\n      jump\t// out\n        /* \"#utility.yul\":6898:7122   */\n    tag_171:\n        /* \"#utility.yul\":7038:7072   */\n      0x45524332303a2064656372656173656420616c6c6f77616e63652062656c6f77\n        /* \"#utility.yul\":7034:7035   */\n      0x00\n        /* \"#utility.yul\":7026:7032   */\n      dup3\n        /* \"#utility.yul\":7022:7036   */\n      add\n        /* \"#utility.yul\":7015:7073   */\n      mstore\n        /* \"#utility.yul\":7107:7114   */\n      0x207a65726f000000000000000000000000000000000000000000000000000000\n        /* \"#utility.yul\":7102:7104   */\n      0x20\n        /* \"#utility.yul\":7094:7100   */\n      dup3\n        /* \"#utility.yul\":7090:7105   */\n      add\n        /* \"#utility.yul\":7083:7115   */\n      mstore\n        /* \"#utility.yul\":6898:7122   */\n      pop\n      jump\t// out\n        /* \"#utility.yul\":7128:7494   */\n    tag_172:\n        /* \"#utility.yul\":7270:7273   */\n      0x00\n        /* \"#utility.yul\":7291:7358   */\n      tag_272\n        /* \"#utility.yul\":7355:7357   */\n      0x25\n        /* \"#utility.yul\":7350:7353   */\n      dup4\n        /* \"#utility.yul\":7291:7358   */\n      tag_150\n      jump\t// in\n    tag_272:\n        /* \"#utility.yul\":7284:7358   */\n      swap2\n      pop\n        /* \"#utility.yul\":7367:7460   */\n      tag_273\n        /* \"#utility.yul\":7456:7459   */\n      dup3\n        /* \"#utility.yul\":7367:7460   */\n      tag_171\n      jump\t// in\n    tag_273:\n        /* \"#utility.yul\":7485:7487   */\n      0x40\n        /* \"#utility.yul\":7480:7483   */\n      dup3\n        /* \"#utility.yul\":7476:7488   */\n      add\n        /* \"#utility.yul\":7469:7488   */\n      swap1\n      pop\n        /* \"#utility.yul\":7128:7494   */\n      swap2\n      swap1\n      pop\n      jump\t// out\n        /* \"#utility.yul\":7500:7919   */\n    tag_106:\n        /* \"#utility.yul\":7666:7670   */\n      0x00\n        /* \"#utility.yul\":7704:7706   */\n      0x20\n        /* \"#utility.yul\":7693:7702   */\n      dup3\n        /* \"#utility.yul\":7689:7707   */\n      add\n        /* \"#utility.yul\":7681:7707   */\n      swap1\n      pop\n        /* \"#utility.yul\":7753:7762   */\n      dup2\n        /* \"#utility.yul\":7747:7751   */\n      dup2\n        /* \"#utility.yul\":7743:7763   */\n      sub\n        /* \"#utility.yul\":7739:7740   */\n      0x00\n        /* \"#utility.yul\":7728:7737   */\n      dup4\n        /* \"#utility.yul\":7724:7741   */\n      add\n        /* \"#utility.yul\":7717:7764   */\n      mstore\n        /* \"#utility.yul\":7781:7912   */\n      tag_275\n        /* \"#utility.yul\":7907:7911   */\n      dup2\n        /* \"#utility.yul\":7781:7912   */\n      tag_172\n      jump\t// in\n    tag_275:\n        /* \"#utility.yul\":7773:7912   */\n      swap1\n      pop\n        /* \"#utility.yul\":7500:7919   */\n      swap2\n      swap1\n      pop\n      jump\t// out\n        /* \"#utility.yul\":7925:8029   */\n    tag_173:\n        /* \"#utility.yul\":7989:7996   */\n      0x00\n        /* \"#utility.yul\":8018:8023   */\n      dup2\n        /* \"#utility.yul\":8007:8023   */\n      swap1\n      pop\n        /* \"#utility.yul\":7925:8029   */\n      swap2\n      swap1\n      pop\n      jump\t// out\n        /* \"#utility.yul\":8035:8095   */\n    tag_174:\n        /* \"#utility.yul\":8063:8066   */\n      0x00\n        /* \"#utility.yul\":8084:8089   */\n      dup2\n        /* \"#utility.yul\":8077:8089   */\n      swap1\n      pop\n        /* \"#utility.yul\":8035:8095   */\n      swap2\n      swap1\n      pop\n      jump\t// out\n        /* \"#utility.yul\":8101:8297   */\n    tag_175:\n        /* \"#utility.yul\":8178:8187   */\n      0x00\n        /* \"#utility.yul\":8211:8291   */\n      tag_279\n        /* \"#utility.yul\":8229:8290   */\n      tag_280\n        /* \"#utility.yul\":8238:8289   */\n      tag_281\n        /* \"#utility.yul\":8283:8288   */\n      dup5\n        /* \"#utility.yul\":8238:8289   */\n      tag_173\n      jump\t// in\n    tag_281:\n        /* \"#utility.yul\":8229:8290   */\n      tag_174\n      jump\t// in\n    tag_280:\n        /* \"#utility.yul\":8211:8291   */\n      tag_161\n      jump\t// in\n    tag_279:\n        /* \"#utility.yul\":8198:8291   */\n      swap1\n      pop\n        /* \"#utility.yul\":8101:8297   */\n      swap2\n      swap1\n      pop\n      jump\t// out\n        /* \"#utility.yul\":8303:8488   */\n    tag_176:\n        /* \"#utility.yul\":8417:8481   */\n      tag_283\n        /* \"#utility.yul\":8475:8480   */\n      dup2\n        /* \"#utility.yul\":8417:8481   */\n      tag_175\n      jump\t// in\n    tag_283:\n        /* \"#utility.yul\":8412:8415   */\n      dup3\n        /* \"#utility.yul\":8405:8482   */\n      mstore\n        /* \"#utility.yul\":8303:8488   */\n      pop\n      pop\n      jump\t// out\n        /* \"#utility.yul\":8494:8770   */\n    tag_110:\n        /* \"#utility.yul\":8614:8618   */\n      0x00\n        /* \"#utility.yul\":8652:8654   */\n      0x20\n        /* \"#utility.yul\":8641:8650   */\n      dup3\n        /* \"#utility.yul\":8637:8655   */\n      add\n        /* \"#utility.yul\":8629:8655   */\n      swap1\n      pop\n        /* \"#utility.yul\":8665:8763   */\n      tag_285\n        /* \"#utility.yul\":8760:8761   */\n      0x00\n        /* \"#utility.yul\":8749:8758   */\n      dup4\n        /* \"#utility.yul\":8745:8762   */\n      add\n        /* \"#utility.yul\":8736:8742   */\n      dup5\n        /* \"#utility.yul\":8665:8763   */\n      tag_176\n      jump\t// in\n    tag_285:\n        /* \"#utility.yul\":8494:8770   */\n      swap3\n      swap2\n      pop\n      pop\n      jump\t// out\n        /* \"#utility.yul\":8776:8999   */\n    tag_177:\n        /* \"#utility.yul\":8916:8950   */\n      0x45524332303a20617070726f76652066726f6d20746865207a65726f20616464\n        /* \"#utility.yul\":8912:8913   */\n      0x00\n        /* \"#utility.yul\":8904:8910   */\n      dup3\n        /* \"#utility.yul\":8900:8914   */\n      add\n        /* \"#utility.yul\":8893:8951   */\n      mstore\n        /* \"#utility.yul\":8985:8991   */\n      0x7265737300000000000000000000000000000000000000000000000000000000\n        /* \"#utility.yul\":8980:8982   */\n      0x20\n        /* \"#utility.yul\":8972:8978   */\n      dup3\n        /* \"#utility.yul\":8968:8983   */\n      add\n        /* \"#utility.yul\":8961:8992   */\n      mstore\n        /* \"#utility.yul\":8776:8999   */\n      pop\n      jump\t// out\n        /* \"#utility.yul\":9005:9371   */\n    tag_178:\n        /* \"#utility.yul\":9147:9150   */\n      0x00\n        /* \"#utility.yul\":9168:9235   */\n      tag_288\n        /* \"#utility.yul\":9232:9234   */\n      0x24\n        /* \"#utility.yul\":9227:9230   */\n      dup4\n        /* \"#utility.yul\":9168:9235   */\n      tag_150\n      jump\t// in\n    tag_288:\n        /* \"#utility.yul\":9161:9235   */\n      swap2\n      pop\n        /* \"#utility.yul\":9244:9337   */\n      tag_289\n        /* \"#utility.yul\":9333:9336   */\n      dup3\n        /* \"#utility.yul\":9244:9337   */\n      tag_177\n      jump\t// in\n    tag_289:\n        /* \"#utility.yul\":9362:9364   */\n      0x40\n        /* \"#utility.yul\":9357:9360   */\n      dup3\n        /* \"#utility.yul\":9353:9365   */\n      add\n        /* \"#utility.yul\":9346:9365   */\n      swap1\n      pop\n        /* \"#utility.yul\":9005:9371   */\n      swap2\n      swap1\n      pop\n      jump\t// out\n        /* \"#utility.yul\":9377:9796   */\n    tag_119:\n        /* \"#utility.yul\":9543:9547   */\n      0x00\n        /* \"#utility.yul\":9581:9583   */\n      0x20\n        /* \"#utility.yul\":9570:9579   */\n      dup3\n        /* \"#utility.yul\":9566:9584   */\n      add\n        /* \"#utility.yul\":9558:9584   */\n      swap1\n      pop\n        /* \"#utility.yul\":9630:9639   */\n      dup2\n        /* \"#utility.yul\":9624:9628   */\n      dup2\n        /* \"#utility.yul\":9620:9640   */\n      sub\n        /* \"#utility.yul\":9616:9617   */\n      0x00\n        /* \"#utility.yul\":9605:9614   */\n      dup4\n        /* \"#utility.yul\":9601:9618   */\n      add\n        /* \"#utility.yul\":9594:9641   */\n      mstore\n        /* \"#utility.yul\":9658:9789   */\n      tag_291\n        /* \"#utility.yul\":9784:9788   */\n      dup2\n        /* \"#utility.yul\":9658:9789   */\n      tag_178\n      jump\t// in\n    tag_291:\n        /* \"#utility.yul\":9650:9789   */\n      swap1\n      pop\n        /* \"#utility.yul\":9377:9796   */\n      swap2\n      swap1\n      pop\n      jump\t// out\n        /* \"#utility.yul\":9802:10023   */\n    tag_179:\n        /* \"#utility.yul\":9942:9976   */\n      0x45524332303a20617070726f766520746f20746865207a65726f206164647265\n        /* \"#utility.yul\":9938:9939   */\n      0x00\n        /* \"#utility.yul\":9930:9936   */\n      dup3\n        /* \"#utility.yul\":9926:9940   */\n      add\n        /* \"#utility.yul\":9919:9977   */\n      mstore\n        /* \"#utility.yul\":10011:10015   */\n      0x7373000000000000000000000000000000000000000000000000000000000000\n        /* \"#utility.yul\":10006:10008   */\n      0x20\n        /* \"#utility.yul\":9998:10004   */\n      dup3\n        /* \"#utility.yul\":9994:10009   */\n      add\n        /* \"#utility.yul\":9987:10016   */\n      mstore\n        /* \"#utility.yul\":9802:10023   */\n      pop\n      jump\t// out\n        /* \"#utility.yul\":10029:10395   */\n    tag_180:\n        /* \"#utility.yul\":10171:10174   */\n      0x00\n        /* \"#utility.yul\":10192:10259   */\n      tag_294\n        /* \"#utility.yul\":10256:10258   */\n      0x22\n        /* \"#utility.yul\":10251:10254   */\n      dup4\n        /* \"#utility.yul\":10192:10259   */\n      tag_150\n      jump\t// in\n    tag_294:\n        /* \"#utility.yul\":10185:10259   */\n      swap2\n      pop\n        /* \"#utility.yul\":10268:10361   */\n      tag_295\n        /* \"#utility.yul\":10357:10360   */\n      dup3\n        /* \"#utility.yul\":10268:10361   */\n      tag_179\n      jump\t// in\n    tag_295:\n        /* \"#utility.yul\":10386:10388   */\n      0x40\n        /* \"#utility.yul\":10381:10384   */\n      dup3\n        /* \"#utility.yul\":10377:10389   */\n      add\n        /* \"#utility.yul\":10370:10389   */\n      swap1\n      pop\n        /* \"#utility.yul\":10029:10395   */\n      swap2\n      swap1\n      pop\n      jump\t// out\n        /* \"#utility.yul\":10401:10820   */\n    tag_122:\n        /* \"#utility.yul\":10567:10571   */\n      0x00\n        /* \"#utility.yul\":10605:10607   */\n      0x20\n        /* \"#utility.yul\":10594:10603   */\n      dup3\n        /* \"#utility.yul\":10590:10608   */\n      add\n        /* \"#utility.yul\":10582:10608   */\n      swap1\n      pop\n        /* \"#utility.yul\":10654:10663   */\n      dup2\n        /* \"#utility.yul\":10648:10652   */\n      dup2\n        /* \"#utility.yul\":10644:10664   */\n      sub\n        /* \"#utility.yul\":10640:10641   */\n      0x00\n        /* \"#utility.yul\":10629:10638   */\n      dup4\n        /* \"#utility.yul\":10625:10642   */\n      add\n        /* \"#utility.yul\":10618:10665   */\n      mstore\n        /* \"#utility.yul\":10682:10813   */\n      tag_297\n        /* \"#utility.yul\":10808:10812   */\n      dup2\n        /* \"#utility.yul\":10682:10813   */\n      tag_180\n      jump\t// in\n    tag_297:\n        /* \"#utility.yul\":10674:10813   */\n      swap1\n      pop\n        /* \"#utility.yul\":10401:10820   */\n      swap2\n      swap1\n      pop\n      jump\t// out\n        /* \"#utility.yul\":10826:11005   */\n    tag_181:\n        /* \"#utility.yul\":10966:10997   */\n      0x45524332303a20696e73756666696369656e7420616c6c6f77616e6365000000\n        /* \"#utility.yul\":10962:10963   */\n      0x00\n        /* \"#utility.yul\":10954:10960   */\n      dup3\n        /* \"#utility.yul\":10950:10964   */\n      add\n        /* \"#utility.yul\":10943:10998   */\n      mstore\n        /* \"#utility.yul\":10826:11005   */\n      pop\n      jump\t// out\n        /* \"#utility.yul\":11011:11377   */\n    tag_182:\n        /* \"#utility.yul\":11153:11156   */\n      0x00\n        /* \"#utility.yul\":11174:11241   */\n      tag_300\n        /* \"#utility.yul\":11238:11240   */\n      0x1d\n        /* \"#utility.yul\":11233:11236   */\n      dup4\n        /* \"#utility.yul\":11174:11241   */\n      tag_150\n      jump\t// in\n    tag_300:\n        /* \"#utility.yul\":11167:11241   */\n      swap2\n      pop\n        /* \"#utility.yul\":11250:11343   */\n      tag_301\n        /* \"#utility.yul\":11339:11342   */\n      dup3\n        /* \"#utility.yul\":11250:11343   */\n      tag_181\n      jump\t// in\n    tag_301:\n        /* \"#utility.yul\":11368:11370   */\n      0x20\n        /* \"#utility.yul\":11363:11366   */\n      dup3\n        /* \"#utility.yul\":11359:11371   */\n      add\n        /* \"#utility.yul\":11352:11371   */\n      swap1\n      pop\n        /* \"#utility.yul\":11011:11377   */\n      swap2\n      swap1\n      pop\n      jump\t// out\n        /* \"#utility.yul\":11383:11802   */\n    tag_129:\n        /* \"#utility.yul\":11549:11553   */\n      0x00\n        /* \"#utility.yul\":11587:11589   */\n      0x20\n        /* \"#utility.yul\":11576:11585   */\n      dup3\n        /* \"#utility.yul\":11572:11590   */\n      add\n        /* \"#utility.yul\":11564:11590   */\n      swap1\n      pop\n        /* \"#utility.yul\":11636:11645   */\n      dup2\n        /* \"#utility.yul\":11630:11634   */\n      dup2\n        /* \"#utility.yul\":11626:11646   */\n      sub\n        /* \"#utility.yul\":11622:11623   */\n      0x00\n        /* \"#utility.yul\":11611:11620   */\n      dup4\n        /* \"#utility.yul\":11607:11624   */\n      add\n        /* \"#utility.yul\":11600:11647   */\n      mstore\n        /* \"#utility.yul\":11664:11795   */\n      tag_303\n        /* \"#utility.yul\":11790:11794   */\n      dup2\n        /* \"#utility.yul\":11664:11795   */\n      tag_182\n      jump\t// in\n    tag_303:\n        /* \"#utility.yul\":11656:11795   */\n      swap1\n      pop\n        /* \"#utility.yul\":11383:11802   */\n      swap2\n      swap1\n      pop\n      jump\t// out\n        /* \"#utility.yul\":11808:12032   */\n    tag_183:\n        /* \"#utility.yul\":11948:11982   */\n      0x45524332303a207472616e736665722066726f6d20746865207a65726f206164\n        /* \"#utility.yul\":11944:11945   */\n      0x00\n        /* \"#utility.yul\":11936:11942   */\n      dup3\n        /* \"#utility.yul\":11932:11946   */\n      add\n        /* \"#utility.yul\":11925:11983   */\n      mstore\n        /* \"#utility.yul\":12017:12024   */\n      0x6472657373000000000000000000000000000000000000000000000000000000\n        /* \"#utility.yul\":12012:12014   */\n      0x20\n        /* \"#utility.yul\":12004:12010   */\n      dup3\n        /* \"#utility.yul\":12000:12015   */\n      add\n        /* \"#utility.yul\":11993:12025   */\n      mstore\n        /* \"#utility.yul\":11808:12032   */\n      pop\n      jump\t// out\n        /* \"#utility.yul\":12038:12404   */\n    tag_184:\n        /* \"#utility.yul\":12180:12183   */\n      0x00\n        /* \"#utility.yul\":12201:12268   */\n      tag_306\n        /* \"#utility.yul\":12265:12267   */\n      0x25\n        /* \"#utility.yul\":12260:12263   */\n      dup4\n        /* \"#utility.yul\":12201:12268   */\n      tag_150\n      jump\t// in\n    tag_306:\n        /* \"#utility.yul\":12194:12268   */\n      swap2\n      pop\n        /* \"#utility.yul\":12277:12370   */\n      tag_307\n        /* \"#utility.yul\":12366:12369   */\n      dup3\n        /* \"#utility.yul\":12277:12370   */\n      tag_183\n      jump\t// in\n    tag_307:\n        /* \"#utility.yul\":12395:12397   */\n      0x40\n        /* \"#utility.yul\":12390:12393   */\n      dup3\n        /* \"#utility.yul\":12386:12398   */\n      add\n        /* \"#utility.yul\":12379:12398   */\n      swap1\n      pop\n        /* \"#utility.yul\":12038:12404   */\n      swap2\n      swap1\n      pop\n      jump\t// out\n        /* \"#utility.yul\":12410:12829   */\n    tag_134:\n        /* \"#utility.yul\":12576:12580   */\n      0x00\n        /* \"#utility.yul\":12614:12616   */\n      0x20\n        /* \"#utility.yul\":12603:12612   */\n      dup3\n        /* \"#utility.yul\":12599:12617   */\n      add\n        /* \"#utility.yul\":12591:12617   */\n      swap1\n      pop\n        /* \"#utility.yul\":12663:12672   */\n      dup2\n        /* \"#utility.yul\":12657:12661   */\n      dup2\n        /* \"#utility.yul\":12653:12673   */\n      sub\n        /* \"#utility.yul\":12649:12650   */\n      0x00\n        /* \"#utility.yul\":12638:12647   */\n      dup4\n        /* \"#utility.yul\":12634:12651   */\n      add\n        /* \"#utility.yul\":12627:12674   */\n      mstore\n        /* \"#utility.yul\":12691:12822   */\n      tag_309\n        /* \"#utility.yul\":12817:12821   */\n      dup2\n        /* \"#utility.yul\":12691:12822   */\n      tag_184\n      jump\t// in\n    tag_309:\n        /* \"#utility.yul\":12683:12822   */\n      swap1\n      pop\n        /* \"#utility.yul\":12410:12829   */\n      swap2\n      swap1\n      pop\n      jump\t// out\n        /* \"#utility.yul\":12835:13057   */\n    tag_185:\n        /* \"#utility.yul\":12975:13009   */\n      0x45524332303a207472616e7366657220746f20746865207a65726f2061646472\n        /* \"#utility.yul\":12971:12972   */\n      0x00\n        /* \"#utility.yul\":12963:12969   */\n      dup3\n        /* \"#utility.yul\":12959:12973   */\n      add\n        /* \"#utility.yul\":12952:13010   */\n      mstore\n        /* \"#utility.yul\":13044:13049   */\n      0x6573730000000000000000000000000000000000000000000000000000000000\n        /* \"#utility.yul\":13039:13041   */\n      0x20\n        /* \"#utility.yul\":13031:13037   */\n      dup3\n        /* \"#utility.yul\":13027:13042   */\n      add\n        /* \"#utility.yul\":13020:13050   */\n      mstore\n        /* \"#utility.yul\":12835:13057   */\n      pop\n      jump\t// out\n        /* \"#utility.yul\":13063:13429   */\n    tag_186:\n        /* \"#utility.yul\":13205:13208   */\n      0x00\n        /* \"#utility.yul\":13226:13293   */\n      tag_312\n        /* \"#utility.yul\":13290:13292   */\n      0x23\n        /* \"#utility.yul\":13285:13288   */\n      dup4\n        /* \"#utility.yul\":13226:13293   */\n      tag_150\n      jump\t// in\n    tag_312:\n        /* \"#utility.yul\":13219:13293   */\n      swap2\n      pop\n        /* \"#utility.yul\":13302:13395   */\n      tag_313\n        /* \"#utility.yul\":13391:13394   */\n      dup3\n        /* \"#utility.yul\":13302:13395   */\n      tag_185\n      jump\t// in\n    tag_313:\n        /* \"#utility.yul\":13420:13422   */\n      0x40\n        /* \"#utility.yul\":13415:13418   */\n      dup3\n        /* \"#utility.yul\":13411:13423   */\n      add\n        /* \"#utility.yul\":13404:13423   */\n      swap1\n      pop\n        /* \"#utility.yul\":13063:13429   */\n      swap2\n      swap1\n      pop\n      jump\t// out\n        /* \"#utility.yul\":13435:13854   */\n    tag_137:\n        /* \"#utility.yul\":13601:13605   */\n      0x00\n        /* \"#utility.yul\":13639:13641   */\n      0x20\n        /* \"#utility.yul\":13628:13637   */\n      dup3\n        /* \"#utility.yul\":13624:13642   */\n      add\n        /* \"#utility.yul\":13616:13642   */\n      swap1\n      pop\n        /* \"#utility.yul\":13688:13697   */\n      dup2\n        /* \"#utility.yul\":13682:13686   */\n      dup2\n        /* \"#utility.yul\":13678:13698   */\n      sub\n        /* \"#utility.yul\":13674:13675   */\n      0x00\n        /* \"#utility.yul\":13663:13672   */\n      dup4\n        /* \"#utility.yul\":13659:13676   */\n      add\n        /* \"#utility.yul\":13652:13699   */\n      mstore\n        /* \"#utility.yul\":13716:13847   */\n      tag_315\n        /* \"#utility.yul\":13842:13846   */\n      dup2\n        /* \"#utility.yul\":13716:13847   */\n      tag_186\n      jump\t// in\n    tag_315:\n        /* \"#utility.yul\":13708:13847   */\n      swap1\n      pop\n        /* \"#utility.yul\":13435:13854   */\n      swap2\n      swap1\n      pop\n      jump\t// out\n        /* \"#utility.yul\":13860:14085   */\n    tag_187:\n        /* \"#utility.yul\":14000:14034   */\n      0x45524332303a207472616e7366657220616d6f756e7420657863656564732062\n        /* \"#utility.yul\":13996:13997   */\n      0x00\n        /* \"#utility.yul\":13988:13994   */\n      dup3\n        /* \"#utility.yul\":13984:13998   */\n      add\n        /* \"#utility.yul\":13977:14035   */\n      mstore\n        /* \"#utility.yul\":14069:14077   */\n      0x616c616e63650000000000000000000000000000000000000000000000000000\n        /* \"#utility.yul\":14064:14066   */\n      0x20\n        /* \"#utility.yul\":14056:14062   */\n      dup3\n        /* \"#utility.yul\":14052:14067   */\n      add\n        /* \"#utility.yul\":14045:14078   */\n      mstore\n        /* \"#utility.yul\":13860:14085   */\n      pop\n      jump\t// out\n        /* \"#utility.yul\":14091:14457   */\n    tag_188:\n        /* \"#utility.yul\":14233:14236   */\n      0x00\n        /* \"#utility.yul\":14254:14321   */\n      tag_318\n        /* \"#utility.yul\":14318:14320   */\n      0x26\n        /* \"#utility.yul\":14313:14316   */\n      dup4\n        /* \"#utility.yul\":14254:14321   */\n      tag_150\n      jump\t// in\n    tag_318:\n        /* \"#utility.yul\":14247:14321   */\n      swap2\n      pop\n        /* \"#utility.yul\":14330:14423   */\n      tag_319\n        /* \"#utility.yul\":14419:14422   */\n      dup3\n        /* \"#utility.yul\":14330:14423   */\n      tag_187\n      jump\t// in\n    tag_319:\n        /* \"#utility.yul\":14448:14450   */\n      0x40\n        /* \"#utility.yul\":14443:14446   */\n      dup3\n        /* \"#utility.yul\":14439:14451   */\n      add\n        /* \"#utility.yul\":14432:14451   */\n      swap1\n      pop\n        /* \"#utility.yul\":14091:14457   */\n      swap2\n      swap1\n      pop\n      jump\t// out\n        /* \"#utility.yul\":14463:14882   */\n    tag_142:\n        /* \"#utility.yul\":14629:14633   */\n      0x00\n        /* \"#utility.yul\":14667:14669   */\n      0x20\n        /* \"#utility.yul\":14656:14665   */\n      dup3\n        /* \"#utility.yul\":14652:14670   */\n      add\n        /* \"#utility.yul\":14644:14670   */\n      swap1\n      pop\n        /* \"#utility.yul\":14716:14725   */\n      dup2\n        /* \"#utility.yul\":14710:14714   */\n      dup2\n        /* \"#utility.yul\":14706:14726   */\n      sub\n        /* \"#utility.yul\":14702:14703   */\n      0x00\n        /* \"#utility.yul\":14691:14700   */\n      dup4\n        /* \"#utility.yul\":14687:14704   */\n      add\n        /* \"#utility.yul\":14680:14727   */\n      mstore\n        /* \"#utility.yul\":14744:14875   */\n      tag_321\n        /* \"#utility.yul\":14870:14874   */\n      dup2\n        /* \"#utility.yul\":14744:14875   */\n      tag_188\n      jump\t// in\n    tag_321:\n        /* \"#utility.yul\":14736:14875   */\n      swap1\n      pop\n        /* \"#utility.yul\":14463:14882   */\n      swap2\n      swap1\n      pop\n      jump\t// out\n\n    auxdata: 0xa26469706673582212206cb2b8dd0ecce2242765b707f063aa1b26cb8a8d146ecf5c4316497df09a390464736f6c63430008110033\n}\n",
				"bytecode": {
					"linkReferences": {},
					"object": "60806040523480156200001157600080fd5b506040518060400160405280600281526020017f75750000000000000000000000000000000000000000000000000000000000008152506040518060400160405280600281526020017f757500000000000000000000000000000000000000000000000000000000000081525081600390816200008f9190620004c2565b508060049081620000a19190620004c2565b505050620000c03069d3c21bcecceda1000000620000c660201b60201c565b620006c4565b600073ffffffffffffffffffffffffffffffffffffffff168273ffffffffffffffffffffffffffffffffffffffff160362000138576040517f08c379a00000000000000000000000000000000000000000000000000000000081526004016200012f906200060a565b60405180910390fd5b6200014c600083836200023e60201b60201c565b80600260008282546200016091906200065b565b92505081905550806000808473ffffffffffffffffffffffffffffffffffffffff1673ffffffffffffffffffffffffffffffffffffffff1681526020019081526020016000206000828254620001b791906200065b565b925050819055508173ffffffffffffffffffffffffffffffffffffffff16600073ffffffffffffffffffffffffffffffffffffffff167fddf252ad1be2c89b69c2b068fc378daa952ba7f163c4a11628f55a4df523b3ef836040516200021e9190620006a7565b60405180910390a36200023a600083836200024360201b60201c565b5050565b505050565b505050565b600081519050919050565b7f4e487b7100000000000000000000000000000000000000000000000000000000600052604160045260246000fd5b7f4e487b7100000000000000000000000000000000000000000000000000000000600052602260045260246000fd5b60006002820490506001821680620002ca57607f821691505b602082108103620002e057620002df62000282565b5b50919050565b60008190508160005260206000209050919050565b60006020601f8301049050919050565b600082821b905092915050565b6000600883026200034a7fffffffffffffffffffffffffffffffffffffffffffffffffffffffffffffffff826200030b565b6200035686836200030b565b95508019841693508086168417925050509392505050565b6000819050919050565b6000819050919050565b6000620003a36200039d62000397846200036e565b62000378565b6200036e565b9050919050565b6000819050919050565b620003bf8362000382565b620003d7620003ce82620003aa565b84845462000318565b825550505050565b600090565b620003ee620003df565b620003fb818484620003b4565b505050565b5b81811015620004235762000417600082620003e4565b60018101905062000401565b5050565b601f82111562000472576200043c81620002e6565b6200044784620002fb565b8101602085101562000457578190505b6200046f6200046685620002fb565b83018262000400565b50505b505050565b600082821c905092915050565b6000620004976000198460080262000477565b1980831691505092915050565b6000620004b2838362000484565b9150826002028217905092915050565b620004cd8262000248565b67ffffffffffffffff811115620004e957620004e862000253565b5b620004f58254620002b1565b6200050282828562000427565b600060209050601f8311600181146200053a576000841562000525578287015190505b620005318582620004a4565b865550620005a1565b601f1984166200054a86620002e6565b60005b8281101562000574578489015182556001820191506020850194506020810190506200054d565b8683101562000594578489015162000590601f89168262000484565b8355505b6001600288020188555050505b505050505050565b600082825260208201905092915050565b7f45524332303a206d696e7420746f20746865207a65726f206164647265737300600082015250565b6000620005f2601f83620005a9565b9150620005ff82620005ba565b602082019050919050565b600060208201905081810360008301526200062581620005e3565b9050919050565b7f4e487b7100000000000000000000000000000000000000000000000000000000600052601160045260246000fd5b600062000668826200036e565b915062000675836200036e565b925082820190508082111562000690576200068f6200062c565b5b92915050565b620006a1816200036e565b82525050565b6000602082019050620006be600083018462000696565b92915050565b61135d80620006d46000396000f3fe608060405234801561001057600080fd5b50600436106100b45760003560e01c806370a082311161007157806370a08231146101a357806395d89b41146101d3578063a457c2d7146101f1578063a694fc3a14610221578063a9059cbb1461023d578063dd62ed3e1461026d576100b4565b806306fdde03146100b9578063095ea7b3146100d757806318160ddd1461010757806323b872dd14610125578063313ce567146101555780633950935114610173575b600080fd5b6100c161029d565b6040516100ce9190610bad565b60405180910390f35b6100f160048036038101906100ec9190610c68565b61032f565b6040516100fe9190610cc3565b60405180910390f35b61010f610352565b60405161011c9190610ced565b60405180910390f35b61013f600480360381019061013a9190610d08565b61035c565b60405161014c9190610cc3565b60405180910390f35b61015d61038b565b60405161016a9190610d77565b60405180910390f35b61018d60048036038101906101889190610c68565b610394565b60405161019a9190610cc3565b60405180910390f35b6101bd60048036038101906101b89190610d92565b6103cb565b6040516101ca9190610ced565b60405180910390f35b6101db610413565b6040516101e89190610bad565b60405180910390f35b61020b60048036038101906102069190610c68565b6104a5565b6040516102189190610cc3565b60405180910390f35b61023b60048036038101906102369190610dbf565b61051c565b005b61025760048036038101906102529190610c68565b61058d565b6040516102649190610cc3565b60405180910390f35b61028760048036038101906102829190610dec565b6105b0565b6040516102949190610ced565b60405180910390f35b6060600380546102ac90610e5b565b80601f01602080910402602001604051908101604052809291908181526020018280546102d890610e5b565b80156103255780601f106102fa57610100808354040283529160200191610325565b820191906000526020600020905b81548152906001019060200180831161030857829003601f168201915b5050505050905090565b60008061033a610637565b905061034781858561063f565b600191505092915050565b6000600254905090565b600080610367610637565b9050610374858285610808565b61037f858585610894565b60019150509392505050565b60006012905090565b60008061039f610637565b90506103c08185856103b185896105b0565b6103bb9190610ebb565b61063f565b600191505092915050565b60008060008373ffffffffffffffffffffffffffffffffffffffff1673ffffffffffffffffffffffffffffffffffffffff168152602001908152602001600020549050919050565b60606004805461042290610e5b565b80601f016020809104026020016040519081016040528092919081815260200182805461044e90610e5b565b801561049b5780601f106104705761010080835404028352916020019161049b565b820191906000526020600020905b81548152906001019060200180831161047e57829003601f168201915b5050505050905090565b6000806104b0610637565b905060006104be82866105b0565b905083811015610503576040517f08c379a00000000000000000000000000000000000000000000000000000000081526004016104fa90610f61565b60405180910390fd5b610510828686840361063f565b60019250505092915050565b3373ffffffffffffffffffffffffffffffffffffffff16600073ffffffffffffffffffffffffffffffffffffffff167fddf252ad1be2c89b69c2b068fc378daa952ba7f163c4a11628f55a4df523b3ef678ac7230489e800006040516105829190610fc6565b60405180910390a350565b600080610598610637565b90506105a5818585610894565b600191505092915050565b6000600160008473ffffffffffffffffffffffffffffffffffffffff1673ffffffffffffffffffffffffffffffffffffffff16815260200190815260200160002060008373ffffffffffffffffffffffffffffffffffffffff1673ffffffffffffffffffffffffffffffffffffffff16815260200190815260200160002054905092915050565b600033905090565b600073ffffffffffffffffffffffffffffffffffffffff168373ffffffffffffffffffffffffffffffffffffffff16036106ae576040517f08c379a00000000000000000000000000000000000000000000000000000000081526004016106a590611053565b60405180910390fd5b600073ffffffffffffffffffffffffffffffffffffffff168273ffffffffffffffffffffffffffffffffffffffff160361071d576040517f08c379a0000000000000000000000000000000000000000000000000000000008152600401610714906110e5565b60405180910390fd5b80600160008573ffffffffffffffffffffffffffffffffffffffff1673ffffffffffffffffffffffffffffffffffffffff16815260200190815260200160002060008473ffffffffffffffffffffffffffffffffffffffff1673ffffffffffffffffffffffffffffffffffffffff168152602001908152602001600020819055508173ffffffffffffffffffffffffffffffffffffffff168373ffffffffffffffffffffffffffffffffffffffff167f8c5be1e5ebec7d5bd14f71427d1e84f3dd0314c0f7b2291e5b200ac8c7c3b925836040516107fb9190610ced565b60405180910390a3505050565b600061081484846105b0565b90507fffffffffffffffffffffffffffffffffffffffffffffffffffffffffffffffff811461088e5781811015610880576040517f08c379a000000000000000000000000000000000000000000000000000000000815260040161087790611151565b60405180910390fd5b61088d848484840361063f565b5b50505050565b600073ffffffffffffffffffffffffffffffffffffffff168373ffffffffffffffffffffffffffffffffffffffff1603610903576040517f08c379a00000000000000000000000000000000000000000000000000000000081526004016108fa906111e3565b60405180910390fd5b600073ffffffffffffffffffffffffffffffffffffffff168273ffffffffffffffffffffffffffffffffffffffff1603610972576040517f08c379a000000000000000000000000000000000000000000000000000000000815260040161096990611275565b60405180910390fd5b61097d838383610b13565b60008060008573ffffffffffffffffffffffffffffffffffffffff1673ffffffffffffffffffffffffffffffffffffffff16815260200190815260200160002054905081811015610a03576040517f08c379a00000000000000000000000000000000000000000000000000000000081526004016109fa90611307565b60405180910390fd5b8181036000808673ffffffffffffffffffffffffffffffffffffffff1673ffffffffffffffffffffffffffffffffffffffff16815260200190815260200160002081905550816000808573ffffffffffffffffffffffffffffffffffffffff1673ffffffffffffffffffffffffffffffffffffffff1681526020019081526020016000206000828254610a969190610ebb565b925050819055508273ffffffffffffffffffffffffffffffffffffffff168473ffffffffffffffffffffffffffffffffffffffff167fddf252ad1be2c89b69c2b068fc378daa952ba7f163c4a11628f55a4df523b3ef84604051610afa9190610ced565b60405180910390a3610b0d848484610b18565b50505050565b505050565b505050565b600081519050919050565b600082825260208201905092915050565b60005b83811015610b57578082015181840152602081019050610b3c565b60008484015250505050565b6000601f19601f8301169050919050565b6000610b7f82610b1d565b610b898185610b28565b9350610b99818560208601610b39565b610ba281610b63565b840191505092915050565b60006020820190508181036000830152610bc78184610b74565b905092915050565b600080fd5b600073ffffffffffffffffffffffffffffffffffffffff82169050919050565b6000610bff82610bd4565b9050919050565b610c0f81610bf4565b8114610c1a57600080fd5b50565b600081359050610c2c81610c06565b92915050565b6000819050919050565b610c4581610c32565b8114610c5057600080fd5b50565b600081359050610c6281610c3c565b92915050565b60008060408385031215610c7f57610c7e610bcf565b5b6000610c8d85828601610c1d565b9250506020610c9e85828601610c53565b9150509250929050565b60008115159050919050565b610cbd81610ca8565b82525050565b6000602082019050610cd86000830184610cb4565b92915050565b610ce781610c32565b82525050565b6000602082019050610d026000830184610cde565b92915050565b600080600060608486031215610d2157610d20610bcf565b5b6000610d2f86828701610c1d565b9350506020610d4086828701610c1d565b9250506040610d5186828701610c53565b9150509250925092565b600060ff82169050919050565b610d7181610d5b565b82525050565b6000602082019050610d8c6000830184610d68565b92915050565b600060208284031215610da857610da7610bcf565b5b6000610db684828501610c1d565b91505092915050565b600060208284031215610dd557610dd4610bcf565b5b6000610de384828501610c53565b91505092915050565b60008060408385031215610e0357610e02610bcf565b5b6000610e1185828601610c1d565b9250506020610e2285828601610c1d565b9150509250929050565b7f4e487b7100000000000000000000000000000000000000000000000000000000600052602260045260246000fd5b60006002820490506001821680610e7357607f821691505b602082108103610e8657610e85610e2c565b5b50919050565b7f4e487b7100000000000000000000000000000000000000000000000000000000600052601160045260246000fd5b6000610ec682610c32565b9150610ed183610c32565b9250828201905080821115610ee957610ee8610e8c565b5b92915050565b7f45524332303a2064656372656173656420616c6c6f77616e63652062656c6f7760008201527f207a65726f000000000000000000000000000000000000000000000000000000602082015250565b6000610f4b602583610b28565b9150610f5682610eef565b604082019050919050565b60006020820190508181036000830152610f7a81610f3e565b9050919050565b6000819050919050565b6000819050919050565b6000610fb0610fab610fa684610f81565b610f8b565b610c32565b9050919050565b610fc081610f95565b82525050565b6000602082019050610fdb6000830184610fb7565b92915050565b7f45524332303a20617070726f76652066726f6d20746865207a65726f2061646460008201527f7265737300000000000000000000000000000000000000000000000000000000602082015250565b600061103d602483610b28565b915061104882610fe1565b604082019050919050565b6000602082019050818103600083015261106c81611030565b9050919050565b7f45524332303a20617070726f766520746f20746865207a65726f20616464726560008201527f7373000000000000000000000000000000000000000000000000000000000000602082015250565b60006110cf602283610b28565b91506110da82611073565b604082019050919050565b600060208201905081810360008301526110fe816110c2565b9050919050565b7f45524332303a20696e73756666696369656e7420616c6c6f77616e6365000000600082015250565b600061113b601d83610b28565b915061114682611105565b602082019050919050565b6000602082019050818103600083015261116a8161112e565b9050919050565b7f45524332303a207472616e736665722066726f6d20746865207a65726f20616460008201527f6472657373000000000000000000000000000000000000000000000000000000602082015250565b60006111cd602583610b28565b91506111d882611171565b604082019050919050565b600060208201905081810360008301526111fc816111c0565b9050919050565b7f45524332303a207472616e7366657220746f20746865207a65726f206164647260008201527f6573730000000000000000000000000000000000000000000000000000000000602082015250565b600061125f602383610b28565b915061126a82611203565b604082019050919050565b6000602082019050818103600083015261128e81611252565b9050919050565b7f45524332303a207472616e7366657220616d6f756e742065786365656473206260008201527f616c616e63650000000000000000000000000000000000000000000000000000602082015250565b60006112f1602683610b28565b91506112fc82611295565b604082019050919050565b60006020820190508181036000830152611320816112e4565b905091905056fea26469706673582212206cb2b8dd0ecce2242765b707f063aa1b26cb8a8d146ecf5c4316497df09a390464736f6c63430008110033",
					"opcodes": "PUSH1 0x80 PUSH1 0x40 MSTORE CALLVALUE DUP1 ISZERO PUSH3 0x11 JUMPI PUSH1 0x0 DUP1 REVERT JUMPDEST POP PUSH1 0x40 MLOAD DUP1 PUSH1 0x40 ADD PUSH1 0x40 MSTORE DUP1 PUSH1 0x2 DUP2 MSTORE PUSH1 0x20 ADD PUSH32 0x7575000000000000000000000000000000000000000000000000000000000000 DUP2 MSTORE POP PUSH1 0x40 MLOAD DUP1 PUSH1 0x40 ADD PUSH1 0x40 MSTORE DUP1 PUSH1 0x2 DUP2 MSTORE PUSH1 0x20 ADD PUSH32 0x7575000000000000000000000000000000000000000000000000000000000000 DUP2 MSTORE POP DUP2 PUSH1 0x3 SWAP1 DUP2 PUSH3 0x8F SWAP2 SWAP1 PUSH3 0x4C2 JUMP JUMPDEST POP DUP1 PUSH1 0x4 SWAP1 DUP2 PUSH3 0xA1 SWAP2 SWAP1 PUSH3 0x4C2 JUMP JUMPDEST POP POP POP PUSH3 0xC0 ADDRESS PUSH10 0xD3C21BCECCEDA1000000 PUSH3 0xC6 PUSH1 0x20 SHL PUSH1 0x20 SHR JUMP JUMPDEST PUSH3 0x6C4 JUMP JUMPDEST PUSH1 0x0 PUSH20 0xFFFFFFFFFFFFFFFFFFFFFFFFFFFFFFFFFFFFFFFF AND DUP3 PUSH20 0xFFFFFFFFFFFFFFFFFFFFFFFFFFFFFFFFFFFFFFFF AND SUB PUSH3 0x138 JUMPI PUSH1 0x40 MLOAD PUSH32 0x8C379A000000000000000000000000000000000000000000000000000000000 DUP2 MSTORE PUSH1 0x4 ADD PUSH3 0x12F SWAP1 PUSH3 0x60A JUMP JUMPDEST PUSH1 0x40 MLOAD DUP1 SWAP2 SUB SWAP1 REVERT JUMPDEST PUSH3 0x14C PUSH1 0x0 DUP4 DUP4 PUSH3 0x23E PUSH1 0x20 SHL PUSH1 0x20 SHR JUMP JUMPDEST DUP1 PUSH1 0x2 PUSH1 0x0 DUP3 DUP3 SLOAD PUSH3 0x160 SWAP2 SWAP1 PUSH3 0x65B JUMP JUMPDEST SWAP3 POP POP DUP2 SWAP1 SSTORE POP DUP1 PUSH1 0x0 DUP1 DUP5 PUSH20 0xFFFFFFFFFFFFFFFFFFFFFFFFFFFFFFFFFFFFFFFF AND PUSH20 0xFFFFFFFFFFFFFFFFFFFFFFFFFFFFFFFFFFFFFFFF AND DUP2 MSTORE PUSH1 0x20 ADD SWAP1 DUP2 MSTORE PUSH1 0x20 ADD PUSH1 0x0 KECCAK256 PUSH1 0x0 DUP3 DUP3 SLOAD PUSH3 0x1B7 SWAP2 SWAP1 PUSH3 0x65B JUMP JUMPDEST SWAP3 POP POP DUP2 SWAP1 SSTORE POP DUP2 PUSH20 0xFFFFFFFFFFFFFFFFFFFFFFFFFFFFFFFFFFFFFFFF AND PUSH1 0x0 PUSH20 0xFFFFFFFFFFFFFFFFFFFFFFFFFFFFFFFFFFFFFFFF AND PUSH32 0xDDF252AD1BE2C89B69C2B068FC378DAA952BA7F163C4A11628F55A4DF523B3EF DUP4 PUSH1 0x40 MLOAD PUSH3 0x21E SWAP2 SWAP1 PUSH3 0x6A7 JUMP JUMPDEST PUSH1 0x40 MLOAD DUP1 SWAP2 SUB SWAP1 LOG3 PUSH3 0x23A PUSH1 0x0 DUP4 DUP4 PUSH3 0x243 PUSH1 0x20 SHL PUSH1 0x20 SHR JUMP JUMPDEST POP POP JUMP JUMPDEST POP POP POP JUMP JUMPDEST POP POP POP JUMP JUMPDEST PUSH1 0x0 DUP2 MLOAD SWAP1 POP SWAP2 SWAP1 POP JUMP JUMPDEST PUSH32 0x4E487B7100000000000000000000000000000000000000000000000000000000 PUSH1 0x0 MSTORE PUSH1 0x41 PUSH1 0x4 MSTORE PUSH1 0x24 PUSH1 0x0 REVERT JUMPDEST PUSH32 0x4E487B7100000000000000000000000000000000000000000000000000000000 PUSH1 0x0 MSTORE PUSH1 0x22 PUSH1 0x4 MSTORE PUSH1 0x24 PUSH1 0x0 REVERT JUMPDEST PUSH1 0x0 PUSH1 0x2 DUP3 DIV SWAP1 POP PUSH1 0x1 DUP3 AND DUP1 PUSH3 0x2CA JUMPI PUSH1 0x7F DUP3 AND SWAP2 POP JUMPDEST PUSH1 0x20 DUP3 LT DUP2 SUB PUSH3 0x2E0 JUMPI PUSH3 0x2DF PUSH3 0x282 JUMP JUMPDEST JUMPDEST POP SWAP2 SWAP1 POP JUMP JUMPDEST PUSH1 0x0 DUP2 SWAP1 POP DUP2 PUSH1 0x0 MSTORE PUSH1 0x20 PUSH1 0x0 KECCAK256 SWAP1 POP SWAP2 SWAP1 POP JUMP JUMPDEST PUSH1 0x0 PUSH1 0x20 PUSH1 0x1F DUP4 ADD DIV SWAP1 POP SWAP2 SWAP1 POP JUMP JUMPDEST PUSH1 0x0 DUP3 DUP3 SHL SWAP1 POP SWAP3 SWAP2 POP POP JUMP JUMPDEST PUSH1 0x0 PUSH1 0x8 DUP4 MUL PUSH3 0x34A PUSH32 0xFFFFFFFFFFFFFFFFFFFFFFFFFFFFFFFFFFFFFFFFFFFFFFFFFFFFFFFFFFFFFFFF DUP3 PUSH3 0x30B JUMP JUMPDEST PUSH3 0x356 DUP7 DUP4 PUSH3 0x30B JUMP JUMPDEST SWAP6 POP DUP1 NOT DUP5 AND SWAP4 POP DUP1 DUP7 AND DUP5 OR SWAP3 POP POP POP SWAP4 SWAP3 POP POP POP JUMP JUMPDEST PUSH1 0x0 DUP2 SWAP1 POP SWAP2 SWAP1 POP JUMP JUMPDEST PUSH1 0x0 DUP2 SWAP1 POP SWAP2 SWAP1 POP JUMP JUMPDEST PUSH1 0x0 PUSH3 0x3A3 PUSH3 0x39D PUSH3 0x397 DUP5 PUSH3 0x36E JUMP JUMPDEST PUSH3 0x378 JUMP JUMPDEST PUSH3 0x36E JUMP JUMPDEST SWAP1 POP SWAP2 SWAP1 POP JUMP JUMPDEST PUSH1 0x0 DUP2 SWAP1 POP SWAP2 SWAP1 POP JUMP JUMPDEST PUSH3 0x3BF DUP4 PUSH3 0x382 JUMP JUMPDEST PUSH3 0x3D7 PUSH3 0x3CE DUP3 PUSH3 0x3AA JUMP JUMPDEST DUP5 DUP5 SLOAD PUSH3 0x318 JUMP JUMPDEST DUP3 SSTORE POP POP POP POP JUMP JUMPDEST PUSH1 0x0 SWAP1 JUMP JUMPDEST PUSH3 0x3EE PUSH3 0x3DF JUMP JUMPDEST PUSH3 0x3FB DUP2 DUP5 DUP5 PUSH3 0x3B4 JUMP JUMPDEST POP POP POP JUMP JUMPDEST JUMPDEST DUP2 DUP2 LT ISZERO PUSH3 0x423 JUMPI PUSH3 0x417 PUSH1 0x0 DUP3 PUSH3 0x3E4 JUMP JUMPDEST PUSH1 0x1 DUP2 ADD SWAP1 POP PUSH3 0x401 JUMP JUMPDEST POP POP JUMP JUMPDEST PUSH1 0x1F DUP3 GT ISZERO PUSH3 0x472 JUMPI PUSH3 0x43C DUP2 PUSH3 0x2E6 JUMP JUMPDEST PUSH3 0x447 DUP5 PUSH3 0x2FB JUMP JUMPDEST DUP2 ADD PUSH1 0x20 DUP6 LT ISZERO PUSH3 0x457 JUMPI DUP2 SWAP1 POP JUMPDEST PUSH3 0x46F PUSH3 0x466 DUP6 PUSH3 0x2FB JUMP JUMPDEST DUP4 ADD DUP3 PUSH3 0x400 JUMP JUMPDEST POP POP JUMPDEST POP POP POP JUMP JUMPDEST PUSH1 0x0 DUP3 DUP3 SHR SWAP1 POP SWAP3 SWAP2 POP POP JUMP JUMPDEST PUSH1 0x0 PUSH3 0x497 PUSH1 0x0 NOT DUP5 PUSH1 0x8 MUL PUSH3 0x477 JUMP JUMPDEST NOT DUP1 DUP4 AND SWAP2 POP POP SWAP3 SWAP2 POP POP JUMP JUMPDEST PUSH1 0x0 PUSH3 0x4B2 DUP4 DUP4 PUSH3 0x484 JUMP JUMPDEST SWAP2 POP DUP3 PUSH1 0x2 MUL DUP3 OR SWAP1 POP SWAP3 SWAP2 POP POP JUMP JUMPDEST PUSH3 0x4CD DUP3 PUSH3 0x248 JUMP JUMPDEST PUSH8 0xFFFFFFFFFFFFFFFF DUP2 GT ISZERO PUSH3 0x4E9 JUMPI PUSH3 0x4E8 PUSH3 0x253 JUMP JUMPDEST JUMPDEST PUSH3 0x4F5 DUP3 SLOAD PUSH3 0x2B1 JUMP JUMPDEST PUSH3 0x502 DUP3 DUP3 DUP6 PUSH3 0x427 JUMP JUMPDEST PUSH1 0x0 PUSH1 0x20 SWAP1 POP PUSH1 0x1F DUP4 GT PUSH1 0x1 DUP2 EQ PUSH3 0x53A JUMPI PUSH1 0x0 DUP5 ISZERO PUSH3 0x525 JUMPI DUP3 DUP8 ADD MLOAD SWAP1 POP JUMPDEST PUSH3 0x531 DUP6 DUP3 PUSH3 0x4A4 JUMP JUMPDEST DUP7 SSTORE POP PUSH3 0x5A1 JUMP JUMPDEST PUSH1 0x1F NOT DUP5 AND PUSH3 0x54A DUP7 PUSH3 0x2E6 JUMP JUMPDEST PUSH1 0x0 JUMPDEST DUP3 DUP2 LT ISZERO PUSH3 0x574 JUMPI DUP5 DUP10 ADD MLOAD DUP3 SSTORE PUSH1 0x1 DUP3 ADD SWAP2 POP PUSH1 0x20 DUP6 ADD SWAP5 POP PUSH1 0x20 DUP2 ADD SWAP1 POP PUSH3 0x54D JUMP JUMPDEST DUP7 DUP4 LT ISZERO PUSH3 0x594 JUMPI DUP5 DUP10 ADD MLOAD PUSH3 0x590 PUSH1 0x1F DUP10 AND DUP3 PUSH3 0x484 JUMP JUMPDEST DUP4 SSTORE POP JUMPDEST PUSH1 0x1 PUSH1 0x2 DUP9 MUL ADD DUP9 SSTORE POP POP POP JUMPDEST POP POP POP POP POP POP JUMP JUMPDEST PUSH1 0x0 DUP3 DUP3 MSTORE PUSH1 0x20 DUP3 ADD SWAP1 POP SWAP3 SWAP2 POP POP JUMP JUMPDEST PUSH32 0x45524332303A206D696E7420746F20746865207A65726F206164647265737300 PUSH1 0x0 DUP3 ADD MSTORE POP JUMP JUMPDEST PUSH1 0x0 PUSH3 0x5F2 PUSH1 0x1F DUP4 PUSH3 0x5A9 JUMP JUMPDEST SWAP2 POP PUSH3 0x5FF DUP3 PUSH3 0x5BA JUMP JUMPDEST PUSH1 0x20 DUP3 ADD SWAP1 POP SWAP2 SWAP1 POP JUMP JUMPDEST PUSH1 0x0 PUSH1 0x20 DUP3 ADD SWAP1 POP DUP2 DUP2 SUB PUSH1 0x0 DUP4 ADD MSTORE PUSH3 0x625 DUP2 PUSH3 0x5E3 JUMP JUMPDEST SWAP1 POP SWAP2 SWAP1 POP JUMP JUMPDEST PUSH32 0x4E487B7100000000000000000000000000000000000000000000000000000000 PUSH1 0x0 MSTORE PUSH1 0x11 PUSH1 0x4 MSTORE PUSH1 0x24 PUSH1 0x0 REVERT JUMPDEST PUSH1 0x0 PUSH3 0x668 DUP3 PUSH3 0x36E JUMP JUMPDEST SWAP2 POP PUSH3 0x675 DUP4 PUSH3 0x36E JUMP JUMPDEST SWAP3 POP DUP3 DUP3 ADD SWAP1 POP DUP1 DUP3 GT ISZERO PUSH3 0x690 JUMPI PUSH3 0x68F PUSH3 0x62C JUMP JUMPDEST JUMPDEST SWAP3 SWAP2 POP POP JUMP JUMPDEST PUSH3 0x6A1 DUP2 PUSH3 0x36E JUMP JUMPDEST DUP3 MSTORE POP POP JUMP JUMPDEST PUSH1 0x0 PUSH1 0x20 DUP3 ADD SWAP1 POP PUSH3 0x6BE PUSH1 0x0 DUP4 ADD DUP5 PUSH3 0x696 JUMP JUMPDEST SWAP3 SWAP2 POP POP JUMP JUMPDEST PUSH2 0x135D DUP1 PUSH3 0x6D4 PUSH1 0x0 CODECOPY PUSH1 0x0 RETURN INVALID PUSH1 0x80 PUSH1 0x40 MSTORE CALLVALUE DUP1 ISZERO PUSH2 0x10 JUMPI PUSH1 0x0 DUP1 REVERT JUMPDEST POP PUSH1 0x4 CALLDATASIZE LT PUSH2 0xB4 JUMPI PUSH1 0x0 CALLDATALOAD PUSH1 0xE0 SHR DUP1 PUSH4 0x70A08231 GT PUSH2 0x71 JUMPI DUP1 PUSH4 0x70A08231 EQ PUSH2 0x1A3 JUMPI DUP1 PUSH4 0x95D89B41 EQ PUSH2 0x1D3 JUMPI DUP1 PUSH4 0xA457C2D7 EQ PUSH2 0x1F1 JUMPI DUP1 PUSH4 0xA694FC3A EQ PUSH2 0x221 JUMPI DUP1 PUSH4 0xA9059CBB EQ PUSH2 0x23D JUMPI DUP1 PUSH4 0xDD62ED3E EQ PUSH2 0x26D JUMPI PUSH2 0xB4 JUMP JUMPDEST DUP1 PUSH4 0x6FDDE03 EQ PUSH2 0xB9 JUMPI DUP1 PUSH4 0x95EA7B3 EQ PUSH2 0xD7 JUMPI DUP1 PUSH4 0x18160DDD EQ PUSH2 0x107 JUMPI DUP1 PUSH4 0x23B872DD EQ PUSH2 0x125 JUMPI DUP1 PUSH4 0x313CE567 EQ PUSH2 0x155 JUMPI DUP1 PUSH4 0x39509351 EQ PUSH2 0x173 JUMPI JUMPDEST PUSH1 0x0 DUP1 REVERT JUMPDEST PUSH2 0xC1 PUSH2 0x29D JUMP JUMPDEST PUSH1 0x40 MLOAD PUSH2 0xCE SWAP2 SWAP1 PUSH2 0xBAD JUMP JUMPDEST PUSH1 0x40 MLOAD DUP1 SWAP2 SUB SWAP1 RETURN JUMPDEST PUSH2 0xF1 PUSH1 0x4 DUP1 CALLDATASIZE SUB DUP2 ADD SWAP1 PUSH2 0xEC SWAP2 SWAP1 PUSH2 0xC68 JUMP JUMPDEST PUSH2 0x32F JUMP JUMPDEST PUSH1 0x40 MLOAD PUSH2 0xFE SWAP2 SWAP1 PUSH2 0xCC3 JUMP JUMPDEST PUSH1 0x40 MLOAD DUP1 SWAP2 SUB SWAP1 RETURN JUMPDEST PUSH2 0x10F PUSH2 0x352 JUMP JUMPDEST PUSH1 0x40 MLOAD PUSH2 0x11C SWAP2 SWAP1 PUSH2 0xCED JUMP JUMPDEST PUSH1 0x40 MLOAD DUP1 SWAP2 SUB SWAP1 RETURN JUMPDEST PUSH2 0x13F PUSH1 0x4 DUP1 CALLDATASIZE SUB DUP2 ADD SWAP1 PUSH2 0x13A SWAP2 SWAP1 PUSH2 0xD08 JUMP JUMPDEST PUSH2 0x35C JUMP JUMPDEST PUSH1 0x40 MLOAD PUSH2 0x14C SWAP2 SWAP1 PUSH2 0xCC3 JUMP JUMPDEST PUSH1 0x40 MLOAD DUP1 SWAP2 SUB SWAP1 RETURN JUMPDEST PUSH2 0x15D PUSH2 0x38B JUMP JUMPDEST PUSH1 0x40 MLOAD PUSH2 0x16A SWAP2 SWAP1 PUSH2 0xD77 JUMP JUMPDEST PUSH1 0x40 MLOAD DUP1 SWAP2 SUB SWAP1 RETURN JUMPDEST PUSH2 0x18D PUSH1 0x4 DUP1 CALLDATASIZE SUB DUP2 ADD SWAP1 PUSH2 0x188 SWAP2 SWAP1 PUSH2 0xC68 JUMP JUMPDEST PUSH2 0x394 JUMP JUMPDEST PUSH1 0x40 MLOAD PUSH2 0x19A SWAP2 SWAP1 PUSH2 0xCC3 JUMP JUMPDEST PUSH1 0x40 MLOAD DUP1 SWAP2 SUB SWAP1 RETURN JUMPDEST PUSH2 0x1BD PUSH1 0x4 DUP1 CALLDATASIZE SUB DUP2 ADD SWAP1 PUSH2 0x1B8 SWAP2 SWAP1 PUSH2 0xD92 JUMP JUMPDEST PUSH2 0x3CB JUMP JUMPDEST PUSH1 0x40 MLOAD PUSH2 0x1CA SWAP2 SWAP1 PUSH2 0xCED JUMP JUMPDEST PUSH1 0x40 MLOAD DUP1 SWAP2 SUB SWAP1 RETURN JUMPDEST PUSH2 0x1DB PUSH2 0x413 JUMP JUMPDEST PUSH1 0x40 MLOAD PUSH2 0x1E8 SWAP2 SWAP1 PUSH2 0xBAD JUMP JUMPDEST PUSH1 0x40 MLOAD DUP1 SWAP2 SUB SWAP1 RETURN JUMPDEST PUSH2 0x20B PUSH1 0x4 DUP1 CALLDATASIZE SUB DUP2 ADD SWAP1 PUSH2 0x206 SWAP2 SWAP1 PUSH2 0xC68 JUMP JUMPDEST PUSH2 0x4A5 JUMP JUMPDEST PUSH1 0x40 MLOAD PUSH2 0x218 SWAP2 SWAP1 PUSH2 0xCC3 JUMP JUMPDEST PUSH1 0x40 MLOAD DUP1 SWAP2 SUB SWAP1 RETURN JUMPDEST PUSH2 0x23B PUSH1 0x4 DUP1 CALLDATASIZE SUB DUP2 ADD SWAP1 PUSH2 0x236 SWAP2 SWAP1 PUSH2 0xDBF JUMP JUMPDEST PUSH2 0x51C JUMP JUMPDEST STOP JUMPDEST PUSH2 0x257 PUSH1 0x4 DUP1 CALLDATASIZE SUB DUP2 ADD SWAP1 PUSH2 0x252 SWAP2 SWAP1 PUSH2 0xC68 JUMP JUMPDEST PUSH2 0x58D JUMP JUMPDEST PUSH1 0x40 MLOAD PUSH2 0x264 SWAP2 SWAP1 PUSH2 0xCC3 JUMP JUMPDEST PUSH1 0x40 MLOAD DUP1 SWAP2 SUB SWAP1 RETURN JUMPDEST PUSH2 0x287 PUSH1 0x4 DUP1 CALLDATASIZE SUB DUP2 ADD SWAP1 PUSH2 0x282 SWAP2 SWAP1 PUSH2 0xDEC JUMP JUMPDEST PUSH2 0x5B0 JUMP JUMPDEST PUSH1 0x40 MLOAD PUSH2 0x294 SWAP2 SWAP1 PUSH2 0xCED JUMP JUMPDEST PUSH1 0x40 MLOAD DUP1 SWAP2 SUB SWAP1 RETURN JUMPDEST PUSH1 0x60 PUSH1 0x3 DUP1 SLOAD PUSH2 0x2AC SWAP1 PUSH2 0xE5B JUMP JUMPDEST DUP1 PUSH1 0x1F ADD PUSH1 0x20 DUP1 SWAP2 DIV MUL PUSH1 0x20 ADD PUSH1 0x40 MLOAD SWAP1 DUP2 ADD PUSH1 0x40 MSTORE DUP1 SWAP3 SWAP2 SWAP1 DUP2 DUP2 MSTORE PUSH1 0x20 ADD DUP3 DUP1 SLOAD PUSH2 0x2D8 SWAP1 PUSH2 0xE5B JUMP JUMPDEST DUP1 ISZERO PUSH2 0x325 JUMPI DUP1 PUSH1 0x1F LT PUSH2 0x2FA JUMPI PUSH2 0x100 DUP1 DUP4 SLOAD DIV MUL DUP4 MSTORE SWAP2 PUSH1 0x20 ADD SWAP2 PUSH2 0x325 JUMP JUMPDEST DUP3 ADD SWAP2 SWAP1 PUSH1 0x0 MSTORE PUSH1 0x20 PUSH1 0x0 KECCAK256 SWAP1 JUMPDEST DUP2 SLOAD DUP2 MSTORE SWAP1 PUSH1 0x1 ADD SWAP1 PUSH1 0x20 ADD DUP1 DUP4 GT PUSH2 0x308 JUMPI DUP3 SWAP1 SUB PUSH1 0x1F AND DUP3 ADD SWAP2 JUMPDEST POP POP POP POP POP SWAP1 POP SWAP1 JUMP JUMPDEST PUSH1 0x0 DUP1 PUSH2 0x33A PUSH2 0x637 JUMP JUMPDEST SWAP1 POP PUSH2 0x347 DUP2 DUP6 DUP6 PUSH2 0x63F JUMP JUMPDEST PUSH1 0x1 SWAP2 POP POP SWAP3 SWAP2 POP POP JUMP JUMPDEST PUSH1 0x0 PUSH1 0x2 SLOAD SWAP1 POP SWAP1 JUMP JUMPDEST PUSH1 0x0 DUP1 PUSH2 0x367 PUSH2 0x637 JUMP JUMPDEST SWAP1 POP PUSH2 0x374 DUP6 DUP3 DUP6 PUSH2 0x808 JUMP JUMPDEST PUSH2 0x37F DUP6 DUP6 DUP6 PUSH2 0x894 JUMP JUMPDEST PUSH1 0x1 SWAP2 POP POP SWAP4 SWAP3 POP POP POP JUMP JUMPDEST PUSH1 0x0 PUSH1 0x12 SWAP1 POP SWAP1 JUMP JUMPDEST PUSH1 0x0 DUP1 PUSH2 0x39F PUSH2 0x637 JUMP JUMPDEST SWAP1 POP PUSH2 0x3C0 DUP2 DUP6 DUP6 PUSH2 0x3B1 DUP6 DUP10 PUSH2 0x5B0 JUMP JUMPDEST PUSH2 0x3BB SWAP2 SWAP1 PUSH2 0xEBB JUMP JUMPDEST PUSH2 0x63F JUMP JUMPDEST PUSH1 0x1 SWAP2 POP POP SWAP3 SWAP2 POP POP JUMP JUMPDEST PUSH1 0x0 DUP1 PUSH1 0x0 DUP4 PUSH20 0xFFFFFFFFFFFFFFFFFFFFFFFFFFFFFFFFFFFFFFFF AND PUSH20 0xFFFFFFFFFFFFFFFFFFFFFFFFFFFFFFFFFFFFFFFF AND DUP2 MSTORE PUSH1 0x20 ADD SWAP1 DUP2 MSTORE PUSH1 0x20 ADD PUSH1 0x0 KECCAK256 SLOAD SWAP1 POP SWAP2 SWAP1 POP JUMP JUMPDEST PUSH1 0x60 PUSH1 0x4 DUP1 SLOAD PUSH2 0x422 SWAP1 PUSH2 0xE5B JUMP JUMPDEST DUP1 PUSH1 0x1F ADD PUSH1 0x20 DUP1 SWAP2 DIV MUL PUSH1 0x20 ADD PUSH1 0x40 MLOAD SWAP1 DUP2 ADD PUSH1 0x40 MSTORE DUP1 SWAP3 SWAP2 SWAP1 DUP2 DUP2 MSTORE PUSH1 0x20 ADD DUP3 DUP1 SLOAD PUSH2 0x44E SWAP1 PUSH2 0xE5B JUMP JUMPDEST DUP1 ISZERO PUSH2 0x49B JUMPI DUP1 PUSH1 0x1F LT PUSH2 0x470 JUMPI PUSH2 0x100 DUP1 DUP4 SLOAD DIV MUL DUP4 MSTORE SWAP2 PUSH1 0x20 ADD SWAP2 PUSH2 0x49B JUMP JUMPDEST DUP3 ADD SWAP2 SWAP1 PUSH1 0x0 MSTORE PUSH1 0x20 PUSH1 0x0 KECCAK256 SWAP1 JUMPDEST DUP2 SLOAD DUP2 MSTORE SWAP1 PUSH1 0x1 ADD SWAP1 PUSH1 0x20 ADD DUP1 DUP4 GT PUSH2 0x47E JUMPI DUP3 SWAP1 SUB PUSH1 0x1F AND DUP3 ADD SWAP2 JUMPDEST POP POP POP POP POP SWAP1 POP SWAP1 JUMP JUMPDEST PUSH1 0x0 DUP1 PUSH2 0x4B0 PUSH2 0x637 JUMP JUMPDEST SWAP1 POP PUSH1 0x0 PUSH2 0x4BE DUP3 DUP7 PUSH2 0x5B0 JUMP JUMPDEST SWAP1 POP DUP4 DUP2 LT ISZERO PUSH2 0x503 JUMPI PUSH1 0x40 MLOAD PUSH32 0x8C379A000000000000000000000000000000000000000000000000000000000 DUP2 MSTORE PUSH1 0x4 ADD PUSH2 0x4FA SWAP1 PUSH2 0xF61 JUMP JUMPDEST PUSH1 0x40 MLOAD DUP1 SWAP2 SUB SWAP1 REVERT JUMPDEST PUSH2 0x510 DUP3 DUP7 DUP7 DUP5 SUB PUSH2 0x63F JUMP JUMPDEST PUSH1 0x1 SWAP3 POP POP POP SWAP3 SWAP2 POP POP JUMP JUMPDEST CALLER PUSH20 0xFFFFFFFFFFFFFFFFFFFFFFFFFFFFFFFFFFFFFFFF AND PUSH1 0x0 PUSH20 0xFFFFFFFFFFFFFFFFFFFFFFFFFFFFFFFFFFFFFFFF AND PUSH32 0xDDF252AD1BE2C89B69C2B068FC378DAA952BA7F163C4A11628F55A4DF523B3EF PUSH8 0x8AC7230489E80000 PUSH1 0x40 MLOAD PUSH2 0x582 SWAP2 SWAP1 PUSH2 0xFC6 JUMP JUMPDEST PUSH1 0x40 MLOAD DUP1 SWAP2 SUB SWAP1 LOG3 POP JUMP JUMPDEST PUSH1 0x0 DUP1 PUSH2 0x598 PUSH2 0x637 JUMP JUMPDEST SWAP1 POP PUSH2 0x5A5 DUP2 DUP6 DUP6 PUSH2 0x894 JUMP JUMPDEST PUSH1 0x1 SWAP2 POP POP SWAP3 SWAP2 POP POP JUMP JUMPDEST PUSH1 0x0 PUSH1 0x1 PUSH1 0x0 DUP5 PUSH20 0xFFFFFFFFFFFFFFFFFFFFFFFFFFFFFFFFFFFFFFFF AND PUSH20 0xFFFFFFFFFFFFFFFFFFFFFFFFFFFFFFFFFFFFFFFF AND DUP2 MSTORE PUSH1 0x20 ADD SWAP1 DUP2 MSTORE PUSH1 0x20 ADD PUSH1 0x0 KECCAK256 PUSH1 0x0 DUP4 PUSH20 0xFFFFFFFFFFFFFFFFFFFFFFFFFFFFFFFFFFFFFFFF AND PUSH20 0xFFFFFFFFFFFFFFFFFFFFFFFFFFFFFFFFFFFFFFFF AND DUP2 MSTORE PUSH1 0x20 ADD SWAP1 DUP2 MSTORE PUSH1 0x20 ADD PUSH1 0x0 KECCAK256 SLOAD SWAP1 POP SWAP3 SWAP2 POP POP JUMP JUMPDEST PUSH1 0x0 CALLER SWAP1 POP SWAP1 JUMP JUMPDEST PUSH1 0x0 PUSH20 0xFFFFFFFFFFFFFFFFFFFFFFFFFFFFFFFFFFFFFFFF AND DUP4 PUSH20 0xFFFFFFFFFFFFFFFFFFFFFFFFFFFFFFFFFFFFFFFF AND SUB PUSH2 0x6AE JUMPI PUSH1 0x40 MLOAD PUSH32 0x8C379A000000000000000000000000000000000000000000000000000000000 DUP2 MSTORE PUSH1 0x4 ADD PUSH2 0x6A5 SWAP1 PUSH2 0x1053 JUMP JUMPDEST PUSH1 0x40 MLOAD DUP1 SWAP2 SUB SWAP1 REVERT JUMPDEST PUSH1 0x0 PUSH20 0xFFFFFFFFFFFFFFFFFFFFFFFFFFFFFFFFFFFFFFFF AND DUP3 PUSH20 0xFFFFFFFFFFFFFFFFFFFFFFFFFFFFFFFFFFFFFFFF AND SUB PUSH2 0x71D JUMPI PUSH1 0x40 MLOAD PUSH32 0x8C379A000000000000000000000000000000000000000000000000000000000 DUP2 MSTORE PUSH1 0x4 ADD PUSH2 0x714 SWAP1 PUSH2 0x10E5 JUMP JUMPDEST PUSH1 0x40 MLOAD DUP1 SWAP2 SUB SWAP1 REVERT JUMPDEST DUP1 PUSH1 0x1 PUSH1 0x0 DUP6 PUSH20 0xFFFFFFFFFFFFFFFFFFFFFFFFFFFFFFFFFFFFFFFF AND PUSH20 0xFFFFFFFFFFFFFFFFFFFFFFFFFFFFFFFFFFFFFFFF AND DUP2 MSTORE PUSH1 0x20 ADD SWAP1 DUP2 MSTORE PUSH1 0x20 ADD PUSH1 0x0 KECCAK256 PUSH1 0x0 DUP5 PUSH20 0xFFFFFFFFFFFFFFFFFFFFFFFFFFFFFFFFFFFFFFFF AND PUSH20 0xFFFFFFFFFFFFFFFFFFFFFFFFFFFFFFFFFFFFFFFF AND DUP2 MSTORE PUSH1 0x20 ADD SWAP1 DUP2 MSTORE PUSH1 0x20 ADD PUSH1 0x0 KECCAK256 DUP2 SWAP1 SSTORE POP DUP2 PUSH20 0xFFFFFFFFFFFFFFFFFFFFFFFFFFFFFFFFFFFFFFFF AND DUP4 PUSH20 0xFFFFFFFFFFFFFFFFFFFFFFFFFFFFFFFFFFFFFFFF AND PUSH32 0x8C5BE1E5EBEC7D5BD14F71427D1E84F3DD0314C0F7B2291E5B200AC8C7C3B925 DUP4 PUSH1 0x40 MLOAD PUSH2 0x7FB SWAP2 SWAP1 PUSH2 0xCED JUMP JUMPDEST PUSH1 0x40 MLOAD DUP1 SWAP2 SUB SWAP1 LOG3 POP POP POP JUMP JUMPDEST PUSH1 0x0 PUSH2 0x814 DUP5 DUP5 PUSH2 0x5B0 JUMP JUMPDEST SWAP1 POP PUSH32 0xFFFFFFFFFFFFFFFFFFFFFFFFFFFFFFFFFFFFFFFFFFFFFFFFFFFFFFFFFFFFFFFF DUP2 EQ PUSH2 0x88E JUMPI DUP2 DUP2 LT ISZERO PUSH2 0x880 JUMPI PUSH1 0x40 MLOAD PUSH32 0x8C379A000000000000000000000000000000000000000000000000000000000 DUP2 MSTORE PUSH1 0x4 ADD PUSH2 0x877 SWAP1 PUSH2 0x1151 JUMP JUMPDEST PUSH1 0x40 MLOAD DUP1 SWAP2 SUB SWAP1 REVERT JUMPDEST PUSH2 0x88D DUP5 DUP5 DUP5 DUP5 SUB PUSH2 0x63F JUMP JUMPDEST JUMPDEST POP POP POP POP JUMP JUMPDEST PUSH1 0x0 PUSH20 0xFFFFFFFFFFFFFFFFFFFFFFFFFFFFFFFFFFFFFFFF AND DUP4 PUSH20 0xFFFFFFFFFFFFFFFFFFFFFFFFFFFFFFFFFFFFFFFF AND SUB PUSH2 0x903 JUMPI PUSH1 0x40 MLOAD PUSH32 0x8C379A000000000000000000000000000000000000000000000000000000000 DUP2 MSTORE PUSH1 0x4 ADD PUSH2 0x8FA SWAP1 PUSH2 0x11E3 JUMP JUMPDEST PUSH1 0x40 MLOAD DUP1 SWAP2 SUB SWAP1 REVERT JUMPDEST PUSH1 0x0 PUSH20 0xFFFFFFFFFFFFFFFFFFFFFFFFFFFFFFFFFFFFFFFF AND DUP3 PUSH20 0xFFFFFFFFFFFFFFFFFFFFFFFFFFFFFFFFFFFFFFFF AND SUB PUSH2 0x972 JUMPI PUSH1 0x40 MLOAD PUSH32 0x8C379A000000000000000000000000000000000000000000000000000000000 DUP2 MSTORE PUSH1 0x4 ADD PUSH2 0x969 SWAP1 PUSH2 0x1275 JUMP JUMPDEST PUSH1 0x40 MLOAD DUP1 SWAP2 SUB SWAP1 REVERT JUMPDEST PUSH2 0x97D DUP4 DUP4 DUP4 PUSH2 0xB13 JUMP JUMPDEST PUSH1 0x0 DUP1 PUSH1 0x0 DUP6 PUSH20 0xFFFFFFFFFFFFFFFFFFFFFFFFFFFFFFFFFFFFFFFF AND PUSH20 0xFFFFFFFFFFFFFFFFFFFFFFFFFFFFFFFFFFFFFFFF AND DUP2 MSTORE PUSH1 0x20 ADD SWAP1 DUP2 MSTORE PUSH1 0x20 ADD PUSH1 0x0 KECCAK256 SLOAD SWAP1 POP DUP2 DUP2 LT ISZERO PUSH2 0xA03 JUMPI PUSH1 0x40 MLOAD PUSH32 0x8C379A000000000000000000000000000000000000000000000000000000000 DUP2 MSTORE PUSH1 0x4 ADD PUSH2 0x9FA SWAP1 PUSH2 0x1307 JUMP JUMPDEST PUSH1 0x40 MLOAD DUP1 SWAP2 SUB SWAP1 REVERT JUMPDEST DUP2 DUP2 SUB PUSH1 0x0 DUP1 DUP7 PUSH20 0xFFFFFFFFFFFFFFFFFFFFFFFFFFFFFFFFFFFFFFFF AND PUSH20 0xFFFFFFFFFFFFFFFFFFFFFFFFFFFFFFFFFFFFFFFF AND DUP2 MSTORE PUSH1 0x20 ADD SWAP1 DUP2 MSTORE PUSH1 0x20 ADD PUSH1 0x0 KECCAK256 DUP2 SWAP1 SSTORE POP DUP2 PUSH1 0x0 DUP1 DUP6 PUSH20 0xFFFFFFFFFFFFFFFFFFFFFFFFFFFFFFFFFFFFFFFF AND PUSH20 0xFFFFFFFFFFFFFFFFFFFFFFFFFFFFFFFFFFFFFFFF AND DUP2 MSTORE PUSH1 0x20 ADD SWAP1 DUP2 MSTORE PUSH1 0x20 ADD PUSH1 0x0 KECCAK256 PUSH1 0x0 DUP3 DUP3 SLOAD PUSH2 0xA96 SWAP2 SWAP1 PUSH2 0xEBB JUMP JUMPDEST SWAP3 POP POP DUP2 SWAP1 SSTORE POP DUP3 PUSH20 0xFFFFFFFFFFFFFFFFFFFFFFFFFFFFFFFFFFFFFFFF AND DUP5 PUSH20 0xFFFFFFFFFFFFFFFFFFFFFFFFFFFFFFFFFFFFFFFF AND PUSH32 0xDDF252AD1BE2C89B69C2B068FC378DAA952BA7F163C4A11628F55A4DF523B3EF DUP5 PUSH1 0x40 MLOAD PUSH2 0xAFA SWAP2 SWAP1 PUSH2 0xCED JUMP JUMPDEST PUSH1 0x40 MLOAD DUP1 SWAP2 SUB SWAP1 LOG3 PUSH2 0xB0D DUP5 DUP5 DUP5 PUSH2 0xB18 JUMP JUMPDEST POP POP POP POP JUMP JUMPDEST POP POP POP JUMP JUMPDEST POP POP POP JUMP JUMPDEST PUSH1 0x0 DUP2 MLOAD SWAP1 POP SWAP2 SWAP1 POP JUMP JUMPDEST PUSH1 0x0 DUP3 DUP3 MSTORE PUSH1 0x20 DUP3 ADD SWAP1 POP SWAP3 SWAP2 POP POP JUMP JUMPDEST PUSH1 0x0 JUMPDEST DUP4 DUP2 LT ISZERO PUSH2 0xB57 JUMPI DUP1 DUP3 ADD MLOAD DUP2 DUP5 ADD MSTORE PUSH1 0x20 DUP2 ADD SWAP1 POP PUSH2 0xB3C JUMP JUMPDEST PUSH1 0x0 DUP5 DUP5 ADD MSTORE POP POP POP POP JUMP JUMPDEST PUSH1 0x0 PUSH1 0x1F NOT PUSH1 0x1F DUP4 ADD AND SWAP1 POP SWAP2 SWAP1 POP JUMP JUMPDEST PUSH1 0x0 PUSH2 0xB7F DUP3 PUSH2 0xB1D JUMP JUMPDEST PUSH2 0xB89 DUP2 DUP6 PUSH2 0xB28 JUMP JUMPDEST SWAP4 POP PUSH2 0xB99 DUP2 DUP6 PUSH1 0x20 DUP7 ADD PUSH2 0xB39 JUMP JUMPDEST PUSH2 0xBA2 DUP2 PUSH2 0xB63 JUMP JUMPDEST DUP5 ADD SWAP2 POP POP SWAP3 SWAP2 POP POP JUMP JUMPDEST PUSH1 0x0 PUSH1 0x20 DUP3 ADD SWAP1 POP DUP2 DUP2 SUB PUSH1 0x0 DUP4 ADD MSTORE PUSH2 0xBC7 DUP2 DUP5 PUSH2 0xB74 JUMP JUMPDEST SWAP1 POP SWAP3 SWAP2 POP POP JUMP JUMPDEST PUSH1 0x0 DUP1 REVERT JUMPDEST PUSH1 0x0 PUSH20 0xFFFFFFFFFFFFFFFFFFFFFFFFFFFFFFFFFFFFFFFF DUP3 AND SWAP1 POP SWAP2 SWAP1 POP JUMP JUMPDEST PUSH1 0x0 PUSH2 0xBFF DUP3 PUSH2 0xBD4 JUMP JUMPDEST SWAP1 POP SWAP2 SWAP1 POP JUMP JUMPDEST PUSH2 0xC0F DUP2 PUSH2 0xBF4 JUMP JUMPDEST DUP2 EQ PUSH2 0xC1A JUMPI PUSH1 0x0 DUP1 REVERT JUMPDEST POP JUMP JUMPDEST PUSH1 0x0 DUP2 CALLDATALOAD SWAP1 POP PUSH2 0xC2C DUP2 PUSH2 0xC06 JUMP JUMPDEST SWAP3 SWAP2 POP POP JUMP JUMPDEST PUSH1 0x0 DUP2 SWAP1 POP SWAP2 SWAP1 POP JUMP JUMPDEST PUSH2 0xC45 DUP2 PUSH2 0xC32 JUMP JUMPDEST DUP2 EQ PUSH2 0xC50 JUMPI PUSH1 0x0 DUP1 REVERT JUMPDEST POP JUMP JUMPDEST PUSH1 0x0 DUP2 CALLDATALOAD SWAP1 POP PUSH2 0xC62 DUP2 PUSH2 0xC3C JUMP JUMPDEST SWAP3 SWAP2 POP POP JUMP JUMPDEST PUSH1 0x0 DUP1 PUSH1 0x40 DUP4 DUP6 SUB SLT ISZERO PUSH2 0xC7F JUMPI PUSH2 0xC7E PUSH2 0xBCF JUMP JUMPDEST JUMPDEST PUSH1 0x0 PUSH2 0xC8D DUP6 DUP3 DUP7 ADD PUSH2 0xC1D JUMP JUMPDEST SWAP3 POP POP PUSH1 0x20 PUSH2 0xC9E DUP6 DUP3 DUP7 ADD PUSH2 0xC53 JUMP JUMPDEST SWAP2 POP POP SWAP3 POP SWAP3 SWAP1 POP JUMP JUMPDEST PUSH1 0x0 DUP2 ISZERO ISZERO SWAP1 POP SWAP2 SWAP1 POP JUMP JUMPDEST PUSH2 0xCBD DUP2 PUSH2 0xCA8 JUMP JUMPDEST DUP3 MSTORE POP POP JUMP JUMPDEST PUSH1 0x0 PUSH1 0x20 DUP3 ADD SWAP1 POP PUSH2 0xCD8 PUSH1 0x0 DUP4 ADD DUP5 PUSH2 0xCB4 JUMP JUMPDEST SWAP3 SWAP2 POP POP JUMP JUMPDEST PUSH2 0xCE7 DUP2 PUSH2 0xC32 JUMP JUMPDEST DUP3 MSTORE POP POP JUMP JUMPDEST PUSH1 0x0 PUSH1 0x20 DUP3 ADD SWAP1 POP PUSH2 0xD02 PUSH1 0x0 DUP4 ADD DUP5 PUSH2 0xCDE JUMP JUMPDEST SWAP3 SWAP2 POP POP JUMP JUMPDEST PUSH1 0x0 DUP1 PUSH1 0x0 PUSH1 0x60 DUP5 DUP7 SUB SLT ISZERO PUSH2 0xD21 JUMPI PUSH2 0xD20 PUSH2 0xBCF JUMP JUMPDEST JUMPDEST PUSH1 0x0 PUSH2 0xD2F DUP7 DUP3 DUP8 ADD PUSH2 0xC1D JUMP JUMPDEST SWAP4 POP POP PUSH1 0x20 PUSH2 0xD40 DUP7 DUP3 DUP8 ADD PUSH2 0xC1D JUMP JUMPDEST SWAP3 POP POP PUSH1 0x40 PUSH2 0xD51 DUP7 DUP3 DUP8 ADD PUSH2 0xC53 JUMP JUMPDEST SWAP2 POP POP SWAP3 POP SWAP3 POP SWAP3 JUMP JUMPDEST PUSH1 0x0 PUSH1 0xFF DUP3 AND SWAP1 POP SWAP2 SWAP1 POP JUMP JUMPDEST PUSH2 0xD71 DUP2 PUSH2 0xD5B JUMP JUMPDEST DUP3 MSTORE POP POP JUMP JUMPDEST PUSH1 0x0 PUSH1 0x20 DUP3 ADD SWAP1 POP PUSH2 0xD8C PUSH1 0x0 DUP4 ADD DUP5 PUSH2 0xD68 JUMP JUMPDEST SWAP3 SWAP2 POP POP JUMP JUMPDEST PUSH1 0x0 PUSH1 0x20 DUP3 DUP5 SUB SLT ISZERO PUSH2 0xDA8 JUMPI PUSH2 0xDA7 PUSH2 0xBCF JUMP JUMPDEST JUMPDEST PUSH1 0x0 PUSH2 0xDB6 DUP5 DUP3 DUP6 ADD PUSH2 0xC1D JUMP JUMPDEST SWAP2 POP POP SWAP3 SWAP2 POP POP JUMP JUMPDEST PUSH1 0x0 PUSH1 0x20 DUP3 DUP5 SUB SLT ISZERO PUSH2 0xDD5 JUMPI PUSH2 0xDD4 PUSH2 0xBCF JUMP JUMPDEST JUMPDEST PUSH1 0x0 PUSH2 0xDE3 DUP5 DUP3 DUP6 ADD PUSH2 0xC53 JUMP JUMPDEST SWAP2 POP POP SWAP3 SWAP2 POP POP JUMP JUMPDEST PUSH1 0x0 DUP1 PUSH1 0x40 DUP4 DUP6 SUB SLT ISZERO PUSH2 0xE03 JUMPI PUSH2 0xE02 PUSH2 0xBCF JUMP JUMPDEST JUMPDEST PUSH1 0x0 PUSH2 0xE11 DUP6 DUP3 DUP7 ADD PUSH2 0xC1D JUMP JUMPDEST SWAP3 POP POP PUSH1 0x20 PUSH2 0xE22 DUP6 DUP3 DUP7 ADD PUSH2 0xC1D JUMP JUMPDEST SWAP2 POP POP SWAP3 POP SWAP3 SWAP1 POP JUMP JUMPDEST PUSH32 0x4E487B7100000000000000000000000000000000000000000000000000000000 PUSH1 0x0 MSTORE PUSH1 0x22 PUSH1 0x4 MSTORE PUSH1 0x24 PUSH1 0x0 REVERT JUMPDEST PUSH1 0x0 PUSH1 0x2 DUP3 DIV SWAP1 POP PUSH1 0x1 DUP3 AND DUP1 PUSH2 0xE73 JUMPI PUSH1 0x7F DUP3 AND SWAP2 POP JUMPDEST PUSH1 0x20 DUP3 LT DUP2 SUB PUSH2 0xE86 JUMPI PUSH2 0xE85 PUSH2 0xE2C JUMP JUMPDEST JUMPDEST POP SWAP2 SWAP1 POP JUMP JUMPDEST PUSH32 0x4E487B7100000000000000000000000000000000000000000000000000000000 PUSH1 0x0 MSTORE PUSH1 0x11 PUSH1 0x4 MSTORE PUSH1 0x24 PUSH1 0x0 REVERT JUMPDEST PUSH1 0x0 PUSH2 0xEC6 DUP3 PUSH2 0xC32 JUMP JUMPDEST SWAP2 POP PUSH2 0xED1 DUP4 PUSH2 0xC32 JUMP JUMPDEST SWAP3 POP DUP3 DUP3 ADD SWAP1 POP DUP1 DUP3 GT ISZERO PUSH2 0xEE9 JUMPI PUSH2 0xEE8 PUSH2 0xE8C JUMP JUMPDEST JUMPDEST SWAP3 SWAP2 POP POP JUMP JUMPDEST PUSH32 0x45524332303A2064656372656173656420616C6C6F77616E63652062656C6F77 PUSH1 0x0 DUP3 ADD MSTORE PUSH32 0x207A65726F000000000000000000000000000000000000000000000000000000 PUSH1 0x20 DUP3 ADD MSTORE POP JUMP JUMPDEST PUSH1 0x0 PUSH2 0xF4B PUSH1 0x25 DUP4 PUSH2 0xB28 JUMP JUMPDEST SWAP2 POP PUSH2 0xF56 DUP3 PUSH2 0xEEF JUMP JUMPDEST PUSH1 0x40 DUP3 ADD SWAP1 POP SWAP2 SWAP1 POP JUMP JUMPDEST PUSH1 0x0 PUSH1 0x20 DUP3 ADD SWAP1 POP DUP2 DUP2 SUB PUSH1 0x0 DUP4 ADD MSTORE PUSH2 0xF7A DUP2 PUSH2 0xF3E JUMP JUMPDEST SWAP1 POP SWAP2 SWAP1 POP JUMP JUMPDEST PUSH1 0x0 DUP2 SWAP1 POP SWAP2 SWAP1 POP JUMP JUMPDEST PUSH1 0x0 DUP2 SWAP1 POP SWAP2 SWAP1 POP JUMP JUMPDEST PUSH1 0x0 PUSH2 0xFB0 PUSH2 0xFAB PUSH2 0xFA6 DUP5 PUSH2 0xF81 JUMP JUMPDEST PUSH2 0xF8B JUMP JUMPDEST PUSH2 0xC32 JUMP JUMPDEST SWAP1 POP SWAP2 SWAP1 POP JUMP JUMPDEST PUSH2 0xFC0 DUP2 PUSH2 0xF95 JUMP JUMPDEST DUP3 MSTORE POP POP JUMP JUMPDEST PUSH1 0x0 PUSH1 0x20 DUP3 ADD SWAP1 POP PUSH2 0xFDB PUSH1 0x0 DUP4 ADD DUP5 PUSH2 0xFB7 JUMP JUMPDEST SWAP3 SWAP2 POP POP JUMP JUMPDEST PUSH32 0x45524332303A20617070726F76652066726F6D20746865207A65726F20616464 PUSH1 0x0 DUP3 ADD MSTORE PUSH32 0x7265737300000000000000000000000000000000000000000000000000000000 PUSH1 0x20 DUP3 ADD MSTORE POP JUMP JUMPDEST PUSH1 0x0 PUSH2 0x103D PUSH1 0x24 DUP4 PUSH2 0xB28 JUMP JUMPDEST SWAP2 POP PUSH2 0x1048 DUP3 PUSH2 0xFE1 JUMP JUMPDEST PUSH1 0x40 DUP3 ADD SWAP1 POP SWAP2 SWAP1 POP JUMP JUMPDEST PUSH1 0x0 PUSH1 0x20 DUP3 ADD SWAP1 POP DUP2 DUP2 SUB PUSH1 0x0 DUP4 ADD MSTORE PUSH2 0x106C DUP2 PUSH2 0x1030 JUMP JUMPDEST SWAP1 POP SWAP2 SWAP1 POP JUMP JUMPDEST PUSH32 0x45524332303A20617070726F766520746F20746865207A65726F206164647265 PUSH1 0x0 DUP3 ADD MSTORE PUSH32 0x7373000000000000000000000000000000000000000000000000000000000000 PUSH1 0x20 DUP3 ADD MSTORE POP JUMP JUMPDEST PUSH1 0x0 PUSH2 0x10CF PUSH1 0x22 DUP4 PUSH2 0xB28 JUMP JUMPDEST SWAP2 POP PUSH2 0x10DA DUP3 PUSH2 0x1073 JUMP JUMPDEST PUSH1 0x40 DUP3 ADD SWAP1 POP SWAP2 SWAP1 POP JUMP JUMPDEST PUSH1 0x0 PUSH1 0x20 DUP3 ADD SWAP1 POP DUP2 DUP2 SUB PUSH1 0x0 DUP4 ADD MSTORE PUSH2 0x10FE DUP2 PUSH2 0x10C2 JUMP JUMPDEST SWAP1 POP SWAP2 SWAP1 POP JUMP JUMPDEST PUSH32 0x45524332303A20696E73756666696369656E7420616C6C6F77616E6365000000 PUSH1 0x0 DUP3 ADD MSTORE POP JUMP JUMPDEST PUSH1 0x0 PUSH2 0x113B PUSH1 0x1D DUP4 PUSH2 0xB28 JUMP JUMPDEST SWAP2 POP PUSH2 0x1146 DUP3 PUSH2 0x1105 JUMP JUMPDEST PUSH1 0x20 DUP3 ADD SWAP1 POP SWAP2 SWAP1 POP JUMP JUMPDEST PUSH1 0x0 PUSH1 0x20 DUP3 ADD SWAP1 POP DUP2 DUP2 SUB PUSH1 0x0 DUP4 ADD MSTORE PUSH2 0x116A DUP2 PUSH2 0x112E JUMP JUMPDEST SWAP1 POP SWAP2 SWAP1 POP JUMP JUMPDEST PUSH32 0x45524332303A207472616E736665722066726F6D20746865207A65726F206164 PUSH1 0x0 DUP3 ADD MSTORE PUSH32 0x6472657373000000000000000000000000000000000000000000000000000000 PUSH1 0x20 DUP3 ADD MSTORE POP JUMP JUMPDEST PUSH1 0x0 PUSH2 0x11CD PUSH1 0x25 DUP4 PUSH2 0xB28 JUMP JUMPDEST SWAP2 POP PUSH2 0x11D8 DUP3 PUSH2 0x1171 JUMP JUMPDEST PUSH1 0x40 DUP3 ADD SWAP1 POP SWAP2 SWAP1 POP JUMP JUMPDEST PUSH1 0x0 PUSH1 0x20 DUP3 ADD SWAP1 POP DUP2 DUP2 SUB PUSH1 0x0 DUP4 ADD MSTORE PUSH2 0x11FC DUP2 PUSH2 0x11C0 JUMP JUMPDEST SWAP1 POP SWAP2 SWAP1 POP JUMP JUMPDEST PUSH32 0x45524332303A207472616E7366657220746F20746865207A65726F2061646472 PUSH1 0x0 DUP3 ADD MSTORE PUSH32 0x6573730000000000000000000000000000000000000000000000000000000000 PUSH1 0x20 DUP3 ADD MSTORE POP JUMP JUMPDEST PUSH1 0x0 PUSH2 0x125F PUSH1 0x23 DUP4 PUSH2 0xB28 JUMP JUMPDEST SWAP2 POP PUSH2 0x126A DUP3 PUSH2 0x1203 JUMP JUMPDEST PUSH1 0x40 DUP3 ADD SWAP1 POP SWAP2 SWAP1 POP JUMP JUMPDEST PUSH1 0x0 PUSH1 0x20 DUP3 ADD SWAP1 POP DUP2 DUP2 SUB PUSH1 0x0 DUP4 ADD MSTORE PUSH2 0x128E DUP2 PUSH2 0x1252 JUMP JUMPDEST SWAP1 POP SWAP2 SWAP1 POP JUMP JUMPDEST PUSH32 0x45524332303A207472616E7366657220616D6F756E7420657863656564732062 PUSH1 0x0 DUP3 ADD MSTORE PUSH32 0x616C616E63650000000000000000000000000000000000000000000000000000 PUSH1 0x20 DUP3 ADD MSTORE POP JUMP JUMPDEST PUSH1 0x0 PUSH2 0x12F1 PUSH1 0x26 DUP4 PUSH2 0xB28 JUMP JUMPDEST SWAP2 POP PUSH2 0x12FC DUP3 PUSH2 0x1295 JUMP JUMPDEST PUSH1 0x40 DUP3 ADD SWAP1 POP SWAP2 SWAP1 POP JUMP JUMPDEST PUSH1 0x0 PUSH1 0x20 DUP3 ADD SWAP1 POP DUP2 DUP2 SUB PUSH1 0x0 DUP4 ADD MSTORE PUSH2 0x1320 DUP2 PUSH2 0x12E4 JUMP JUMPDEST SWAP1 POP SWAP2 SWAP1 POP JUMP INVALID LOG2 PUSH5 0x6970667358 0x22 SLT KECCAK256 PUSH13 0xB2B8DD0ECCE2242765B707F063 0xAA SHL 0x26 0xCB DUP11 DUP14 EQ PUSH15 0xCF5C4316497DF09A390464736F6C63 NUMBER STOP ADDMOD GT STOP CALLER "
				},
				"gasEstimates": {
					"creation": {
						"codeDepositCost": "991400",
						"executionCost": "infinite",
						"totalCost": "infinite"
					},
					"external": {
						"allowance(address,address)": "infinite",
						"approve(address,uint256)": "infinite",
						"balanceOf(address)": "2841",
						"decimals()": "432",
						"decreaseAllowance(address,uint256)": "infinite",
						"increaseAllowance(address,uint256)": "infinite",
						"name()": "infinite",
						"stake(uint256)": "infinite",
						"symbol()": "infinite",
						"totalSupply()": "2482",
						"transfer(address,uint256)": "infinite",
						"transferFrom(address,address,uint256)": "infinite"
					}
				},
				"methodIdentifiers": {
					"allowance(address,address)": "dd62ed3e",
					"approve(address,uint256)": "095ea7b3",
					"balanceOf(address)": "70a08231",
					"decimals()": "313ce567",
					"decreaseAllowance(address,uint256)": "a457c2d7",
					"increaseAllowance(address,uint256)": "39509351",
					"name()": "06fdde03",
					"stake(uint256)": "a694fc3a",
					"symbol()": "95d89b41",
					"totalSupply()": "18160ddd",
					"transfer(address,uint256)": "a9059cbb",
					"transferFrom(address,address,uint256)": "23b872dd"
				}
			},
			"storageLayout": {
				"storage": [
					{
						"astId": 128,
						"contract": "contracts/uu.sol:uu",
						"label": "_balances",
						"offset": 0,
						"slot": "0",
						"type": "t_mapping(t_address,t_uint256)"
					},
					{
						"astId": 134,
						"contract": "contracts/uu.sol:uu",
						"label": "_allowances",
						"offset": 0,
						"slot": "1",
						"type": "t_mapping(t_address,t_mapping(t_address,t_uint256))"
					},
					{
						"astId": 136,
						"contract": "contracts/uu.sol:uu",
						"label": "_totalSupply",
						"offset": 0,
						"slot": "2",
						"type": "t_uint256"
					},
					{
						"astId": 138,
						"contract": "contracts/uu.sol:uu",
						"label": "_name",
						"offset": 0,
						"slot": "3",
						"type": "t_string_storage"
					},
					{
						"astId": 140,
						"contract": "contracts/uu.sol:uu",
						"label": "_symbol",
						"offset": 0,
						"slot": "4",
						"type": "t_string_storage"
					}
				],
				"types": {
					"t_address": {
						"encoding": "inplace",
						"label": "address",
						"numberOfBytes": "20"
					},
					"t_mapping(t_address,t_mapping(t_address,t_uint256))": {
						"encoding": "mapping",
						"key": "t_address",
						"label": "mapping(address => mapping(address => uint256))",
						"numberOfBytes": "32",
						"value": "t_mapping(t_address,t_uint256)"
					},
					"t_mapping(t_address,t_uint256)": {
						"encoding": "mapping",
						"key": "t_address",
						"label": "mapping(address => uint256)",
						"numberOfBytes": "32",
						"value": "t_uint256"
					},
					"t_string_storage": {
						"encoding": "bytes",
						"label": "string",
						"numberOfBytes": "32"
					},
					"t_uint256": {
						"encoding": "inplace",
						"label": "uint256",
						"numberOfBytes": "32"
					}
				}
			},
			"userdoc": {
				"kind": "user",
				"methods": {},
				"version": 1
			}
		}
	}
}