{
	"contracts/Lottery.sol": {
		"Lottery": {
			"abi": [
				{
					"inputs": [],
					"stateMutability": "nonpayable",
					"type": "constructor"
				},
				{
					"anonymous": false,
					"inputs": [
						{
							"indexed": true,
							"internalType": "address",
							"name": "owner",
							"type": "address"
						},
						{
							"indexed": true,
							"internalType": "address",
							"name": "spender",
							"type": "address"
						},
						{
							"indexed": false,
							"internalType": "uint256",
							"name": "value",
							"type": "uint256"
						}
					],
					"name": "Approval",
					"type": "event"
				},
				{
					"anonymous": false,
					"inputs": [
						{
							"indexed": true,
							"internalType": "address",
							"name": "from",
							"type": "address"
						},
						{
							"indexed": true,
							"internalType": "address",
							"name": "to",
							"type": "address"
						},
						{
							"indexed": false,
							"internalType": "uint256",
							"name": "value",
							"type": "uint256"
						}
					],
					"name": "Transfer",
					"type": "event"
				},
				{
					"inputs": [],
					"name": "admin",
					"outputs": [
						{
							"internalType": "address",
							"name": "",
							"type": "address"
						}
					],
					"stateMutability": "view",
					"type": "function"
				},
				{
					"inputs": [
						{
							"internalType": "address",
							"name": "owner",
							"type": "address"
						},
						{
							"internalType": "address",
							"name": "spender",
							"type": "address"
						}
					],
					"name": "allowance",
					"outputs": [
						{
							"internalType": "uint256",
							"name": "",
							"type": "uint256"
						}
					],
					"stateMutability": "view",
					"type": "function"
				},
				{
					"inputs": [
						{
							"internalType": "address",
							"name": "spender",
							"type": "address"
						},
						{
							"internalType": "uint256",
							"name": "amount",
							"type": "uint256"
						}
					],
					"name": "approve",
					"outputs": [
						{
							"internalType": "bool",
							"name": "",
							"type": "bool"
						}
					],
					"stateMutability": "nonpayable",
					"type": "function"
				},
				{
					"inputs": [
						{
							"internalType": "address",
							"name": "account",
							"type": "address"
						}
					],
					"name": "balanceOf",
					"outputs": [
						{
							"internalType": "uint256",
							"name": "",
							"type": "uint256"
						}
					],
					"stateMutability": "view",
					"type": "function"
				},
				{
					"inputs": [],
					"name": "decimals",
					"outputs": [
						{
							"internalType": "uint8",
							"name": "",
							"type": "uint8"
						}
					],
					"stateMutability": "view",
					"type": "function"
				},
				{
					"inputs": [
						{
							"internalType": "address",
							"name": "spender",
							"type": "address"
						},
						{
							"internalType": "uint256",
							"name": "subtractedValue",
							"type": "uint256"
						}
					],
					"name": "decreaseAllowance",
					"outputs": [
						{
							"internalType": "bool",
							"name": "",
							"type": "bool"
						}
					],
					"stateMutability": "nonpayable",
					"type": "function"
				},
				{
					"inputs": [],
					"name": "enter",
					"outputs": [],
					"stateMutability": "payable",
					"type": "function"
				},
				{
					"inputs": [],
					"name": "getBalance",
					"outputs": [
						{
							"internalType": "uint256",
							"name": "",
							"type": "uint256"
						}
					],
					"stateMutability": "view",
					"type": "function"
				},
				{
					"inputs": [
						{
							"internalType": "address",
							"name": "spender",
							"type": "address"
						},
						{
							"internalType": "uint256",
							"name": "addedValue",
							"type": "uint256"
						}
					],
					"name": "increaseAllowance",
					"outputs": [
						{
							"internalType": "bool",
							"name": "",
							"type": "bool"
						}
					],
					"stateMutability": "nonpayable",
					"type": "function"
				},
				{
					"inputs": [],
					"name": "name",
					"outputs": [
						{
							"internalType": "string",
							"name": "",
							"type": "string"
						}
					],
					"stateMutability": "view",
					"type": "function"
				},
				{
					"inputs": [],
					"name": "pickWinner",
					"outputs": [],
					"stateMutability": "nonpayable",
					"type": "function"
				},
				{
					"inputs": [
						{
							"internalType": "uint256",
							"name": "",
							"type": "uint256"
						}
					],
					"name": "players",
					"outputs": [
						{
							"internalType": "address payable",
							"name": "",
							"type": "address"
						}
					],
					"stateMutability": "view",
					"type": "function"
				},
				{
					"inputs": [],
					"name": "symbol",
					"outputs": [
						{
							"internalType": "string",
							"name": "",
							"type": "string"
						}
					],
					"stateMutability": "view",
					"type": "function"
				},
				{
					"inputs": [],
					"name": "tokensPerEth",
					"outputs": [
						{
							"internalType": "uint256",
							"name": "",
							"type": "uint256"
						}
					],
					"stateMutability": "view",
					"type": "function"
				},
				{
					"inputs": [],
					"name": "totalSupply",
					"outputs": [
						{
							"internalType": "uint256",
							"name": "",
							"type": "uint256"
						}
					],
					"stateMutability": "view",
					"type": "function"
				},
				{
					"inputs": [
						{
							"internalType": "address",
							"name": "to",
							"type": "address"
						},
						{
							"internalType": "uint256",
							"name": "amount",
							"type": "uint256"
						}
					],
					"name": "transfer",
					"outputs": [
						{
							"internalType": "bool",
							"name": "",
							"type": "bool"
						}
					],
					"stateMutability": "nonpayable",
					"type": "function"
				},
				{
					"inputs": [
						{
							"internalType": "address",
							"name": "from",
							"type": "address"
						},
						{
							"internalType": "address",
							"name": "to",
							"type": "address"
						},
						{
							"internalType": "uint256",
							"name": "amount",
							"type": "uint256"
						}
					],
					"name": "transferFrom",
					"outputs": [
						{
							"internalType": "bool",
							"name": "",
							"type": "bool"
						}
					],
					"stateMutability": "nonpayable",
					"type": "function"
				},
				{
					"stateMutability": "payable",
					"type": "receive"
				}
			],
			"devdoc": {
				"details": "Ether lotery that transfer contract amount to winner",
				"kind": "dev",
				"methods": {
					"allowance(address,address)": {
						"details": "See {IERC20-allowance}."
					},
					"approve(address,uint256)": {
						"details": "See {IERC20-approve}. NOTE: If `amount` is the maximum `uint256`, the allowance is not updated on `transferFrom`. This is semantically equivalent to an infinite approval. Requirements: - `spender` cannot be the zero address."
					},
					"balanceOf(address)": {
						"details": "See {IERC20-balanceOf}."
					},
					"constructor": {
						"details": "让部署该合约的人为管理员"
					},
					"decimals()": {
						"details": "Returns the number of decimals used to get its user representation. For example, if `decimals` equals `2`, a balance of `505` tokens should be displayed to a user as `5.05` (`505 / 10 ** 2`). Tokens usually opt for a value of 18, imitating the relationship between Ether and Wei. This is the value {ERC20} uses, unless this function is overridden; NOTE: This information is only used for _display_ purposes: it in no way affects any of the arithmetic of the contract, including {IERC20-balanceOf} and {IERC20-transfer}."
					},
					"decreaseAllowance(address,uint256)": {
						"details": "Atomically decreases the allowance granted to `spender` by the caller. This is an alternative to {approve} that can be used as a mitigation for problems described in {IERC20-approve}. Emits an {Approval} event indicating the updated allowance. Requirements: - `spender` cannot be the zero address. - `spender` must have allowance for the caller of at least `subtractedValue`."
					},
					"getBalance()": {
						"details": "获得合同余额",
						"returns": {
							"_0": "contract balance"
						}
					},
					"increaseAllowance(address,uint256)": {
						"details": "Atomically increases the allowance granted to `spender` by the caller. This is an alternative to {approve} that can be used as a mitigation for problems described in {IERC20-approve}. Emits an {Approval} event indicating the updated allowance. Requirements: - `spender` cannot be the zero address."
					},
					"name()": {
						"details": "Returns the name of the token."
					},
					"pickWinner()": {
						"details": "从彩票中挑选赢家，并授予冠军合同的余额"
					},
					"symbol()": {
						"details": "Returns the symbol of the token, usually a shorter version of the name."
					},
					"totalSupply()": {
						"details": "See {IERC20-totalSupply}."
					},
					"transfer(address,uint256)": {
						"details": "See {IERC20-transfer}. Requirements: - `to` cannot be the zero address. - the caller must have a balance of at least `amount`."
					},
					"transferFrom(address,address,uint256)": {
						"details": "See {IERC20-transferFrom}. Emits an {Approval} event indicating the updated allowance. This is not required by the EIP. See the note at the beginning of {ERC20}. NOTE: Does not update the allowance if the current allowance is the maximum `uint256`. Requirements: - `from` and `to` cannot be the zero address. - `from` must have a balance of at least `amount`. - the caller must have allowance for ``from``'s tokens of at least `amount`."
					}
				},
				"title": "Lottery",
				"version": 1
			},
			"evm": {
				"assembly": "    /* \"contracts/Lottery.sol\":205:3312  contract Lottery is ERC20  {... */\n  mstore(0x40, 0x80)\n    /* \"contracts/Lottery.sol\":395:397  10 */\n  0x0a\n    /* \"contracts/Lottery.sol\":365:397  uint256 public tokensPerEth = 10 */\n  0x07\n  sstore\n    /* \"contracts/Lottery.sol\":469:808  constructor() ERC20(\"MSHK ERC20 Token\", \"MSHK\") {... */\n  callvalue\n  dup1\n  iszero\n  tag_1\n  jumpi\n  0x00\n  dup1\n  revert\ntag_1:\n  pop\n    /* \"@openzeppelin/contracts/token/ERC20/ERC20.sol\":1978:2091  constructor(string memory name_, string memory symbol_) {... */\n  mload(0x40)\n  dup1\n  0x40\n  add\n  0x40\n  mstore\n  dup1\n  0x10\n  dup2\n  mstore\n  0x20\n  add\n  0x4d53484b20455243323020546f6b656e00000000000000000000000000000000\n  dup2\n  mstore\n  pop\n  mload(0x40)\n  dup1\n  0x40\n  add\n  0x40\n  mstore\n  dup1\n  0x04\n  dup2\n  mstore\n  0x20\n  add\n  0x4d53484b00000000000000000000000000000000000000000000000000000000\n  dup2\n  mstore\n  pop\n    /* \"@openzeppelin/contracts/token/ERC20/ERC20.sol\":2052:2057  name_ */\n  dup2\n    /* \"@openzeppelin/contracts/token/ERC20/ERC20.sol\":2044:2049  _name */\n  0x03\n    /* \"@openzeppelin/contracts/token/ERC20/ERC20.sol\":2044:2057  _name = name_ */\n  swap1\n  dup2\n  tag_5\n  swap2\n  swap1\n  tag_6\n  jump\t// in\ntag_5:\n  pop\n    /* \"@openzeppelin/contracts/token/ERC20/ERC20.sol\":2077:2084  symbol_ */\n  dup1\n    /* \"@openzeppelin/contracts/token/ERC20/ERC20.sol\":2067:2074  _symbol */\n  0x04\n    /* \"@openzeppelin/contracts/token/ERC20/ERC20.sol\":2067:2084  _symbol = symbol_ */\n  swap1\n  dup2\n  tag_7\n  swap2\n  swap1\n  tag_6\n  jump\t// in\ntag_7:\n  pop\n    /* \"@openzeppelin/contracts/token/ERC20/ERC20.sol\":1978:2091  constructor(string memory name_, string memory symbol_) {... */\n  pop\n  pop\n    /* \"contracts/Lottery.sol\":571:581  msg.sender */\n  caller\n    /* \"contracts/Lottery.sol\":563:568  admin */\n  0x06\n  0x00\n    /* \"contracts/Lottery.sol\":563:581  admin = msg.sender */\n  0x0100\n  exp\n  dup2\n  sload\n  dup2\n  0xffffffffffffffffffffffffffffffffffffffff\n  mul\n  not\n  and\n  swap1\n  dup4\n  0xffffffffffffffffffffffffffffffffffffffff\n  and\n  mul\n  or\n  swap1\n  sstore\n  pop\n    /* \"contracts/Lottery.sol\":641:648  players */\n  0x05\n    /* \"contracts/Lottery.sol\":662:667  admin */\n  0x06\n  0x00\n  swap1\n  sload\n  swap1\n  0x0100\n  exp\n  swap1\n  div\n  0xffffffffffffffffffffffffffffffffffffffff\n  and\n    /* \"contracts/Lottery.sol\":641:669  players.push(payable(admin)) */\n  swap1\n  dup1\n  0x01\n  dup2\n  sload\n  add\n  dup1\n  dup3\n  sstore\n  dup1\n  swap2\n  pop\n  pop\n  0x01\n  swap1\n  sub\n  swap1\n  0x00\n  mstore\n  keccak256(0x00, 0x20)\n  add\n  0x00\n  swap1\n  swap2\n  swap1\n  swap2\n  swap1\n  swap2\n  0x0100\n  exp\n  dup2\n  sload\n  dup2\n  0xffffffffffffffffffffffffffffffffffffffff\n  mul\n  not\n  and\n  swap1\n  dup4\n  0xffffffffffffffffffffffffffffffffffffffff\n  and\n  mul\n  or\n  swap1\n  sstore\n  pop\n    /* \"contracts/Lottery.sol\":747:782  _mint(msg.sender, 10000 * 10 ** 18) */\n  tag_10\n    /* \"contracts/Lottery.sol\":753:763  msg.sender */\n  caller\n    /* \"contracts/Lottery.sol\":765:781  10000 * 10 ** 18 */\n  0x021e19e0c9bab2400000\n    /* \"contracts/Lottery.sol\":747:752  _mint */\n  shl(0x20, tag_11)\n    /* \"contracts/Lottery.sol\":747:782  _mint(msg.sender, 10000 * 10 ** 18) */\n  0x20\n  shr\n  jump\t// in\ntag_10:\n    /* \"contracts/Lottery.sol\":205:3312  contract Lottery is ERC20  {... */\n  jump(tag_12)\n    /* \"@openzeppelin/contracts/token/ERC20/ERC20.sol\":8402:8791  function _mint(address account, uint256 amount) internal virtual {... */\ntag_11:\n    /* \"@openzeppelin/contracts/token/ERC20/ERC20.sol\":8504:8505  0 */\n  0x00\n    /* \"@openzeppelin/contracts/token/ERC20/ERC20.sol\":8485:8506  account != address(0) */\n  0xffffffffffffffffffffffffffffffffffffffff\n  and\n    /* \"@openzeppelin/contracts/token/ERC20/ERC20.sol\":8485:8492  account */\n  dup3\n    /* \"@openzeppelin/contracts/token/ERC20/ERC20.sol\":8485:8506  account != address(0) */\n  0xffffffffffffffffffffffffffffffffffffffff\n  and\n  sub\n    /* \"@openzeppelin/contracts/token/ERC20/ERC20.sol\":8477:8542  require(account != address(0), \"ERC20: mint to the zero address\") */\n  tag_14\n  jumpi\n  mload(0x40)\n  0x08c379a000000000000000000000000000000000000000000000000000000000\n  dup2\n  mstore\n  0x04\n  add\n  tag_15\n  swap1\n  tag_16\n  jump\t// in\ntag_15:\n  mload(0x40)\n  dup1\n  swap2\n  sub\n  swap1\n  revert\ntag_14:\n    /* \"@openzeppelin/contracts/token/ERC20/ERC20.sol\":8553:8602  _beforeTokenTransfer(address(0), account, amount) */\n  tag_17\n    /* \"@openzeppelin/contracts/token/ERC20/ERC20.sol\":8582:8583  0 */\n  0x00\n    /* \"@openzeppelin/contracts/token/ERC20/ERC20.sol\":8586:8593  account */\n  dup4\n    /* \"@openzeppelin/contracts/token/ERC20/ERC20.sol\":8595:8601  amount */\n  dup4\n    /* \"@openzeppelin/contracts/token/ERC20/ERC20.sol\":8553:8573  _beforeTokenTransfer */\n  shl(0x20, tag_18)\n    /* \"@openzeppelin/contracts/token/ERC20/ERC20.sol\":8553:8602  _beforeTokenTransfer(address(0), account, amount) */\n  0x20\n  shr\n  jump\t// in\ntag_17:\n    /* \"@openzeppelin/contracts/token/ERC20/ERC20.sol\":8629:8635  amount */\n  dup1\n    /* \"@openzeppelin/contracts/token/ERC20/ERC20.sol\":8613:8625  _totalSupply */\n  0x02\n  0x00\n    /* \"@openzeppelin/contracts/token/ERC20/ERC20.sol\":8613:8635  _totalSupply += amount */\n  dup3\n  dup3\n  sload\n  tag_19\n  swap2\n  swap1\n  tag_20\n  jump\t// in\ntag_19:\n  swap3\n  pop\n  pop\n  dup2\n  swap1\n  sstore\n  pop\n    /* \"@openzeppelin/contracts/token/ERC20/ERC20.sol\":8667:8673  amount */\n  dup1\n    /* \"@openzeppelin/contracts/token/ERC20/ERC20.sol\":8645:8654  _balances */\n  0x00\n    /* \"@openzeppelin/contracts/token/ERC20/ERC20.sol\":8645:8663  _balances[account] */\n  dup1\n    /* \"@openzeppelin/contracts/token/ERC20/ERC20.sol\":8655:8662  account */\n  dup5\n    /* \"@openzeppelin/contracts/token/ERC20/ERC20.sol\":8645:8663  _balances[account] */\n  0xffffffffffffffffffffffffffffffffffffffff\n  and\n  0xffffffffffffffffffffffffffffffffffffffff\n  and\n  dup2\n  mstore\n  0x20\n  add\n  swap1\n  dup2\n  mstore\n  0x20\n  add\n  0x00\n  keccak256\n  0x00\n    /* \"@openzeppelin/contracts/token/ERC20/ERC20.sol\":8645:8673  _balances[account] += amount */\n  dup3\n  dup3\n  sload\n  tag_21\n  swap2\n  swap1\n  tag_20\n  jump\t// in\ntag_21:\n  swap3\n  pop\n  pop\n  dup2\n  swap1\n  sstore\n  pop\n    /* \"@openzeppelin/contracts/token/ERC20/ERC20.sol\":8709:8716  account */\n  dup2\n    /* \"@openzeppelin/contracts/token/ERC20/ERC20.sol\":8688:8725  Transfer(address(0), account, amount) */\n  0xffffffffffffffffffffffffffffffffffffffff\n  and\n    /* \"@openzeppelin/contracts/token/ERC20/ERC20.sol\":8705:8706  0 */\n  0x00\n    /* \"@openzeppelin/contracts/token/ERC20/ERC20.sol\":8688:8725  Transfer(address(0), account, amount) */\n  0xffffffffffffffffffffffffffffffffffffffff\n  and\n  0xddf252ad1be2c89b69c2b068fc378daa952ba7f163c4a11628f55a4df523b3ef\n    /* \"@openzeppelin/contracts/token/ERC20/ERC20.sol\":8718:8724  amount */\n  dup4\n    /* \"@openzeppelin/contracts/token/ERC20/ERC20.sol\":8688:8725  Transfer(address(0), account, amount) */\n  mload(0x40)\n  tag_22\n  swap2\n  swap1\n  tag_23\n  jump\t// in\ntag_22:\n  mload(0x40)\n  dup1\n  swap2\n  sub\n  swap1\n  log3\n    /* \"@openzeppelin/contracts/token/ERC20/ERC20.sol\":8736:8784  _afterTokenTransfer(address(0), account, amount) */\n  tag_24\n    /* \"@openzeppelin/contracts/token/ERC20/ERC20.sol\":8764:8765  0 */\n  0x00\n    /* \"@openzeppelin/contracts/token/ERC20/ERC20.sol\":8768:8775  account */\n  dup4\n    /* \"@openzeppelin/contracts/token/ERC20/ERC20.sol\":8777:8783  amount */\n  dup4\n    /* \"@openzeppelin/contracts/token/ERC20/ERC20.sol\":8736:8755  _afterTokenTransfer */\n  shl(0x20, tag_25)\n    /* \"@openzeppelin/contracts/token/ERC20/ERC20.sol\":8736:8784  _afterTokenTransfer(address(0), account, amount) */\n  0x20\n  shr\n  jump\t// in\ntag_24:\n    /* \"@openzeppelin/contracts/token/ERC20/ERC20.sol\":8402:8791  function _mint(address account, uint256 amount) internal virtual {... */\n  pop\n  pop\n  jump\t// out\n    /* \"@openzeppelin/contracts/token/ERC20/ERC20.sol\":11786:11907  function _beforeTokenTransfer(... */\ntag_18:\n  pop\n  pop\n  pop\n  jump\t// out\n    /* \"@openzeppelin/contracts/token/ERC20/ERC20.sol\":12495:12615  function _afterTokenTransfer(... */\ntag_25:\n  pop\n  pop\n  pop\n  jump\t// out\n    /* \"#utility.yul\":7:106   */\ntag_28:\n    /* \"#utility.yul\":59:65   */\n  0x00\n    /* \"#utility.yul\":93:98   */\n  dup2\n    /* \"#utility.yul\":87:99   */\n  mload\n    /* \"#utility.yul\":77:99   */\n  swap1\n  pop\n    /* \"#utility.yul\":7:106   */\n  swap2\n  swap1\n  pop\n  jump\t// out\n    /* \"#utility.yul\":112:292   */\ntag_29:\n    /* \"#utility.yul\":160:237   */\n  0x4e487b7100000000000000000000000000000000000000000000000000000000\n    /* \"#utility.yul\":157:158   */\n  0x00\n    /* \"#utility.yul\":150:238   */\n  mstore\n    /* \"#utility.yul\":257:261   */\n  0x41\n    /* \"#utility.yul\":254:255   */\n  0x04\n    /* \"#utility.yul\":247:262   */\n  mstore\n    /* \"#utility.yul\":281:285   */\n  0x24\n    /* \"#utility.yul\":278:279   */\n  0x00\n    /* \"#utility.yul\":271:286   */\n  revert\n    /* \"#utility.yul\":298:478   */\ntag_30:\n    /* \"#utility.yul\":346:423   */\n  0x4e487b7100000000000000000000000000000000000000000000000000000000\n    /* \"#utility.yul\":343:344   */\n  0x00\n    /* \"#utility.yul\":336:424   */\n  mstore\n    /* \"#utility.yul\":443:447   */\n  0x22\n    /* \"#utility.yul\":440:441   */\n  0x04\n    /* \"#utility.yul\":433:448   */\n  mstore\n    /* \"#utility.yul\":467:471   */\n  0x24\n    /* \"#utility.yul\":464:465   */\n  0x00\n    /* \"#utility.yul\":457:472   */\n  revert\n    /* \"#utility.yul\":484:804   */\ntag_31:\n    /* \"#utility.yul\":528:534   */\n  0x00\n    /* \"#utility.yul\":565:566   */\n  0x02\n    /* \"#utility.yul\":559:563   */\n  dup3\n    /* \"#utility.yul\":555:567   */\n  div\n    /* \"#utility.yul\":545:567   */\n  swap1\n  pop\n    /* \"#utility.yul\":612:613   */\n  0x01\n    /* \"#utility.yul\":606:610   */\n  dup3\n    /* \"#utility.yul\":602:614   */\n  and\n    /* \"#utility.yul\":633:651   */\n  dup1\n    /* \"#utility.yul\":623:704   */\n  tag_58\n  jumpi\n    /* \"#utility.yul\":689:693   */\n  0x7f\n    /* \"#utility.yul\":681:687   */\n  dup3\n    /* \"#utility.yul\":677:694   */\n  and\n    /* \"#utility.yul\":667:694   */\n  swap2\n  pop\n    /* \"#utility.yul\":623:704   */\ntag_58:\n    /* \"#utility.yul\":751:753   */\n  0x20\n    /* \"#utility.yul\":743:749   */\n  dup3\n    /* \"#utility.yul\":740:754   */\n  lt\n    /* \"#utility.yul\":720:738   */\n  dup2\n    /* \"#utility.yul\":717:755   */\n  sub\n    /* \"#utility.yul\":714:798   */\n  tag_59\n  jumpi\n    /* \"#utility.yul\":770:788   */\n  tag_60\n  tag_30\n  jump\t// in\ntag_60:\n    /* \"#utility.yul\":714:798   */\ntag_59:\n    /* \"#utility.yul\":535:804   */\n  pop\n    /* \"#utility.yul\":484:804   */\n  swap2\n  swap1\n  pop\n  jump\t// out\n    /* \"#utility.yul\":810:951   */\ntag_32:\n    /* \"#utility.yul\":859:863   */\n  0x00\n    /* \"#utility.yul\":882:885   */\n  dup2\n    /* \"#utility.yul\":874:885   */\n  swap1\n  pop\n    /* \"#utility.yul\":905:908   */\n  dup2\n    /* \"#utility.yul\":902:903   */\n  0x00\n    /* \"#utility.yul\":895:909   */\n  mstore\n    /* \"#utility.yul\":939:943   */\n  0x20\n    /* \"#utility.yul\":936:937   */\n  0x00\n    /* \"#utility.yul\":926:944   */\n  keccak256\n    /* \"#utility.yul\":918:944   */\n  swap1\n  pop\n    /* \"#utility.yul\":810:951   */\n  swap2\n  swap1\n  pop\n  jump\t// out\n    /* \"#utility.yul\":957:1050   */\ntag_33:\n    /* \"#utility.yul\":994:1000   */\n  0x00\n    /* \"#utility.yul\":1041:1043   */\n  0x20\n    /* \"#utility.yul\":1036:1038   */\n  0x1f\n    /* \"#utility.yul\":1029:1034   */\n  dup4\n    /* \"#utility.yul\":1025:1039   */\n  add\n    /* \"#utility.yul\":1021:1044   */\n  div\n    /* \"#utility.yul\":1011:1044   */\n  swap1\n  pop\n    /* \"#utility.yul\":957:1050   */\n  swap2\n  swap1\n  pop\n  jump\t// out\n    /* \"#utility.yul\":1056:1163   */\ntag_34:\n    /* \"#utility.yul\":1100:1108   */\n  0x00\n    /* \"#utility.yul\":1150:1155   */\n  dup3\n    /* \"#utility.yul\":1144:1148   */\n  dup3\n    /* \"#utility.yul\":1140:1156   */\n  shl\n    /* \"#utility.yul\":1119:1156   */\n  swap1\n  pop\n    /* \"#utility.yul\":1056:1163   */\n  swap3\n  swap2\n  pop\n  pop\n  jump\t// out\n    /* \"#utility.yul\":1169:1562   */\ntag_35:\n    /* \"#utility.yul\":1238:1244   */\n  0x00\n    /* \"#utility.yul\":1288:1289   */\n  0x08\n    /* \"#utility.yul\":1276:1286   */\n  dup4\n    /* \"#utility.yul\":1272:1290   */\n  mul\n    /* \"#utility.yul\":1311:1408   */\n  tag_65\n    /* \"#utility.yul\":1341:1407   */\n  0xffffffffffffffffffffffffffffffffffffffffffffffffffffffffffffffff\n    /* \"#utility.yul\":1330:1339   */\n  dup3\n    /* \"#utility.yul\":1311:1408   */\n  tag_34\n  jump\t// in\ntag_65:\n    /* \"#utility.yul\":1429:1468   */\n  tag_66\n    /* \"#utility.yul\":1459:1467   */\n  dup7\n    /* \"#utility.yul\":1448:1457   */\n  dup4\n    /* \"#utility.yul\":1429:1468   */\n  tag_34\n  jump\t// in\ntag_66:\n    /* \"#utility.yul\":1417:1468   */\n  swap6\n  pop\n    /* \"#utility.yul\":1501:1505   */\n  dup1\n    /* \"#utility.yul\":1497:1506   */\n  not\n    /* \"#utility.yul\":1490:1495   */\n  dup5\n    /* \"#utility.yul\":1486:1507   */\n  and\n    /* \"#utility.yul\":1477:1507   */\n  swap4\n  pop\n    /* \"#utility.yul\":1550:1554   */\n  dup1\n    /* \"#utility.yul\":1540:1548   */\n  dup7\n    /* \"#utility.yul\":1536:1555   */\n  and\n    /* \"#utility.yul\":1529:1534   */\n  dup5\n    /* \"#utility.yul\":1526:1556   */\n  or\n    /* \"#utility.yul\":1516:1556   */\n  swap3\n  pop\n    /* \"#utility.yul\":1245:1562   */\n  pop\n  pop\n    /* \"#utility.yul\":1169:1562   */\n  swap4\n  swap3\n  pop\n  pop\n  pop\n  jump\t// out\n    /* \"#utility.yul\":1568:1645   */\ntag_36:\n    /* \"#utility.yul\":1605:1612   */\n  0x00\n    /* \"#utility.yul\":1634:1639   */\n  dup2\n    /* \"#utility.yul\":1623:1639   */\n  swap1\n  pop\n    /* \"#utility.yul\":1568:1645   */\n  swap2\n  swap1\n  pop\n  jump\t// out\n    /* \"#utility.yul\":1651:1711   */\ntag_37:\n    /* \"#utility.yul\":1679:1682   */\n  0x00\n    /* \"#utility.yul\":1700:1705   */\n  dup2\n    /* \"#utility.yul\":1693:1705   */\n  swap1\n  pop\n    /* \"#utility.yul\":1651:1711   */\n  swap2\n  swap1\n  pop\n  jump\t// out\n    /* \"#utility.yul\":1717:1859   */\ntag_38:\n    /* \"#utility.yul\":1767:1776   */\n  0x00\n    /* \"#utility.yul\":1800:1853   */\n  tag_70\n    /* \"#utility.yul\":1818:1852   */\n  tag_71\n    /* \"#utility.yul\":1827:1851   */\n  tag_72\n    /* \"#utility.yul\":1845:1850   */\n  dup5\n    /* \"#utility.yul\":1827:1851   */\n  tag_36\n  jump\t// in\ntag_72:\n    /* \"#utility.yul\":1818:1852   */\n  tag_37\n  jump\t// in\ntag_71:\n    /* \"#utility.yul\":1800:1853   */\n  tag_36\n  jump\t// in\ntag_70:\n    /* \"#utility.yul\":1787:1853   */\n  swap1\n  pop\n    /* \"#utility.yul\":1717:1859   */\n  swap2\n  swap1\n  pop\n  jump\t// out\n    /* \"#utility.yul\":1865:1940   */\ntag_39:\n    /* \"#utility.yul\":1908:1911   */\n  0x00\n    /* \"#utility.yul\":1929:1934   */\n  dup2\n    /* \"#utility.yul\":1922:1934   */\n  swap1\n  pop\n    /* \"#utility.yul\":1865:1940   */\n  swap2\n  swap1\n  pop\n  jump\t// out\n    /* \"#utility.yul\":1946:2215   */\ntag_40:\n    /* \"#utility.yul\":2056:2095   */\n  tag_75\n    /* \"#utility.yul\":2087:2094   */\n  dup4\n    /* \"#utility.yul\":2056:2095   */\n  tag_38\n  jump\t// in\ntag_75:\n    /* \"#utility.yul\":2117:2208   */\n  tag_76\n    /* \"#utility.yul\":2166:2207   */\n  tag_77\n    /* \"#utility.yul\":2190:2206   */\n  dup3\n    /* \"#utility.yul\":2166:2207   */\n  tag_39\n  jump\t// in\ntag_77:\n    /* \"#utility.yul\":2158:2164   */\n  dup5\n    /* \"#utility.yul\":2151:2155   */\n  dup5\n    /* \"#utility.yul\":2145:2156   */\n  sload\n    /* \"#utility.yul\":2117:2208   */\n  tag_35\n  jump\t// in\ntag_76:\n    /* \"#utility.yul\":2111:2115   */\n  dup3\n    /* \"#utility.yul\":2104:2209   */\n  sstore\n    /* \"#utility.yul\":2022:2215   */\n  pop\n    /* \"#utility.yul\":1946:2215   */\n  pop\n  pop\n  pop\n  jump\t// out\n    /* \"#utility.yul\":2221:2294   */\ntag_41:\n    /* \"#utility.yul\":2266:2269   */\n  0x00\n    /* \"#utility.yul\":2221:2294   */\n  swap1\n  jump\t// out\n    /* \"#utility.yul\":2300:2489   */\ntag_42:\n    /* \"#utility.yul\":2377:2409   */\n  tag_80\n  tag_41\n  jump\t// in\ntag_80:\n    /* \"#utility.yul\":2418:2483   */\n  tag_81\n    /* \"#utility.yul\":2476:2482   */\n  dup2\n    /* \"#utility.yul\":2468:2474   */\n  dup5\n    /* \"#utility.yul\":2462:2466   */\n  dup5\n    /* \"#utility.yul\":2418:2483   */\n  tag_40\n  jump\t// in\ntag_81:\n    /* \"#utility.yul\":2353:2489   */\n  pop\n    /* \"#utility.yul\":2300:2489   */\n  pop\n  pop\n  jump\t// out\n    /* \"#utility.yul\":2495:2681   */\ntag_43:\n    /* \"#utility.yul\":2555:2675   */\ntag_83:\n    /* \"#utility.yul\":2572:2575   */\n  dup2\n    /* \"#utility.yul\":2565:2570   */\n  dup2\n    /* \"#utility.yul\":2562:2576   */\n  lt\n    /* \"#utility.yul\":2555:2675   */\n  iszero\n  tag_85\n  jumpi\n    /* \"#utility.yul\":2626:2665   */\n  tag_86\n    /* \"#utility.yul\":2663:2664   */\n  0x00\n    /* \"#utility.yul\":2656:2661   */\n  dup3\n    /* \"#utility.yul\":2626:2665   */\n  tag_42\n  jump\t// in\ntag_86:\n    /* \"#utility.yul\":2599:2600   */\n  0x01\n    /* \"#utility.yul\":2592:2597   */\n  dup2\n    /* \"#utility.yul\":2588:2601   */\n  add\n    /* \"#utility.yul\":2579:2601   */\n  swap1\n  pop\n    /* \"#utility.yul\":2555:2675   */\n  jump(tag_83)\ntag_85:\n    /* \"#utility.yul\":2495:2681   */\n  pop\n  pop\n  jump\t// out\n    /* \"#utility.yul\":2687:3230   */\ntag_44:\n    /* \"#utility.yul\":2788:2790   */\n  0x1f\n    /* \"#utility.yul\":2783:2786   */\n  dup3\n    /* \"#utility.yul\":2780:2791   */\n  gt\n    /* \"#utility.yul\":2777:3223   */\n  iszero\n  tag_88\n  jumpi\n    /* \"#utility.yul\":2822:2860   */\n  tag_89\n    /* \"#utility.yul\":2854:2859   */\n  dup2\n    /* \"#utility.yul\":2822:2860   */\n  tag_32\n  jump\t// in\ntag_89:\n    /* \"#utility.yul\":2906:2935   */\n  tag_90\n    /* \"#utility.yul\":2924:2934   */\n  dup5\n    /* \"#utility.yul\":2906:2935   */\n  tag_33\n  jump\t// in\ntag_90:\n    /* \"#utility.yul\":2896:2904   */\n  dup2\n    /* \"#utility.yul\":2892:2936   */\n  add\n    /* \"#utility.yul\":3089:3091   */\n  0x20\n    /* \"#utility.yul\":3077:3087   */\n  dup6\n    /* \"#utility.yul\":3074:3092   */\n  lt\n    /* \"#utility.yul\":3071:3120   */\n  iszero\n  tag_91\n  jumpi\n    /* \"#utility.yul\":3110:3118   */\n  dup2\n    /* \"#utility.yul\":3095:3118   */\n  swap1\n  pop\n    /* \"#utility.yul\":3071:3120   */\ntag_91:\n    /* \"#utility.yul\":3133:3213   */\n  tag_92\n    /* \"#utility.yul\":3189:3211   */\n  tag_93\n    /* \"#utility.yul\":3207:3210   */\n  dup6\n    /* \"#utility.yul\":3189:3211   */\n  tag_33\n  jump\t// in\ntag_93:\n    /* \"#utility.yul\":3179:3187   */\n  dup4\n    /* \"#utility.yul\":3175:3212   */\n  add\n    /* \"#utility.yul\":3162:3173   */\n  dup3\n    /* \"#utility.yul\":3133:3213   */\n  tag_43\n  jump\t// in\ntag_92:\n    /* \"#utility.yul\":2792:3223   */\n  pop\n  pop\n    /* \"#utility.yul\":2777:3223   */\ntag_88:\n    /* \"#utility.yul\":2687:3230   */\n  pop\n  pop\n  pop\n  jump\t// out\n    /* \"#utility.yul\":3236:3353   */\ntag_45:\n    /* \"#utility.yul\":3290:3298   */\n  0x00\n    /* \"#utility.yul\":3340:3345   */\n  dup3\n    /* \"#utility.yul\":3334:3338   */\n  dup3\n    /* \"#utility.yul\":3330:3346   */\n  shr\n    /* \"#utility.yul\":3309:3346   */\n  swap1\n  pop\n    /* \"#utility.yul\":3236:3353   */\n  swap3\n  swap2\n  pop\n  pop\n  jump\t// out\n    /* \"#utility.yul\":3359:3528   */\ntag_46:\n    /* \"#utility.yul\":3403:3409   */\n  0x00\n    /* \"#utility.yul\":3436:3487   */\n  tag_96\n    /* \"#utility.yul\":3484:3485   */\n  0x00\n    /* \"#utility.yul\":3480:3486   */\n  not\n    /* \"#utility.yul\":3472:3477   */\n  dup5\n    /* \"#utility.yul\":3469:3470   */\n  0x08\n    /* \"#utility.yul\":3465:3478   */\n  mul\n    /* \"#utility.yul\":3436:3487   */\n  tag_45\n  jump\t// in\ntag_96:\n    /* \"#utility.yul\":3432:3488   */\n  not\n    /* \"#utility.yul\":3517:3521   */\n  dup1\n    /* \"#utility.yul\":3511:3515   */\n  dup4\n    /* \"#utility.yul\":3507:3522   */\n  and\n    /* \"#utility.yul\":3497:3522   */\n  swap2\n  pop\n    /* \"#utility.yul\":3410:3528   */\n  pop\n    /* \"#utility.yul\":3359:3528   */\n  swap3\n  swap2\n  pop\n  pop\n  jump\t// out\n    /* \"#utility.yul\":3533:3828   */\ntag_47:\n    /* \"#utility.yul\":3609:3613   */\n  0x00\n    /* \"#utility.yul\":3755:3784   */\n  tag_98\n    /* \"#utility.yul\":3780:3783   */\n  dup4\n    /* \"#utility.yul\":3774:3778   */\n  dup4\n    /* \"#utility.yul\":3755:3784   */\n  tag_46\n  jump\t// in\ntag_98:\n    /* \"#utility.yul\":3747:3784   */\n  swap2\n  pop\n    /* \"#utility.yul\":3817:3820   */\n  dup3\n    /* \"#utility.yul\":3814:3815   */\n  0x02\n    /* \"#utility.yul\":3810:3821   */\n  mul\n    /* \"#utility.yul\":3804:3808   */\n  dup3\n    /* \"#utility.yul\":3801:3822   */\n  or\n    /* \"#utility.yul\":3793:3822   */\n  swap1\n  pop\n    /* \"#utility.yul\":3533:3828   */\n  swap3\n  swap2\n  pop\n  pop\n  jump\t// out\n    /* \"#utility.yul\":3833:5228   */\ntag_6:\n    /* \"#utility.yul\":3950:3987   */\n  tag_100\n    /* \"#utility.yul\":3983:3986   */\n  dup3\n    /* \"#utility.yul\":3950:3987   */\n  tag_28\n  jump\t// in\ntag_100:\n    /* \"#utility.yul\":4052:4070   */\n  0xffffffffffffffff\n    /* \"#utility.yul\":4044:4050   */\n  dup2\n    /* \"#utility.yul\":4041:4071   */\n  gt\n    /* \"#utility.yul\":4038:4094   */\n  iszero\n  tag_101\n  jumpi\n    /* \"#utility.yul\":4074:4092   */\n  tag_102\n  tag_29\n  jump\t// in\ntag_102:\n    /* \"#utility.yul\":4038:4094   */\ntag_101:\n    /* \"#utility.yul\":4118:4156   */\n  tag_103\n    /* \"#utility.yul\":4150:4154   */\n  dup3\n    /* \"#utility.yul\":4144:4155   */\n  sload\n    /* \"#utility.yul\":4118:4156   */\n  tag_31\n  jump\t// in\ntag_103:\n    /* \"#utility.yul\":4203:4270   */\n  tag_104\n    /* \"#utility.yul\":4263:4269   */\n  dup3\n    /* \"#utility.yul\":4255:4261   */\n  dup3\n    /* \"#utility.yul\":4249:4253   */\n  dup6\n    /* \"#utility.yul\":4203:4270   */\n  tag_44\n  jump\t// in\ntag_104:\n    /* \"#utility.yul\":4297:4298   */\n  0x00\n    /* \"#utility.yul\":4321:4325   */\n  0x20\n    /* \"#utility.yul\":4308:4325   */\n  swap1\n  pop\n    /* \"#utility.yul\":4353:4355   */\n  0x1f\n    /* \"#utility.yul\":4345:4351   */\n  dup4\n    /* \"#utility.yul\":4342:4356   */\n  gt\n    /* \"#utility.yul\":4370:4371   */\n  0x01\n    /* \"#utility.yul\":4365:4983   */\n  dup2\n  eq\n  tag_106\n  jumpi\n    /* \"#utility.yul\":5027:5028   */\n  0x00\n    /* \"#utility.yul\":5044:5050   */\n  dup5\n    /* \"#utility.yul\":5041:5118   */\n  iszero\n  tag_107\n  jumpi\n    /* \"#utility.yul\":5093:5102   */\n  dup3\n    /* \"#utility.yul\":5088:5091   */\n  dup8\n    /* \"#utility.yul\":5084:5103   */\n  add\n    /* \"#utility.yul\":5078:5104   */\n  mload\n    /* \"#utility.yul\":5069:5104   */\n  swap1\n  pop\n    /* \"#utility.yul\":5041:5118   */\ntag_107:\n    /* \"#utility.yul\":5144:5211   */\n  tag_108\n    /* \"#utility.yul\":5204:5210   */\n  dup6\n    /* \"#utility.yul\":5197:5202   */\n  dup3\n    /* \"#utility.yul\":5144:5211   */\n  tag_47\n  jump\t// in\ntag_108:\n    /* \"#utility.yul\":5138:5142   */\n  dup7\n    /* \"#utility.yul\":5131:5212   */\n  sstore\n    /* \"#utility.yul\":5000:5222   */\n  pop\n    /* \"#utility.yul\":4335:5222   */\n  jump(tag_105)\n    /* \"#utility.yul\":4365:4983   */\ntag_106:\n    /* \"#utility.yul\":4417:4421   */\n  0x1f\n    /* \"#utility.yul\":4413:4422   */\n  not\n    /* \"#utility.yul\":4405:4411   */\n  dup5\n    /* \"#utility.yul\":4401:4423   */\n  and\n    /* \"#utility.yul\":4451:4488   */\n  tag_109\n    /* \"#utility.yul\":4483:4487   */\n  dup7\n    /* \"#utility.yul\":4451:4488   */\n  tag_32\n  jump\t// in\ntag_109:\n    /* \"#utility.yul\":4510:4511   */\n  0x00\n    /* \"#utility.yul\":4524:4732   */\ntag_110:\n    /* \"#utility.yul\":4538:4545   */\n  dup3\n    /* \"#utility.yul\":4535:4536   */\n  dup2\n    /* \"#utility.yul\":4532:4546   */\n  lt\n    /* \"#utility.yul\":4524:4732   */\n  iszero\n  tag_112\n  jumpi\n    /* \"#utility.yul\":4617:4626   */\n  dup5\n    /* \"#utility.yul\":4612:4615   */\n  dup10\n    /* \"#utility.yul\":4608:4627   */\n  add\n    /* \"#utility.yul\":4602:4628   */\n  mload\n    /* \"#utility.yul\":4594:4600   */\n  dup3\n    /* \"#utility.yul\":4587:4629   */\n  sstore\n    /* \"#utility.yul\":4668:4669   */\n  0x01\n    /* \"#utility.yul\":4660:4666   */\n  dup3\n    /* \"#utility.yul\":4656:4670   */\n  add\n    /* \"#utility.yul\":4646:4670   */\n  swap2\n  pop\n    /* \"#utility.yul\":4715:4717   */\n  0x20\n    /* \"#utility.yul\":4704:4713   */\n  dup6\n    /* \"#utility.yul\":4700:4718   */\n  add\n    /* \"#utility.yul\":4687:4718   */\n  swap5\n  pop\n    /* \"#utility.yul\":4561:4565   */\n  0x20\n    /* \"#utility.yul\":4558:4559   */\n  dup2\n    /* \"#utility.yul\":4554:4566   */\n  add\n    /* \"#utility.yul\":4549:4566   */\n  swap1\n  pop\n    /* \"#utility.yul\":4524:4732   */\n  jump(tag_110)\ntag_112:\n    /* \"#utility.yul\":4760:4766   */\n  dup7\n    /* \"#utility.yul\":4751:4758   */\n  dup4\n    /* \"#utility.yul\":4748:4767   */\n  lt\n    /* \"#utility.yul\":4745:4924   */\n  iszero\n  tag_113\n  jumpi\n    /* \"#utility.yul\":4818:4827   */\n  dup5\n    /* \"#utility.yul\":4813:4816   */\n  dup10\n    /* \"#utility.yul\":4809:4828   */\n  add\n    /* \"#utility.yul\":4803:4829   */\n  mload\n    /* \"#utility.yul\":4861:4909   */\n  tag_114\n    /* \"#utility.yul\":4903:4907   */\n  0x1f\n    /* \"#utility.yul\":4895:4901   */\n  dup10\n    /* \"#utility.yul\":4891:4908   */\n  and\n    /* \"#utility.yul\":4880:4889   */\n  dup3\n    /* \"#utility.yul\":4861:4909   */\n  tag_46\n  jump\t// in\ntag_114:\n    /* \"#utility.yul\":4853:4859   */\n  dup4\n    /* \"#utility.yul\":4846:4910   */\n  sstore\n    /* \"#utility.yul\":4768:4924   */\n  pop\n    /* \"#utility.yul\":4745:4924   */\ntag_113:\n    /* \"#utility.yul\":4970:4971   */\n  0x01\n    /* \"#utility.yul\":4966:4967   */\n  0x02\n    /* \"#utility.yul\":4958:4964   */\n  dup9\n    /* \"#utility.yul\":4954:4968   */\n  mul\n    /* \"#utility.yul\":4950:4972   */\n  add\n    /* \"#utility.yul\":4944:4948   */\n  dup9\n    /* \"#utility.yul\":4937:4973   */\n  sstore\n    /* \"#utility.yul\":4372:4983   */\n  pop\n  pop\n  pop\n    /* \"#utility.yul\":4335:5222   */\ntag_105:\n  pop\n    /* \"#utility.yul\":3925:5228   */\n  pop\n  pop\n  pop\n    /* \"#utility.yul\":3833:5228   */\n  pop\n  pop\n  jump\t// out\n    /* \"#utility.yul\":5234:5403   */\ntag_48:\n    /* \"#utility.yul\":5318:5329   */\n  0x00\n    /* \"#utility.yul\":5352:5358   */\n  dup3\n    /* \"#utility.yul\":5347:5350   */\n  dup3\n    /* \"#utility.yul\":5340:5359   */\n  mstore\n    /* \"#utility.yul\":5392:5396   */\n  0x20\n    /* \"#utility.yul\":5387:5390   */\n  dup3\n    /* \"#utility.yul\":5383:5397   */\n  add\n    /* \"#utility.yul\":5368:5397   */\n  swap1\n  pop\n    /* \"#utility.yul\":5234:5403   */\n  swap3\n  swap2\n  pop\n  pop\n  jump\t// out\n    /* \"#utility.yul\":5409:5590   */\ntag_49:\n    /* \"#utility.yul\":5549:5582   */\n  0x45524332303a206d696e7420746f20746865207a65726f206164647265737300\n    /* \"#utility.yul\":5545:5546   */\n  0x00\n    /* \"#utility.yul\":5537:5543   */\n  dup3\n    /* \"#utility.yul\":5533:5547   */\n  add\n    /* \"#utility.yul\":5526:5583   */\n  mstore\n    /* \"#utility.yul\":5409:5590   */\n  pop\n  jump\t// out\n    /* \"#utility.yul\":5596:5962   */\ntag_50:\n    /* \"#utility.yul\":5738:5741   */\n  0x00\n    /* \"#utility.yul\":5759:5826   */\n  tag_118\n    /* \"#utility.yul\":5823:5825   */\n  0x1f\n    /* \"#utility.yul\":5818:5821   */\n  dup4\n    /* \"#utility.yul\":5759:5826   */\n  tag_48\n  jump\t// in\ntag_118:\n    /* \"#utility.yul\":5752:5826   */\n  swap2\n  pop\n    /* \"#utility.yul\":5835:5928   */\n  tag_119\n    /* \"#utility.yul\":5924:5927   */\n  dup3\n    /* \"#utility.yul\":5835:5928   */\n  tag_49\n  jump\t// in\ntag_119:\n    /* \"#utility.yul\":5953:5955   */\n  0x20\n    /* \"#utility.yul\":5948:5951   */\n  dup3\n    /* \"#utility.yul\":5944:5956   */\n  add\n    /* \"#utility.yul\":5937:5956   */\n  swap1\n  pop\n    /* \"#utility.yul\":5596:5962   */\n  swap2\n  swap1\n  pop\n  jump\t// out\n    /* \"#utility.yul\":5968:6387   */\ntag_16:\n    /* \"#utility.yul\":6134:6138   */\n  0x00\n    /* \"#utility.yul\":6172:6174   */\n  0x20\n    /* \"#utility.yul\":6161:6170   */\n  dup3\n    /* \"#utility.yul\":6157:6175   */\n  add\n    /* \"#utility.yul\":6149:6175   */\n  swap1\n  pop\n    /* \"#utility.yul\":6221:6230   */\n  dup2\n    /* \"#utility.yul\":6215:6219   */\n  dup2\n    /* \"#utility.yul\":6211:6231   */\n  sub\n    /* \"#utility.yul\":6207:6208   */\n  0x00\n    /* \"#utility.yul\":6196:6205   */\n  dup4\n    /* \"#utility.yul\":6192:6209   */\n  add\n    /* \"#utility.yul\":6185:6232   */\n  mstore\n    /* \"#utility.yul\":6249:6380   */\n  tag_121\n    /* \"#utility.yul\":6375:6379   */\n  dup2\n    /* \"#utility.yul\":6249:6380   */\n  tag_50\n  jump\t// in\ntag_121:\n    /* \"#utility.yul\":6241:6380   */\n  swap1\n  pop\n    /* \"#utility.yul\":5968:6387   */\n  swap2\n  swap1\n  pop\n  jump\t// out\n    /* \"#utility.yul\":6393:6573   */\ntag_51:\n    /* \"#utility.yul\":6441:6518   */\n  0x4e487b7100000000000000000000000000000000000000000000000000000000\n    /* \"#utility.yul\":6438:6439   */\n  0x00\n    /* \"#utility.yul\":6431:6519   */\n  mstore\n    /* \"#utility.yul\":6538:6542   */\n  0x11\n    /* \"#utility.yul\":6535:6536   */\n  0x04\n    /* \"#utility.yul\":6528:6543   */\n  mstore\n    /* \"#utility.yul\":6562:6566   */\n  0x24\n    /* \"#utility.yul\":6559:6560   */\n  0x00\n    /* \"#utility.yul\":6552:6567   */\n  revert\n    /* \"#utility.yul\":6579:6770   */\ntag_20:\n    /* \"#utility.yul\":6619:6622   */\n  0x00\n    /* \"#utility.yul\":6638:6658   */\n  tag_124\n    /* \"#utility.yul\":6656:6657   */\n  dup3\n    /* \"#utility.yul\":6638:6658   */\n  tag_36\n  jump\t// in\ntag_124:\n    /* \"#utility.yul\":6633:6658   */\n  swap2\n  pop\n    /* \"#utility.yul\":6672:6692   */\n  tag_125\n    /* \"#utility.yul\":6690:6691   */\n  dup4\n    /* \"#utility.yul\":6672:6692   */\n  tag_36\n  jump\t// in\ntag_125:\n    /* \"#utility.yul\":6667:6692   */\n  swap3\n  pop\n    /* \"#utility.yul\":6715:6716   */\n  dup3\n    /* \"#utility.yul\":6712:6713   */\n  dup3\n    /* \"#utility.yul\":6708:6717   */\n  add\n    /* \"#utility.yul\":6701:6717   */\n  swap1\n  pop\n    /* \"#utility.yul\":6736:6739   */\n  dup1\n    /* \"#utility.yul\":6733:6734   */\n  dup3\n    /* \"#utility.yul\":6730:6740   */\n  gt\n    /* \"#utility.yul\":6727:6763   */\n  iszero\n  tag_126\n  jumpi\n    /* \"#utility.yul\":6743:6761   */\n  tag_127\n  tag_51\n  jump\t// in\ntag_127:\n    /* \"#utility.yul\":6727:6763   */\ntag_126:\n    /* \"#utility.yul\":6579:6770   */\n  swap3\n  swap2\n  pop\n  pop\n  jump\t// out\n    /* \"#utility.yul\":6776:6894   */\ntag_52:\n    /* \"#utility.yul\":6863:6887   */\n  tag_129\n    /* \"#utility.yul\":6881:6886   */\n  dup2\n    /* \"#utility.yul\":6863:6887   */\n  tag_36\n  jump\t// in\ntag_129:\n    /* \"#utility.yul\":6858:6861   */\n  dup3\n    /* \"#utility.yul\":6851:6888   */\n  mstore\n    /* \"#utility.yul\":6776:6894   */\n  pop\n  pop\n  jump\t// out\n    /* \"#utility.yul\":6900:7122   */\ntag_23:\n    /* \"#utility.yul\":6993:6997   */\n  0x00\n    /* \"#utility.yul\":7031:7033   */\n  0x20\n    /* \"#utility.yul\":7020:7029   */\n  dup3\n    /* \"#utility.yul\":7016:7034   */\n  add\n    /* \"#utility.yul\":7008:7034   */\n  swap1\n  pop\n    /* \"#utility.yul\":7044:7115   */\n  tag_131\n    /* \"#utility.yul\":7112:7113   */\n  0x00\n    /* \"#utility.yul\":7101:7110   */\n  dup4\n    /* \"#utility.yul\":7097:7114   */\n  add\n    /* \"#utility.yul\":7088:7094   */\n  dup5\n    /* \"#utility.yul\":7044:7115   */\n  tag_52\n  jump\t// in\ntag_131:\n    /* \"#utility.yul\":6900:7122   */\n  swap3\n  swap2\n  pop\n  pop\n  jump\t// out\n    /* \"contracts/Lottery.sol\":205:3312  contract Lottery is ERC20  {... */\ntag_12:\n  dataSize(sub_0)\n  dup1\n  dataOffset(sub_0)\n  0x00\n  codecopy\n  0x00\n  return\nstop\n\nsub_0: assembly {\n        /* \"contracts/Lottery.sol\":205:3312  contract Lottery is ERC20  {... */\n      mstore(0x40, 0x80)\n      jumpi(tag_1, lt(calldatasize, 0x04))\n      shr(0xe0, calldataload(0x00))\n      dup1\n      0x70a08231\n      gt\n      tag_20\n      jumpi\n      dup1\n      0xcbdd69b5\n      gt\n      tag_21\n      jumpi\n      dup1\n      0xcbdd69b5\n      eq\n      tag_15\n      jumpi\n      dup1\n      0xdd62ed3e\n      eq\n      tag_16\n      jumpi\n      dup1\n      0xe97dcb62\n      eq\n      tag_17\n      jumpi\n      dup1\n      0xf71d96cb\n      eq\n      tag_18\n      jumpi\n      dup1\n      0xf851a440\n      eq\n      tag_19\n      jumpi\n      jump(tag_2)\n    tag_21:\n      dup1\n      0x70a08231\n      eq\n      tag_11\n      jumpi\n      dup1\n      0x95d89b41\n      eq\n      tag_12\n      jumpi\n      dup1\n      0xa457c2d7\n      eq\n      tag_13\n      jumpi\n      dup1\n      0xa9059cbb\n      eq\n      tag_14\n      jumpi\n      jump(tag_2)\n    tag_20:\n      dup1\n      0x23b872dd\n      gt\n      tag_22\n      jumpi\n      dup1\n      0x23b872dd\n      eq\n      tag_7\n      jumpi\n      dup1\n      0x313ce567\n      eq\n      tag_8\n      jumpi\n      dup1\n      0x39509351\n      eq\n      tag_9\n      jumpi\n      dup1\n      0x5d495aea\n      eq\n      tag_10\n      jumpi\n      jump(tag_2)\n    tag_22:\n      dup1\n      0x06fdde03\n      eq\n      tag_3\n      jumpi\n      dup1\n      0x095ea7b3\n      eq\n      tag_4\n      jumpi\n      dup1\n      0x12065fe0\n      eq\n      tag_5\n      jumpi\n      dup1\n      0x18160ddd\n      eq\n      tag_6\n      jumpi\n      jump(tag_2)\n    tag_1:\n      jumpi(tag_2, calldatasize)\n        /* \"contracts/Lottery.sol\":1496:1505  0.1 ether */\n      0x016345785d8a0000\n        /* \"contracts/Lottery.sol\":1483:1492  msg.value */\n      callvalue\n        /* \"contracts/Lottery.sol\":1483:1505  msg.value == 0.1 ether */\n      eq\n        /* \"contracts/Lottery.sol\":1475:1537  require(msg.value == 0.1 ether , \"Must send 0.1 ether amount\") */\n      tag_25\n      jumpi\n      mload(0x40)\n      0x08c379a000000000000000000000000000000000000000000000000000000000\n      dup2\n      mstore\n      0x04\n      add\n      tag_26\n      swap1\n      tag_27\n      jump\t// in\n    tag_26:\n      mload(0x40)\n      dup1\n      swap2\n      sub\n      swap1\n      revert\n    tag_25:\n        /* \"contracts/Lottery.sol\":1629:1634  admin */\n      0x06\n      0x00\n      swap1\n      sload\n      swap1\n      0x0100\n      exp\n      swap1\n      div\n      0xffffffffffffffffffffffffffffffffffffffff\n      and\n        /* \"contracts/Lottery.sol\":1615:1634  msg.sender != admin */\n      0xffffffffffffffffffffffffffffffffffffffff\n      and\n        /* \"contracts/Lottery.sol\":1615:1625  msg.sender */\n      caller\n        /* \"contracts/Lottery.sol\":1615:1634  msg.sender != admin */\n      0xffffffffffffffffffffffffffffffffffffffff\n      and\n      sub\n        /* \"contracts/Lottery.sol\":1607:1635  require(msg.sender != admin) */\n      tag_28\n      jumpi\n      0x00\n      dup1\n      revert\n    tag_28:\n        /* \"contracts/Lottery.sol\":1732:1739  players */\n      0x05\n        /* \"contracts/Lottery.sol\":1753:1763  msg.sender */\n      caller\n        /* \"contracts/Lottery.sol\":1732:1765  players.push(payable(msg.sender)) */\n      swap1\n      dup1\n      0x01\n      dup2\n      sload\n      add\n      dup1\n      dup3\n      sstore\n      dup1\n      swap2\n      pop\n      pop\n      0x01\n      swap1\n      sub\n      swap1\n      0x00\n      mstore\n      keccak256(0x00, 0x20)\n      add\n      0x00\n      swap1\n      swap2\n      swap1\n      swap2\n      swap1\n      swap2\n      0x0100\n      exp\n      dup2\n      sload\n      dup2\n      0xffffffffffffffffffffffffffffffffffffffff\n      mul\n      not\n      and\n      swap1\n      dup4\n      0xffffffffffffffffffffffffffffffffffffffff\n      and\n      mul\n      or\n      swap1\n      sstore\n      stop\n        /* \"contracts/Lottery.sol\":205:3312  contract Lottery is ERC20  {... */\n    tag_2:\n      0x00\n      dup1\n      revert\n        /* \"@openzeppelin/contracts/token/ERC20/ERC20.sol\":2156:2254  function name() public view virtual override returns (string memory) {... */\n    tag_3:\n      callvalue\n      dup1\n      iszero\n      tag_30\n      jumpi\n      0x00\n      dup1\n      revert\n    tag_30:\n      pop\n      tag_31\n      tag_32\n      jump\t// in\n    tag_31:\n      mload(0x40)\n      tag_33\n      swap2\n      swap1\n      tag_34\n      jump\t// in\n    tag_33:\n      mload(0x40)\n      dup1\n      swap2\n      sub\n      swap1\n      return\n        /* \"@openzeppelin/contracts/token/ERC20/ERC20.sol\":4433:4630  function approve(address spender, uint256 amount) public virtual override returns (bool) {... */\n    tag_4:\n      callvalue\n      dup1\n      iszero\n      tag_35\n      jumpi\n      0x00\n      dup1\n      revert\n    tag_35:\n      pop\n      tag_36\n      0x04\n      dup1\n      calldatasize\n      sub\n      dup2\n      add\n      swap1\n      tag_37\n      swap2\n      swap1\n      tag_38\n      jump\t// in\n    tag_37:\n      tag_39\n      jump\t// in\n    tag_36:\n      mload(0x40)\n      tag_40\n      swap2\n      swap1\n      tag_41\n      jump\t// in\n    tag_40:\n      mload(0x40)\n      dup1\n      swap2\n      sub\n      swap1\n      return\n        /* \"contracts/Lottery.sol\":1861:2012  function getBalance() public view returns(uint){... */\n    tag_5:\n      callvalue\n      dup1\n      iszero\n      tag_42\n      jumpi\n      0x00\n      dup1\n      revert\n    tag_42:\n      pop\n      tag_43\n      tag_44\n      jump\t// in\n    tag_43:\n      mload(0x40)\n      tag_45\n      swap2\n      swap1\n      tag_46\n      jump\t// in\n    tag_45:\n      mload(0x40)\n      dup1\n      swap2\n      sub\n      swap1\n      return\n        /* \"@openzeppelin/contracts/token/ERC20/ERC20.sol\":3244:3350  function totalSupply() public view virtual override returns (uint256) {... */\n    tag_6:\n      callvalue\n      dup1\n      iszero\n      tag_47\n      jumpi\n      0x00\n      dup1\n      revert\n    tag_47:\n      pop\n      tag_48\n      tag_49\n      jump\t// in\n    tag_48:\n      mload(0x40)\n      tag_50\n      swap2\n      swap1\n      tag_46\n      jump\t// in\n    tag_50:\n      mload(0x40)\n      dup1\n      swap2\n      sub\n      swap1\n      return\n        /* \"@openzeppelin/contracts/token/ERC20/ERC20.sol\":5192:5478  function transferFrom(... */\n    tag_7:\n      callvalue\n      dup1\n      iszero\n      tag_51\n      jumpi\n      0x00\n      dup1\n      revert\n    tag_51:\n      pop\n      tag_52\n      0x04\n      dup1\n      calldatasize\n      sub\n      dup2\n      add\n      swap1\n      tag_53\n      swap2\n      swap1\n      tag_54\n      jump\t// in\n    tag_53:\n      tag_55\n      jump\t// in\n    tag_52:\n      mload(0x40)\n      tag_56\n      swap2\n      swap1\n      tag_41\n      jump\t// in\n    tag_56:\n      mload(0x40)\n      dup1\n      swap2\n      sub\n      swap1\n      return\n        /* \"@openzeppelin/contracts/token/ERC20/ERC20.sol\":3093:3184  function decimals() public view virtual override returns (uint8) {... */\n    tag_8:\n      callvalue\n      dup1\n      iszero\n      tag_57\n      jumpi\n      0x00\n      dup1\n      revert\n    tag_57:\n      pop\n      tag_58\n      tag_59\n      jump\t// in\n    tag_58:\n      mload(0x40)\n      tag_60\n      swap2\n      swap1\n      tag_61\n      jump\t// in\n    tag_60:\n      mload(0x40)\n      dup1\n      swap2\n      sub\n      swap1\n      return\n        /* \"@openzeppelin/contracts/token/ERC20/ERC20.sol\":5873:6107  function increaseAllowance(address spender, uint256 addedValue) public virtual returns (bool) {... */\n    tag_9:\n      callvalue\n      dup1\n      iszero\n      tag_62\n      jumpi\n      0x00\n      dup1\n      revert\n    tag_62:\n      pop\n      tag_63\n      0x04\n      dup1\n      calldatasize\n      sub\n      dup2\n      add\n      swap1\n      tag_64\n      swap2\n      swap1\n      tag_38\n      jump\t// in\n    tag_64:\n      tag_65\n      jump\t// in\n    tag_63:\n      mload(0x40)\n      tag_66\n      swap2\n      swap1\n      tag_41\n      jump\t// in\n    tag_66:\n      mload(0x40)\n      dup1\n      swap2\n      sub\n      swap1\n      return\n        /* \"contracts/Lottery.sol\":2399:3141  function pickWinner() public onlyOwner {... */\n    tag_10:\n      callvalue\n      dup1\n      iszero\n      tag_67\n      jumpi\n      0x00\n      dup1\n      revert\n    tag_67:\n      pop\n      tag_68\n      tag_69\n      jump\t// in\n    tag_68:\n      stop\n        /* \"@openzeppelin/contracts/token/ERC20/ERC20.sol\":3408:3533  function balanceOf(address account) public view virtual override returns (uint256) {... */\n    tag_11:\n      callvalue\n      dup1\n      iszero\n      tag_70\n      jumpi\n      0x00\n      dup1\n      revert\n    tag_70:\n      pop\n      tag_71\n      0x04\n      dup1\n      calldatasize\n      sub\n      dup2\n      add\n      swap1\n      tag_72\n      swap2\n      swap1\n      tag_73\n      jump\t// in\n    tag_72:\n      tag_74\n      jump\t// in\n    tag_71:\n      mload(0x40)\n      tag_75\n      swap2\n      swap1\n      tag_46\n      jump\t// in\n    tag_75:\n      mload(0x40)\n      dup1\n      swap2\n      sub\n      swap1\n      return\n        /* \"@openzeppelin/contracts/token/ERC20/ERC20.sol\":2367:2469  function symbol() public view virtual override returns (string memory) {... */\n    tag_12:\n      callvalue\n      dup1\n      iszero\n      tag_76\n      jumpi\n      0x00\n      dup1\n      revert\n    tag_76:\n      pop\n      tag_77\n      tag_78\n      jump\t// in\n    tag_77:\n      mload(0x40)\n      tag_79\n      swap2\n      swap1\n      tag_34\n      jump\t// in\n    tag_79:\n      mload(0x40)\n      dup1\n      swap2\n      sub\n      swap1\n      return\n        /* \"@openzeppelin/contracts/token/ERC20/ERC20.sol\":6594:7021  function decreaseAllowance(address spender, uint256 subtractedValue) public virtual returns (bool) {... */\n    tag_13:\n      callvalue\n      dup1\n      iszero\n      tag_80\n      jumpi\n      0x00\n      dup1\n      revert\n    tag_80:\n      pop\n      tag_81\n      0x04\n      dup1\n      calldatasize\n      sub\n      dup2\n      add\n      swap1\n      tag_82\n      swap2\n      swap1\n      tag_38\n      jump\t// in\n    tag_82:\n      tag_83\n      jump\t// in\n    tag_81:\n      mload(0x40)\n      tag_84\n      swap2\n      swap1\n      tag_41\n      jump\t// in\n    tag_84:\n      mload(0x40)\n      dup1\n      swap2\n      sub\n      swap1\n      return\n        /* \"@openzeppelin/contracts/token/ERC20/ERC20.sol\":3729:3918  function transfer(address to, uint256 amount) public virtual override returns (bool) {... */\n    tag_14:\n      callvalue\n      dup1\n      iszero\n      tag_85\n      jumpi\n      0x00\n      dup1\n      revert\n    tag_85:\n      pop\n      tag_86\n      0x04\n      dup1\n      calldatasize\n      sub\n      dup2\n      add\n      swap1\n      tag_87\n      swap2\n      swap1\n      tag_38\n      jump\t// in\n    tag_87:\n      tag_88\n      jump\t// in\n    tag_86:\n      mload(0x40)\n      tag_89\n      swap2\n      swap1\n      tag_41\n      jump\t// in\n    tag_89:\n      mload(0x40)\n      dup1\n      swap2\n      sub\n      swap1\n      return\n        /* \"contracts/Lottery.sol\":365:397  uint256 public tokensPerEth = 10 */\n    tag_15:\n      callvalue\n      dup1\n      iszero\n      tag_90\n      jumpi\n      0x00\n      dup1\n      revert\n    tag_90:\n      pop\n      tag_91\n      tag_92\n      jump\t// in\n    tag_91:\n      mload(0x40)\n      tag_93\n      swap2\n      swap1\n      tag_46\n      jump\t// in\n    tag_93:\n      mload(0x40)\n      dup1\n      swap2\n      sub\n      swap1\n      return\n        /* \"@openzeppelin/contracts/token/ERC20/ERC20.sol\":3976:4125  function allowance(address owner, address spender) public view virtual override returns (uint256) {... */\n    tag_16:\n      callvalue\n      dup1\n      iszero\n      tag_94\n      jumpi\n      0x00\n      dup1\n      revert\n    tag_94:\n      pop\n      tag_95\n      0x04\n      dup1\n      calldatasize\n      sub\n      dup2\n      add\n      swap1\n      tag_96\n      swap2\n      swap1\n      tag_97\n      jump\t// in\n    tag_96:\n      tag_98\n      jump\t// in\n    tag_95:\n      mload(0x40)\n      tag_99\n      swap2\n      swap1\n      tag_46\n      jump\t// in\n    tag_99:\n      mload(0x40)\n      dup1\n      swap2\n      sub\n      swap1\n      return\n        /* \"contracts/Lottery.sol\":989:1292  function enter() public payable{... */\n    tag_17:\n      tag_100\n      tag_101\n      jump\t// in\n    tag_100:\n      stop\n        /* \"contracts/Lottery.sol\":278:310  address payable[] public players */\n    tag_18:\n      callvalue\n      dup1\n      iszero\n      tag_102\n      jumpi\n      0x00\n      dup1\n      revert\n    tag_102:\n      pop\n      tag_103\n      0x04\n      dup1\n      calldatasize\n      sub\n      dup2\n      add\n      swap1\n      tag_104\n      swap2\n      swap1\n      tag_105\n      jump\t// in\n    tag_104:\n      tag_106\n      jump\t// in\n    tag_103:\n      mload(0x40)\n      tag_107\n      swap2\n      swap1\n      tag_108\n      jump\t// in\n    tag_107:\n      mload(0x40)\n      dup1\n      swap2\n      sub\n      swap1\n      return\n        /* \"contracts/Lottery.sol\":339:359  address public admin */\n    tag_19:\n      callvalue\n      dup1\n      iszero\n      tag_109\n      jumpi\n      0x00\n      dup1\n      revert\n    tag_109:\n      pop\n      tag_110\n      tag_111\n      jump\t// in\n    tag_110:\n      mload(0x40)\n      tag_112\n      swap2\n      swap1\n      tag_113\n      jump\t// in\n    tag_112:\n      mload(0x40)\n      dup1\n      swap2\n      sub\n      swap1\n      return\n        /* \"@openzeppelin/contracts/token/ERC20/ERC20.sol\":2156:2254  function name() public view virtual override returns (string memory) {... */\n    tag_32:\n        /* \"@openzeppelin/contracts/token/ERC20/ERC20.sol\":2210:2223  string memory */\n      0x60\n        /* \"@openzeppelin/contracts/token/ERC20/ERC20.sol\":2242:2247  _name */\n      0x03\n        /* \"@openzeppelin/contracts/token/ERC20/ERC20.sol\":2235:2247  return _name */\n      dup1\n      sload\n      tag_115\n      swap1\n      tag_116\n      jump\t// in\n    tag_115:\n      dup1\n      0x1f\n      add\n      0x20\n      dup1\n      swap2\n      div\n      mul\n      0x20\n      add\n      mload(0x40)\n      swap1\n      dup2\n      add\n      0x40\n      mstore\n      dup1\n      swap3\n      swap2\n      swap1\n      dup2\n      dup2\n      mstore\n      0x20\n      add\n      dup3\n      dup1\n      sload\n      tag_117\n      swap1\n      tag_116\n      jump\t// in\n    tag_117:\n      dup1\n      iszero\n      tag_118\n      jumpi\n      dup1\n      0x1f\n      lt\n      tag_119\n      jumpi\n      0x0100\n      dup1\n      dup4\n      sload\n      div\n      mul\n      dup4\n      mstore\n      swap2\n      0x20\n      add\n      swap2\n      jump(tag_118)\n    tag_119:\n      dup3\n      add\n      swap2\n      swap1\n      0x00\n      mstore\n      keccak256(0x00, 0x20)\n      swap1\n    tag_120:\n      dup2\n      sload\n      dup2\n      mstore\n      swap1\n      0x01\n      add\n      swap1\n      0x20\n      add\n      dup1\n      dup4\n      gt\n      tag_120\n      jumpi\n      dup3\n      swap1\n      sub\n      0x1f\n      and\n      dup3\n      add\n      swap2\n    tag_118:\n      pop\n      pop\n      pop\n      pop\n      pop\n      swap1\n      pop\n        /* \"@openzeppelin/contracts/token/ERC20/ERC20.sol\":2156:2254  function name() public view virtual override returns (string memory) {... */\n      swap1\n      jump\t// out\n        /* \"@openzeppelin/contracts/token/ERC20/ERC20.sol\":4433:4630  function approve(address spender, uint256 amount) public virtual override returns (bool) {... */\n    tag_39:\n        /* \"@openzeppelin/contracts/token/ERC20/ERC20.sol\":4516:4520  bool */\n      0x00\n        /* \"@openzeppelin/contracts/token/ERC20/ERC20.sol\":4532:4545  address owner */\n      dup1\n        /* \"@openzeppelin/contracts/token/ERC20/ERC20.sol\":4548:4560  _msgSender() */\n      tag_122\n        /* \"@openzeppelin/contracts/token/ERC20/ERC20.sol\":4548:4558  _msgSender */\n      tag_123\n        /* \"@openzeppelin/contracts/token/ERC20/ERC20.sol\":4548:4560  _msgSender() */\n      jump\t// in\n    tag_122:\n        /* \"@openzeppelin/contracts/token/ERC20/ERC20.sol\":4532:4560  address owner = _msgSender() */\n      swap1\n      pop\n        /* \"@openzeppelin/contracts/token/ERC20/ERC20.sol\":4570:4602  _approve(owner, spender, amount) */\n      tag_124\n        /* \"@openzeppelin/contracts/token/ERC20/ERC20.sol\":4579:4584  owner */\n      dup2\n        /* \"@openzeppelin/contracts/token/ERC20/ERC20.sol\":4586:4593  spender */\n      dup6\n        /* \"@openzeppelin/contracts/token/ERC20/ERC20.sol\":4595:4601  amount */\n      dup6\n        /* \"@openzeppelin/contracts/token/ERC20/ERC20.sol\":4570:4578  _approve */\n      tag_125\n        /* \"@openzeppelin/contracts/token/ERC20/ERC20.sol\":4570:4602  _approve(owner, spender, amount) */\n      jump\t// in\n    tag_124:\n        /* \"@openzeppelin/contracts/token/ERC20/ERC20.sol\":4619:4623  true */\n      0x01\n        /* \"@openzeppelin/contracts/token/ERC20/ERC20.sol\":4612:4623  return true */\n      swap2\n      pop\n      pop\n        /* \"@openzeppelin/contracts/token/ERC20/ERC20.sol\":4433:4630  function approve(address spender, uint256 amount) public virtual override returns (bool) {... */\n      swap3\n      swap2\n      pop\n      pop\n      jump\t// out\n        /* \"contracts/Lottery.sol\":1861:2012  function getBalance() public view returns(uint){... */\n    tag_44:\n        /* \"contracts/Lottery.sol\":1903:1907  uint */\n      0x00\n        /* \"contracts/Lottery.sol\":1984:2005  address(this).balance */\n      selfbalance\n        /* \"contracts/Lottery.sol\":1977:2005  return address(this).balance */\n      swap1\n      pop\n        /* \"contracts/Lottery.sol\":1861:2012  function getBalance() public view returns(uint){... */\n      swap1\n      jump\t// out\n        /* \"@openzeppelin/contracts/token/ERC20/ERC20.sol\":3244:3350  function totalSupply() public view virtual override returns (uint256) {... */\n    tag_49:\n        /* \"@openzeppelin/contracts/token/ERC20/ERC20.sol\":3305:3312  uint256 */\n      0x00\n        /* \"@openzeppelin/contracts/token/ERC20/ERC20.sol\":3331:3343  _totalSupply */\n      sload(0x02)\n        /* \"@openzeppelin/contracts/token/ERC20/ERC20.sol\":3324:3343  return _totalSupply */\n      swap1\n      pop\n        /* \"@openzeppelin/contracts/token/ERC20/ERC20.sol\":3244:3350  function totalSupply() public view virtual override returns (uint256) {... */\n      swap1\n      jump\t// out\n        /* \"@openzeppelin/contracts/token/ERC20/ERC20.sol\":5192:5478  function transferFrom(... */\n    tag_55:\n        /* \"@openzeppelin/contracts/token/ERC20/ERC20.sol\":5319:5323  bool */\n      0x00\n        /* \"@openzeppelin/contracts/token/ERC20/ERC20.sol\":5335:5350  address spender */\n      dup1\n        /* \"@openzeppelin/contracts/token/ERC20/ERC20.sol\":5353:5365  _msgSender() */\n      tag_129\n        /* \"@openzeppelin/contracts/token/ERC20/ERC20.sol\":5353:5363  _msgSender */\n      tag_123\n        /* \"@openzeppelin/contracts/token/ERC20/ERC20.sol\":5353:5365  _msgSender() */\n      jump\t// in\n    tag_129:\n        /* \"@openzeppelin/contracts/token/ERC20/ERC20.sol\":5335:5365  address spender = _msgSender() */\n      swap1\n      pop\n        /* \"@openzeppelin/contracts/token/ERC20/ERC20.sol\":5375:5413  _spendAllowance(from, spender, amount) */\n      tag_130\n        /* \"@openzeppelin/contracts/token/ERC20/ERC20.sol\":5391:5395  from */\n      dup6\n        /* \"@openzeppelin/contracts/token/ERC20/ERC20.sol\":5397:5404  spender */\n      dup3\n        /* \"@openzeppelin/contracts/token/ERC20/ERC20.sol\":5406:5412  amount */\n      dup6\n        /* \"@openzeppelin/contracts/token/ERC20/ERC20.sol\":5375:5390  _spendAllowance */\n      tag_131\n        /* \"@openzeppelin/contracts/token/ERC20/ERC20.sol\":5375:5413  _spendAllowance(from, spender, amount) */\n      jump\t// in\n    tag_130:\n        /* \"@openzeppelin/contracts/token/ERC20/ERC20.sol\":5423:5450  _transfer(from, to, amount) */\n      tag_132\n        /* \"@openzeppelin/contracts/token/ERC20/ERC20.sol\":5433:5437  from */\n      dup6\n        /* \"@openzeppelin/contracts/token/ERC20/ERC20.sol\":5439:5441  to */\n      dup6\n        /* \"@openzeppelin/contracts/token/ERC20/ERC20.sol\":5443:5449  amount */\n      dup6\n        /* \"@openzeppelin/contracts/token/ERC20/ERC20.sol\":5423:5432  _transfer */\n      tag_133\n        /* \"@openzeppelin/contracts/token/ERC20/ERC20.sol\":5423:5450  _transfer(from, to, amount) */\n      jump\t// in\n    tag_132:\n        /* \"@openzeppelin/contracts/token/ERC20/ERC20.sol\":5467:5471  true */\n      0x01\n        /* \"@openzeppelin/contracts/token/ERC20/ERC20.sol\":5460:5471  return true */\n      swap2\n      pop\n      pop\n        /* \"@openzeppelin/contracts/token/ERC20/ERC20.sol\":5192:5478  function transferFrom(... */\n      swap4\n      swap3\n      pop\n      pop\n      pop\n      jump\t// out\n        /* \"@openzeppelin/contracts/token/ERC20/ERC20.sol\":3093:3184  function decimals() public view virtual override returns (uint8) {... */\n    tag_59:\n        /* \"@openzeppelin/contracts/token/ERC20/ERC20.sol\":3151:3156  uint8 */\n      0x00\n        /* \"@openzeppelin/contracts/token/ERC20/ERC20.sol\":3175:3177  18 */\n      0x12\n        /* \"@openzeppelin/contracts/token/ERC20/ERC20.sol\":3168:3177  return 18 */\n      swap1\n      pop\n        /* \"@openzeppelin/contracts/token/ERC20/ERC20.sol\":3093:3184  function decimals() public view virtual override returns (uint8) {... */\n      swap1\n      jump\t// out\n        /* \"@openzeppelin/contracts/token/ERC20/ERC20.sol\":5873:6107  function increaseAllowance(address spender, uint256 addedValue) public virtual returns (bool) {... */\n    tag_65:\n        /* \"@openzeppelin/contracts/token/ERC20/ERC20.sol\":5961:5965  bool */\n      0x00\n        /* \"@openzeppelin/contracts/token/ERC20/ERC20.sol\":5977:5990  address owner */\n      dup1\n        /* \"@openzeppelin/contracts/token/ERC20/ERC20.sol\":5993:6005  _msgSender() */\n      tag_136\n        /* \"@openzeppelin/contracts/token/ERC20/ERC20.sol\":5993:6003  _msgSender */\n      tag_123\n        /* \"@openzeppelin/contracts/token/ERC20/ERC20.sol\":5993:6005  _msgSender() */\n      jump\t// in\n    tag_136:\n        /* \"@openzeppelin/contracts/token/ERC20/ERC20.sol\":5977:6005  address owner = _msgSender() */\n      swap1\n      pop\n        /* \"@openzeppelin/contracts/token/ERC20/ERC20.sol\":6015:6079  _approve(owner, spender, allowance(owner, spender) + addedValue) */\n      tag_137\n        /* \"@openzeppelin/contracts/token/ERC20/ERC20.sol\":6024:6029  owner */\n      dup2\n        /* \"@openzeppelin/contracts/token/ERC20/ERC20.sol\":6031:6038  spender */\n      dup6\n        /* \"@openzeppelin/contracts/token/ERC20/ERC20.sol\":6068:6078  addedValue */\n      dup6\n        /* \"@openzeppelin/contracts/token/ERC20/ERC20.sol\":6040:6065  allowance(owner, spender) */\n      tag_138\n        /* \"@openzeppelin/contracts/token/ERC20/ERC20.sol\":6050:6055  owner */\n      dup6\n        /* \"@openzeppelin/contracts/token/ERC20/ERC20.sol\":6057:6064  spender */\n      dup10\n        /* \"@openzeppelin/contracts/token/ERC20/ERC20.sol\":6040:6049  allowance */\n      tag_98\n        /* \"@openzeppelin/contracts/token/ERC20/ERC20.sol\":6040:6065  allowance(owner, spender) */\n      jump\t// in\n    tag_138:\n        /* \"@openzeppelin/contracts/token/ERC20/ERC20.sol\":6040:6078  allowance(owner, spender) + addedValue */\n      tag_139\n      swap2\n      swap1\n      tag_140\n      jump\t// in\n    tag_139:\n        /* \"@openzeppelin/contracts/token/ERC20/ERC20.sol\":6015:6023  _approve */\n      tag_125\n        /* \"@openzeppelin/contracts/token/ERC20/ERC20.sol\":6015:6079  _approve(owner, spender, allowance(owner, spender) + addedValue) */\n      jump\t// in\n    tag_137:\n        /* \"@openzeppelin/contracts/token/ERC20/ERC20.sol\":6096:6100  true */\n      0x01\n        /* \"@openzeppelin/contracts/token/ERC20/ERC20.sol\":6089:6100  return true */\n      swap2\n      pop\n      pop\n        /* \"@openzeppelin/contracts/token/ERC20/ERC20.sol\":5873:6107  function increaseAllowance(address spender, uint256 addedValue) public virtual returns (bool) {... */\n      swap3\n      swap2\n      pop\n      pop\n      jump\t// out\n        /* \"contracts/Lottery.sol\":2399:3141  function pickWinner() public onlyOwner {... */\n    tag_69:\n        /* \"contracts/Lottery.sol\":863:873  msg.sender */\n      caller\n        /* \"contracts/Lottery.sol\":854:873  admin == msg.sender */\n      0xffffffffffffffffffffffffffffffffffffffff\n      and\n        /* \"contracts/Lottery.sol\":854:859  admin */\n      0x06\n      0x00\n      swap1\n      sload\n      swap1\n      0x0100\n      exp\n      swap1\n      div\n      0xffffffffffffffffffffffffffffffffffffffff\n      and\n        /* \"contracts/Lottery.sol\":854:873  admin == msg.sender */\n      0xffffffffffffffffffffffffffffffffffffffff\n      and\n      eq\n        /* \"contracts/Lottery.sol\":846:899  require(admin == msg.sender, \"You are not the owner\") */\n      tag_142\n      jumpi\n      mload(0x40)\n      0x08c379a000000000000000000000000000000000000000000000000000000000\n      dup2\n      mstore\n      0x04\n      add\n      tag_143\n      swap1\n      tag_144\n      jump\t// in\n    tag_143:\n      mload(0x40)\n      dup1\n      swap2\n      sub\n      swap1\n      revert\n    tag_142:\n        /* \"contracts/Lottery.sol\":2547:2548  3 */\n      0x03\n        /* \"contracts/Lottery.sol\":2529:2536  players */\n      0x05\n        /* \"contracts/Lottery.sol\":2529:2543  players.length */\n      dup1\n      sload\n      swap1\n      pop\n        /* \"contracts/Lottery.sol\":2529:2548  players.length >= 3 */\n      lt\n      iszero\n        /* \"contracts/Lottery.sol\":2521:2587  require(players.length >= 3 , \"Not enough players in the lottery\") */\n      tag_146\n      jumpi\n      mload(0x40)\n      0x08c379a000000000000000000000000000000000000000000000000000000000\n      dup2\n      mstore\n      0x04\n      add\n      tag_147\n      swap1\n      tag_148\n      jump\t// in\n    tag_147:\n      mload(0x40)\n      dup1\n      swap2\n      sub\n      swap1\n      revert\n    tag_146:\n        /* \"contracts/Lottery.sol\":2597:2619  address payable winner */\n      0x00\n        /* \"contracts/Lottery.sol\":2680:2687  players */\n      0x05\n        /* \"contracts/Lottery.sol\":2699:2706  players */\n      dup1\n        /* \"contracts/Lottery.sol\":2699:2713  players.length */\n      dup1\n      sload\n      swap1\n      pop\n        /* \"contracts/Lottery.sol\":2688:2696  random() */\n      tag_149\n        /* \"contracts/Lottery.sol\":2688:2694  random */\n      tag_150\n        /* \"contracts/Lottery.sol\":2688:2696  random() */\n      jump\t// in\n    tag_149:\n        /* \"contracts/Lottery.sol\":2688:2713  random() % players.length */\n      tag_151\n      swap2\n      swap1\n      tag_152\n      jump\t// in\n    tag_151:\n        /* \"contracts/Lottery.sol\":2680:2714  players[random() % players.length] */\n      dup2\n      sload\n      dup2\n      lt\n      tag_153\n      jumpi\n      tag_154\n      tag_155\n      jump\t// in\n    tag_154:\n    tag_153:\n      swap1\n      0x00\n      mstore\n      keccak256(0x00, 0x20)\n      add\n      0x00\n      swap1\n      sload\n      swap1\n      0x0100\n      exp\n      swap1\n      div\n      0xffffffffffffffffffffffffffffffffffffffff\n      and\n        /* \"contracts/Lottery.sol\":2671:2714  winner = players[random() % players.length] */\n      swap1\n      pop\n        /* \"contracts/Lottery.sol\":2796:2802  winner */\n      dup1\n        /* \"contracts/Lottery.sol\":2796:2811  winner.transfer */\n      0xffffffffffffffffffffffffffffffffffffffff\n      and\n        /* \"contracts/Lottery.sol\":2796:2838  winner.transfer((getBalance() * 90) / 100) */\n      0x08fc\n        /* \"contracts/Lottery.sol\":2834:2837  100 */\n      0x64\n        /* \"contracts/Lottery.sol\":2828:2830  90 */\n      0x5a\n        /* \"contracts/Lottery.sol\":2813:2825  getBalance() */\n      tag_157\n        /* \"contracts/Lottery.sol\":2813:2823  getBalance */\n      tag_44\n        /* \"contracts/Lottery.sol\":2813:2825  getBalance() */\n      jump\t// in\n    tag_157:\n        /* \"contracts/Lottery.sol\":2813:2830  getBalance() * 90 */\n      tag_158\n      swap2\n      swap1\n      tag_159\n      jump\t// in\n    tag_158:\n        /* \"contracts/Lottery.sol\":2812:2837  (getBalance() * 90) / 100 */\n      tag_160\n      swap2\n      swap1\n      tag_161\n      jump\t// in\n    tag_160:\n        /* \"contracts/Lottery.sol\":2796:2838  winner.transfer((getBalance() * 90) / 100) */\n      swap1\n      dup2\n      iszero\n      mul\n      swap1\n      mload(0x40)\n      0x00\n      mload(0x40)\n      dup1\n      dup4\n      sub\n      dup2\n      dup6\n      dup9\n      dup9\n      call\n      swap4\n      pop\n      pop\n      pop\n      pop\n      iszero\n      dup1\n      iszero\n      tag_163\n      jumpi\n      returndatasize\n      0x00\n      dup1\n      returndatacopy\n      revert(0x00, returndatasize)\n    tag_163:\n      pop\n        /* \"contracts/Lottery.sol\":2941:2946  admin */\n      0x06\n      0x00\n      swap1\n      sload\n      swap1\n      0x0100\n      exp\n      swap1\n      div\n      0xffffffffffffffffffffffffffffffffffffffff\n      and\n        /* \"contracts/Lottery.sol\":2933:2956  payable(admin).transfer */\n      0xffffffffffffffffffffffffffffffffffffffff\n      and\n        /* \"contracts/Lottery.sol\":2933:2984  payable(admin).transfer( (getBalance() * 10) / 100) */\n      0x08fc\n        /* \"contracts/Lottery.sol\":2980:2983  100 */\n      0x64\n        /* \"contracts/Lottery.sol\":2974:2976  10 */\n      0x0a\n        /* \"contracts/Lottery.sol\":2959:2971  getBalance() */\n      tag_164\n        /* \"contracts/Lottery.sol\":2959:2969  getBalance */\n      tag_44\n        /* \"contracts/Lottery.sol\":2959:2971  getBalance() */\n      jump\t// in\n    tag_164:\n        /* \"contracts/Lottery.sol\":2959:2976  getBalance() * 10 */\n      tag_165\n      swap2\n      swap1\n      tag_159\n      jump\t// in\n    tag_165:\n        /* \"contracts/Lottery.sol\":2958:2983  (getBalance() * 10) / 100 */\n      tag_166\n      swap2\n      swap1\n      tag_161\n      jump\t// in\n    tag_166:\n        /* \"contracts/Lottery.sol\":2933:2984  payable(admin).transfer( (getBalance() * 10) / 100) */\n      swap1\n      dup2\n      iszero\n      mul\n      swap1\n      mload(0x40)\n      0x00\n      mload(0x40)\n      dup1\n      dup4\n      sub\n      dup2\n      dup6\n      dup9\n      dup9\n      call\n      swap4\n      pop\n      pop\n      pop\n      pop\n      iszero\n      dup1\n      iszero\n      tag_168\n      jumpi\n      returndatasize\n      0x00\n      dup1\n      returndatacopy\n      revert(0x00, returndatasize)\n    tag_168:\n      pop\n        /* \"contracts/Lottery.sol\":3110:3124  resetLottery() */\n      tag_169\n        /* \"contracts/Lottery.sol\":3110:3122  resetLottery */\n      tag_170\n        /* \"contracts/Lottery.sol\":3110:3124  resetLottery() */\n      jump\t// in\n    tag_169:\n        /* \"contracts/Lottery.sol\":2438:3141  {... */\n      pop\n        /* \"contracts/Lottery.sol\":2399:3141  function pickWinner() public onlyOwner {... */\n      jump\t// out\n        /* \"@openzeppelin/contracts/token/ERC20/ERC20.sol\":3408:3533  function balanceOf(address account) public view virtual override returns (uint256) {... */\n    tag_74:\n        /* \"@openzeppelin/contracts/token/ERC20/ERC20.sol\":3482:3489  uint256 */\n      0x00\n        /* \"@openzeppelin/contracts/token/ERC20/ERC20.sol\":3508:3517  _balances */\n      dup1\n        /* \"@openzeppelin/contracts/token/ERC20/ERC20.sol\":3508:3526  _balances[account] */\n      0x00\n        /* \"@openzeppelin/contracts/token/ERC20/ERC20.sol\":3518:3525  account */\n      dup4\n        /* \"@openzeppelin/contracts/token/ERC20/ERC20.sol\":3508:3526  _balances[account] */\n      0xffffffffffffffffffffffffffffffffffffffff\n      and\n      0xffffffffffffffffffffffffffffffffffffffff\n      and\n      dup2\n      mstore\n      0x20\n      add\n      swap1\n      dup2\n      mstore\n      0x20\n      add\n      0x00\n      keccak256\n      sload\n        /* \"@openzeppelin/contracts/token/ERC20/ERC20.sol\":3501:3526  return _balances[account] */\n      swap1\n      pop\n        /* \"@openzeppelin/contracts/token/ERC20/ERC20.sol\":3408:3533  function balanceOf(address account) public view virtual override returns (uint256) {... */\n      swap2\n      swap1\n      pop\n      jump\t// out\n        /* \"@openzeppelin/contracts/token/ERC20/ERC20.sol\":2367:2469  function symbol() public view virtual override returns (string memory) {... */\n    tag_78:\n        /* \"@openzeppelin/contracts/token/ERC20/ERC20.sol\":2423:2436  string memory */\n      0x60\n        /* \"@openzeppelin/contracts/token/ERC20/ERC20.sol\":2455:2462  _symbol */\n      0x04\n        /* \"@openzeppelin/contracts/token/ERC20/ERC20.sol\":2448:2462  return _symbol */\n      dup1\n      sload\n      tag_173\n      swap1\n      tag_116\n      jump\t// in\n    tag_173:\n      dup1\n      0x1f\n      add\n      0x20\n      dup1\n      swap2\n      div\n      mul\n      0x20\n      add\n      mload(0x40)\n      swap1\n      dup2\n      add\n      0x40\n      mstore\n      dup1\n      swap3\n      swap2\n      swap1\n      dup2\n      dup2\n      mstore\n      0x20\n      add\n      dup3\n      dup1\n      sload\n      tag_174\n      swap1\n      tag_116\n      jump\t// in\n    tag_174:\n      dup1\n      iszero\n      tag_175\n      jumpi\n      dup1\n      0x1f\n      lt\n      tag_176\n      jumpi\n      0x0100\n      dup1\n      dup4\n      sload\n      div\n      mul\n      dup4\n      mstore\n      swap2\n      0x20\n      add\n      swap2\n      jump(tag_175)\n    tag_176:\n      dup3\n      add\n      swap2\n      swap1\n      0x00\n      mstore\n      keccak256(0x00, 0x20)\n      swap1\n    tag_177:\n      dup2\n      sload\n      dup2\n      mstore\n      swap1\n      0x01\n      add\n      swap1\n      0x20\n      add\n      dup1\n      dup4\n      gt\n      tag_177\n      jumpi\n      dup3\n      swap1\n      sub\n      0x1f\n      and\n      dup3\n      add\n      swap2\n    tag_175:\n      pop\n      pop\n      pop\n      pop\n      pop\n      swap1\n      pop\n        /* \"@openzeppelin/contracts/token/ERC20/ERC20.sol\":2367:2469  function symbol() public view virtual override returns (string memory) {... */\n      swap1\n      jump\t// out\n        /* \"@openzeppelin/contracts/token/ERC20/ERC20.sol\":6594:7021  function decreaseAllowance(address spender, uint256 subtractedValue) public virtual returns (bool) {... */\n    tag_83:\n        /* \"@openzeppelin/contracts/token/ERC20/ERC20.sol\":6687:6691  bool */\n      0x00\n        /* \"@openzeppelin/contracts/token/ERC20/ERC20.sol\":6703:6716  address owner */\n      dup1\n        /* \"@openzeppelin/contracts/token/ERC20/ERC20.sol\":6719:6731  _msgSender() */\n      tag_179\n        /* \"@openzeppelin/contracts/token/ERC20/ERC20.sol\":6719:6729  _msgSender */\n      tag_123\n        /* \"@openzeppelin/contracts/token/ERC20/ERC20.sol\":6719:6731  _msgSender() */\n      jump\t// in\n    tag_179:\n        /* \"@openzeppelin/contracts/token/ERC20/ERC20.sol\":6703:6731  address owner = _msgSender() */\n      swap1\n      pop\n        /* \"@openzeppelin/contracts/token/ERC20/ERC20.sol\":6741:6765  uint256 currentAllowance */\n      0x00\n        /* \"@openzeppelin/contracts/token/ERC20/ERC20.sol\":6768:6793  allowance(owner, spender) */\n      tag_180\n        /* \"@openzeppelin/contracts/token/ERC20/ERC20.sol\":6778:6783  owner */\n      dup3\n        /* \"@openzeppelin/contracts/token/ERC20/ERC20.sol\":6785:6792  spender */\n      dup7\n        /* \"@openzeppelin/contracts/token/ERC20/ERC20.sol\":6768:6777  allowance */\n      tag_98\n        /* \"@openzeppelin/contracts/token/ERC20/ERC20.sol\":6768:6793  allowance(owner, spender) */\n      jump\t// in\n    tag_180:\n        /* \"@openzeppelin/contracts/token/ERC20/ERC20.sol\":6741:6793  uint256 currentAllowance = allowance(owner, spender) */\n      swap1\n      pop\n        /* \"@openzeppelin/contracts/token/ERC20/ERC20.sol\":6831:6846  subtractedValue */\n      dup4\n        /* \"@openzeppelin/contracts/token/ERC20/ERC20.sol\":6811:6827  currentAllowance */\n      dup2\n        /* \"@openzeppelin/contracts/token/ERC20/ERC20.sol\":6811:6846  currentAllowance >= subtractedValue */\n      lt\n      iszero\n        /* \"@openzeppelin/contracts/token/ERC20/ERC20.sol\":6803:6888  require(currentAllowance >= subtractedValue, \"ERC20: decreased allowance below zero\") */\n      tag_181\n      jumpi\n      mload(0x40)\n      0x08c379a000000000000000000000000000000000000000000000000000000000\n      dup2\n      mstore\n      0x04\n      add\n      tag_182\n      swap1\n      tag_183\n      jump\t// in\n    tag_182:\n      mload(0x40)\n      dup1\n      swap2\n      sub\n      swap1\n      revert\n    tag_181:\n        /* \"@openzeppelin/contracts/token/ERC20/ERC20.sol\":6922:6982  _approve(owner, spender, currentAllowance - subtractedValue) */\n      tag_184\n        /* \"@openzeppelin/contracts/token/ERC20/ERC20.sol\":6931:6936  owner */\n      dup3\n        /* \"@openzeppelin/contracts/token/ERC20/ERC20.sol\":6938:6945  spender */\n      dup7\n        /* \"@openzeppelin/contracts/token/ERC20/ERC20.sol\":6966:6981  subtractedValue */\n      dup7\n        /* \"@openzeppelin/contracts/token/ERC20/ERC20.sol\":6947:6963  currentAllowance */\n      dup5\n        /* \"@openzeppelin/contracts/token/ERC20/ERC20.sol\":6947:6981  currentAllowance - subtractedValue */\n      sub\n        /* \"@openzeppelin/contracts/token/ERC20/ERC20.sol\":6922:6930  _approve */\n      tag_125\n        /* \"@openzeppelin/contracts/token/ERC20/ERC20.sol\":6922:6982  _approve(owner, spender, currentAllowance - subtractedValue) */\n      jump\t// in\n    tag_184:\n        /* \"@openzeppelin/contracts/token/ERC20/ERC20.sol\":7010:7014  true */\n      0x01\n        /* \"@openzeppelin/contracts/token/ERC20/ERC20.sol\":7003:7014  return true */\n      swap3\n      pop\n      pop\n      pop\n        /* \"@openzeppelin/contracts/token/ERC20/ERC20.sol\":6594:7021  function decreaseAllowance(address spender, uint256 subtractedValue) public virtual returns (bool) {... */\n      swap3\n      swap2\n      pop\n      pop\n      jump\t// out\n        /* \"@openzeppelin/contracts/token/ERC20/ERC20.sol\":3729:3918  function transfer(address to, uint256 amount) public virtual override returns (bool) {... */\n    tag_88:\n        /* \"@openzeppelin/contracts/token/ERC20/ERC20.sol\":3808:3812  bool */\n      0x00\n        /* \"@openzeppelin/contracts/token/ERC20/ERC20.sol\":3824:3837  address owner */\n      dup1\n        /* \"@openzeppelin/contracts/token/ERC20/ERC20.sol\":3840:3852  _msgSender() */\n      tag_186\n        /* \"@openzeppelin/contracts/token/ERC20/ERC20.sol\":3840:3850  _msgSender */\n      tag_123\n        /* \"@openzeppelin/contracts/token/ERC20/ERC20.sol\":3840:3852  _msgSender() */\n      jump\t// in\n    tag_186:\n        /* \"@openzeppelin/contracts/token/ERC20/ERC20.sol\":3824:3852  address owner = _msgSender() */\n      swap1\n      pop\n        /* \"@openzeppelin/contracts/token/ERC20/ERC20.sol\":3862:3890  _transfer(owner, to, amount) */\n      tag_187\n        /* \"@openzeppelin/contracts/token/ERC20/ERC20.sol\":3872:3877  owner */\n      dup2\n        /* \"@openzeppelin/contracts/token/ERC20/ERC20.sol\":3879:3881  to */\n      dup6\n        /* \"@openzeppelin/contracts/token/ERC20/ERC20.sol\":3883:3889  amount */\n      dup6\n        /* \"@openzeppelin/contracts/token/ERC20/ERC20.sol\":3862:3871  _transfer */\n      tag_133\n        /* \"@openzeppelin/contracts/token/ERC20/ERC20.sol\":3862:3890  _transfer(owner, to, amount) */\n      jump\t// in\n    tag_187:\n        /* \"@openzeppelin/contracts/token/ERC20/ERC20.sol\":3907:3911  true */\n      0x01\n        /* \"@openzeppelin/contracts/token/ERC20/ERC20.sol\":3900:3911  return true */\n      swap2\n      pop\n      pop\n        /* \"@openzeppelin/contracts/token/ERC20/ERC20.sol\":3729:3918  function transfer(address to, uint256 amount) public virtual override returns (bool) {... */\n      swap3\n      swap2\n      pop\n      pop\n      jump\t// out\n        /* \"contracts/Lottery.sol\":365:397  uint256 public tokensPerEth = 10 */\n    tag_92:\n      sload(0x07)\n      dup2\n      jump\t// out\n        /* \"@openzeppelin/contracts/token/ERC20/ERC20.sol\":3976:4125  function allowance(address owner, address spender) public view virtual override returns (uint256) {... */\n    tag_98:\n        /* \"@openzeppelin/contracts/token/ERC20/ERC20.sol\":4065:4072  uint256 */\n      0x00\n        /* \"@openzeppelin/contracts/token/ERC20/ERC20.sol\":4091:4102  _allowances */\n      0x01\n        /* \"@openzeppelin/contracts/token/ERC20/ERC20.sol\":4091:4109  _allowances[owner] */\n      0x00\n        /* \"@openzeppelin/contracts/token/ERC20/ERC20.sol\":4103:4108  owner */\n      dup5\n        /* \"@openzeppelin/contracts/token/ERC20/ERC20.sol\":4091:4109  _allowances[owner] */\n      0xffffffffffffffffffffffffffffffffffffffff\n      and\n      0xffffffffffffffffffffffffffffffffffffffff\n      and\n      dup2\n      mstore\n      0x20\n      add\n      swap1\n      dup2\n      mstore\n      0x20\n      add\n      0x00\n      keccak256\n        /* \"@openzeppelin/contracts/token/ERC20/ERC20.sol\":4091:4118  _allowances[owner][spender] */\n      0x00\n        /* \"@openzeppelin/contracts/token/ERC20/ERC20.sol\":4110:4117  spender */\n      dup4\n        /* \"@openzeppelin/contracts/token/ERC20/ERC20.sol\":4091:4118  _allowances[owner][spender] */\n      0xffffffffffffffffffffffffffffffffffffffff\n      and\n      0xffffffffffffffffffffffffffffffffffffffff\n      and\n      dup2\n      mstore\n      0x20\n      add\n      swap1\n      dup2\n      mstore\n      0x20\n      add\n      0x00\n      keccak256\n      sload\n        /* \"@openzeppelin/contracts/token/ERC20/ERC20.sol\":4084:4118  return _allowances[owner][spender] */\n      swap1\n      pop\n        /* \"@openzeppelin/contracts/token/ERC20/ERC20.sol\":3976:4125  function allowance(address owner, address spender) public view virtual override returns (uint256) {... */\n      swap3\n      swap2\n      pop\n      pop\n      jump\t// out\n        /* \"contracts/Lottery.sol\":989:1292  function enter() public payable{... */\n    tag_101:\n        /* \"contracts/Lottery.sol\":1114:1123  0.1 ether */\n      0x016345785d8a0000\n        /* \"contracts/Lottery.sol\":1102:1111  msg.value */\n      callvalue\n        /* \"contracts/Lottery.sol\":1102:1123  msg.value > 0.1 ether */\n      gt\n        /* \"contracts/Lottery.sol\":1094:1149  require(msg.value > 0.1 ether, \"msg.value < 0.1 ether\") */\n      tag_190\n      jumpi\n      mload(0x40)\n      0x08c379a000000000000000000000000000000000000000000000000000000000\n      dup2\n      mstore\n      0x04\n      add\n      tag_191\n      swap1\n      tag_192\n      jump\t// in\n    tag_191:\n      mload(0x40)\n      dup1\n      swap2\n      sub\n      swap1\n      revert\n    tag_190:\n        /* \"contracts/Lottery.sol\":1159:1174  uint256 amounts */\n      0x00\n        /* \"contracts/Lottery.sol\":1177:1186  msg.value */\n      callvalue\n        /* \"contracts/Lottery.sol\":1159:1186  uint256 amounts = msg.value */\n      swap1\n      pop\n        /* \"contracts/Lottery.sol\":1196:1203  players */\n      0x05\n        /* \"contracts/Lottery.sol\":1217:1227  msg.sender */\n      caller\n        /* \"contracts/Lottery.sol\":1196:1229  players.push(payable(msg.sender)) */\n      swap1\n      dup1\n      0x01\n      dup2\n      sload\n      add\n      dup1\n      dup3\n      sstore\n      dup1\n      swap2\n      pop\n      pop\n      0x01\n      swap1\n      sub\n      swap1\n      0x00\n      mstore\n      keccak256(0x00, 0x20)\n      add\n      0x00\n      swap1\n      swap2\n      swap1\n      swap2\n      swap1\n      swap2\n      0x0100\n      exp\n      dup2\n      sload\n      dup2\n      0xffffffffffffffffffffffffffffffffffffffff\n      mul\n      not\n      and\n      swap1\n      dup4\n      0xffffffffffffffffffffffffffffffffffffffff\n      and\n      mul\n      or\n      swap1\n      sstore\n      pop\n        /* \"contracts/Lottery.sol\":1260:1270  msg.sender */\n      caller\n        /* \"contracts/Lottery.sol\":1244:1280  Transfer(admin, msg.sender, amounts) */\n      0xffffffffffffffffffffffffffffffffffffffff\n      and\n        /* \"contracts/Lottery.sol\":1253:1258  admin */\n      0x06\n      0x00\n      swap1\n      sload\n      swap1\n      0x0100\n      exp\n      swap1\n      div\n      0xffffffffffffffffffffffffffffffffffffffff\n      and\n        /* \"contracts/Lottery.sol\":1244:1280  Transfer(admin, msg.sender, amounts) */\n      0xffffffffffffffffffffffffffffffffffffffff\n      and\n      0xddf252ad1be2c89b69c2b068fc378daa952ba7f163c4a11628f55a4df523b3ef\n        /* \"contracts/Lottery.sol\":1272:1279  amounts */\n      dup4\n        /* \"contracts/Lottery.sol\":1244:1280  Transfer(admin, msg.sender, amounts) */\n      mload(0x40)\n      tag_194\n      swap2\n      swap1\n      tag_46\n      jump\t// in\n    tag_194:\n      mload(0x40)\n      dup1\n      swap2\n      sub\n      swap1\n      log3\n        /* \"contracts/Lottery.sol\":1020:1292  {... */\n      pop\n        /* \"contracts/Lottery.sol\":989:1292  function enter() public payable{... */\n      jump\t// out\n        /* \"contracts/Lottery.sol\":278:310  address payable[] public players */\n    tag_106:\n      0x05\n      dup2\n      dup2\n      sload\n      dup2\n      lt\n      tag_195\n      jumpi\n      0x00\n      dup1\n      revert\n    tag_195:\n      swap1\n      0x00\n      mstore\n      keccak256(0x00, 0x20)\n      add\n      0x00\n      swap2\n      pop\n      sload\n      swap1\n      0x0100\n      exp\n      swap1\n      div\n      0xffffffffffffffffffffffffffffffffffffffff\n      and\n      dup2\n      jump\t// out\n        /* \"contracts/Lottery.sol\":339:359  address public admin */\n    tag_111:\n      0x06\n      0x00\n      swap1\n      sload\n      swap1\n      0x0100\n      exp\n      swap1\n      div\n      0xffffffffffffffffffffffffffffffffffffffff\n      and\n      dup2\n      jump\t// out\n        /* \"@openzeppelin/contracts/utils/Context.sol\":640:736  function _msgSender() internal view virtual returns (address) {... */\n    tag_123:\n        /* \"@openzeppelin/contracts/utils/Context.sol\":693:700  address */\n      0x00\n        /* \"@openzeppelin/contracts/utils/Context.sol\":719:729  msg.sender */\n      caller\n        /* \"@openzeppelin/contracts/utils/Context.sol\":712:729  return msg.sender */\n      swap1\n      pop\n        /* \"@openzeppelin/contracts/utils/Context.sol\":640:736  function _msgSender() internal view virtual returns (address) {... */\n      swap1\n      jump\t// out\n        /* \"@openzeppelin/contracts/token/ERC20/ERC20.sol\":10110:10480  function _approve(... */\n    tag_125:\n        /* \"@openzeppelin/contracts/token/ERC20/ERC20.sol\":10258:10259  0 */\n      0x00\n        /* \"@openzeppelin/contracts/token/ERC20/ERC20.sol\":10241:10260  owner != address(0) */\n      0xffffffffffffffffffffffffffffffffffffffff\n      and\n        /* \"@openzeppelin/contracts/token/ERC20/ERC20.sol\":10241:10246  owner */\n      dup4\n        /* \"@openzeppelin/contracts/token/ERC20/ERC20.sol\":10241:10260  owner != address(0) */\n      0xffffffffffffffffffffffffffffffffffffffff\n      and\n      sub\n        /* \"@openzeppelin/contracts/token/ERC20/ERC20.sol\":10233:10301  require(owner != address(0), \"ERC20: approve from the zero address\") */\n      tag_199\n      jumpi\n      mload(0x40)\n      0x08c379a000000000000000000000000000000000000000000000000000000000\n      dup2\n      mstore\n      0x04\n      add\n      tag_200\n      swap1\n      tag_201\n      jump\t// in\n    tag_200:\n      mload(0x40)\n      dup1\n      swap2\n      sub\n      swap1\n      revert\n    tag_199:\n        /* \"@openzeppelin/contracts/token/ERC20/ERC20.sol\":10338:10339  0 */\n      0x00\n        /* \"@openzeppelin/contracts/token/ERC20/ERC20.sol\":10319:10340  spender != address(0) */\n      0xffffffffffffffffffffffffffffffffffffffff\n      and\n        /* \"@openzeppelin/contracts/token/ERC20/ERC20.sol\":10319:10326  spender */\n      dup3\n        /* \"@openzeppelin/contracts/token/ERC20/ERC20.sol\":10319:10340  spender != address(0) */\n      0xffffffffffffffffffffffffffffffffffffffff\n      and\n      sub\n        /* \"@openzeppelin/contracts/token/ERC20/ERC20.sol\":10311:10379  require(spender != address(0), \"ERC20: approve to the zero address\") */\n      tag_202\n      jumpi\n      mload(0x40)\n      0x08c379a000000000000000000000000000000000000000000000000000000000\n      dup2\n      mstore\n      0x04\n      add\n      tag_203\n      swap1\n      tag_204\n      jump\t// in\n    tag_203:\n      mload(0x40)\n      dup1\n      swap2\n      sub\n      swap1\n      revert\n    tag_202:\n        /* \"@openzeppelin/contracts/token/ERC20/ERC20.sol\":10420:10426  amount */\n      dup1\n        /* \"@openzeppelin/contracts/token/ERC20/ERC20.sol\":10390:10401  _allowances */\n      0x01\n        /* \"@openzeppelin/contracts/token/ERC20/ERC20.sol\":10390:10408  _allowances[owner] */\n      0x00\n        /* \"@openzeppelin/contracts/token/ERC20/ERC20.sol\":10402:10407  owner */\n      dup6\n        /* \"@openzeppelin/contracts/token/ERC20/ERC20.sol\":10390:10408  _allowances[owner] */\n      0xffffffffffffffffffffffffffffffffffffffff\n      and\n      0xffffffffffffffffffffffffffffffffffffffff\n      and\n      dup2\n      mstore\n      0x20\n      add\n      swap1\n      dup2\n      mstore\n      0x20\n      add\n      0x00\n      keccak256\n        /* \"@openzeppelin/contracts/token/ERC20/ERC20.sol\":10390:10417  _allowances[owner][spender] */\n      0x00\n        /* \"@openzeppelin/contracts/token/ERC20/ERC20.sol\":10409:10416  spender */\n      dup5\n        /* \"@openzeppelin/contracts/token/ERC20/ERC20.sol\":10390:10417  _allowances[owner][spender] */\n      0xffffffffffffffffffffffffffffffffffffffff\n      and\n      0xffffffffffffffffffffffffffffffffffffffff\n      and\n      dup2\n      mstore\n      0x20\n      add\n      swap1\n      dup2\n      mstore\n      0x20\n      add\n      0x00\n      keccak256\n        /* \"@openzeppelin/contracts/token/ERC20/ERC20.sol\":10390:10426  _allowances[owner][spender] = amount */\n      dup2\n      swap1\n      sstore\n      pop\n        /* \"@openzeppelin/contracts/token/ERC20/ERC20.sol\":10457:10464  spender */\n      dup2\n        /* \"@openzeppelin/contracts/token/ERC20/ERC20.sol\":10441:10473  Approval(owner, spender, amount) */\n      0xffffffffffffffffffffffffffffffffffffffff\n      and\n        /* \"@openzeppelin/contracts/token/ERC20/ERC20.sol\":10450:10455  owner */\n      dup4\n        /* \"@openzeppelin/contracts/token/ERC20/ERC20.sol\":10441:10473  Approval(owner, spender, amount) */\n      0xffffffffffffffffffffffffffffffffffffffff\n      and\n      0x8c5be1e5ebec7d5bd14f71427d1e84f3dd0314c0f7b2291e5b200ac8c7c3b925\n        /* \"@openzeppelin/contracts/token/ERC20/ERC20.sol\":10466:10472  amount */\n      dup4\n        /* \"@openzeppelin/contracts/token/ERC20/ERC20.sol\":10441:10473  Approval(owner, spender, amount) */\n      mload(0x40)\n      tag_205\n      swap2\n      swap1\n      tag_46\n      jump\t// in\n    tag_205:\n      mload(0x40)\n      dup1\n      swap2\n      sub\n      swap1\n      log3\n        /* \"@openzeppelin/contracts/token/ERC20/ERC20.sol\":10110:10480  function _approve(... */\n      pop\n      pop\n      pop\n      jump\t// out\n        /* \"@openzeppelin/contracts/token/ERC20/ERC20.sol\":10761:11202  function _spendAllowance(... */\n    tag_131:\n        /* \"@openzeppelin/contracts/token/ERC20/ERC20.sol\":10891:10915  uint256 currentAllowance */\n      0x00\n        /* \"@openzeppelin/contracts/token/ERC20/ERC20.sol\":10918:10943  allowance(owner, spender) */\n      tag_207\n        /* \"@openzeppelin/contracts/token/ERC20/ERC20.sol\":10928:10933  owner */\n      dup5\n        /* \"@openzeppelin/contracts/token/ERC20/ERC20.sol\":10935:10942  spender */\n      dup5\n        /* \"@openzeppelin/contracts/token/ERC20/ERC20.sol\":10918:10927  allowance */\n      tag_98\n        /* \"@openzeppelin/contracts/token/ERC20/ERC20.sol\":10918:10943  allowance(owner, spender) */\n      jump\t// in\n    tag_207:\n        /* \"@openzeppelin/contracts/token/ERC20/ERC20.sol\":10891:10943  uint256 currentAllowance = allowance(owner, spender) */\n      swap1\n      pop\n        /* \"@openzeppelin/contracts/token/ERC20/ERC20.sol\":10977:10994  type(uint256).max */\n      0xffffffffffffffffffffffffffffffffffffffffffffffffffffffffffffffff\n        /* \"@openzeppelin/contracts/token/ERC20/ERC20.sol\":10957:10973  currentAllowance */\n      dup2\n        /* \"@openzeppelin/contracts/token/ERC20/ERC20.sol\":10957:10994  currentAllowance != type(uint256).max */\n      eq\n        /* \"@openzeppelin/contracts/token/ERC20/ERC20.sol\":10953:11196  if (currentAllowance != type(uint256).max) {... */\n      tag_208\n      jumpi\n        /* \"@openzeppelin/contracts/token/ERC20/ERC20.sol\":11038:11044  amount */\n      dup2\n        /* \"@openzeppelin/contracts/token/ERC20/ERC20.sol\":11018:11034  currentAllowance */\n      dup2\n        /* \"@openzeppelin/contracts/token/ERC20/ERC20.sol\":11018:11044  currentAllowance >= amount */\n      lt\n      iszero\n        /* \"@openzeppelin/contracts/token/ERC20/ERC20.sol\":11010:11078  require(currentAllowance >= amount, \"ERC20: insufficient allowance\") */\n      tag_209\n      jumpi\n      mload(0x40)\n      0x08c379a000000000000000000000000000000000000000000000000000000000\n      dup2\n      mstore\n      0x04\n      add\n      tag_210\n      swap1\n      tag_211\n      jump\t// in\n    tag_210:\n      mload(0x40)\n      dup1\n      swap2\n      sub\n      swap1\n      revert\n    tag_209:\n        /* \"@openzeppelin/contracts/token/ERC20/ERC20.sol\":11120:11171  _approve(owner, spender, currentAllowance - amount) */\n      tag_212\n        /* \"@openzeppelin/contracts/token/ERC20/ERC20.sol\":11129:11134  owner */\n      dup5\n        /* \"@openzeppelin/contracts/token/ERC20/ERC20.sol\":11136:11143  spender */\n      dup5\n        /* \"@openzeppelin/contracts/token/ERC20/ERC20.sol\":11164:11170  amount */\n      dup5\n        /* \"@openzeppelin/contracts/token/ERC20/ERC20.sol\":11145:11161  currentAllowance */\n      dup5\n        /* \"@openzeppelin/contracts/token/ERC20/ERC20.sol\":11145:11170  currentAllowance - amount */\n      sub\n        /* \"@openzeppelin/contracts/token/ERC20/ERC20.sol\":11120:11128  _approve */\n      tag_125\n        /* \"@openzeppelin/contracts/token/ERC20/ERC20.sol\":11120:11171  _approve(owner, spender, currentAllowance - amount) */\n      jump\t// in\n    tag_212:\n        /* \"@openzeppelin/contracts/token/ERC20/ERC20.sol\":10953:11196  if (currentAllowance != type(uint256).max) {... */\n    tag_208:\n        /* \"@openzeppelin/contracts/token/ERC20/ERC20.sol\":10881:11202  {... */\n      pop\n        /* \"@openzeppelin/contracts/token/ERC20/ERC20.sol\":10761:11202  function _spendAllowance(... */\n      pop\n      pop\n      pop\n      jump\t// out\n        /* \"@openzeppelin/contracts/token/ERC20/ERC20.sol\":7475:8126  function _transfer(... */\n    tag_133:\n        /* \"@openzeppelin/contracts/token/ERC20/ERC20.sol\":7617:7618  0 */\n      0x00\n        /* \"@openzeppelin/contracts/token/ERC20/ERC20.sol\":7601:7619  from != address(0) */\n      0xffffffffffffffffffffffffffffffffffffffff\n      and\n        /* \"@openzeppelin/contracts/token/ERC20/ERC20.sol\":7601:7605  from */\n      dup4\n        /* \"@openzeppelin/contracts/token/ERC20/ERC20.sol\":7601:7619  from != address(0) */\n      0xffffffffffffffffffffffffffffffffffffffff\n      and\n      sub\n        /* \"@openzeppelin/contracts/token/ERC20/ERC20.sol\":7593:7661  require(from != address(0), \"ERC20: transfer from the zero address\") */\n      tag_214\n      jumpi\n      mload(0x40)\n      0x08c379a000000000000000000000000000000000000000000000000000000000\n      dup2\n      mstore\n      0x04\n      add\n      tag_215\n      swap1\n      tag_216\n      jump\t// in\n    tag_215:\n      mload(0x40)\n      dup1\n      swap2\n      sub\n      swap1\n      revert\n    tag_214:\n        /* \"@openzeppelin/contracts/token/ERC20/ERC20.sol\":7693:7694  0 */\n      0x00\n        /* \"@openzeppelin/contracts/token/ERC20/ERC20.sol\":7679:7695  to != address(0) */\n      0xffffffffffffffffffffffffffffffffffffffff\n      and\n        /* \"@openzeppelin/contracts/token/ERC20/ERC20.sol\":7679:7681  to */\n      dup3\n        /* \"@openzeppelin/contracts/token/ERC20/ERC20.sol\":7679:7695  to != address(0) */\n      0xffffffffffffffffffffffffffffffffffffffff\n      and\n      sub\n        /* \"@openzeppelin/contracts/token/ERC20/ERC20.sol\":7671:7735  require(to != address(0), \"ERC20: transfer to the zero address\") */\n      tag_217\n      jumpi\n      mload(0x40)\n      0x08c379a000000000000000000000000000000000000000000000000000000000\n      dup2\n      mstore\n      0x04\n      add\n      tag_218\n      swap1\n      tag_219\n      jump\t// in\n    tag_218:\n      mload(0x40)\n      dup1\n      swap2\n      sub\n      swap1\n      revert\n    tag_217:\n        /* \"@openzeppelin/contracts/token/ERC20/ERC20.sol\":7746:7784  _beforeTokenTransfer(from, to, amount) */\n      tag_220\n        /* \"@openzeppelin/contracts/token/ERC20/ERC20.sol\":7767:7771  from */\n      dup4\n        /* \"@openzeppelin/contracts/token/ERC20/ERC20.sol\":7773:7775  to */\n      dup4\n        /* \"@openzeppelin/contracts/token/ERC20/ERC20.sol\":7777:7783  amount */\n      dup4\n        /* \"@openzeppelin/contracts/token/ERC20/ERC20.sol\":7746:7766  _beforeTokenTransfer */\n      tag_221\n        /* \"@openzeppelin/contracts/token/ERC20/ERC20.sol\":7746:7784  _beforeTokenTransfer(from, to, amount) */\n      jump\t// in\n    tag_220:\n        /* \"@openzeppelin/contracts/token/ERC20/ERC20.sol\":7795:7814  uint256 fromBalance */\n      0x00\n        /* \"@openzeppelin/contracts/token/ERC20/ERC20.sol\":7817:7826  _balances */\n      dup1\n        /* \"@openzeppelin/contracts/token/ERC20/ERC20.sol\":7817:7832  _balances[from] */\n      0x00\n        /* \"@openzeppelin/contracts/token/ERC20/ERC20.sol\":7827:7831  from */\n      dup6\n        /* \"@openzeppelin/contracts/token/ERC20/ERC20.sol\":7817:7832  _balances[from] */\n      0xffffffffffffffffffffffffffffffffffffffff\n      and\n      0xffffffffffffffffffffffffffffffffffffffff\n      and\n      dup2\n      mstore\n      0x20\n      add\n      swap1\n      dup2\n      mstore\n      0x20\n      add\n      0x00\n      keccak256\n      sload\n        /* \"@openzeppelin/contracts/token/ERC20/ERC20.sol\":7795:7832  uint256 fromBalance = _balances[from] */\n      swap1\n      pop\n        /* \"@openzeppelin/contracts/token/ERC20/ERC20.sol\":7865:7871  amount */\n      dup2\n        /* \"@openzeppelin/contracts/token/ERC20/ERC20.sol\":7850:7861  fromBalance */\n      dup2\n        /* \"@openzeppelin/contracts/token/ERC20/ERC20.sol\":7850:7871  fromBalance >= amount */\n      lt\n      iszero\n        /* \"@openzeppelin/contracts/token/ERC20/ERC20.sol\":7842:7914  require(fromBalance >= amount, \"ERC20: transfer amount exceeds balance\") */\n      tag_222\n      jumpi\n      mload(0x40)\n      0x08c379a000000000000000000000000000000000000000000000000000000000\n      dup2\n      mstore\n      0x04\n      add\n      tag_223\n      swap1\n      tag_224\n      jump\t// in\n    tag_223:\n      mload(0x40)\n      dup1\n      swap2\n      sub\n      swap1\n      revert\n    tag_222:\n        /* \"@openzeppelin/contracts/token/ERC20/ERC20.sol\":7980:7986  amount */\n      dup2\n        /* \"@openzeppelin/contracts/token/ERC20/ERC20.sol\":7966:7977  fromBalance */\n      dup2\n        /* \"@openzeppelin/contracts/token/ERC20/ERC20.sol\":7966:7986  fromBalance - amount */\n      sub\n        /* \"@openzeppelin/contracts/token/ERC20/ERC20.sol\":7948:7957  _balances */\n      0x00\n        /* \"@openzeppelin/contracts/token/ERC20/ERC20.sol\":7948:7963  _balances[from] */\n      dup1\n        /* \"@openzeppelin/contracts/token/ERC20/ERC20.sol\":7958:7962  from */\n      dup7\n        /* \"@openzeppelin/contracts/token/ERC20/ERC20.sol\":7948:7963  _balances[from] */\n      0xffffffffffffffffffffffffffffffffffffffff\n      and\n      0xffffffffffffffffffffffffffffffffffffffff\n      and\n      dup2\n      mstore\n      0x20\n      add\n      swap1\n      dup2\n      mstore\n      0x20\n      add\n      0x00\n      keccak256\n        /* \"@openzeppelin/contracts/token/ERC20/ERC20.sol\":7948:7986  _balances[from] = fromBalance - amount */\n      dup2\n      swap1\n      sstore\n      pop\n        /* \"@openzeppelin/contracts/token/ERC20/ERC20.sol\":8023:8029  amount */\n      dup2\n        /* \"@openzeppelin/contracts/token/ERC20/ERC20.sol\":8006:8015  _balances */\n      0x00\n        /* \"@openzeppelin/contracts/token/ERC20/ERC20.sol\":8006:8019  _balances[to] */\n      dup1\n        /* \"@openzeppelin/contracts/token/ERC20/ERC20.sol\":8016:8018  to */\n      dup6\n        /* \"@openzeppelin/contracts/token/ERC20/ERC20.sol\":8006:8019  _balances[to] */\n      0xffffffffffffffffffffffffffffffffffffffff\n      and\n      0xffffffffffffffffffffffffffffffffffffffff\n      and\n      dup2\n      mstore\n      0x20\n      add\n      swap1\n      dup2\n      mstore\n      0x20\n      add\n      0x00\n      keccak256\n      0x00\n        /* \"@openzeppelin/contracts/token/ERC20/ERC20.sol\":8006:8029  _balances[to] += amount */\n      dup3\n      dup3\n      sload\n      tag_225\n      swap2\n      swap1\n      tag_140\n      jump\t// in\n    tag_225:\n      swap3\n      pop\n      pop\n      dup2\n      swap1\n      sstore\n      pop\n        /* \"@openzeppelin/contracts/token/ERC20/ERC20.sol\":8060:8062  to */\n      dup3\n        /* \"@openzeppelin/contracts/token/ERC20/ERC20.sol\":8045:8071  Transfer(from, to, amount) */\n      0xffffffffffffffffffffffffffffffffffffffff\n      and\n        /* \"@openzeppelin/contracts/token/ERC20/ERC20.sol\":8054:8058  from */\n      dup5\n        /* \"@openzeppelin/contracts/token/ERC20/ERC20.sol\":8045:8071  Transfer(from, to, amount) */\n      0xffffffffffffffffffffffffffffffffffffffff\n      and\n      0xddf252ad1be2c89b69c2b068fc378daa952ba7f163c4a11628f55a4df523b3ef\n        /* \"@openzeppelin/contracts/token/ERC20/ERC20.sol\":8064:8070  amount */\n      dup5\n        /* \"@openzeppelin/contracts/token/ERC20/ERC20.sol\":8045:8071  Transfer(from, to, amount) */\n      mload(0x40)\n      tag_226\n      swap2\n      swap1\n      tag_46\n      jump\t// in\n    tag_226:\n      mload(0x40)\n      dup1\n      swap2\n      sub\n      swap1\n      log3\n        /* \"@openzeppelin/contracts/token/ERC20/ERC20.sol\":8082:8119  _afterTokenTransfer(from, to, amount) */\n      tag_227\n        /* \"@openzeppelin/contracts/token/ERC20/ERC20.sol\":8102:8106  from */\n      dup5\n        /* \"@openzeppelin/contracts/token/ERC20/ERC20.sol\":8108:8110  to */\n      dup5\n        /* \"@openzeppelin/contracts/token/ERC20/ERC20.sol\":8112:8118  amount */\n      dup5\n        /* \"@openzeppelin/contracts/token/ERC20/ERC20.sol\":8082:8101  _afterTokenTransfer */\n      tag_228\n        /* \"@openzeppelin/contracts/token/ERC20/ERC20.sol\":8082:8119  _afterTokenTransfer(from, to, amount) */\n      jump\t// in\n    tag_227:\n        /* \"@openzeppelin/contracts/token/ERC20/ERC20.sol\":7583:8126  {... */\n      pop\n        /* \"@openzeppelin/contracts/token/ERC20/ERC20.sol\":7475:8126  function _transfer(... */\n      pop\n      pop\n      pop\n      jump\t// out\n        /* \"contracts/Lottery.sol\":2149:2301  function random() internal view returns(uint){... */\n    tag_150:\n        /* \"contracts/Lottery.sol\":2189:2193  uint */\n      0x00\n        /* \"contracts/Lottery.sol\":2242:2258  block.difficulty */\n      difficulty\n        /* \"contracts/Lottery.sol\":2260:2275  block.timestamp */\n      timestamp\n        /* \"contracts/Lottery.sol\":2277:2284  players */\n      0x05\n        /* \"contracts/Lottery.sol\":2277:2291  players.length */\n      dup1\n      sload\n      swap1\n      pop\n        /* \"contracts/Lottery.sol\":2225:2292  abi.encodePacked(block.difficulty, block.timestamp, players.length) */\n      add(0x20, mload(0x40))\n      tag_230\n      swap4\n      swap3\n      swap2\n      swap1\n      tag_231\n      jump\t// in\n    tag_230:\n      mload(0x40)\n      0x20\n      dup2\n      dup4\n      sub\n      sub\n      dup2\n      mstore\n      swap1\n      0x40\n      mstore\n        /* \"contracts/Lottery.sol\":2215:2293  keccak256(abi.encodePacked(block.difficulty, block.timestamp, players.length)) */\n      dup1\n      mload\n      swap1\n      0x20\n      add\n      keccak256\n        /* \"contracts/Lottery.sol\":2210:2294  uint(keccak256(abi.encodePacked(block.difficulty, block.timestamp, players.length))) */\n      0x00\n      shr\n        /* \"contracts/Lottery.sol\":2203:2294  return uint(keccak256(abi.encodePacked(block.difficulty, block.timestamp, players.length))) */\n      swap1\n      pop\n        /* \"contracts/Lottery.sol\":2149:2301  function random() internal view returns(uint){... */\n      swap1\n      jump\t// out\n        /* \"contracts/Lottery.sol\":3195:3309  function resetLottery() internal {... */\n    tag_170:\n        /* \"contracts/Lottery.sol\":3300:3301  0 */\n      0x00\n        /* \"contracts/Lottery.sol\":3278:3302  new address payable[](0) */\n      0xffffffffffffffff\n      dup2\n      gt\n      iszero\n      tag_233\n      jumpi\n      tag_234\n      tag_235\n      jump\t// in\n    tag_234:\n    tag_233:\n      mload(0x40)\n      swap1\n      dup1\n      dup3\n      mstore\n      dup1\n      0x20\n      mul\n      0x20\n      add\n      dup3\n      add\n      0x40\n      mstore\n      dup1\n      iszero\n      tag_236\n      jumpi\n      dup2\n      0x20\n      add\n      0x20\n      dup3\n      mul\n      dup1\n      calldatasize\n      dup4\n      calldatacopy\n      dup1\n      dup3\n      add\n      swap2\n      pop\n      pop\n      swap1\n      pop\n    tag_236:\n      pop\n        /* \"contracts/Lottery.sol\":3268:3275  players */\n      0x05\n        /* \"contracts/Lottery.sol\":3268:3302  players = new address payable[](0) */\n      swap1\n      dup1\n      mload\n      swap1\n      0x20\n      add\n      swap1\n      tag_237\n      swap3\n      swap2\n      swap1\n      tag_238\n      jump\t// in\n    tag_237:\n      pop\n        /* \"contracts/Lottery.sol\":3195:3309  function resetLottery() internal {... */\n      jump\t// out\n        /* \"@openzeppelin/contracts/token/ERC20/ERC20.sol\":11786:11907  function _beforeTokenTransfer(... */\n    tag_221:\n      pop\n      pop\n      pop\n      jump\t// out\n        /* \"@openzeppelin/contracts/token/ERC20/ERC20.sol\":12495:12615  function _afterTokenTransfer(... */\n    tag_228:\n      pop\n      pop\n      pop\n      jump\t// out\n    tag_238:\n      dup3\n      dup1\n      sload\n      dup3\n      dup3\n      sstore\n      swap1\n      0x00\n      mstore\n      keccak256(0x00, 0x20)\n      swap1\n      dup2\n      add\n      swap3\n      dup3\n      iszero\n      tag_241\n      jumpi\n      swap2\n      0x20\n      mul\n      dup3\n      add\n    tag_242:\n      dup3\n      dup2\n      gt\n      iszero\n      tag_243\n      jumpi\n      dup3\n      mload\n      dup3\n      exp(0x0100, 0x00)\n      dup2\n      sload\n      dup2\n      0xffffffffffffffffffffffffffffffffffffffff\n      mul\n      not\n      and\n      swap1\n      dup4\n      0xffffffffffffffffffffffffffffffffffffffff\n      and\n      mul\n      or\n      swap1\n      sstore\n      pop\n      swap2\n      0x20\n      add\n      swap2\n      swap1\n      0x01\n      add\n      swap1\n      jump(tag_242)\n    tag_243:\n    tag_241:\n      pop\n      swap1\n      pop\n      tag_244\n      swap2\n      swap1\n      tag_245\n      jump\t// in\n    tag_244:\n      pop\n      swap1\n      jump\t// out\n    tag_245:\n    tag_246:\n      dup1\n      dup3\n      gt\n      iszero\n      tag_247\n      jumpi\n      0x00\n      dup2\n      0x00\n      swap1\n      sstore\n      pop\n      0x01\n      add\n      jump(tag_246)\n    tag_247:\n      pop\n      swap1\n      jump\t// out\n        /* \"#utility.yul\":7:176   */\n    tag_248:\n        /* \"#utility.yul\":91:102   */\n      0x00\n        /* \"#utility.yul\":125:131   */\n      dup3\n        /* \"#utility.yul\":120:123   */\n      dup3\n        /* \"#utility.yul\":113:132   */\n      mstore\n        /* \"#utility.yul\":165:169   */\n      0x20\n        /* \"#utility.yul\":160:163   */\n      dup3\n        /* \"#utility.yul\":156:170   */\n      add\n        /* \"#utility.yul\":141:170   */\n      swap1\n      pop\n        /* \"#utility.yul\":7:176   */\n      swap3\n      swap2\n      pop\n      pop\n      jump\t// out\n        /* \"#utility.yul\":182:358   */\n    tag_249:\n        /* \"#utility.yul\":322:350   */\n      0x4d7573742073656e6420302e3120657468657220616d6f756e74000000000000\n        /* \"#utility.yul\":318:319   */\n      0x00\n        /* \"#utility.yul\":310:316   */\n      dup3\n        /* \"#utility.yul\":306:320   */\n      add\n        /* \"#utility.yul\":299:351   */\n      mstore\n        /* \"#utility.yul\":182:358   */\n      pop\n      jump\t// out\n        /* \"#utility.yul\":364:730   */\n    tag_250:\n        /* \"#utility.yul\":506:509   */\n      0x00\n        /* \"#utility.yul\":527:594   */\n      tag_302\n        /* \"#utility.yul\":591:593   */\n      0x1a\n        /* \"#utility.yul\":586:589   */\n      dup4\n        /* \"#utility.yul\":527:594   */\n      tag_248\n      jump\t// in\n    tag_302:\n        /* \"#utility.yul\":520:594   */\n      swap2\n      pop\n        /* \"#utility.yul\":603:696   */\n      tag_303\n        /* \"#utility.yul\":692:695   */\n      dup3\n        /* \"#utility.yul\":603:696   */\n      tag_249\n      jump\t// in\n    tag_303:\n        /* \"#utility.yul\":721:723   */\n      0x20\n        /* \"#utility.yul\":716:719   */\n      dup3\n        /* \"#utility.yul\":712:724   */\n      add\n        /* \"#utility.yul\":705:724   */\n      swap1\n      pop\n        /* \"#utility.yul\":364:730   */\n      swap2\n      swap1\n      pop\n      jump\t// out\n        /* \"#utility.yul\":736:1155   */\n    tag_27:\n        /* \"#utility.yul\":902:906   */\n      0x00\n        /* \"#utility.yul\":940:942   */\n      0x20\n        /* \"#utility.yul\":929:938   */\n      dup3\n        /* \"#utility.yul\":925:943   */\n      add\n        /* \"#utility.yul\":917:943   */\n      swap1\n      pop\n        /* \"#utility.yul\":989:998   */\n      dup2\n        /* \"#utility.yul\":983:987   */\n      dup2\n        /* \"#utility.yul\":979:999   */\n      sub\n        /* \"#utility.yul\":975:976   */\n      0x00\n        /* \"#utility.yul\":964:973   */\n      dup4\n        /* \"#utility.yul\":960:977   */\n      add\n        /* \"#utility.yul\":953:1000   */\n      mstore\n        /* \"#utility.yul\":1017:1148   */\n      tag_305\n        /* \"#utility.yul\":1143:1147   */\n      dup2\n        /* \"#utility.yul\":1017:1148   */\n      tag_250\n      jump\t// in\n    tag_305:\n        /* \"#utility.yul\":1009:1148   */\n      swap1\n      pop\n        /* \"#utility.yul\":736:1155   */\n      swap2\n      swap1\n      pop\n      jump\t// out\n        /* \"#utility.yul\":1161:1260   */\n    tag_251:\n        /* \"#utility.yul\":1213:1219   */\n      0x00\n        /* \"#utility.yul\":1247:1252   */\n      dup2\n        /* \"#utility.yul\":1241:1253   */\n      mload\n        /* \"#utility.yul\":1231:1253   */\n      swap1\n      pop\n        /* \"#utility.yul\":1161:1260   */\n      swap2\n      swap1\n      pop\n      jump\t// out\n        /* \"#utility.yul\":1266:1512   */\n    tag_252:\n        /* \"#utility.yul\":1347:1348   */\n      0x00\n        /* \"#utility.yul\":1357:1470   */\n    tag_308:\n        /* \"#utility.yul\":1371:1377   */\n      dup4\n        /* \"#utility.yul\":1368:1369   */\n      dup2\n        /* \"#utility.yul\":1365:1378   */\n      lt\n        /* \"#utility.yul\":1357:1470   */\n      iszero\n      tag_310\n      jumpi\n        /* \"#utility.yul\":1456:1457   */\n      dup1\n        /* \"#utility.yul\":1451:1454   */\n      dup3\n        /* \"#utility.yul\":1447:1458   */\n      add\n        /* \"#utility.yul\":1441:1459   */\n      mload\n        /* \"#utility.yul\":1437:1438   */\n      dup2\n        /* \"#utility.yul\":1432:1435   */\n      dup5\n        /* \"#utility.yul\":1428:1439   */\n      add\n        /* \"#utility.yul\":1421:1460   */\n      mstore\n        /* \"#utility.yul\":1393:1395   */\n      0x20\n        /* \"#utility.yul\":1390:1391   */\n      dup2\n        /* \"#utility.yul\":1386:1396   */\n      add\n        /* \"#utility.yul\":1381:1396   */\n      swap1\n      pop\n        /* \"#utility.yul\":1357:1470   */\n      jump(tag_308)\n    tag_310:\n        /* \"#utility.yul\":1504:1505   */\n      0x00\n        /* \"#utility.yul\":1495:1501   */\n      dup5\n        /* \"#utility.yul\":1490:1493   */\n      dup5\n        /* \"#utility.yul\":1486:1502   */\n      add\n        /* \"#utility.yul\":1479:1506   */\n      mstore\n        /* \"#utility.yul\":1328:1512   */\n      pop\n        /* \"#utility.yul\":1266:1512   */\n      pop\n      pop\n      pop\n      jump\t// out\n        /* \"#utility.yul\":1518:1620   */\n    tag_253:\n        /* \"#utility.yul\":1559:1565   */\n      0x00\n        /* \"#utility.yul\":1610:1612   */\n      0x1f\n        /* \"#utility.yul\":1606:1613   */\n      not\n        /* \"#utility.yul\":1601:1603   */\n      0x1f\n        /* \"#utility.yul\":1594:1599   */\n      dup4\n        /* \"#utility.yul\":1590:1604   */\n      add\n        /* \"#utility.yul\":1586:1614   */\n      and\n        /* \"#utility.yul\":1576:1614   */\n      swap1\n      pop\n        /* \"#utility.yul\":1518:1620   */\n      swap2\n      swap1\n      pop\n      jump\t// out\n        /* \"#utility.yul\":1626:2003   */\n    tag_254:\n        /* \"#utility.yul\":1714:1717   */\n      0x00\n        /* \"#utility.yul\":1742:1781   */\n      tag_313\n        /* \"#utility.yul\":1775:1780   */\n      dup3\n        /* \"#utility.yul\":1742:1781   */\n      tag_251\n      jump\t// in\n    tag_313:\n        /* \"#utility.yul\":1797:1868   */\n      tag_314\n        /* \"#utility.yul\":1861:1867   */\n      dup2\n        /* \"#utility.yul\":1856:1859   */\n      dup6\n        /* \"#utility.yul\":1797:1868   */\n      tag_248\n      jump\t// in\n    tag_314:\n        /* \"#utility.yul\":1790:1868   */\n      swap4\n      pop\n        /* \"#utility.yul\":1877:1942   */\n      tag_315\n        /* \"#utility.yul\":1935:1941   */\n      dup2\n        /* \"#utility.yul\":1930:1933   */\n      dup6\n        /* \"#utility.yul\":1923:1927   */\n      0x20\n        /* \"#utility.yul\":1916:1921   */\n      dup7\n        /* \"#utility.yul\":1912:1928   */\n      add\n        /* \"#utility.yul\":1877:1942   */\n      tag_252\n      jump\t// in\n    tag_315:\n        /* \"#utility.yul\":1967:1996   */\n      tag_316\n        /* \"#utility.yul\":1989:1995   */\n      dup2\n        /* \"#utility.yul\":1967:1996   */\n      tag_253\n      jump\t// in\n    tag_316:\n        /* \"#utility.yul\":1962:1965   */\n      dup5\n        /* \"#utility.yul\":1958:1997   */\n      add\n        /* \"#utility.yul\":1951:1997   */\n      swap2\n      pop\n        /* \"#utility.yul\":1718:2003   */\n      pop\n        /* \"#utility.yul\":1626:2003   */\n      swap3\n      swap2\n      pop\n      pop\n      jump\t// out\n        /* \"#utility.yul\":2009:2322   */\n    tag_34:\n        /* \"#utility.yul\":2122:2126   */\n      0x00\n        /* \"#utility.yul\":2160:2162   */\n      0x20\n        /* \"#utility.yul\":2149:2158   */\n      dup3\n        /* \"#utility.yul\":2145:2163   */\n      add\n        /* \"#utility.yul\":2137:2163   */\n      swap1\n      pop\n        /* \"#utility.yul\":2209:2218   */\n      dup2\n        /* \"#utility.yul\":2203:2207   */\n      dup2\n        /* \"#utility.yul\":2199:2219   */\n      sub\n        /* \"#utility.yul\":2195:2196   */\n      0x00\n        /* \"#utility.yul\":2184:2193   */\n      dup4\n        /* \"#utility.yul\":2180:2197   */\n      add\n        /* \"#utility.yul\":2173:2220   */\n      mstore\n        /* \"#utility.yul\":2237:2315   */\n      tag_318\n        /* \"#utility.yul\":2310:2314   */\n      dup2\n        /* \"#utility.yul\":2301:2307   */\n      dup5\n        /* \"#utility.yul\":2237:2315   */\n      tag_254\n      jump\t// in\n    tag_318:\n        /* \"#utility.yul\":2229:2315   */\n      swap1\n      pop\n        /* \"#utility.yul\":2009:2322   */\n      swap3\n      swap2\n      pop\n      pop\n      jump\t// out\n        /* \"#utility.yul\":2409:2526   */\n    tag_256:\n        /* \"#utility.yul\":2518:2519   */\n      0x00\n        /* \"#utility.yul\":2515:2516   */\n      dup1\n        /* \"#utility.yul\":2508:2520   */\n      revert\n        /* \"#utility.yul\":2655:2781   */\n    tag_258:\n        /* \"#utility.yul\":2692:2699   */\n      0x00\n        /* \"#utility.yul\":2732:2774   */\n      0xffffffffffffffffffffffffffffffffffffffff\n        /* \"#utility.yul\":2725:2730   */\n      dup3\n        /* \"#utility.yul\":2721:2775   */\n      and\n        /* \"#utility.yul\":2710:2775   */\n      swap1\n      pop\n        /* \"#utility.yul\":2655:2781   */\n      swap2\n      swap1\n      pop\n      jump\t// out\n        /* \"#utility.yul\":2787:2883   */\n    tag_259:\n        /* \"#utility.yul\":2824:2831   */\n      0x00\n        /* \"#utility.yul\":2853:2877   */\n      tag_324\n        /* \"#utility.yul\":2871:2876   */\n      dup3\n        /* \"#utility.yul\":2853:2877   */\n      tag_258\n      jump\t// in\n    tag_324:\n        /* \"#utility.yul\":2842:2877   */\n      swap1\n      pop\n        /* \"#utility.yul\":2787:2883   */\n      swap2\n      swap1\n      pop\n      jump\t// out\n        /* \"#utility.yul\":2889:3011   */\n    tag_260:\n        /* \"#utility.yul\":2962:2986   */\n      tag_326\n        /* \"#utility.yul\":2980:2985   */\n      dup2\n        /* \"#utility.yul\":2962:2986   */\n      tag_259\n      jump\t// in\n    tag_326:\n        /* \"#utility.yul\":2955:2960   */\n      dup2\n        /* \"#utility.yul\":2952:2987   */\n      eq\n        /* \"#utility.yul\":2942:3005   */\n      tag_327\n      jumpi\n        /* \"#utility.yul\":3001:3002   */\n      0x00\n        /* \"#utility.yul\":2998:2999   */\n      dup1\n        /* \"#utility.yul\":2991:3003   */\n      revert\n        /* \"#utility.yul\":2942:3005   */\n    tag_327:\n        /* \"#utility.yul\":2889:3011   */\n      pop\n      jump\t// out\n        /* \"#utility.yul\":3017:3156   */\n    tag_261:\n        /* \"#utility.yul\":3063:3068   */\n      0x00\n        /* \"#utility.yul\":3101:3107   */\n      dup2\n        /* \"#utility.yul\":3088:3108   */\n      calldataload\n        /* \"#utility.yul\":3079:3108   */\n      swap1\n      pop\n        /* \"#utility.yul\":3117:3150   */\n      tag_329\n        /* \"#utility.yul\":3144:3149   */\n      dup2\n        /* \"#utility.yul\":3117:3150   */\n      tag_260\n      jump\t// in\n    tag_329:\n        /* \"#utility.yul\":3017:3156   */\n      swap3\n      swap2\n      pop\n      pop\n      jump\t// out\n        /* \"#utility.yul\":3162:3239   */\n    tag_262:\n        /* \"#utility.yul\":3199:3206   */\n      0x00\n        /* \"#utility.yul\":3228:3233   */\n      dup2\n        /* \"#utility.yul\":3217:3233   */\n      swap1\n      pop\n        /* \"#utility.yul\":3162:3239   */\n      swap2\n      swap1\n      pop\n      jump\t// out\n        /* \"#utility.yul\":3245:3367   */\n    tag_263:\n        /* \"#utility.yul\":3318:3342   */\n      tag_332\n        /* \"#utility.yul\":3336:3341   */\n      dup2\n        /* \"#utility.yul\":3318:3342   */\n      tag_262\n      jump\t// in\n    tag_332:\n        /* \"#utility.yul\":3311:3316   */\n      dup2\n        /* \"#utility.yul\":3308:3343   */\n      eq\n        /* \"#utility.yul\":3298:3361   */\n      tag_333\n      jumpi\n        /* \"#utility.yul\":3357:3358   */\n      0x00\n        /* \"#utility.yul\":3354:3355   */\n      dup1\n        /* \"#utility.yul\":3347:3359   */\n      revert\n        /* \"#utility.yul\":3298:3361   */\n    tag_333:\n        /* \"#utility.yul\":3245:3367   */\n      pop\n      jump\t// out\n        /* \"#utility.yul\":3373:3512   */\n    tag_264:\n        /* \"#utility.yul\":3419:3424   */\n      0x00\n        /* \"#utility.yul\":3457:3463   */\n      dup2\n        /* \"#utility.yul\":3444:3464   */\n      calldataload\n        /* \"#utility.yul\":3435:3464   */\n      swap1\n      pop\n        /* \"#utility.yul\":3473:3506   */\n      tag_335\n        /* \"#utility.yul\":3500:3505   */\n      dup2\n        /* \"#utility.yul\":3473:3506   */\n      tag_263\n      jump\t// in\n    tag_335:\n        /* \"#utility.yul\":3373:3512   */\n      swap3\n      swap2\n      pop\n      pop\n      jump\t// out\n        /* \"#utility.yul\":3518:3992   */\n    tag_38:\n        /* \"#utility.yul\":3586:3592   */\n      0x00\n        /* \"#utility.yul\":3594:3600   */\n      dup1\n        /* \"#utility.yul\":3643:3645   */\n      0x40\n        /* \"#utility.yul\":3631:3640   */\n      dup4\n        /* \"#utility.yul\":3622:3629   */\n      dup6\n        /* \"#utility.yul\":3618:3641   */\n      sub\n        /* \"#utility.yul\":3614:3646   */\n      slt\n        /* \"#utility.yul\":3611:3730   */\n      iszero\n      tag_337\n      jumpi\n        /* \"#utility.yul\":3649:3728   */\n      tag_338\n      tag_256\n      jump\t// in\n    tag_338:\n        /* \"#utility.yul\":3611:3730   */\n    tag_337:\n        /* \"#utility.yul\":3769:3770   */\n      0x00\n        /* \"#utility.yul\":3794:3847   */\n      tag_339\n        /* \"#utility.yul\":3839:3846   */\n      dup6\n        /* \"#utility.yul\":3830:3836   */\n      dup3\n        /* \"#utility.yul\":3819:3828   */\n      dup7\n        /* \"#utility.yul\":3815:3837   */\n      add\n        /* \"#utility.yul\":3794:3847   */\n      tag_261\n      jump\t// in\n    tag_339:\n        /* \"#utility.yul\":3784:3847   */\n      swap3\n      pop\n        /* \"#utility.yul\":3740:3857   */\n      pop\n        /* \"#utility.yul\":3896:3898   */\n      0x20\n        /* \"#utility.yul\":3922:3975   */\n      tag_340\n        /* \"#utility.yul\":3967:3974   */\n      dup6\n        /* \"#utility.yul\":3958:3964   */\n      dup3\n        /* \"#utility.yul\":3947:3956   */\n      dup7\n        /* \"#utility.yul\":3943:3965   */\n      add\n        /* \"#utility.yul\":3922:3975   */\n      tag_264\n      jump\t// in\n    tag_340:\n        /* \"#utility.yul\":3912:3975   */\n      swap2\n      pop\n        /* \"#utility.yul\":3867:3985   */\n      pop\n        /* \"#utility.yul\":3518:3992   */\n      swap3\n      pop\n      swap3\n      swap1\n      pop\n      jump\t// out\n        /* \"#utility.yul\":3998:4088   */\n    tag_265:\n        /* \"#utility.yul\":4032:4039   */\n      0x00\n        /* \"#utility.yul\":4075:4080   */\n      dup2\n        /* \"#utility.yul\":4068:4081   */\n      iszero\n        /* \"#utility.yul\":4061:4082   */\n      iszero\n        /* \"#utility.yul\":4050:4082   */\n      swap1\n      pop\n        /* \"#utility.yul\":3998:4088   */\n      swap2\n      swap1\n      pop\n      jump\t// out\n        /* \"#utility.yul\":4094:4203   */\n    tag_266:\n        /* \"#utility.yul\":4175:4196   */\n      tag_343\n        /* \"#utility.yul\":4190:4195   */\n      dup2\n        /* \"#utility.yul\":4175:4196   */\n      tag_265\n      jump\t// in\n    tag_343:\n        /* \"#utility.yul\":4170:4173   */\n      dup3\n        /* \"#utility.yul\":4163:4197   */\n      mstore\n        /* \"#utility.yul\":4094:4203   */\n      pop\n      pop\n      jump\t// out\n        /* \"#utility.yul\":4209:4419   */\n    tag_41:\n        /* \"#utility.yul\":4296:4300   */\n      0x00\n        /* \"#utility.yul\":4334:4336   */\n      0x20\n        /* \"#utility.yul\":4323:4332   */\n      dup3\n        /* \"#utility.yul\":4319:4337   */\n      add\n        /* \"#utility.yul\":4311:4337   */\n      swap1\n      pop\n        /* \"#utility.yul\":4347:4412   */\n      tag_345\n        /* \"#utility.yul\":4409:4410   */\n      0x00\n        /* \"#utility.yul\":4398:4407   */\n      dup4\n        /* \"#utility.yul\":4394:4411   */\n      add\n        /* \"#utility.yul\":4385:4391   */\n      dup5\n        /* \"#utility.yul\":4347:4412   */\n      tag_266\n      jump\t// in\n    tag_345:\n        /* \"#utility.yul\":4209:4419   */\n      swap3\n      swap2\n      pop\n      pop\n      jump\t// out\n        /* \"#utility.yul\":4425:4543   */\n    tag_267:\n        /* \"#utility.yul\":4512:4536   */\n      tag_347\n        /* \"#utility.yul\":4530:4535   */\n      dup2\n        /* \"#utility.yul\":4512:4536   */\n      tag_262\n      jump\t// in\n    tag_347:\n        /* \"#utility.yul\":4507:4510   */\n      dup3\n        /* \"#utility.yul\":4500:4537   */\n      mstore\n        /* \"#utility.yul\":4425:4543   */\n      pop\n      pop\n      jump\t// out\n        /* \"#utility.yul\":4549:4771   */\n    tag_46:\n        /* \"#utility.yul\":4642:4646   */\n      0x00\n        /* \"#utility.yul\":4680:4682   */\n      0x20\n        /* \"#utility.yul\":4669:4678   */\n      dup3\n        /* \"#utility.yul\":4665:4683   */\n      add\n        /* \"#utility.yul\":4657:4683   */\n      swap1\n      pop\n        /* \"#utility.yul\":4693:4764   */\n      tag_349\n        /* \"#utility.yul\":4761:4762   */\n      0x00\n        /* \"#utility.yul\":4750:4759   */\n      dup4\n        /* \"#utility.yul\":4746:4763   */\n      add\n        /* \"#utility.yul\":4737:4743   */\n      dup5\n        /* \"#utility.yul\":4693:4764   */\n      tag_267\n      jump\t// in\n    tag_349:\n        /* \"#utility.yul\":4549:4771   */\n      swap3\n      swap2\n      pop\n      pop\n      jump\t// out\n        /* \"#utility.yul\":4777:5396   */\n    tag_54:\n        /* \"#utility.yul\":4854:4860   */\n      0x00\n        /* \"#utility.yul\":4862:4868   */\n      dup1\n        /* \"#utility.yul\":4870:4876   */\n      0x00\n        /* \"#utility.yul\":4919:4921   */\n      0x60\n        /* \"#utility.yul\":4907:4916   */\n      dup5\n        /* \"#utility.yul\":4898:4905   */\n      dup7\n        /* \"#utility.yul\":4894:4917   */\n      sub\n        /* \"#utility.yul\":4890:4922   */\n      slt\n        /* \"#utility.yul\":4887:5006   */\n      iszero\n      tag_351\n      jumpi\n        /* \"#utility.yul\":4925:5004   */\n      tag_352\n      tag_256\n      jump\t// in\n    tag_352:\n        /* \"#utility.yul\":4887:5006   */\n    tag_351:\n        /* \"#utility.yul\":5045:5046   */\n      0x00\n        /* \"#utility.yul\":5070:5123   */\n      tag_353\n        /* \"#utility.yul\":5115:5122   */\n      dup7\n        /* \"#utility.yul\":5106:5112   */\n      dup3\n        /* \"#utility.yul\":5095:5104   */\n      dup8\n        /* \"#utility.yul\":5091:5113   */\n      add\n        /* \"#utility.yul\":5070:5123   */\n      tag_261\n      jump\t// in\n    tag_353:\n        /* \"#utility.yul\":5060:5123   */\n      swap4\n      pop\n        /* \"#utility.yul\":5016:5133   */\n      pop\n        /* \"#utility.yul\":5172:5174   */\n      0x20\n        /* \"#utility.yul\":5198:5251   */\n      tag_354\n        /* \"#utility.yul\":5243:5250   */\n      dup7\n        /* \"#utility.yul\":5234:5240   */\n      dup3\n        /* \"#utility.yul\":5223:5232   */\n      dup8\n        /* \"#utility.yul\":5219:5241   */\n      add\n        /* \"#utility.yul\":5198:5251   */\n      tag_261\n      jump\t// in\n    tag_354:\n        /* \"#utility.yul\":5188:5251   */\n      swap3\n      pop\n        /* \"#utility.yul\":5143:5261   */\n      pop\n        /* \"#utility.yul\":5300:5302   */\n      0x40\n        /* \"#utility.yul\":5326:5379   */\n      tag_355\n        /* \"#utility.yul\":5371:5378   */\n      dup7\n        /* \"#utility.yul\":5362:5368   */\n      dup3\n        /* \"#utility.yul\":5351:5360   */\n      dup8\n        /* \"#utility.yul\":5347:5369   */\n      add\n        /* \"#utility.yul\":5326:5379   */\n      tag_264\n      jump\t// in\n    tag_355:\n        /* \"#utility.yul\":5316:5379   */\n      swap2\n      pop\n        /* \"#utility.yul\":5271:5389   */\n      pop\n        /* \"#utility.yul\":4777:5396   */\n      swap3\n      pop\n      swap3\n      pop\n      swap3\n      jump\t// out\n        /* \"#utility.yul\":5402:5488   */\n    tag_268:\n        /* \"#utility.yul\":5437:5444   */\n      0x00\n        /* \"#utility.yul\":5477:5481   */\n      0xff\n        /* \"#utility.yul\":5470:5475   */\n      dup3\n        /* \"#utility.yul\":5466:5482   */\n      and\n        /* \"#utility.yul\":5455:5482   */\n      swap1\n      pop\n        /* \"#utility.yul\":5402:5488   */\n      swap2\n      swap1\n      pop\n      jump\t// out\n        /* \"#utility.yul\":5494:5606   */\n    tag_269:\n        /* \"#utility.yul\":5577:5599   */\n      tag_358\n        /* \"#utility.yul\":5593:5598   */\n      dup2\n        /* \"#utility.yul\":5577:5599   */\n      tag_268\n      jump\t// in\n    tag_358:\n        /* \"#utility.yul\":5572:5575   */\n      dup3\n        /* \"#utility.yul\":5565:5600   */\n      mstore\n        /* \"#utility.yul\":5494:5606   */\n      pop\n      pop\n      jump\t// out\n        /* \"#utility.yul\":5612:5826   */\n    tag_61:\n        /* \"#utility.yul\":5701:5705   */\n      0x00\n        /* \"#utility.yul\":5739:5741   */\n      0x20\n        /* \"#utility.yul\":5728:5737   */\n      dup3\n        /* \"#utility.yul\":5724:5742   */\n      add\n        /* \"#utility.yul\":5716:5742   */\n      swap1\n      pop\n        /* \"#utility.yul\":5752:5819   */\n      tag_360\n        /* \"#utility.yul\":5816:5817   */\n      0x00\n        /* \"#utility.yul\":5805:5814   */\n      dup4\n        /* \"#utility.yul\":5801:5818   */\n      add\n        /* \"#utility.yul\":5792:5798   */\n      dup5\n        /* \"#utility.yul\":5752:5819   */\n      tag_269\n      jump\t// in\n    tag_360:\n        /* \"#utility.yul\":5612:5826   */\n      swap3\n      swap2\n      pop\n      pop\n      jump\t// out\n        /* \"#utility.yul\":5832:6161   */\n    tag_73:\n        /* \"#utility.yul\":5891:5897   */\n      0x00\n        /* \"#utility.yul\":5940:5942   */\n      0x20\n        /* \"#utility.yul\":5928:5937   */\n      dup3\n        /* \"#utility.yul\":5919:5926   */\n      dup5\n        /* \"#utility.yul\":5915:5938   */\n      sub\n        /* \"#utility.yul\":5911:5943   */\n      slt\n        /* \"#utility.yul\":5908:6027   */\n      iszero\n      tag_362\n      jumpi\n        /* \"#utility.yul\":5946:6025   */\n      tag_363\n      tag_256\n      jump\t// in\n    tag_363:\n        /* \"#utility.yul\":5908:6027   */\n    tag_362:\n        /* \"#utility.yul\":6066:6067   */\n      0x00\n        /* \"#utility.yul\":6091:6144   */\n      tag_364\n        /* \"#utility.yul\":6136:6143   */\n      dup5\n        /* \"#utility.yul\":6127:6133   */\n      dup3\n        /* \"#utility.yul\":6116:6125   */\n      dup6\n        /* \"#utility.yul\":6112:6134   */\n      add\n        /* \"#utility.yul\":6091:6144   */\n      tag_261\n      jump\t// in\n    tag_364:\n        /* \"#utility.yul\":6081:6144   */\n      swap2\n      pop\n        /* \"#utility.yul\":6037:6154   */\n      pop\n        /* \"#utility.yul\":5832:6161   */\n      swap3\n      swap2\n      pop\n      pop\n      jump\t// out\n        /* \"#utility.yul\":6167:6641   */\n    tag_97:\n        /* \"#utility.yul\":6235:6241   */\n      0x00\n        /* \"#utility.yul\":6243:6249   */\n      dup1\n        /* \"#utility.yul\":6292:6294   */\n      0x40\n        /* \"#utility.yul\":6280:6289   */\n      dup4\n        /* \"#utility.yul\":6271:6278   */\n      dup6\n        /* \"#utility.yul\":6267:6290   */\n      sub\n        /* \"#utility.yul\":6263:6295   */\n      slt\n        /* \"#utility.yul\":6260:6379   */\n      iszero\n      tag_366\n      jumpi\n        /* \"#utility.yul\":6298:6377   */\n      tag_367\n      tag_256\n      jump\t// in\n    tag_367:\n        /* \"#utility.yul\":6260:6379   */\n    tag_366:\n        /* \"#utility.yul\":6418:6419   */\n      0x00\n        /* \"#utility.yul\":6443:6496   */\n      tag_368\n        /* \"#utility.yul\":6488:6495   */\n      dup6\n        /* \"#utility.yul\":6479:6485   */\n      dup3\n        /* \"#utility.yul\":6468:6477   */\n      dup7\n        /* \"#utility.yul\":6464:6486   */\n      add\n        /* \"#utility.yul\":6443:6496   */\n      tag_261\n      jump\t// in\n    tag_368:\n        /* \"#utility.yul\":6433:6496   */\n      swap3\n      pop\n        /* \"#utility.yul\":6389:6506   */\n      pop\n        /* \"#utility.yul\":6545:6547   */\n      0x20\n        /* \"#utility.yul\":6571:6624   */\n      tag_369\n        /* \"#utility.yul\":6616:6623   */\n      dup6\n        /* \"#utility.yul\":6607:6613   */\n      dup3\n        /* \"#utility.yul\":6596:6605   */\n      dup7\n        /* \"#utility.yul\":6592:6614   */\n      add\n        /* \"#utility.yul\":6571:6624   */\n      tag_261\n      jump\t// in\n    tag_369:\n        /* \"#utility.yul\":6561:6624   */\n      swap2\n      pop\n        /* \"#utility.yul\":6516:6634   */\n      pop\n        /* \"#utility.yul\":6167:6641   */\n      swap3\n      pop\n      swap3\n      swap1\n      pop\n      jump\t// out\n        /* \"#utility.yul\":6647:6976   */\n    tag_105:\n        /* \"#utility.yul\":6706:6712   */\n      0x00\n        /* \"#utility.yul\":6755:6757   */\n      0x20\n        /* \"#utility.yul\":6743:6752   */\n      dup3\n        /* \"#utility.yul\":6734:6741   */\n      dup5\n        /* \"#utility.yul\":6730:6753   */\n      sub\n        /* \"#utility.yul\":6726:6758   */\n      slt\n        /* \"#utility.yul\":6723:6842   */\n      iszero\n      tag_371\n      jumpi\n        /* \"#utility.yul\":6761:6840   */\n      tag_372\n      tag_256\n      jump\t// in\n    tag_372:\n        /* \"#utility.yul\":6723:6842   */\n    tag_371:\n        /* \"#utility.yul\":6881:6882   */\n      0x00\n        /* \"#utility.yul\":6906:6959   */\n      tag_373\n        /* \"#utility.yul\":6951:6958   */\n      dup5\n        /* \"#utility.yul\":6942:6948   */\n      dup3\n        /* \"#utility.yul\":6931:6940   */\n      dup6\n        /* \"#utility.yul\":6927:6949   */\n      add\n        /* \"#utility.yul\":6906:6959   */\n      tag_264\n      jump\t// in\n    tag_373:\n        /* \"#utility.yul\":6896:6959   */\n      swap2\n      pop\n        /* \"#utility.yul\":6852:6969   */\n      pop\n        /* \"#utility.yul\":6647:6976   */\n      swap3\n      swap2\n      pop\n      pop\n      jump\t// out\n        /* \"#utility.yul\":6982:7086   */\n    tag_270:\n        /* \"#utility.yul\":7027:7034   */\n      0x00\n        /* \"#utility.yul\":7056:7080   */\n      tag_375\n        /* \"#utility.yul\":7074:7079   */\n      dup3\n        /* \"#utility.yul\":7056:7080   */\n      tag_258\n      jump\t// in\n    tag_375:\n        /* \"#utility.yul\":7045:7080   */\n      swap1\n      pop\n        /* \"#utility.yul\":6982:7086   */\n      swap2\n      swap1\n      pop\n      jump\t// out\n        /* \"#utility.yul\":7092:7234   */\n    tag_271:\n        /* \"#utility.yul\":7195:7227   */\n      tag_377\n        /* \"#utility.yul\":7221:7226   */\n      dup2\n        /* \"#utility.yul\":7195:7227   */\n      tag_270\n      jump\t// in\n    tag_377:\n        /* \"#utility.yul\":7190:7193   */\n      dup3\n        /* \"#utility.yul\":7183:7228   */\n      mstore\n        /* \"#utility.yul\":7092:7234   */\n      pop\n      pop\n      jump\t// out\n        /* \"#utility.yul\":7240:7494   */\n    tag_108:\n        /* \"#utility.yul\":7349:7353   */\n      0x00\n        /* \"#utility.yul\":7387:7389   */\n      0x20\n        /* \"#utility.yul\":7376:7385   */\n      dup3\n        /* \"#utility.yul\":7372:7390   */\n      add\n        /* \"#utility.yul\":7364:7390   */\n      swap1\n      pop\n        /* \"#utility.yul\":7400:7487   */\n      tag_379\n        /* \"#utility.yul\":7484:7485   */\n      0x00\n        /* \"#utility.yul\":7473:7482   */\n      dup4\n        /* \"#utility.yul\":7469:7486   */\n      add\n        /* \"#utility.yul\":7460:7466   */\n      dup5\n        /* \"#utility.yul\":7400:7487   */\n      tag_271\n      jump\t// in\n    tag_379:\n        /* \"#utility.yul\":7240:7494   */\n      swap3\n      swap2\n      pop\n      pop\n      jump\t// out\n        /* \"#utility.yul\":7500:7618   */\n    tag_272:\n        /* \"#utility.yul\":7587:7611   */\n      tag_381\n        /* \"#utility.yul\":7605:7610   */\n      dup2\n        /* \"#utility.yul\":7587:7611   */\n      tag_259\n      jump\t// in\n    tag_381:\n        /* \"#utility.yul\":7582:7585   */\n      dup3\n        /* \"#utility.yul\":7575:7612   */\n      mstore\n        /* \"#utility.yul\":7500:7618   */\n      pop\n      pop\n      jump\t// out\n        /* \"#utility.yul\":7624:7846   */\n    tag_113:\n        /* \"#utility.yul\":7717:7721   */\n      0x00\n        /* \"#utility.yul\":7755:7757   */\n      0x20\n        /* \"#utility.yul\":7744:7753   */\n      dup3\n        /* \"#utility.yul\":7740:7758   */\n      add\n        /* \"#utility.yul\":7732:7758   */\n      swap1\n      pop\n        /* \"#utility.yul\":7768:7839   */\n      tag_383\n        /* \"#utility.yul\":7836:7837   */\n      0x00\n        /* \"#utility.yul\":7825:7834   */\n      dup4\n        /* \"#utility.yul\":7821:7838   */\n      add\n        /* \"#utility.yul\":7812:7818   */\n      dup5\n        /* \"#utility.yul\":7768:7839   */\n      tag_272\n      jump\t// in\n    tag_383:\n        /* \"#utility.yul\":7624:7846   */\n      swap3\n      swap2\n      pop\n      pop\n      jump\t// out\n        /* \"#utility.yul\":7852:8032   */\n    tag_273:\n        /* \"#utility.yul\":7900:7977   */\n      0x4e487b7100000000000000000000000000000000000000000000000000000000\n        /* \"#utility.yul\":7897:7898   */\n      0x00\n        /* \"#utility.yul\":7890:7978   */\n      mstore\n        /* \"#utility.yul\":7997:8001   */\n      0x22\n        /* \"#utility.yul\":7994:7995   */\n      0x04\n        /* \"#utility.yul\":7987:8002   */\n      mstore\n        /* \"#utility.yul\":8021:8025   */\n      0x24\n        /* \"#utility.yul\":8018:8019   */\n      0x00\n        /* \"#utility.yul\":8011:8026   */\n      revert\n        /* \"#utility.yul\":8038:8358   */\n    tag_116:\n        /* \"#utility.yul\":8082:8088   */\n      0x00\n        /* \"#utility.yul\":8119:8120   */\n      0x02\n        /* \"#utility.yul\":8113:8117   */\n      dup3\n        /* \"#utility.yul\":8109:8121   */\n      div\n        /* \"#utility.yul\":8099:8121   */\n      swap1\n      pop\n        /* \"#utility.yul\":8166:8167   */\n      0x01\n        /* \"#utility.yul\":8160:8164   */\n      dup3\n        /* \"#utility.yul\":8156:8168   */\n      and\n        /* \"#utility.yul\":8187:8205   */\n      dup1\n        /* \"#utility.yul\":8177:8258   */\n      tag_386\n      jumpi\n        /* \"#utility.yul\":8243:8247   */\n      0x7f\n        /* \"#utility.yul\":8235:8241   */\n      dup3\n        /* \"#utility.yul\":8231:8248   */\n      and\n        /* \"#utility.yul\":8221:8248   */\n      swap2\n      pop\n        /* \"#utility.yul\":8177:8258   */\n    tag_386:\n        /* \"#utility.yul\":8305:8307   */\n      0x20\n        /* \"#utility.yul\":8297:8303   */\n      dup3\n        /* \"#utility.yul\":8294:8308   */\n      lt\n        /* \"#utility.yul\":8274:8292   */\n      dup2\n        /* \"#utility.yul\":8271:8309   */\n      sub\n        /* \"#utility.yul\":8268:8352   */\n      tag_387\n      jumpi\n        /* \"#utility.yul\":8324:8342   */\n      tag_388\n      tag_273\n      jump\t// in\n    tag_388:\n        /* \"#utility.yul\":8268:8352   */\n    tag_387:\n        /* \"#utility.yul\":8089:8358   */\n      pop\n        /* \"#utility.yul\":8038:8358   */\n      swap2\n      swap1\n      pop\n      jump\t// out\n        /* \"#utility.yul\":8364:8544   */\n    tag_274:\n        /* \"#utility.yul\":8412:8489   */\n      0x4e487b7100000000000000000000000000000000000000000000000000000000\n        /* \"#utility.yul\":8409:8410   */\n      0x00\n        /* \"#utility.yul\":8402:8490   */\n      mstore\n        /* \"#utility.yul\":8509:8513   */\n      0x11\n        /* \"#utility.yul\":8506:8507   */\n      0x04\n        /* \"#utility.yul\":8499:8514   */\n      mstore\n        /* \"#utility.yul\":8533:8537   */\n      0x24\n        /* \"#utility.yul\":8530:8531   */\n      0x00\n        /* \"#utility.yul\":8523:8538   */\n      revert\n        /* \"#utility.yul\":8550:8741   */\n    tag_140:\n        /* \"#utility.yul\":8590:8593   */\n      0x00\n        /* \"#utility.yul\":8609:8629   */\n      tag_391\n        /* \"#utility.yul\":8627:8628   */\n      dup3\n        /* \"#utility.yul\":8609:8629   */\n      tag_262\n      jump\t// in\n    tag_391:\n        /* \"#utility.yul\":8604:8629   */\n      swap2\n      pop\n        /* \"#utility.yul\":8643:8663   */\n      tag_392\n        /* \"#utility.yul\":8661:8662   */\n      dup4\n        /* \"#utility.yul\":8643:8663   */\n      tag_262\n      jump\t// in\n    tag_392:\n        /* \"#utility.yul\":8638:8663   */\n      swap3\n      pop\n        /* \"#utility.yul\":8686:8687   */\n      dup3\n        /* \"#utility.yul\":8683:8684   */\n      dup3\n        /* \"#utility.yul\":8679:8688   */\n      add\n        /* \"#utility.yul\":8672:8688   */\n      swap1\n      pop\n        /* \"#utility.yul\":8707:8710   */\n      dup1\n        /* \"#utility.yul\":8704:8705   */\n      dup3\n        /* \"#utility.yul\":8701:8711   */\n      gt\n        /* \"#utility.yul\":8698:8734   */\n      iszero\n      tag_393\n      jumpi\n        /* \"#utility.yul\":8714:8732   */\n      tag_394\n      tag_274\n      jump\t// in\n    tag_394:\n        /* \"#utility.yul\":8698:8734   */\n    tag_393:\n        /* \"#utility.yul\":8550:8741   */\n      swap3\n      swap2\n      pop\n      pop\n      jump\t// out\n        /* \"#utility.yul\":8747:8918   */\n    tag_275:\n        /* \"#utility.yul\":8887:8910   */\n      0x596f7520617265206e6f7420746865206f776e65720000000000000000000000\n        /* \"#utility.yul\":8883:8884   */\n      0x00\n        /* \"#utility.yul\":8875:8881   */\n      dup3\n        /* \"#utility.yul\":8871:8885   */\n      add\n        /* \"#utility.yul\":8864:8911   */\n      mstore\n        /* \"#utility.yul\":8747:8918   */\n      pop\n      jump\t// out\n        /* \"#utility.yul\":8924:9290   */\n    tag_276:\n        /* \"#utility.yul\":9066:9069   */\n      0x00\n        /* \"#utility.yul\":9087:9154   */\n      tag_397\n        /* \"#utility.yul\":9151:9153   */\n      0x15\n        /* \"#utility.yul\":9146:9149   */\n      dup4\n        /* \"#utility.yul\":9087:9154   */\n      tag_248\n      jump\t// in\n    tag_397:\n        /* \"#utility.yul\":9080:9154   */\n      swap2\n      pop\n        /* \"#utility.yul\":9163:9256   */\n      tag_398\n        /* \"#utility.yul\":9252:9255   */\n      dup3\n        /* \"#utility.yul\":9163:9256   */\n      tag_275\n      jump\t// in\n    tag_398:\n        /* \"#utility.yul\":9281:9283   */\n      0x20\n        /* \"#utility.yul\":9276:9279   */\n      dup3\n        /* \"#utility.yul\":9272:9284   */\n      add\n        /* \"#utility.yul\":9265:9284   */\n      swap1\n      pop\n        /* \"#utility.yul\":8924:9290   */\n      swap2\n      swap1\n      pop\n      jump\t// out\n        /* \"#utility.yul\":9296:9715   */\n    tag_144:\n        /* \"#utility.yul\":9462:9466   */\n      0x00\n        /* \"#utility.yul\":9500:9502   */\n      0x20\n        /* \"#utility.yul\":9489:9498   */\n      dup3\n        /* \"#utility.yul\":9485:9503   */\n      add\n        /* \"#utility.yul\":9477:9503   */\n      swap1\n      pop\n        /* \"#utility.yul\":9549:9558   */\n      dup2\n        /* \"#utility.yul\":9543:9547   */\n      dup2\n        /* \"#utility.yul\":9539:9559   */\n      sub\n        /* \"#utility.yul\":9535:9536   */\n      0x00\n        /* \"#utility.yul\":9524:9533   */\n      dup4\n        /* \"#utility.yul\":9520:9537   */\n      add\n        /* \"#utility.yul\":9513:9560   */\n      mstore\n        /* \"#utility.yul\":9577:9708   */\n      tag_400\n        /* \"#utility.yul\":9703:9707   */\n      dup2\n        /* \"#utility.yul\":9577:9708   */\n      tag_276\n      jump\t// in\n    tag_400:\n        /* \"#utility.yul\":9569:9708   */\n      swap1\n      pop\n        /* \"#utility.yul\":9296:9715   */\n      swap2\n      swap1\n      pop\n      jump\t// out\n        /* \"#utility.yul\":9721:9941   */\n    tag_277:\n        /* \"#utility.yul\":9861:9895   */\n      0x4e6f7420656e6f75676820706c617965727320696e20746865206c6f74746572\n        /* \"#utility.yul\":9857:9858   */\n      0x00\n        /* \"#utility.yul\":9849:9855   */\n      dup3\n        /* \"#utility.yul\":9845:9859   */\n      add\n        /* \"#utility.yul\":9838:9896   */\n      mstore\n        /* \"#utility.yul\":9930:9933   */\n      0x7900000000000000000000000000000000000000000000000000000000000000\n        /* \"#utility.yul\":9925:9927   */\n      0x20\n        /* \"#utility.yul\":9917:9923   */\n      dup3\n        /* \"#utility.yul\":9913:9928   */\n      add\n        /* \"#utility.yul\":9906:9934   */\n      mstore\n        /* \"#utility.yul\":9721:9941   */\n      pop\n      jump\t// out\n        /* \"#utility.yul\":9947:10313   */\n    tag_278:\n        /* \"#utility.yul\":10089:10092   */\n      0x00\n        /* \"#utility.yul\":10110:10177   */\n      tag_403\n        /* \"#utility.yul\":10174:10176   */\n      0x21\n        /* \"#utility.yul\":10169:10172   */\n      dup4\n        /* \"#utility.yul\":10110:10177   */\n      tag_248\n      jump\t// in\n    tag_403:\n        /* \"#utility.yul\":10103:10177   */\n      swap2\n      pop\n        /* \"#utility.yul\":10186:10279   */\n      tag_404\n        /* \"#utility.yul\":10275:10278   */\n      dup3\n        /* \"#utility.yul\":10186:10279   */\n      tag_277\n      jump\t// in\n    tag_404:\n        /* \"#utility.yul\":10304:10306   */\n      0x40\n        /* \"#utility.yul\":10299:10302   */\n      dup3\n        /* \"#utility.yul\":10295:10307   */\n      add\n        /* \"#utility.yul\":10288:10307   */\n      swap1\n      pop\n        /* \"#utility.yul\":9947:10313   */\n      swap2\n      swap1\n      pop\n      jump\t// out\n        /* \"#utility.yul\":10319:10738   */\n    tag_148:\n        /* \"#utility.yul\":10485:10489   */\n      0x00\n        /* \"#utility.yul\":10523:10525   */\n      0x20\n        /* \"#utility.yul\":10512:10521   */\n      dup3\n        /* \"#utility.yul\":10508:10526   */\n      add\n        /* \"#utility.yul\":10500:10526   */\n      swap1\n      pop\n        /* \"#utility.yul\":10572:10581   */\n      dup2\n        /* \"#utility.yul\":10566:10570   */\n      dup2\n        /* \"#utility.yul\":10562:10582   */\n      sub\n        /* \"#utility.yul\":10558:10559   */\n      0x00\n        /* \"#utility.yul\":10547:10556   */\n      dup4\n        /* \"#utility.yul\":10543:10560   */\n      add\n        /* \"#utility.yul\":10536:10583   */\n      mstore\n        /* \"#utility.yul\":10600:10731   */\n      tag_406\n        /* \"#utility.yul\":10726:10730   */\n      dup2\n        /* \"#utility.yul\":10600:10731   */\n      tag_278\n      jump\t// in\n    tag_406:\n        /* \"#utility.yul\":10592:10731   */\n      swap1\n      pop\n        /* \"#utility.yul\":10319:10738   */\n      swap2\n      swap1\n      pop\n      jump\t// out\n        /* \"#utility.yul\":10744:10924   */\n    tag_279:\n        /* \"#utility.yul\":10792:10869   */\n      0x4e487b7100000000000000000000000000000000000000000000000000000000\n        /* \"#utility.yul\":10789:10790   */\n      0x00\n        /* \"#utility.yul\":10782:10870   */\n      mstore\n        /* \"#utility.yul\":10889:10893   */\n      0x12\n        /* \"#utility.yul\":10886:10887   */\n      0x04\n        /* \"#utility.yul\":10879:10894   */\n      mstore\n        /* \"#utility.yul\":10913:10917   */\n      0x24\n        /* \"#utility.yul\":10910:10911   */\n      0x00\n        /* \"#utility.yul\":10903:10918   */\n      revert\n        /* \"#utility.yul\":10930:11106   */\n    tag_152:\n        /* \"#utility.yul\":10962:10963   */\n      0x00\n        /* \"#utility.yul\":10979:10999   */\n      tag_409\n        /* \"#utility.yul\":10997:10998   */\n      dup3\n        /* \"#utility.yul\":10979:10999   */\n      tag_262\n      jump\t// in\n    tag_409:\n        /* \"#utility.yul\":10974:10999   */\n      swap2\n      pop\n        /* \"#utility.yul\":11013:11033   */\n      tag_410\n        /* \"#utility.yul\":11031:11032   */\n      dup4\n        /* \"#utility.yul\":11013:11033   */\n      tag_262\n      jump\t// in\n    tag_410:\n        /* \"#utility.yul\":11008:11033   */\n      swap3\n      pop\n        /* \"#utility.yul\":11052:11053   */\n      dup3\n        /* \"#utility.yul\":11042:11077   */\n      tag_411\n      jumpi\n        /* \"#utility.yul\":11057:11075   */\n      tag_412\n      tag_279\n      jump\t// in\n    tag_412:\n        /* \"#utility.yul\":11042:11077   */\n    tag_411:\n        /* \"#utility.yul\":11098:11099   */\n      dup3\n        /* \"#utility.yul\":11095:11096   */\n      dup3\n        /* \"#utility.yul\":11091:11100   */\n      mod\n        /* \"#utility.yul\":11086:11100   */\n      swap1\n      pop\n        /* \"#utility.yul\":10930:11106   */\n      swap3\n      swap2\n      pop\n      pop\n      jump\t// out\n        /* \"#utility.yul\":11112:11292   */\n    tag_155:\n        /* \"#utility.yul\":11160:11237   */\n      0x4e487b7100000000000000000000000000000000000000000000000000000000\n        /* \"#utility.yul\":11157:11158   */\n      0x00\n        /* \"#utility.yul\":11150:11238   */\n      mstore\n        /* \"#utility.yul\":11257:11261   */\n      0x32\n        /* \"#utility.yul\":11254:11255   */\n      0x04\n        /* \"#utility.yul\":11247:11262   */\n      mstore\n        /* \"#utility.yul\":11281:11285   */\n      0x24\n        /* \"#utility.yul\":11278:11279   */\n      0x00\n        /* \"#utility.yul\":11271:11286   */\n      revert\n        /* \"#utility.yul\":11298:11708   */\n    tag_159:\n        /* \"#utility.yul\":11338:11345   */\n      0x00\n        /* \"#utility.yul\":11361:11381   */\n      tag_415\n        /* \"#utility.yul\":11379:11380   */\n      dup3\n        /* \"#utility.yul\":11361:11381   */\n      tag_262\n      jump\t// in\n    tag_415:\n        /* \"#utility.yul\":11356:11381   */\n      swap2\n      pop\n        /* \"#utility.yul\":11395:11415   */\n      tag_416\n        /* \"#utility.yul\":11413:11414   */\n      dup4\n        /* \"#utility.yul\":11395:11415   */\n      tag_262\n      jump\t// in\n    tag_416:\n        /* \"#utility.yul\":11390:11415   */\n      swap3\n      pop\n        /* \"#utility.yul\":11450:11451   */\n      dup3\n        /* \"#utility.yul\":11447:11448   */\n      dup3\n        /* \"#utility.yul\":11443:11452   */\n      mul\n        /* \"#utility.yul\":11472:11502   */\n      tag_417\n        /* \"#utility.yul\":11490:11501   */\n      dup2\n        /* \"#utility.yul\":11472:11502   */\n      tag_262\n      jump\t// in\n    tag_417:\n        /* \"#utility.yul\":11461:11502   */\n      swap2\n      pop\n        /* \"#utility.yul\":11651:11652   */\n      dup3\n        /* \"#utility.yul\":11642:11649   */\n      dup3\n        /* \"#utility.yul\":11638:11653   */\n      div\n        /* \"#utility.yul\":11635:11636   */\n      dup5\n        /* \"#utility.yul\":11632:11654   */\n      eq\n        /* \"#utility.yul\":11612:11613   */\n      dup4\n        /* \"#utility.yul\":11605:11614   */\n      iszero\n        /* \"#utility.yul\":11585:11668   */\n      or\n        /* \"#utility.yul\":11562:11701   */\n      tag_418\n      jumpi\n        /* \"#utility.yul\":11681:11699   */\n      tag_419\n      tag_274\n      jump\t// in\n    tag_419:\n        /* \"#utility.yul\":11562:11701   */\n    tag_418:\n        /* \"#utility.yul\":11346:11708   */\n      pop\n        /* \"#utility.yul\":11298:11708   */\n      swap3\n      swap2\n      pop\n      pop\n      jump\t// out\n        /* \"#utility.yul\":11714:11899   */\n    tag_161:\n        /* \"#utility.yul\":11754:11755   */\n      0x00\n        /* \"#utility.yul\":11771:11791   */\n      tag_421\n        /* \"#utility.yul\":11789:11790   */\n      dup3\n        /* \"#utility.yul\":11771:11791   */\n      tag_262\n      jump\t// in\n    tag_421:\n        /* \"#utility.yul\":11766:11791   */\n      swap2\n      pop\n        /* \"#utility.yul\":11805:11825   */\n      tag_422\n        /* \"#utility.yul\":11823:11824   */\n      dup4\n        /* \"#utility.yul\":11805:11825   */\n      tag_262\n      jump\t// in\n    tag_422:\n        /* \"#utility.yul\":11800:11825   */\n      swap3\n      pop\n        /* \"#utility.yul\":11844:11845   */\n      dup3\n        /* \"#utility.yul\":11834:11869   */\n      tag_423\n      jumpi\n        /* \"#utility.yul\":11849:11867   */\n      tag_424\n      tag_279\n      jump\t// in\n    tag_424:\n        /* \"#utility.yul\":11834:11869   */\n    tag_423:\n        /* \"#utility.yul\":11891:11892   */\n      dup3\n        /* \"#utility.yul\":11888:11889   */\n      dup3\n        /* \"#utility.yul\":11884:11893   */\n      div\n        /* \"#utility.yul\":11879:11893   */\n      swap1\n      pop\n        /* \"#utility.yul\":11714:11899   */\n      swap3\n      swap2\n      pop\n      pop\n      jump\t// out\n        /* \"#utility.yul\":11905:12129   */\n    tag_280:\n        /* \"#utility.yul\":12045:12079   */\n      0x45524332303a2064656372656173656420616c6c6f77616e63652062656c6f77\n        /* \"#utility.yul\":12041:12042   */\n      0x00\n        /* \"#utility.yul\":12033:12039   */\n      dup3\n        /* \"#utility.yul\":12029:12043   */\n      add\n        /* \"#utility.yul\":12022:12080   */\n      mstore\n        /* \"#utility.yul\":12114:12121   */\n      0x207a65726f000000000000000000000000000000000000000000000000000000\n        /* \"#utility.yul\":12109:12111   */\n      0x20\n        /* \"#utility.yul\":12101:12107   */\n      dup3\n        /* \"#utility.yul\":12097:12112   */\n      add\n        /* \"#utility.yul\":12090:12122   */\n      mstore\n        /* \"#utility.yul\":11905:12129   */\n      pop\n      jump\t// out\n        /* \"#utility.yul\":12135:12501   */\n    tag_281:\n        /* \"#utility.yul\":12277:12280   */\n      0x00\n        /* \"#utility.yul\":12298:12365   */\n      tag_427\n        /* \"#utility.yul\":12362:12364   */\n      0x25\n        /* \"#utility.yul\":12357:12360   */\n      dup4\n        /* \"#utility.yul\":12298:12365   */\n      tag_248\n      jump\t// in\n    tag_427:\n        /* \"#utility.yul\":12291:12365   */\n      swap2\n      pop\n        /* \"#utility.yul\":12374:12467   */\n      tag_428\n        /* \"#utility.yul\":12463:12466   */\n      dup3\n        /* \"#utility.yul\":12374:12467   */\n      tag_280\n      jump\t// in\n    tag_428:\n        /* \"#utility.yul\":12492:12494   */\n      0x40\n        /* \"#utility.yul\":12487:12490   */\n      dup3\n        /* \"#utility.yul\":12483:12495   */\n      add\n        /* \"#utility.yul\":12476:12495   */\n      swap1\n      pop\n        /* \"#utility.yul\":12135:12501   */\n      swap2\n      swap1\n      pop\n      jump\t// out\n        /* \"#utility.yul\":12507:12926   */\n    tag_183:\n        /* \"#utility.yul\":12673:12677   */\n      0x00\n        /* \"#utility.yul\":12711:12713   */\n      0x20\n        /* \"#utility.yul\":12700:12709   */\n      dup3\n        /* \"#utility.yul\":12696:12714   */\n      add\n        /* \"#utility.yul\":12688:12714   */\n      swap1\n      pop\n        /* \"#utility.yul\":12760:12769   */\n      dup2\n        /* \"#utility.yul\":12754:12758   */\n      dup2\n        /* \"#utility.yul\":12750:12770   */\n      sub\n        /* \"#utility.yul\":12746:12747   */\n      0x00\n        /* \"#utility.yul\":12735:12744   */\n      dup4\n        /* \"#utility.yul\":12731:12748   */\n      add\n        /* \"#utility.yul\":12724:12771   */\n      mstore\n        /* \"#utility.yul\":12788:12919   */\n      tag_430\n        /* \"#utility.yul\":12914:12918   */\n      dup2\n        /* \"#utility.yul\":12788:12919   */\n      tag_281\n      jump\t// in\n    tag_430:\n        /* \"#utility.yul\":12780:12919   */\n      swap1\n      pop\n        /* \"#utility.yul\":12507:12926   */\n      swap2\n      swap1\n      pop\n      jump\t// out\n        /* \"#utility.yul\":12932:13103   */\n    tag_282:\n        /* \"#utility.yul\":13072:13095   */\n      0x6d73672e76616c7565203c20302e312065746865720000000000000000000000\n        /* \"#utility.yul\":13068:13069   */\n      0x00\n        /* \"#utility.yul\":13060:13066   */\n      dup3\n        /* \"#utility.yul\":13056:13070   */\n      add\n        /* \"#utility.yul\":13049:13096   */\n      mstore\n        /* \"#utility.yul\":12932:13103   */\n      pop\n      jump\t// out\n        /* \"#utility.yul\":13109:13475   */\n    tag_283:\n        /* \"#utility.yul\":13251:13254   */\n      0x00\n        /* \"#utility.yul\":13272:13339   */\n      tag_433\n        /* \"#utility.yul\":13336:13338   */\n      0x15\n        /* \"#utility.yul\":13331:13334   */\n      dup4\n        /* \"#utility.yul\":13272:13339   */\n      tag_248\n      jump\t// in\n    tag_433:\n        /* \"#utility.yul\":13265:13339   */\n      swap2\n      pop\n        /* \"#utility.yul\":13348:13441   */\n      tag_434\n        /* \"#utility.yul\":13437:13440   */\n      dup3\n        /* \"#utility.yul\":13348:13441   */\n      tag_282\n      jump\t// in\n    tag_434:\n        /* \"#utility.yul\":13466:13468   */\n      0x20\n        /* \"#utility.yul\":13461:13464   */\n      dup3\n        /* \"#utility.yul\":13457:13469   */\n      add\n        /* \"#utility.yul\":13450:13469   */\n      swap1\n      pop\n        /* \"#utility.yul\":13109:13475   */\n      swap2\n      swap1\n      pop\n      jump\t// out\n        /* \"#utility.yul\":13481:13900   */\n    tag_192:\n        /* \"#utility.yul\":13647:13651   */\n      0x00\n        /* \"#utility.yul\":13685:13687   */\n      0x20\n        /* \"#utility.yul\":13674:13683   */\n      dup3\n        /* \"#utility.yul\":13670:13688   */\n      add\n        /* \"#utility.yul\":13662:13688   */\n      swap1\n      pop\n        /* \"#utility.yul\":13734:13743   */\n      dup2\n        /* \"#utility.yul\":13728:13732   */\n      dup2\n        /* \"#utility.yul\":13724:13744   */\n      sub\n        /* \"#utility.yul\":13720:13721   */\n      0x00\n        /* \"#utility.yul\":13709:13718   */\n      dup4\n        /* \"#utility.yul\":13705:13722   */\n      add\n        /* \"#utility.yul\":13698:13745   */\n      mstore\n        /* \"#utility.yul\":13762:13893   */\n      tag_436\n        /* \"#utility.yul\":13888:13892   */\n      dup2\n        /* \"#utility.yul\":13762:13893   */\n      tag_283\n      jump\t// in\n    tag_436:\n        /* \"#utility.yul\":13754:13893   */\n      swap1\n      pop\n        /* \"#utility.yul\":13481:13900   */\n      swap2\n      swap1\n      pop\n      jump\t// out\n        /* \"#utility.yul\":13906:14129   */\n    tag_284:\n        /* \"#utility.yul\":14046:14080   */\n      0x45524332303a20617070726f76652066726f6d20746865207a65726f20616464\n        /* \"#utility.yul\":14042:14043   */\n      0x00\n        /* \"#utility.yul\":14034:14040   */\n      dup3\n        /* \"#utility.yul\":14030:14044   */\n      add\n        /* \"#utility.yul\":14023:14081   */\n      mstore\n        /* \"#utility.yul\":14115:14121   */\n      0x7265737300000000000000000000000000000000000000000000000000000000\n        /* \"#utility.yul\":14110:14112   */\n      0x20\n        /* \"#utility.yul\":14102:14108   */\n      dup3\n        /* \"#utility.yul\":14098:14113   */\n      add\n        /* \"#utility.yul\":14091:14122   */\n      mstore\n        /* \"#utility.yul\":13906:14129   */\n      pop\n      jump\t// out\n        /* \"#utility.yul\":14135:14501   */\n    tag_285:\n        /* \"#utility.yul\":14277:14280   */\n      0x00\n        /* \"#utility.yul\":14298:14365   */\n      tag_439\n        /* \"#utility.yul\":14362:14364   */\n      0x24\n        /* \"#utility.yul\":14357:14360   */\n      dup4\n        /* \"#utility.yul\":14298:14365   */\n      tag_248\n      jump\t// in\n    tag_439:\n        /* \"#utility.yul\":14291:14365   */\n      swap2\n      pop\n        /* \"#utility.yul\":14374:14467   */\n      tag_440\n        /* \"#utility.yul\":14463:14466   */\n      dup3\n        /* \"#utility.yul\":14374:14467   */\n      tag_284\n      jump\t// in\n    tag_440:\n        /* \"#utility.yul\":14492:14494   */\n      0x40\n        /* \"#utility.yul\":14487:14490   */\n      dup3\n        /* \"#utility.yul\":14483:14495   */\n      add\n        /* \"#utility.yul\":14476:14495   */\n      swap1\n      pop\n        /* \"#utility.yul\":14135:14501   */\n      swap2\n      swap1\n      pop\n      jump\t// out\n        /* \"#utility.yul\":14507:14926   */\n    tag_201:\n        /* \"#utility.yul\":14673:14677   */\n      0x00\n        /* \"#utility.yul\":14711:14713   */\n      0x20\n        /* \"#utility.yul\":14700:14709   */\n      dup3\n        /* \"#utility.yul\":14696:14714   */\n      add\n        /* \"#utility.yul\":14688:14714   */\n      swap1\n      pop\n        /* \"#utility.yul\":14760:14769   */\n      dup2\n        /* \"#utility.yul\":14754:14758   */\n      dup2\n        /* \"#utility.yul\":14750:14770   */\n      sub\n        /* \"#utility.yul\":14746:14747   */\n      0x00\n        /* \"#utility.yul\":14735:14744   */\n      dup4\n        /* \"#utility.yul\":14731:14748   */\n      add\n        /* \"#utility.yul\":14724:14771   */\n      mstore\n        /* \"#utility.yul\":14788:14919   */\n      tag_442\n        /* \"#utility.yul\":14914:14918   */\n      dup2\n        /* \"#utility.yul\":14788:14919   */\n      tag_285\n      jump\t// in\n    tag_442:\n        /* \"#utility.yul\":14780:14919   */\n      swap1\n      pop\n        /* \"#utility.yul\":14507:14926   */\n      swap2\n      swap1\n      pop\n      jump\t// out\n        /* \"#utility.yul\":14932:15153   */\n    tag_286:\n        /* \"#utility.yul\":15072:15106   */\n      0x45524332303a20617070726f766520746f20746865207a65726f206164647265\n        /* \"#utility.yul\":15068:15069   */\n      0x00\n        /* \"#utility.yul\":15060:15066   */\n      dup3\n        /* \"#utility.yul\":15056:15070   */\n      add\n        /* \"#utility.yul\":15049:15107   */\n      mstore\n        /* \"#utility.yul\":15141:15145   */\n      0x7373000000000000000000000000000000000000000000000000000000000000\n        /* \"#utility.yul\":15136:15138   */\n      0x20\n        /* \"#utility.yul\":15128:15134   */\n      dup3\n        /* \"#utility.yul\":15124:15139   */\n      add\n        /* \"#utility.yul\":15117:15146   */\n      mstore\n        /* \"#utility.yul\":14932:15153   */\n      pop\n      jump\t// out\n        /* \"#utility.yul\":15159:15525   */\n    tag_287:\n        /* \"#utility.yul\":15301:15304   */\n      0x00\n        /* \"#utility.yul\":15322:15389   */\n      tag_445\n        /* \"#utility.yul\":15386:15388   */\n      0x22\n        /* \"#utility.yul\":15381:15384   */\n      dup4\n        /* \"#utility.yul\":15322:15389   */\n      tag_248\n      jump\t// in\n    tag_445:\n        /* \"#utility.yul\":15315:15389   */\n      swap2\n      pop\n        /* \"#utility.yul\":15398:15491   */\n      tag_446\n        /* \"#utility.yul\":15487:15490   */\n      dup3\n        /* \"#utility.yul\":15398:15491   */\n      tag_286\n      jump\t// in\n    tag_446:\n        /* \"#utility.yul\":15516:15518   */\n      0x40\n        /* \"#utility.yul\":15511:15514   */\n      dup3\n        /* \"#utility.yul\":15507:15519   */\n      add\n        /* \"#utility.yul\":15500:15519   */\n      swap1\n      pop\n        /* \"#utility.yul\":15159:15525   */\n      swap2\n      swap1\n      pop\n      jump\t// out\n        /* \"#utility.yul\":15531:15950   */\n    tag_204:\n        /* \"#utility.yul\":15697:15701   */\n      0x00\n        /* \"#utility.yul\":15735:15737   */\n      0x20\n        /* \"#utility.yul\":15724:15733   */\n      dup3\n        /* \"#utility.yul\":15720:15738   */\n      add\n        /* \"#utility.yul\":15712:15738   */\n      swap1\n      pop\n        /* \"#utility.yul\":15784:15793   */\n      dup2\n        /* \"#utility.yul\":15778:15782   */\n      dup2\n        /* \"#utility.yul\":15774:15794   */\n      sub\n        /* \"#utility.yul\":15770:15771   */\n      0x00\n        /* \"#utility.yul\":15759:15768   */\n      dup4\n        /* \"#utility.yul\":15755:15772   */\n      add\n        /* \"#utility.yul\":15748:15795   */\n      mstore\n        /* \"#utility.yul\":15812:15943   */\n      tag_448\n        /* \"#utility.yul\":15938:15942   */\n      dup2\n        /* \"#utility.yul\":15812:15943   */\n      tag_287\n      jump\t// in\n    tag_448:\n        /* \"#utility.yul\":15804:15943   */\n      swap1\n      pop\n        /* \"#utility.yul\":15531:15950   */\n      swap2\n      swap1\n      pop\n      jump\t// out\n        /* \"#utility.yul\":15956:16135   */\n    tag_288:\n        /* \"#utility.yul\":16096:16127   */\n      0x45524332303a20696e73756666696369656e7420616c6c6f77616e6365000000\n        /* \"#utility.yul\":16092:16093   */\n      0x00\n        /* \"#utility.yul\":16084:16090   */\n      dup3\n        /* \"#utility.yul\":16080:16094   */\n      add\n        /* \"#utility.yul\":16073:16128   */\n      mstore\n        /* \"#utility.yul\":15956:16135   */\n      pop\n      jump\t// out\n        /* \"#utility.yul\":16141:16507   */\n    tag_289:\n        /* \"#utility.yul\":16283:16286   */\n      0x00\n        /* \"#utility.yul\":16304:16371   */\n      tag_451\n        /* \"#utility.yul\":16368:16370   */\n      0x1d\n        /* \"#utility.yul\":16363:16366   */\n      dup4\n        /* \"#utility.yul\":16304:16371   */\n      tag_248\n      jump\t// in\n    tag_451:\n        /* \"#utility.yul\":16297:16371   */\n      swap2\n      pop\n        /* \"#utility.yul\":16380:16473   */\n      tag_452\n        /* \"#utility.yul\":16469:16472   */\n      dup3\n        /* \"#utility.yul\":16380:16473   */\n      tag_288\n      jump\t// in\n    tag_452:\n        /* \"#utility.yul\":16498:16500   */\n      0x20\n        /* \"#utility.yul\":16493:16496   */\n      dup3\n        /* \"#utility.yul\":16489:16501   */\n      add\n        /* \"#utility.yul\":16482:16501   */\n      swap1\n      pop\n        /* \"#utility.yul\":16141:16507   */\n      swap2\n      swap1\n      pop\n      jump\t// out\n        /* \"#utility.yul\":16513:16932   */\n    tag_211:\n        /* \"#utility.yul\":16679:16683   */\n      0x00\n        /* \"#utility.yul\":16717:16719   */\n      0x20\n        /* \"#utility.yul\":16706:16715   */\n      dup3\n        /* \"#utility.yul\":16702:16720   */\n      add\n        /* \"#utility.yul\":16694:16720   */\n      swap1\n      pop\n        /* \"#utility.yul\":16766:16775   */\n      dup2\n        /* \"#utility.yul\":16760:16764   */\n      dup2\n        /* \"#utility.yul\":16756:16776   */\n      sub\n        /* \"#utility.yul\":16752:16753   */\n      0x00\n        /* \"#utility.yul\":16741:16750   */\n      dup4\n        /* \"#utility.yul\":16737:16754   */\n      add\n        /* \"#utility.yul\":16730:16777   */\n      mstore\n        /* \"#utility.yul\":16794:16925   */\n      tag_454\n        /* \"#utility.yul\":16920:16924   */\n      dup2\n        /* \"#utility.yul\":16794:16925   */\n      tag_289\n      jump\t// in\n    tag_454:\n        /* \"#utility.yul\":16786:16925   */\n      swap1\n      pop\n        /* \"#utility.yul\":16513:16932   */\n      swap2\n      swap1\n      pop\n      jump\t// out\n        /* \"#utility.yul\":16938:17162   */\n    tag_290:\n        /* \"#utility.yul\":17078:17112   */\n      0x45524332303a207472616e736665722066726f6d20746865207a65726f206164\n        /* \"#utility.yul\":17074:17075   */\n      0x00\n        /* \"#utility.yul\":17066:17072   */\n      dup3\n        /* \"#utility.yul\":17062:17076   */\n      add\n        /* \"#utility.yul\":17055:17113   */\n      mstore\n        /* \"#utility.yul\":17147:17154   */\n      0x6472657373000000000000000000000000000000000000000000000000000000\n        /* \"#utility.yul\":17142:17144   */\n      0x20\n        /* \"#utility.yul\":17134:17140   */\n      dup3\n        /* \"#utility.yul\":17130:17145   */\n      add\n        /* \"#utility.yul\":17123:17155   */\n      mstore\n        /* \"#utility.yul\":16938:17162   */\n      pop\n      jump\t// out\n        /* \"#utility.yul\":17168:17534   */\n    tag_291:\n        /* \"#utility.yul\":17310:17313   */\n      0x00\n        /* \"#utility.yul\":17331:17398   */\n      tag_457\n        /* \"#utility.yul\":17395:17397   */\n      0x25\n        /* \"#utility.yul\":17390:17393   */\n      dup4\n        /* \"#utility.yul\":17331:17398   */\n      tag_248\n      jump\t// in\n    tag_457:\n        /* \"#utility.yul\":17324:17398   */\n      swap2\n      pop\n        /* \"#utility.yul\":17407:17500   */\n      tag_458\n        /* \"#utility.yul\":17496:17499   */\n      dup3\n        /* \"#utility.yul\":17407:17500   */\n      tag_290\n      jump\t// in\n    tag_458:\n        /* \"#utility.yul\":17525:17527   */\n      0x40\n        /* \"#utility.yul\":17520:17523   */\n      dup3\n        /* \"#utility.yul\":17516:17528   */\n      add\n        /* \"#utility.yul\":17509:17528   */\n      swap1\n      pop\n        /* \"#utility.yul\":17168:17534   */\n      swap2\n      swap1\n      pop\n      jump\t// out\n        /* \"#utility.yul\":17540:17959   */\n    tag_216:\n        /* \"#utility.yul\":17706:17710   */\n      0x00\n        /* \"#utility.yul\":17744:17746   */\n      0x20\n        /* \"#utility.yul\":17733:17742   */\n      dup3\n        /* \"#utility.yul\":17729:17747   */\n      add\n        /* \"#utility.yul\":17721:17747   */\n      swap1\n      pop\n        /* \"#utility.yul\":17793:17802   */\n      dup2\n        /* \"#utility.yul\":17787:17791   */\n      dup2\n        /* \"#utility.yul\":17783:17803   */\n      sub\n        /* \"#utility.yul\":17779:17780   */\n      0x00\n        /* \"#utility.yul\":17768:17777   */\n      dup4\n        /* \"#utility.yul\":17764:17781   */\n      add\n        /* \"#utility.yul\":17757:17804   */\n      mstore\n        /* \"#utility.yul\":17821:17952   */\n      tag_460\n        /* \"#utility.yul\":17947:17951   */\n      dup2\n        /* \"#utility.yul\":17821:17952   */\n      tag_291\n      jump\t// in\n    tag_460:\n        /* \"#utility.yul\":17813:17952   */\n      swap1\n      pop\n        /* \"#utility.yul\":17540:17959   */\n      swap2\n      swap1\n      pop\n      jump\t// out\n        /* \"#utility.yul\":17965:18187   */\n    tag_292:\n        /* \"#utility.yul\":18105:18139   */\n      0x45524332303a207472616e7366657220746f20746865207a65726f2061646472\n        /* \"#utility.yul\":18101:18102   */\n      0x00\n        /* \"#utility.yul\":18093:18099   */\n      dup3\n        /* \"#utility.yul\":18089:18103   */\n      add\n        /* \"#utility.yul\":18082:18140   */\n      mstore\n        /* \"#utility.yul\":18174:18179   */\n      0x6573730000000000000000000000000000000000000000000000000000000000\n        /* \"#utility.yul\":18169:18171   */\n      0x20\n        /* \"#utility.yul\":18161:18167   */\n      dup3\n        /* \"#utility.yul\":18157:18172   */\n      add\n        /* \"#utility.yul\":18150:18180   */\n      mstore\n        /* \"#utility.yul\":17965:18187   */\n      pop\n      jump\t// out\n        /* \"#utility.yul\":18193:18559   */\n    tag_293:\n        /* \"#utility.yul\":18335:18338   */\n      0x00\n        /* \"#utility.yul\":18356:18423   */\n      tag_463\n        /* \"#utility.yul\":18420:18422   */\n      0x23\n        /* \"#utility.yul\":18415:18418   */\n      dup4\n        /* \"#utility.yul\":18356:18423   */\n      tag_248\n      jump\t// in\n    tag_463:\n        /* \"#utility.yul\":18349:18423   */\n      swap2\n      pop\n        /* \"#utility.yul\":18432:18525   */\n      tag_464\n        /* \"#utility.yul\":18521:18524   */\n      dup3\n        /* \"#utility.yul\":18432:18525   */\n      tag_292\n      jump\t// in\n    tag_464:\n        /* \"#utility.yul\":18550:18552   */\n      0x40\n        /* \"#utility.yul\":18545:18548   */\n      dup3\n        /* \"#utility.yul\":18541:18553   */\n      add\n        /* \"#utility.yul\":18534:18553   */\n      swap1\n      pop\n        /* \"#utility.yul\":18193:18559   */\n      swap2\n      swap1\n      pop\n      jump\t// out\n        /* \"#utility.yul\":18565:18984   */\n    tag_219:\n        /* \"#utility.yul\":18731:18735   */\n      0x00\n        /* \"#utility.yul\":18769:18771   */\n      0x20\n        /* \"#utility.yul\":18758:18767   */\n      dup3\n        /* \"#utility.yul\":18754:18772   */\n      add\n        /* \"#utility.yul\":18746:18772   */\n      swap1\n      pop\n        /* \"#utility.yul\":18818:18827   */\n      dup2\n        /* \"#utility.yul\":18812:18816   */\n      dup2\n        /* \"#utility.yul\":18808:18828   */\n      sub\n        /* \"#utility.yul\":18804:18805   */\n      0x00\n        /* \"#utility.yul\":18793:18802   */\n      dup4\n        /* \"#utility.yul\":18789:18806   */\n      add\n        /* \"#utility.yul\":18782:18829   */\n      mstore\n        /* \"#utility.yul\":18846:18977   */\n      tag_466\n        /* \"#utility.yul\":18972:18976   */\n      dup2\n        /* \"#utility.yul\":18846:18977   */\n      tag_293\n      jump\t// in\n    tag_466:\n        /* \"#utility.yul\":18838:18977   */\n      swap1\n      pop\n        /* \"#utility.yul\":18565:18984   */\n      swap2\n      swap1\n      pop\n      jump\t// out\n        /* \"#utility.yul\":18990:19215   */\n    tag_294:\n        /* \"#utility.yul\":19130:19164   */\n      0x45524332303a207472616e7366657220616d6f756e7420657863656564732062\n        /* \"#utility.yul\":19126:19127   */\n      0x00\n        /* \"#utility.yul\":19118:19124   */\n      dup3\n        /* \"#utility.yul\":19114:19128   */\n      add\n        /* \"#utility.yul\":19107:19165   */\n      mstore\n        /* \"#utility.yul\":19199:19207   */\n      0x616c616e63650000000000000000000000000000000000000000000000000000\n        /* \"#utility.yul\":19194:19196   */\n      0x20\n        /* \"#utility.yul\":19186:19192   */\n      dup3\n        /* \"#utility.yul\":19182:19197   */\n      add\n        /* \"#utility.yul\":19175:19208   */\n      mstore\n        /* \"#utility.yul\":18990:19215   */\n      pop\n      jump\t// out\n        /* \"#utility.yul\":19221:19587   */\n    tag_295:\n        /* \"#utility.yul\":19363:19366   */\n      0x00\n        /* \"#utility.yul\":19384:19451   */\n      tag_469\n        /* \"#utility.yul\":19448:19450   */\n      0x26\n        /* \"#utility.yul\":19443:19446   */\n      dup4\n        /* \"#utility.yul\":19384:19451   */\n      tag_248\n      jump\t// in\n    tag_469:\n        /* \"#utility.yul\":19377:19451   */\n      swap2\n      pop\n        /* \"#utility.yul\":19460:19553   */\n      tag_470\n        /* \"#utility.yul\":19549:19552   */\n      dup3\n        /* \"#utility.yul\":19460:19553   */\n      tag_294\n      jump\t// in\n    tag_470:\n        /* \"#utility.yul\":19578:19580   */\n      0x40\n        /* \"#utility.yul\":19573:19576   */\n      dup3\n        /* \"#utility.yul\":19569:19581   */\n      add\n        /* \"#utility.yul\":19562:19581   */\n      swap1\n      pop\n        /* \"#utility.yul\":19221:19587   */\n      swap2\n      swap1\n      pop\n      jump\t// out\n        /* \"#utility.yul\":19593:20012   */\n    tag_224:\n        /* \"#utility.yul\":19759:19763   */\n      0x00\n        /* \"#utility.yul\":19797:19799   */\n      0x20\n        /* \"#utility.yul\":19786:19795   */\n      dup3\n        /* \"#utility.yul\":19782:19800   */\n      add\n        /* \"#utility.yul\":19774:19800   */\n      swap1\n      pop\n        /* \"#utility.yul\":19846:19855   */\n      dup2\n        /* \"#utility.yul\":19840:19844   */\n      dup2\n        /* \"#utility.yul\":19836:19856   */\n      sub\n        /* \"#utility.yul\":19832:19833   */\n      0x00\n        /* \"#utility.yul\":19821:19830   */\n      dup4\n        /* \"#utility.yul\":19817:19834   */\n      add\n        /* \"#utility.yul\":19810:19857   */\n      mstore\n        /* \"#utility.yul\":19874:20005   */\n      tag_472\n        /* \"#utility.yul\":20000:20004   */\n      dup2\n        /* \"#utility.yul\":19874:20005   */\n      tag_295\n      jump\t// in\n    tag_472:\n        /* \"#utility.yul\":19866:20005   */\n      swap1\n      pop\n        /* \"#utility.yul\":19593:20012   */\n      swap2\n      swap1\n      pop\n      jump\t// out\n        /* \"#utility.yul\":20018:20097   */\n    tag_296:\n        /* \"#utility.yul\":20057:20064   */\n      0x00\n        /* \"#utility.yul\":20086:20091   */\n      dup2\n        /* \"#utility.yul\":20075:20091   */\n      swap1\n      pop\n        /* \"#utility.yul\":20018:20097   */\n      swap2\n      swap1\n      pop\n      jump\t// out\n        /* \"#utility.yul\":20103:20260   */\n    tag_297:\n        /* \"#utility.yul\":20208:20253   */\n      tag_475\n        /* \"#utility.yul\":20228:20252   */\n      tag_476\n        /* \"#utility.yul\":20246:20251   */\n      dup3\n        /* \"#utility.yul\":20228:20252   */\n      tag_262\n      jump\t// in\n    tag_476:\n        /* \"#utility.yul\":20208:20253   */\n      tag_296\n      jump\t// in\n    tag_475:\n        /* \"#utility.yul\":20203:20206   */\n      dup3\n        /* \"#utility.yul\":20196:20254   */\n      mstore\n        /* \"#utility.yul\":20103:20260   */\n      pop\n      pop\n      jump\t// out\n        /* \"#utility.yul\":20266:20804   */\n    tag_231:\n        /* \"#utility.yul\":20434:20437   */\n      0x00\n        /* \"#utility.yul\":20449:20524   */\n      tag_478\n        /* \"#utility.yul\":20520:20523   */\n      dup3\n        /* \"#utility.yul\":20511:20517   */\n      dup7\n        /* \"#utility.yul\":20449:20524   */\n      tag_297\n      jump\t// in\n    tag_478:\n        /* \"#utility.yul\":20549:20551   */\n      0x20\n        /* \"#utility.yul\":20544:20547   */\n      dup3\n        /* \"#utility.yul\":20540:20552   */\n      add\n        /* \"#utility.yul\":20533:20552   */\n      swap2\n      pop\n        /* \"#utility.yul\":20562:20637   */\n      tag_479\n        /* \"#utility.yul\":20633:20636   */\n      dup3\n        /* \"#utility.yul\":20624:20630   */\n      dup6\n        /* \"#utility.yul\":20562:20637   */\n      tag_297\n      jump\t// in\n    tag_479:\n        /* \"#utility.yul\":20662:20664   */\n      0x20\n        /* \"#utility.yul\":20657:20660   */\n      dup3\n        /* \"#utility.yul\":20653:20665   */\n      add\n        /* \"#utility.yul\":20646:20665   */\n      swap2\n      pop\n        /* \"#utility.yul\":20675:20750   */\n      tag_480\n        /* \"#utility.yul\":20746:20749   */\n      dup3\n        /* \"#utility.yul\":20737:20743   */\n      dup5\n        /* \"#utility.yul\":20675:20750   */\n      tag_297\n      jump\t// in\n    tag_480:\n        /* \"#utility.yul\":20775:20777   */\n      0x20\n        /* \"#utility.yul\":20770:20773   */\n      dup3\n        /* \"#utility.yul\":20766:20778   */\n      add\n        /* \"#utility.yul\":20759:20778   */\n      swap2\n      pop\n        /* \"#utility.yul\":20795:20798   */\n      dup2\n        /* \"#utility.yul\":20788:20798   */\n      swap1\n      pop\n        /* \"#utility.yul\":20266:20804   */\n      swap5\n      swap4\n      pop\n      pop\n      pop\n      pop\n      jump\t// out\n        /* \"#utility.yul\":20810:20990   */\n    tag_235:\n        /* \"#utility.yul\":20858:20935   */\n      0x4e487b7100000000000000000000000000000000000000000000000000000000\n        /* \"#utility.yul\":20855:20856   */\n      0x00\n        /* \"#utility.yul\":20848:20936   */\n      mstore\n        /* \"#utility.yul\":20955:20959   */\n      0x41\n        /* \"#utility.yul\":20952:20953   */\n      0x04\n        /* \"#utility.yul\":20945:20960   */\n      mstore\n        /* \"#utility.yul\":20979:20983   */\n      0x24\n        /* \"#utility.yul\":20976:20977   */\n      0x00\n        /* \"#utility.yul\":20969:20984   */\n      revert\n\n    auxdata: 0xa2646970667358221220019822baa79cb444a85e4714daa081690e1b6554192f49e5890b14873820bd9a64736f6c63430008110033\n}\n",
				"bytecode": {
					"linkReferences": {},
					"object": "6080604052600a6007553480156200001657600080fd5b506040518060400160405280601081526020017f4d53484b20455243323020546f6b656e000000000000000000000000000000008152506040518060400160405280600481526020017f4d53484b0000000000000000000000000000000000000000000000000000000081525081600390816200009491906200058d565b508060049081620000a691906200058d565b50505033600660006101000a81548173ffffffffffffffffffffffffffffffffffffffff021916908373ffffffffffffffffffffffffffffffffffffffff1602179055506005600660009054906101000a900473ffffffffffffffffffffffffffffffffffffffff169080600181540180825580915050600190039060005260206000200160009091909190916101000a81548173ffffffffffffffffffffffffffffffffffffffff021916908373ffffffffffffffffffffffffffffffffffffffff1602179055506200018b3369021e19e0c9bab24000006200019160201b60201c565b6200078f565b600073ffffffffffffffffffffffffffffffffffffffff168273ffffffffffffffffffffffffffffffffffffffff160362000203576040517f08c379a0000000000000000000000000000000000000000000000000000000008152600401620001fa90620006d5565b60405180910390fd5b62000217600083836200030960201b60201c565b80600260008282546200022b919062000726565b92505081905550806000808473ffffffffffffffffffffffffffffffffffffffff1673ffffffffffffffffffffffffffffffffffffffff168152602001908152602001600020600082825462000282919062000726565b925050819055508173ffffffffffffffffffffffffffffffffffffffff16600073ffffffffffffffffffffffffffffffffffffffff167fddf252ad1be2c89b69c2b068fc378daa952ba7f163c4a11628f55a4df523b3ef83604051620002e9919062000772565b60405180910390a362000305600083836200030e60201b60201c565b5050565b505050565b505050565b600081519050919050565b7f4e487b7100000000000000000000000000000000000000000000000000000000600052604160045260246000fd5b7f4e487b7100000000000000000000000000000000000000000000000000000000600052602260045260246000fd5b600060028204905060018216806200039557607f821691505b602082108103620003ab57620003aa6200034d565b5b50919050565b60008190508160005260206000209050919050565b60006020601f8301049050919050565b600082821b905092915050565b600060088302620004157fffffffffffffffffffffffffffffffffffffffffffffffffffffffffffffffff82620003d6565b620004218683620003d6565b95508019841693508086168417925050509392505050565b6000819050919050565b6000819050919050565b60006200046e62000468620004628462000439565b62000443565b62000439565b9050919050565b6000819050919050565b6200048a836200044d565b620004a2620004998262000475565b848454620003e3565b825550505050565b600090565b620004b9620004aa565b620004c68184846200047f565b505050565b5b81811015620004ee57620004e2600082620004af565b600181019050620004cc565b5050565b601f8211156200053d576200050781620003b1565b6200051284620003c6565b8101602085101562000522578190505b6200053a6200053185620003c6565b830182620004cb565b50505b505050565b600082821c905092915050565b6000620005626000198460080262000542565b1980831691505092915050565b60006200057d83836200054f565b9150826002028217905092915050565b620005988262000313565b67ffffffffffffffff811115620005b457620005b36200031e565b5b620005c082546200037c565b620005cd828285620004f2565b600060209050601f831160018114620006055760008415620005f0578287015190505b620005fc85826200056f565b8655506200066c565b601f1984166200061586620003b1565b60005b828110156200063f5784890151825560018201915060208501945060208101905062000618565b868310156200065f57848901516200065b601f8916826200054f565b8355505b6001600288020188555050505b505050505050565b600082825260208201905092915050565b7f45524332303a206d696e7420746f20746865207a65726f206164647265737300600082015250565b6000620006bd601f8362000674565b9150620006ca8262000685565b602082019050919050565b60006020820190508181036000830152620006f081620006ae565b9050919050565b7f4e487b7100000000000000000000000000000000000000000000000000000000600052601160045260246000fd5b6000620007338262000439565b9150620007408362000439565b92508282019050808211156200075b576200075a620006f7565b5b92915050565b6200076c8162000439565b82525050565b600060208201905062000789600083018462000761565b92915050565b611e21806200079f6000396000f3fe6080604052600436106101025760003560e01c806370a0823111610095578063cbdd69b511610064578063cbdd69b514610470578063dd62ed3e1461049b578063e97dcb62146104d8578063f71d96cb146104e2578063f851a4401461051f5761020f565b806370a082311461038e57806395d89b41146103cb578063a457c2d7146103f6578063a9059cbb146104335761020f565b806323b872dd116100d157806323b872dd146102d2578063313ce5671461030f578063395093511461033a5780635d495aea146103775761020f565b806306fdde0314610214578063095ea7b31461023f57806312065fe01461027c57806318160ddd146102a75761020f565b3661020f5767016345785d8a00003414610151576040517f08c379a0000000000000000000000000000000000000000000000000000000008152600401610148906112d3565b60405180910390fd5b600660009054906101000a900473ffffffffffffffffffffffffffffffffffffffff1673ffffffffffffffffffffffffffffffffffffffff163373ffffffffffffffffffffffffffffffffffffffff16036101ab57600080fd5b6005339080600181540180825580915050600190039060005260206000200160009091909190916101000a81548173ffffffffffffffffffffffffffffffffffffffff021916908373ffffffffffffffffffffffffffffffffffffffff1602179055005b600080fd5b34801561022057600080fd5b5061022961054a565b6040516102369190611372565b60405180910390f35b34801561024b57600080fd5b506102666004803603810190610261919061142d565b6105dc565b6040516102739190611488565b60405180910390f35b34801561028857600080fd5b506102916105ff565b60405161029e91906114b2565b60405180910390f35b3480156102b357600080fd5b506102bc610607565b6040516102c991906114b2565b60405180910390f35b3480156102de57600080fd5b506102f960048036038101906102f491906114cd565b610611565b6040516103069190611488565b60405180910390f35b34801561031b57600080fd5b50610324610640565b604051610331919061153c565b60405180910390f35b34801561034657600080fd5b50610361600480360381019061035c919061142d565b610649565b60405161036e9190611488565b60405180910390f35b34801561038357600080fd5b5061038c610680565b005b34801561039a57600080fd5b506103b560048036038101906103b09190611557565b6108ab565b6040516103c291906114b2565b60405180910390f35b3480156103d757600080fd5b506103e06108f3565b6040516103ed9190611372565b60405180910390f35b34801561040257600080fd5b5061041d6004803603810190610418919061142d565b610985565b60405161042a9190611488565b60405180910390f35b34801561043f57600080fd5b5061045a6004803603810190610455919061142d565b6109fc565b6040516104679190611488565b60405180910390f35b34801561047c57600080fd5b50610485610a1f565b60405161049291906114b2565b60405180910390f35b3480156104a757600080fd5b506104c260048036038101906104bd9190611584565b610a25565b6040516104cf91906114b2565b60405180910390f35b6104e0610aac565b005b3480156104ee57600080fd5b50610509600480360381019061050491906115c4565b610be8565b6040516105169190611612565b60405180910390f35b34801561052b57600080fd5b50610534610c27565b604051610541919061163c565b60405180910390f35b60606003805461055990611686565b80601f016020809104026020016040519081016040528092919081815260200182805461058590611686565b80156105d25780601f106105a7576101008083540402835291602001916105d2565b820191906000526020600020905b8154815290600101906020018083116105b557829003601f168201915b5050505050905090565b6000806105e7610c4d565b90506105f4818585610c55565b600191505092915050565b600047905090565b6000600254905090565b60008061061c610c4d565b9050610629858285610e1e565b610634858585610eaa565b60019150509392505050565b60006012905090565b600080610654610c4d565b90506106758185856106668589610a25565b61067091906116e6565b610c55565b600191505092915050565b3373ffffffffffffffffffffffffffffffffffffffff16600660009054906101000a900473ffffffffffffffffffffffffffffffffffffffff1673ffffffffffffffffffffffffffffffffffffffff1614610710576040517f08c379a000000000000000000000000000000000000000000000000000000000815260040161070790611766565b60405180910390fd5b60036005805490501015610759576040517f08c379a0000000000000000000000000000000000000000000000000000000008152600401610750906117f8565b60405180910390fd5b60006005808054905061076a611129565b6107749190611847565b8154811061078557610784611878565b5b9060005260206000200160009054906101000a900473ffffffffffffffffffffffffffffffffffffffff1690508073ffffffffffffffffffffffffffffffffffffffff166108fc6064605a6107d86105ff565b6107e291906118a7565b6107ec91906118e9565b9081150290604051600060405180830381858888f19350505050158015610817573d6000803e3d6000fd5b50600660009054906101000a900473ffffffffffffffffffffffffffffffffffffffff1673ffffffffffffffffffffffffffffffffffffffff166108fc6064600a6108606105ff565b61086a91906118a7565b61087491906118e9565b9081150290604051600060405180830381858888f1935050505015801561089f573d6000803e3d6000fd5b506108a8611163565b50565b60008060008373ffffffffffffffffffffffffffffffffffffffff1673ffffffffffffffffffffffffffffffffffffffff168152602001908152602001600020549050919050565b60606004805461090290611686565b80601f016020809104026020016040519081016040528092919081815260200182805461092e90611686565b801561097b5780601f106109505761010080835404028352916020019161097b565b820191906000526020600020905b81548152906001019060200180831161095e57829003601f168201915b5050505050905090565b600080610990610c4d565b9050600061099e8286610a25565b9050838110156109e3576040517f08c379a00000000000000000000000000000000000000000000000000000000081526004016109da9061198c565b60405180910390fd5b6109f08286868403610c55565b60019250505092915050565b600080610a07610c4d565b9050610a14818585610eaa565b600191505092915050565b60075481565b6000600160008473ffffffffffffffffffffffffffffffffffffffff1673ffffffffffffffffffffffffffffffffffffffff16815260200190815260200160002060008373ffffffffffffffffffffffffffffffffffffffff1673ffffffffffffffffffffffffffffffffffffffff16815260200190815260200160002054905092915050565b67016345785d8a00003411610af6576040517f08c379a0000000000000000000000000000000000000000000000000000000008152600401610aed906119f8565b60405180910390fd5b60003490506005339080600181540180825580915050600190039060005260206000200160009091909190916101000a81548173ffffffffffffffffffffffffffffffffffffffff021916908373ffffffffffffffffffffffffffffffffffffffff1602179055503373ffffffffffffffffffffffffffffffffffffffff16600660009054906101000a900473ffffffffffffffffffffffffffffffffffffffff1673ffffffffffffffffffffffffffffffffffffffff167fddf252ad1be2c89b69c2b068fc378daa952ba7f163c4a11628f55a4df523b3ef83604051610bdd91906114b2565b60405180910390a350565b60058181548110610bf857600080fd5b906000526020600020016000915054906101000a900473ffffffffffffffffffffffffffffffffffffffff1681565b600660009054906101000a900473ffffffffffffffffffffffffffffffffffffffff1681565b600033905090565b600073ffffffffffffffffffffffffffffffffffffffff168373ffffffffffffffffffffffffffffffffffffffff1603610cc4576040517f08c379a0000000000000000000000000000000000000000000000000000000008152600401610cbb90611a8a565b60405180910390fd5b600073ffffffffffffffffffffffffffffffffffffffff168273ffffffffffffffffffffffffffffffffffffffff1603610d33576040517f08c379a0000000000000000000000000000000000000000000000000000000008152600401610d2a90611b1c565b60405180910390fd5b80600160008573ffffffffffffffffffffffffffffffffffffffff1673ffffffffffffffffffffffffffffffffffffffff16815260200190815260200160002060008473ffffffffffffffffffffffffffffffffffffffff1673ffffffffffffffffffffffffffffffffffffffff168152602001908152602001600020819055508173ffffffffffffffffffffffffffffffffffffffff168373ffffffffffffffffffffffffffffffffffffffff167f8c5be1e5ebec7d5bd14f71427d1e84f3dd0314c0f7b2291e5b200ac8c7c3b92583604051610e1191906114b2565b60405180910390a3505050565b6000610e2a8484610a25565b90507fffffffffffffffffffffffffffffffffffffffffffffffffffffffffffffffff8114610ea45781811015610e96576040517f08c379a0000000000000000000000000000000000000000000000000000000008152600401610e8d90611b88565b60405180910390fd5b610ea38484848403610c55565b5b50505050565b600073ffffffffffffffffffffffffffffffffffffffff168373ffffffffffffffffffffffffffffffffffffffff1603610f19576040517f08c379a0000000000000000000000000000000000000000000000000000000008152600401610f1090611c1a565b60405180910390fd5b600073ffffffffffffffffffffffffffffffffffffffff168273ffffffffffffffffffffffffffffffffffffffff1603610f88576040517f08c379a0000000000000000000000000000000000000000000000000000000008152600401610f7f90611cac565b60405180910390fd5b610f938383836111c5565b60008060008573ffffffffffffffffffffffffffffffffffffffff1673ffffffffffffffffffffffffffffffffffffffff16815260200190815260200160002054905081811015611019576040517f08c379a000000000000000000000000000000000000000000000000000000000815260040161101090611d3e565b60405180910390fd5b8181036000808673ffffffffffffffffffffffffffffffffffffffff1673ffffffffffffffffffffffffffffffffffffffff16815260200190815260200160002081905550816000808573ffffffffffffffffffffffffffffffffffffffff1673ffffffffffffffffffffffffffffffffffffffff16815260200190815260200160002060008282546110ac91906116e6565b925050819055508273ffffffffffffffffffffffffffffffffffffffff168473ffffffffffffffffffffffffffffffffffffffff167fddf252ad1be2c89b69c2b068fc378daa952ba7f163c4a11628f55a4df523b3ef8460405161111091906114b2565b60405180910390a36111238484846111ca565b50505050565b6000444260058054905060405160200161114593929190611d7f565b6040516020818303038152906040528051906020012060001c905090565b600067ffffffffffffffff81111561117e5761117d611dbc565b5b6040519080825280602002602001820160405280156111ac5781602001602082028036833780820191505090505b50600590805190602001906111c29291906111cf565b50565b505050565b505050565b828054828255906000526020600020908101928215611248579160200282015b828111156112475782518260006101000a81548173ffffffffffffffffffffffffffffffffffffffff021916908373ffffffffffffffffffffffffffffffffffffffff160217905550916020019190600101906111ef565b5b5090506112559190611259565b5090565b5b8082111561127257600081600090555060010161125a565b5090565b600082825260208201905092915050565b7f4d7573742073656e6420302e3120657468657220616d6f756e74000000000000600082015250565b60006112bd601a83611276565b91506112c882611287565b602082019050919050565b600060208201905081810360008301526112ec816112b0565b9050919050565b600081519050919050565b60005b8381101561131c578082015181840152602081019050611301565b60008484015250505050565b6000601f19601f8301169050919050565b6000611344826112f3565b61134e8185611276565b935061135e8185602086016112fe565b61136781611328565b840191505092915050565b6000602082019050818103600083015261138c8184611339565b905092915050565b600080fd5b600073ffffffffffffffffffffffffffffffffffffffff82169050919050565b60006113c482611399565b9050919050565b6113d4816113b9565b81146113df57600080fd5b50565b6000813590506113f1816113cb565b92915050565b6000819050919050565b61140a816113f7565b811461141557600080fd5b50565b60008135905061142781611401565b92915050565b6000806040838503121561144457611443611394565b5b6000611452858286016113e2565b925050602061146385828601611418565b9150509250929050565b60008115159050919050565b6114828161146d565b82525050565b600060208201905061149d6000830184611479565b92915050565b6114ac816113f7565b82525050565b60006020820190506114c760008301846114a3565b92915050565b6000806000606084860312156114e6576114e5611394565b5b60006114f4868287016113e2565b9350506020611505868287016113e2565b925050604061151686828701611418565b9150509250925092565b600060ff82169050919050565b61153681611520565b82525050565b6000602082019050611551600083018461152d565b92915050565b60006020828403121561156d5761156c611394565b5b600061157b848285016113e2565b91505092915050565b6000806040838503121561159b5761159a611394565b5b60006115a9858286016113e2565b92505060206115ba858286016113e2565b9150509250929050565b6000602082840312156115da576115d9611394565b5b60006115e884828501611418565b91505092915050565b60006115fc82611399565b9050919050565b61160c816115f1565b82525050565b60006020820190506116276000830184611603565b92915050565b611636816113b9565b82525050565b6000602082019050611651600083018461162d565b92915050565b7f4e487b7100000000000000000000000000000000000000000000000000000000600052602260045260246000fd5b6000600282049050600182168061169e57607f821691505b6020821081036116b1576116b0611657565b5b50919050565b7f4e487b7100000000000000000000000000000000000000000000000000000000600052601160045260246000fd5b60006116f1826113f7565b91506116fc836113f7565b9250828201905080821115611714576117136116b7565b5b92915050565b7f596f7520617265206e6f7420746865206f776e65720000000000000000000000600082015250565b6000611750601583611276565b915061175b8261171a565b602082019050919050565b6000602082019050818103600083015261177f81611743565b9050919050565b7f4e6f7420656e6f75676820706c617965727320696e20746865206c6f7474657260008201527f7900000000000000000000000000000000000000000000000000000000000000602082015250565b60006117e2602183611276565b91506117ed82611786565b604082019050919050565b60006020820190508181036000830152611811816117d5565b9050919050565b7f4e487b7100000000000000000000000000000000000000000000000000000000600052601260045260246000fd5b6000611852826113f7565b915061185d836113f7565b92508261186d5761186c611818565b5b828206905092915050565b7f4e487b7100000000000000000000000000000000000000000000000000000000600052603260045260246000fd5b60006118b2826113f7565b91506118bd836113f7565b92508282026118cb816113f7565b915082820484148315176118e2576118e16116b7565b5b5092915050565b60006118f4826113f7565b91506118ff836113f7565b92508261190f5761190e611818565b5b828204905092915050565b7f45524332303a2064656372656173656420616c6c6f77616e63652062656c6f7760008201527f207a65726f000000000000000000000000000000000000000000000000000000602082015250565b6000611976602583611276565b91506119818261191a565b604082019050919050565b600060208201905081810360008301526119a581611969565b9050919050565b7f6d73672e76616c7565203c20302e312065746865720000000000000000000000600082015250565b60006119e2601583611276565b91506119ed826119ac565b602082019050919050565b60006020820190508181036000830152611a11816119d5565b9050919050565b7f45524332303a20617070726f76652066726f6d20746865207a65726f2061646460008201527f7265737300000000000000000000000000000000000000000000000000000000602082015250565b6000611a74602483611276565b9150611a7f82611a18565b604082019050919050565b60006020820190508181036000830152611aa381611a67565b9050919050565b7f45524332303a20617070726f766520746f20746865207a65726f20616464726560008201527f7373000000000000000000000000000000000000000000000000000000000000602082015250565b6000611b06602283611276565b9150611b1182611aaa565b604082019050919050565b60006020820190508181036000830152611b3581611af9565b9050919050565b7f45524332303a20696e73756666696369656e7420616c6c6f77616e6365000000600082015250565b6000611b72601d83611276565b9150611b7d82611b3c565b602082019050919050565b60006020820190508181036000830152611ba181611b65565b9050919050565b7f45524332303a207472616e736665722066726f6d20746865207a65726f20616460008201527f6472657373000000000000000000000000000000000000000000000000000000602082015250565b6000611c04602583611276565b9150611c0f82611ba8565b604082019050919050565b60006020820190508181036000830152611c3381611bf7565b9050919050565b7f45524332303a207472616e7366657220746f20746865207a65726f206164647260008201527f6573730000000000000000000000000000000000000000000000000000000000602082015250565b6000611c96602383611276565b9150611ca182611c3a565b604082019050919050565b60006020820190508181036000830152611cc581611c89565b9050919050565b7f45524332303a207472616e7366657220616d6f756e742065786365656473206260008201527f616c616e63650000000000000000000000000000000000000000000000000000602082015250565b6000611d28602683611276565b9150611d3382611ccc565b604082019050919050565b60006020820190508181036000830152611d5781611d1b565b9050919050565b6000819050919050565b611d79611d74826113f7565b611d5e565b82525050565b6000611d8b8286611d68565b602082019150611d9b8285611d68565b602082019150611dab8284611d68565b602082019150819050949350505050565b7f4e487b7100000000000000000000000000000000000000000000000000000000600052604160045260246000fdfea2646970667358221220019822baa79cb444a85e4714daa081690e1b6554192f49e5890b14873820bd9a64736f6c63430008110033",
					"opcodes": "PUSH1 0x80 PUSH1 0x40 MSTORE PUSH1 0xA PUSH1 0x7 SSTORE CALLVALUE DUP1 ISZERO PUSH3 0x16 JUMPI PUSH1 0x0 DUP1 REVERT JUMPDEST POP PUSH1 0x40 MLOAD DUP1 PUSH1 0x40 ADD PUSH1 0x40 MSTORE DUP1 PUSH1 0x10 DUP2 MSTORE PUSH1 0x20 ADD PUSH32 0x4D53484B20455243323020546F6B656E00000000000000000000000000000000 DUP2 MSTORE POP PUSH1 0x40 MLOAD DUP1 PUSH1 0x40 ADD PUSH1 0x40 MSTORE DUP1 PUSH1 0x4 DUP2 MSTORE PUSH1 0x20 ADD PUSH32 0x4D53484B00000000000000000000000000000000000000000000000000000000 DUP2 MSTORE POP DUP2 PUSH1 0x3 SWAP1 DUP2 PUSH3 0x94 SWAP2 SWAP1 PUSH3 0x58D JUMP JUMPDEST POP DUP1 PUSH1 0x4 SWAP1 DUP2 PUSH3 0xA6 SWAP2 SWAP1 PUSH3 0x58D JUMP JUMPDEST POP POP POP CALLER PUSH1 0x6 PUSH1 0x0 PUSH2 0x100 EXP DUP2 SLOAD DUP2 PUSH20 0xFFFFFFFFFFFFFFFFFFFFFFFFFFFFFFFFFFFFFFFF MUL NOT AND SWAP1 DUP4 PUSH20 0xFFFFFFFFFFFFFFFFFFFFFFFFFFFFFFFFFFFFFFFF AND MUL OR SWAP1 SSTORE POP PUSH1 0x5 PUSH1 0x6 PUSH1 0x0 SWAP1 SLOAD SWAP1 PUSH2 0x100 EXP SWAP1 DIV PUSH20 0xFFFFFFFFFFFFFFFFFFFFFFFFFFFFFFFFFFFFFFFF AND SWAP1 DUP1 PUSH1 0x1 DUP2 SLOAD ADD DUP1 DUP3 SSTORE DUP1 SWAP2 POP POP PUSH1 0x1 SWAP1 SUB SWAP1 PUSH1 0x0 MSTORE PUSH1 0x20 PUSH1 0x0 KECCAK256 ADD PUSH1 0x0 SWAP1 SWAP2 SWAP1 SWAP2 SWAP1 SWAP2 PUSH2 0x100 EXP DUP2 SLOAD DUP2 PUSH20 0xFFFFFFFFFFFFFFFFFFFFFFFFFFFFFFFFFFFFFFFF MUL NOT AND SWAP1 DUP4 PUSH20 0xFFFFFFFFFFFFFFFFFFFFFFFFFFFFFFFFFFFFFFFF AND MUL OR SWAP1 SSTORE POP PUSH3 0x18B CALLER PUSH10 0x21E19E0C9BAB2400000 PUSH3 0x191 PUSH1 0x20 SHL PUSH1 0x20 SHR JUMP JUMPDEST PUSH3 0x78F JUMP JUMPDEST PUSH1 0x0 PUSH20 0xFFFFFFFFFFFFFFFFFFFFFFFFFFFFFFFFFFFFFFFF AND DUP3 PUSH20 0xFFFFFFFFFFFFFFFFFFFFFFFFFFFFFFFFFFFFFFFF AND SUB PUSH3 0x203 JUMPI PUSH1 0x40 MLOAD PUSH32 0x8C379A000000000000000000000000000000000000000000000000000000000 DUP2 MSTORE PUSH1 0x4 ADD PUSH3 0x1FA SWAP1 PUSH3 0x6D5 JUMP JUMPDEST PUSH1 0x40 MLOAD DUP1 SWAP2 SUB SWAP1 REVERT JUMPDEST PUSH3 0x217 PUSH1 0x0 DUP4 DUP4 PUSH3 0x309 PUSH1 0x20 SHL PUSH1 0x20 SHR JUMP JUMPDEST DUP1 PUSH1 0x2 PUSH1 0x0 DUP3 DUP3 SLOAD PUSH3 0x22B SWAP2 SWAP1 PUSH3 0x726 JUMP JUMPDEST SWAP3 POP POP DUP2 SWAP1 SSTORE POP DUP1 PUSH1 0x0 DUP1 DUP5 PUSH20 0xFFFFFFFFFFFFFFFFFFFFFFFFFFFFFFFFFFFFFFFF AND PUSH20 0xFFFFFFFFFFFFFFFFFFFFFFFFFFFFFFFFFFFFFFFF AND DUP2 MSTORE PUSH1 0x20 ADD SWAP1 DUP2 MSTORE PUSH1 0x20 ADD PUSH1 0x0 KECCAK256 PUSH1 0x0 DUP3 DUP3 SLOAD PUSH3 0x282 SWAP2 SWAP1 PUSH3 0x726 JUMP JUMPDEST SWAP3 POP POP DUP2 SWAP1 SSTORE POP DUP2 PUSH20 0xFFFFFFFFFFFFFFFFFFFFFFFFFFFFFFFFFFFFFFFF AND PUSH1 0x0 PUSH20 0xFFFFFFFFFFFFFFFFFFFFFFFFFFFFFFFFFFFFFFFF AND PUSH32 0xDDF252AD1BE2C89B69C2B068FC378DAA952BA7F163C4A11628F55A4DF523B3EF DUP4 PUSH1 0x40 MLOAD PUSH3 0x2E9 SWAP2 SWAP1 PUSH3 0x772 JUMP JUMPDEST PUSH1 0x40 MLOAD DUP1 SWAP2 SUB SWAP1 LOG3 PUSH3 0x305 PUSH1 0x0 DUP4 DUP4 PUSH3 0x30E PUSH1 0x20 SHL PUSH1 0x20 SHR JUMP JUMPDEST POP POP JUMP JUMPDEST POP POP POP JUMP JUMPDEST POP POP POP JUMP JUMPDEST PUSH1 0x0 DUP2 MLOAD SWAP1 POP SWAP2 SWAP1 POP JUMP JUMPDEST PUSH32 0x4E487B7100000000000000000000000000000000000000000000000000000000 PUSH1 0x0 MSTORE PUSH1 0x41 PUSH1 0x4 MSTORE PUSH1 0x24 PUSH1 0x0 REVERT JUMPDEST PUSH32 0x4E487B7100000000000000000000000000000000000000000000000000000000 PUSH1 0x0 MSTORE PUSH1 0x22 PUSH1 0x4 MSTORE PUSH1 0x24 PUSH1 0x0 REVERT JUMPDEST PUSH1 0x0 PUSH1 0x2 DUP3 DIV SWAP1 POP PUSH1 0x1 DUP3 AND DUP1 PUSH3 0x395 JUMPI PUSH1 0x7F DUP3 AND SWAP2 POP JUMPDEST PUSH1 0x20 DUP3 LT DUP2 SUB PUSH3 0x3AB JUMPI PUSH3 0x3AA PUSH3 0x34D JUMP JUMPDEST JUMPDEST POP SWAP2 SWAP1 POP JUMP JUMPDEST PUSH1 0x0 DUP2 SWAP1 POP DUP2 PUSH1 0x0 MSTORE PUSH1 0x20 PUSH1 0x0 KECCAK256 SWAP1 POP SWAP2 SWAP1 POP JUMP JUMPDEST PUSH1 0x0 PUSH1 0x20 PUSH1 0x1F DUP4 ADD DIV SWAP1 POP SWAP2 SWAP1 POP JUMP JUMPDEST PUSH1 0x0 DUP3 DUP3 SHL SWAP1 POP SWAP3 SWAP2 POP POP JUMP JUMPDEST PUSH1 0x0 PUSH1 0x8 DUP4 MUL PUSH3 0x415 PUSH32 0xFFFFFFFFFFFFFFFFFFFFFFFFFFFFFFFFFFFFFFFFFFFFFFFFFFFFFFFFFFFFFFFF DUP3 PUSH3 0x3D6 JUMP JUMPDEST PUSH3 0x421 DUP7 DUP4 PUSH3 0x3D6 JUMP JUMPDEST SWAP6 POP DUP1 NOT DUP5 AND SWAP4 POP DUP1 DUP7 AND DUP5 OR SWAP3 POP POP POP SWAP4 SWAP3 POP POP POP JUMP JUMPDEST PUSH1 0x0 DUP2 SWAP1 POP SWAP2 SWAP1 POP JUMP JUMPDEST PUSH1 0x0 DUP2 SWAP1 POP SWAP2 SWAP1 POP JUMP JUMPDEST PUSH1 0x0 PUSH3 0x46E PUSH3 0x468 PUSH3 0x462 DUP5 PUSH3 0x439 JUMP JUMPDEST PUSH3 0x443 JUMP JUMPDEST PUSH3 0x439 JUMP JUMPDEST SWAP1 POP SWAP2 SWAP1 POP JUMP JUMPDEST PUSH1 0x0 DUP2 SWAP1 POP SWAP2 SWAP1 POP JUMP JUMPDEST PUSH3 0x48A DUP4 PUSH3 0x44D JUMP JUMPDEST PUSH3 0x4A2 PUSH3 0x499 DUP3 PUSH3 0x475 JUMP JUMPDEST DUP5 DUP5 SLOAD PUSH3 0x3E3 JUMP JUMPDEST DUP3 SSTORE POP POP POP POP JUMP JUMPDEST PUSH1 0x0 SWAP1 JUMP JUMPDEST PUSH3 0x4B9 PUSH3 0x4AA JUMP JUMPDEST PUSH3 0x4C6 DUP2 DUP5 DUP5 PUSH3 0x47F JUMP JUMPDEST POP POP POP JUMP JUMPDEST JUMPDEST DUP2 DUP2 LT ISZERO PUSH3 0x4EE JUMPI PUSH3 0x4E2 PUSH1 0x0 DUP3 PUSH3 0x4AF JUMP JUMPDEST PUSH1 0x1 DUP2 ADD SWAP1 POP PUSH3 0x4CC JUMP JUMPDEST POP POP JUMP JUMPDEST PUSH1 0x1F DUP3 GT ISZERO PUSH3 0x53D JUMPI PUSH3 0x507 DUP2 PUSH3 0x3B1 JUMP JUMPDEST PUSH3 0x512 DUP5 PUSH3 0x3C6 JUMP JUMPDEST DUP2 ADD PUSH1 0x20 DUP6 LT ISZERO PUSH3 0x522 JUMPI DUP2 SWAP1 POP JUMPDEST PUSH3 0x53A PUSH3 0x531 DUP6 PUSH3 0x3C6 JUMP JUMPDEST DUP4 ADD DUP3 PUSH3 0x4CB JUMP JUMPDEST POP POP JUMPDEST POP POP POP JUMP JUMPDEST PUSH1 0x0 DUP3 DUP3 SHR SWAP1 POP SWAP3 SWAP2 POP POP JUMP JUMPDEST PUSH1 0x0 PUSH3 0x562 PUSH1 0x0 NOT DUP5 PUSH1 0x8 MUL PUSH3 0x542 JUMP JUMPDEST NOT DUP1 DUP4 AND SWAP2 POP POP SWAP3 SWAP2 POP POP JUMP JUMPDEST PUSH1 0x0 PUSH3 0x57D DUP4 DUP4 PUSH3 0x54F JUMP JUMPDEST SWAP2 POP DUP3 PUSH1 0x2 MUL DUP3 OR SWAP1 POP SWAP3 SWAP2 POP POP JUMP JUMPDEST PUSH3 0x598 DUP3 PUSH3 0x313 JUMP JUMPDEST PUSH8 0xFFFFFFFFFFFFFFFF DUP2 GT ISZERO PUSH3 0x5B4 JUMPI PUSH3 0x5B3 PUSH3 0x31E JUMP JUMPDEST JUMPDEST PUSH3 0x5C0 DUP3 SLOAD PUSH3 0x37C JUMP JUMPDEST PUSH3 0x5CD DUP3 DUP3 DUP6 PUSH3 0x4F2 JUMP JUMPDEST PUSH1 0x0 PUSH1 0x20 SWAP1 POP PUSH1 0x1F DUP4 GT PUSH1 0x1 DUP2 EQ PUSH3 0x605 JUMPI PUSH1 0x0 DUP5 ISZERO PUSH3 0x5F0 JUMPI DUP3 DUP8 ADD MLOAD SWAP1 POP JUMPDEST PUSH3 0x5FC DUP6 DUP3 PUSH3 0x56F JUMP JUMPDEST DUP7 SSTORE POP PUSH3 0x66C JUMP JUMPDEST PUSH1 0x1F NOT DUP5 AND PUSH3 0x615 DUP7 PUSH3 0x3B1 JUMP JUMPDEST PUSH1 0x0 JUMPDEST DUP3 DUP2 LT ISZERO PUSH3 0x63F JUMPI DUP5 DUP10 ADD MLOAD DUP3 SSTORE PUSH1 0x1 DUP3 ADD SWAP2 POP PUSH1 0x20 DUP6 ADD SWAP5 POP PUSH1 0x20 DUP2 ADD SWAP1 POP PUSH3 0x618 JUMP JUMPDEST DUP7 DUP4 LT ISZERO PUSH3 0x65F JUMPI DUP5 DUP10 ADD MLOAD PUSH3 0x65B PUSH1 0x1F DUP10 AND DUP3 PUSH3 0x54F JUMP JUMPDEST DUP4 SSTORE POP JUMPDEST PUSH1 0x1 PUSH1 0x2 DUP9 MUL ADD DUP9 SSTORE POP POP POP JUMPDEST POP POP POP POP POP POP JUMP JUMPDEST PUSH1 0x0 DUP3 DUP3 MSTORE PUSH1 0x20 DUP3 ADD SWAP1 POP SWAP3 SWAP2 POP POP JUMP JUMPDEST PUSH32 0x45524332303A206D696E7420746F20746865207A65726F206164647265737300 PUSH1 0x0 DUP3 ADD MSTORE POP JUMP JUMPDEST PUSH1 0x0 PUSH3 0x6BD PUSH1 0x1F DUP4 PUSH3 0x674 JUMP JUMPDEST SWAP2 POP PUSH3 0x6CA DUP3 PUSH3 0x685 JUMP JUMPDEST PUSH1 0x20 DUP3 ADD SWAP1 POP SWAP2 SWAP1 POP JUMP JUMPDEST PUSH1 0x0 PUSH1 0x20 DUP3 ADD SWAP1 POP DUP2 DUP2 SUB PUSH1 0x0 DUP4 ADD MSTORE PUSH3 0x6F0 DUP2 PUSH3 0x6AE JUMP JUMPDEST SWAP1 POP SWAP2 SWAP1 POP JUMP JUMPDEST PUSH32 0x4E487B7100000000000000000000000000000000000000000000000000000000 PUSH1 0x0 MSTORE PUSH1 0x11 PUSH1 0x4 MSTORE PUSH1 0x24 PUSH1 0x0 REVERT JUMPDEST PUSH1 0x0 PUSH3 0x733 DUP3 PUSH3 0x439 JUMP JUMPDEST SWAP2 POP PUSH3 0x740 DUP4 PUSH3 0x439 JUMP JUMPDEST SWAP3 POP DUP3 DUP3 ADD SWAP1 POP DUP1 DUP3 GT ISZERO PUSH3 0x75B JUMPI PUSH3 0x75A PUSH3 0x6F7 JUMP JUMPDEST JUMPDEST SWAP3 SWAP2 POP POP JUMP JUMPDEST PUSH3 0x76C DUP2 PUSH3 0x439 JUMP JUMPDEST DUP3 MSTORE POP POP JUMP JUMPDEST PUSH1 0x0 PUSH1 0x20 DUP3 ADD SWAP1 POP PUSH3 0x789 PUSH1 0x0 DUP4 ADD DUP5 PUSH3 0x761 JUMP JUMPDEST SWAP3 SWAP2 POP POP JUMP JUMPDEST PUSH2 0x1E21 DUP1 PUSH3 0x79F PUSH1 0x0 CODECOPY PUSH1 0x0 RETURN INVALID PUSH1 0x80 PUSH1 0x40 MSTORE PUSH1 0x4 CALLDATASIZE LT PUSH2 0x102 JUMPI PUSH1 0x0 CALLDATALOAD PUSH1 0xE0 SHR DUP1 PUSH4 0x70A08231 GT PUSH2 0x95 JUMPI DUP1 PUSH4 0xCBDD69B5 GT PUSH2 0x64 JUMPI DUP1 PUSH4 0xCBDD69B5 EQ PUSH2 0x470 JUMPI DUP1 PUSH4 0xDD62ED3E EQ PUSH2 0x49B JUMPI DUP1 PUSH4 0xE97DCB62 EQ PUSH2 0x4D8 JUMPI DUP1 PUSH4 0xF71D96CB EQ PUSH2 0x4E2 JUMPI DUP1 PUSH4 0xF851A440 EQ PUSH2 0x51F JUMPI PUSH2 0x20F JUMP JUMPDEST DUP1 PUSH4 0x70A08231 EQ PUSH2 0x38E JUMPI DUP1 PUSH4 0x95D89B41 EQ PUSH2 0x3CB JUMPI DUP1 PUSH4 0xA457C2D7 EQ PUSH2 0x3F6 JUMPI DUP1 PUSH4 0xA9059CBB EQ PUSH2 0x433 JUMPI PUSH2 0x20F JUMP JUMPDEST DUP1 PUSH4 0x23B872DD GT PUSH2 0xD1 JUMPI DUP1 PUSH4 0x23B872DD EQ PUSH2 0x2D2 JUMPI DUP1 PUSH4 0x313CE567 EQ PUSH2 0x30F JUMPI DUP1 PUSH4 0x39509351 EQ PUSH2 0x33A JUMPI DUP1 PUSH4 0x5D495AEA EQ PUSH2 0x377 JUMPI PUSH2 0x20F JUMP JUMPDEST DUP1 PUSH4 0x6FDDE03 EQ PUSH2 0x214 JUMPI DUP1 PUSH4 0x95EA7B3 EQ PUSH2 0x23F JUMPI DUP1 PUSH4 0x12065FE0 EQ PUSH2 0x27C JUMPI DUP1 PUSH4 0x18160DDD EQ PUSH2 0x2A7 JUMPI PUSH2 0x20F JUMP JUMPDEST CALLDATASIZE PUSH2 0x20F JUMPI PUSH8 0x16345785D8A0000 CALLVALUE EQ PUSH2 0x151 JUMPI PUSH1 0x40 MLOAD PUSH32 0x8C379A000000000000000000000000000000000000000000000000000000000 DUP2 MSTORE PUSH1 0x4 ADD PUSH2 0x148 SWAP1 PUSH2 0x12D3 JUMP JUMPDEST PUSH1 0x40 MLOAD DUP1 SWAP2 SUB SWAP1 REVERT JUMPDEST PUSH1 0x6 PUSH1 0x0 SWAP1 SLOAD SWAP1 PUSH2 0x100 EXP SWAP1 DIV PUSH20 0xFFFFFFFFFFFFFFFFFFFFFFFFFFFFFFFFFFFFFFFF AND PUSH20 0xFFFFFFFFFFFFFFFFFFFFFFFFFFFFFFFFFFFFFFFF AND CALLER PUSH20 0xFFFFFFFFFFFFFFFFFFFFFFFFFFFFFFFFFFFFFFFF AND SUB PUSH2 0x1AB JUMPI PUSH1 0x0 DUP1 REVERT JUMPDEST PUSH1 0x5 CALLER SWAP1 DUP1 PUSH1 0x1 DUP2 SLOAD ADD DUP1 DUP3 SSTORE DUP1 SWAP2 POP POP PUSH1 0x1 SWAP1 SUB SWAP1 PUSH1 0x0 MSTORE PUSH1 0x20 PUSH1 0x0 KECCAK256 ADD PUSH1 0x0 SWAP1 SWAP2 SWAP1 SWAP2 SWAP1 SWAP2 PUSH2 0x100 EXP DUP2 SLOAD DUP2 PUSH20 0xFFFFFFFFFFFFFFFFFFFFFFFFFFFFFFFFFFFFFFFF MUL NOT AND SWAP1 DUP4 PUSH20 0xFFFFFFFFFFFFFFFFFFFFFFFFFFFFFFFFFFFFFFFF AND MUL OR SWAP1 SSTORE STOP JUMPDEST PUSH1 0x0 DUP1 REVERT JUMPDEST CALLVALUE DUP1 ISZERO PUSH2 0x220 JUMPI PUSH1 0x0 DUP1 REVERT JUMPDEST POP PUSH2 0x229 PUSH2 0x54A JUMP JUMPDEST PUSH1 0x40 MLOAD PUSH2 0x236 SWAP2 SWAP1 PUSH2 0x1372 JUMP JUMPDEST PUSH1 0x40 MLOAD DUP1 SWAP2 SUB SWAP1 RETURN JUMPDEST CALLVALUE DUP1 ISZERO PUSH2 0x24B JUMPI PUSH1 0x0 DUP1 REVERT JUMPDEST POP PUSH2 0x266 PUSH1 0x4 DUP1 CALLDATASIZE SUB DUP2 ADD SWAP1 PUSH2 0x261 SWAP2 SWAP1 PUSH2 0x142D JUMP JUMPDEST PUSH2 0x5DC JUMP JUMPDEST PUSH1 0x40 MLOAD PUSH2 0x273 SWAP2 SWAP1 PUSH2 0x1488 JUMP JUMPDEST PUSH1 0x40 MLOAD DUP1 SWAP2 SUB SWAP1 RETURN JUMPDEST CALLVALUE DUP1 ISZERO PUSH2 0x288 JUMPI PUSH1 0x0 DUP1 REVERT JUMPDEST POP PUSH2 0x291 PUSH2 0x5FF JUMP JUMPDEST PUSH1 0x40 MLOAD PUSH2 0x29E SWAP2 SWAP1 PUSH2 0x14B2 JUMP JUMPDEST PUSH1 0x40 MLOAD DUP1 SWAP2 SUB SWAP1 RETURN JUMPDEST CALLVALUE DUP1 ISZERO PUSH2 0x2B3 JUMPI PUSH1 0x0 DUP1 REVERT JUMPDEST POP PUSH2 0x2BC PUSH2 0x607 JUMP JUMPDEST PUSH1 0x40 MLOAD PUSH2 0x2C9 SWAP2 SWAP1 PUSH2 0x14B2 JUMP JUMPDEST PUSH1 0x40 MLOAD DUP1 SWAP2 SUB SWAP1 RETURN JUMPDEST CALLVALUE DUP1 ISZERO PUSH2 0x2DE JUMPI PUSH1 0x0 DUP1 REVERT JUMPDEST POP PUSH2 0x2F9 PUSH1 0x4 DUP1 CALLDATASIZE SUB DUP2 ADD SWAP1 PUSH2 0x2F4 SWAP2 SWAP1 PUSH2 0x14CD JUMP JUMPDEST PUSH2 0x611 JUMP JUMPDEST PUSH1 0x40 MLOAD PUSH2 0x306 SWAP2 SWAP1 PUSH2 0x1488 JUMP JUMPDEST PUSH1 0x40 MLOAD DUP1 SWAP2 SUB SWAP1 RETURN JUMPDEST CALLVALUE DUP1 ISZERO PUSH2 0x31B JUMPI PUSH1 0x0 DUP1 REVERT JUMPDEST POP PUSH2 0x324 PUSH2 0x640 JUMP JUMPDEST PUSH1 0x40 MLOAD PUSH2 0x331 SWAP2 SWAP1 PUSH2 0x153C JUMP JUMPDEST PUSH1 0x40 MLOAD DUP1 SWAP2 SUB SWAP1 RETURN JUMPDEST CALLVALUE DUP1 ISZERO PUSH2 0x346 JUMPI PUSH1 0x0 DUP1 REVERT JUMPDEST POP PUSH2 0x361 PUSH1 0x4 DUP1 CALLDATASIZE SUB DUP2 ADD SWAP1 PUSH2 0x35C SWAP2 SWAP1 PUSH2 0x142D JUMP JUMPDEST PUSH2 0x649 JUMP JUMPDEST PUSH1 0x40 MLOAD PUSH2 0x36E SWAP2 SWAP1 PUSH2 0x1488 JUMP JUMPDEST PUSH1 0x40 MLOAD DUP1 SWAP2 SUB SWAP1 RETURN JUMPDEST CALLVALUE DUP1 ISZERO PUSH2 0x383 JUMPI PUSH1 0x0 DUP1 REVERT JUMPDEST POP PUSH2 0x38C PUSH2 0x680 JUMP JUMPDEST STOP JUMPDEST CALLVALUE DUP1 ISZERO PUSH2 0x39A JUMPI PUSH1 0x0 DUP1 REVERT JUMPDEST POP PUSH2 0x3B5 PUSH1 0x4 DUP1 CALLDATASIZE SUB DUP2 ADD SWAP1 PUSH2 0x3B0 SWAP2 SWAP1 PUSH2 0x1557 JUMP JUMPDEST PUSH2 0x8AB JUMP JUMPDEST PUSH1 0x40 MLOAD PUSH2 0x3C2 SWAP2 SWAP1 PUSH2 0x14B2 JUMP JUMPDEST PUSH1 0x40 MLOAD DUP1 SWAP2 SUB SWAP1 RETURN JUMPDEST CALLVALUE DUP1 ISZERO PUSH2 0x3D7 JUMPI PUSH1 0x0 DUP1 REVERT JUMPDEST POP PUSH2 0x3E0 PUSH2 0x8F3 JUMP JUMPDEST PUSH1 0x40 MLOAD PUSH2 0x3ED SWAP2 SWAP1 PUSH2 0x1372 JUMP JUMPDEST PUSH1 0x40 MLOAD DUP1 SWAP2 SUB SWAP1 RETURN JUMPDEST CALLVALUE DUP1 ISZERO PUSH2 0x402 JUMPI PUSH1 0x0 DUP1 REVERT JUMPDEST POP PUSH2 0x41D PUSH1 0x4 DUP1 CALLDATASIZE SUB DUP2 ADD SWAP1 PUSH2 0x418 SWAP2 SWAP1 PUSH2 0x142D JUMP JUMPDEST PUSH2 0x985 JUMP JUMPDEST PUSH1 0x40 MLOAD PUSH2 0x42A SWAP2 SWAP1 PUSH2 0x1488 JUMP JUMPDEST PUSH1 0x40 MLOAD DUP1 SWAP2 SUB SWAP1 RETURN JUMPDEST CALLVALUE DUP1 ISZERO PUSH2 0x43F JUMPI PUSH1 0x0 DUP1 REVERT JUMPDEST POP PUSH2 0x45A PUSH1 0x4 DUP1 CALLDATASIZE SUB DUP2 ADD SWAP1 PUSH2 0x455 SWAP2 SWAP1 PUSH2 0x142D JUMP JUMPDEST PUSH2 0x9FC JUMP JUMPDEST PUSH1 0x40 MLOAD PUSH2 0x467 SWAP2 SWAP1 PUSH2 0x1488 JUMP JUMPDEST PUSH1 0x40 MLOAD DUP1 SWAP2 SUB SWAP1 RETURN JUMPDEST CALLVALUE DUP1 ISZERO PUSH2 0x47C JUMPI PUSH1 0x0 DUP1 REVERT JUMPDEST POP PUSH2 0x485 PUSH2 0xA1F JUMP JUMPDEST PUSH1 0x40 MLOAD PUSH2 0x492 SWAP2 SWAP1 PUSH2 0x14B2 JUMP JUMPDEST PUSH1 0x40 MLOAD DUP1 SWAP2 SUB SWAP1 RETURN JUMPDEST CALLVALUE DUP1 ISZERO PUSH2 0x4A7 JUMPI PUSH1 0x0 DUP1 REVERT JUMPDEST POP PUSH2 0x4C2 PUSH1 0x4 DUP1 CALLDATASIZE SUB DUP2 ADD SWAP1 PUSH2 0x4BD SWAP2 SWAP1 PUSH2 0x1584 JUMP JUMPDEST PUSH2 0xA25 JUMP JUMPDEST PUSH1 0x40 MLOAD PUSH2 0x4CF SWAP2 SWAP1 PUSH2 0x14B2 JUMP JUMPDEST PUSH1 0x40 MLOAD DUP1 SWAP2 SUB SWAP1 RETURN JUMPDEST PUSH2 0x4E0 PUSH2 0xAAC JUMP JUMPDEST STOP JUMPDEST CALLVALUE DUP1 ISZERO PUSH2 0x4EE JUMPI PUSH1 0x0 DUP1 REVERT JUMPDEST POP PUSH2 0x509 PUSH1 0x4 DUP1 CALLDATASIZE SUB DUP2 ADD SWAP1 PUSH2 0x504 SWAP2 SWAP1 PUSH2 0x15C4 JUMP JUMPDEST PUSH2 0xBE8 JUMP JUMPDEST PUSH1 0x40 MLOAD PUSH2 0x516 SWAP2 SWAP1 PUSH2 0x1612 JUMP JUMPDEST PUSH1 0x40 MLOAD DUP1 SWAP2 SUB SWAP1 RETURN JUMPDEST CALLVALUE DUP1 ISZERO PUSH2 0x52B JUMPI PUSH1 0x0 DUP1 REVERT JUMPDEST POP PUSH2 0x534 PUSH2 0xC27 JUMP JUMPDEST PUSH1 0x40 MLOAD PUSH2 0x541 SWAP2 SWAP1 PUSH2 0x163C JUMP JUMPDEST PUSH1 0x40 MLOAD DUP1 SWAP2 SUB SWAP1 RETURN JUMPDEST PUSH1 0x60 PUSH1 0x3 DUP1 SLOAD PUSH2 0x559 SWAP1 PUSH2 0x1686 JUMP JUMPDEST DUP1 PUSH1 0x1F ADD PUSH1 0x20 DUP1 SWAP2 DIV MUL PUSH1 0x20 ADD PUSH1 0x40 MLOAD SWAP1 DUP2 ADD PUSH1 0x40 MSTORE DUP1 SWAP3 SWAP2 SWAP1 DUP2 DUP2 MSTORE PUSH1 0x20 ADD DUP3 DUP1 SLOAD PUSH2 0x585 SWAP1 PUSH2 0x1686 JUMP JUMPDEST DUP1 ISZERO PUSH2 0x5D2 JUMPI DUP1 PUSH1 0x1F LT PUSH2 0x5A7 JUMPI PUSH2 0x100 DUP1 DUP4 SLOAD DIV MUL DUP4 MSTORE SWAP2 PUSH1 0x20 ADD SWAP2 PUSH2 0x5D2 JUMP JUMPDEST DUP3 ADD SWAP2 SWAP1 PUSH1 0x0 MSTORE PUSH1 0x20 PUSH1 0x0 KECCAK256 SWAP1 JUMPDEST DUP2 SLOAD DUP2 MSTORE SWAP1 PUSH1 0x1 ADD SWAP1 PUSH1 0x20 ADD DUP1 DUP4 GT PUSH2 0x5B5 JUMPI DUP3 SWAP1 SUB PUSH1 0x1F AND DUP3 ADD SWAP2 JUMPDEST POP POP POP POP POP SWAP1 POP SWAP1 JUMP JUMPDEST PUSH1 0x0 DUP1 PUSH2 0x5E7 PUSH2 0xC4D JUMP JUMPDEST SWAP1 POP PUSH2 0x5F4 DUP2 DUP6 DUP6 PUSH2 0xC55 JUMP JUMPDEST PUSH1 0x1 SWAP2 POP POP SWAP3 SWAP2 POP POP JUMP JUMPDEST PUSH1 0x0 SELFBALANCE SWAP1 POP SWAP1 JUMP JUMPDEST PUSH1 0x0 PUSH1 0x2 SLOAD SWAP1 POP SWAP1 JUMP JUMPDEST PUSH1 0x0 DUP1 PUSH2 0x61C PUSH2 0xC4D JUMP JUMPDEST SWAP1 POP PUSH2 0x629 DUP6 DUP3 DUP6 PUSH2 0xE1E JUMP JUMPDEST PUSH2 0x634 DUP6 DUP6 DUP6 PUSH2 0xEAA JUMP JUMPDEST PUSH1 0x1 SWAP2 POP POP SWAP4 SWAP3 POP POP POP JUMP JUMPDEST PUSH1 0x0 PUSH1 0x12 SWAP1 POP SWAP1 JUMP JUMPDEST PUSH1 0x0 DUP1 PUSH2 0x654 PUSH2 0xC4D JUMP JUMPDEST SWAP1 POP PUSH2 0x675 DUP2 DUP6 DUP6 PUSH2 0x666 DUP6 DUP10 PUSH2 0xA25 JUMP JUMPDEST PUSH2 0x670 SWAP2 SWAP1 PUSH2 0x16E6 JUMP JUMPDEST PUSH2 0xC55 JUMP JUMPDEST PUSH1 0x1 SWAP2 POP POP SWAP3 SWAP2 POP POP JUMP JUMPDEST CALLER PUSH20 0xFFFFFFFFFFFFFFFFFFFFFFFFFFFFFFFFFFFFFFFF AND PUSH1 0x6 PUSH1 0x0 SWAP1 SLOAD SWAP1 PUSH2 0x100 EXP SWAP1 DIV PUSH20 0xFFFFFFFFFFFFFFFFFFFFFFFFFFFFFFFFFFFFFFFF AND PUSH20 0xFFFFFFFFFFFFFFFFFFFFFFFFFFFFFFFFFFFFFFFF AND EQ PUSH2 0x710 JUMPI PUSH1 0x40 MLOAD PUSH32 0x8C379A000000000000000000000000000000000000000000000000000000000 DUP2 MSTORE PUSH1 0x4 ADD PUSH2 0x707 SWAP1 PUSH2 0x1766 JUMP JUMPDEST PUSH1 0x40 MLOAD DUP1 SWAP2 SUB SWAP1 REVERT JUMPDEST PUSH1 0x3 PUSH1 0x5 DUP1 SLOAD SWAP1 POP LT ISZERO PUSH2 0x759 JUMPI PUSH1 0x40 MLOAD PUSH32 0x8C379A000000000000000000000000000000000000000000000000000000000 DUP2 MSTORE PUSH1 0x4 ADD PUSH2 0x750 SWAP1 PUSH2 0x17F8 JUMP JUMPDEST PUSH1 0x40 MLOAD DUP1 SWAP2 SUB SWAP1 REVERT JUMPDEST PUSH1 0x0 PUSH1 0x5 DUP1 DUP1 SLOAD SWAP1 POP PUSH2 0x76A PUSH2 0x1129 JUMP JUMPDEST PUSH2 0x774 SWAP2 SWAP1 PUSH2 0x1847 JUMP JUMPDEST DUP2 SLOAD DUP2 LT PUSH2 0x785 JUMPI PUSH2 0x784 PUSH2 0x1878 JUMP JUMPDEST JUMPDEST SWAP1 PUSH1 0x0 MSTORE PUSH1 0x20 PUSH1 0x0 KECCAK256 ADD PUSH1 0x0 SWAP1 SLOAD SWAP1 PUSH2 0x100 EXP SWAP1 DIV PUSH20 0xFFFFFFFFFFFFFFFFFFFFFFFFFFFFFFFFFFFFFFFF AND SWAP1 POP DUP1 PUSH20 0xFFFFFFFFFFFFFFFFFFFFFFFFFFFFFFFFFFFFFFFF AND PUSH2 0x8FC PUSH1 0x64 PUSH1 0x5A PUSH2 0x7D8 PUSH2 0x5FF JUMP JUMPDEST PUSH2 0x7E2 SWAP2 SWAP1 PUSH2 0x18A7 JUMP JUMPDEST PUSH2 0x7EC SWAP2 SWAP1 PUSH2 0x18E9 JUMP JUMPDEST SWAP1 DUP2 ISZERO MUL SWAP1 PUSH1 0x40 MLOAD PUSH1 0x0 PUSH1 0x40 MLOAD DUP1 DUP4 SUB DUP2 DUP6 DUP9 DUP9 CALL SWAP4 POP POP POP POP ISZERO DUP1 ISZERO PUSH2 0x817 JUMPI RETURNDATASIZE PUSH1 0x0 DUP1 RETURNDATACOPY RETURNDATASIZE PUSH1 0x0 REVERT JUMPDEST POP PUSH1 0x6 PUSH1 0x0 SWAP1 SLOAD SWAP1 PUSH2 0x100 EXP SWAP1 DIV PUSH20 0xFFFFFFFFFFFFFFFFFFFFFFFFFFFFFFFFFFFFFFFF AND PUSH20 0xFFFFFFFFFFFFFFFFFFFFFFFFFFFFFFFFFFFFFFFF AND PUSH2 0x8FC PUSH1 0x64 PUSH1 0xA PUSH2 0x860 PUSH2 0x5FF JUMP JUMPDEST PUSH2 0x86A SWAP2 SWAP1 PUSH2 0x18A7 JUMP JUMPDEST PUSH2 0x874 SWAP2 SWAP1 PUSH2 0x18E9 JUMP JUMPDEST SWAP1 DUP2 ISZERO MUL SWAP1 PUSH1 0x40 MLOAD PUSH1 0x0 PUSH1 0x40 MLOAD DUP1 DUP4 SUB DUP2 DUP6 DUP9 DUP9 CALL SWAP4 POP POP POP POP ISZERO DUP1 ISZERO PUSH2 0x89F JUMPI RETURNDATASIZE PUSH1 0x0 DUP1 RETURNDATACOPY RETURNDATASIZE PUSH1 0x0 REVERT JUMPDEST POP PUSH2 0x8A8 PUSH2 0x1163 JUMP JUMPDEST POP JUMP JUMPDEST PUSH1 0x0 DUP1 PUSH1 0x0 DUP4 PUSH20 0xFFFFFFFFFFFFFFFFFFFFFFFFFFFFFFFFFFFFFFFF AND PUSH20 0xFFFFFFFFFFFFFFFFFFFFFFFFFFFFFFFFFFFFFFFF AND DUP2 MSTORE PUSH1 0x20 ADD SWAP1 DUP2 MSTORE PUSH1 0x20 ADD PUSH1 0x0 KECCAK256 SLOAD SWAP1 POP SWAP2 SWAP1 POP JUMP JUMPDEST PUSH1 0x60 PUSH1 0x4 DUP1 SLOAD PUSH2 0x902 SWAP1 PUSH2 0x1686 JUMP JUMPDEST DUP1 PUSH1 0x1F ADD PUSH1 0x20 DUP1 SWAP2 DIV MUL PUSH1 0x20 ADD PUSH1 0x40 MLOAD SWAP1 DUP2 ADD PUSH1 0x40 MSTORE DUP1 SWAP3 SWAP2 SWAP1 DUP2 DUP2 MSTORE PUSH1 0x20 ADD DUP3 DUP1 SLOAD PUSH2 0x92E SWAP1 PUSH2 0x1686 JUMP JUMPDEST DUP1 ISZERO PUSH2 0x97B JUMPI DUP1 PUSH1 0x1F LT PUSH2 0x950 JUMPI PUSH2 0x100 DUP1 DUP4 SLOAD DIV MUL DUP4 MSTORE SWAP2 PUSH1 0x20 ADD SWAP2 PUSH2 0x97B JUMP JUMPDEST DUP3 ADD SWAP2 SWAP1 PUSH1 0x0 MSTORE PUSH1 0x20 PUSH1 0x0 KECCAK256 SWAP1 JUMPDEST DUP2 SLOAD DUP2 MSTORE SWAP1 PUSH1 0x1 ADD SWAP1 PUSH1 0x20 ADD DUP1 DUP4 GT PUSH2 0x95E JUMPI DUP3 SWAP1 SUB PUSH1 0x1F AND DUP3 ADD SWAP2 JUMPDEST POP POP POP POP POP SWAP1 POP SWAP1 JUMP JUMPDEST PUSH1 0x0 DUP1 PUSH2 0x990 PUSH2 0xC4D JUMP JUMPDEST SWAP1 POP PUSH1 0x0 PUSH2 0x99E DUP3 DUP7 PUSH2 0xA25 JUMP JUMPDEST SWAP1 POP DUP4 DUP2 LT ISZERO PUSH2 0x9E3 JUMPI PUSH1 0x40 MLOAD PUSH32 0x8C379A000000000000000000000000000000000000000000000000000000000 DUP2 MSTORE PUSH1 0x4 ADD PUSH2 0x9DA SWAP1 PUSH2 0x198C JUMP JUMPDEST PUSH1 0x40 MLOAD DUP1 SWAP2 SUB SWAP1 REVERT JUMPDEST PUSH2 0x9F0 DUP3 DUP7 DUP7 DUP5 SUB PUSH2 0xC55 JUMP JUMPDEST PUSH1 0x1 SWAP3 POP POP POP SWAP3 SWAP2 POP POP JUMP JUMPDEST PUSH1 0x0 DUP1 PUSH2 0xA07 PUSH2 0xC4D JUMP JUMPDEST SWAP1 POP PUSH2 0xA14 DUP2 DUP6 DUP6 PUSH2 0xEAA JUMP JUMPDEST PUSH1 0x1 SWAP2 POP POP SWAP3 SWAP2 POP POP JUMP JUMPDEST PUSH1 0x7 SLOAD DUP2 JUMP JUMPDEST PUSH1 0x0 PUSH1 0x1 PUSH1 0x0 DUP5 PUSH20 0xFFFFFFFFFFFFFFFFFFFFFFFFFFFFFFFFFFFFFFFF AND PUSH20 0xFFFFFFFFFFFFFFFFFFFFFFFFFFFFFFFFFFFFFFFF AND DUP2 MSTORE PUSH1 0x20 ADD SWAP1 DUP2 MSTORE PUSH1 0x20 ADD PUSH1 0x0 KECCAK256 PUSH1 0x0 DUP4 PUSH20 0xFFFFFFFFFFFFFFFFFFFFFFFFFFFFFFFFFFFFFFFF AND PUSH20 0xFFFFFFFFFFFFFFFFFFFFFFFFFFFFFFFFFFFFFFFF AND DUP2 MSTORE PUSH1 0x20 ADD SWAP1 DUP2 MSTORE PUSH1 0x20 ADD PUSH1 0x0 KECCAK256 SLOAD SWAP1 POP SWAP3 SWAP2 POP POP JUMP JUMPDEST PUSH8 0x16345785D8A0000 CALLVALUE GT PUSH2 0xAF6 JUMPI PUSH1 0x40 MLOAD PUSH32 0x8C379A000000000000000000000000000000000000000000000000000000000 DUP2 MSTORE PUSH1 0x4 ADD PUSH2 0xAED SWAP1 PUSH2 0x19F8 JUMP JUMPDEST PUSH1 0x40 MLOAD DUP1 SWAP2 SUB SWAP1 REVERT JUMPDEST PUSH1 0x0 CALLVALUE SWAP1 POP PUSH1 0x5 CALLER SWAP1 DUP1 PUSH1 0x1 DUP2 SLOAD ADD DUP1 DUP3 SSTORE DUP1 SWAP2 POP POP PUSH1 0x1 SWAP1 SUB SWAP1 PUSH1 0x0 MSTORE PUSH1 0x20 PUSH1 0x0 KECCAK256 ADD PUSH1 0x0 SWAP1 SWAP2 SWAP1 SWAP2 SWAP1 SWAP2 PUSH2 0x100 EXP DUP2 SLOAD DUP2 PUSH20 0xFFFFFFFFFFFFFFFFFFFFFFFFFFFFFFFFFFFFFFFF MUL NOT AND SWAP1 DUP4 PUSH20 0xFFFFFFFFFFFFFFFFFFFFFFFFFFFFFFFFFFFFFFFF AND MUL OR SWAP1 SSTORE POP CALLER PUSH20 0xFFFFFFFFFFFFFFFFFFFFFFFFFFFFFFFFFFFFFFFF AND PUSH1 0x6 PUSH1 0x0 SWAP1 SLOAD SWAP1 PUSH2 0x100 EXP SWAP1 DIV PUSH20 0xFFFFFFFFFFFFFFFFFFFFFFFFFFFFFFFFFFFFFFFF AND PUSH20 0xFFFFFFFFFFFFFFFFFFFFFFFFFFFFFFFFFFFFFFFF AND PUSH32 0xDDF252AD1BE2C89B69C2B068FC378DAA952BA7F163C4A11628F55A4DF523B3EF DUP4 PUSH1 0x40 MLOAD PUSH2 0xBDD SWAP2 SWAP1 PUSH2 0x14B2 JUMP JUMPDEST PUSH1 0x40 MLOAD DUP1 SWAP2 SUB SWAP1 LOG3 POP JUMP JUMPDEST PUSH1 0x5 DUP2 DUP2 SLOAD DUP2 LT PUSH2 0xBF8 JUMPI PUSH1 0x0 DUP1 REVERT JUMPDEST SWAP1 PUSH1 0x0 MSTORE PUSH1 0x20 PUSH1 0x0 KECCAK256 ADD PUSH1 0x0 SWAP2 POP SLOAD SWAP1 PUSH2 0x100 EXP SWAP1 DIV PUSH20 0xFFFFFFFFFFFFFFFFFFFFFFFFFFFFFFFFFFFFFFFF AND DUP2 JUMP JUMPDEST PUSH1 0x6 PUSH1 0x0 SWAP1 SLOAD SWAP1 PUSH2 0x100 EXP SWAP1 DIV PUSH20 0xFFFFFFFFFFFFFFFFFFFFFFFFFFFFFFFFFFFFFFFF AND DUP2 JUMP JUMPDEST PUSH1 0x0 CALLER SWAP1 POP SWAP1 JUMP JUMPDEST PUSH1 0x0 PUSH20 0xFFFFFFFFFFFFFFFFFFFFFFFFFFFFFFFFFFFFFFFF AND DUP4 PUSH20 0xFFFFFFFFFFFFFFFFFFFFFFFFFFFFFFFFFFFFFFFF AND SUB PUSH2 0xCC4 JUMPI PUSH1 0x40 MLOAD PUSH32 0x8C379A000000000000000000000000000000000000000000000000000000000 DUP2 MSTORE PUSH1 0x4 ADD PUSH2 0xCBB SWAP1 PUSH2 0x1A8A JUMP JUMPDEST PUSH1 0x40 MLOAD DUP1 SWAP2 SUB SWAP1 REVERT JUMPDEST PUSH1 0x0 PUSH20 0xFFFFFFFFFFFFFFFFFFFFFFFFFFFFFFFFFFFFFFFF AND DUP3 PUSH20 0xFFFFFFFFFFFFFFFFFFFFFFFFFFFFFFFFFFFFFFFF AND SUB PUSH2 0xD33 JUMPI PUSH1 0x40 MLOAD PUSH32 0x8C379A000000000000000000000000000000000000000000000000000000000 DUP2 MSTORE PUSH1 0x4 ADD PUSH2 0xD2A SWAP1 PUSH2 0x1B1C JUMP JUMPDEST PUSH1 0x40 MLOAD DUP1 SWAP2 SUB SWAP1 REVERT JUMPDEST DUP1 PUSH1 0x1 PUSH1 0x0 DUP6 PUSH20 0xFFFFFFFFFFFFFFFFFFFFFFFFFFFFFFFFFFFFFFFF AND PUSH20 0xFFFFFFFFFFFFFFFFFFFFFFFFFFFFFFFFFFFFFFFF AND DUP2 MSTORE PUSH1 0x20 ADD SWAP1 DUP2 MSTORE PUSH1 0x20 ADD PUSH1 0x0 KECCAK256 PUSH1 0x0 DUP5 PUSH20 0xFFFFFFFFFFFFFFFFFFFFFFFFFFFFFFFFFFFFFFFF AND PUSH20 0xFFFFFFFFFFFFFFFFFFFFFFFFFFFFFFFFFFFFFFFF AND DUP2 MSTORE PUSH1 0x20 ADD SWAP1 DUP2 MSTORE PUSH1 0x20 ADD PUSH1 0x0 KECCAK256 DUP2 SWAP1 SSTORE POP DUP2 PUSH20 0xFFFFFFFFFFFFFFFFFFFFFFFFFFFFFFFFFFFFFFFF AND DUP4 PUSH20 0xFFFFFFFFFFFFFFFFFFFFFFFFFFFFFFFFFFFFFFFF AND PUSH32 0x8C5BE1E5EBEC7D5BD14F71427D1E84F3DD0314C0F7B2291E5B200AC8C7C3B925 DUP4 PUSH1 0x40 MLOAD PUSH2 0xE11 SWAP2 SWAP1 PUSH2 0x14B2 JUMP JUMPDEST PUSH1 0x40 MLOAD DUP1 SWAP2 SUB SWAP1 LOG3 POP POP POP JUMP JUMPDEST PUSH1 0x0 PUSH2 0xE2A DUP5 DUP5 PUSH2 0xA25 JUMP JUMPDEST SWAP1 POP PUSH32 0xFFFFFFFFFFFFFFFFFFFFFFFFFFFFFFFFFFFFFFFFFFFFFFFFFFFFFFFFFFFFFFFF DUP2 EQ PUSH2 0xEA4 JUMPI DUP2 DUP2 LT ISZERO PUSH2 0xE96 JUMPI PUSH1 0x40 MLOAD PUSH32 0x8C379A000000000000000000000000000000000000000000000000000000000 DUP2 MSTORE PUSH1 0x4 ADD PUSH2 0xE8D SWAP1 PUSH2 0x1B88 JUMP JUMPDEST PUSH1 0x40 MLOAD DUP1 SWAP2 SUB SWAP1 REVERT JUMPDEST PUSH2 0xEA3 DUP5 DUP5 DUP5 DUP5 SUB PUSH2 0xC55 JUMP JUMPDEST JUMPDEST POP POP POP POP JUMP JUMPDEST PUSH1 0x0 PUSH20 0xFFFFFFFFFFFFFFFFFFFFFFFFFFFFFFFFFFFFFFFF AND DUP4 PUSH20 0xFFFFFFFFFFFFFFFFFFFFFFFFFFFFFFFFFFFFFFFF AND SUB PUSH2 0xF19 JUMPI PUSH1 0x40 MLOAD PUSH32 0x8C379A000000000000000000000000000000000000000000000000000000000 DUP2 MSTORE PUSH1 0x4 ADD PUSH2 0xF10 SWAP1 PUSH2 0x1C1A JUMP JUMPDEST PUSH1 0x40 MLOAD DUP1 SWAP2 SUB SWAP1 REVERT JUMPDEST PUSH1 0x0 PUSH20 0xFFFFFFFFFFFFFFFFFFFFFFFFFFFFFFFFFFFFFFFF AND DUP3 PUSH20 0xFFFFFFFFFFFFFFFFFFFFFFFFFFFFFFFFFFFFFFFF AND SUB PUSH2 0xF88 JUMPI PUSH1 0x40 MLOAD PUSH32 0x8C379A000000000000000000000000000000000000000000000000000000000 DUP2 MSTORE PUSH1 0x4 ADD PUSH2 0xF7F SWAP1 PUSH2 0x1CAC JUMP JUMPDEST PUSH1 0x40 MLOAD DUP1 SWAP2 SUB SWAP1 REVERT JUMPDEST PUSH2 0xF93 DUP4 DUP4 DUP4 PUSH2 0x11C5 JUMP JUMPDEST PUSH1 0x0 DUP1 PUSH1 0x0 DUP6 PUSH20 0xFFFFFFFFFFFFFFFFFFFFFFFFFFFFFFFFFFFFFFFF AND PUSH20 0xFFFFFFFFFFFFFFFFFFFFFFFFFFFFFFFFFFFFFFFF AND DUP2 MSTORE PUSH1 0x20 ADD SWAP1 DUP2 MSTORE PUSH1 0x20 ADD PUSH1 0x0 KECCAK256 SLOAD SWAP1 POP DUP2 DUP2 LT ISZERO PUSH2 0x1019 JUMPI PUSH1 0x40 MLOAD PUSH32 0x8C379A000000000000000000000000000000000000000000000000000000000 DUP2 MSTORE PUSH1 0x4 ADD PUSH2 0x1010 SWAP1 PUSH2 0x1D3E JUMP JUMPDEST PUSH1 0x40 MLOAD DUP1 SWAP2 SUB SWAP1 REVERT JUMPDEST DUP2 DUP2 SUB PUSH1 0x0 DUP1 DUP7 PUSH20 0xFFFFFFFFFFFFFFFFFFFFFFFFFFFFFFFFFFFFFFFF AND PUSH20 0xFFFFFFFFFFFFFFFFFFFFFFFFFFFFFFFFFFFFFFFF AND DUP2 MSTORE PUSH1 0x20 ADD SWAP1 DUP2 MSTORE PUSH1 0x20 ADD PUSH1 0x0 KECCAK256 DUP2 SWAP1 SSTORE POP DUP2 PUSH1 0x0 DUP1 DUP6 PUSH20 0xFFFFFFFFFFFFFFFFFFFFFFFFFFFFFFFFFFFFFFFF AND PUSH20 0xFFFFFFFFFFFFFFFFFFFFFFFFFFFFFFFFFFFFFFFF AND DUP2 MSTORE PUSH1 0x20 ADD SWAP1 DUP2 MSTORE PUSH1 0x20 ADD PUSH1 0x0 KECCAK256 PUSH1 0x0 DUP3 DUP3 SLOAD PUSH2 0x10AC SWAP2 SWAP1 PUSH2 0x16E6 JUMP JUMPDEST SWAP3 POP POP DUP2 SWAP1 SSTORE POP DUP3 PUSH20 0xFFFFFFFFFFFFFFFFFFFFFFFFFFFFFFFFFFFFFFFF AND DUP5 PUSH20 0xFFFFFFFFFFFFFFFFFFFFFFFFFFFFFFFFFFFFFFFF AND PUSH32 0xDDF252AD1BE2C89B69C2B068FC378DAA952BA7F163C4A11628F55A4DF523B3EF DUP5 PUSH1 0x40 MLOAD PUSH2 0x1110 SWAP2 SWAP1 PUSH2 0x14B2 JUMP JUMPDEST PUSH1 0x40 MLOAD DUP1 SWAP2 SUB SWAP1 LOG3 PUSH2 0x1123 DUP5 DUP5 DUP5 PUSH2 0x11CA JUMP JUMPDEST POP POP POP POP JUMP JUMPDEST PUSH1 0x0 DIFFICULTY TIMESTAMP PUSH1 0x5 DUP1 SLOAD SWAP1 POP PUSH1 0x40 MLOAD PUSH1 0x20 ADD PUSH2 0x1145 SWAP4 SWAP3 SWAP2 SWAP1 PUSH2 0x1D7F JUMP JUMPDEST PUSH1 0x40 MLOAD PUSH1 0x20 DUP2 DUP4 SUB SUB DUP2 MSTORE SWAP1 PUSH1 0x40 MSTORE DUP1 MLOAD SWAP1 PUSH1 0x20 ADD KECCAK256 PUSH1 0x0 SHR SWAP1 POP SWAP1 JUMP JUMPDEST PUSH1 0x0 PUSH8 0xFFFFFFFFFFFFFFFF DUP2 GT ISZERO PUSH2 0x117E JUMPI PUSH2 0x117D PUSH2 0x1DBC JUMP JUMPDEST JUMPDEST PUSH1 0x40 MLOAD SWAP1 DUP1 DUP3 MSTORE DUP1 PUSH1 0x20 MUL PUSH1 0x20 ADD DUP3 ADD PUSH1 0x40 MSTORE DUP1 ISZERO PUSH2 0x11AC JUMPI DUP2 PUSH1 0x20 ADD PUSH1 0x20 DUP3 MUL DUP1 CALLDATASIZE DUP4 CALLDATACOPY DUP1 DUP3 ADD SWAP2 POP POP SWAP1 POP JUMPDEST POP PUSH1 0x5 SWAP1 DUP1 MLOAD SWAP1 PUSH1 0x20 ADD SWAP1 PUSH2 0x11C2 SWAP3 SWAP2 SWAP1 PUSH2 0x11CF JUMP JUMPDEST POP JUMP JUMPDEST POP POP POP JUMP JUMPDEST POP POP POP JUMP JUMPDEST DUP3 DUP1 SLOAD DUP3 DUP3 SSTORE SWAP1 PUSH1 0x0 MSTORE PUSH1 0x20 PUSH1 0x0 KECCAK256 SWAP1 DUP2 ADD SWAP3 DUP3 ISZERO PUSH2 0x1248 JUMPI SWAP2 PUSH1 0x20 MUL DUP3 ADD JUMPDEST DUP3 DUP2 GT ISZERO PUSH2 0x1247 JUMPI DUP3 MLOAD DUP3 PUSH1 0x0 PUSH2 0x100 EXP DUP2 SLOAD DUP2 PUSH20 0xFFFFFFFFFFFFFFFFFFFFFFFFFFFFFFFFFFFFFFFF MUL NOT AND SWAP1 DUP4 PUSH20 0xFFFFFFFFFFFFFFFFFFFFFFFFFFFFFFFFFFFFFFFF AND MUL OR SWAP1 SSTORE POP SWAP2 PUSH1 0x20 ADD SWAP2 SWAP1 PUSH1 0x1 ADD SWAP1 PUSH2 0x11EF JUMP JUMPDEST JUMPDEST POP SWAP1 POP PUSH2 0x1255 SWAP2 SWAP1 PUSH2 0x1259 JUMP JUMPDEST POP SWAP1 JUMP JUMPDEST JUMPDEST DUP1 DUP3 GT ISZERO PUSH2 0x1272 JUMPI PUSH1 0x0 DUP2 PUSH1 0x0 SWAP1 SSTORE POP PUSH1 0x1 ADD PUSH2 0x125A JUMP JUMPDEST POP SWAP1 JUMP JUMPDEST PUSH1 0x0 DUP3 DUP3 MSTORE PUSH1 0x20 DUP3 ADD SWAP1 POP SWAP3 SWAP2 POP POP JUMP JUMPDEST PUSH32 0x4D7573742073656E6420302E3120657468657220616D6F756E74000000000000 PUSH1 0x0 DUP3 ADD MSTORE POP JUMP JUMPDEST PUSH1 0x0 PUSH2 0x12BD PUSH1 0x1A DUP4 PUSH2 0x1276 JUMP JUMPDEST SWAP2 POP PUSH2 0x12C8 DUP3 PUSH2 0x1287 JUMP JUMPDEST PUSH1 0x20 DUP3 ADD SWAP1 POP SWAP2 SWAP1 POP JUMP JUMPDEST PUSH1 0x0 PUSH1 0x20 DUP3 ADD SWAP1 POP DUP2 DUP2 SUB PUSH1 0x0 DUP4 ADD MSTORE PUSH2 0x12EC DUP2 PUSH2 0x12B0 JUMP JUMPDEST SWAP1 POP SWAP2 SWAP1 POP JUMP JUMPDEST PUSH1 0x0 DUP2 MLOAD SWAP1 POP SWAP2 SWAP1 POP JUMP JUMPDEST PUSH1 0x0 JUMPDEST DUP4 DUP2 LT ISZERO PUSH2 0x131C JUMPI DUP1 DUP3 ADD MLOAD DUP2 DUP5 ADD MSTORE PUSH1 0x20 DUP2 ADD SWAP1 POP PUSH2 0x1301 JUMP JUMPDEST PUSH1 0x0 DUP5 DUP5 ADD MSTORE POP POP POP POP JUMP JUMPDEST PUSH1 0x0 PUSH1 0x1F NOT PUSH1 0x1F DUP4 ADD AND SWAP1 POP SWAP2 SWAP1 POP JUMP JUMPDEST PUSH1 0x0 PUSH2 0x1344 DUP3 PUSH2 0x12F3 JUMP JUMPDEST PUSH2 0x134E DUP2 DUP6 PUSH2 0x1276 JUMP JUMPDEST SWAP4 POP PUSH2 0x135E DUP2 DUP6 PUSH1 0x20 DUP7 ADD PUSH2 0x12FE JUMP JUMPDEST PUSH2 0x1367 DUP2 PUSH2 0x1328 JUMP JUMPDEST DUP5 ADD SWAP2 POP POP SWAP3 SWAP2 POP POP JUMP JUMPDEST PUSH1 0x0 PUSH1 0x20 DUP3 ADD SWAP1 POP DUP2 DUP2 SUB PUSH1 0x0 DUP4 ADD MSTORE PUSH2 0x138C DUP2 DUP5 PUSH2 0x1339 JUMP JUMPDEST SWAP1 POP SWAP3 SWAP2 POP POP JUMP JUMPDEST PUSH1 0x0 DUP1 REVERT JUMPDEST PUSH1 0x0 PUSH20 0xFFFFFFFFFFFFFFFFFFFFFFFFFFFFFFFFFFFFFFFF DUP3 AND SWAP1 POP SWAP2 SWAP1 POP JUMP JUMPDEST PUSH1 0x0 PUSH2 0x13C4 DUP3 PUSH2 0x1399 JUMP JUMPDEST SWAP1 POP SWAP2 SWAP1 POP JUMP JUMPDEST PUSH2 0x13D4 DUP2 PUSH2 0x13B9 JUMP JUMPDEST DUP2 EQ PUSH2 0x13DF JUMPI PUSH1 0x0 DUP1 REVERT JUMPDEST POP JUMP JUMPDEST PUSH1 0x0 DUP2 CALLDATALOAD SWAP1 POP PUSH2 0x13F1 DUP2 PUSH2 0x13CB JUMP JUMPDEST SWAP3 SWAP2 POP POP JUMP JUMPDEST PUSH1 0x0 DUP2 SWAP1 POP SWAP2 SWAP1 POP JUMP JUMPDEST PUSH2 0x140A DUP2 PUSH2 0x13F7 JUMP JUMPDEST DUP2 EQ PUSH2 0x1415 JUMPI PUSH1 0x0 DUP1 REVERT JUMPDEST POP JUMP JUMPDEST PUSH1 0x0 DUP2 CALLDATALOAD SWAP1 POP PUSH2 0x1427 DUP2 PUSH2 0x1401 JUMP JUMPDEST SWAP3 SWAP2 POP POP JUMP JUMPDEST PUSH1 0x0 DUP1 PUSH1 0x40 DUP4 DUP6 SUB SLT ISZERO PUSH2 0x1444 JUMPI PUSH2 0x1443 PUSH2 0x1394 JUMP JUMPDEST JUMPDEST PUSH1 0x0 PUSH2 0x1452 DUP6 DUP3 DUP7 ADD PUSH2 0x13E2 JUMP JUMPDEST SWAP3 POP POP PUSH1 0x20 PUSH2 0x1463 DUP6 DUP3 DUP7 ADD PUSH2 0x1418 JUMP JUMPDEST SWAP2 POP POP SWAP3 POP SWAP3 SWAP1 POP JUMP JUMPDEST PUSH1 0x0 DUP2 ISZERO ISZERO SWAP1 POP SWAP2 SWAP1 POP JUMP JUMPDEST PUSH2 0x1482 DUP2 PUSH2 0x146D JUMP JUMPDEST DUP3 MSTORE POP POP JUMP JUMPDEST PUSH1 0x0 PUSH1 0x20 DUP3 ADD SWAP1 POP PUSH2 0x149D PUSH1 0x0 DUP4 ADD DUP5 PUSH2 0x1479 JUMP JUMPDEST SWAP3 SWAP2 POP POP JUMP JUMPDEST PUSH2 0x14AC DUP2 PUSH2 0x13F7 JUMP JUMPDEST DUP3 MSTORE POP POP JUMP JUMPDEST PUSH1 0x0 PUSH1 0x20 DUP3 ADD SWAP1 POP PUSH2 0x14C7 PUSH1 0x0 DUP4 ADD DUP5 PUSH2 0x14A3 JUMP JUMPDEST SWAP3 SWAP2 POP POP JUMP JUMPDEST PUSH1 0x0 DUP1 PUSH1 0x0 PUSH1 0x60 DUP5 DUP7 SUB SLT ISZERO PUSH2 0x14E6 JUMPI PUSH2 0x14E5 PUSH2 0x1394 JUMP JUMPDEST JUMPDEST PUSH1 0x0 PUSH2 0x14F4 DUP7 DUP3 DUP8 ADD PUSH2 0x13E2 JUMP JUMPDEST SWAP4 POP POP PUSH1 0x20 PUSH2 0x1505 DUP7 DUP3 DUP8 ADD PUSH2 0x13E2 JUMP JUMPDEST SWAP3 POP POP PUSH1 0x40 PUSH2 0x1516 DUP7 DUP3 DUP8 ADD PUSH2 0x1418 JUMP JUMPDEST SWAP2 POP POP SWAP3 POP SWAP3 POP SWAP3 JUMP JUMPDEST PUSH1 0x0 PUSH1 0xFF DUP3 AND SWAP1 POP SWAP2 SWAP1 POP JUMP JUMPDEST PUSH2 0x1536 DUP2 PUSH2 0x1520 JUMP JUMPDEST DUP3 MSTORE POP POP JUMP JUMPDEST PUSH1 0x0 PUSH1 0x20 DUP3 ADD SWAP1 POP PUSH2 0x1551 PUSH1 0x0 DUP4 ADD DUP5 PUSH2 0x152D JUMP JUMPDEST SWAP3 SWAP2 POP POP JUMP JUMPDEST PUSH1 0x0 PUSH1 0x20 DUP3 DUP5 SUB SLT ISZERO PUSH2 0x156D JUMPI PUSH2 0x156C PUSH2 0x1394 JUMP JUMPDEST JUMPDEST PUSH1 0x0 PUSH2 0x157B DUP5 DUP3 DUP6 ADD PUSH2 0x13E2 JUMP JUMPDEST SWAP2 POP POP SWAP3 SWAP2 POP POP JUMP JUMPDEST PUSH1 0x0 DUP1 PUSH1 0x40 DUP4 DUP6 SUB SLT ISZERO PUSH2 0x159B JUMPI PUSH2 0x159A PUSH2 0x1394 JUMP JUMPDEST JUMPDEST PUSH1 0x0 PUSH2 0x15A9 DUP6 DUP3 DUP7 ADD PUSH2 0x13E2 JUMP JUMPDEST SWAP3 POP POP PUSH1 0x20 PUSH2 0x15BA DUP6 DUP3 DUP7 ADD PUSH2 0x13E2 JUMP JUMPDEST SWAP2 POP POP SWAP3 POP SWAP3 SWAP1 POP JUMP JUMPDEST PUSH1 0x0 PUSH1 0x20 DUP3 DUP5 SUB SLT ISZERO PUSH2 0x15DA JUMPI PUSH2 0x15D9 PUSH2 0x1394 JUMP JUMPDEST JUMPDEST PUSH1 0x0 PUSH2 0x15E8 DUP5 DUP3 DUP6 ADD PUSH2 0x1418 JUMP JUMPDEST SWAP2 POP POP SWAP3 SWAP2 POP POP JUMP JUMPDEST PUSH1 0x0 PUSH2 0x15FC DUP3 PUSH2 0x1399 JUMP JUMPDEST SWAP1 POP SWAP2 SWAP1 POP JUMP JUMPDEST PUSH2 0x160C DUP2 PUSH2 0x15F1 JUMP JUMPDEST DUP3 MSTORE POP POP JUMP JUMPDEST PUSH1 0x0 PUSH1 0x20 DUP3 ADD SWAP1 POP PUSH2 0x1627 PUSH1 0x0 DUP4 ADD DUP5 PUSH2 0x1603 JUMP JUMPDEST SWAP3 SWAP2 POP POP JUMP JUMPDEST PUSH2 0x1636 DUP2 PUSH2 0x13B9 JUMP JUMPDEST DUP3 MSTORE POP POP JUMP JUMPDEST PUSH1 0x0 PUSH1 0x20 DUP3 ADD SWAP1 POP PUSH2 0x1651 PUSH1 0x0 DUP4 ADD DUP5 PUSH2 0x162D JUMP JUMPDEST SWAP3 SWAP2 POP POP JUMP JUMPDEST PUSH32 0x4E487B7100000000000000000000000000000000000000000000000000000000 PUSH1 0x0 MSTORE PUSH1 0x22 PUSH1 0x4 MSTORE PUSH1 0x24 PUSH1 0x0 REVERT JUMPDEST PUSH1 0x0 PUSH1 0x2 DUP3 DIV SWAP1 POP PUSH1 0x1 DUP3 AND DUP1 PUSH2 0x169E JUMPI PUSH1 0x7F DUP3 AND SWAP2 POP JUMPDEST PUSH1 0x20 DUP3 LT DUP2 SUB PUSH2 0x16B1 JUMPI PUSH2 0x16B0 PUSH2 0x1657 JUMP JUMPDEST JUMPDEST POP SWAP2 SWAP1 POP JUMP JUMPDEST PUSH32 0x4E487B7100000000000000000000000000000000000000000000000000000000 PUSH1 0x0 MSTORE PUSH1 0x11 PUSH1 0x4 MSTORE PUSH1 0x24 PUSH1 0x0 REVERT JUMPDEST PUSH1 0x0 PUSH2 0x16F1 DUP3 PUSH2 0x13F7 JUMP JUMPDEST SWAP2 POP PUSH2 0x16FC DUP4 PUSH2 0x13F7 JUMP JUMPDEST SWAP3 POP DUP3 DUP3 ADD SWAP1 POP DUP1 DUP3 GT ISZERO PUSH2 0x1714 JUMPI PUSH2 0x1713 PUSH2 0x16B7 JUMP JUMPDEST JUMPDEST SWAP3 SWAP2 POP POP JUMP JUMPDEST PUSH32 0x596F7520617265206E6F7420746865206F776E65720000000000000000000000 PUSH1 0x0 DUP3 ADD MSTORE POP JUMP JUMPDEST PUSH1 0x0 PUSH2 0x1750 PUSH1 0x15 DUP4 PUSH2 0x1276 JUMP JUMPDEST SWAP2 POP PUSH2 0x175B DUP3 PUSH2 0x171A JUMP JUMPDEST PUSH1 0x20 DUP3 ADD SWAP1 POP SWAP2 SWAP1 POP JUMP JUMPDEST PUSH1 0x0 PUSH1 0x20 DUP3 ADD SWAP1 POP DUP2 DUP2 SUB PUSH1 0x0 DUP4 ADD MSTORE PUSH2 0x177F DUP2 PUSH2 0x1743 JUMP JUMPDEST SWAP1 POP SWAP2 SWAP1 POP JUMP JUMPDEST PUSH32 0x4E6F7420656E6F75676820706C617965727320696E20746865206C6F74746572 PUSH1 0x0 DUP3 ADD MSTORE PUSH32 0x7900000000000000000000000000000000000000000000000000000000000000 PUSH1 0x20 DUP3 ADD MSTORE POP JUMP JUMPDEST PUSH1 0x0 PUSH2 0x17E2 PUSH1 0x21 DUP4 PUSH2 0x1276 JUMP JUMPDEST SWAP2 POP PUSH2 0x17ED DUP3 PUSH2 0x1786 JUMP JUMPDEST PUSH1 0x40 DUP3 ADD SWAP1 POP SWAP2 SWAP1 POP JUMP JUMPDEST PUSH1 0x0 PUSH1 0x20 DUP3 ADD SWAP1 POP DUP2 DUP2 SUB PUSH1 0x0 DUP4 ADD MSTORE PUSH2 0x1811 DUP2 PUSH2 0x17D5 JUMP JUMPDEST SWAP1 POP SWAP2 SWAP1 POP JUMP JUMPDEST PUSH32 0x4E487B7100000000000000000000000000000000000000000000000000000000 PUSH1 0x0 MSTORE PUSH1 0x12 PUSH1 0x4 MSTORE PUSH1 0x24 PUSH1 0x0 REVERT JUMPDEST PUSH1 0x0 PUSH2 0x1852 DUP3 PUSH2 0x13F7 JUMP JUMPDEST SWAP2 POP PUSH2 0x185D DUP4 PUSH2 0x13F7 JUMP JUMPDEST SWAP3 POP DUP3 PUSH2 0x186D JUMPI PUSH2 0x186C PUSH2 0x1818 JUMP JUMPDEST JUMPDEST DUP3 DUP3 MOD SWAP1 POP SWAP3 SWAP2 POP POP JUMP JUMPDEST PUSH32 0x4E487B7100000000000000000000000000000000000000000000000000000000 PUSH1 0x0 MSTORE PUSH1 0x32 PUSH1 0x4 MSTORE PUSH1 0x24 PUSH1 0x0 REVERT JUMPDEST PUSH1 0x0 PUSH2 0x18B2 DUP3 PUSH2 0x13F7 JUMP JUMPDEST SWAP2 POP PUSH2 0x18BD DUP4 PUSH2 0x13F7 JUMP JUMPDEST SWAP3 POP DUP3 DUP3 MUL PUSH2 0x18CB DUP2 PUSH2 0x13F7 JUMP JUMPDEST SWAP2 POP DUP3 DUP3 DIV DUP5 EQ DUP4 ISZERO OR PUSH2 0x18E2 JUMPI PUSH2 0x18E1 PUSH2 0x16B7 JUMP JUMPDEST JUMPDEST POP SWAP3 SWAP2 POP POP JUMP JUMPDEST PUSH1 0x0 PUSH2 0x18F4 DUP3 PUSH2 0x13F7 JUMP JUMPDEST SWAP2 POP PUSH2 0x18FF DUP4 PUSH2 0x13F7 JUMP JUMPDEST SWAP3 POP DUP3 PUSH2 0x190F JUMPI PUSH2 0x190E PUSH2 0x1818 JUMP JUMPDEST JUMPDEST DUP3 DUP3 DIV SWAP1 POP SWAP3 SWAP2 POP POP JUMP JUMPDEST PUSH32 0x45524332303A2064656372656173656420616C6C6F77616E63652062656C6F77 PUSH1 0x0 DUP3 ADD MSTORE PUSH32 0x207A65726F000000000000000000000000000000000000000000000000000000 PUSH1 0x20 DUP3 ADD MSTORE POP JUMP JUMPDEST PUSH1 0x0 PUSH2 0x1976 PUSH1 0x25 DUP4 PUSH2 0x1276 JUMP JUMPDEST SWAP2 POP PUSH2 0x1981 DUP3 PUSH2 0x191A JUMP JUMPDEST PUSH1 0x40 DUP3 ADD SWAP1 POP SWAP2 SWAP1 POP JUMP JUMPDEST PUSH1 0x0 PUSH1 0x20 DUP3 ADD SWAP1 POP DUP2 DUP2 SUB PUSH1 0x0 DUP4 ADD MSTORE PUSH2 0x19A5 DUP2 PUSH2 0x1969 JUMP JUMPDEST SWAP1 POP SWAP2 SWAP1 POP JUMP JUMPDEST PUSH32 0x6D73672E76616C7565203C20302E312065746865720000000000000000000000 PUSH1 0x0 DUP3 ADD MSTORE POP JUMP JUMPDEST PUSH1 0x0 PUSH2 0x19E2 PUSH1 0x15 DUP4 PUSH2 0x1276 JUMP JUMPDEST SWAP2 POP PUSH2 0x19ED DUP3 PUSH2 0x19AC JUMP JUMPDEST PUSH1 0x20 DUP3 ADD SWAP1 POP SWAP2 SWAP1 POP JUMP JUMPDEST PUSH1 0x0 PUSH1 0x20 DUP3 ADD SWAP1 POP DUP2 DUP2 SUB PUSH1 0x0 DUP4 ADD MSTORE PUSH2 0x1A11 DUP2 PUSH2 0x19D5 JUMP JUMPDEST SWAP1 POP SWAP2 SWAP1 POP JUMP JUMPDEST PUSH32 0x45524332303A20617070726F76652066726F6D20746865207A65726F20616464 PUSH1 0x0 DUP3 ADD MSTORE PUSH32 0x7265737300000000000000000000000000000000000000000000000000000000 PUSH1 0x20 DUP3 ADD MSTORE POP JUMP JUMPDEST PUSH1 0x0 PUSH2 0x1A74 PUSH1 0x24 DUP4 PUSH2 0x1276 JUMP JUMPDEST SWAP2 POP PUSH2 0x1A7F DUP3 PUSH2 0x1A18 JUMP JUMPDEST PUSH1 0x40 DUP3 ADD SWAP1 POP SWAP2 SWAP1 POP JUMP JUMPDEST PUSH1 0x0 PUSH1 0x20 DUP3 ADD SWAP1 POP DUP2 DUP2 SUB PUSH1 0x0 DUP4 ADD MSTORE PUSH2 0x1AA3 DUP2 PUSH2 0x1A67 JUMP JUMPDEST SWAP1 POP SWAP2 SWAP1 POP JUMP JUMPDEST PUSH32 0x45524332303A20617070726F766520746F20746865207A65726F206164647265 PUSH1 0x0 DUP3 ADD MSTORE PUSH32 0x7373000000000000000000000000000000000000000000000000000000000000 PUSH1 0x20 DUP3 ADD MSTORE POP JUMP JUMPDEST PUSH1 0x0 PUSH2 0x1B06 PUSH1 0x22 DUP4 PUSH2 0x1276 JUMP JUMPDEST SWAP2 POP PUSH2 0x1B11 DUP3 PUSH2 0x1AAA JUMP JUMPDEST PUSH1 0x40 DUP3 ADD SWAP1 POP SWAP2 SWAP1 POP JUMP JUMPDEST PUSH1 0x0 PUSH1 0x20 DUP3 ADD SWAP1 POP DUP2 DUP2 SUB PUSH1 0x0 DUP4 ADD MSTORE PUSH2 0x1B35 DUP2 PUSH2 0x1AF9 JUMP JUMPDEST SWAP1 POP SWAP2 SWAP1 POP JUMP JUMPDEST PUSH32 0x45524332303A20696E73756666696369656E7420616C6C6F77616E6365000000 PUSH1 0x0 DUP3 ADD MSTORE POP JUMP JUMPDEST PUSH1 0x0 PUSH2 0x1B72 PUSH1 0x1D DUP4 PUSH2 0x1276 JUMP JUMPDEST SWAP2 POP PUSH2 0x1B7D DUP3 PUSH2 0x1B3C JUMP JUMPDEST PUSH1 0x20 DUP3 ADD SWAP1 POP SWAP2 SWAP1 POP JUMP JUMPDEST PUSH1 0x0 PUSH1 0x20 DUP3 ADD SWAP1 POP DUP2 DUP2 SUB PUSH1 0x0 DUP4 ADD MSTORE PUSH2 0x1BA1 DUP2 PUSH2 0x1B65 JUMP JUMPDEST SWAP1 POP SWAP2 SWAP1 POP JUMP JUMPDEST PUSH32 0x45524332303A207472616E736665722066726F6D20746865207A65726F206164 PUSH1 0x0 DUP3 ADD MSTORE PUSH32 0x6472657373000000000000000000000000000000000000000000000000000000 PUSH1 0x20 DUP3 ADD MSTORE POP JUMP JUMPDEST PUSH1 0x0 PUSH2 0x1C04 PUSH1 0x25 DUP4 PUSH2 0x1276 JUMP JUMPDEST SWAP2 POP PUSH2 0x1C0F DUP3 PUSH2 0x1BA8 JUMP JUMPDEST PUSH1 0x40 DUP3 ADD SWAP1 POP SWAP2 SWAP1 POP JUMP JUMPDEST PUSH1 0x0 PUSH1 0x20 DUP3 ADD SWAP1 POP DUP2 DUP2 SUB PUSH1 0x0 DUP4 ADD MSTORE PUSH2 0x1C33 DUP2 PUSH2 0x1BF7 JUMP JUMPDEST SWAP1 POP SWAP2 SWAP1 POP JUMP JUMPDEST PUSH32 0x45524332303A207472616E7366657220746F20746865207A65726F2061646472 PUSH1 0x0 DUP3 ADD MSTORE PUSH32 0x6573730000000000000000000000000000000000000000000000000000000000 PUSH1 0x20 DUP3 ADD MSTORE POP JUMP JUMPDEST PUSH1 0x0 PUSH2 0x1C96 PUSH1 0x23 DUP4 PUSH2 0x1276 JUMP JUMPDEST SWAP2 POP PUSH2 0x1CA1 DUP3 PUSH2 0x1C3A JUMP JUMPDEST PUSH1 0x40 DUP3 ADD SWAP1 POP SWAP2 SWAP1 POP JUMP JUMPDEST PUSH1 0x0 PUSH1 0x20 DUP3 ADD SWAP1 POP DUP2 DUP2 SUB PUSH1 0x0 DUP4 ADD MSTORE PUSH2 0x1CC5 DUP2 PUSH2 0x1C89 JUMP JUMPDEST SWAP1 POP SWAP2 SWAP1 POP JUMP JUMPDEST PUSH32 0x45524332303A207472616E7366657220616D6F756E7420657863656564732062 PUSH1 0x0 DUP3 ADD MSTORE PUSH32 0x616C616E63650000000000000000000000000000000000000000000000000000 PUSH1 0x20 DUP3 ADD MSTORE POP JUMP JUMPDEST PUSH1 0x0 PUSH2 0x1D28 PUSH1 0x26 DUP4 PUSH2 0x1276 JUMP JUMPDEST SWAP2 POP PUSH2 0x1D33 DUP3 PUSH2 0x1CCC JUMP JUMPDEST PUSH1 0x40 DUP3 ADD SWAP1 POP SWAP2 SWAP1 POP JUMP JUMPDEST PUSH1 0x0 PUSH1 0x20 DUP3 ADD SWAP1 POP DUP2 DUP2 SUB PUSH1 0x0 DUP4 ADD MSTORE PUSH2 0x1D57 DUP2 PUSH2 0x1D1B JUMP JUMPDEST SWAP1 POP SWAP2 SWAP1 POP JUMP JUMPDEST PUSH1 0x0 DUP2 SWAP1 POP SWAP2 SWAP1 POP JUMP JUMPDEST PUSH2 0x1D79 PUSH2 0x1D74 DUP3 PUSH2 0x13F7 JUMP JUMPDEST PUSH2 0x1D5E JUMP JUMPDEST DUP3 MSTORE POP POP JUMP JUMPDEST PUSH1 0x0 PUSH2 0x1D8B DUP3 DUP7 PUSH2 0x1D68 JUMP JUMPDEST PUSH1 0x20 DUP3 ADD SWAP2 POP PUSH2 0x1D9B DUP3 DUP6 PUSH2 0x1D68 JUMP JUMPDEST PUSH1 0x20 DUP3 ADD SWAP2 POP PUSH2 0x1DAB DUP3 DUP5 PUSH2 0x1D68 JUMP JUMPDEST PUSH1 0x20 DUP3 ADD SWAP2 POP DUP2 SWAP1 POP SWAP5 SWAP4 POP POP POP POP JUMP JUMPDEST PUSH32 0x4E487B7100000000000000000000000000000000000000000000000000000000 PUSH1 0x0 MSTORE PUSH1 0x41 PUSH1 0x4 MSTORE PUSH1 0x24 PUSH1 0x0 REVERT INVALID LOG2 PUSH5 0x6970667358 0x22 SLT KECCAK256 ADD SWAP9 0x22 0xBA 0xA7 SWAP13 0xB4 DIFFICULTY 0xA8 0x5E SELFBALANCE EQ 0xDA LOG0 DUP2 PUSH10 0xE1B6554192F49E5890B EQ DUP8 CODESIZE KECCAK256 0xBD SWAP11 PUSH5 0x736F6C6343 STOP ADDMOD GT STOP CALLER "
				},
				"gasEstimates": {
					"creation": {
						"codeDepositCost": "1542600",
						"executionCost": "infinite",
						"totalCost": "infinite"
					},
					"external": {
						"admin()": "2624",
						"allowance(address,address)": "infinite",
						"approve(address,uint256)": "infinite",
						"balanceOf(address)": "2864",
						"decimals()": "388",
						"decreaseAllowance(address,uint256)": "infinite",
						"enter()": "52892",
						"getBalance()": "407",
						"increaseAllowance(address,uint256)": "infinite",
						"name()": "infinite",
						"pickWinner()": "infinite",
						"players(uint256)": "5044",
						"symbol()": "infinite",
						"tokensPerEth()": "2451",
						"totalSupply()": "2527",
						"transfer(address,uint256)": "infinite",
						"transferFrom(address,address,uint256)": "infinite"
					},
					"internal": {
						"random()": "infinite",
						"resetLottery()": "infinite"
					}
				},
				"methodIdentifiers": {
					"admin()": "f851a440",
					"allowance(address,address)": "dd62ed3e",
					"approve(address,uint256)": "095ea7b3",
					"balanceOf(address)": "70a08231",
					"decimals()": "313ce567",
					"decreaseAllowance(address,uint256)": "a457c2d7",
					"enter()": "e97dcb62",
					"getBalance()": "12065fe0",
					"increaseAllowance(address,uint256)": "39509351",
					"name()": "06fdde03",
					"pickWinner()": "5d495aea",
					"players(uint256)": "f71d96cb",
					"symbol()": "95d89b41",
					"tokensPerEth()": "cbdd69b5",
					"totalSupply()": "18160ddd",
					"transfer(address,uint256)": "a9059cbb",
					"transferFrom(address,address,uint256)": "23b872dd"
				}
			},
			"storageLayout": {
				"storage": [
					{
						"astId": 15,
						"contract": "contracts/Lottery.sol:Lottery",
						"label": "_balances",
						"offset": 0,
						"slot": "0",
						"type": "t_mapping(t_address,t_uint256)"
					},
					{
						"astId": 21,
						"contract": "contracts/Lottery.sol:Lottery",
						"label": "_allowances",
						"offset": 0,
						"slot": "1",
						"type": "t_mapping(t_address,t_mapping(t_address,t_uint256))"
					},
					{
						"astId": 23,
						"contract": "contracts/Lottery.sol:Lottery",
						"label": "_totalSupply",
						"offset": 0,
						"slot": "2",
						"type": "t_uint256"
					},
					{
						"astId": 25,
						"contract": "contracts/Lottery.sol:Lottery",
						"label": "_name",
						"offset": 0,
						"slot": "3",
						"type": "t_string_storage"
					},
					{
						"astId": 27,
						"contract": "contracts/Lottery.sol:Lottery",
						"label": "_symbol",
						"offset": 0,
						"slot": "4",
						"type": "t_string_storage"
					},
					{
						"astId": 719,
						"contract": "contracts/Lottery.sol:Lottery",
						"label": "players",
						"offset": 0,
						"slot": "5",
						"type": "t_array(t_address_payable)dyn_storage"
					},
					{
						"astId": 721,
						"contract": "contracts/Lottery.sol:Lottery",
						"label": "admin",
						"offset": 0,
						"slot": "6",
						"type": "t_address"
					},
					{
						"astId": 724,
						"contract": "contracts/Lottery.sol:Lottery",
						"label": "tokensPerEth",
						"offset": 0,
						"slot": "7",
						"type": "t_uint256"
					}
				],
				"types": {
					"t_address": {
						"encoding": "inplace",
						"label": "address",
						"numberOfBytes": "20"
					},
					"t_address_payable": {
						"encoding": "inplace",
						"label": "address payable",
						"numberOfBytes": "20"
					},
					"t_array(t_address_payable)dyn_storage": {
						"base": "t_address_payable",
						"encoding": "dynamic_array",
						"label": "address payable[]",
						"numberOfBytes": "32"
					},
					"t_mapping(t_address,t_mapping(t_address,t_uint256))": {
						"encoding": "mapping",
						"key": "t_address",
						"label": "mapping(address => mapping(address => uint256))",
						"numberOfBytes": "32",
						"value": "t_mapping(t_address,t_uint256)"
					},
					"t_mapping(t_address,t_uint256)": {
						"encoding": "mapping",
						"key": "t_address",
						"label": "mapping(address => uint256)",
						"numberOfBytes": "32",
						"value": "t_uint256"
					},
					"t_string_storage": {
						"encoding": "bytes",
						"label": "string",
						"numberOfBytes": "32"
					},
					"t_uint256": {
						"encoding": "inplace",
						"label": "uint256",
						"numberOfBytes": "32"
					}
				}
			},
			"userdoc": {
				"kind": "user",
				"methods": {},
				"version": 1
			}
		}
	}
}