{
	"contracts/Lottery.sol": {
		"Lottery": {
			"abi": [
				{
					"inputs": [],
					"stateMutability": "nonpayable",
					"type": "constructor"
				},
				{
					"inputs": [],
					"name": "admin",
					"outputs": [
						{
							"internalType": "address",
							"name": "",
							"type": "address"
						}
					],
					"stateMutability": "view",
					"type": "function"
				},
				{
					"inputs": [],
					"name": "enter",
					"outputs": [],
					"stateMutability": "payable",
					"type": "function"
				},
				{
					"inputs": [],
					"name": "getBalance",
					"outputs": [
						{
							"internalType": "uint256",
							"name": "",
							"type": "uint256"
						}
					],
					"stateMutability": "view",
					"type": "function"
				},
				{
					"inputs": [],
					"name": "getMyToken",
					"outputs": [
						{
							"internalType": "uint256",
							"name": "",
							"type": "uint256"
						}
					],
					"stateMutability": "view",
					"type": "function"
				},
				{
					"inputs": [],
					"name": "pickWinner",
					"outputs": [],
					"stateMutability": "nonpayable",
					"type": "function"
				},
				{
					"inputs": [
						{
							"internalType": "uint256",
							"name": "",
							"type": "uint256"
						}
					],
					"name": "players",
					"outputs": [
						{
							"internalType": "address payable",
							"name": "",
							"type": "address"
						}
					],
					"stateMutability": "view",
					"type": "function"
				},
				{
					"inputs": [],
					"name": "tokensPerEth",
					"outputs": [
						{
							"internalType": "uint256",
							"name": "",
							"type": "uint256"
						}
					],
					"stateMutability": "view",
					"type": "function"
				},
				{
					"stateMutability": "payable",
					"type": "receive"
				}
			],
			"devdoc": {
				"details": "Ether lotery that transfer contract amount to winner",
				"kind": "dev",
				"methods": {
					"constructor": {
						"details": "让部署该合约的人为管理员"
					},
					"getBalance()": {
						"details": "获得合同余额",
						"returns": {
							"_0": "contract balance"
						}
					},
					"pickWinner()": {
						"details": "从彩票中挑选赢家，并授予冠军合同的余额"
					}
				},
				"title": "Lottery",
				"version": 1
			},
			"evm": {
				"assembly": "    /* \"contracts/Lottery.sol\":236:3759  contract Lottery {... */\n  mstore(0x40, 0x80)\n    /* \"contracts/Lottery.sol\":472:474  10 */\n  0x0a\n    /* \"contracts/Lottery.sol\":442:474  uint256 public tokensPerEth = 10 */\n  0x03\n  sstore\n    /* \"contracts/Lottery.sol\":546:791  constructor() {... */\n  callvalue\n  dup1\n  iszero\n  tag_1\n  jumpi\n  0x00\n  dup1\n  revert\ntag_1:\n  pop\n    /* \"contracts/Lottery.sol\":614:624  msg.sender */\n  caller\n    /* \"contracts/Lottery.sol\":606:611  admin */\n  0x02\n  0x00\n    /* \"contracts/Lottery.sol\":606:624  admin = msg.sender */\n  0x0100\n  exp\n  dup2\n  sload\n  dup2\n  0xffffffffffffffffffffffffffffffffffffffff\n  mul\n  not\n  and\n  swap1\n  dup4\n  0xffffffffffffffffffffffffffffffffffffffff\n  and\n  mul\n  or\n  swap1\n  sstore\n  pop\n    /* \"contracts/Lottery.sol\":236:3759  contract Lottery {... */\n  dataSize(sub_0)\n  dup1\n  dataOffset(sub_0)\n  0x00\n  codecopy\n  0x00\n  return\nstop\n\nsub_0: assembly {\n        /* \"contracts/Lottery.sol\":236:3759  contract Lottery {... */\n      mstore(0x40, 0x80)\n      jumpi(tag_1, lt(calldatasize, 0x04))\n      shr(0xe0, calldataload(0x00))\n      dup1\n      0xcbdd69b5\n      gt\n      tag_10\n      jumpi\n      dup1\n      0xcbdd69b5\n      eq\n      tag_6\n      jumpi\n      dup1\n      0xe97dcb62\n      eq\n      tag_7\n      jumpi\n      dup1\n      0xf71d96cb\n      eq\n      tag_8\n      jumpi\n      dup1\n      0xf851a440\n      eq\n      tag_9\n      jumpi\n      jump(tag_2)\n    tag_10:\n      dup1\n      0x12065fe0\n      eq\n      tag_3\n      jumpi\n      dup1\n      0x5d495aea\n      eq\n      tag_4\n      jumpi\n      dup1\n      0x7cdf7547\n      eq\n      tag_5\n      jumpi\n      jump(tag_2)\n    tag_1:\n      jumpi(tag_2, calldatasize)\n        /* \"contracts/Lottery.sol\":1588:1597  0.1 ether */\n      0x016345785d8a0000\n        /* \"contracts/Lottery.sol\":1575:1584  msg.value */\n      callvalue\n        /* \"contracts/Lottery.sol\":1575:1597  msg.value == 0.1 ether */\n      eq\n        /* \"contracts/Lottery.sol\":1567:1629  require(msg.value == 0.1 ether , \"Must send 0.1 ether amount\") */\n      tag_13\n      jumpi\n      mload(0x40)\n      0x08c379a000000000000000000000000000000000000000000000000000000000\n      dup2\n      mstore\n      0x04\n      add\n      tag_14\n      swap1\n      tag_15\n      jump\t// in\n    tag_14:\n      mload(0x40)\n      dup1\n      swap2\n      sub\n      swap1\n      revert\n    tag_13:\n        /* \"contracts/Lottery.sol\":1721:1726  admin */\n      0x02\n      0x00\n      swap1\n      sload\n      swap1\n      0x0100\n      exp\n      swap1\n      div\n      0xffffffffffffffffffffffffffffffffffffffff\n      and\n        /* \"contracts/Lottery.sol\":1707:1726  msg.sender != admin */\n      0xffffffffffffffffffffffffffffffffffffffff\n      and\n        /* \"contracts/Lottery.sol\":1707:1717  msg.sender */\n      caller\n        /* \"contracts/Lottery.sol\":1707:1726  msg.sender != admin */\n      0xffffffffffffffffffffffffffffffffffffffff\n      and\n      sub\n        /* \"contracts/Lottery.sol\":1699:1727  require(msg.sender != admin) */\n      tag_16\n      jumpi\n      0x00\n      dup1\n      revert\n    tag_16:\n        /* \"contracts/Lottery.sol\":1824:1831  players */\n      0x01\n        /* \"contracts/Lottery.sol\":1845:1855  msg.sender */\n      caller\n        /* \"contracts/Lottery.sol\":1824:1857  players.push(payable(msg.sender)) */\n      swap1\n      dup1\n      0x01\n      dup2\n      sload\n      add\n      dup1\n      dup3\n      sstore\n      dup1\n      swap2\n      pop\n      pop\n      0x01\n      swap1\n      sub\n      swap1\n      0x00\n      mstore\n      keccak256(0x00, 0x20)\n      add\n      0x00\n      swap1\n      swap2\n      swap1\n      swap2\n      swap1\n      swap2\n      0x0100\n      exp\n      dup2\n      sload\n      dup2\n      0xffffffffffffffffffffffffffffffffffffffff\n      mul\n      not\n      and\n      swap1\n      dup4\n      0xffffffffffffffffffffffffffffffffffffffff\n      and\n      mul\n      or\n      swap1\n      sstore\n      stop\n        /* \"contracts/Lottery.sol\":236:3759  contract Lottery {... */\n    tag_2:\n      0x00\n      dup1\n      revert\n        /* \"contracts/Lottery.sol\":1953:2114  function getBalance() public view onlyOwner returns(uint){... */\n    tag_3:\n      callvalue\n      dup1\n      iszero\n      tag_18\n      jumpi\n      0x00\n      dup1\n      revert\n    tag_18:\n      pop\n      tag_19\n      tag_20\n      jump\t// in\n    tag_19:\n      mload(0x40)\n      tag_21\n      swap2\n      swap1\n      tag_22\n      jump\t// in\n    tag_21:\n      mload(0x40)\n      dup1\n      swap2\n      sub\n      swap1\n      return\n        /* \"contracts/Lottery.sol\":2501:3399  function pickWinner() public onlyOwner {... */\n    tag_4:\n      callvalue\n      dup1\n      iszero\n      tag_23\n      jumpi\n      0x00\n      dup1\n      revert\n    tag_23:\n      pop\n      tag_24\n      tag_25\n      jump\t// in\n    tag_24:\n      stop\n        /* \"contracts/Lottery.sol\":1278:1384  function getMyToken() public view returns(uint256) {... */\n    tag_5:\n      callvalue\n      dup1\n      iszero\n      tag_26\n      jumpi\n      0x00\n      dup1\n      revert\n    tag_26:\n      pop\n      tag_27\n      tag_28\n      jump\t// in\n    tag_27:\n      mload(0x40)\n      tag_29\n      swap2\n      swap1\n      tag_22\n      jump\t// in\n    tag_29:\n      mload(0x40)\n      dup1\n      swap2\n      sub\n      swap1\n      return\n        /* \"contracts/Lottery.sol\":442:474  uint256 public tokensPerEth = 10 */\n    tag_6:\n      callvalue\n      dup1\n      iszero\n      tag_30\n      jumpi\n      0x00\n      dup1\n      revert\n    tag_30:\n      pop\n      tag_31\n      tag_32\n      jump\t// in\n    tag_31:\n      mload(0x40)\n      tag_33\n      swap2\n      swap1\n      tag_22\n      jump\t// in\n    tag_33:\n      mload(0x40)\n      dup1\n      swap2\n      sub\n      swap1\n      return\n        /* \"contracts/Lottery.sol\":967:1272  function enter() public payable{... */\n    tag_7:\n      tag_34\n      tag_35\n      jump\t// in\n    tag_34:\n      stop\n        /* \"contracts/Lottery.sol\":355:387  address payable[] public players */\n    tag_8:\n      callvalue\n      dup1\n      iszero\n      tag_36\n      jumpi\n      0x00\n      dup1\n      revert\n    tag_36:\n      pop\n      tag_37\n      0x04\n      dup1\n      calldatasize\n      sub\n      dup2\n      add\n      swap1\n      tag_38\n      swap2\n      swap1\n      tag_39\n      jump\t// in\n    tag_38:\n      tag_40\n      jump\t// in\n    tag_37:\n      mload(0x40)\n      tag_41\n      swap2\n      swap1\n      tag_42\n      jump\t// in\n    tag_41:\n      mload(0x40)\n      dup1\n      swap2\n      sub\n      swap1\n      return\n        /* \"contracts/Lottery.sol\":416:436  address public admin */\n    tag_9:\n      callvalue\n      dup1\n      iszero\n      tag_43\n      jumpi\n      0x00\n      dup1\n      revert\n    tag_43:\n      pop\n      tag_44\n      tag_45\n      jump\t// in\n    tag_44:\n      mload(0x40)\n      tag_46\n      swap2\n      swap1\n      tag_47\n      jump\t// in\n    tag_46:\n      mload(0x40)\n      dup1\n      swap2\n      sub\n      swap1\n      return\n        /* \"contracts/Lottery.sol\":1953:2114  function getBalance() public view onlyOwner returns(uint){... */\n    tag_20:\n        /* \"contracts/Lottery.sol\":2005:2009  uint */\n      0x00\n        /* \"contracts/Lottery.sol\":846:856  msg.sender */\n      caller\n        /* \"contracts/Lottery.sol\":837:856  admin == msg.sender */\n      0xffffffffffffffffffffffffffffffffffffffff\n      and\n        /* \"contracts/Lottery.sol\":837:842  admin */\n      0x02\n      0x00\n      swap1\n      sload\n      swap1\n      0x0100\n      exp\n      swap1\n      div\n      0xffffffffffffffffffffffffffffffffffffffff\n      and\n        /* \"contracts/Lottery.sol\":837:856  admin == msg.sender */\n      0xffffffffffffffffffffffffffffffffffffffff\n      and\n      eq\n        /* \"contracts/Lottery.sol\":829:882  require(admin == msg.sender, \"You are not the owner\") */\n      tag_49\n      jumpi\n      mload(0x40)\n      0x08c379a000000000000000000000000000000000000000000000000000000000\n      dup2\n      mstore\n      0x04\n      add\n      tag_50\n      swap1\n      tag_51\n      jump\t// in\n    tag_50:\n      mload(0x40)\n      dup1\n      swap2\n      sub\n      swap1\n      revert\n    tag_49:\n        /* \"contracts/Lottery.sol\":2086:2107  address(this).balance */\n      selfbalance\n        /* \"contracts/Lottery.sol\":2079:2107  return address(this).balance */\n      swap1\n      pop\n        /* \"contracts/Lottery.sol\":1953:2114  function getBalance() public view onlyOwner returns(uint){... */\n      swap1\n      jump\t// out\n        /* \"contracts/Lottery.sol\":2501:3399  function pickWinner() public onlyOwner {... */\n    tag_25:\n        /* \"contracts/Lottery.sol\":846:856  msg.sender */\n      caller\n        /* \"contracts/Lottery.sol\":837:856  admin == msg.sender */\n      0xffffffffffffffffffffffffffffffffffffffff\n      and\n        /* \"contracts/Lottery.sol\":837:842  admin */\n      0x02\n      0x00\n      swap1\n      sload\n      swap1\n      0x0100\n      exp\n      swap1\n      div\n      0xffffffffffffffffffffffffffffffffffffffff\n      and\n        /* \"contracts/Lottery.sol\":837:856  admin == msg.sender */\n      0xffffffffffffffffffffffffffffffffffffffff\n      and\n      eq\n        /* \"contracts/Lottery.sol\":829:882  require(admin == msg.sender, \"You are not the owner\") */\n      tag_54\n      jumpi\n      mload(0x40)\n      0x08c379a000000000000000000000000000000000000000000000000000000000\n      dup2\n      mstore\n      0x04\n      add\n      tag_55\n      swap1\n      tag_51\n      jump\t// in\n    tag_55:\n      mload(0x40)\n      dup1\n      swap2\n      sub\n      swap1\n      revert\n    tag_54:\n        /* \"contracts/Lottery.sol\":2656:2657  3 */\n      0x03\n        /* \"contracts/Lottery.sol\":2638:2645  players */\n      0x01\n        /* \"contracts/Lottery.sol\":2638:2652  players.length */\n      dup1\n      sload\n      swap1\n      pop\n        /* \"contracts/Lottery.sol\":2638:2657  players.length >= 3 */\n      lt\n      iszero\n        /* \"contracts/Lottery.sol\":2630:2696  require(players.length >= 3 , \"Not enough players in the lottery\") */\n      tag_57\n      jumpi\n      mload(0x40)\n      0x08c379a000000000000000000000000000000000000000000000000000000000\n      dup2\n      mstore\n      0x04\n      add\n      tag_58\n      swap1\n      tag_59\n      jump\t// in\n    tag_58:\n      mload(0x40)\n      dup1\n      swap2\n      sub\n      swap1\n      revert\n    tag_57:\n        /* \"contracts/Lottery.sol\":2748:2770  address payable winner */\n      0x00\n        /* \"contracts/Lottery.sol\":2789:2796  players */\n      0x01\n        /* \"contracts/Lottery.sol\":2808:2815  players */\n      dup1\n        /* \"contracts/Lottery.sol\":2808:2822  players.length */\n      dup1\n      sload\n      swap1\n      pop\n        /* \"contracts/Lottery.sol\":2797:2805  random() */\n      tag_60\n        /* \"contracts/Lottery.sol\":2797:2803  random */\n      tag_61\n        /* \"contracts/Lottery.sol\":2797:2805  random() */\n      jump\t// in\n    tag_60:\n        /* \"contracts/Lottery.sol\":2797:2822  random() % players.length */\n      tag_62\n      swap2\n      swap1\n      tag_63\n      jump\t// in\n    tag_62:\n        /* \"contracts/Lottery.sol\":2789:2823  players[random() % players.length] */\n      dup2\n      sload\n      dup2\n      lt\n      tag_64\n      jumpi\n      tag_65\n      tag_66\n      jump\t// in\n    tag_65:\n    tag_64:\n      swap1\n      0x00\n      mstore\n      keccak256(0x00, 0x20)\n      add\n      0x00\n      swap1\n      sload\n      swap1\n      0x0100\n      exp\n      swap1\n      div\n      0xffffffffffffffffffffffffffffffffffffffff\n      and\n        /* \"contracts/Lottery.sol\":2780:2823  winner = players[random() % players.length] */\n      swap1\n      pop\n        /* \"contracts/Lottery.sol\":2890:2910  uint256 winnerAmount */\n      0x00\n        /* \"contracts/Lottery.sol\":2950:2953  100 */\n      0x64\n        /* \"contracts/Lottery.sol\":2934:2946  getBalance() */\n      tag_68\n        /* \"contracts/Lottery.sol\":2934:2944  getBalance */\n      tag_20\n        /* \"contracts/Lottery.sol\":2934:2946  getBalance() */\n      jump\t// in\n    tag_68:\n        /* \"contracts/Lottery.sol\":2929:2931  90 */\n      0x5a\n        /* \"contracts/Lottery.sol\":2914:2926  getMyToken() */\n      tag_69\n        /* \"contracts/Lottery.sol\":2914:2924  getMyToken */\n      tag_28\n        /* \"contracts/Lottery.sol\":2914:2926  getMyToken() */\n      jump\t// in\n    tag_69:\n        /* \"contracts/Lottery.sol\":2914:2931  getMyToken() * 90 */\n      tag_70\n      swap2\n      swap1\n      tag_71\n      jump\t// in\n    tag_70:\n        /* \"contracts/Lottery.sol\":2914:2946  getMyToken() * 90 / getBalance() */\n      tag_72\n      swap2\n      swap1\n      tag_73\n      jump\t// in\n    tag_72:\n        /* \"contracts/Lottery.sol\":2913:2953  (getMyToken() * 90 / getBalance()) / 100 */\n      tag_74\n      swap2\n      swap1\n      tag_73\n      jump\t// in\n    tag_74:\n        /* \"contracts/Lottery.sol\":2890:2953  uint256 winnerAmount = (getMyToken() * 90 / getBalance()) / 100 */\n      swap1\n      pop\n        /* \"contracts/Lottery.sol\":2986:2995  0.0 ether */\n      0x00\n        /* \"contracts/Lottery.sol\":2971:2983  winnerAmount */\n      dup2\n        /* \"contracts/Lottery.sol\":2971:2995  winnerAmount > 0.0 ether */\n      gt\n        /* \"contracts/Lottery.sol\":2963:3031  require(winnerAmount > 0.0 ether, \"Failed to winner amount is zero\") */\n      tag_75\n      jumpi\n      mload(0x40)\n      0x08c379a000000000000000000000000000000000000000000000000000000000\n      dup2\n      mstore\n      0x04\n      add\n      tag_76\n      swap1\n      tag_77\n      jump\t// in\n    tag_76:\n      mload(0x40)\n      dup1\n      swap2\n      sub\n      swap1\n      revert\n    tag_75:\n        /* \"contracts/Lottery.sol\":3089:3098  mshkToken */\n      0x00\n      dup1\n      sload\n      swap1\n      0x0100\n      exp\n      swap1\n      div\n      0xffffffffffffffffffffffffffffffffffffffff\n      and\n        /* \"contracts/Lottery.sol\":3089:3111  mshkToken.transferFrom */\n      0xffffffffffffffffffffffffffffffffffffffff\n      and\n      0x23b872dd\n        /* \"contracts/Lottery.sol\":3112:3122  msg.sender */\n      caller\n        /* \"contracts/Lottery.sol\":3132:3136  this */\n      address\n        /* \"contracts/Lottery.sol\":3139:3151  winnerAmount */\n      dup5\n        /* \"contracts/Lottery.sol\":3089:3152  mshkToken.transferFrom(msg.sender, address(this), winnerAmount) */\n      mload(0x40)\n      dup5\n      0xffffffff\n      and\n      0xe0\n      shl\n      dup2\n      mstore\n      0x04\n      add\n      tag_78\n      swap4\n      swap3\n      swap2\n      swap1\n      tag_79\n      jump\t// in\n    tag_78:\n      0x20\n      mload(0x40)\n      dup1\n      dup4\n      sub\n      dup2\n      0x00\n      dup8\n      gas\n      call\n      iszero\n      dup1\n      iszero\n      tag_81\n      jumpi\n      returndatasize\n      0x00\n      dup1\n      returndatacopy\n      revert(0x00, returndatasize)\n    tag_81:\n      pop\n      pop\n      pop\n      pop\n      mload(0x40)\n      returndatasize\n      not(0x1f)\n      0x1f\n      dup3\n      add\n      and\n      dup3\n      add\n      dup1\n      0x40\n      mstore\n      pop\n      dup2\n      add\n      swap1\n      tag_82\n      swap2\n      swap1\n      tag_83\n      jump\t// in\n    tag_82:\n      pop\n        /* \"contracts/Lottery.sol\":3196:3205  bool sent */\n      0x00\n        /* \"contracts/Lottery.sol\":3210:3216  winner */\n      dup3\n        /* \"contracts/Lottery.sol\":3210:3221  winner.call */\n      0xffffffffffffffffffffffffffffffffffffffff\n      and\n        /* \"contracts/Lottery.sol\":3229:3241  winnerAmount */\n      dup3\n        /* \"contracts/Lottery.sol\":3210:3246  winner.call{value: winnerAmount}(\"\") */\n      mload(0x40)\n      tag_84\n      swap1\n      tag_85\n      jump\t// in\n    tag_84:\n      0x00\n      mload(0x40)\n      dup1\n      dup4\n      sub\n      dup2\n      dup6\n      dup8\n      gas\n      call\n      swap3\n      pop\n      pop\n      pop\n      returndatasize\n      dup1\n      0x00\n      dup2\n      eq\n      tag_88\n      jumpi\n      mload(0x40)\n      swap2\n      pop\n      and(add(returndatasize, 0x3f), not(0x1f))\n      dup3\n      add\n      0x40\n      mstore\n      returndatasize\n      dup3\n      mstore\n      returndatasize\n      0x00\n      0x20\n      dup5\n      add\n      returndatacopy\n      jump(tag_87)\n    tag_88:\n      0x60\n      swap2\n      pop\n    tag_87:\n      pop\n        /* \"contracts/Lottery.sol\":3195:3246  (bool sent,) = winner.call{value: winnerAmount}(\"\") */\n      pop\n      swap1\n      pop\n        /* \"contracts/Lottery.sol\":3264:3268  sent */\n      dup1\n        /* \"contracts/Lottery.sol\":3256:3318  require(sent, \"Failed to send user balance back to the owner\") */\n      tag_89\n      jumpi\n      mload(0x40)\n      0x08c379a000000000000000000000000000000000000000000000000000000000\n      dup2\n      mstore\n      0x04\n      add\n      tag_90\n      swap1\n      tag_91\n      jump\t// in\n    tag_90:\n      mload(0x40)\n      dup1\n      swap2\n      sub\n      swap1\n      revert\n    tag_89:\n        /* \"contracts/Lottery.sol\":3376:3390  resetLottery() */\n      tag_92\n        /* \"contracts/Lottery.sol\":3376:3388  resetLottery */\n      tag_93\n        /* \"contracts/Lottery.sol\":3376:3390  resetLottery() */\n      jump\t// in\n    tag_92:\n        /* \"contracts/Lottery.sol\":2540:3399  {... */\n      pop\n      pop\n      pop\n        /* \"contracts/Lottery.sol\":2501:3399  function pickWinner() public onlyOwner {... */\n      jump\t// out\n        /* \"contracts/Lottery.sol\":1278:1384  function getMyToken() public view returns(uint256) {... */\n    tag_28:\n        /* \"contracts/Lottery.sol\":1320:1327  uint256 */\n      0x00\n        /* \"contracts/Lottery.sol\":1345:1354  mshkToken */\n      dup1\n      0x00\n      swap1\n      sload\n      swap1\n      0x0100\n      exp\n      swap1\n      div\n      0xffffffffffffffffffffffffffffffffffffffff\n      and\n        /* \"contracts/Lottery.sol\":1345:1364  mshkToken.balanceOf */\n      0xffffffffffffffffffffffffffffffffffffffff\n      and\n      0x70a08231\n        /* \"contracts/Lottery.sol\":1365:1375  msg.sender */\n      caller\n        /* \"contracts/Lottery.sol\":1345:1376  mshkToken.balanceOf(msg.sender) */\n      mload(0x40)\n      dup3\n      0xffffffff\n      and\n      0xe0\n      shl\n      dup2\n      mstore\n      0x04\n      add\n      tag_95\n      swap2\n      swap1\n      tag_47\n      jump\t// in\n    tag_95:\n      0x20\n      mload(0x40)\n      dup1\n      dup4\n      sub\n      dup2\n      dup7\n      gas\n      staticcall\n      iszero\n      dup1\n      iszero\n      tag_97\n      jumpi\n      returndatasize\n      0x00\n      dup1\n      returndatacopy\n      revert(0x00, returndatasize)\n    tag_97:\n      pop\n      pop\n      pop\n      pop\n      mload(0x40)\n      returndatasize\n      not(0x1f)\n      0x1f\n      dup3\n      add\n      and\n      dup3\n      add\n      dup1\n      0x40\n      mstore\n      pop\n      dup2\n      add\n      swap1\n      tag_98\n      swap2\n      swap1\n      tag_99\n      jump\t// in\n    tag_98:\n        /* \"contracts/Lottery.sol\":1338:1376  return mshkToken.balanceOf(msg.sender) */\n      swap1\n      pop\n        /* \"contracts/Lottery.sol\":1278:1384  function getMyToken() public view returns(uint256) {... */\n      swap1\n      jump\t// out\n        /* \"contracts/Lottery.sol\":442:474  uint256 public tokensPerEth = 10 */\n    tag_32:\n      sload(0x03)\n      dup2\n      jump\t// out\n        /* \"contracts/Lottery.sol\":967:1272  function enter() public payable{... */\n    tag_35:\n        /* \"contracts/Lottery.sol\":1092:1101  0.1 ether */\n      0x016345785d8a0000\n        /* \"contracts/Lottery.sol\":1080:1089  msg.value */\n      callvalue\n        /* \"contracts/Lottery.sol\":1080:1101  msg.value > 0.1 ether */\n      gt\n        /* \"contracts/Lottery.sol\":1072:1127  require(msg.value > 0.1 ether, \"msg.value < 0.1 ether\") */\n      tag_101\n      jumpi\n      mload(0x40)\n      0x08c379a000000000000000000000000000000000000000000000000000000000\n      dup2\n      mstore\n      0x04\n      add\n      tag_102\n      swap1\n      tag_103\n      jump\t// in\n    tag_102:\n      mload(0x40)\n      dup1\n      swap2\n      sub\n      swap1\n      revert\n    tag_101:\n        /* \"contracts/Lottery.sol\":1137:1152  uint256 amounts */\n      0x00\n        /* \"contracts/Lottery.sol\":1155:1164  msg.value */\n      callvalue\n        /* \"contracts/Lottery.sol\":1137:1164  uint256 amounts = msg.value */\n      swap1\n      pop\n        /* \"contracts/Lottery.sol\":1174:1181  players */\n      0x01\n        /* \"contracts/Lottery.sol\":1195:1205  msg.sender */\n      caller\n        /* \"contracts/Lottery.sol\":1174:1207  players.push(payable(msg.sender)) */\n      swap1\n      dup1\n      0x01\n      dup2\n      sload\n      add\n      dup1\n      dup3\n      sstore\n      dup1\n      swap2\n      pop\n      pop\n      0x01\n      swap1\n      sub\n      swap1\n      0x00\n      mstore\n      keccak256(0x00, 0x20)\n      add\n      0x00\n      swap1\n      swap2\n      swap1\n      swap2\n      swap1\n      swap2\n      0x0100\n      exp\n      dup2\n      sload\n      dup2\n      0xffffffffffffffffffffffffffffffffffffffff\n      mul\n      not\n      and\n      swap1\n      dup4\n      0xffffffffffffffffffffffffffffffffffffffff\n      and\n      mul\n      or\n      swap1\n      sstore\n      pop\n        /* \"contracts/Lottery.sol\":1217:1226  mshkToken */\n      0x00\n      dup1\n      sload\n      swap1\n      0x0100\n      exp\n      swap1\n      div\n      0xffffffffffffffffffffffffffffffffffffffff\n      and\n        /* \"contracts/Lottery.sol\":1217:1235  mshkToken.transfer */\n      0xffffffffffffffffffffffffffffffffffffffff\n      and\n      0xa9059cbb\n        /* \"contracts/Lottery.sol\":1236:1246  msg.sender */\n      caller\n        /* \"contracts/Lottery.sol\":1248:1255  amounts */\n      dup4\n        /* \"contracts/Lottery.sol\":1217:1256  mshkToken.transfer(msg.sender, amounts) */\n      mload(0x40)\n      dup4\n      0xffffffff\n      and\n      0xe0\n      shl\n      dup2\n      mstore\n      0x04\n      add\n      tag_105\n      swap3\n      swap2\n      swap1\n      tag_106\n      jump\t// in\n    tag_105:\n      0x20\n      mload(0x40)\n      dup1\n      dup4\n      sub\n      dup2\n      0x00\n      dup8\n      gas\n      call\n      iszero\n      dup1\n      iszero\n      tag_108\n      jumpi\n      returndatasize\n      0x00\n      dup1\n      returndatacopy\n      revert(0x00, returndatasize)\n    tag_108:\n      pop\n      pop\n      pop\n      pop\n      mload(0x40)\n      returndatasize\n      not(0x1f)\n      0x1f\n      dup3\n      add\n      and\n      dup3\n      add\n      dup1\n      0x40\n      mstore\n      pop\n      dup2\n      add\n      swap1\n      tag_109\n      swap2\n      swap1\n      tag_83\n      jump\t// in\n    tag_109:\n      pop\n        /* \"contracts/Lottery.sol\":998:1272  {... */\n      pop\n        /* \"contracts/Lottery.sol\":967:1272  function enter() public payable{... */\n      jump\t// out\n        /* \"contracts/Lottery.sol\":355:387  address payable[] public players */\n    tag_40:\n      0x01\n      dup2\n      dup2\n      sload\n      dup2\n      lt\n      tag_110\n      jumpi\n      0x00\n      dup1\n      revert\n    tag_110:\n      swap1\n      0x00\n      mstore\n      keccak256(0x00, 0x20)\n      add\n      0x00\n      swap2\n      pop\n      sload\n      swap1\n      0x0100\n      exp\n      swap1\n      div\n      0xffffffffffffffffffffffffffffffffffffffff\n      and\n      dup2\n      jump\t// out\n        /* \"contracts/Lottery.sol\":416:436  address public admin */\n    tag_45:\n      0x02\n      0x00\n      swap1\n      sload\n      swap1\n      0x0100\n      exp\n      swap1\n      div\n      0xffffffffffffffffffffffffffffffffffffffff\n      and\n      dup2\n      jump\t// out\n        /* \"contracts/Lottery.sol\":2251:2403  function random() internal view returns(uint){... */\n    tag_61:\n        /* \"contracts/Lottery.sol\":2291:2295  uint */\n      0x00\n        /* \"contracts/Lottery.sol\":2344:2360  block.difficulty */\n      difficulty\n        /* \"contracts/Lottery.sol\":2362:2377  block.timestamp */\n      timestamp\n        /* \"contracts/Lottery.sol\":2379:2386  players */\n      0x01\n        /* \"contracts/Lottery.sol\":2379:2393  players.length */\n      dup1\n      sload\n      swap1\n      pop\n        /* \"contracts/Lottery.sol\":2327:2394  abi.encodePacked(block.difficulty, block.timestamp, players.length) */\n      add(0x20, mload(0x40))\n      tag_113\n      swap4\n      swap3\n      swap2\n      swap1\n      tag_114\n      jump\t// in\n    tag_113:\n      mload(0x40)\n      0x20\n      dup2\n      dup4\n      sub\n      sub\n      dup2\n      mstore\n      swap1\n      0x40\n      mstore\n        /* \"contracts/Lottery.sol\":2317:2395  keccak256(abi.encodePacked(block.difficulty, block.timestamp, players.length)) */\n      dup1\n      mload\n      swap1\n      0x20\n      add\n      keccak256\n        /* \"contracts/Lottery.sol\":2312:2396  uint(keccak256(abi.encodePacked(block.difficulty, block.timestamp, players.length))) */\n      0x00\n      shr\n        /* \"contracts/Lottery.sol\":2305:2396  return uint(keccak256(abi.encodePacked(block.difficulty, block.timestamp, players.length))) */\n      swap1\n      pop\n        /* \"contracts/Lottery.sol\":2251:2403  function random() internal view returns(uint){... */\n      swap1\n      jump\t// out\n        /* \"contracts/Lottery.sol\":3453:3756  function resetLottery() internal {... */\n    tag_93:\n        /* \"contracts/Lottery.sol\":3558:3559  0 */\n      0x00\n        /* \"contracts/Lottery.sol\":3536:3560  new address payable[](0) */\n      0xffffffffffffffff\n      dup2\n      gt\n      iszero\n      tag_116\n      jumpi\n      tag_117\n      tag_118\n      jump\t// in\n    tag_117:\n    tag_116:\n      mload(0x40)\n      swap1\n      dup1\n      dup3\n      mstore\n      dup1\n      0x20\n      mul\n      0x20\n      add\n      dup3\n      add\n      0x40\n      mstore\n      dup1\n      iszero\n      tag_119\n      jumpi\n      dup2\n      0x20\n      add\n      0x20\n      dup3\n      mul\n      dup1\n      calldatasize\n      dup4\n      calldatacopy\n      dup1\n      dup3\n      add\n      swap2\n      pop\n      pop\n      swap1\n      pop\n    tag_119:\n      pop\n        /* \"contracts/Lottery.sol\":3526:3533  players */\n      0x01\n        /* \"contracts/Lottery.sol\":3526:3560  players = new address payable[](0) */\n      swap1\n      dup1\n      mload\n      swap1\n      0x20\n      add\n      swap1\n      tag_120\n      swap3\n      swap2\n      swap1\n      tag_121\n      jump\t// in\n    tag_120:\n      pop\n        /* \"contracts/Lottery.sol\":3619:3626  bool ad */\n      0x00\n        /* \"contracts/Lottery.sol\":3631:3636  admin */\n      0x02\n      0x00\n      swap1\n      sload\n      swap1\n      0x0100\n      exp\n      swap1\n      div\n      0xffffffffffffffffffffffffffffffffffffffff\n      and\n        /* \"contracts/Lottery.sol\":3631:3641  admin.call */\n      0xffffffffffffffffffffffffffffffffffffffff\n      and\n        /* \"contracts/Lottery.sol\":3649:3661  getBalance() */\n      tag_122\n        /* \"contracts/Lottery.sol\":3649:3659  getBalance */\n      tag_20\n        /* \"contracts/Lottery.sol\":3649:3661  getBalance() */\n      jump\t// in\n    tag_122:\n        /* \"contracts/Lottery.sol\":3631:3666  admin.call{value: getBalance()}(\"\") */\n      mload(0x40)\n      tag_123\n      swap1\n      tag_85\n      jump\t// in\n    tag_123:\n      0x00\n      mload(0x40)\n      dup1\n      dup4\n      sub\n      dup2\n      dup6\n      dup8\n      gas\n      call\n      swap3\n      pop\n      pop\n      pop\n      returndatasize\n      dup1\n      0x00\n      dup2\n      eq\n      tag_126\n      jumpi\n      mload(0x40)\n      swap2\n      pop\n      and(add(returndatasize, 0x3f), not(0x1f))\n      dup3\n      add\n      0x40\n      mstore\n      returndatasize\n      dup3\n      mstore\n      returndatasize\n      0x00\n      0x20\n      dup5\n      add\n      returndatacopy\n      jump(tag_125)\n    tag_126:\n      0x60\n      swap2\n      pop\n    tag_125:\n      pop\n        /* \"contracts/Lottery.sol\":3618:3666  (bool ad,) = admin.call{value: getBalance()}(\"\") */\n      pop\n      swap1\n      pop\n        /* \"contracts/Lottery.sol\":3693:3695  ad */\n      dup1\n        /* \"contracts/Lottery.sol\":3685:3749  require(ad, \"Failed to send user balance back to the admin fee\") */\n      tag_127\n      jumpi\n      mload(0x40)\n      0x08c379a000000000000000000000000000000000000000000000000000000000\n      dup2\n      mstore\n      0x04\n      add\n      tag_128\n      swap1\n      tag_129\n      jump\t// in\n    tag_128:\n      mload(0x40)\n      dup1\n      swap2\n      sub\n      swap1\n      revert\n    tag_127:\n        /* \"contracts/Lottery.sol\":3486:3756  {... */\n      pop\n        /* \"contracts/Lottery.sol\":3453:3756  function resetLottery() internal {... */\n      jump\t// out\n    tag_121:\n      dup3\n      dup1\n      sload\n      dup3\n      dup3\n      sstore\n      swap1\n      0x00\n      mstore\n      keccak256(0x00, 0x20)\n      swap1\n      dup2\n      add\n      swap3\n      dup3\n      iszero\n      tag_130\n      jumpi\n      swap2\n      0x20\n      mul\n      dup3\n      add\n    tag_131:\n      dup3\n      dup2\n      gt\n      iszero\n      tag_132\n      jumpi\n      dup3\n      mload\n      dup3\n      exp(0x0100, 0x00)\n      dup2\n      sload\n      dup2\n      0xffffffffffffffffffffffffffffffffffffffff\n      mul\n      not\n      and\n      swap1\n      dup4\n      0xffffffffffffffffffffffffffffffffffffffff\n      and\n      mul\n      or\n      swap1\n      sstore\n      pop\n      swap2\n      0x20\n      add\n      swap2\n      swap1\n      0x01\n      add\n      swap1\n      jump(tag_131)\n    tag_132:\n    tag_130:\n      pop\n      swap1\n      pop\n      tag_133\n      swap2\n      swap1\n      tag_134\n      jump\t// in\n    tag_133:\n      pop\n      swap1\n      jump\t// out\n    tag_134:\n    tag_135:\n      dup1\n      dup3\n      gt\n      iszero\n      tag_136\n      jumpi\n      0x00\n      dup2\n      0x00\n      swap1\n      sstore\n      pop\n      0x01\n      add\n      jump(tag_135)\n    tag_136:\n      pop\n      swap1\n      jump\t// out\n        /* \"#utility.yul\":7:176   */\n    tag_137:\n        /* \"#utility.yul\":91:102   */\n      0x00\n        /* \"#utility.yul\":125:131   */\n      dup3\n        /* \"#utility.yul\":120:123   */\n      dup3\n        /* \"#utility.yul\":113:132   */\n      mstore\n        /* \"#utility.yul\":165:169   */\n      0x20\n        /* \"#utility.yul\":160:163   */\n      dup3\n        /* \"#utility.yul\":156:170   */\n      add\n        /* \"#utility.yul\":141:170   */\n      swap1\n      pop\n        /* \"#utility.yul\":7:176   */\n      swap3\n      swap2\n      pop\n      pop\n      jump\t// out\n        /* \"#utility.yul\":182:358   */\n    tag_138:\n        /* \"#utility.yul\":322:350   */\n      0x4d7573742073656e6420302e3120657468657220616d6f756e74000000000000\n        /* \"#utility.yul\":318:319   */\n      0x00\n        /* \"#utility.yul\":310:316   */\n      dup3\n        /* \"#utility.yul\":306:320   */\n      add\n        /* \"#utility.yul\":299:351   */\n      mstore\n        /* \"#utility.yul\":182:358   */\n      pop\n      jump\t// out\n        /* \"#utility.yul\":364:730   */\n    tag_139:\n        /* \"#utility.yul\":506:509   */\n      0x00\n        /* \"#utility.yul\":527:594   */\n      tag_179\n        /* \"#utility.yul\":591:593   */\n      0x1a\n        /* \"#utility.yul\":586:589   */\n      dup4\n        /* \"#utility.yul\":527:594   */\n      tag_137\n      jump\t// in\n    tag_179:\n        /* \"#utility.yul\":520:594   */\n      swap2\n      pop\n        /* \"#utility.yul\":603:696   */\n      tag_180\n        /* \"#utility.yul\":692:695   */\n      dup3\n        /* \"#utility.yul\":603:696   */\n      tag_138\n      jump\t// in\n    tag_180:\n        /* \"#utility.yul\":721:723   */\n      0x20\n        /* \"#utility.yul\":716:719   */\n      dup3\n        /* \"#utility.yul\":712:724   */\n      add\n        /* \"#utility.yul\":705:724   */\n      swap1\n      pop\n        /* \"#utility.yul\":364:730   */\n      swap2\n      swap1\n      pop\n      jump\t// out\n        /* \"#utility.yul\":736:1155   */\n    tag_15:\n        /* \"#utility.yul\":902:906   */\n      0x00\n        /* \"#utility.yul\":940:942   */\n      0x20\n        /* \"#utility.yul\":929:938   */\n      dup3\n        /* \"#utility.yul\":925:943   */\n      add\n        /* \"#utility.yul\":917:943   */\n      swap1\n      pop\n        /* \"#utility.yul\":989:998   */\n      dup2\n        /* \"#utility.yul\":983:987   */\n      dup2\n        /* \"#utility.yul\":979:999   */\n      sub\n        /* \"#utility.yul\":975:976   */\n      0x00\n        /* \"#utility.yul\":964:973   */\n      dup4\n        /* \"#utility.yul\":960:977   */\n      add\n        /* \"#utility.yul\":953:1000   */\n      mstore\n        /* \"#utility.yul\":1017:1148   */\n      tag_182\n        /* \"#utility.yul\":1143:1147   */\n      dup2\n        /* \"#utility.yul\":1017:1148   */\n      tag_139\n      jump\t// in\n    tag_182:\n        /* \"#utility.yul\":1009:1148   */\n      swap1\n      pop\n        /* \"#utility.yul\":736:1155   */\n      swap2\n      swap1\n      pop\n      jump\t// out\n        /* \"#utility.yul\":1161:1238   */\n    tag_140:\n        /* \"#utility.yul\":1198:1205   */\n      0x00\n        /* \"#utility.yul\":1227:1232   */\n      dup2\n        /* \"#utility.yul\":1216:1232   */\n      swap1\n      pop\n        /* \"#utility.yul\":1161:1238   */\n      swap2\n      swap1\n      pop\n      jump\t// out\n        /* \"#utility.yul\":1244:1362   */\n    tag_141:\n        /* \"#utility.yul\":1331:1355   */\n      tag_185\n        /* \"#utility.yul\":1349:1354   */\n      dup2\n        /* \"#utility.yul\":1331:1355   */\n      tag_140\n      jump\t// in\n    tag_185:\n        /* \"#utility.yul\":1326:1329   */\n      dup3\n        /* \"#utility.yul\":1319:1356   */\n      mstore\n        /* \"#utility.yul\":1244:1362   */\n      pop\n      pop\n      jump\t// out\n        /* \"#utility.yul\":1368:1590   */\n    tag_22:\n        /* \"#utility.yul\":1461:1465   */\n      0x00\n        /* \"#utility.yul\":1499:1501   */\n      0x20\n        /* \"#utility.yul\":1488:1497   */\n      dup3\n        /* \"#utility.yul\":1484:1502   */\n      add\n        /* \"#utility.yul\":1476:1502   */\n      swap1\n      pop\n        /* \"#utility.yul\":1512:1583   */\n      tag_187\n        /* \"#utility.yul\":1580:1581   */\n      0x00\n        /* \"#utility.yul\":1569:1578   */\n      dup4\n        /* \"#utility.yul\":1565:1582   */\n      add\n        /* \"#utility.yul\":1556:1562   */\n      dup5\n        /* \"#utility.yul\":1512:1583   */\n      tag_141\n      jump\t// in\n    tag_187:\n        /* \"#utility.yul\":1368:1590   */\n      swap3\n      swap2\n      pop\n      pop\n      jump\t// out\n        /* \"#utility.yul\":1677:1794   */\n    tag_143:\n        /* \"#utility.yul\":1786:1787   */\n      0x00\n        /* \"#utility.yul\":1783:1784   */\n      dup1\n        /* \"#utility.yul\":1776:1788   */\n      revert\n        /* \"#utility.yul\":1923:2045   */\n    tag_145:\n        /* \"#utility.yul\":1996:2020   */\n      tag_192\n        /* \"#utility.yul\":2014:2019   */\n      dup2\n        /* \"#utility.yul\":1996:2020   */\n      tag_140\n      jump\t// in\n    tag_192:\n        /* \"#utility.yul\":1989:1994   */\n      dup2\n        /* \"#utility.yul\":1986:2021   */\n      eq\n        /* \"#utility.yul\":1976:2039   */\n      tag_193\n      jumpi\n        /* \"#utility.yul\":2035:2036   */\n      0x00\n        /* \"#utility.yul\":2032:2033   */\n      dup1\n        /* \"#utility.yul\":2025:2037   */\n      revert\n        /* \"#utility.yul\":1976:2039   */\n    tag_193:\n        /* \"#utility.yul\":1923:2045   */\n      pop\n      jump\t// out\n        /* \"#utility.yul\":2051:2190   */\n    tag_146:\n        /* \"#utility.yul\":2097:2102   */\n      0x00\n        /* \"#utility.yul\":2135:2141   */\n      dup2\n        /* \"#utility.yul\":2122:2142   */\n      calldataload\n        /* \"#utility.yul\":2113:2142   */\n      swap1\n      pop\n        /* \"#utility.yul\":2151:2184   */\n      tag_195\n        /* \"#utility.yul\":2178:2183   */\n      dup2\n        /* \"#utility.yul\":2151:2184   */\n      tag_145\n      jump\t// in\n    tag_195:\n        /* \"#utility.yul\":2051:2190   */\n      swap3\n      swap2\n      pop\n      pop\n      jump\t// out\n        /* \"#utility.yul\":2196:2525   */\n    tag_39:\n        /* \"#utility.yul\":2255:2261   */\n      0x00\n        /* \"#utility.yul\":2304:2306   */\n      0x20\n        /* \"#utility.yul\":2292:2301   */\n      dup3\n        /* \"#utility.yul\":2283:2290   */\n      dup5\n        /* \"#utility.yul\":2279:2302   */\n      sub\n        /* \"#utility.yul\":2275:2307   */\n      slt\n        /* \"#utility.yul\":2272:2391   */\n      iszero\n      tag_197\n      jumpi\n        /* \"#utility.yul\":2310:2389   */\n      tag_198\n      tag_143\n      jump\t// in\n    tag_198:\n        /* \"#utility.yul\":2272:2391   */\n    tag_197:\n        /* \"#utility.yul\":2430:2431   */\n      0x00\n        /* \"#utility.yul\":2455:2508   */\n      tag_199\n        /* \"#utility.yul\":2500:2507   */\n      dup5\n        /* \"#utility.yul\":2491:2497   */\n      dup3\n        /* \"#utility.yul\":2480:2489   */\n      dup6\n        /* \"#utility.yul\":2476:2498   */\n      add\n        /* \"#utility.yul\":2455:2508   */\n      tag_146\n      jump\t// in\n    tag_199:\n        /* \"#utility.yul\":2445:2508   */\n      swap2\n      pop\n        /* \"#utility.yul\":2401:2518   */\n      pop\n        /* \"#utility.yul\":2196:2525   */\n      swap3\n      swap2\n      pop\n      pop\n      jump\t// out\n        /* \"#utility.yul\":2531:2657   */\n    tag_147:\n        /* \"#utility.yul\":2568:2575   */\n      0x00\n        /* \"#utility.yul\":2608:2650   */\n      0xffffffffffffffffffffffffffffffffffffffff\n        /* \"#utility.yul\":2601:2606   */\n      dup3\n        /* \"#utility.yul\":2597:2651   */\n      and\n        /* \"#utility.yul\":2586:2651   */\n      swap1\n      pop\n        /* \"#utility.yul\":2531:2657   */\n      swap2\n      swap1\n      pop\n      jump\t// out\n        /* \"#utility.yul\":2663:2767   */\n    tag_148:\n        /* \"#utility.yul\":2708:2715   */\n      0x00\n        /* \"#utility.yul\":2737:2761   */\n      tag_202\n        /* \"#utility.yul\":2755:2760   */\n      dup3\n        /* \"#utility.yul\":2737:2761   */\n      tag_147\n      jump\t// in\n    tag_202:\n        /* \"#utility.yul\":2726:2761   */\n      swap1\n      pop\n        /* \"#utility.yul\":2663:2767   */\n      swap2\n      swap1\n      pop\n      jump\t// out\n        /* \"#utility.yul\":2773:2915   */\n    tag_149:\n        /* \"#utility.yul\":2876:2908   */\n      tag_204\n        /* \"#utility.yul\":2902:2907   */\n      dup2\n        /* \"#utility.yul\":2876:2908   */\n      tag_148\n      jump\t// in\n    tag_204:\n        /* \"#utility.yul\":2871:2874   */\n      dup3\n        /* \"#utility.yul\":2864:2909   */\n      mstore\n        /* \"#utility.yul\":2773:2915   */\n      pop\n      pop\n      jump\t// out\n        /* \"#utility.yul\":2921:3175   */\n    tag_42:\n        /* \"#utility.yul\":3030:3034   */\n      0x00\n        /* \"#utility.yul\":3068:3070   */\n      0x20\n        /* \"#utility.yul\":3057:3066   */\n      dup3\n        /* \"#utility.yul\":3053:3071   */\n      add\n        /* \"#utility.yul\":3045:3071   */\n      swap1\n      pop\n        /* \"#utility.yul\":3081:3168   */\n      tag_206\n        /* \"#utility.yul\":3165:3166   */\n      0x00\n        /* \"#utility.yul\":3154:3163   */\n      dup4\n        /* \"#utility.yul\":3150:3167   */\n      add\n        /* \"#utility.yul\":3141:3147   */\n      dup5\n        /* \"#utility.yul\":3081:3168   */\n      tag_149\n      jump\t// in\n    tag_206:\n        /* \"#utility.yul\":2921:3175   */\n      swap3\n      swap2\n      pop\n      pop\n      jump\t// out\n        /* \"#utility.yul\":3181:3277   */\n    tag_150:\n        /* \"#utility.yul\":3218:3225   */\n      0x00\n        /* \"#utility.yul\":3247:3271   */\n      tag_208\n        /* \"#utility.yul\":3265:3270   */\n      dup3\n        /* \"#utility.yul\":3247:3271   */\n      tag_147\n      jump\t// in\n    tag_208:\n        /* \"#utility.yul\":3236:3271   */\n      swap1\n      pop\n        /* \"#utility.yul\":3181:3277   */\n      swap2\n      swap1\n      pop\n      jump\t// out\n        /* \"#utility.yul\":3283:3401   */\n    tag_151:\n        /* \"#utility.yul\":3370:3394   */\n      tag_210\n        /* \"#utility.yul\":3388:3393   */\n      dup2\n        /* \"#utility.yul\":3370:3394   */\n      tag_150\n      jump\t// in\n    tag_210:\n        /* \"#utility.yul\":3365:3368   */\n      dup3\n        /* \"#utility.yul\":3358:3395   */\n      mstore\n        /* \"#utility.yul\":3283:3401   */\n      pop\n      pop\n      jump\t// out\n        /* \"#utility.yul\":3407:3629   */\n    tag_47:\n        /* \"#utility.yul\":3500:3504   */\n      0x00\n        /* \"#utility.yul\":3538:3540   */\n      0x20\n        /* \"#utility.yul\":3527:3536   */\n      dup3\n        /* \"#utility.yul\":3523:3541   */\n      add\n        /* \"#utility.yul\":3515:3541   */\n      swap1\n      pop\n        /* \"#utility.yul\":3551:3622   */\n      tag_212\n        /* \"#utility.yul\":3619:3620   */\n      0x00\n        /* \"#utility.yul\":3608:3617   */\n      dup4\n        /* \"#utility.yul\":3604:3621   */\n      add\n        /* \"#utility.yul\":3595:3601   */\n      dup5\n        /* \"#utility.yul\":3551:3622   */\n      tag_151\n      jump\t// in\n    tag_212:\n        /* \"#utility.yul\":3407:3629   */\n      swap3\n      swap2\n      pop\n      pop\n      jump\t// out\n        /* \"#utility.yul\":3635:3806   */\n    tag_152:\n        /* \"#utility.yul\":3775:3798   */\n      0x596f7520617265206e6f7420746865206f776e65720000000000000000000000\n        /* \"#utility.yul\":3771:3772   */\n      0x00\n        /* \"#utility.yul\":3763:3769   */\n      dup3\n        /* \"#utility.yul\":3759:3773   */\n      add\n        /* \"#utility.yul\":3752:3799   */\n      mstore\n        /* \"#utility.yul\":3635:3806   */\n      pop\n      jump\t// out\n        /* \"#utility.yul\":3812:4178   */\n    tag_153:\n        /* \"#utility.yul\":3954:3957   */\n      0x00\n        /* \"#utility.yul\":3975:4042   */\n      tag_215\n        /* \"#utility.yul\":4039:4041   */\n      0x15\n        /* \"#utility.yul\":4034:4037   */\n      dup4\n        /* \"#utility.yul\":3975:4042   */\n      tag_137\n      jump\t// in\n    tag_215:\n        /* \"#utility.yul\":3968:4042   */\n      swap2\n      pop\n        /* \"#utility.yul\":4051:4144   */\n      tag_216\n        /* \"#utility.yul\":4140:4143   */\n      dup3\n        /* \"#utility.yul\":4051:4144   */\n      tag_152\n      jump\t// in\n    tag_216:\n        /* \"#utility.yul\":4169:4171   */\n      0x20\n        /* \"#utility.yul\":4164:4167   */\n      dup3\n        /* \"#utility.yul\":4160:4172   */\n      add\n        /* \"#utility.yul\":4153:4172   */\n      swap1\n      pop\n        /* \"#utility.yul\":3812:4178   */\n      swap2\n      swap1\n      pop\n      jump\t// out\n        /* \"#utility.yul\":4184:4603   */\n    tag_51:\n        /* \"#utility.yul\":4350:4354   */\n      0x00\n        /* \"#utility.yul\":4388:4390   */\n      0x20\n        /* \"#utility.yul\":4377:4386   */\n      dup3\n        /* \"#utility.yul\":4373:4391   */\n      add\n        /* \"#utility.yul\":4365:4391   */\n      swap1\n      pop\n        /* \"#utility.yul\":4437:4446   */\n      dup2\n        /* \"#utility.yul\":4431:4435   */\n      dup2\n        /* \"#utility.yul\":4427:4447   */\n      sub\n        /* \"#utility.yul\":4423:4424   */\n      0x00\n        /* \"#utility.yul\":4412:4421   */\n      dup4\n        /* \"#utility.yul\":4408:4425   */\n      add\n        /* \"#utility.yul\":4401:4448   */\n      mstore\n        /* \"#utility.yul\":4465:4596   */\n      tag_218\n        /* \"#utility.yul\":4591:4595   */\n      dup2\n        /* \"#utility.yul\":4465:4596   */\n      tag_153\n      jump\t// in\n    tag_218:\n        /* \"#utility.yul\":4457:4596   */\n      swap1\n      pop\n        /* \"#utility.yul\":4184:4603   */\n      swap2\n      swap1\n      pop\n      jump\t// out\n        /* \"#utility.yul\":4609:4829   */\n    tag_154:\n        /* \"#utility.yul\":4749:4783   */\n      0x4e6f7420656e6f75676820706c617965727320696e20746865206c6f74746572\n        /* \"#utility.yul\":4745:4746   */\n      0x00\n        /* \"#utility.yul\":4737:4743   */\n      dup3\n        /* \"#utility.yul\":4733:4747   */\n      add\n        /* \"#utility.yul\":4726:4784   */\n      mstore\n        /* \"#utility.yul\":4818:4821   */\n      0x7900000000000000000000000000000000000000000000000000000000000000\n        /* \"#utility.yul\":4813:4815   */\n      0x20\n        /* \"#utility.yul\":4805:4811   */\n      dup3\n        /* \"#utility.yul\":4801:4816   */\n      add\n        /* \"#utility.yul\":4794:4822   */\n      mstore\n        /* \"#utility.yul\":4609:4829   */\n      pop\n      jump\t// out\n        /* \"#utility.yul\":4835:5201   */\n    tag_155:\n        /* \"#utility.yul\":4977:4980   */\n      0x00\n        /* \"#utility.yul\":4998:5065   */\n      tag_221\n        /* \"#utility.yul\":5062:5064   */\n      0x21\n        /* \"#utility.yul\":5057:5060   */\n      dup4\n        /* \"#utility.yul\":4998:5065   */\n      tag_137\n      jump\t// in\n    tag_221:\n        /* \"#utility.yul\":4991:5065   */\n      swap2\n      pop\n        /* \"#utility.yul\":5074:5167   */\n      tag_222\n        /* \"#utility.yul\":5163:5166   */\n      dup3\n        /* \"#utility.yul\":5074:5167   */\n      tag_154\n      jump\t// in\n    tag_222:\n        /* \"#utility.yul\":5192:5194   */\n      0x40\n        /* \"#utility.yul\":5187:5190   */\n      dup3\n        /* \"#utility.yul\":5183:5195   */\n      add\n        /* \"#utility.yul\":5176:5195   */\n      swap1\n      pop\n        /* \"#utility.yul\":4835:5201   */\n      swap2\n      swap1\n      pop\n      jump\t// out\n        /* \"#utility.yul\":5207:5626   */\n    tag_59:\n        /* \"#utility.yul\":5373:5377   */\n      0x00\n        /* \"#utility.yul\":5411:5413   */\n      0x20\n        /* \"#utility.yul\":5400:5409   */\n      dup3\n        /* \"#utility.yul\":5396:5414   */\n      add\n        /* \"#utility.yul\":5388:5414   */\n      swap1\n      pop\n        /* \"#utility.yul\":5460:5469   */\n      dup2\n        /* \"#utility.yul\":5454:5458   */\n      dup2\n        /* \"#utility.yul\":5450:5470   */\n      sub\n        /* \"#utility.yul\":5446:5447   */\n      0x00\n        /* \"#utility.yul\":5435:5444   */\n      dup4\n        /* \"#utility.yul\":5431:5448   */\n      add\n        /* \"#utility.yul\":5424:5471   */\n      mstore\n        /* \"#utility.yul\":5488:5619   */\n      tag_224\n        /* \"#utility.yul\":5614:5618   */\n      dup2\n        /* \"#utility.yul\":5488:5619   */\n      tag_155\n      jump\t// in\n    tag_224:\n        /* \"#utility.yul\":5480:5619   */\n      swap1\n      pop\n        /* \"#utility.yul\":5207:5626   */\n      swap2\n      swap1\n      pop\n      jump\t// out\n        /* \"#utility.yul\":5632:5812   */\n    tag_156:\n        /* \"#utility.yul\":5680:5757   */\n      0x4e487b7100000000000000000000000000000000000000000000000000000000\n        /* \"#utility.yul\":5677:5678   */\n      0x00\n        /* \"#utility.yul\":5670:5758   */\n      mstore\n        /* \"#utility.yul\":5777:5781   */\n      0x12\n        /* \"#utility.yul\":5774:5775   */\n      0x04\n        /* \"#utility.yul\":5767:5782   */\n      mstore\n        /* \"#utility.yul\":5801:5805   */\n      0x24\n        /* \"#utility.yul\":5798:5799   */\n      0x00\n        /* \"#utility.yul\":5791:5806   */\n      revert\n        /* \"#utility.yul\":5818:5994   */\n    tag_63:\n        /* \"#utility.yul\":5850:5851   */\n      0x00\n        /* \"#utility.yul\":5867:5887   */\n      tag_227\n        /* \"#utility.yul\":5885:5886   */\n      dup3\n        /* \"#utility.yul\":5867:5887   */\n      tag_140\n      jump\t// in\n    tag_227:\n        /* \"#utility.yul\":5862:5887   */\n      swap2\n      pop\n        /* \"#utility.yul\":5901:5921   */\n      tag_228\n        /* \"#utility.yul\":5919:5920   */\n      dup4\n        /* \"#utility.yul\":5901:5921   */\n      tag_140\n      jump\t// in\n    tag_228:\n        /* \"#utility.yul\":5896:5921   */\n      swap3\n      pop\n        /* \"#utility.yul\":5940:5941   */\n      dup3\n        /* \"#utility.yul\":5930:5965   */\n      tag_229\n      jumpi\n        /* \"#utility.yul\":5945:5963   */\n      tag_230\n      tag_156\n      jump\t// in\n    tag_230:\n        /* \"#utility.yul\":5930:5965   */\n    tag_229:\n        /* \"#utility.yul\":5986:5987   */\n      dup3\n        /* \"#utility.yul\":5983:5984   */\n      dup3\n        /* \"#utility.yul\":5979:5988   */\n      mod\n        /* \"#utility.yul\":5974:5988   */\n      swap1\n      pop\n        /* \"#utility.yul\":5818:5994   */\n      swap3\n      swap2\n      pop\n      pop\n      jump\t// out\n        /* \"#utility.yul\":6000:6180   */\n    tag_66:\n        /* \"#utility.yul\":6048:6125   */\n      0x4e487b7100000000000000000000000000000000000000000000000000000000\n        /* \"#utility.yul\":6045:6046   */\n      0x00\n        /* \"#utility.yul\":6038:6126   */\n      mstore\n        /* \"#utility.yul\":6145:6149   */\n      0x32\n        /* \"#utility.yul\":6142:6143   */\n      0x04\n        /* \"#utility.yul\":6135:6150   */\n      mstore\n        /* \"#utility.yul\":6169:6173   */\n      0x24\n        /* \"#utility.yul\":6166:6167   */\n      0x00\n        /* \"#utility.yul\":6159:6174   */\n      revert\n        /* \"#utility.yul\":6186:6366   */\n    tag_157:\n        /* \"#utility.yul\":6234:6311   */\n      0x4e487b7100000000000000000000000000000000000000000000000000000000\n        /* \"#utility.yul\":6231:6232   */\n      0x00\n        /* \"#utility.yul\":6224:6312   */\n      mstore\n        /* \"#utility.yul\":6331:6335   */\n      0x11\n        /* \"#utility.yul\":6328:6329   */\n      0x04\n        /* \"#utility.yul\":6321:6336   */\n      mstore\n        /* \"#utility.yul\":6355:6359   */\n      0x24\n        /* \"#utility.yul\":6352:6353   */\n      0x00\n        /* \"#utility.yul\":6345:6360   */\n      revert\n        /* \"#utility.yul\":6372:6782   */\n    tag_71:\n        /* \"#utility.yul\":6412:6419   */\n      0x00\n        /* \"#utility.yul\":6435:6455   */\n      tag_234\n        /* \"#utility.yul\":6453:6454   */\n      dup3\n        /* \"#utility.yul\":6435:6455   */\n      tag_140\n      jump\t// in\n    tag_234:\n        /* \"#utility.yul\":6430:6455   */\n      swap2\n      pop\n        /* \"#utility.yul\":6469:6489   */\n      tag_235\n        /* \"#utility.yul\":6487:6488   */\n      dup4\n        /* \"#utility.yul\":6469:6489   */\n      tag_140\n      jump\t// in\n    tag_235:\n        /* \"#utility.yul\":6464:6489   */\n      swap3\n      pop\n        /* \"#utility.yul\":6524:6525   */\n      dup3\n        /* \"#utility.yul\":6521:6522   */\n      dup3\n        /* \"#utility.yul\":6517:6526   */\n      mul\n        /* \"#utility.yul\":6546:6576   */\n      tag_236\n        /* \"#utility.yul\":6564:6575   */\n      dup2\n        /* \"#utility.yul\":6546:6576   */\n      tag_140\n      jump\t// in\n    tag_236:\n        /* \"#utility.yul\":6535:6576   */\n      swap2\n      pop\n        /* \"#utility.yul\":6725:6726   */\n      dup3\n        /* \"#utility.yul\":6716:6723   */\n      dup3\n        /* \"#utility.yul\":6712:6727   */\n      div\n        /* \"#utility.yul\":6709:6710   */\n      dup5\n        /* \"#utility.yul\":6706:6728   */\n      eq\n        /* \"#utility.yul\":6686:6687   */\n      dup4\n        /* \"#utility.yul\":6679:6688   */\n      iszero\n        /* \"#utility.yul\":6659:6742   */\n      or\n        /* \"#utility.yul\":6636:6775   */\n      tag_237\n      jumpi\n        /* \"#utility.yul\":6755:6773   */\n      tag_238\n      tag_157\n      jump\t// in\n    tag_238:\n        /* \"#utility.yul\":6636:6775   */\n    tag_237:\n        /* \"#utility.yul\":6420:6782   */\n      pop\n        /* \"#utility.yul\":6372:6782   */\n      swap3\n      swap2\n      pop\n      pop\n      jump\t// out\n        /* \"#utility.yul\":6788:6973   */\n    tag_73:\n        /* \"#utility.yul\":6828:6829   */\n      0x00\n        /* \"#utility.yul\":6845:6865   */\n      tag_240\n        /* \"#utility.yul\":6863:6864   */\n      dup3\n        /* \"#utility.yul\":6845:6865   */\n      tag_140\n      jump\t// in\n    tag_240:\n        /* \"#utility.yul\":6840:6865   */\n      swap2\n      pop\n        /* \"#utility.yul\":6879:6899   */\n      tag_241\n        /* \"#utility.yul\":6897:6898   */\n      dup4\n        /* \"#utility.yul\":6879:6899   */\n      tag_140\n      jump\t// in\n    tag_241:\n        /* \"#utility.yul\":6874:6899   */\n      swap3\n      pop\n        /* \"#utility.yul\":6918:6919   */\n      dup3\n        /* \"#utility.yul\":6908:6943   */\n      tag_242\n      jumpi\n        /* \"#utility.yul\":6923:6941   */\n      tag_243\n      tag_156\n      jump\t// in\n    tag_243:\n        /* \"#utility.yul\":6908:6943   */\n    tag_242:\n        /* \"#utility.yul\":6965:6966   */\n      dup3\n        /* \"#utility.yul\":6962:6963   */\n      dup3\n        /* \"#utility.yul\":6958:6967   */\n      div\n        /* \"#utility.yul\":6953:6967   */\n      swap1\n      pop\n        /* \"#utility.yul\":6788:6973   */\n      swap3\n      swap2\n      pop\n      pop\n      jump\t// out\n        /* \"#utility.yul\":6979:7160   */\n    tag_158:\n        /* \"#utility.yul\":7119:7152   */\n      0x4661696c656420746f2077696e6e657220616d6f756e74206973207a65726f00\n        /* \"#utility.yul\":7115:7116   */\n      0x00\n        /* \"#utility.yul\":7107:7113   */\n      dup3\n        /* \"#utility.yul\":7103:7117   */\n      add\n        /* \"#utility.yul\":7096:7153   */\n      mstore\n        /* \"#utility.yul\":6979:7160   */\n      pop\n      jump\t// out\n        /* \"#utility.yul\":7166:7532   */\n    tag_159:\n        /* \"#utility.yul\":7308:7311   */\n      0x00\n        /* \"#utility.yul\":7329:7396   */\n      tag_246\n        /* \"#utility.yul\":7393:7395   */\n      0x1f\n        /* \"#utility.yul\":7388:7391   */\n      dup4\n        /* \"#utility.yul\":7329:7396   */\n      tag_137\n      jump\t// in\n    tag_246:\n        /* \"#utility.yul\":7322:7396   */\n      swap2\n      pop\n        /* \"#utility.yul\":7405:7498   */\n      tag_247\n        /* \"#utility.yul\":7494:7497   */\n      dup3\n        /* \"#utility.yul\":7405:7498   */\n      tag_158\n      jump\t// in\n    tag_247:\n        /* \"#utility.yul\":7523:7525   */\n      0x20\n        /* \"#utility.yul\":7518:7521   */\n      dup3\n        /* \"#utility.yul\":7514:7526   */\n      add\n        /* \"#utility.yul\":7507:7526   */\n      swap1\n      pop\n        /* \"#utility.yul\":7166:7532   */\n      swap2\n      swap1\n      pop\n      jump\t// out\n        /* \"#utility.yul\":7538:7957   */\n    tag_77:\n        /* \"#utility.yul\":7704:7708   */\n      0x00\n        /* \"#utility.yul\":7742:7744   */\n      0x20\n        /* \"#utility.yul\":7731:7740   */\n      dup3\n        /* \"#utility.yul\":7727:7745   */\n      add\n        /* \"#utility.yul\":7719:7745   */\n      swap1\n      pop\n        /* \"#utility.yul\":7791:7800   */\n      dup2\n        /* \"#utility.yul\":7785:7789   */\n      dup2\n        /* \"#utility.yul\":7781:7801   */\n      sub\n        /* \"#utility.yul\":7777:7778   */\n      0x00\n        /* \"#utility.yul\":7766:7775   */\n      dup4\n        /* \"#utility.yul\":7762:7779   */\n      add\n        /* \"#utility.yul\":7755:7802   */\n      mstore\n        /* \"#utility.yul\":7819:7950   */\n      tag_249\n        /* \"#utility.yul\":7945:7949   */\n      dup2\n        /* \"#utility.yul\":7819:7950   */\n      tag_159\n      jump\t// in\n    tag_249:\n        /* \"#utility.yul\":7811:7950   */\n      swap1\n      pop\n        /* \"#utility.yul\":7538:7957   */\n      swap2\n      swap1\n      pop\n      jump\t// out\n        /* \"#utility.yul\":7963:8405   */\n    tag_79:\n        /* \"#utility.yul\":8112:8116   */\n      0x00\n        /* \"#utility.yul\":8150:8152   */\n      0x60\n        /* \"#utility.yul\":8139:8148   */\n      dup3\n        /* \"#utility.yul\":8135:8153   */\n      add\n        /* \"#utility.yul\":8127:8153   */\n      swap1\n      pop\n        /* \"#utility.yul\":8163:8234   */\n      tag_251\n        /* \"#utility.yul\":8231:8232   */\n      0x00\n        /* \"#utility.yul\":8220:8229   */\n      dup4\n        /* \"#utility.yul\":8216:8233   */\n      add\n        /* \"#utility.yul\":8207:8213   */\n      dup7\n        /* \"#utility.yul\":8163:8234   */\n      tag_151\n      jump\t// in\n    tag_251:\n        /* \"#utility.yul\":8244:8316   */\n      tag_252\n        /* \"#utility.yul\":8312:8314   */\n      0x20\n        /* \"#utility.yul\":8301:8310   */\n      dup4\n        /* \"#utility.yul\":8297:8315   */\n      add\n        /* \"#utility.yul\":8288:8294   */\n      dup6\n        /* \"#utility.yul\":8244:8316   */\n      tag_151\n      jump\t// in\n    tag_252:\n        /* \"#utility.yul\":8326:8398   */\n      tag_253\n        /* \"#utility.yul\":8394:8396   */\n      0x40\n        /* \"#utility.yul\":8383:8392   */\n      dup4\n        /* \"#utility.yul\":8379:8397   */\n      add\n        /* \"#utility.yul\":8370:8376   */\n      dup5\n        /* \"#utility.yul\":8326:8398   */\n      tag_141\n      jump\t// in\n    tag_253:\n        /* \"#utility.yul\":7963:8405   */\n      swap5\n      swap4\n      pop\n      pop\n      pop\n      pop\n      jump\t// out\n        /* \"#utility.yul\":8411:8501   */\n    tag_160:\n        /* \"#utility.yul\":8445:8452   */\n      0x00\n        /* \"#utility.yul\":8488:8493   */\n      dup2\n        /* \"#utility.yul\":8481:8494   */\n      iszero\n        /* \"#utility.yul\":8474:8495   */\n      iszero\n        /* \"#utility.yul\":8463:8495   */\n      swap1\n      pop\n        /* \"#utility.yul\":8411:8501   */\n      swap2\n      swap1\n      pop\n      jump\t// out\n        /* \"#utility.yul\":8507:8623   */\n    tag_161:\n        /* \"#utility.yul\":8577:8598   */\n      tag_256\n        /* \"#utility.yul\":8592:8597   */\n      dup2\n        /* \"#utility.yul\":8577:8598   */\n      tag_160\n      jump\t// in\n    tag_256:\n        /* \"#utility.yul\":8570:8575   */\n      dup2\n        /* \"#utility.yul\":8567:8599   */\n      eq\n        /* \"#utility.yul\":8557:8617   */\n      tag_257\n      jumpi\n        /* \"#utility.yul\":8613:8614   */\n      0x00\n        /* \"#utility.yul\":8610:8611   */\n      dup1\n        /* \"#utility.yul\":8603:8615   */\n      revert\n        /* \"#utility.yul\":8557:8617   */\n    tag_257:\n        /* \"#utility.yul\":8507:8623   */\n      pop\n      jump\t// out\n        /* \"#utility.yul\":8629:8766   */\n    tag_162:\n        /* \"#utility.yul\":8683:8688   */\n      0x00\n        /* \"#utility.yul\":8714:8720   */\n      dup2\n        /* \"#utility.yul\":8708:8721   */\n      mload\n        /* \"#utility.yul\":8699:8721   */\n      swap1\n      pop\n        /* \"#utility.yul\":8730:8760   */\n      tag_259\n        /* \"#utility.yul\":8754:8759   */\n      dup2\n        /* \"#utility.yul\":8730:8760   */\n      tag_161\n      jump\t// in\n    tag_259:\n        /* \"#utility.yul\":8629:8766   */\n      swap3\n      swap2\n      pop\n      pop\n      jump\t// out\n        /* \"#utility.yul\":8772:9117   */\n    tag_83:\n        /* \"#utility.yul\":8839:8845   */\n      0x00\n        /* \"#utility.yul\":8888:8890   */\n      0x20\n        /* \"#utility.yul\":8876:8885   */\n      dup3\n        /* \"#utility.yul\":8867:8874   */\n      dup5\n        /* \"#utility.yul\":8863:8886   */\n      sub\n        /* \"#utility.yul\":8859:8891   */\n      slt\n        /* \"#utility.yul\":8856:8975   */\n      iszero\n      tag_261\n      jumpi\n        /* \"#utility.yul\":8894:8973   */\n      tag_262\n      tag_143\n      jump\t// in\n    tag_262:\n        /* \"#utility.yul\":8856:8975   */\n    tag_261:\n        /* \"#utility.yul\":9014:9015   */\n      0x00\n        /* \"#utility.yul\":9039:9100   */\n      tag_263\n        /* \"#utility.yul\":9092:9099   */\n      dup5\n        /* \"#utility.yul\":9083:9089   */\n      dup3\n        /* \"#utility.yul\":9072:9081   */\n      dup6\n        /* \"#utility.yul\":9068:9090   */\n      add\n        /* \"#utility.yul\":9039:9100   */\n      tag_162\n      jump\t// in\n    tag_263:\n        /* \"#utility.yul\":9029:9100   */\n      swap2\n      pop\n        /* \"#utility.yul\":8985:9110   */\n      pop\n        /* \"#utility.yul\":8772:9117   */\n      swap3\n      swap2\n      pop\n      pop\n      jump\t// out\n        /* \"#utility.yul\":9123:9270   */\n    tag_163:\n        /* \"#utility.yul\":9224:9235   */\n      0x00\n        /* \"#utility.yul\":9261:9264   */\n      dup2\n        /* \"#utility.yul\":9246:9264   */\n      swap1\n      pop\n        /* \"#utility.yul\":9123:9270   */\n      swap3\n      swap2\n      pop\n      pop\n      jump\t// out\n        /* \"#utility.yul\":9276:9390   */\n    tag_164:\n      pop\n      jump\t// out\n        /* \"#utility.yul\":9396:9794   */\n    tag_165:\n        /* \"#utility.yul\":9555:9558   */\n      0x00\n        /* \"#utility.yul\":9576:9659   */\n      tag_267\n        /* \"#utility.yul\":9657:9658   */\n      0x00\n        /* \"#utility.yul\":9652:9655   */\n      dup4\n        /* \"#utility.yul\":9576:9659   */\n      tag_163\n      jump\t// in\n    tag_267:\n        /* \"#utility.yul\":9569:9659   */\n      swap2\n      pop\n        /* \"#utility.yul\":9668:9761   */\n      tag_268\n        /* \"#utility.yul\":9757:9760   */\n      dup3\n        /* \"#utility.yul\":9668:9761   */\n      tag_164\n      jump\t// in\n    tag_268:\n        /* \"#utility.yul\":9786:9787   */\n      0x00\n        /* \"#utility.yul\":9781:9784   */\n      dup3\n        /* \"#utility.yul\":9777:9788   */\n      add\n        /* \"#utility.yul\":9770:9788   */\n      swap1\n      pop\n        /* \"#utility.yul\":9396:9794   */\n      swap2\n      swap1\n      pop\n      jump\t// out\n        /* \"#utility.yul\":9800:10179   */\n    tag_85:\n        /* \"#utility.yul\":9984:9987   */\n      0x00\n        /* \"#utility.yul\":10006:10153   */\n      tag_270\n        /* \"#utility.yul\":10149:10152   */\n      dup3\n        /* \"#utility.yul\":10006:10153   */\n      tag_165\n      jump\t// in\n    tag_270:\n        /* \"#utility.yul\":9999:10153   */\n      swap2\n      pop\n        /* \"#utility.yul\":10170:10173   */\n      dup2\n        /* \"#utility.yul\":10163:10173   */\n      swap1\n      pop\n        /* \"#utility.yul\":9800:10179   */\n      swap2\n      swap1\n      pop\n      jump\t// out\n        /* \"#utility.yul\":10185:10417   */\n    tag_166:\n        /* \"#utility.yul\":10325:10359   */\n      0x4661696c656420746f2073656e6420757365722062616c616e6365206261636b\n        /* \"#utility.yul\":10321:10322   */\n      0x00\n        /* \"#utility.yul\":10313:10319   */\n      dup3\n        /* \"#utility.yul\":10309:10323   */\n      add\n        /* \"#utility.yul\":10302:10360   */\n      mstore\n        /* \"#utility.yul\":10394:10409   */\n      0x20746f20746865206f776e657200000000000000000000000000000000000000\n        /* \"#utility.yul\":10389:10391   */\n      0x20\n        /* \"#utility.yul\":10381:10387   */\n      dup3\n        /* \"#utility.yul\":10377:10392   */\n      add\n        /* \"#utility.yul\":10370:10410   */\n      mstore\n        /* \"#utility.yul\":10185:10417   */\n      pop\n      jump\t// out\n        /* \"#utility.yul\":10423:10789   */\n    tag_167:\n        /* \"#utility.yul\":10565:10568   */\n      0x00\n        /* \"#utility.yul\":10586:10653   */\n      tag_273\n        /* \"#utility.yul\":10650:10652   */\n      0x2d\n        /* \"#utility.yul\":10645:10648   */\n      dup4\n        /* \"#utility.yul\":10586:10653   */\n      tag_137\n      jump\t// in\n    tag_273:\n        /* \"#utility.yul\":10579:10653   */\n      swap2\n      pop\n        /* \"#utility.yul\":10662:10755   */\n      tag_274\n        /* \"#utility.yul\":10751:10754   */\n      dup3\n        /* \"#utility.yul\":10662:10755   */\n      tag_166\n      jump\t// in\n    tag_274:\n        /* \"#utility.yul\":10780:10782   */\n      0x40\n        /* \"#utility.yul\":10775:10778   */\n      dup3\n        /* \"#utility.yul\":10771:10783   */\n      add\n        /* \"#utility.yul\":10764:10783   */\n      swap1\n      pop\n        /* \"#utility.yul\":10423:10789   */\n      swap2\n      swap1\n      pop\n      jump\t// out\n        /* \"#utility.yul\":10795:11214   */\n    tag_91:\n        /* \"#utility.yul\":10961:10965   */\n      0x00\n        /* \"#utility.yul\":10999:11001   */\n      0x20\n        /* \"#utility.yul\":10988:10997   */\n      dup3\n        /* \"#utility.yul\":10984:11002   */\n      add\n        /* \"#utility.yul\":10976:11002   */\n      swap1\n      pop\n        /* \"#utility.yul\":11048:11057   */\n      dup2\n        /* \"#utility.yul\":11042:11046   */\n      dup2\n        /* \"#utility.yul\":11038:11058   */\n      sub\n        /* \"#utility.yul\":11034:11035   */\n      0x00\n        /* \"#utility.yul\":11023:11032   */\n      dup4\n        /* \"#utility.yul\":11019:11036   */\n      add\n        /* \"#utility.yul\":11012:11059   */\n      mstore\n        /* \"#utility.yul\":11076:11207   */\n      tag_276\n        /* \"#utility.yul\":11202:11206   */\n      dup2\n        /* \"#utility.yul\":11076:11207   */\n      tag_167\n      jump\t// in\n    tag_276:\n        /* \"#utility.yul\":11068:11207   */\n      swap1\n      pop\n        /* \"#utility.yul\":10795:11214   */\n      swap2\n      swap1\n      pop\n      jump\t// out\n        /* \"#utility.yul\":11220:11363   */\n    tag_168:\n        /* \"#utility.yul\":11277:11282   */\n      0x00\n        /* \"#utility.yul\":11308:11314   */\n      dup2\n        /* \"#utility.yul\":11302:11315   */\n      mload\n        /* \"#utility.yul\":11293:11315   */\n      swap1\n      pop\n        /* \"#utility.yul\":11324:11357   */\n      tag_278\n        /* \"#utility.yul\":11351:11356   */\n      dup2\n        /* \"#utility.yul\":11324:11357   */\n      tag_145\n      jump\t// in\n    tag_278:\n        /* \"#utility.yul\":11220:11363   */\n      swap3\n      swap2\n      pop\n      pop\n      jump\t// out\n        /* \"#utility.yul\":11369:11720   */\n    tag_99:\n        /* \"#utility.yul\":11439:11445   */\n      0x00\n        /* \"#utility.yul\":11488:11490   */\n      0x20\n        /* \"#utility.yul\":11476:11485   */\n      dup3\n        /* \"#utility.yul\":11467:11474   */\n      dup5\n        /* \"#utility.yul\":11463:11486   */\n      sub\n        /* \"#utility.yul\":11459:11491   */\n      slt\n        /* \"#utility.yul\":11456:11575   */\n      iszero\n      tag_280\n      jumpi\n        /* \"#utility.yul\":11494:11573   */\n      tag_281\n      tag_143\n      jump\t// in\n    tag_281:\n        /* \"#utility.yul\":11456:11575   */\n    tag_280:\n        /* \"#utility.yul\":11614:11615   */\n      0x00\n        /* \"#utility.yul\":11639:11703   */\n      tag_282\n        /* \"#utility.yul\":11695:11702   */\n      dup5\n        /* \"#utility.yul\":11686:11692   */\n      dup3\n        /* \"#utility.yul\":11675:11684   */\n      dup6\n        /* \"#utility.yul\":11671:11693   */\n      add\n        /* \"#utility.yul\":11639:11703   */\n      tag_168\n      jump\t// in\n    tag_282:\n        /* \"#utility.yul\":11629:11703   */\n      swap2\n      pop\n        /* \"#utility.yul\":11585:11713   */\n      pop\n        /* \"#utility.yul\":11369:11720   */\n      swap3\n      swap2\n      pop\n      pop\n      jump\t// out\n        /* \"#utility.yul\":11726:11897   */\n    tag_169:\n        /* \"#utility.yul\":11866:11889   */\n      0x6d73672e76616c7565203c20302e312065746865720000000000000000000000\n        /* \"#utility.yul\":11862:11863   */\n      0x00\n        /* \"#utility.yul\":11854:11860   */\n      dup3\n        /* \"#utility.yul\":11850:11864   */\n      add\n        /* \"#utility.yul\":11843:11890   */\n      mstore\n        /* \"#utility.yul\":11726:11897   */\n      pop\n      jump\t// out\n        /* \"#utility.yul\":11903:12269   */\n    tag_170:\n        /* \"#utility.yul\":12045:12048   */\n      0x00\n        /* \"#utility.yul\":12066:12133   */\n      tag_285\n        /* \"#utility.yul\":12130:12132   */\n      0x15\n        /* \"#utility.yul\":12125:12128   */\n      dup4\n        /* \"#utility.yul\":12066:12133   */\n      tag_137\n      jump\t// in\n    tag_285:\n        /* \"#utility.yul\":12059:12133   */\n      swap2\n      pop\n        /* \"#utility.yul\":12142:12235   */\n      tag_286\n        /* \"#utility.yul\":12231:12234   */\n      dup3\n        /* \"#utility.yul\":12142:12235   */\n      tag_169\n      jump\t// in\n    tag_286:\n        /* \"#utility.yul\":12260:12262   */\n      0x20\n        /* \"#utility.yul\":12255:12258   */\n      dup3\n        /* \"#utility.yul\":12251:12263   */\n      add\n        /* \"#utility.yul\":12244:12263   */\n      swap1\n      pop\n        /* \"#utility.yul\":11903:12269   */\n      swap2\n      swap1\n      pop\n      jump\t// out\n        /* \"#utility.yul\":12275:12694   */\n    tag_103:\n        /* \"#utility.yul\":12441:12445   */\n      0x00\n        /* \"#utility.yul\":12479:12481   */\n      0x20\n        /* \"#utility.yul\":12468:12477   */\n      dup3\n        /* \"#utility.yul\":12464:12482   */\n      add\n        /* \"#utility.yul\":12456:12482   */\n      swap1\n      pop\n        /* \"#utility.yul\":12528:12537   */\n      dup2\n        /* \"#utility.yul\":12522:12526   */\n      dup2\n        /* \"#utility.yul\":12518:12538   */\n      sub\n        /* \"#utility.yul\":12514:12515   */\n      0x00\n        /* \"#utility.yul\":12503:12512   */\n      dup4\n        /* \"#utility.yul\":12499:12516   */\n      add\n        /* \"#utility.yul\":12492:12539   */\n      mstore\n        /* \"#utility.yul\":12556:12687   */\n      tag_288\n        /* \"#utility.yul\":12682:12686   */\n      dup2\n        /* \"#utility.yul\":12556:12687   */\n      tag_170\n      jump\t// in\n    tag_288:\n        /* \"#utility.yul\":12548:12687   */\n      swap1\n      pop\n        /* \"#utility.yul\":12275:12694   */\n      swap2\n      swap1\n      pop\n      jump\t// out\n        /* \"#utility.yul\":12700:13032   */\n    tag_106:\n        /* \"#utility.yul\":12821:12825   */\n      0x00\n        /* \"#utility.yul\":12859:12861   */\n      0x40\n        /* \"#utility.yul\":12848:12857   */\n      dup3\n        /* \"#utility.yul\":12844:12862   */\n      add\n        /* \"#utility.yul\":12836:12862   */\n      swap1\n      pop\n        /* \"#utility.yul\":12872:12943   */\n      tag_290\n        /* \"#utility.yul\":12940:12941   */\n      0x00\n        /* \"#utility.yul\":12929:12938   */\n      dup4\n        /* \"#utility.yul\":12925:12942   */\n      add\n        /* \"#utility.yul\":12916:12922   */\n      dup6\n        /* \"#utility.yul\":12872:12943   */\n      tag_151\n      jump\t// in\n    tag_290:\n        /* \"#utility.yul\":12953:13025   */\n      tag_291\n        /* \"#utility.yul\":13021:13023   */\n      0x20\n        /* \"#utility.yul\":13010:13019   */\n      dup4\n        /* \"#utility.yul\":13006:13024   */\n      add\n        /* \"#utility.yul\":12997:13003   */\n      dup5\n        /* \"#utility.yul\":12953:13025   */\n      tag_141\n      jump\t// in\n    tag_291:\n        /* \"#utility.yul\":12700:13032   */\n      swap4\n      swap3\n      pop\n      pop\n      pop\n      jump\t// out\n        /* \"#utility.yul\":13038:13117   */\n    tag_171:\n        /* \"#utility.yul\":13077:13084   */\n      0x00\n        /* \"#utility.yul\":13106:13111   */\n      dup2\n        /* \"#utility.yul\":13095:13111   */\n      swap1\n      pop\n        /* \"#utility.yul\":13038:13117   */\n      swap2\n      swap1\n      pop\n      jump\t// out\n        /* \"#utility.yul\":13123:13280   */\n    tag_172:\n        /* \"#utility.yul\":13228:13273   */\n      tag_294\n        /* \"#utility.yul\":13248:13272   */\n      tag_295\n        /* \"#utility.yul\":13266:13271   */\n      dup3\n        /* \"#utility.yul\":13248:13272   */\n      tag_140\n      jump\t// in\n    tag_295:\n        /* \"#utility.yul\":13228:13273   */\n      tag_171\n      jump\t// in\n    tag_294:\n        /* \"#utility.yul\":13223:13226   */\n      dup3\n        /* \"#utility.yul\":13216:13274   */\n      mstore\n        /* \"#utility.yul\":13123:13280   */\n      pop\n      pop\n      jump\t// out\n        /* \"#utility.yul\":13286:13824   */\n    tag_114:\n        /* \"#utility.yul\":13454:13457   */\n      0x00\n        /* \"#utility.yul\":13469:13544   */\n      tag_297\n        /* \"#utility.yul\":13540:13543   */\n      dup3\n        /* \"#utility.yul\":13531:13537   */\n      dup7\n        /* \"#utility.yul\":13469:13544   */\n      tag_172\n      jump\t// in\n    tag_297:\n        /* \"#utility.yul\":13569:13571   */\n      0x20\n        /* \"#utility.yul\":13564:13567   */\n      dup3\n        /* \"#utility.yul\":13560:13572   */\n      add\n        /* \"#utility.yul\":13553:13572   */\n      swap2\n      pop\n        /* \"#utility.yul\":13582:13657   */\n      tag_298\n        /* \"#utility.yul\":13653:13656   */\n      dup3\n        /* \"#utility.yul\":13644:13650   */\n      dup6\n        /* \"#utility.yul\":13582:13657   */\n      tag_172\n      jump\t// in\n    tag_298:\n        /* \"#utility.yul\":13682:13684   */\n      0x20\n        /* \"#utility.yul\":13677:13680   */\n      dup3\n        /* \"#utility.yul\":13673:13685   */\n      add\n        /* \"#utility.yul\":13666:13685   */\n      swap2\n      pop\n        /* \"#utility.yul\":13695:13770   */\n      tag_299\n        /* \"#utility.yul\":13766:13769   */\n      dup3\n        /* \"#utility.yul\":13757:13763   */\n      dup5\n        /* \"#utility.yul\":13695:13770   */\n      tag_172\n      jump\t// in\n    tag_299:\n        /* \"#utility.yul\":13795:13797   */\n      0x20\n        /* \"#utility.yul\":13790:13793   */\n      dup3\n        /* \"#utility.yul\":13786:13798   */\n      add\n        /* \"#utility.yul\":13779:13798   */\n      swap2\n      pop\n        /* \"#utility.yul\":13815:13818   */\n      dup2\n        /* \"#utility.yul\":13808:13818   */\n      swap1\n      pop\n        /* \"#utility.yul\":13286:13824   */\n      swap5\n      swap4\n      pop\n      pop\n      pop\n      pop\n      jump\t// out\n        /* \"#utility.yul\":13830:14010   */\n    tag_118:\n        /* \"#utility.yul\":13878:13955   */\n      0x4e487b7100000000000000000000000000000000000000000000000000000000\n        /* \"#utility.yul\":13875:13876   */\n      0x00\n        /* \"#utility.yul\":13868:13956   */\n      mstore\n        /* \"#utility.yul\":13975:13979   */\n      0x41\n        /* \"#utility.yul\":13972:13973   */\n      0x04\n        /* \"#utility.yul\":13965:13980   */\n      mstore\n        /* \"#utility.yul\":13999:14003   */\n      0x24\n        /* \"#utility.yul\":13996:13997   */\n      0x00\n        /* \"#utility.yul\":13989:14004   */\n      revert\n        /* \"#utility.yul\":14016:14252   */\n    tag_173:\n        /* \"#utility.yul\":14156:14190   */\n      0x4661696c656420746f2073656e6420757365722062616c616e6365206261636b\n        /* \"#utility.yul\":14152:14153   */\n      0x00\n        /* \"#utility.yul\":14144:14150   */\n      dup3\n        /* \"#utility.yul\":14140:14154   */\n      add\n        /* \"#utility.yul\":14133:14191   */\n      mstore\n        /* \"#utility.yul\":14225:14244   */\n      0x20746f207468652061646d696e20666565000000000000000000000000000000\n        /* \"#utility.yul\":14220:14222   */\n      0x20\n        /* \"#utility.yul\":14212:14218   */\n      dup3\n        /* \"#utility.yul\":14208:14223   */\n      add\n        /* \"#utility.yul\":14201:14245   */\n      mstore\n        /* \"#utility.yul\":14016:14252   */\n      pop\n      jump\t// out\n        /* \"#utility.yul\":14258:14624   */\n    tag_174:\n        /* \"#utility.yul\":14400:14403   */\n      0x00\n        /* \"#utility.yul\":14421:14488   */\n      tag_303\n        /* \"#utility.yul\":14485:14487   */\n      0x31\n        /* \"#utility.yul\":14480:14483   */\n      dup4\n        /* \"#utility.yul\":14421:14488   */\n      tag_137\n      jump\t// in\n    tag_303:\n        /* \"#utility.yul\":14414:14488   */\n      swap2\n      pop\n        /* \"#utility.yul\":14497:14590   */\n      tag_304\n        /* \"#utility.yul\":14586:14589   */\n      dup3\n        /* \"#utility.yul\":14497:14590   */\n      tag_173\n      jump\t// in\n    tag_304:\n        /* \"#utility.yul\":14615:14617   */\n      0x40\n        /* \"#utility.yul\":14610:14613   */\n      dup3\n        /* \"#utility.yul\":14606:14618   */\n      add\n        /* \"#utility.yul\":14599:14618   */\n      swap1\n      pop\n        /* \"#utility.yul\":14258:14624   */\n      swap2\n      swap1\n      pop\n      jump\t// out\n        /* \"#utility.yul\":14630:15049   */\n    tag_129:\n        /* \"#utility.yul\":14796:14800   */\n      0x00\n        /* \"#utility.yul\":14834:14836   */\n      0x20\n        /* \"#utility.yul\":14823:14832   */\n      dup3\n        /* \"#utility.yul\":14819:14837   */\n      add\n        /* \"#utility.yul\":14811:14837   */\n      swap1\n      pop\n        /* \"#utility.yul\":14883:14892   */\n      dup2\n        /* \"#utility.yul\":14877:14881   */\n      dup2\n        /* \"#utility.yul\":14873:14893   */\n      sub\n        /* \"#utility.yul\":14869:14870   */\n      0x00\n        /* \"#utility.yul\":14858:14867   */\n      dup4\n        /* \"#utility.yul\":14854:14871   */\n      add\n        /* \"#utility.yul\":14847:14894   */\n      mstore\n        /* \"#utility.yul\":14911:15042   */\n      tag_306\n        /* \"#utility.yul\":15037:15041   */\n      dup2\n        /* \"#utility.yul\":14911:15042   */\n      tag_174\n      jump\t// in\n    tag_306:\n        /* \"#utility.yul\":14903:15042   */\n      swap1\n      pop\n        /* \"#utility.yul\":14630:15049   */\n      swap2\n      swap1\n      pop\n      jump\t// out\n\n    auxdata: 0xa2646970667358221220a5f4f77ddbd58e75fc68ea4b6fc273b62a8f4be70309eb0a6da3d30efaefa26c64736f6c63430008110033\n}\n",
				"bytecode": {
					"linkReferences": {},
					"object": "6080604052600a60035534801561001557600080fd5b5033600260006101000a81548173ffffffffffffffffffffffffffffffffffffffff021916908373ffffffffffffffffffffffffffffffffffffffff160217905550611289806100666000396000f3fe6080604052600436106100745760003560e01c8063cbdd69b51161004e578063cbdd69b5146101f3578063e97dcb621461021e578063f71d96cb14610228578063f851a4401461026557610181565b806312065fe0146101865780635d495aea146101b15780637cdf7547146101c857610181565b366101815767016345785d8a000034146100c3576040517f08c379a00000000000000000000000000000000000000000000000000000000081526004016100ba90610b04565b60405180910390fd5b600260009054906101000a900473ffffffffffffffffffffffffffffffffffffffff1673ffffffffffffffffffffffffffffffffffffffff163373ffffffffffffffffffffffffffffffffffffffff160361011d57600080fd5b6001339080600181540180825580915050600190039060005260206000200160009091909190916101000a81548173ffffffffffffffffffffffffffffffffffffffff021916908373ffffffffffffffffffffffffffffffffffffffff1602179055005b600080fd5b34801561019257600080fd5b5061019b610290565b6040516101a89190610b3d565b60405180910390f35b3480156101bd57600080fd5b506101c6610328565b005b3480156101d457600080fd5b506101dd61062d565b6040516101ea9190610b3d565b60405180910390f35b3480156101ff57600080fd5b506102086106cf565b6040516102159190610b3d565b60405180910390f35b6102266106d5565b005b34801561023457600080fd5b5061024f600480360381019061024a9190610b89565b610829565b60405161025c9190610bf7565b60405180910390f35b34801561027157600080fd5b5061027a610868565b6040516102879190610c33565b60405180910390f35b60003373ffffffffffffffffffffffffffffffffffffffff16600260009054906101000a900473ffffffffffffffffffffffffffffffffffffffff1673ffffffffffffffffffffffffffffffffffffffff1614610322576040517f08c379a000000000000000000000000000000000000000000000000000000000815260040161031990610c9a565b60405180910390fd5b47905090565b3373ffffffffffffffffffffffffffffffffffffffff16600260009054906101000a900473ffffffffffffffffffffffffffffffffffffffff1673ffffffffffffffffffffffffffffffffffffffff16146103b8576040517f08c379a00000000000000000000000000000000000000000000000000000000081526004016103af90610c9a565b60405180910390fd5b60036001805490501015610401576040517f08c379a00000000000000000000000000000000000000000000000000000000081526004016103f890610d2c565b60405180910390fd5b60006001808054905061041261088e565b61041c9190610d7b565b8154811061042d5761042c610dac565b5b9060005260206000200160009054906101000a900473ffffffffffffffffffffffffffffffffffffffff16905060006064610466610290565b605a61047061062d565b61047a9190610e0a565b6104849190610e4c565b61048e9190610e4c565b9050600081116104d3576040517f08c379a00000000000000000000000000000000000000000000000000000000081526004016104ca90610ec9565b60405180910390fd5b60008054906101000a900473ffffffffffffffffffffffffffffffffffffffff1673ffffffffffffffffffffffffffffffffffffffff166323b872dd3330846040518463ffffffff1660e01b815260040161053093929190610ee9565b6020604051808303816000875af115801561054f573d6000803e3d6000fd5b505050506040513d601f19601f820116820180604052508101906105739190610f58565b5060008273ffffffffffffffffffffffffffffffffffffffff168260405161059a90610fb6565b60006040518083038185875af1925050503d80600081146105d7576040519150601f19603f3d011682016040523d82523d6000602084013e6105dc565b606091505b5050905080610620576040517f08c379a00000000000000000000000000000000000000000000000000000000081526004016106179061103d565b60405180910390fd5b6106286108c8565b505050565b60008060009054906101000a900473ffffffffffffffffffffffffffffffffffffffff1673ffffffffffffffffffffffffffffffffffffffff166370a08231336040518263ffffffff1660e01b81526004016106899190610c33565b602060405180830381865afa1580156106a6573d6000803e3d6000fd5b505050506040513d601f19601f820116820180604052508101906106ca9190611072565b905090565b60035481565b67016345785d8a0000341161071f576040517f08c379a0000000000000000000000000000000000000000000000000000000008152600401610716906110eb565b60405180910390fd5b60003490506001339080600181540180825580915050600190039060005260206000200160009091909190916101000a81548173ffffffffffffffffffffffffffffffffffffffff021916908373ffffffffffffffffffffffffffffffffffffffff16021790555060008054906101000a900473ffffffffffffffffffffffffffffffffffffffff1673ffffffffffffffffffffffffffffffffffffffff1663a9059cbb33836040518363ffffffff1660e01b81526004016107e292919061110b565b6020604051808303816000875af1158015610801573d6000803e3d6000fd5b505050506040513d601f19601f820116820180604052508101906108259190610f58565b5050565b6001818154811061083957600080fd5b906000526020600020016000915054906101000a900473ffffffffffffffffffffffffffffffffffffffff1681565b600260009054906101000a900473ffffffffffffffffffffffffffffffffffffffff1681565b600044426001805490506040516020016108aa93929190611155565b6040516020818303038152906040528051906020012060001c905090565b600067ffffffffffffffff8111156108e3576108e2611192565b5b6040519080825280602002602001820160405280156109115781602001602082028036833780820191505090505b5060019080519060200190610927929190610a00565b506000600260009054906101000a900473ffffffffffffffffffffffffffffffffffffffff1673ffffffffffffffffffffffffffffffffffffffff1661096b610290565b60405161097790610fb6565b60006040518083038185875af1925050503d80600081146109b4576040519150601f19603f3d011682016040523d82523d6000602084013e6109b9565b606091505b50509050806109fd576040517f08c379a00000000000000000000000000000000000000000000000000000000081526004016109f490611233565b60405180910390fd5b50565b828054828255906000526020600020908101928215610a79579160200282015b82811115610a785782518260006101000a81548173ffffffffffffffffffffffffffffffffffffffff021916908373ffffffffffffffffffffffffffffffffffffffff16021790555091602001919060010190610a20565b5b509050610a869190610a8a565b5090565b5b80821115610aa3576000816000905550600101610a8b565b5090565b600082825260208201905092915050565b7f4d7573742073656e6420302e3120657468657220616d6f756e74000000000000600082015250565b6000610aee601a83610aa7565b9150610af982610ab8565b602082019050919050565b60006020820190508181036000830152610b1d81610ae1565b9050919050565b6000819050919050565b610b3781610b24565b82525050565b6000602082019050610b526000830184610b2e565b92915050565b600080fd5b610b6681610b24565b8114610b7157600080fd5b50565b600081359050610b8381610b5d565b92915050565b600060208284031215610b9f57610b9e610b58565b5b6000610bad84828501610b74565b91505092915050565b600073ffffffffffffffffffffffffffffffffffffffff82169050919050565b6000610be182610bb6565b9050919050565b610bf181610bd6565b82525050565b6000602082019050610c0c6000830184610be8565b92915050565b6000610c1d82610bb6565b9050919050565b610c2d81610c12565b82525050565b6000602082019050610c486000830184610c24565b92915050565b7f596f7520617265206e6f7420746865206f776e65720000000000000000000000600082015250565b6000610c84601583610aa7565b9150610c8f82610c4e565b602082019050919050565b60006020820190508181036000830152610cb381610c77565b9050919050565b7f4e6f7420656e6f75676820706c617965727320696e20746865206c6f7474657260008201527f7900000000000000000000000000000000000000000000000000000000000000602082015250565b6000610d16602183610aa7565b9150610d2182610cba565b604082019050919050565b60006020820190508181036000830152610d4581610d09565b9050919050565b7f4e487b7100000000000000000000000000000000000000000000000000000000600052601260045260246000fd5b6000610d8682610b24565b9150610d9183610b24565b925082610da157610da0610d4c565b5b828206905092915050565b7f4e487b7100000000000000000000000000000000000000000000000000000000600052603260045260246000fd5b7f4e487b7100000000000000000000000000000000000000000000000000000000600052601160045260246000fd5b6000610e1582610b24565b9150610e2083610b24565b9250828202610e2e81610b24565b91508282048414831517610e4557610e44610ddb565b5b5092915050565b6000610e5782610b24565b9150610e6283610b24565b925082610e7257610e71610d4c565b5b828204905092915050565b7f4661696c656420746f2077696e6e657220616d6f756e74206973207a65726f00600082015250565b6000610eb3601f83610aa7565b9150610ebe82610e7d565b602082019050919050565b60006020820190508181036000830152610ee281610ea6565b9050919050565b6000606082019050610efe6000830186610c24565b610f0b6020830185610c24565b610f186040830184610b2e565b949350505050565b60008115159050919050565b610f3581610f20565b8114610f4057600080fd5b50565b600081519050610f5281610f2c565b92915050565b600060208284031215610f6e57610f6d610b58565b5b6000610f7c84828501610f43565b91505092915050565b600081905092915050565b50565b6000610fa0600083610f85565b9150610fab82610f90565b600082019050919050565b6000610fc182610f93565b9150819050919050565b7f4661696c656420746f2073656e6420757365722062616c616e6365206261636b60008201527f20746f20746865206f776e657200000000000000000000000000000000000000602082015250565b6000611027602d83610aa7565b915061103282610fcb565b604082019050919050565b600060208201905081810360008301526110568161101a565b9050919050565b60008151905061106c81610b5d565b92915050565b60006020828403121561108857611087610b58565b5b60006110968482850161105d565b91505092915050565b7f6d73672e76616c7565203c20302e312065746865720000000000000000000000600082015250565b60006110d5601583610aa7565b91506110e08261109f565b602082019050919050565b60006020820190508181036000830152611104816110c8565b9050919050565b60006040820190506111206000830185610c24565b61112d6020830184610b2e565b9392505050565b6000819050919050565b61114f61114a82610b24565b611134565b82525050565b6000611161828661113e565b602082019150611171828561113e565b602082019150611181828461113e565b602082019150819050949350505050565b7f4e487b7100000000000000000000000000000000000000000000000000000000600052604160045260246000fd5b7f4661696c656420746f2073656e6420757365722062616c616e6365206261636b60008201527f20746f207468652061646d696e20666565000000000000000000000000000000602082015250565b600061121d603183610aa7565b9150611228826111c1565b604082019050919050565b6000602082019050818103600083015261124c81611210565b905091905056fea2646970667358221220a5f4f77ddbd58e75fc68ea4b6fc273b62a8f4be70309eb0a6da3d30efaefa26c64736f6c63430008110033",
					"opcodes": "PUSH1 0x80 PUSH1 0x40 MSTORE PUSH1 0xA PUSH1 0x3 SSTORE CALLVALUE DUP1 ISZERO PUSH2 0x15 JUMPI PUSH1 0x0 DUP1 REVERT JUMPDEST POP CALLER PUSH1 0x2 PUSH1 0x0 PUSH2 0x100 EXP DUP2 SLOAD DUP2 PUSH20 0xFFFFFFFFFFFFFFFFFFFFFFFFFFFFFFFFFFFFFFFF MUL NOT AND SWAP1 DUP4 PUSH20 0xFFFFFFFFFFFFFFFFFFFFFFFFFFFFFFFFFFFFFFFF AND MUL OR SWAP1 SSTORE POP PUSH2 0x1289 DUP1 PUSH2 0x66 PUSH1 0x0 CODECOPY PUSH1 0x0 RETURN INVALID PUSH1 0x80 PUSH1 0x40 MSTORE PUSH1 0x4 CALLDATASIZE LT PUSH2 0x74 JUMPI PUSH1 0x0 CALLDATALOAD PUSH1 0xE0 SHR DUP1 PUSH4 0xCBDD69B5 GT PUSH2 0x4E JUMPI DUP1 PUSH4 0xCBDD69B5 EQ PUSH2 0x1F3 JUMPI DUP1 PUSH4 0xE97DCB62 EQ PUSH2 0x21E JUMPI DUP1 PUSH4 0xF71D96CB EQ PUSH2 0x228 JUMPI DUP1 PUSH4 0xF851A440 EQ PUSH2 0x265 JUMPI PUSH2 0x181 JUMP JUMPDEST DUP1 PUSH4 0x12065FE0 EQ PUSH2 0x186 JUMPI DUP1 PUSH4 0x5D495AEA EQ PUSH2 0x1B1 JUMPI DUP1 PUSH4 0x7CDF7547 EQ PUSH2 0x1C8 JUMPI PUSH2 0x181 JUMP JUMPDEST CALLDATASIZE PUSH2 0x181 JUMPI PUSH8 0x16345785D8A0000 CALLVALUE EQ PUSH2 0xC3 JUMPI PUSH1 0x40 MLOAD PUSH32 0x8C379A000000000000000000000000000000000000000000000000000000000 DUP2 MSTORE PUSH1 0x4 ADD PUSH2 0xBA SWAP1 PUSH2 0xB04 JUMP JUMPDEST PUSH1 0x40 MLOAD DUP1 SWAP2 SUB SWAP1 REVERT JUMPDEST PUSH1 0x2 PUSH1 0x0 SWAP1 SLOAD SWAP1 PUSH2 0x100 EXP SWAP1 DIV PUSH20 0xFFFFFFFFFFFFFFFFFFFFFFFFFFFFFFFFFFFFFFFF AND PUSH20 0xFFFFFFFFFFFFFFFFFFFFFFFFFFFFFFFFFFFFFFFF AND CALLER PUSH20 0xFFFFFFFFFFFFFFFFFFFFFFFFFFFFFFFFFFFFFFFF AND SUB PUSH2 0x11D JUMPI PUSH1 0x0 DUP1 REVERT JUMPDEST PUSH1 0x1 CALLER SWAP1 DUP1 PUSH1 0x1 DUP2 SLOAD ADD DUP1 DUP3 SSTORE DUP1 SWAP2 POP POP PUSH1 0x1 SWAP1 SUB SWAP1 PUSH1 0x0 MSTORE PUSH1 0x20 PUSH1 0x0 KECCAK256 ADD PUSH1 0x0 SWAP1 SWAP2 SWAP1 SWAP2 SWAP1 SWAP2 PUSH2 0x100 EXP DUP2 SLOAD DUP2 PUSH20 0xFFFFFFFFFFFFFFFFFFFFFFFFFFFFFFFFFFFFFFFF MUL NOT AND SWAP1 DUP4 PUSH20 0xFFFFFFFFFFFFFFFFFFFFFFFFFFFFFFFFFFFFFFFF AND MUL OR SWAP1 SSTORE STOP JUMPDEST PUSH1 0x0 DUP1 REVERT JUMPDEST CALLVALUE DUP1 ISZERO PUSH2 0x192 JUMPI PUSH1 0x0 DUP1 REVERT JUMPDEST POP PUSH2 0x19B PUSH2 0x290 JUMP JUMPDEST PUSH1 0x40 MLOAD PUSH2 0x1A8 SWAP2 SWAP1 PUSH2 0xB3D JUMP JUMPDEST PUSH1 0x40 MLOAD DUP1 SWAP2 SUB SWAP1 RETURN JUMPDEST CALLVALUE DUP1 ISZERO PUSH2 0x1BD JUMPI PUSH1 0x0 DUP1 REVERT JUMPDEST POP PUSH2 0x1C6 PUSH2 0x328 JUMP JUMPDEST STOP JUMPDEST CALLVALUE DUP1 ISZERO PUSH2 0x1D4 JUMPI PUSH1 0x0 DUP1 REVERT JUMPDEST POP PUSH2 0x1DD PUSH2 0x62D JUMP JUMPDEST PUSH1 0x40 MLOAD PUSH2 0x1EA SWAP2 SWAP1 PUSH2 0xB3D JUMP JUMPDEST PUSH1 0x40 MLOAD DUP1 SWAP2 SUB SWAP1 RETURN JUMPDEST CALLVALUE DUP1 ISZERO PUSH2 0x1FF JUMPI PUSH1 0x0 DUP1 REVERT JUMPDEST POP PUSH2 0x208 PUSH2 0x6CF JUMP JUMPDEST PUSH1 0x40 MLOAD PUSH2 0x215 SWAP2 SWAP1 PUSH2 0xB3D JUMP JUMPDEST PUSH1 0x40 MLOAD DUP1 SWAP2 SUB SWAP1 RETURN JUMPDEST PUSH2 0x226 PUSH2 0x6D5 JUMP JUMPDEST STOP JUMPDEST CALLVALUE DUP1 ISZERO PUSH2 0x234 JUMPI PUSH1 0x0 DUP1 REVERT JUMPDEST POP PUSH2 0x24F PUSH1 0x4 DUP1 CALLDATASIZE SUB DUP2 ADD SWAP1 PUSH2 0x24A SWAP2 SWAP1 PUSH2 0xB89 JUMP JUMPDEST PUSH2 0x829 JUMP JUMPDEST PUSH1 0x40 MLOAD PUSH2 0x25C SWAP2 SWAP1 PUSH2 0xBF7 JUMP JUMPDEST PUSH1 0x40 MLOAD DUP1 SWAP2 SUB SWAP1 RETURN JUMPDEST CALLVALUE DUP1 ISZERO PUSH2 0x271 JUMPI PUSH1 0x0 DUP1 REVERT JUMPDEST POP PUSH2 0x27A PUSH2 0x868 JUMP JUMPDEST PUSH1 0x40 MLOAD PUSH2 0x287 SWAP2 SWAP1 PUSH2 0xC33 JUMP JUMPDEST PUSH1 0x40 MLOAD DUP1 SWAP2 SUB SWAP1 RETURN JUMPDEST PUSH1 0x0 CALLER PUSH20 0xFFFFFFFFFFFFFFFFFFFFFFFFFFFFFFFFFFFFFFFF AND PUSH1 0x2 PUSH1 0x0 SWAP1 SLOAD SWAP1 PUSH2 0x100 EXP SWAP1 DIV PUSH20 0xFFFFFFFFFFFFFFFFFFFFFFFFFFFFFFFFFFFFFFFF AND PUSH20 0xFFFFFFFFFFFFFFFFFFFFFFFFFFFFFFFFFFFFFFFF AND EQ PUSH2 0x322 JUMPI PUSH1 0x40 MLOAD PUSH32 0x8C379A000000000000000000000000000000000000000000000000000000000 DUP2 MSTORE PUSH1 0x4 ADD PUSH2 0x319 SWAP1 PUSH2 0xC9A JUMP JUMPDEST PUSH1 0x40 MLOAD DUP1 SWAP2 SUB SWAP1 REVERT JUMPDEST SELFBALANCE SWAP1 POP SWAP1 JUMP JUMPDEST CALLER PUSH20 0xFFFFFFFFFFFFFFFFFFFFFFFFFFFFFFFFFFFFFFFF AND PUSH1 0x2 PUSH1 0x0 SWAP1 SLOAD SWAP1 PUSH2 0x100 EXP SWAP1 DIV PUSH20 0xFFFFFFFFFFFFFFFFFFFFFFFFFFFFFFFFFFFFFFFF AND PUSH20 0xFFFFFFFFFFFFFFFFFFFFFFFFFFFFFFFFFFFFFFFF AND EQ PUSH2 0x3B8 JUMPI PUSH1 0x40 MLOAD PUSH32 0x8C379A000000000000000000000000000000000000000000000000000000000 DUP2 MSTORE PUSH1 0x4 ADD PUSH2 0x3AF SWAP1 PUSH2 0xC9A JUMP JUMPDEST PUSH1 0x40 MLOAD DUP1 SWAP2 SUB SWAP1 REVERT JUMPDEST PUSH1 0x3 PUSH1 0x1 DUP1 SLOAD SWAP1 POP LT ISZERO PUSH2 0x401 JUMPI PUSH1 0x40 MLOAD PUSH32 0x8C379A000000000000000000000000000000000000000000000000000000000 DUP2 MSTORE PUSH1 0x4 ADD PUSH2 0x3F8 SWAP1 PUSH2 0xD2C JUMP JUMPDEST PUSH1 0x40 MLOAD DUP1 SWAP2 SUB SWAP1 REVERT JUMPDEST PUSH1 0x0 PUSH1 0x1 DUP1 DUP1 SLOAD SWAP1 POP PUSH2 0x412 PUSH2 0x88E JUMP JUMPDEST PUSH2 0x41C SWAP2 SWAP1 PUSH2 0xD7B JUMP JUMPDEST DUP2 SLOAD DUP2 LT PUSH2 0x42D JUMPI PUSH2 0x42C PUSH2 0xDAC JUMP JUMPDEST JUMPDEST SWAP1 PUSH1 0x0 MSTORE PUSH1 0x20 PUSH1 0x0 KECCAK256 ADD PUSH1 0x0 SWAP1 SLOAD SWAP1 PUSH2 0x100 EXP SWAP1 DIV PUSH20 0xFFFFFFFFFFFFFFFFFFFFFFFFFFFFFFFFFFFFFFFF AND SWAP1 POP PUSH1 0x0 PUSH1 0x64 PUSH2 0x466 PUSH2 0x290 JUMP JUMPDEST PUSH1 0x5A PUSH2 0x470 PUSH2 0x62D JUMP JUMPDEST PUSH2 0x47A SWAP2 SWAP1 PUSH2 0xE0A JUMP JUMPDEST PUSH2 0x484 SWAP2 SWAP1 PUSH2 0xE4C JUMP JUMPDEST PUSH2 0x48E SWAP2 SWAP1 PUSH2 0xE4C JUMP JUMPDEST SWAP1 POP PUSH1 0x0 DUP2 GT PUSH2 0x4D3 JUMPI PUSH1 0x40 MLOAD PUSH32 0x8C379A000000000000000000000000000000000000000000000000000000000 DUP2 MSTORE PUSH1 0x4 ADD PUSH2 0x4CA SWAP1 PUSH2 0xEC9 JUMP JUMPDEST PUSH1 0x40 MLOAD DUP1 SWAP2 SUB SWAP1 REVERT JUMPDEST PUSH1 0x0 DUP1 SLOAD SWAP1 PUSH2 0x100 EXP SWAP1 DIV PUSH20 0xFFFFFFFFFFFFFFFFFFFFFFFFFFFFFFFFFFFFFFFF AND PUSH20 0xFFFFFFFFFFFFFFFFFFFFFFFFFFFFFFFFFFFFFFFF AND PUSH4 0x23B872DD CALLER ADDRESS DUP5 PUSH1 0x40 MLOAD DUP5 PUSH4 0xFFFFFFFF AND PUSH1 0xE0 SHL DUP2 MSTORE PUSH1 0x4 ADD PUSH2 0x530 SWAP4 SWAP3 SWAP2 SWAP1 PUSH2 0xEE9 JUMP JUMPDEST PUSH1 0x20 PUSH1 0x40 MLOAD DUP1 DUP4 SUB DUP2 PUSH1 0x0 DUP8 GAS CALL ISZERO DUP1 ISZERO PUSH2 0x54F JUMPI RETURNDATASIZE PUSH1 0x0 DUP1 RETURNDATACOPY RETURNDATASIZE PUSH1 0x0 REVERT JUMPDEST POP POP POP POP PUSH1 0x40 MLOAD RETURNDATASIZE PUSH1 0x1F NOT PUSH1 0x1F DUP3 ADD AND DUP3 ADD DUP1 PUSH1 0x40 MSTORE POP DUP2 ADD SWAP1 PUSH2 0x573 SWAP2 SWAP1 PUSH2 0xF58 JUMP JUMPDEST POP PUSH1 0x0 DUP3 PUSH20 0xFFFFFFFFFFFFFFFFFFFFFFFFFFFFFFFFFFFFFFFF AND DUP3 PUSH1 0x40 MLOAD PUSH2 0x59A SWAP1 PUSH2 0xFB6 JUMP JUMPDEST PUSH1 0x0 PUSH1 0x40 MLOAD DUP1 DUP4 SUB DUP2 DUP6 DUP8 GAS CALL SWAP3 POP POP POP RETURNDATASIZE DUP1 PUSH1 0x0 DUP2 EQ PUSH2 0x5D7 JUMPI PUSH1 0x40 MLOAD SWAP2 POP PUSH1 0x1F NOT PUSH1 0x3F RETURNDATASIZE ADD AND DUP3 ADD PUSH1 0x40 MSTORE RETURNDATASIZE DUP3 MSTORE RETURNDATASIZE PUSH1 0x0 PUSH1 0x20 DUP5 ADD RETURNDATACOPY PUSH2 0x5DC JUMP JUMPDEST PUSH1 0x60 SWAP2 POP JUMPDEST POP POP SWAP1 POP DUP1 PUSH2 0x620 JUMPI PUSH1 0x40 MLOAD PUSH32 0x8C379A000000000000000000000000000000000000000000000000000000000 DUP2 MSTORE PUSH1 0x4 ADD PUSH2 0x617 SWAP1 PUSH2 0x103D JUMP JUMPDEST PUSH1 0x40 MLOAD DUP1 SWAP2 SUB SWAP1 REVERT JUMPDEST PUSH2 0x628 PUSH2 0x8C8 JUMP JUMPDEST POP POP POP JUMP JUMPDEST PUSH1 0x0 DUP1 PUSH1 0x0 SWAP1 SLOAD SWAP1 PUSH2 0x100 EXP SWAP1 DIV PUSH20 0xFFFFFFFFFFFFFFFFFFFFFFFFFFFFFFFFFFFFFFFF AND PUSH20 0xFFFFFFFFFFFFFFFFFFFFFFFFFFFFFFFFFFFFFFFF AND PUSH4 0x70A08231 CALLER PUSH1 0x40 MLOAD DUP3 PUSH4 0xFFFFFFFF AND PUSH1 0xE0 SHL DUP2 MSTORE PUSH1 0x4 ADD PUSH2 0x689 SWAP2 SWAP1 PUSH2 0xC33 JUMP JUMPDEST PUSH1 0x20 PUSH1 0x40 MLOAD DUP1 DUP4 SUB DUP2 DUP7 GAS STATICCALL ISZERO DUP1 ISZERO PUSH2 0x6A6 JUMPI RETURNDATASIZE PUSH1 0x0 DUP1 RETURNDATACOPY RETURNDATASIZE PUSH1 0x0 REVERT JUMPDEST POP POP POP POP PUSH1 0x40 MLOAD RETURNDATASIZE PUSH1 0x1F NOT PUSH1 0x1F DUP3 ADD AND DUP3 ADD DUP1 PUSH1 0x40 MSTORE POP DUP2 ADD SWAP1 PUSH2 0x6CA SWAP2 SWAP1 PUSH2 0x1072 JUMP JUMPDEST SWAP1 POP SWAP1 JUMP JUMPDEST PUSH1 0x3 SLOAD DUP2 JUMP JUMPDEST PUSH8 0x16345785D8A0000 CALLVALUE GT PUSH2 0x71F JUMPI PUSH1 0x40 MLOAD PUSH32 0x8C379A000000000000000000000000000000000000000000000000000000000 DUP2 MSTORE PUSH1 0x4 ADD PUSH2 0x716 SWAP1 PUSH2 0x10EB JUMP JUMPDEST PUSH1 0x40 MLOAD DUP1 SWAP2 SUB SWAP1 REVERT JUMPDEST PUSH1 0x0 CALLVALUE SWAP1 POP PUSH1 0x1 CALLER SWAP1 DUP1 PUSH1 0x1 DUP2 SLOAD ADD DUP1 DUP3 SSTORE DUP1 SWAP2 POP POP PUSH1 0x1 SWAP1 SUB SWAP1 PUSH1 0x0 MSTORE PUSH1 0x20 PUSH1 0x0 KECCAK256 ADD PUSH1 0x0 SWAP1 SWAP2 SWAP1 SWAP2 SWAP1 SWAP2 PUSH2 0x100 EXP DUP2 SLOAD DUP2 PUSH20 0xFFFFFFFFFFFFFFFFFFFFFFFFFFFFFFFFFFFFFFFF MUL NOT AND SWAP1 DUP4 PUSH20 0xFFFFFFFFFFFFFFFFFFFFFFFFFFFFFFFFFFFFFFFF AND MUL OR SWAP1 SSTORE POP PUSH1 0x0 DUP1 SLOAD SWAP1 PUSH2 0x100 EXP SWAP1 DIV PUSH20 0xFFFFFFFFFFFFFFFFFFFFFFFFFFFFFFFFFFFFFFFF AND PUSH20 0xFFFFFFFFFFFFFFFFFFFFFFFFFFFFFFFFFFFFFFFF AND PUSH4 0xA9059CBB CALLER DUP4 PUSH1 0x40 MLOAD DUP4 PUSH4 0xFFFFFFFF AND PUSH1 0xE0 SHL DUP2 MSTORE PUSH1 0x4 ADD PUSH2 0x7E2 SWAP3 SWAP2 SWAP1 PUSH2 0x110B JUMP JUMPDEST PUSH1 0x20 PUSH1 0x40 MLOAD DUP1 DUP4 SUB DUP2 PUSH1 0x0 DUP8 GAS CALL ISZERO DUP1 ISZERO PUSH2 0x801 JUMPI RETURNDATASIZE PUSH1 0x0 DUP1 RETURNDATACOPY RETURNDATASIZE PUSH1 0x0 REVERT JUMPDEST POP POP POP POP PUSH1 0x40 MLOAD RETURNDATASIZE PUSH1 0x1F NOT PUSH1 0x1F DUP3 ADD AND DUP3 ADD DUP1 PUSH1 0x40 MSTORE POP DUP2 ADD SWAP1 PUSH2 0x825 SWAP2 SWAP1 PUSH2 0xF58 JUMP JUMPDEST POP POP JUMP JUMPDEST PUSH1 0x1 DUP2 DUP2 SLOAD DUP2 LT PUSH2 0x839 JUMPI PUSH1 0x0 DUP1 REVERT JUMPDEST SWAP1 PUSH1 0x0 MSTORE PUSH1 0x20 PUSH1 0x0 KECCAK256 ADD PUSH1 0x0 SWAP2 POP SLOAD SWAP1 PUSH2 0x100 EXP SWAP1 DIV PUSH20 0xFFFFFFFFFFFFFFFFFFFFFFFFFFFFFFFFFFFFFFFF AND DUP2 JUMP JUMPDEST PUSH1 0x2 PUSH1 0x0 SWAP1 SLOAD SWAP1 PUSH2 0x100 EXP SWAP1 DIV PUSH20 0xFFFFFFFFFFFFFFFFFFFFFFFFFFFFFFFFFFFFFFFF AND DUP2 JUMP JUMPDEST PUSH1 0x0 DIFFICULTY TIMESTAMP PUSH1 0x1 DUP1 SLOAD SWAP1 POP PUSH1 0x40 MLOAD PUSH1 0x20 ADD PUSH2 0x8AA SWAP4 SWAP3 SWAP2 SWAP1 PUSH2 0x1155 JUMP JUMPDEST PUSH1 0x40 MLOAD PUSH1 0x20 DUP2 DUP4 SUB SUB DUP2 MSTORE SWAP1 PUSH1 0x40 MSTORE DUP1 MLOAD SWAP1 PUSH1 0x20 ADD KECCAK256 PUSH1 0x0 SHR SWAP1 POP SWAP1 JUMP JUMPDEST PUSH1 0x0 PUSH8 0xFFFFFFFFFFFFFFFF DUP2 GT ISZERO PUSH2 0x8E3 JUMPI PUSH2 0x8E2 PUSH2 0x1192 JUMP JUMPDEST JUMPDEST PUSH1 0x40 MLOAD SWAP1 DUP1 DUP3 MSTORE DUP1 PUSH1 0x20 MUL PUSH1 0x20 ADD DUP3 ADD PUSH1 0x40 MSTORE DUP1 ISZERO PUSH2 0x911 JUMPI DUP2 PUSH1 0x20 ADD PUSH1 0x20 DUP3 MUL DUP1 CALLDATASIZE DUP4 CALLDATACOPY DUP1 DUP3 ADD SWAP2 POP POP SWAP1 POP JUMPDEST POP PUSH1 0x1 SWAP1 DUP1 MLOAD SWAP1 PUSH1 0x20 ADD SWAP1 PUSH2 0x927 SWAP3 SWAP2 SWAP1 PUSH2 0xA00 JUMP JUMPDEST POP PUSH1 0x0 PUSH1 0x2 PUSH1 0x0 SWAP1 SLOAD SWAP1 PUSH2 0x100 EXP SWAP1 DIV PUSH20 0xFFFFFFFFFFFFFFFFFFFFFFFFFFFFFFFFFFFFFFFF AND PUSH20 0xFFFFFFFFFFFFFFFFFFFFFFFFFFFFFFFFFFFFFFFF AND PUSH2 0x96B PUSH2 0x290 JUMP JUMPDEST PUSH1 0x40 MLOAD PUSH2 0x977 SWAP1 PUSH2 0xFB6 JUMP JUMPDEST PUSH1 0x0 PUSH1 0x40 MLOAD DUP1 DUP4 SUB DUP2 DUP6 DUP8 GAS CALL SWAP3 POP POP POP RETURNDATASIZE DUP1 PUSH1 0x0 DUP2 EQ PUSH2 0x9B4 JUMPI PUSH1 0x40 MLOAD SWAP2 POP PUSH1 0x1F NOT PUSH1 0x3F RETURNDATASIZE ADD AND DUP3 ADD PUSH1 0x40 MSTORE RETURNDATASIZE DUP3 MSTORE RETURNDATASIZE PUSH1 0x0 PUSH1 0x20 DUP5 ADD RETURNDATACOPY PUSH2 0x9B9 JUMP JUMPDEST PUSH1 0x60 SWAP2 POP JUMPDEST POP POP SWAP1 POP DUP1 PUSH2 0x9FD JUMPI PUSH1 0x40 MLOAD PUSH32 0x8C379A000000000000000000000000000000000000000000000000000000000 DUP2 MSTORE PUSH1 0x4 ADD PUSH2 0x9F4 SWAP1 PUSH2 0x1233 JUMP JUMPDEST PUSH1 0x40 MLOAD DUP1 SWAP2 SUB SWAP1 REVERT JUMPDEST POP JUMP JUMPDEST DUP3 DUP1 SLOAD DUP3 DUP3 SSTORE SWAP1 PUSH1 0x0 MSTORE PUSH1 0x20 PUSH1 0x0 KECCAK256 SWAP1 DUP2 ADD SWAP3 DUP3 ISZERO PUSH2 0xA79 JUMPI SWAP2 PUSH1 0x20 MUL DUP3 ADD JUMPDEST DUP3 DUP2 GT ISZERO PUSH2 0xA78 JUMPI DUP3 MLOAD DUP3 PUSH1 0x0 PUSH2 0x100 EXP DUP2 SLOAD DUP2 PUSH20 0xFFFFFFFFFFFFFFFFFFFFFFFFFFFFFFFFFFFFFFFF MUL NOT AND SWAP1 DUP4 PUSH20 0xFFFFFFFFFFFFFFFFFFFFFFFFFFFFFFFFFFFFFFFF AND MUL OR SWAP1 SSTORE POP SWAP2 PUSH1 0x20 ADD SWAP2 SWAP1 PUSH1 0x1 ADD SWAP1 PUSH2 0xA20 JUMP JUMPDEST JUMPDEST POP SWAP1 POP PUSH2 0xA86 SWAP2 SWAP1 PUSH2 0xA8A JUMP JUMPDEST POP SWAP1 JUMP JUMPDEST JUMPDEST DUP1 DUP3 GT ISZERO PUSH2 0xAA3 JUMPI PUSH1 0x0 DUP2 PUSH1 0x0 SWAP1 SSTORE POP PUSH1 0x1 ADD PUSH2 0xA8B JUMP JUMPDEST POP SWAP1 JUMP JUMPDEST PUSH1 0x0 DUP3 DUP3 MSTORE PUSH1 0x20 DUP3 ADD SWAP1 POP SWAP3 SWAP2 POP POP JUMP JUMPDEST PUSH32 0x4D7573742073656E6420302E3120657468657220616D6F756E74000000000000 PUSH1 0x0 DUP3 ADD MSTORE POP JUMP JUMPDEST PUSH1 0x0 PUSH2 0xAEE PUSH1 0x1A DUP4 PUSH2 0xAA7 JUMP JUMPDEST SWAP2 POP PUSH2 0xAF9 DUP3 PUSH2 0xAB8 JUMP JUMPDEST PUSH1 0x20 DUP3 ADD SWAP1 POP SWAP2 SWAP1 POP JUMP JUMPDEST PUSH1 0x0 PUSH1 0x20 DUP3 ADD SWAP1 POP DUP2 DUP2 SUB PUSH1 0x0 DUP4 ADD MSTORE PUSH2 0xB1D DUP2 PUSH2 0xAE1 JUMP JUMPDEST SWAP1 POP SWAP2 SWAP1 POP JUMP JUMPDEST PUSH1 0x0 DUP2 SWAP1 POP SWAP2 SWAP1 POP JUMP JUMPDEST PUSH2 0xB37 DUP2 PUSH2 0xB24 JUMP JUMPDEST DUP3 MSTORE POP POP JUMP JUMPDEST PUSH1 0x0 PUSH1 0x20 DUP3 ADD SWAP1 POP PUSH2 0xB52 PUSH1 0x0 DUP4 ADD DUP5 PUSH2 0xB2E JUMP JUMPDEST SWAP3 SWAP2 POP POP JUMP JUMPDEST PUSH1 0x0 DUP1 REVERT JUMPDEST PUSH2 0xB66 DUP2 PUSH2 0xB24 JUMP JUMPDEST DUP2 EQ PUSH2 0xB71 JUMPI PUSH1 0x0 DUP1 REVERT JUMPDEST POP JUMP JUMPDEST PUSH1 0x0 DUP2 CALLDATALOAD SWAP1 POP PUSH2 0xB83 DUP2 PUSH2 0xB5D JUMP JUMPDEST SWAP3 SWAP2 POP POP JUMP JUMPDEST PUSH1 0x0 PUSH1 0x20 DUP3 DUP5 SUB SLT ISZERO PUSH2 0xB9F JUMPI PUSH2 0xB9E PUSH2 0xB58 JUMP JUMPDEST JUMPDEST PUSH1 0x0 PUSH2 0xBAD DUP5 DUP3 DUP6 ADD PUSH2 0xB74 JUMP JUMPDEST SWAP2 POP POP SWAP3 SWAP2 POP POP JUMP JUMPDEST PUSH1 0x0 PUSH20 0xFFFFFFFFFFFFFFFFFFFFFFFFFFFFFFFFFFFFFFFF DUP3 AND SWAP1 POP SWAP2 SWAP1 POP JUMP JUMPDEST PUSH1 0x0 PUSH2 0xBE1 DUP3 PUSH2 0xBB6 JUMP JUMPDEST SWAP1 POP SWAP2 SWAP1 POP JUMP JUMPDEST PUSH2 0xBF1 DUP2 PUSH2 0xBD6 JUMP JUMPDEST DUP3 MSTORE POP POP JUMP JUMPDEST PUSH1 0x0 PUSH1 0x20 DUP3 ADD SWAP1 POP PUSH2 0xC0C PUSH1 0x0 DUP4 ADD DUP5 PUSH2 0xBE8 JUMP JUMPDEST SWAP3 SWAP2 POP POP JUMP JUMPDEST PUSH1 0x0 PUSH2 0xC1D DUP3 PUSH2 0xBB6 JUMP JUMPDEST SWAP1 POP SWAP2 SWAP1 POP JUMP JUMPDEST PUSH2 0xC2D DUP2 PUSH2 0xC12 JUMP JUMPDEST DUP3 MSTORE POP POP JUMP JUMPDEST PUSH1 0x0 PUSH1 0x20 DUP3 ADD SWAP1 POP PUSH2 0xC48 PUSH1 0x0 DUP4 ADD DUP5 PUSH2 0xC24 JUMP JUMPDEST SWAP3 SWAP2 POP POP JUMP JUMPDEST PUSH32 0x596F7520617265206E6F7420746865206F776E65720000000000000000000000 PUSH1 0x0 DUP3 ADD MSTORE POP JUMP JUMPDEST PUSH1 0x0 PUSH2 0xC84 PUSH1 0x15 DUP4 PUSH2 0xAA7 JUMP JUMPDEST SWAP2 POP PUSH2 0xC8F DUP3 PUSH2 0xC4E JUMP JUMPDEST PUSH1 0x20 DUP3 ADD SWAP1 POP SWAP2 SWAP1 POP JUMP JUMPDEST PUSH1 0x0 PUSH1 0x20 DUP3 ADD SWAP1 POP DUP2 DUP2 SUB PUSH1 0x0 DUP4 ADD MSTORE PUSH2 0xCB3 DUP2 PUSH2 0xC77 JUMP JUMPDEST SWAP1 POP SWAP2 SWAP1 POP JUMP JUMPDEST PUSH32 0x4E6F7420656E6F75676820706C617965727320696E20746865206C6F74746572 PUSH1 0x0 DUP3 ADD MSTORE PUSH32 0x7900000000000000000000000000000000000000000000000000000000000000 PUSH1 0x20 DUP3 ADD MSTORE POP JUMP JUMPDEST PUSH1 0x0 PUSH2 0xD16 PUSH1 0x21 DUP4 PUSH2 0xAA7 JUMP JUMPDEST SWAP2 POP PUSH2 0xD21 DUP3 PUSH2 0xCBA JUMP JUMPDEST PUSH1 0x40 DUP3 ADD SWAP1 POP SWAP2 SWAP1 POP JUMP JUMPDEST PUSH1 0x0 PUSH1 0x20 DUP3 ADD SWAP1 POP DUP2 DUP2 SUB PUSH1 0x0 DUP4 ADD MSTORE PUSH2 0xD45 DUP2 PUSH2 0xD09 JUMP JUMPDEST SWAP1 POP SWAP2 SWAP1 POP JUMP JUMPDEST PUSH32 0x4E487B7100000000000000000000000000000000000000000000000000000000 PUSH1 0x0 MSTORE PUSH1 0x12 PUSH1 0x4 MSTORE PUSH1 0x24 PUSH1 0x0 REVERT JUMPDEST PUSH1 0x0 PUSH2 0xD86 DUP3 PUSH2 0xB24 JUMP JUMPDEST SWAP2 POP PUSH2 0xD91 DUP4 PUSH2 0xB24 JUMP JUMPDEST SWAP3 POP DUP3 PUSH2 0xDA1 JUMPI PUSH2 0xDA0 PUSH2 0xD4C JUMP JUMPDEST JUMPDEST DUP3 DUP3 MOD SWAP1 POP SWAP3 SWAP2 POP POP JUMP JUMPDEST PUSH32 0x4E487B7100000000000000000000000000000000000000000000000000000000 PUSH1 0x0 MSTORE PUSH1 0x32 PUSH1 0x4 MSTORE PUSH1 0x24 PUSH1 0x0 REVERT JUMPDEST PUSH32 0x4E487B7100000000000000000000000000000000000000000000000000000000 PUSH1 0x0 MSTORE PUSH1 0x11 PUSH1 0x4 MSTORE PUSH1 0x24 PUSH1 0x0 REVERT JUMPDEST PUSH1 0x0 PUSH2 0xE15 DUP3 PUSH2 0xB24 JUMP JUMPDEST SWAP2 POP PUSH2 0xE20 DUP4 PUSH2 0xB24 JUMP JUMPDEST SWAP3 POP DUP3 DUP3 MUL PUSH2 0xE2E DUP2 PUSH2 0xB24 JUMP JUMPDEST SWAP2 POP DUP3 DUP3 DIV DUP5 EQ DUP4 ISZERO OR PUSH2 0xE45 JUMPI PUSH2 0xE44 PUSH2 0xDDB JUMP JUMPDEST JUMPDEST POP SWAP3 SWAP2 POP POP JUMP JUMPDEST PUSH1 0x0 PUSH2 0xE57 DUP3 PUSH2 0xB24 JUMP JUMPDEST SWAP2 POP PUSH2 0xE62 DUP4 PUSH2 0xB24 JUMP JUMPDEST SWAP3 POP DUP3 PUSH2 0xE72 JUMPI PUSH2 0xE71 PUSH2 0xD4C JUMP JUMPDEST JUMPDEST DUP3 DUP3 DIV SWAP1 POP SWAP3 SWAP2 POP POP JUMP JUMPDEST PUSH32 0x4661696C656420746F2077696E6E657220616D6F756E74206973207A65726F00 PUSH1 0x0 DUP3 ADD MSTORE POP JUMP JUMPDEST PUSH1 0x0 PUSH2 0xEB3 PUSH1 0x1F DUP4 PUSH2 0xAA7 JUMP JUMPDEST SWAP2 POP PUSH2 0xEBE DUP3 PUSH2 0xE7D JUMP JUMPDEST PUSH1 0x20 DUP3 ADD SWAP1 POP SWAP2 SWAP1 POP JUMP JUMPDEST PUSH1 0x0 PUSH1 0x20 DUP3 ADD SWAP1 POP DUP2 DUP2 SUB PUSH1 0x0 DUP4 ADD MSTORE PUSH2 0xEE2 DUP2 PUSH2 0xEA6 JUMP JUMPDEST SWAP1 POP SWAP2 SWAP1 POP JUMP JUMPDEST PUSH1 0x0 PUSH1 0x60 DUP3 ADD SWAP1 POP PUSH2 0xEFE PUSH1 0x0 DUP4 ADD DUP7 PUSH2 0xC24 JUMP JUMPDEST PUSH2 0xF0B PUSH1 0x20 DUP4 ADD DUP6 PUSH2 0xC24 JUMP JUMPDEST PUSH2 0xF18 PUSH1 0x40 DUP4 ADD DUP5 PUSH2 0xB2E JUMP JUMPDEST SWAP5 SWAP4 POP POP POP POP JUMP JUMPDEST PUSH1 0x0 DUP2 ISZERO ISZERO SWAP1 POP SWAP2 SWAP1 POP JUMP JUMPDEST PUSH2 0xF35 DUP2 PUSH2 0xF20 JUMP JUMPDEST DUP2 EQ PUSH2 0xF40 JUMPI PUSH1 0x0 DUP1 REVERT JUMPDEST POP JUMP JUMPDEST PUSH1 0x0 DUP2 MLOAD SWAP1 POP PUSH2 0xF52 DUP2 PUSH2 0xF2C JUMP JUMPDEST SWAP3 SWAP2 POP POP JUMP JUMPDEST PUSH1 0x0 PUSH1 0x20 DUP3 DUP5 SUB SLT ISZERO PUSH2 0xF6E JUMPI PUSH2 0xF6D PUSH2 0xB58 JUMP JUMPDEST JUMPDEST PUSH1 0x0 PUSH2 0xF7C DUP5 DUP3 DUP6 ADD PUSH2 0xF43 JUMP JUMPDEST SWAP2 POP POP SWAP3 SWAP2 POP POP JUMP JUMPDEST PUSH1 0x0 DUP2 SWAP1 POP SWAP3 SWAP2 POP POP JUMP JUMPDEST POP JUMP JUMPDEST PUSH1 0x0 PUSH2 0xFA0 PUSH1 0x0 DUP4 PUSH2 0xF85 JUMP JUMPDEST SWAP2 POP PUSH2 0xFAB DUP3 PUSH2 0xF90 JUMP JUMPDEST PUSH1 0x0 DUP3 ADD SWAP1 POP SWAP2 SWAP1 POP JUMP JUMPDEST PUSH1 0x0 PUSH2 0xFC1 DUP3 PUSH2 0xF93 JUMP JUMPDEST SWAP2 POP DUP2 SWAP1 POP SWAP2 SWAP1 POP JUMP JUMPDEST PUSH32 0x4661696C656420746F2073656E6420757365722062616C616E6365206261636B PUSH1 0x0 DUP3 ADD MSTORE PUSH32 0x20746F20746865206F776E657200000000000000000000000000000000000000 PUSH1 0x20 DUP3 ADD MSTORE POP JUMP JUMPDEST PUSH1 0x0 PUSH2 0x1027 PUSH1 0x2D DUP4 PUSH2 0xAA7 JUMP JUMPDEST SWAP2 POP PUSH2 0x1032 DUP3 PUSH2 0xFCB JUMP JUMPDEST PUSH1 0x40 DUP3 ADD SWAP1 POP SWAP2 SWAP1 POP JUMP JUMPDEST PUSH1 0x0 PUSH1 0x20 DUP3 ADD SWAP1 POP DUP2 DUP2 SUB PUSH1 0x0 DUP4 ADD MSTORE PUSH2 0x1056 DUP2 PUSH2 0x101A JUMP JUMPDEST SWAP1 POP SWAP2 SWAP1 POP JUMP JUMPDEST PUSH1 0x0 DUP2 MLOAD SWAP1 POP PUSH2 0x106C DUP2 PUSH2 0xB5D JUMP JUMPDEST SWAP3 SWAP2 POP POP JUMP JUMPDEST PUSH1 0x0 PUSH1 0x20 DUP3 DUP5 SUB SLT ISZERO PUSH2 0x1088 JUMPI PUSH2 0x1087 PUSH2 0xB58 JUMP JUMPDEST JUMPDEST PUSH1 0x0 PUSH2 0x1096 DUP5 DUP3 DUP6 ADD PUSH2 0x105D JUMP JUMPDEST SWAP2 POP POP SWAP3 SWAP2 POP POP JUMP JUMPDEST PUSH32 0x6D73672E76616C7565203C20302E312065746865720000000000000000000000 PUSH1 0x0 DUP3 ADD MSTORE POP JUMP JUMPDEST PUSH1 0x0 PUSH2 0x10D5 PUSH1 0x15 DUP4 PUSH2 0xAA7 JUMP JUMPDEST SWAP2 POP PUSH2 0x10E0 DUP3 PUSH2 0x109F JUMP JUMPDEST PUSH1 0x20 DUP3 ADD SWAP1 POP SWAP2 SWAP1 POP JUMP JUMPDEST PUSH1 0x0 PUSH1 0x20 DUP3 ADD SWAP1 POP DUP2 DUP2 SUB PUSH1 0x0 DUP4 ADD MSTORE PUSH2 0x1104 DUP2 PUSH2 0x10C8 JUMP JUMPDEST SWAP1 POP SWAP2 SWAP1 POP JUMP JUMPDEST PUSH1 0x0 PUSH1 0x40 DUP3 ADD SWAP1 POP PUSH2 0x1120 PUSH1 0x0 DUP4 ADD DUP6 PUSH2 0xC24 JUMP JUMPDEST PUSH2 0x112D PUSH1 0x20 DUP4 ADD DUP5 PUSH2 0xB2E JUMP JUMPDEST SWAP4 SWAP3 POP POP POP JUMP JUMPDEST PUSH1 0x0 DUP2 SWAP1 POP SWAP2 SWAP1 POP JUMP JUMPDEST PUSH2 0x114F PUSH2 0x114A DUP3 PUSH2 0xB24 JUMP JUMPDEST PUSH2 0x1134 JUMP JUMPDEST DUP3 MSTORE POP POP JUMP JUMPDEST PUSH1 0x0 PUSH2 0x1161 DUP3 DUP7 PUSH2 0x113E JUMP JUMPDEST PUSH1 0x20 DUP3 ADD SWAP2 POP PUSH2 0x1171 DUP3 DUP6 PUSH2 0x113E JUMP JUMPDEST PUSH1 0x20 DUP3 ADD SWAP2 POP PUSH2 0x1181 DUP3 DUP5 PUSH2 0x113E JUMP JUMPDEST PUSH1 0x20 DUP3 ADD SWAP2 POP DUP2 SWAP1 POP SWAP5 SWAP4 POP POP POP POP JUMP JUMPDEST PUSH32 0x4E487B7100000000000000000000000000000000000000000000000000000000 PUSH1 0x0 MSTORE PUSH1 0x41 PUSH1 0x4 MSTORE PUSH1 0x24 PUSH1 0x0 REVERT JUMPDEST PUSH32 0x4661696C656420746F2073656E6420757365722062616C616E6365206261636B PUSH1 0x0 DUP3 ADD MSTORE PUSH32 0x20746F207468652061646D696E20666565000000000000000000000000000000 PUSH1 0x20 DUP3 ADD MSTORE POP JUMP JUMPDEST PUSH1 0x0 PUSH2 0x121D PUSH1 0x31 DUP4 PUSH2 0xAA7 JUMP JUMPDEST SWAP2 POP PUSH2 0x1228 DUP3 PUSH2 0x11C1 JUMP JUMPDEST PUSH1 0x40 DUP3 ADD SWAP1 POP SWAP2 SWAP1 POP JUMP JUMPDEST PUSH1 0x0 PUSH1 0x20 DUP3 ADD SWAP1 POP DUP2 DUP2 SUB PUSH1 0x0 DUP4 ADD MSTORE PUSH2 0x124C DUP2 PUSH2 0x1210 JUMP JUMPDEST SWAP1 POP SWAP2 SWAP1 POP JUMP INVALID LOG2 PUSH5 0x6970667358 0x22 SLT KECCAK256 0xA5 DELEGATECALL 0xF7 PUSH30 0xDBD58E75FC68EA4B6FC273B62A8F4BE70309EB0A6DA3D30EFAEFA26C6473 PUSH16 0x6C634300081100330000000000000000 "
				},
				"gasEstimates": {
					"creation": {
						"codeDepositCost": "949000",
						"executionCost": "47360",
						"totalCost": "996360"
					},
					"external": {
						"admin()": "2580",
						"enter()": "infinite",
						"getBalance()": "2607",
						"getMyToken()": "infinite",
						"pickWinner()": "infinite",
						"players(uint256)": "5000",
						"tokensPerEth()": "2429"
					},
					"internal": {
						"random()": "infinite",
						"resetLottery()": "infinite"
					}
				},
				"methodIdentifiers": {
					"admin()": "f851a440",
					"enter()": "e97dcb62",
					"getBalance()": "12065fe0",
					"getMyToken()": "7cdf7547",
					"pickWinner()": "5d495aea",
					"players(uint256)": "f71d96cb",
					"tokensPerEth()": "cbdd69b5"
				}
			},
			"storageLayout": {
				"storage": [
					{
						"astId": 742,
						"contract": "contracts/Lottery.sol:Lottery",
						"label": "mshkToken",
						"offset": 0,
						"slot": "0",
						"type": "t_contract(ERC20MSHKToken)734"
					},
					{
						"astId": 745,
						"contract": "contracts/Lottery.sol:Lottery",
						"label": "players",
						"offset": 0,
						"slot": "1",
						"type": "t_array(t_address_payable)dyn_storage"
					},
					{
						"astId": 747,
						"contract": "contracts/Lottery.sol:Lottery",
						"label": "admin",
						"offset": 0,
						"slot": "2",
						"type": "t_address"
					},
					{
						"astId": 750,
						"contract": "contracts/Lottery.sol:Lottery",
						"label": "tokensPerEth",
						"offset": 0,
						"slot": "3",
						"type": "t_uint256"
					}
				],
				"types": {
					"t_address": {
						"encoding": "inplace",
						"label": "address",
						"numberOfBytes": "20"
					},
					"t_address_payable": {
						"encoding": "inplace",
						"label": "address payable",
						"numberOfBytes": "20"
					},
					"t_array(t_address_payable)dyn_storage": {
						"base": "t_address_payable",
						"encoding": "dynamic_array",
						"label": "address payable[]",
						"numberOfBytes": "32"
					},
					"t_contract(ERC20MSHKToken)734": {
						"encoding": "inplace",
						"label": "contract ERC20MSHKToken",
						"numberOfBytes": "20"
					},
					"t_uint256": {
						"encoding": "inplace",
						"label": "uint256",
						"numberOfBytes": "32"
					}
				}
			},
			"userdoc": {
				"kind": "user",
				"methods": {},
				"version": 1
			}
		}
	}
}