{
	"contracts/Lottery.sol": {
		"Lottery": {
			"abi": [
				{
					"inputs": [],
					"stateMutability": "nonpayable",
					"type": "constructor"
				},
				{
					"anonymous": false,
					"inputs": [
						{
							"indexed": true,
							"internalType": "address",
							"name": "owner",
							"type": "address"
						},
						{
							"indexed": true,
							"internalType": "address",
							"name": "spender",
							"type": "address"
						},
						{
							"indexed": false,
							"internalType": "uint256",
							"name": "value",
							"type": "uint256"
						}
					],
					"name": "Approval",
					"type": "event"
				},
				{
					"anonymous": false,
					"inputs": [
						{
							"indexed": true,
							"internalType": "address",
							"name": "from",
							"type": "address"
						},
						{
							"indexed": true,
							"internalType": "address",
							"name": "to",
							"type": "address"
						},
						{
							"indexed": false,
							"internalType": "uint256",
							"name": "value",
							"type": "uint256"
						}
					],
					"name": "Transfer",
					"type": "event"
				},
				{
					"inputs": [],
					"name": "admin",
					"outputs": [
						{
							"internalType": "address",
							"name": "",
							"type": "address"
						}
					],
					"stateMutability": "view",
					"type": "function"
				},
				{
					"inputs": [
						{
							"internalType": "address",
							"name": "owner",
							"type": "address"
						},
						{
							"internalType": "address",
							"name": "spender",
							"type": "address"
						}
					],
					"name": "allowance",
					"outputs": [
						{
							"internalType": "uint256",
							"name": "",
							"type": "uint256"
						}
					],
					"stateMutability": "view",
					"type": "function"
				},
				{
					"inputs": [
						{
							"internalType": "address",
							"name": "spender",
							"type": "address"
						},
						{
							"internalType": "uint256",
							"name": "amount",
							"type": "uint256"
						}
					],
					"name": "approve",
					"outputs": [
						{
							"internalType": "bool",
							"name": "",
							"type": "bool"
						}
					],
					"stateMutability": "nonpayable",
					"type": "function"
				},
				{
					"inputs": [
						{
							"internalType": "address",
							"name": "account",
							"type": "address"
						}
					],
					"name": "balanceOf",
					"outputs": [
						{
							"internalType": "uint256",
							"name": "",
							"type": "uint256"
						}
					],
					"stateMutability": "view",
					"type": "function"
				},
				{
					"inputs": [],
					"name": "decimals",
					"outputs": [
						{
							"internalType": "uint8",
							"name": "",
							"type": "uint8"
						}
					],
					"stateMutability": "view",
					"type": "function"
				},
				{
					"inputs": [
						{
							"internalType": "address",
							"name": "spender",
							"type": "address"
						},
						{
							"internalType": "uint256",
							"name": "subtractedValue",
							"type": "uint256"
						}
					],
					"name": "decreaseAllowance",
					"outputs": [
						{
							"internalType": "bool",
							"name": "",
							"type": "bool"
						}
					],
					"stateMutability": "nonpayable",
					"type": "function"
				},
				{
					"inputs": [],
					"name": "enter",
					"outputs": [],
					"stateMutability": "payable",
					"type": "function"
				},
				{
					"inputs": [],
					"name": "getBalance",
					"outputs": [
						{
							"internalType": "uint256",
							"name": "",
							"type": "uint256"
						}
					],
					"stateMutability": "view",
					"type": "function"
				},
				{
					"inputs": [],
					"name": "getMyToken",
					"outputs": [
						{
							"internalType": "uint256",
							"name": "",
							"type": "uint256"
						}
					],
					"stateMutability": "view",
					"type": "function"
				},
				{
					"inputs": [
						{
							"internalType": "address",
							"name": "spender",
							"type": "address"
						},
						{
							"internalType": "uint256",
							"name": "addedValue",
							"type": "uint256"
						}
					],
					"name": "increaseAllowance",
					"outputs": [
						{
							"internalType": "bool",
							"name": "",
							"type": "bool"
						}
					],
					"stateMutability": "nonpayable",
					"type": "function"
				},
				{
					"inputs": [],
					"name": "name",
					"outputs": [
						{
							"internalType": "string",
							"name": "",
							"type": "string"
						}
					],
					"stateMutability": "view",
					"type": "function"
				},
				{
					"inputs": [],
					"name": "pickWinner",
					"outputs": [],
					"stateMutability": "nonpayable",
					"type": "function"
				},
				{
					"inputs": [
						{
							"internalType": "uint256",
							"name": "",
							"type": "uint256"
						}
					],
					"name": "players",
					"outputs": [
						{
							"internalType": "address payable",
							"name": "",
							"type": "address"
						}
					],
					"stateMutability": "view",
					"type": "function"
				},
				{
					"inputs": [],
					"name": "symbol",
					"outputs": [
						{
							"internalType": "string",
							"name": "",
							"type": "string"
						}
					],
					"stateMutability": "view",
					"type": "function"
				},
				{
					"inputs": [],
					"name": "tokensPerEth",
					"outputs": [
						{
							"internalType": "uint256",
							"name": "",
							"type": "uint256"
						}
					],
					"stateMutability": "view",
					"type": "function"
				},
				{
					"inputs": [],
					"name": "totalSupply",
					"outputs": [
						{
							"internalType": "uint256",
							"name": "",
							"type": "uint256"
						}
					],
					"stateMutability": "view",
					"type": "function"
				},
				{
					"inputs": [
						{
							"internalType": "address",
							"name": "to",
							"type": "address"
						},
						{
							"internalType": "uint256",
							"name": "amount",
							"type": "uint256"
						}
					],
					"name": "transfer",
					"outputs": [
						{
							"internalType": "bool",
							"name": "",
							"type": "bool"
						}
					],
					"stateMutability": "nonpayable",
					"type": "function"
				},
				{
					"inputs": [
						{
							"internalType": "address",
							"name": "from",
							"type": "address"
						},
						{
							"internalType": "address",
							"name": "to",
							"type": "address"
						},
						{
							"internalType": "uint256",
							"name": "amount",
							"type": "uint256"
						}
					],
					"name": "transferFrom",
					"outputs": [
						{
							"internalType": "bool",
							"name": "",
							"type": "bool"
						}
					],
					"stateMutability": "nonpayable",
					"type": "function"
				},
				{
					"stateMutability": "payable",
					"type": "receive"
				}
			],
			"devdoc": {
				"details": "Ether lotery that transfer contract amount to winner",
				"kind": "dev",
				"methods": {
					"allowance(address,address)": {
						"details": "See {IERC20-allowance}."
					},
					"approve(address,uint256)": {
						"details": "See {IERC20-approve}. NOTE: If `amount` is the maximum `uint256`, the allowance is not updated on `transferFrom`. This is semantically equivalent to an infinite approval. Requirements: - `spender` cannot be the zero address."
					},
					"balanceOf(address)": {
						"details": "See {IERC20-balanceOf}."
					},
					"constructor": {
						"details": "让部署该合约的人为管理员"
					},
					"decimals()": {
						"details": "Returns the number of decimals used to get its user representation. For example, if `decimals` equals `2`, a balance of `505` tokens should be displayed to a user as `5.05` (`505 / 10 ** 2`). Tokens usually opt for a value of 18, imitating the relationship between Ether and Wei. This is the value {ERC20} uses, unless this function is overridden; NOTE: This information is only used for _display_ purposes: it in no way affects any of the arithmetic of the contract, including {IERC20-balanceOf} and {IERC20-transfer}."
					},
					"decreaseAllowance(address,uint256)": {
						"details": "Atomically decreases the allowance granted to `spender` by the caller. This is an alternative to {approve} that can be used as a mitigation for problems described in {IERC20-approve}. Emits an {Approval} event indicating the updated allowance. Requirements: - `spender` cannot be the zero address. - `spender` must have allowance for the caller of at least `subtractedValue`."
					},
					"getBalance()": {
						"details": "获得合同余额",
						"returns": {
							"_0": "contract balance"
						}
					},
					"increaseAllowance(address,uint256)": {
						"details": "Atomically increases the allowance granted to `spender` by the caller. This is an alternative to {approve} that can be used as a mitigation for problems described in {IERC20-approve}. Emits an {Approval} event indicating the updated allowance. Requirements: - `spender` cannot be the zero address."
					},
					"name()": {
						"details": "Returns the name of the token."
					},
					"pickWinner()": {
						"details": "从彩票中挑选赢家，并授予冠军合同的余额"
					},
					"symbol()": {
						"details": "Returns the symbol of the token, usually a shorter version of the name."
					},
					"totalSupply()": {
						"details": "See {IERC20-totalSupply}."
					},
					"transfer(address,uint256)": {
						"details": "See {IERC20-transfer}. Requirements: - `to` cannot be the zero address. - the caller must have a balance of at least `amount`."
					},
					"transferFrom(address,address,uint256)": {
						"details": "See {IERC20-transferFrom}. Emits an {Approval} event indicating the updated allowance. This is not required by the EIP. See the note at the beginning of {ERC20}. NOTE: Does not update the allowance if the current allowance is the maximum `uint256`. Requirements: - `from` and `to` cannot be the zero address. - `from` must have a balance of at least `amount`. - the caller must have allowance for ``from``'s tokens of at least `amount`."
					}
				},
				"title": "Lottery",
				"version": 1
			},
			"evm": {
				"assembly": "    /* \"contracts/Lottery.sol\":205:3708  contract Lottery is ERC20  {... */\n  mstore(0x40, 0x80)\n    /* \"contracts/Lottery.sol\":395:397  10 */\n  0x0a\n    /* \"contracts/Lottery.sol\":365:397  uint256 public tokensPerEth = 10 */\n  0x07\n  sstore\n    /* \"contracts/Lottery.sol\":469:808  constructor() ERC20(\"MSHK ERC20 Token\", \"MSHK\") {... */\n  callvalue\n  dup1\n  iszero\n  tag_1\n  jumpi\n  0x00\n  dup1\n  revert\ntag_1:\n  pop\n    /* \"@openzeppelin/contracts/token/ERC20/ERC20.sol\":1978:2091  constructor(string memory name_, string memory symbol_) {... */\n  mload(0x40)\n  dup1\n  0x40\n  add\n  0x40\n  mstore\n  dup1\n  0x10\n  dup2\n  mstore\n  0x20\n  add\n  0x4d53484b20455243323020546f6b656e00000000000000000000000000000000\n  dup2\n  mstore\n  pop\n  mload(0x40)\n  dup1\n  0x40\n  add\n  0x40\n  mstore\n  dup1\n  0x04\n  dup2\n  mstore\n  0x20\n  add\n  0x4d53484b00000000000000000000000000000000000000000000000000000000\n  dup2\n  mstore\n  pop\n    /* \"@openzeppelin/contracts/token/ERC20/ERC20.sol\":2052:2057  name_ */\n  dup2\n    /* \"@openzeppelin/contracts/token/ERC20/ERC20.sol\":2044:2049  _name */\n  0x03\n    /* \"@openzeppelin/contracts/token/ERC20/ERC20.sol\":2044:2057  _name = name_ */\n  swap1\n  dup2\n  tag_5\n  swap2\n  swap1\n  tag_6\n  jump\t// in\ntag_5:\n  pop\n    /* \"@openzeppelin/contracts/token/ERC20/ERC20.sol\":2077:2084  symbol_ */\n  dup1\n    /* \"@openzeppelin/contracts/token/ERC20/ERC20.sol\":2067:2074  _symbol */\n  0x04\n    /* \"@openzeppelin/contracts/token/ERC20/ERC20.sol\":2067:2084  _symbol = symbol_ */\n  swap1\n  dup2\n  tag_7\n  swap2\n  swap1\n  tag_6\n  jump\t// in\ntag_7:\n  pop\n    /* \"@openzeppelin/contracts/token/ERC20/ERC20.sol\":1978:2091  constructor(string memory name_, string memory symbol_) {... */\n  pop\n  pop\n    /* \"contracts/Lottery.sol\":571:581  msg.sender */\n  caller\n    /* \"contracts/Lottery.sol\":563:568  admin */\n  0x06\n  0x00\n    /* \"contracts/Lottery.sol\":563:581  admin = msg.sender */\n  0x0100\n  exp\n  dup2\n  sload\n  dup2\n  0xffffffffffffffffffffffffffffffffffffffff\n  mul\n  not\n  and\n  swap1\n  dup4\n  0xffffffffffffffffffffffffffffffffffffffff\n  and\n  mul\n  or\n  swap1\n  sstore\n  pop\n    /* \"contracts/Lottery.sol\":641:648  players */\n  0x05\n    /* \"contracts/Lottery.sol\":662:667  admin */\n  0x06\n  0x00\n  swap1\n  sload\n  swap1\n  0x0100\n  exp\n  swap1\n  div\n  0xffffffffffffffffffffffffffffffffffffffff\n  and\n    /* \"contracts/Lottery.sol\":641:669  players.push(payable(admin)) */\n  swap1\n  dup1\n  0x01\n  dup2\n  sload\n  add\n  dup1\n  dup3\n  sstore\n  dup1\n  swap2\n  pop\n  pop\n  0x01\n  swap1\n  sub\n  swap1\n  0x00\n  mstore\n  keccak256(0x00, 0x20)\n  add\n  0x00\n  swap1\n  swap2\n  swap1\n  swap2\n  swap1\n  swap2\n  0x0100\n  exp\n  dup2\n  sload\n  dup2\n  0xffffffffffffffffffffffffffffffffffffffff\n  mul\n  not\n  and\n  swap1\n  dup4\n  0xffffffffffffffffffffffffffffffffffffffff\n  and\n  mul\n  or\n  swap1\n  sstore\n  pop\n    /* \"contracts/Lottery.sol\":747:782  _mint(msg.sender, 10000 * 10 ** 18) */\n  tag_10\n    /* \"contracts/Lottery.sol\":753:763  msg.sender */\n  caller\n    /* \"contracts/Lottery.sol\":765:781  10000 * 10 ** 18 */\n  0x021e19e0c9bab2400000\n    /* \"contracts/Lottery.sol\":747:752  _mint */\n  shl(0x20, tag_11)\n    /* \"contracts/Lottery.sol\":747:782  _mint(msg.sender, 10000 * 10 ** 18) */\n  0x20\n  shr\n  jump\t// in\ntag_10:\n    /* \"contracts/Lottery.sol\":205:3708  contract Lottery is ERC20  {... */\n  jump(tag_12)\n    /* \"@openzeppelin/contracts/token/ERC20/ERC20.sol\":8402:8791  function _mint(address account, uint256 amount) internal virtual {... */\ntag_11:\n    /* \"@openzeppelin/contracts/token/ERC20/ERC20.sol\":8504:8505  0 */\n  0x00\n    /* \"@openzeppelin/contracts/token/ERC20/ERC20.sol\":8485:8506  account != address(0) */\n  0xffffffffffffffffffffffffffffffffffffffff\n  and\n    /* \"@openzeppelin/contracts/token/ERC20/ERC20.sol\":8485:8492  account */\n  dup3\n    /* \"@openzeppelin/contracts/token/ERC20/ERC20.sol\":8485:8506  account != address(0) */\n  0xffffffffffffffffffffffffffffffffffffffff\n  and\n  sub\n    /* \"@openzeppelin/contracts/token/ERC20/ERC20.sol\":8477:8542  require(account != address(0), \"ERC20: mint to the zero address\") */\n  tag_14\n  jumpi\n  mload(0x40)\n  0x08c379a000000000000000000000000000000000000000000000000000000000\n  dup2\n  mstore\n  0x04\n  add\n  tag_15\n  swap1\n  tag_16\n  jump\t// in\ntag_15:\n  mload(0x40)\n  dup1\n  swap2\n  sub\n  swap1\n  revert\ntag_14:\n    /* \"@openzeppelin/contracts/token/ERC20/ERC20.sol\":8553:8602  _beforeTokenTransfer(address(0), account, amount) */\n  tag_17\n    /* \"@openzeppelin/contracts/token/ERC20/ERC20.sol\":8582:8583  0 */\n  0x00\n    /* \"@openzeppelin/contracts/token/ERC20/ERC20.sol\":8586:8593  account */\n  dup4\n    /* \"@openzeppelin/contracts/token/ERC20/ERC20.sol\":8595:8601  amount */\n  dup4\n    /* \"@openzeppelin/contracts/token/ERC20/ERC20.sol\":8553:8573  _beforeTokenTransfer */\n  shl(0x20, tag_18)\n    /* \"@openzeppelin/contracts/token/ERC20/ERC20.sol\":8553:8602  _beforeTokenTransfer(address(0), account, amount) */\n  0x20\n  shr\n  jump\t// in\ntag_17:\n    /* \"@openzeppelin/contracts/token/ERC20/ERC20.sol\":8629:8635  amount */\n  dup1\n    /* \"@openzeppelin/contracts/token/ERC20/ERC20.sol\":8613:8625  _totalSupply */\n  0x02\n  0x00\n    /* \"@openzeppelin/contracts/token/ERC20/ERC20.sol\":8613:8635  _totalSupply += amount */\n  dup3\n  dup3\n  sload\n  tag_19\n  swap2\n  swap1\n  tag_20\n  jump\t// in\ntag_19:\n  swap3\n  pop\n  pop\n  dup2\n  swap1\n  sstore\n  pop\n    /* \"@openzeppelin/contracts/token/ERC20/ERC20.sol\":8667:8673  amount */\n  dup1\n    /* \"@openzeppelin/contracts/token/ERC20/ERC20.sol\":8645:8654  _balances */\n  0x00\n    /* \"@openzeppelin/contracts/token/ERC20/ERC20.sol\":8645:8663  _balances[account] */\n  dup1\n    /* \"@openzeppelin/contracts/token/ERC20/ERC20.sol\":8655:8662  account */\n  dup5\n    /* \"@openzeppelin/contracts/token/ERC20/ERC20.sol\":8645:8663  _balances[account] */\n  0xffffffffffffffffffffffffffffffffffffffff\n  and\n  0xffffffffffffffffffffffffffffffffffffffff\n  and\n  dup2\n  mstore\n  0x20\n  add\n  swap1\n  dup2\n  mstore\n  0x20\n  add\n  0x00\n  keccak256\n  0x00\n    /* \"@openzeppelin/contracts/token/ERC20/ERC20.sol\":8645:8673  _balances[account] += amount */\n  dup3\n  dup3\n  sload\n  tag_21\n  swap2\n  swap1\n  tag_20\n  jump\t// in\ntag_21:\n  swap3\n  pop\n  pop\n  dup2\n  swap1\n  sstore\n  pop\n    /* \"@openzeppelin/contracts/token/ERC20/ERC20.sol\":8709:8716  account */\n  dup2\n    /* \"@openzeppelin/contracts/token/ERC20/ERC20.sol\":8688:8725  Transfer(address(0), account, amount) */\n  0xffffffffffffffffffffffffffffffffffffffff\n  and\n    /* \"@openzeppelin/contracts/token/ERC20/ERC20.sol\":8705:8706  0 */\n  0x00\n    /* \"@openzeppelin/contracts/token/ERC20/ERC20.sol\":8688:8725  Transfer(address(0), account, amount) */\n  0xffffffffffffffffffffffffffffffffffffffff\n  and\n  0xddf252ad1be2c89b69c2b068fc378daa952ba7f163c4a11628f55a4df523b3ef\n    /* \"@openzeppelin/contracts/token/ERC20/ERC20.sol\":8718:8724  amount */\n  dup4\n    /* \"@openzeppelin/contracts/token/ERC20/ERC20.sol\":8688:8725  Transfer(address(0), account, amount) */\n  mload(0x40)\n  tag_22\n  swap2\n  swap1\n  tag_23\n  jump\t// in\ntag_22:\n  mload(0x40)\n  dup1\n  swap2\n  sub\n  swap1\n  log3\n    /* \"@openzeppelin/contracts/token/ERC20/ERC20.sol\":8736:8784  _afterTokenTransfer(address(0), account, amount) */\n  tag_24\n    /* \"@openzeppelin/contracts/token/ERC20/ERC20.sol\":8764:8765  0 */\n  0x00\n    /* \"@openzeppelin/contracts/token/ERC20/ERC20.sol\":8768:8775  account */\n  dup4\n    /* \"@openzeppelin/contracts/token/ERC20/ERC20.sol\":8777:8783  amount */\n  dup4\n    /* \"@openzeppelin/contracts/token/ERC20/ERC20.sol\":8736:8755  _afterTokenTransfer */\n  shl(0x20, tag_25)\n    /* \"@openzeppelin/contracts/token/ERC20/ERC20.sol\":8736:8784  _afterTokenTransfer(address(0), account, amount) */\n  0x20\n  shr\n  jump\t// in\ntag_24:\n    /* \"@openzeppelin/contracts/token/ERC20/ERC20.sol\":8402:8791  function _mint(address account, uint256 amount) internal virtual {... */\n  pop\n  pop\n  jump\t// out\n    /* \"@openzeppelin/contracts/token/ERC20/ERC20.sol\":11786:11907  function _beforeTokenTransfer(... */\ntag_18:\n  pop\n  pop\n  pop\n  jump\t// out\n    /* \"@openzeppelin/contracts/token/ERC20/ERC20.sol\":12495:12615  function _afterTokenTransfer(... */\ntag_25:\n  pop\n  pop\n  pop\n  jump\t// out\n    /* \"#utility.yul\":7:106   */\ntag_28:\n    /* \"#utility.yul\":59:65   */\n  0x00\n    /* \"#utility.yul\":93:98   */\n  dup2\n    /* \"#utility.yul\":87:99   */\n  mload\n    /* \"#utility.yul\":77:99   */\n  swap1\n  pop\n    /* \"#utility.yul\":7:106   */\n  swap2\n  swap1\n  pop\n  jump\t// out\n    /* \"#utility.yul\":112:292   */\ntag_29:\n    /* \"#utility.yul\":160:237   */\n  0x4e487b7100000000000000000000000000000000000000000000000000000000\n    /* \"#utility.yul\":157:158   */\n  0x00\n    /* \"#utility.yul\":150:238   */\n  mstore\n    /* \"#utility.yul\":257:261   */\n  0x41\n    /* \"#utility.yul\":254:255   */\n  0x04\n    /* \"#utility.yul\":247:262   */\n  mstore\n    /* \"#utility.yul\":281:285   */\n  0x24\n    /* \"#utility.yul\":278:279   */\n  0x00\n    /* \"#utility.yul\":271:286   */\n  revert\n    /* \"#utility.yul\":298:478   */\ntag_30:\n    /* \"#utility.yul\":346:423   */\n  0x4e487b7100000000000000000000000000000000000000000000000000000000\n    /* \"#utility.yul\":343:344   */\n  0x00\n    /* \"#utility.yul\":336:424   */\n  mstore\n    /* \"#utility.yul\":443:447   */\n  0x22\n    /* \"#utility.yul\":440:441   */\n  0x04\n    /* \"#utility.yul\":433:448   */\n  mstore\n    /* \"#utility.yul\":467:471   */\n  0x24\n    /* \"#utility.yul\":464:465   */\n  0x00\n    /* \"#utility.yul\":457:472   */\n  revert\n    /* \"#utility.yul\":484:804   */\ntag_31:\n    /* \"#utility.yul\":528:534   */\n  0x00\n    /* \"#utility.yul\":565:566   */\n  0x02\n    /* \"#utility.yul\":559:563   */\n  dup3\n    /* \"#utility.yul\":555:567   */\n  div\n    /* \"#utility.yul\":545:567   */\n  swap1\n  pop\n    /* \"#utility.yul\":612:613   */\n  0x01\n    /* \"#utility.yul\":606:610   */\n  dup3\n    /* \"#utility.yul\":602:614   */\n  and\n    /* \"#utility.yul\":633:651   */\n  dup1\n    /* \"#utility.yul\":623:704   */\n  tag_58\n  jumpi\n    /* \"#utility.yul\":689:693   */\n  0x7f\n    /* \"#utility.yul\":681:687   */\n  dup3\n    /* \"#utility.yul\":677:694   */\n  and\n    /* \"#utility.yul\":667:694   */\n  swap2\n  pop\n    /* \"#utility.yul\":623:704   */\ntag_58:\n    /* \"#utility.yul\":751:753   */\n  0x20\n    /* \"#utility.yul\":743:749   */\n  dup3\n    /* \"#utility.yul\":740:754   */\n  lt\n    /* \"#utility.yul\":720:738   */\n  dup2\n    /* \"#utility.yul\":717:755   */\n  sub\n    /* \"#utility.yul\":714:798   */\n  tag_59\n  jumpi\n    /* \"#utility.yul\":770:788   */\n  tag_60\n  tag_30\n  jump\t// in\ntag_60:\n    /* \"#utility.yul\":714:798   */\ntag_59:\n    /* \"#utility.yul\":535:804   */\n  pop\n    /* \"#utility.yul\":484:804   */\n  swap2\n  swap1\n  pop\n  jump\t// out\n    /* \"#utility.yul\":810:951   */\ntag_32:\n    /* \"#utility.yul\":859:863   */\n  0x00\n    /* \"#utility.yul\":882:885   */\n  dup2\n    /* \"#utility.yul\":874:885   */\n  swap1\n  pop\n    /* \"#utility.yul\":905:908   */\n  dup2\n    /* \"#utility.yul\":902:903   */\n  0x00\n    /* \"#utility.yul\":895:909   */\n  mstore\n    /* \"#utility.yul\":939:943   */\n  0x20\n    /* \"#utility.yul\":936:937   */\n  0x00\n    /* \"#utility.yul\":926:944   */\n  keccak256\n    /* \"#utility.yul\":918:944   */\n  swap1\n  pop\n    /* \"#utility.yul\":810:951   */\n  swap2\n  swap1\n  pop\n  jump\t// out\n    /* \"#utility.yul\":957:1050   */\ntag_33:\n    /* \"#utility.yul\":994:1000   */\n  0x00\n    /* \"#utility.yul\":1041:1043   */\n  0x20\n    /* \"#utility.yul\":1036:1038   */\n  0x1f\n    /* \"#utility.yul\":1029:1034   */\n  dup4\n    /* \"#utility.yul\":1025:1039   */\n  add\n    /* \"#utility.yul\":1021:1044   */\n  div\n    /* \"#utility.yul\":1011:1044   */\n  swap1\n  pop\n    /* \"#utility.yul\":957:1050   */\n  swap2\n  swap1\n  pop\n  jump\t// out\n    /* \"#utility.yul\":1056:1163   */\ntag_34:\n    /* \"#utility.yul\":1100:1108   */\n  0x00\n    /* \"#utility.yul\":1150:1155   */\n  dup3\n    /* \"#utility.yul\":1144:1148   */\n  dup3\n    /* \"#utility.yul\":1140:1156   */\n  shl\n    /* \"#utility.yul\":1119:1156   */\n  swap1\n  pop\n    /* \"#utility.yul\":1056:1163   */\n  swap3\n  swap2\n  pop\n  pop\n  jump\t// out\n    /* \"#utility.yul\":1169:1562   */\ntag_35:\n    /* \"#utility.yul\":1238:1244   */\n  0x00\n    /* \"#utility.yul\":1288:1289   */\n  0x08\n    /* \"#utility.yul\":1276:1286   */\n  dup4\n    /* \"#utility.yul\":1272:1290   */\n  mul\n    /* \"#utility.yul\":1311:1408   */\n  tag_65\n    /* \"#utility.yul\":1341:1407   */\n  0xffffffffffffffffffffffffffffffffffffffffffffffffffffffffffffffff\n    /* \"#utility.yul\":1330:1339   */\n  dup3\n    /* \"#utility.yul\":1311:1408   */\n  tag_34\n  jump\t// in\ntag_65:\n    /* \"#utility.yul\":1429:1468   */\n  tag_66\n    /* \"#utility.yul\":1459:1467   */\n  dup7\n    /* \"#utility.yul\":1448:1457   */\n  dup4\n    /* \"#utility.yul\":1429:1468   */\n  tag_34\n  jump\t// in\ntag_66:\n    /* \"#utility.yul\":1417:1468   */\n  swap6\n  pop\n    /* \"#utility.yul\":1501:1505   */\n  dup1\n    /* \"#utility.yul\":1497:1506   */\n  not\n    /* \"#utility.yul\":1490:1495   */\n  dup5\n    /* \"#utility.yul\":1486:1507   */\n  and\n    /* \"#utility.yul\":1477:1507   */\n  swap4\n  pop\n    /* \"#utility.yul\":1550:1554   */\n  dup1\n    /* \"#utility.yul\":1540:1548   */\n  dup7\n    /* \"#utility.yul\":1536:1555   */\n  and\n    /* \"#utility.yul\":1529:1534   */\n  dup5\n    /* \"#utility.yul\":1526:1556   */\n  or\n    /* \"#utility.yul\":1516:1556   */\n  swap3\n  pop\n    /* \"#utility.yul\":1245:1562   */\n  pop\n  pop\n    /* \"#utility.yul\":1169:1562   */\n  swap4\n  swap3\n  pop\n  pop\n  pop\n  jump\t// out\n    /* \"#utility.yul\":1568:1645   */\ntag_36:\n    /* \"#utility.yul\":1605:1612   */\n  0x00\n    /* \"#utility.yul\":1634:1639   */\n  dup2\n    /* \"#utility.yul\":1623:1639   */\n  swap1\n  pop\n    /* \"#utility.yul\":1568:1645   */\n  swap2\n  swap1\n  pop\n  jump\t// out\n    /* \"#utility.yul\":1651:1711   */\ntag_37:\n    /* \"#utility.yul\":1679:1682   */\n  0x00\n    /* \"#utility.yul\":1700:1705   */\n  dup2\n    /* \"#utility.yul\":1693:1705   */\n  swap1\n  pop\n    /* \"#utility.yul\":1651:1711   */\n  swap2\n  swap1\n  pop\n  jump\t// out\n    /* \"#utility.yul\":1717:1859   */\ntag_38:\n    /* \"#utility.yul\":1767:1776   */\n  0x00\n    /* \"#utility.yul\":1800:1853   */\n  tag_70\n    /* \"#utility.yul\":1818:1852   */\n  tag_71\n    /* \"#utility.yul\":1827:1851   */\n  tag_72\n    /* \"#utility.yul\":1845:1850   */\n  dup5\n    /* \"#utility.yul\":1827:1851   */\n  tag_36\n  jump\t// in\ntag_72:\n    /* \"#utility.yul\":1818:1852   */\n  tag_37\n  jump\t// in\ntag_71:\n    /* \"#utility.yul\":1800:1853   */\n  tag_36\n  jump\t// in\ntag_70:\n    /* \"#utility.yul\":1787:1853   */\n  swap1\n  pop\n    /* \"#utility.yul\":1717:1859   */\n  swap2\n  swap1\n  pop\n  jump\t// out\n    /* \"#utility.yul\":1865:1940   */\ntag_39:\n    /* \"#utility.yul\":1908:1911   */\n  0x00\n    /* \"#utility.yul\":1929:1934   */\n  dup2\n    /* \"#utility.yul\":1922:1934   */\n  swap1\n  pop\n    /* \"#utility.yul\":1865:1940   */\n  swap2\n  swap1\n  pop\n  jump\t// out\n    /* \"#utility.yul\":1946:2215   */\ntag_40:\n    /* \"#utility.yul\":2056:2095   */\n  tag_75\n    /* \"#utility.yul\":2087:2094   */\n  dup4\n    /* \"#utility.yul\":2056:2095   */\n  tag_38\n  jump\t// in\ntag_75:\n    /* \"#utility.yul\":2117:2208   */\n  tag_76\n    /* \"#utility.yul\":2166:2207   */\n  tag_77\n    /* \"#utility.yul\":2190:2206   */\n  dup3\n    /* \"#utility.yul\":2166:2207   */\n  tag_39\n  jump\t// in\ntag_77:\n    /* \"#utility.yul\":2158:2164   */\n  dup5\n    /* \"#utility.yul\":2151:2155   */\n  dup5\n    /* \"#utility.yul\":2145:2156   */\n  sload\n    /* \"#utility.yul\":2117:2208   */\n  tag_35\n  jump\t// in\ntag_76:\n    /* \"#utility.yul\":2111:2115   */\n  dup3\n    /* \"#utility.yul\":2104:2209   */\n  sstore\n    /* \"#utility.yul\":2022:2215   */\n  pop\n    /* \"#utility.yul\":1946:2215   */\n  pop\n  pop\n  pop\n  jump\t// out\n    /* \"#utility.yul\":2221:2294   */\ntag_41:\n    /* \"#utility.yul\":2266:2269   */\n  0x00\n    /* \"#utility.yul\":2221:2294   */\n  swap1\n  jump\t// out\n    /* \"#utility.yul\":2300:2489   */\ntag_42:\n    /* \"#utility.yul\":2377:2409   */\n  tag_80\n  tag_41\n  jump\t// in\ntag_80:\n    /* \"#utility.yul\":2418:2483   */\n  tag_81\n    /* \"#utility.yul\":2476:2482   */\n  dup2\n    /* \"#utility.yul\":2468:2474   */\n  dup5\n    /* \"#utility.yul\":2462:2466   */\n  dup5\n    /* \"#utility.yul\":2418:2483   */\n  tag_40\n  jump\t// in\ntag_81:\n    /* \"#utility.yul\":2353:2489   */\n  pop\n    /* \"#utility.yul\":2300:2489   */\n  pop\n  pop\n  jump\t// out\n    /* \"#utility.yul\":2495:2681   */\ntag_43:\n    /* \"#utility.yul\":2555:2675   */\ntag_83:\n    /* \"#utility.yul\":2572:2575   */\n  dup2\n    /* \"#utility.yul\":2565:2570   */\n  dup2\n    /* \"#utility.yul\":2562:2576   */\n  lt\n    /* \"#utility.yul\":2555:2675   */\n  iszero\n  tag_85\n  jumpi\n    /* \"#utility.yul\":2626:2665   */\n  tag_86\n    /* \"#utility.yul\":2663:2664   */\n  0x00\n    /* \"#utility.yul\":2656:2661   */\n  dup3\n    /* \"#utility.yul\":2626:2665   */\n  tag_42\n  jump\t// in\ntag_86:\n    /* \"#utility.yul\":2599:2600   */\n  0x01\n    /* \"#utility.yul\":2592:2597   */\n  dup2\n    /* \"#utility.yul\":2588:2601   */\n  add\n    /* \"#utility.yul\":2579:2601   */\n  swap1\n  pop\n    /* \"#utility.yul\":2555:2675   */\n  jump(tag_83)\ntag_85:\n    /* \"#utility.yul\":2495:2681   */\n  pop\n  pop\n  jump\t// out\n    /* \"#utility.yul\":2687:3230   */\ntag_44:\n    /* \"#utility.yul\":2788:2790   */\n  0x1f\n    /* \"#utility.yul\":2783:2786   */\n  dup3\n    /* \"#utility.yul\":2780:2791   */\n  gt\n    /* \"#utility.yul\":2777:3223   */\n  iszero\n  tag_88\n  jumpi\n    /* \"#utility.yul\":2822:2860   */\n  tag_89\n    /* \"#utility.yul\":2854:2859   */\n  dup2\n    /* \"#utility.yul\":2822:2860   */\n  tag_32\n  jump\t// in\ntag_89:\n    /* \"#utility.yul\":2906:2935   */\n  tag_90\n    /* \"#utility.yul\":2924:2934   */\n  dup5\n    /* \"#utility.yul\":2906:2935   */\n  tag_33\n  jump\t// in\ntag_90:\n    /* \"#utility.yul\":2896:2904   */\n  dup2\n    /* \"#utility.yul\":2892:2936   */\n  add\n    /* \"#utility.yul\":3089:3091   */\n  0x20\n    /* \"#utility.yul\":3077:3087   */\n  dup6\n    /* \"#utility.yul\":3074:3092   */\n  lt\n    /* \"#utility.yul\":3071:3120   */\n  iszero\n  tag_91\n  jumpi\n    /* \"#utility.yul\":3110:3118   */\n  dup2\n    /* \"#utility.yul\":3095:3118   */\n  swap1\n  pop\n    /* \"#utility.yul\":3071:3120   */\ntag_91:\n    /* \"#utility.yul\":3133:3213   */\n  tag_92\n    /* \"#utility.yul\":3189:3211   */\n  tag_93\n    /* \"#utility.yul\":3207:3210   */\n  dup6\n    /* \"#utility.yul\":3189:3211   */\n  tag_33\n  jump\t// in\ntag_93:\n    /* \"#utility.yul\":3179:3187   */\n  dup4\n    /* \"#utility.yul\":3175:3212   */\n  add\n    /* \"#utility.yul\":3162:3173   */\n  dup3\n    /* \"#utility.yul\":3133:3213   */\n  tag_43\n  jump\t// in\ntag_92:\n    /* \"#utility.yul\":2792:3223   */\n  pop\n  pop\n    /* \"#utility.yul\":2777:3223   */\ntag_88:\n    /* \"#utility.yul\":2687:3230   */\n  pop\n  pop\n  pop\n  jump\t// out\n    /* \"#utility.yul\":3236:3353   */\ntag_45:\n    /* \"#utility.yul\":3290:3298   */\n  0x00\n    /* \"#utility.yul\":3340:3345   */\n  dup3\n    /* \"#utility.yul\":3334:3338   */\n  dup3\n    /* \"#utility.yul\":3330:3346   */\n  shr\n    /* \"#utility.yul\":3309:3346   */\n  swap1\n  pop\n    /* \"#utility.yul\":3236:3353   */\n  swap3\n  swap2\n  pop\n  pop\n  jump\t// out\n    /* \"#utility.yul\":3359:3528   */\ntag_46:\n    /* \"#utility.yul\":3403:3409   */\n  0x00\n    /* \"#utility.yul\":3436:3487   */\n  tag_96\n    /* \"#utility.yul\":3484:3485   */\n  0x00\n    /* \"#utility.yul\":3480:3486   */\n  not\n    /* \"#utility.yul\":3472:3477   */\n  dup5\n    /* \"#utility.yul\":3469:3470   */\n  0x08\n    /* \"#utility.yul\":3465:3478   */\n  mul\n    /* \"#utility.yul\":3436:3487   */\n  tag_45\n  jump\t// in\ntag_96:\n    /* \"#utility.yul\":3432:3488   */\n  not\n    /* \"#utility.yul\":3517:3521   */\n  dup1\n    /* \"#utility.yul\":3511:3515   */\n  dup4\n    /* \"#utility.yul\":3507:3522   */\n  and\n    /* \"#utility.yul\":3497:3522   */\n  swap2\n  pop\n    /* \"#utility.yul\":3410:3528   */\n  pop\n    /* \"#utility.yul\":3359:3528   */\n  swap3\n  swap2\n  pop\n  pop\n  jump\t// out\n    /* \"#utility.yul\":3533:3828   */\ntag_47:\n    /* \"#utility.yul\":3609:3613   */\n  0x00\n    /* \"#utility.yul\":3755:3784   */\n  tag_98\n    /* \"#utility.yul\":3780:3783   */\n  dup4\n    /* \"#utility.yul\":3774:3778   */\n  dup4\n    /* \"#utility.yul\":3755:3784   */\n  tag_46\n  jump\t// in\ntag_98:\n    /* \"#utility.yul\":3747:3784   */\n  swap2\n  pop\n    /* \"#utility.yul\":3817:3820   */\n  dup3\n    /* \"#utility.yul\":3814:3815   */\n  0x02\n    /* \"#utility.yul\":3810:3821   */\n  mul\n    /* \"#utility.yul\":3804:3808   */\n  dup3\n    /* \"#utility.yul\":3801:3822   */\n  or\n    /* \"#utility.yul\":3793:3822   */\n  swap1\n  pop\n    /* \"#utility.yul\":3533:3828   */\n  swap3\n  swap2\n  pop\n  pop\n  jump\t// out\n    /* \"#utility.yul\":3833:5228   */\ntag_6:\n    /* \"#utility.yul\":3950:3987   */\n  tag_100\n    /* \"#utility.yul\":3983:3986   */\n  dup3\n    /* \"#utility.yul\":3950:3987   */\n  tag_28\n  jump\t// in\ntag_100:\n    /* \"#utility.yul\":4052:4070   */\n  0xffffffffffffffff\n    /* \"#utility.yul\":4044:4050   */\n  dup2\n    /* \"#utility.yul\":4041:4071   */\n  gt\n    /* \"#utility.yul\":4038:4094   */\n  iszero\n  tag_101\n  jumpi\n    /* \"#utility.yul\":4074:4092   */\n  tag_102\n  tag_29\n  jump\t// in\ntag_102:\n    /* \"#utility.yul\":4038:4094   */\ntag_101:\n    /* \"#utility.yul\":4118:4156   */\n  tag_103\n    /* \"#utility.yul\":4150:4154   */\n  dup3\n    /* \"#utility.yul\":4144:4155   */\n  sload\n    /* \"#utility.yul\":4118:4156   */\n  tag_31\n  jump\t// in\ntag_103:\n    /* \"#utility.yul\":4203:4270   */\n  tag_104\n    /* \"#utility.yul\":4263:4269   */\n  dup3\n    /* \"#utility.yul\":4255:4261   */\n  dup3\n    /* \"#utility.yul\":4249:4253   */\n  dup6\n    /* \"#utility.yul\":4203:4270   */\n  tag_44\n  jump\t// in\ntag_104:\n    /* \"#utility.yul\":4297:4298   */\n  0x00\n    /* \"#utility.yul\":4321:4325   */\n  0x20\n    /* \"#utility.yul\":4308:4325   */\n  swap1\n  pop\n    /* \"#utility.yul\":4353:4355   */\n  0x1f\n    /* \"#utility.yul\":4345:4351   */\n  dup4\n    /* \"#utility.yul\":4342:4356   */\n  gt\n    /* \"#utility.yul\":4370:4371   */\n  0x01\n    /* \"#utility.yul\":4365:4983   */\n  dup2\n  eq\n  tag_106\n  jumpi\n    /* \"#utility.yul\":5027:5028   */\n  0x00\n    /* \"#utility.yul\":5044:5050   */\n  dup5\n    /* \"#utility.yul\":5041:5118   */\n  iszero\n  tag_107\n  jumpi\n    /* \"#utility.yul\":5093:5102   */\n  dup3\n    /* \"#utility.yul\":5088:5091   */\n  dup8\n    /* \"#utility.yul\":5084:5103   */\n  add\n    /* \"#utility.yul\":5078:5104   */\n  mload\n    /* \"#utility.yul\":5069:5104   */\n  swap1\n  pop\n    /* \"#utility.yul\":5041:5118   */\ntag_107:\n    /* \"#utility.yul\":5144:5211   */\n  tag_108\n    /* \"#utility.yul\":5204:5210   */\n  dup6\n    /* \"#utility.yul\":5197:5202   */\n  dup3\n    /* \"#utility.yul\":5144:5211   */\n  tag_47\n  jump\t// in\ntag_108:\n    /* \"#utility.yul\":5138:5142   */\n  dup7\n    /* \"#utility.yul\":5131:5212   */\n  sstore\n    /* \"#utility.yul\":5000:5222   */\n  pop\n    /* \"#utility.yul\":4335:5222   */\n  jump(tag_105)\n    /* \"#utility.yul\":4365:4983   */\ntag_106:\n    /* \"#utility.yul\":4417:4421   */\n  0x1f\n    /* \"#utility.yul\":4413:4422   */\n  not\n    /* \"#utility.yul\":4405:4411   */\n  dup5\n    /* \"#utility.yul\":4401:4423   */\n  and\n    /* \"#utility.yul\":4451:4488   */\n  tag_109\n    /* \"#utility.yul\":4483:4487   */\n  dup7\n    /* \"#utility.yul\":4451:4488   */\n  tag_32\n  jump\t// in\ntag_109:\n    /* \"#utility.yul\":4510:4511   */\n  0x00\n    /* \"#utility.yul\":4524:4732   */\ntag_110:\n    /* \"#utility.yul\":4538:4545   */\n  dup3\n    /* \"#utility.yul\":4535:4536   */\n  dup2\n    /* \"#utility.yul\":4532:4546   */\n  lt\n    /* \"#utility.yul\":4524:4732   */\n  iszero\n  tag_112\n  jumpi\n    /* \"#utility.yul\":4617:4626   */\n  dup5\n    /* \"#utility.yul\":4612:4615   */\n  dup10\n    /* \"#utility.yul\":4608:4627   */\n  add\n    /* \"#utility.yul\":4602:4628   */\n  mload\n    /* \"#utility.yul\":4594:4600   */\n  dup3\n    /* \"#utility.yul\":4587:4629   */\n  sstore\n    /* \"#utility.yul\":4668:4669   */\n  0x01\n    /* \"#utility.yul\":4660:4666   */\n  dup3\n    /* \"#utility.yul\":4656:4670   */\n  add\n    /* \"#utility.yul\":4646:4670   */\n  swap2\n  pop\n    /* \"#utility.yul\":4715:4717   */\n  0x20\n    /* \"#utility.yul\":4704:4713   */\n  dup6\n    /* \"#utility.yul\":4700:4718   */\n  add\n    /* \"#utility.yul\":4687:4718   */\n  swap5\n  pop\n    /* \"#utility.yul\":4561:4565   */\n  0x20\n    /* \"#utility.yul\":4558:4559   */\n  dup2\n    /* \"#utility.yul\":4554:4566   */\n  add\n    /* \"#utility.yul\":4549:4566   */\n  swap1\n  pop\n    /* \"#utility.yul\":4524:4732   */\n  jump(tag_110)\ntag_112:\n    /* \"#utility.yul\":4760:4766   */\n  dup7\n    /* \"#utility.yul\":4751:4758   */\n  dup4\n    /* \"#utility.yul\":4748:4767   */\n  lt\n    /* \"#utility.yul\":4745:4924   */\n  iszero\n  tag_113\n  jumpi\n    /* \"#utility.yul\":4818:4827   */\n  dup5\n    /* \"#utility.yul\":4813:4816   */\n  dup10\n    /* \"#utility.yul\":4809:4828   */\n  add\n    /* \"#utility.yul\":4803:4829   */\n  mload\n    /* \"#utility.yul\":4861:4909   */\n  tag_114\n    /* \"#utility.yul\":4903:4907   */\n  0x1f\n    /* \"#utility.yul\":4895:4901   */\n  dup10\n    /* \"#utility.yul\":4891:4908   */\n  and\n    /* \"#utility.yul\":4880:4889   */\n  dup3\n    /* \"#utility.yul\":4861:4909   */\n  tag_46\n  jump\t// in\ntag_114:\n    /* \"#utility.yul\":4853:4859   */\n  dup4\n    /* \"#utility.yul\":4846:4910   */\n  sstore\n    /* \"#utility.yul\":4768:4924   */\n  pop\n    /* \"#utility.yul\":4745:4924   */\ntag_113:\n    /* \"#utility.yul\":4970:4971   */\n  0x01\n    /* \"#utility.yul\":4966:4967   */\n  0x02\n    /* \"#utility.yul\":4958:4964   */\n  dup9\n    /* \"#utility.yul\":4954:4968   */\n  mul\n    /* \"#utility.yul\":4950:4972   */\n  add\n    /* \"#utility.yul\":4944:4948   */\n  dup9\n    /* \"#utility.yul\":4937:4973   */\n  sstore\n    /* \"#utility.yul\":4372:4983   */\n  pop\n  pop\n  pop\n    /* \"#utility.yul\":4335:5222   */\ntag_105:\n  pop\n    /* \"#utility.yul\":3925:5228   */\n  pop\n  pop\n  pop\n    /* \"#utility.yul\":3833:5228   */\n  pop\n  pop\n  jump\t// out\n    /* \"#utility.yul\":5234:5403   */\ntag_48:\n    /* \"#utility.yul\":5318:5329   */\n  0x00\n    /* \"#utility.yul\":5352:5358   */\n  dup3\n    /* \"#utility.yul\":5347:5350   */\n  dup3\n    /* \"#utility.yul\":5340:5359   */\n  mstore\n    /* \"#utility.yul\":5392:5396   */\n  0x20\n    /* \"#utility.yul\":5387:5390   */\n  dup3\n    /* \"#utility.yul\":5383:5397   */\n  add\n    /* \"#utility.yul\":5368:5397   */\n  swap1\n  pop\n    /* \"#utility.yul\":5234:5403   */\n  swap3\n  swap2\n  pop\n  pop\n  jump\t// out\n    /* \"#utility.yul\":5409:5590   */\ntag_49:\n    /* \"#utility.yul\":5549:5582   */\n  0x45524332303a206d696e7420746f20746865207a65726f206164647265737300\n    /* \"#utility.yul\":5545:5546   */\n  0x00\n    /* \"#utility.yul\":5537:5543   */\n  dup3\n    /* \"#utility.yul\":5533:5547   */\n  add\n    /* \"#utility.yul\":5526:5583   */\n  mstore\n    /* \"#utility.yul\":5409:5590   */\n  pop\n  jump\t// out\n    /* \"#utility.yul\":5596:5962   */\ntag_50:\n    /* \"#utility.yul\":5738:5741   */\n  0x00\n    /* \"#utility.yul\":5759:5826   */\n  tag_118\n    /* \"#utility.yul\":5823:5825   */\n  0x1f\n    /* \"#utility.yul\":5818:5821   */\n  dup4\n    /* \"#utility.yul\":5759:5826   */\n  tag_48\n  jump\t// in\ntag_118:\n    /* \"#utility.yul\":5752:5826   */\n  swap2\n  pop\n    /* \"#utility.yul\":5835:5928   */\n  tag_119\n    /* \"#utility.yul\":5924:5927   */\n  dup3\n    /* \"#utility.yul\":5835:5928   */\n  tag_49\n  jump\t// in\ntag_119:\n    /* \"#utility.yul\":5953:5955   */\n  0x20\n    /* \"#utility.yul\":5948:5951   */\n  dup3\n    /* \"#utility.yul\":5944:5956   */\n  add\n    /* \"#utility.yul\":5937:5956   */\n  swap1\n  pop\n    /* \"#utility.yul\":5596:5962   */\n  swap2\n  swap1\n  pop\n  jump\t// out\n    /* \"#utility.yul\":5968:6387   */\ntag_16:\n    /* \"#utility.yul\":6134:6138   */\n  0x00\n    /* \"#utility.yul\":6172:6174   */\n  0x20\n    /* \"#utility.yul\":6161:6170   */\n  dup3\n    /* \"#utility.yul\":6157:6175   */\n  add\n    /* \"#utility.yul\":6149:6175   */\n  swap1\n  pop\n    /* \"#utility.yul\":6221:6230   */\n  dup2\n    /* \"#utility.yul\":6215:6219   */\n  dup2\n    /* \"#utility.yul\":6211:6231   */\n  sub\n    /* \"#utility.yul\":6207:6208   */\n  0x00\n    /* \"#utility.yul\":6196:6205   */\n  dup4\n    /* \"#utility.yul\":6192:6209   */\n  add\n    /* \"#utility.yul\":6185:6232   */\n  mstore\n    /* \"#utility.yul\":6249:6380   */\n  tag_121\n    /* \"#utility.yul\":6375:6379   */\n  dup2\n    /* \"#utility.yul\":6249:6380   */\n  tag_50\n  jump\t// in\ntag_121:\n    /* \"#utility.yul\":6241:6380   */\n  swap1\n  pop\n    /* \"#utility.yul\":5968:6387   */\n  swap2\n  swap1\n  pop\n  jump\t// out\n    /* \"#utility.yul\":6393:6573   */\ntag_51:\n    /* \"#utility.yul\":6441:6518   */\n  0x4e487b7100000000000000000000000000000000000000000000000000000000\n    /* \"#utility.yul\":6438:6439   */\n  0x00\n    /* \"#utility.yul\":6431:6519   */\n  mstore\n    /* \"#utility.yul\":6538:6542   */\n  0x11\n    /* \"#utility.yul\":6535:6536   */\n  0x04\n    /* \"#utility.yul\":6528:6543   */\n  mstore\n    /* \"#utility.yul\":6562:6566   */\n  0x24\n    /* \"#utility.yul\":6559:6560   */\n  0x00\n    /* \"#utility.yul\":6552:6567   */\n  revert\n    /* \"#utility.yul\":6579:6770   */\ntag_20:\n    /* \"#utility.yul\":6619:6622   */\n  0x00\n    /* \"#utility.yul\":6638:6658   */\n  tag_124\n    /* \"#utility.yul\":6656:6657   */\n  dup3\n    /* \"#utility.yul\":6638:6658   */\n  tag_36\n  jump\t// in\ntag_124:\n    /* \"#utility.yul\":6633:6658   */\n  swap2\n  pop\n    /* \"#utility.yul\":6672:6692   */\n  tag_125\n    /* \"#utility.yul\":6690:6691   */\n  dup4\n    /* \"#utility.yul\":6672:6692   */\n  tag_36\n  jump\t// in\ntag_125:\n    /* \"#utility.yul\":6667:6692   */\n  swap3\n  pop\n    /* \"#utility.yul\":6715:6716   */\n  dup3\n    /* \"#utility.yul\":6712:6713   */\n  dup3\n    /* \"#utility.yul\":6708:6717   */\n  add\n    /* \"#utility.yul\":6701:6717   */\n  swap1\n  pop\n    /* \"#utility.yul\":6736:6739   */\n  dup1\n    /* \"#utility.yul\":6733:6734   */\n  dup3\n    /* \"#utility.yul\":6730:6740   */\n  gt\n    /* \"#utility.yul\":6727:6763   */\n  iszero\n  tag_126\n  jumpi\n    /* \"#utility.yul\":6743:6761   */\n  tag_127\n  tag_51\n  jump\t// in\ntag_127:\n    /* \"#utility.yul\":6727:6763   */\ntag_126:\n    /* \"#utility.yul\":6579:6770   */\n  swap3\n  swap2\n  pop\n  pop\n  jump\t// out\n    /* \"#utility.yul\":6776:6894   */\ntag_52:\n    /* \"#utility.yul\":6863:6887   */\n  tag_129\n    /* \"#utility.yul\":6881:6886   */\n  dup2\n    /* \"#utility.yul\":6863:6887   */\n  tag_36\n  jump\t// in\ntag_129:\n    /* \"#utility.yul\":6858:6861   */\n  dup3\n    /* \"#utility.yul\":6851:6888   */\n  mstore\n    /* \"#utility.yul\":6776:6894   */\n  pop\n  pop\n  jump\t// out\n    /* \"#utility.yul\":6900:7122   */\ntag_23:\n    /* \"#utility.yul\":6993:6997   */\n  0x00\n    /* \"#utility.yul\":7031:7033   */\n  0x20\n    /* \"#utility.yul\":7020:7029   */\n  dup3\n    /* \"#utility.yul\":7016:7034   */\n  add\n    /* \"#utility.yul\":7008:7034   */\n  swap1\n  pop\n    /* \"#utility.yul\":7044:7115   */\n  tag_131\n    /* \"#utility.yul\":7112:7113   */\n  0x00\n    /* \"#utility.yul\":7101:7110   */\n  dup4\n    /* \"#utility.yul\":7097:7114   */\n  add\n    /* \"#utility.yul\":7088:7094   */\n  dup5\n    /* \"#utility.yul\":7044:7115   */\n  tag_52\n  jump\t// in\ntag_131:\n    /* \"#utility.yul\":6900:7122   */\n  swap3\n  swap2\n  pop\n  pop\n  jump\t// out\n    /* \"contracts/Lottery.sol\":205:3708  contract Lottery is ERC20  {... */\ntag_12:\n  dataSize(sub_0)\n  dup1\n  dataOffset(sub_0)\n  0x00\n  codecopy\n  0x00\n  return\nstop\n\nsub_0: assembly {\n        /* \"contracts/Lottery.sol\":205:3708  contract Lottery is ERC20  {... */\n      mstore(0x40, 0x80)\n      jumpi(tag_1, lt(calldatasize, 0x04))\n      shr(0xe0, calldataload(0x00))\n      dup1\n      0x7cdf7547\n      gt\n      tag_21\n      jumpi\n      dup1\n      0xcbdd69b5\n      gt\n      tag_22\n      jumpi\n      dup1\n      0xcbdd69b5\n      eq\n      tag_16\n      jumpi\n      dup1\n      0xdd62ed3e\n      eq\n      tag_17\n      jumpi\n      dup1\n      0xe97dcb62\n      eq\n      tag_18\n      jumpi\n      dup1\n      0xf71d96cb\n      eq\n      tag_19\n      jumpi\n      dup1\n      0xf851a440\n      eq\n      tag_20\n      jumpi\n      jump(tag_2)\n    tag_22:\n      dup1\n      0x7cdf7547\n      eq\n      tag_12\n      jumpi\n      dup1\n      0x95d89b41\n      eq\n      tag_13\n      jumpi\n      dup1\n      0xa457c2d7\n      eq\n      tag_14\n      jumpi\n      dup1\n      0xa9059cbb\n      eq\n      tag_15\n      jumpi\n      jump(tag_2)\n    tag_21:\n      dup1\n      0x23b872dd\n      gt\n      tag_23\n      jumpi\n      dup1\n      0x23b872dd\n      eq\n      tag_7\n      jumpi\n      dup1\n      0x313ce567\n      eq\n      tag_8\n      jumpi\n      dup1\n      0x39509351\n      eq\n      tag_9\n      jumpi\n      dup1\n      0x5d495aea\n      eq\n      tag_10\n      jumpi\n      dup1\n      0x70a08231\n      eq\n      tag_11\n      jumpi\n      jump(tag_2)\n    tag_23:\n      dup1\n      0x06fdde03\n      eq\n      tag_3\n      jumpi\n      dup1\n      0x095ea7b3\n      eq\n      tag_4\n      jumpi\n      dup1\n      0x12065fe0\n      eq\n      tag_5\n      jumpi\n      dup1\n      0x18160ddd\n      eq\n      tag_6\n      jumpi\n      jump(tag_2)\n    tag_1:\n      jumpi(tag_2, calldatasize)\n        /* \"contracts/Lottery.sol\":1666:1675  0.1 ether */\n      0x016345785d8a0000\n        /* \"contracts/Lottery.sol\":1653:1662  msg.value */\n      callvalue\n        /* \"contracts/Lottery.sol\":1653:1675  msg.value == 0.1 ether */\n      eq\n        /* \"contracts/Lottery.sol\":1645:1707  require(msg.value == 0.1 ether , \"Must send 0.1 ether amount\") */\n      tag_26\n      jumpi\n      mload(0x40)\n      0x08c379a000000000000000000000000000000000000000000000000000000000\n      dup2\n      mstore\n      0x04\n      add\n      tag_27\n      swap1\n      tag_28\n      jump\t// in\n    tag_27:\n      mload(0x40)\n      dup1\n      swap2\n      sub\n      swap1\n      revert\n    tag_26:\n        /* \"contracts/Lottery.sol\":1799:1804  admin */\n      0x06\n      0x00\n      swap1\n      sload\n      swap1\n      0x0100\n      exp\n      swap1\n      div\n      0xffffffffffffffffffffffffffffffffffffffff\n      and\n        /* \"contracts/Lottery.sol\":1785:1804  msg.sender != admin */\n      0xffffffffffffffffffffffffffffffffffffffff\n      and\n        /* \"contracts/Lottery.sol\":1785:1795  msg.sender */\n      caller\n        /* \"contracts/Lottery.sol\":1785:1804  msg.sender != admin */\n      0xffffffffffffffffffffffffffffffffffffffff\n      and\n      sub\n        /* \"contracts/Lottery.sol\":1777:1805  require(msg.sender != admin) */\n      tag_29\n      jumpi\n      0x00\n      dup1\n      revert\n    tag_29:\n        /* \"contracts/Lottery.sol\":1902:1909  players */\n      0x05\n        /* \"contracts/Lottery.sol\":1923:1933  msg.sender */\n      caller\n        /* \"contracts/Lottery.sol\":1902:1935  players.push(payable(msg.sender)) */\n      swap1\n      dup1\n      0x01\n      dup2\n      sload\n      add\n      dup1\n      dup3\n      sstore\n      dup1\n      swap2\n      pop\n      pop\n      0x01\n      swap1\n      sub\n      swap1\n      0x00\n      mstore\n      keccak256(0x00, 0x20)\n      add\n      0x00\n      swap1\n      swap2\n      swap1\n      swap2\n      swap1\n      swap2\n      0x0100\n      exp\n      dup2\n      sload\n      dup2\n      0xffffffffffffffffffffffffffffffffffffffff\n      mul\n      not\n      and\n      swap1\n      dup4\n      0xffffffffffffffffffffffffffffffffffffffff\n      and\n      mul\n      or\n      swap1\n      sstore\n      stop\n        /* \"contracts/Lottery.sol\":205:3708  contract Lottery is ERC20  {... */\n    tag_2:\n      0x00\n      dup1\n      revert\n        /* \"@openzeppelin/contracts/token/ERC20/ERC20.sol\":2156:2254  function name() public view virtual override returns (string memory) {... */\n    tag_3:\n      callvalue\n      dup1\n      iszero\n      tag_31\n      jumpi\n      0x00\n      dup1\n      revert\n    tag_31:\n      pop\n      tag_32\n      tag_33\n      jump\t// in\n    tag_32:\n      mload(0x40)\n      tag_34\n      swap2\n      swap1\n      tag_35\n      jump\t// in\n    tag_34:\n      mload(0x40)\n      dup1\n      swap2\n      sub\n      swap1\n      return\n        /* \"@openzeppelin/contracts/token/ERC20/ERC20.sol\":4433:4630  function approve(address spender, uint256 amount) public virtual override returns (bool) {... */\n    tag_4:\n      callvalue\n      dup1\n      iszero\n      tag_36\n      jumpi\n      0x00\n      dup1\n      revert\n    tag_36:\n      pop\n      tag_37\n      0x04\n      dup1\n      calldatasize\n      sub\n      dup2\n      add\n      swap1\n      tag_38\n      swap2\n      swap1\n      tag_39\n      jump\t// in\n    tag_38:\n      tag_40\n      jump\t// in\n    tag_37:\n      mload(0x40)\n      tag_41\n      swap2\n      swap1\n      tag_42\n      jump\t// in\n    tag_41:\n      mload(0x40)\n      dup1\n      swap2\n      sub\n      swap1\n      return\n        /* \"contracts/Lottery.sol\":2031:2192  function getBalance() public view onlyOwner returns(uint){... */\n    tag_5:\n      callvalue\n      dup1\n      iszero\n      tag_43\n      jumpi\n      0x00\n      dup1\n      revert\n    tag_43:\n      pop\n      tag_44\n      tag_45\n      jump\t// in\n    tag_44:\n      mload(0x40)\n      tag_46\n      swap2\n      swap1\n      tag_47\n      jump\t// in\n    tag_46:\n      mload(0x40)\n      dup1\n      swap2\n      sub\n      swap1\n      return\n        /* \"@openzeppelin/contracts/token/ERC20/ERC20.sol\":3244:3350  function totalSupply() public view virtual override returns (uint256) {... */\n    tag_6:\n      callvalue\n      dup1\n      iszero\n      tag_48\n      jumpi\n      0x00\n      dup1\n      revert\n    tag_48:\n      pop\n      tag_49\n      tag_50\n      jump\t// in\n    tag_49:\n      mload(0x40)\n      tag_51\n      swap2\n      swap1\n      tag_47\n      jump\t// in\n    tag_51:\n      mload(0x40)\n      dup1\n      swap2\n      sub\n      swap1\n      return\n        /* \"@openzeppelin/contracts/token/ERC20/ERC20.sol\":5192:5478  function transferFrom(... */\n    tag_7:\n      callvalue\n      dup1\n      iszero\n      tag_52\n      jumpi\n      0x00\n      dup1\n      revert\n    tag_52:\n      pop\n      tag_53\n      0x04\n      dup1\n      calldatasize\n      sub\n      dup2\n      add\n      swap1\n      tag_54\n      swap2\n      swap1\n      tag_55\n      jump\t// in\n    tag_54:\n      tag_56\n      jump\t// in\n    tag_53:\n      mload(0x40)\n      tag_57\n      swap2\n      swap1\n      tag_42\n      jump\t// in\n    tag_57:\n      mload(0x40)\n      dup1\n      swap2\n      sub\n      swap1\n      return\n        /* \"@openzeppelin/contracts/token/ERC20/ERC20.sol\":3093:3184  function decimals() public view virtual override returns (uint8) {... */\n    tag_8:\n      callvalue\n      dup1\n      iszero\n      tag_58\n      jumpi\n      0x00\n      dup1\n      revert\n    tag_58:\n      pop\n      tag_59\n      tag_60\n      jump\t// in\n    tag_59:\n      mload(0x40)\n      tag_61\n      swap2\n      swap1\n      tag_62\n      jump\t// in\n    tag_61:\n      mload(0x40)\n      dup1\n      swap2\n      sub\n      swap1\n      return\n        /* \"@openzeppelin/contracts/token/ERC20/ERC20.sol\":5873:6107  function increaseAllowance(address spender, uint256 addedValue) public virtual returns (bool) {... */\n    tag_9:\n      callvalue\n      dup1\n      iszero\n      tag_63\n      jumpi\n      0x00\n      dup1\n      revert\n    tag_63:\n      pop\n      tag_64\n      0x04\n      dup1\n      calldatasize\n      sub\n      dup2\n      add\n      swap1\n      tag_65\n      swap2\n      swap1\n      tag_39\n      jump\t// in\n    tag_65:\n      tag_66\n      jump\t// in\n    tag_64:\n      mload(0x40)\n      tag_67\n      swap2\n      swap1\n      tag_42\n      jump\t// in\n    tag_67:\n      mload(0x40)\n      dup1\n      swap2\n      sub\n      swap1\n      return\n        /* \"contracts/Lottery.sol\":2579:3357  function pickWinner() public onlyOwner {... */\n    tag_10:\n      callvalue\n      dup1\n      iszero\n      tag_68\n      jumpi\n      0x00\n      dup1\n      revert\n    tag_68:\n      pop\n      tag_69\n      tag_70\n      jump\t// in\n    tag_69:\n      stop\n        /* \"@openzeppelin/contracts/token/ERC20/ERC20.sol\":3408:3533  function balanceOf(address account) public view virtual override returns (uint256) {... */\n    tag_11:\n      callvalue\n      dup1\n      iszero\n      tag_71\n      jumpi\n      0x00\n      dup1\n      revert\n    tag_71:\n      pop\n      tag_72\n      0x04\n      dup1\n      calldatasize\n      sub\n      dup2\n      add\n      swap1\n      tag_73\n      swap2\n      swap1\n      tag_74\n      jump\t// in\n    tag_73:\n      tag_75\n      jump\t// in\n    tag_72:\n      mload(0x40)\n      tag_76\n      swap2\n      swap1\n      tag_47\n      jump\t// in\n    tag_76:\n      mload(0x40)\n      dup1\n      swap2\n      sub\n      swap1\n      return\n        /* \"contracts/Lottery.sol\":1298:1462  function getMyToken() public view returns(uint256) {... */\n    tag_12:\n      callvalue\n      dup1\n      iszero\n      tag_77\n      jumpi\n      0x00\n      dup1\n      revert\n    tag_77:\n      pop\n      tag_78\n      tag_79\n      jump\t// in\n    tag_78:\n      mload(0x40)\n      tag_80\n      swap2\n      swap1\n      tag_47\n      jump\t// in\n    tag_80:\n      mload(0x40)\n      dup1\n      swap2\n      sub\n      swap1\n      return\n        /* \"@openzeppelin/contracts/token/ERC20/ERC20.sol\":2367:2469  function symbol() public view virtual override returns (string memory) {... */\n    tag_13:\n      callvalue\n      dup1\n      iszero\n      tag_81\n      jumpi\n      0x00\n      dup1\n      revert\n    tag_81:\n      pop\n      tag_82\n      tag_83\n      jump\t// in\n    tag_82:\n      mload(0x40)\n      tag_84\n      swap2\n      swap1\n      tag_35\n      jump\t// in\n    tag_84:\n      mload(0x40)\n      dup1\n      swap2\n      sub\n      swap1\n      return\n        /* \"@openzeppelin/contracts/token/ERC20/ERC20.sol\":6594:7021  function decreaseAllowance(address spender, uint256 subtractedValue) public virtual returns (bool) {... */\n    tag_14:\n      callvalue\n      dup1\n      iszero\n      tag_85\n      jumpi\n      0x00\n      dup1\n      revert\n    tag_85:\n      pop\n      tag_86\n      0x04\n      dup1\n      calldatasize\n      sub\n      dup2\n      add\n      swap1\n      tag_87\n      swap2\n      swap1\n      tag_39\n      jump\t// in\n    tag_87:\n      tag_88\n      jump\t// in\n    tag_86:\n      mload(0x40)\n      tag_89\n      swap2\n      swap1\n      tag_42\n      jump\t// in\n    tag_89:\n      mload(0x40)\n      dup1\n      swap2\n      sub\n      swap1\n      return\n        /* \"@openzeppelin/contracts/token/ERC20/ERC20.sol\":3729:3918  function transfer(address to, uint256 amount) public virtual override returns (bool) {... */\n    tag_15:\n      callvalue\n      dup1\n      iszero\n      tag_90\n      jumpi\n      0x00\n      dup1\n      revert\n    tag_90:\n      pop\n      tag_91\n      0x04\n      dup1\n      calldatasize\n      sub\n      dup2\n      add\n      swap1\n      tag_92\n      swap2\n      swap1\n      tag_39\n      jump\t// in\n    tag_92:\n      tag_93\n      jump\t// in\n    tag_91:\n      mload(0x40)\n      tag_94\n      swap2\n      swap1\n      tag_42\n      jump\t// in\n    tag_94:\n      mload(0x40)\n      dup1\n      swap2\n      sub\n      swap1\n      return\n        /* \"contracts/Lottery.sol\":365:397  uint256 public tokensPerEth = 10 */\n    tag_16:\n      callvalue\n      dup1\n      iszero\n      tag_95\n      jumpi\n      0x00\n      dup1\n      revert\n    tag_95:\n      pop\n      tag_96\n      tag_97\n      jump\t// in\n    tag_96:\n      mload(0x40)\n      tag_98\n      swap2\n      swap1\n      tag_47\n      jump\t// in\n    tag_98:\n      mload(0x40)\n      dup1\n      swap2\n      sub\n      swap1\n      return\n        /* \"@openzeppelin/contracts/token/ERC20/ERC20.sol\":3976:4125  function allowance(address owner, address spender) public view virtual override returns (uint256) {... */\n    tag_17:\n      callvalue\n      dup1\n      iszero\n      tag_99\n      jumpi\n      0x00\n      dup1\n      revert\n    tag_99:\n      pop\n      tag_100\n      0x04\n      dup1\n      calldatasize\n      sub\n      dup2\n      add\n      swap1\n      tag_101\n      swap2\n      swap1\n      tag_102\n      jump\t// in\n    tag_101:\n      tag_103\n      jump\t// in\n    tag_100:\n      mload(0x40)\n      tag_104\n      swap2\n      swap1\n      tag_47\n      jump\t// in\n    tag_104:\n      mload(0x40)\n      dup1\n      swap2\n      sub\n      swap1\n      return\n        /* \"contracts/Lottery.sol\":989:1292  function enter() public payable{... */\n    tag_18:\n      tag_105\n      tag_106\n      jump\t// in\n    tag_105:\n      stop\n        /* \"contracts/Lottery.sol\":278:310  address payable[] public players */\n    tag_19:\n      callvalue\n      dup1\n      iszero\n      tag_107\n      jumpi\n      0x00\n      dup1\n      revert\n    tag_107:\n      pop\n      tag_108\n      0x04\n      dup1\n      calldatasize\n      sub\n      dup2\n      add\n      swap1\n      tag_109\n      swap2\n      swap1\n      tag_110\n      jump\t// in\n    tag_109:\n      tag_111\n      jump\t// in\n    tag_108:\n      mload(0x40)\n      tag_112\n      swap2\n      swap1\n      tag_113\n      jump\t// in\n    tag_112:\n      mload(0x40)\n      dup1\n      swap2\n      sub\n      swap1\n      return\n        /* \"contracts/Lottery.sol\":339:359  address public admin */\n    tag_20:\n      callvalue\n      dup1\n      iszero\n      tag_114\n      jumpi\n      0x00\n      dup1\n      revert\n    tag_114:\n      pop\n      tag_115\n      tag_116\n      jump\t// in\n    tag_115:\n      mload(0x40)\n      tag_117\n      swap2\n      swap1\n      tag_118\n      jump\t// in\n    tag_117:\n      mload(0x40)\n      dup1\n      swap2\n      sub\n      swap1\n      return\n        /* \"@openzeppelin/contracts/token/ERC20/ERC20.sol\":2156:2254  function name() public view virtual override returns (string memory) {... */\n    tag_33:\n        /* \"@openzeppelin/contracts/token/ERC20/ERC20.sol\":2210:2223  string memory */\n      0x60\n        /* \"@openzeppelin/contracts/token/ERC20/ERC20.sol\":2242:2247  _name */\n      0x03\n        /* \"@openzeppelin/contracts/token/ERC20/ERC20.sol\":2235:2247  return _name */\n      dup1\n      sload\n      tag_120\n      swap1\n      tag_121\n      jump\t// in\n    tag_120:\n      dup1\n      0x1f\n      add\n      0x20\n      dup1\n      swap2\n      div\n      mul\n      0x20\n      add\n      mload(0x40)\n      swap1\n      dup2\n      add\n      0x40\n      mstore\n      dup1\n      swap3\n      swap2\n      swap1\n      dup2\n      dup2\n      mstore\n      0x20\n      add\n      dup3\n      dup1\n      sload\n      tag_122\n      swap1\n      tag_121\n      jump\t// in\n    tag_122:\n      dup1\n      iszero\n      tag_123\n      jumpi\n      dup1\n      0x1f\n      lt\n      tag_124\n      jumpi\n      0x0100\n      dup1\n      dup4\n      sload\n      div\n      mul\n      dup4\n      mstore\n      swap2\n      0x20\n      add\n      swap2\n      jump(tag_123)\n    tag_124:\n      dup3\n      add\n      swap2\n      swap1\n      0x00\n      mstore\n      keccak256(0x00, 0x20)\n      swap1\n    tag_125:\n      dup2\n      sload\n      dup2\n      mstore\n      swap1\n      0x01\n      add\n      swap1\n      0x20\n      add\n      dup1\n      dup4\n      gt\n      tag_125\n      jumpi\n      dup3\n      swap1\n      sub\n      0x1f\n      and\n      dup3\n      add\n      swap2\n    tag_123:\n      pop\n      pop\n      pop\n      pop\n      pop\n      swap1\n      pop\n        /* \"@openzeppelin/contracts/token/ERC20/ERC20.sol\":2156:2254  function name() public view virtual override returns (string memory) {... */\n      swap1\n      jump\t// out\n        /* \"@openzeppelin/contracts/token/ERC20/ERC20.sol\":4433:4630  function approve(address spender, uint256 amount) public virtual override returns (bool) {... */\n    tag_40:\n        /* \"@openzeppelin/contracts/token/ERC20/ERC20.sol\":4516:4520  bool */\n      0x00\n        /* \"@openzeppelin/contracts/token/ERC20/ERC20.sol\":4532:4545  address owner */\n      dup1\n        /* \"@openzeppelin/contracts/token/ERC20/ERC20.sol\":4548:4560  _msgSender() */\n      tag_127\n        /* \"@openzeppelin/contracts/token/ERC20/ERC20.sol\":4548:4558  _msgSender */\n      tag_128\n        /* \"@openzeppelin/contracts/token/ERC20/ERC20.sol\":4548:4560  _msgSender() */\n      jump\t// in\n    tag_127:\n        /* \"@openzeppelin/contracts/token/ERC20/ERC20.sol\":4532:4560  address owner = _msgSender() */\n      swap1\n      pop\n        /* \"@openzeppelin/contracts/token/ERC20/ERC20.sol\":4570:4602  _approve(owner, spender, amount) */\n      tag_129\n        /* \"@openzeppelin/contracts/token/ERC20/ERC20.sol\":4579:4584  owner */\n      dup2\n        /* \"@openzeppelin/contracts/token/ERC20/ERC20.sol\":4586:4593  spender */\n      dup6\n        /* \"@openzeppelin/contracts/token/ERC20/ERC20.sol\":4595:4601  amount */\n      dup6\n        /* \"@openzeppelin/contracts/token/ERC20/ERC20.sol\":4570:4578  _approve */\n      tag_130\n        /* \"@openzeppelin/contracts/token/ERC20/ERC20.sol\":4570:4602  _approve(owner, spender, amount) */\n      jump\t// in\n    tag_129:\n        /* \"@openzeppelin/contracts/token/ERC20/ERC20.sol\":4619:4623  true */\n      0x01\n        /* \"@openzeppelin/contracts/token/ERC20/ERC20.sol\":4612:4623  return true */\n      swap2\n      pop\n      pop\n        /* \"@openzeppelin/contracts/token/ERC20/ERC20.sol\":4433:4630  function approve(address spender, uint256 amount) public virtual override returns (bool) {... */\n      swap3\n      swap2\n      pop\n      pop\n      jump\t// out\n        /* \"contracts/Lottery.sol\":2031:2192  function getBalance() public view onlyOwner returns(uint){... */\n    tag_45:\n        /* \"contracts/Lottery.sol\":2083:2087  uint */\n      0x00\n        /* \"contracts/Lottery.sol\":863:873  msg.sender */\n      caller\n        /* \"contracts/Lottery.sol\":854:873  admin == msg.sender */\n      0xffffffffffffffffffffffffffffffffffffffff\n      and\n        /* \"contracts/Lottery.sol\":854:859  admin */\n      0x06\n      0x00\n      swap1\n      sload\n      swap1\n      0x0100\n      exp\n      swap1\n      div\n      0xffffffffffffffffffffffffffffffffffffffff\n      and\n        /* \"contracts/Lottery.sol\":854:873  admin == msg.sender */\n      0xffffffffffffffffffffffffffffffffffffffff\n      and\n      eq\n        /* \"contracts/Lottery.sol\":846:899  require(admin == msg.sender, \"You are not the owner\") */\n      tag_132\n      jumpi\n      mload(0x40)\n      0x08c379a000000000000000000000000000000000000000000000000000000000\n      dup2\n      mstore\n      0x04\n      add\n      tag_133\n      swap1\n      tag_134\n      jump\t// in\n    tag_133:\n      mload(0x40)\n      dup1\n      swap2\n      sub\n      swap1\n      revert\n    tag_132:\n        /* \"contracts/Lottery.sol\":2164:2185  address(this).balance */\n      selfbalance\n        /* \"contracts/Lottery.sol\":2157:2185  return address(this).balance */\n      swap1\n      pop\n        /* \"contracts/Lottery.sol\":2031:2192  function getBalance() public view onlyOwner returns(uint){... */\n      swap1\n      jump\t// out\n        /* \"@openzeppelin/contracts/token/ERC20/ERC20.sol\":3244:3350  function totalSupply() public view virtual override returns (uint256) {... */\n    tag_50:\n        /* \"@openzeppelin/contracts/token/ERC20/ERC20.sol\":3305:3312  uint256 */\n      0x00\n        /* \"@openzeppelin/contracts/token/ERC20/ERC20.sol\":3331:3343  _totalSupply */\n      sload(0x02)\n        /* \"@openzeppelin/contracts/token/ERC20/ERC20.sol\":3324:3343  return _totalSupply */\n      swap1\n      pop\n        /* \"@openzeppelin/contracts/token/ERC20/ERC20.sol\":3244:3350  function totalSupply() public view virtual override returns (uint256) {... */\n      swap1\n      jump\t// out\n        /* \"@openzeppelin/contracts/token/ERC20/ERC20.sol\":5192:5478  function transferFrom(... */\n    tag_56:\n        /* \"@openzeppelin/contracts/token/ERC20/ERC20.sol\":5319:5323  bool */\n      0x00\n        /* \"@openzeppelin/contracts/token/ERC20/ERC20.sol\":5335:5350  address spender */\n      dup1\n        /* \"@openzeppelin/contracts/token/ERC20/ERC20.sol\":5353:5365  _msgSender() */\n      tag_138\n        /* \"@openzeppelin/contracts/token/ERC20/ERC20.sol\":5353:5363  _msgSender */\n      tag_128\n        /* \"@openzeppelin/contracts/token/ERC20/ERC20.sol\":5353:5365  _msgSender() */\n      jump\t// in\n    tag_138:\n        /* \"@openzeppelin/contracts/token/ERC20/ERC20.sol\":5335:5365  address spender = _msgSender() */\n      swap1\n      pop\n        /* \"@openzeppelin/contracts/token/ERC20/ERC20.sol\":5375:5413  _spendAllowance(from, spender, amount) */\n      tag_139\n        /* \"@openzeppelin/contracts/token/ERC20/ERC20.sol\":5391:5395  from */\n      dup6\n        /* \"@openzeppelin/contracts/token/ERC20/ERC20.sol\":5397:5404  spender */\n      dup3\n        /* \"@openzeppelin/contracts/token/ERC20/ERC20.sol\":5406:5412  amount */\n      dup6\n        /* \"@openzeppelin/contracts/token/ERC20/ERC20.sol\":5375:5390  _spendAllowance */\n      tag_140\n        /* \"@openzeppelin/contracts/token/ERC20/ERC20.sol\":5375:5413  _spendAllowance(from, spender, amount) */\n      jump\t// in\n    tag_139:\n        /* \"@openzeppelin/contracts/token/ERC20/ERC20.sol\":5423:5450  _transfer(from, to, amount) */\n      tag_141\n        /* \"@openzeppelin/contracts/token/ERC20/ERC20.sol\":5433:5437  from */\n      dup6\n        /* \"@openzeppelin/contracts/token/ERC20/ERC20.sol\":5439:5441  to */\n      dup6\n        /* \"@openzeppelin/contracts/token/ERC20/ERC20.sol\":5443:5449  amount */\n      dup6\n        /* \"@openzeppelin/contracts/token/ERC20/ERC20.sol\":5423:5432  _transfer */\n      tag_142\n        /* \"@openzeppelin/contracts/token/ERC20/ERC20.sol\":5423:5450  _transfer(from, to, amount) */\n      jump\t// in\n    tag_141:\n        /* \"@openzeppelin/contracts/token/ERC20/ERC20.sol\":5467:5471  true */\n      0x01\n        /* \"@openzeppelin/contracts/token/ERC20/ERC20.sol\":5460:5471  return true */\n      swap2\n      pop\n      pop\n        /* \"@openzeppelin/contracts/token/ERC20/ERC20.sol\":5192:5478  function transferFrom(... */\n      swap4\n      swap3\n      pop\n      pop\n      pop\n      jump\t// out\n        /* \"@openzeppelin/contracts/token/ERC20/ERC20.sol\":3093:3184  function decimals() public view virtual override returns (uint8) {... */\n    tag_60:\n        /* \"@openzeppelin/contracts/token/ERC20/ERC20.sol\":3151:3156  uint8 */\n      0x00\n        /* \"@openzeppelin/contracts/token/ERC20/ERC20.sol\":3175:3177  18 */\n      0x12\n        /* \"@openzeppelin/contracts/token/ERC20/ERC20.sol\":3168:3177  return 18 */\n      swap1\n      pop\n        /* \"@openzeppelin/contracts/token/ERC20/ERC20.sol\":3093:3184  function decimals() public view virtual override returns (uint8) {... */\n      swap1\n      jump\t// out\n        /* \"@openzeppelin/contracts/token/ERC20/ERC20.sol\":5873:6107  function increaseAllowance(address spender, uint256 addedValue) public virtual returns (bool) {... */\n    tag_66:\n        /* \"@openzeppelin/contracts/token/ERC20/ERC20.sol\":5961:5965  bool */\n      0x00\n        /* \"@openzeppelin/contracts/token/ERC20/ERC20.sol\":5977:5990  address owner */\n      dup1\n        /* \"@openzeppelin/contracts/token/ERC20/ERC20.sol\":5993:6005  _msgSender() */\n      tag_145\n        /* \"@openzeppelin/contracts/token/ERC20/ERC20.sol\":5993:6003  _msgSender */\n      tag_128\n        /* \"@openzeppelin/contracts/token/ERC20/ERC20.sol\":5993:6005  _msgSender() */\n      jump\t// in\n    tag_145:\n        /* \"@openzeppelin/contracts/token/ERC20/ERC20.sol\":5977:6005  address owner = _msgSender() */\n      swap1\n      pop\n        /* \"@openzeppelin/contracts/token/ERC20/ERC20.sol\":6015:6079  _approve(owner, spender, allowance(owner, spender) + addedValue) */\n      tag_146\n        /* \"@openzeppelin/contracts/token/ERC20/ERC20.sol\":6024:6029  owner */\n      dup2\n        /* \"@openzeppelin/contracts/token/ERC20/ERC20.sol\":6031:6038  spender */\n      dup6\n        /* \"@openzeppelin/contracts/token/ERC20/ERC20.sol\":6068:6078  addedValue */\n      dup6\n        /* \"@openzeppelin/contracts/token/ERC20/ERC20.sol\":6040:6065  allowance(owner, spender) */\n      tag_147\n        /* \"@openzeppelin/contracts/token/ERC20/ERC20.sol\":6050:6055  owner */\n      dup6\n        /* \"@openzeppelin/contracts/token/ERC20/ERC20.sol\":6057:6064  spender */\n      dup10\n        /* \"@openzeppelin/contracts/token/ERC20/ERC20.sol\":6040:6049  allowance */\n      tag_103\n        /* \"@openzeppelin/contracts/token/ERC20/ERC20.sol\":6040:6065  allowance(owner, spender) */\n      jump\t// in\n    tag_147:\n        /* \"@openzeppelin/contracts/token/ERC20/ERC20.sol\":6040:6078  allowance(owner, spender) + addedValue */\n      tag_148\n      swap2\n      swap1\n      tag_149\n      jump\t// in\n    tag_148:\n        /* \"@openzeppelin/contracts/token/ERC20/ERC20.sol\":6015:6023  _approve */\n      tag_130\n        /* \"@openzeppelin/contracts/token/ERC20/ERC20.sol\":6015:6079  _approve(owner, spender, allowance(owner, spender) + addedValue) */\n      jump\t// in\n    tag_146:\n        /* \"@openzeppelin/contracts/token/ERC20/ERC20.sol\":6096:6100  true */\n      0x01\n        /* \"@openzeppelin/contracts/token/ERC20/ERC20.sol\":6089:6100  return true */\n      swap2\n      pop\n      pop\n        /* \"@openzeppelin/contracts/token/ERC20/ERC20.sol\":5873:6107  function increaseAllowance(address spender, uint256 addedValue) public virtual returns (bool) {... */\n      swap3\n      swap2\n      pop\n      pop\n      jump\t// out\n        /* \"contracts/Lottery.sol\":2579:3357  function pickWinner() public onlyOwner {... */\n    tag_70:\n        /* \"contracts/Lottery.sol\":863:873  msg.sender */\n      caller\n        /* \"contracts/Lottery.sol\":854:873  admin == msg.sender */\n      0xffffffffffffffffffffffffffffffffffffffff\n      and\n        /* \"contracts/Lottery.sol\":854:859  admin */\n      0x06\n      0x00\n      swap1\n      sload\n      swap1\n      0x0100\n      exp\n      swap1\n      div\n      0xffffffffffffffffffffffffffffffffffffffff\n      and\n        /* \"contracts/Lottery.sol\":854:873  admin == msg.sender */\n      0xffffffffffffffffffffffffffffffffffffffff\n      and\n      eq\n        /* \"contracts/Lottery.sol\":846:899  require(admin == msg.sender, \"You are not the owner\") */\n      tag_151\n      jumpi\n      mload(0x40)\n      0x08c379a000000000000000000000000000000000000000000000000000000000\n      dup2\n      mstore\n      0x04\n      add\n      tag_152\n      swap1\n      tag_134\n      jump\t// in\n    tag_152:\n      mload(0x40)\n      dup1\n      swap2\n      sub\n      swap1\n      revert\n    tag_151:\n        /* \"contracts/Lottery.sol\":2734:2735  3 */\n      0x03\n        /* \"contracts/Lottery.sol\":2716:2723  players */\n      0x05\n        /* \"contracts/Lottery.sol\":2716:2730  players.length */\n      dup1\n      sload\n      swap1\n      pop\n        /* \"contracts/Lottery.sol\":2716:2735  players.length >= 3 */\n      lt\n      iszero\n        /* \"contracts/Lottery.sol\":2708:2774  require(players.length >= 3 , \"Not enough players in the lottery\") */\n      tag_154\n      jumpi\n      mload(0x40)\n      0x08c379a000000000000000000000000000000000000000000000000000000000\n      dup2\n      mstore\n      0x04\n      add\n      tag_155\n      swap1\n      tag_156\n      jump\t// in\n    tag_155:\n      mload(0x40)\n      dup1\n      swap2\n      sub\n      swap1\n      revert\n    tag_154:\n        /* \"contracts/Lottery.sol\":2826:2848  address payable winner */\n      0x00\n        /* \"contracts/Lottery.sol\":2867:2874  players */\n      0x05\n        /* \"contracts/Lottery.sol\":2886:2893  players */\n      dup1\n        /* \"contracts/Lottery.sol\":2886:2900  players.length */\n      dup1\n      sload\n      swap1\n      pop\n        /* \"contracts/Lottery.sol\":2875:2883  random() */\n      tag_157\n        /* \"contracts/Lottery.sol\":2875:2881  random */\n      tag_158\n        /* \"contracts/Lottery.sol\":2875:2883  random() */\n      jump\t// in\n    tag_157:\n        /* \"contracts/Lottery.sol\":2875:2900  random() % players.length */\n      tag_159\n      swap2\n      swap1\n      tag_160\n      jump\t// in\n    tag_159:\n        /* \"contracts/Lottery.sol\":2867:2901  players[random() % players.length] */\n      dup2\n      sload\n      dup2\n      lt\n      tag_161\n      jumpi\n      tag_162\n      tag_163\n      jump\t// in\n    tag_162:\n    tag_161:\n      swap1\n      0x00\n      mstore\n      keccak256(0x00, 0x20)\n      add\n      0x00\n      swap1\n      sload\n      swap1\n      0x0100\n      exp\n      swap1\n      div\n      0xffffffffffffffffffffffffffffffffffffffff\n      and\n        /* \"contracts/Lottery.sol\":2858:2901  winner = players[random() % players.length] */\n      swap1\n      pop\n        /* \"contracts/Lottery.sol\":2968:2988  uint256 winnerAmount */\n      0x00\n        /* \"contracts/Lottery.sol\":3028:3031  100 */\n      0x64\n        /* \"contracts/Lottery.sol\":3012:3024  getBalance() */\n      tag_165\n        /* \"contracts/Lottery.sol\":3012:3022  getBalance */\n      tag_45\n        /* \"contracts/Lottery.sol\":3012:3024  getBalance() */\n      jump\t// in\n    tag_165:\n        /* \"contracts/Lottery.sol\":3007:3009  90 */\n      0x5a\n        /* \"contracts/Lottery.sol\":2992:3004  getMyToken() */\n      tag_166\n        /* \"contracts/Lottery.sol\":2992:3002  getMyToken */\n      tag_79\n        /* \"contracts/Lottery.sol\":2992:3004  getMyToken() */\n      jump\t// in\n    tag_166:\n        /* \"contracts/Lottery.sol\":2992:3009  getMyToken() * 90 */\n      tag_167\n      swap2\n      swap1\n      tag_168\n      jump\t// in\n    tag_167:\n        /* \"contracts/Lottery.sol\":2992:3024  getMyToken() * 90 / getBalance() */\n      tag_169\n      swap2\n      swap1\n      tag_170\n      jump\t// in\n    tag_169:\n        /* \"contracts/Lottery.sol\":2991:3031  (getMyToken() * 90 / getBalance()) / 100 */\n      tag_171\n      swap2\n      swap1\n      tag_170\n      jump\t// in\n    tag_171:\n        /* \"contracts/Lottery.sol\":2968:3031  uint256 winnerAmount = (getMyToken() * 90 / getBalance()) / 100 */\n      swap1\n      pop\n        /* \"contracts/Lottery.sol\":3065:3074  0.0 ether */\n      0x00\n        /* \"contracts/Lottery.sol\":3049:3061  winnerAmount */\n      dup2\n        /* \"contracts/Lottery.sol\":3049:3074  winnerAmount == 0.0 ether */\n      eq\n        /* \"contracts/Lottery.sol\":3041:3110  require(winnerAmount == 0.0 ether, \"Failed to winner amount is zero\") */\n      tag_172\n      jumpi\n      mload(0x40)\n      0x08c379a000000000000000000000000000000000000000000000000000000000\n      dup2\n      mstore\n      0x04\n      add\n      tag_173\n      swap1\n      tag_174\n      jump\t// in\n    tag_173:\n      mload(0x40)\n      dup1\n      swap2\n      sub\n      swap1\n      revert\n    tag_172:\n        /* \"contracts/Lottery.sol\":3154:3163  bool sent */\n      0x00\n        /* \"contracts/Lottery.sol\":3168:3174  winner */\n      dup3\n        /* \"contracts/Lottery.sol\":3168:3179  winner.call */\n      0xffffffffffffffffffffffffffffffffffffffff\n      and\n        /* \"contracts/Lottery.sol\":3187:3199  winnerAmount */\n      dup3\n        /* \"contracts/Lottery.sol\":3168:3204  winner.call{value: winnerAmount}(\"\") */\n      mload(0x40)\n      tag_175\n      swap1\n      tag_176\n      jump\t// in\n    tag_175:\n      0x00\n      mload(0x40)\n      dup1\n      dup4\n      sub\n      dup2\n      dup6\n      dup8\n      gas\n      call\n      swap3\n      pop\n      pop\n      pop\n      returndatasize\n      dup1\n      0x00\n      dup2\n      eq\n      tag_179\n      jumpi\n      mload(0x40)\n      swap2\n      pop\n      and(add(returndatasize, 0x3f), not(0x1f))\n      dup3\n      add\n      0x40\n      mstore\n      returndatasize\n      dup3\n      mstore\n      returndatasize\n      0x00\n      0x20\n      dup5\n      add\n      returndatacopy\n      jump(tag_178)\n    tag_179:\n      0x60\n      swap2\n      pop\n    tag_178:\n      pop\n        /* \"contracts/Lottery.sol\":3153:3204  (bool sent,) = winner.call{value: winnerAmount}(\"\") */\n      pop\n      swap1\n      pop\n        /* \"contracts/Lottery.sol\":3222:3226  sent */\n      dup1\n        /* \"contracts/Lottery.sol\":3214:3276  require(sent, \"Failed to send user balance back to the owner\") */\n      tag_180\n      jumpi\n      mload(0x40)\n      0x08c379a000000000000000000000000000000000000000000000000000000000\n      dup2\n      mstore\n      0x04\n      add\n      tag_181\n      swap1\n      tag_182\n      jump\t// in\n    tag_181:\n      mload(0x40)\n      dup1\n      swap2\n      sub\n      swap1\n      revert\n    tag_180:\n        /* \"contracts/Lottery.sol\":3334:3348  resetLottery() */\n      tag_183\n        /* \"contracts/Lottery.sol\":3334:3346  resetLottery */\n      tag_184\n        /* \"contracts/Lottery.sol\":3334:3348  resetLottery() */\n      jump\t// in\n    tag_183:\n        /* \"contracts/Lottery.sol\":2618:3357  {... */\n      pop\n      pop\n      pop\n        /* \"contracts/Lottery.sol\":2579:3357  function pickWinner() public onlyOwner {... */\n      jump\t// out\n        /* \"@openzeppelin/contracts/token/ERC20/ERC20.sol\":3408:3533  function balanceOf(address account) public view virtual override returns (uint256) {... */\n    tag_75:\n        /* \"@openzeppelin/contracts/token/ERC20/ERC20.sol\":3482:3489  uint256 */\n      0x00\n        /* \"@openzeppelin/contracts/token/ERC20/ERC20.sol\":3508:3517  _balances */\n      dup1\n        /* \"@openzeppelin/contracts/token/ERC20/ERC20.sol\":3508:3526  _balances[account] */\n      0x00\n        /* \"@openzeppelin/contracts/token/ERC20/ERC20.sol\":3518:3525  account */\n      dup4\n        /* \"@openzeppelin/contracts/token/ERC20/ERC20.sol\":3508:3526  _balances[account] */\n      0xffffffffffffffffffffffffffffffffffffffff\n      and\n      0xffffffffffffffffffffffffffffffffffffffff\n      and\n      dup2\n      mstore\n      0x20\n      add\n      swap1\n      dup2\n      mstore\n      0x20\n      add\n      0x00\n      keccak256\n      sload\n        /* \"@openzeppelin/contracts/token/ERC20/ERC20.sol\":3501:3526  return _balances[account] */\n      swap1\n      pop\n        /* \"@openzeppelin/contracts/token/ERC20/ERC20.sol\":3408:3533  function balanceOf(address account) public view virtual override returns (uint256) {... */\n      swap2\n      swap1\n      pop\n      jump\t// out\n        /* \"contracts/Lottery.sol\":1298:1462  function getMyToken() public view returns(uint256) {... */\n    tag_79:\n        /* \"contracts/Lottery.sol\":1340:1347  uint256 */\n      0x00\n        /* \"contracts/Lottery.sol\":1429:1450  balanceOf(msg.sender) */\n      tag_187\n        /* \"contracts/Lottery.sol\":1439:1449  msg.sender */\n      caller\n        /* \"contracts/Lottery.sol\":1429:1438  balanceOf */\n      tag_75\n        /* \"contracts/Lottery.sol\":1429:1450  balanceOf(msg.sender) */\n      jump\t// in\n    tag_187:\n        /* \"contracts/Lottery.sol\":1422:1450  return balanceOf(msg.sender) */\n      swap1\n      pop\n        /* \"contracts/Lottery.sol\":1298:1462  function getMyToken() public view returns(uint256) {... */\n      swap1\n      jump\t// out\n        /* \"@openzeppelin/contracts/token/ERC20/ERC20.sol\":2367:2469  function symbol() public view virtual override returns (string memory) {... */\n    tag_83:\n        /* \"@openzeppelin/contracts/token/ERC20/ERC20.sol\":2423:2436  string memory */\n      0x60\n        /* \"@openzeppelin/contracts/token/ERC20/ERC20.sol\":2455:2462  _symbol */\n      0x04\n        /* \"@openzeppelin/contracts/token/ERC20/ERC20.sol\":2448:2462  return _symbol */\n      dup1\n      sload\n      tag_189\n      swap1\n      tag_121\n      jump\t// in\n    tag_189:\n      dup1\n      0x1f\n      add\n      0x20\n      dup1\n      swap2\n      div\n      mul\n      0x20\n      add\n      mload(0x40)\n      swap1\n      dup2\n      add\n      0x40\n      mstore\n      dup1\n      swap3\n      swap2\n      swap1\n      dup2\n      dup2\n      mstore\n      0x20\n      add\n      dup3\n      dup1\n      sload\n      tag_190\n      swap1\n      tag_121\n      jump\t// in\n    tag_190:\n      dup1\n      iszero\n      tag_191\n      jumpi\n      dup1\n      0x1f\n      lt\n      tag_192\n      jumpi\n      0x0100\n      dup1\n      dup4\n      sload\n      div\n      mul\n      dup4\n      mstore\n      swap2\n      0x20\n      add\n      swap2\n      jump(tag_191)\n    tag_192:\n      dup3\n      add\n      swap2\n      swap1\n      0x00\n      mstore\n      keccak256(0x00, 0x20)\n      swap1\n    tag_193:\n      dup2\n      sload\n      dup2\n      mstore\n      swap1\n      0x01\n      add\n      swap1\n      0x20\n      add\n      dup1\n      dup4\n      gt\n      tag_193\n      jumpi\n      dup3\n      swap1\n      sub\n      0x1f\n      and\n      dup3\n      add\n      swap2\n    tag_191:\n      pop\n      pop\n      pop\n      pop\n      pop\n      swap1\n      pop\n        /* \"@openzeppelin/contracts/token/ERC20/ERC20.sol\":2367:2469  function symbol() public view virtual override returns (string memory) {... */\n      swap1\n      jump\t// out\n        /* \"@openzeppelin/contracts/token/ERC20/ERC20.sol\":6594:7021  function decreaseAllowance(address spender, uint256 subtractedValue) public virtual returns (bool) {... */\n    tag_88:\n        /* \"@openzeppelin/contracts/token/ERC20/ERC20.sol\":6687:6691  bool */\n      0x00\n        /* \"@openzeppelin/contracts/token/ERC20/ERC20.sol\":6703:6716  address owner */\n      dup1\n        /* \"@openzeppelin/contracts/token/ERC20/ERC20.sol\":6719:6731  _msgSender() */\n      tag_195\n        /* \"@openzeppelin/contracts/token/ERC20/ERC20.sol\":6719:6729  _msgSender */\n      tag_128\n        /* \"@openzeppelin/contracts/token/ERC20/ERC20.sol\":6719:6731  _msgSender() */\n      jump\t// in\n    tag_195:\n        /* \"@openzeppelin/contracts/token/ERC20/ERC20.sol\":6703:6731  address owner = _msgSender() */\n      swap1\n      pop\n        /* \"@openzeppelin/contracts/token/ERC20/ERC20.sol\":6741:6765  uint256 currentAllowance */\n      0x00\n        /* \"@openzeppelin/contracts/token/ERC20/ERC20.sol\":6768:6793  allowance(owner, spender) */\n      tag_196\n        /* \"@openzeppelin/contracts/token/ERC20/ERC20.sol\":6778:6783  owner */\n      dup3\n        /* \"@openzeppelin/contracts/token/ERC20/ERC20.sol\":6785:6792  spender */\n      dup7\n        /* \"@openzeppelin/contracts/token/ERC20/ERC20.sol\":6768:6777  allowance */\n      tag_103\n        /* \"@openzeppelin/contracts/token/ERC20/ERC20.sol\":6768:6793  allowance(owner, spender) */\n      jump\t// in\n    tag_196:\n        /* \"@openzeppelin/contracts/token/ERC20/ERC20.sol\":6741:6793  uint256 currentAllowance = allowance(owner, spender) */\n      swap1\n      pop\n        /* \"@openzeppelin/contracts/token/ERC20/ERC20.sol\":6831:6846  subtractedValue */\n      dup4\n        /* \"@openzeppelin/contracts/token/ERC20/ERC20.sol\":6811:6827  currentAllowance */\n      dup2\n        /* \"@openzeppelin/contracts/token/ERC20/ERC20.sol\":6811:6846  currentAllowance >= subtractedValue */\n      lt\n      iszero\n        /* \"@openzeppelin/contracts/token/ERC20/ERC20.sol\":6803:6888  require(currentAllowance >= subtractedValue, \"ERC20: decreased allowance below zero\") */\n      tag_197\n      jumpi\n      mload(0x40)\n      0x08c379a000000000000000000000000000000000000000000000000000000000\n      dup2\n      mstore\n      0x04\n      add\n      tag_198\n      swap1\n      tag_199\n      jump\t// in\n    tag_198:\n      mload(0x40)\n      dup1\n      swap2\n      sub\n      swap1\n      revert\n    tag_197:\n        /* \"@openzeppelin/contracts/token/ERC20/ERC20.sol\":6922:6982  _approve(owner, spender, currentAllowance - subtractedValue) */\n      tag_200\n        /* \"@openzeppelin/contracts/token/ERC20/ERC20.sol\":6931:6936  owner */\n      dup3\n        /* \"@openzeppelin/contracts/token/ERC20/ERC20.sol\":6938:6945  spender */\n      dup7\n        /* \"@openzeppelin/contracts/token/ERC20/ERC20.sol\":6966:6981  subtractedValue */\n      dup7\n        /* \"@openzeppelin/contracts/token/ERC20/ERC20.sol\":6947:6963  currentAllowance */\n      dup5\n        /* \"@openzeppelin/contracts/token/ERC20/ERC20.sol\":6947:6981  currentAllowance - subtractedValue */\n      sub\n        /* \"@openzeppelin/contracts/token/ERC20/ERC20.sol\":6922:6930  _approve */\n      tag_130\n        /* \"@openzeppelin/contracts/token/ERC20/ERC20.sol\":6922:6982  _approve(owner, spender, currentAllowance - subtractedValue) */\n      jump\t// in\n    tag_200:\n        /* \"@openzeppelin/contracts/token/ERC20/ERC20.sol\":7010:7014  true */\n      0x01\n        /* \"@openzeppelin/contracts/token/ERC20/ERC20.sol\":7003:7014  return true */\n      swap3\n      pop\n      pop\n      pop\n        /* \"@openzeppelin/contracts/token/ERC20/ERC20.sol\":6594:7021  function decreaseAllowance(address spender, uint256 subtractedValue) public virtual returns (bool) {... */\n      swap3\n      swap2\n      pop\n      pop\n      jump\t// out\n        /* \"@openzeppelin/contracts/token/ERC20/ERC20.sol\":3729:3918  function transfer(address to, uint256 amount) public virtual override returns (bool) {... */\n    tag_93:\n        /* \"@openzeppelin/contracts/token/ERC20/ERC20.sol\":3808:3812  bool */\n      0x00\n        /* \"@openzeppelin/contracts/token/ERC20/ERC20.sol\":3824:3837  address owner */\n      dup1\n        /* \"@openzeppelin/contracts/token/ERC20/ERC20.sol\":3840:3852  _msgSender() */\n      tag_202\n        /* \"@openzeppelin/contracts/token/ERC20/ERC20.sol\":3840:3850  _msgSender */\n      tag_128\n        /* \"@openzeppelin/contracts/token/ERC20/ERC20.sol\":3840:3852  _msgSender() */\n      jump\t// in\n    tag_202:\n        /* \"@openzeppelin/contracts/token/ERC20/ERC20.sol\":3824:3852  address owner = _msgSender() */\n      swap1\n      pop\n        /* \"@openzeppelin/contracts/token/ERC20/ERC20.sol\":3862:3890  _transfer(owner, to, amount) */\n      tag_203\n        /* \"@openzeppelin/contracts/token/ERC20/ERC20.sol\":3872:3877  owner */\n      dup2\n        /* \"@openzeppelin/contracts/token/ERC20/ERC20.sol\":3879:3881  to */\n      dup6\n        /* \"@openzeppelin/contracts/token/ERC20/ERC20.sol\":3883:3889  amount */\n      dup6\n        /* \"@openzeppelin/contracts/token/ERC20/ERC20.sol\":3862:3871  _transfer */\n      tag_142\n        /* \"@openzeppelin/contracts/token/ERC20/ERC20.sol\":3862:3890  _transfer(owner, to, amount) */\n      jump\t// in\n    tag_203:\n        /* \"@openzeppelin/contracts/token/ERC20/ERC20.sol\":3907:3911  true */\n      0x01\n        /* \"@openzeppelin/contracts/token/ERC20/ERC20.sol\":3900:3911  return true */\n      swap2\n      pop\n      pop\n        /* \"@openzeppelin/contracts/token/ERC20/ERC20.sol\":3729:3918  function transfer(address to, uint256 amount) public virtual override returns (bool) {... */\n      swap3\n      swap2\n      pop\n      pop\n      jump\t// out\n        /* \"contracts/Lottery.sol\":365:397  uint256 public tokensPerEth = 10 */\n    tag_97:\n      sload(0x07)\n      dup2\n      jump\t// out\n        /* \"@openzeppelin/contracts/token/ERC20/ERC20.sol\":3976:4125  function allowance(address owner, address spender) public view virtual override returns (uint256) {... */\n    tag_103:\n        /* \"@openzeppelin/contracts/token/ERC20/ERC20.sol\":4065:4072  uint256 */\n      0x00\n        /* \"@openzeppelin/contracts/token/ERC20/ERC20.sol\":4091:4102  _allowances */\n      0x01\n        /* \"@openzeppelin/contracts/token/ERC20/ERC20.sol\":4091:4109  _allowances[owner] */\n      0x00\n        /* \"@openzeppelin/contracts/token/ERC20/ERC20.sol\":4103:4108  owner */\n      dup5\n        /* \"@openzeppelin/contracts/token/ERC20/ERC20.sol\":4091:4109  _allowances[owner] */\n      0xffffffffffffffffffffffffffffffffffffffff\n      and\n      0xffffffffffffffffffffffffffffffffffffffff\n      and\n      dup2\n      mstore\n      0x20\n      add\n      swap1\n      dup2\n      mstore\n      0x20\n      add\n      0x00\n      keccak256\n        /* \"@openzeppelin/contracts/token/ERC20/ERC20.sol\":4091:4118  _allowances[owner][spender] */\n      0x00\n        /* \"@openzeppelin/contracts/token/ERC20/ERC20.sol\":4110:4117  spender */\n      dup4\n        /* \"@openzeppelin/contracts/token/ERC20/ERC20.sol\":4091:4118  _allowances[owner][spender] */\n      0xffffffffffffffffffffffffffffffffffffffff\n      and\n      0xffffffffffffffffffffffffffffffffffffffff\n      and\n      dup2\n      mstore\n      0x20\n      add\n      swap1\n      dup2\n      mstore\n      0x20\n      add\n      0x00\n      keccak256\n      sload\n        /* \"@openzeppelin/contracts/token/ERC20/ERC20.sol\":4084:4118  return _allowances[owner][spender] */\n      swap1\n      pop\n        /* \"@openzeppelin/contracts/token/ERC20/ERC20.sol\":3976:4125  function allowance(address owner, address spender) public view virtual override returns (uint256) {... */\n      swap3\n      swap2\n      pop\n      pop\n      jump\t// out\n        /* \"contracts/Lottery.sol\":989:1292  function enter() public payable{... */\n    tag_106:\n        /* \"contracts/Lottery.sol\":1114:1123  0.1 ether */\n      0x016345785d8a0000\n        /* \"contracts/Lottery.sol\":1102:1111  msg.value */\n      callvalue\n        /* \"contracts/Lottery.sol\":1102:1123  msg.value > 0.1 ether */\n      gt\n        /* \"contracts/Lottery.sol\":1094:1149  require(msg.value > 0.1 ether, \"msg.value < 0.1 ether\") */\n      tag_206\n      jumpi\n      mload(0x40)\n      0x08c379a000000000000000000000000000000000000000000000000000000000\n      dup2\n      mstore\n      0x04\n      add\n      tag_207\n      swap1\n      tag_208\n      jump\t// in\n    tag_207:\n      mload(0x40)\n      dup1\n      swap2\n      sub\n      swap1\n      revert\n    tag_206:\n        /* \"contracts/Lottery.sol\":1159:1174  uint256 amounts */\n      0x00\n        /* \"contracts/Lottery.sol\":1177:1186  msg.value */\n      callvalue\n        /* \"contracts/Lottery.sol\":1159:1186  uint256 amounts = msg.value */\n      swap1\n      pop\n        /* \"contracts/Lottery.sol\":1196:1203  players */\n      0x05\n        /* \"contracts/Lottery.sol\":1217:1227  msg.sender */\n      caller\n        /* \"contracts/Lottery.sol\":1196:1229  players.push(payable(msg.sender)) */\n      swap1\n      dup1\n      0x01\n      dup2\n      sload\n      add\n      dup1\n      dup3\n      sstore\n      dup1\n      swap2\n      pop\n      pop\n      0x01\n      swap1\n      sub\n      swap1\n      0x00\n      mstore\n      keccak256(0x00, 0x20)\n      add\n      0x00\n      swap1\n      swap2\n      swap1\n      swap2\n      swap1\n      swap2\n      0x0100\n      exp\n      dup2\n      sload\n      dup2\n      0xffffffffffffffffffffffffffffffffffffffff\n      mul\n      not\n      and\n      swap1\n      dup4\n      0xffffffffffffffffffffffffffffffffffffffff\n      and\n      mul\n      or\n      swap1\n      sstore\n      pop\n        /* \"contracts/Lottery.sol\":1260:1270  msg.sender */\n      caller\n        /* \"contracts/Lottery.sol\":1244:1280  Transfer(admin, msg.sender, amounts) */\n      0xffffffffffffffffffffffffffffffffffffffff\n      and\n        /* \"contracts/Lottery.sol\":1253:1258  admin */\n      0x06\n      0x00\n      swap1\n      sload\n      swap1\n      0x0100\n      exp\n      swap1\n      div\n      0xffffffffffffffffffffffffffffffffffffffff\n      and\n        /* \"contracts/Lottery.sol\":1244:1280  Transfer(admin, msg.sender, amounts) */\n      0xffffffffffffffffffffffffffffffffffffffff\n      and\n      0xddf252ad1be2c89b69c2b068fc378daa952ba7f163c4a11628f55a4df523b3ef\n        /* \"contracts/Lottery.sol\":1272:1279  amounts */\n      dup4\n        /* \"contracts/Lottery.sol\":1244:1280  Transfer(admin, msg.sender, amounts) */\n      mload(0x40)\n      tag_210\n      swap2\n      swap1\n      tag_47\n      jump\t// in\n    tag_210:\n      mload(0x40)\n      dup1\n      swap2\n      sub\n      swap1\n      log3\n        /* \"contracts/Lottery.sol\":1020:1292  {... */\n      pop\n        /* \"contracts/Lottery.sol\":989:1292  function enter() public payable{... */\n      jump\t// out\n        /* \"contracts/Lottery.sol\":278:310  address payable[] public players */\n    tag_111:\n      0x05\n      dup2\n      dup2\n      sload\n      dup2\n      lt\n      tag_211\n      jumpi\n      0x00\n      dup1\n      revert\n    tag_211:\n      swap1\n      0x00\n      mstore\n      keccak256(0x00, 0x20)\n      add\n      0x00\n      swap2\n      pop\n      sload\n      swap1\n      0x0100\n      exp\n      swap1\n      div\n      0xffffffffffffffffffffffffffffffffffffffff\n      and\n      dup2\n      jump\t// out\n        /* \"contracts/Lottery.sol\":339:359  address public admin */\n    tag_116:\n      0x06\n      0x00\n      swap1\n      sload\n      swap1\n      0x0100\n      exp\n      swap1\n      div\n      0xffffffffffffffffffffffffffffffffffffffff\n      and\n      dup2\n      jump\t// out\n        /* \"@openzeppelin/contracts/utils/Context.sol\":640:736  function _msgSender() internal view virtual returns (address) {... */\n    tag_128:\n        /* \"@openzeppelin/contracts/utils/Context.sol\":693:700  address */\n      0x00\n        /* \"@openzeppelin/contracts/utils/Context.sol\":719:729  msg.sender */\n      caller\n        /* \"@openzeppelin/contracts/utils/Context.sol\":712:729  return msg.sender */\n      swap1\n      pop\n        /* \"@openzeppelin/contracts/utils/Context.sol\":640:736  function _msgSender() internal view virtual returns (address) {... */\n      swap1\n      jump\t// out\n        /* \"@openzeppelin/contracts/token/ERC20/ERC20.sol\":10110:10480  function _approve(... */\n    tag_130:\n        /* \"@openzeppelin/contracts/token/ERC20/ERC20.sol\":10258:10259  0 */\n      0x00\n        /* \"@openzeppelin/contracts/token/ERC20/ERC20.sol\":10241:10260  owner != address(0) */\n      0xffffffffffffffffffffffffffffffffffffffff\n      and\n        /* \"@openzeppelin/contracts/token/ERC20/ERC20.sol\":10241:10246  owner */\n      dup4\n        /* \"@openzeppelin/contracts/token/ERC20/ERC20.sol\":10241:10260  owner != address(0) */\n      0xffffffffffffffffffffffffffffffffffffffff\n      and\n      sub\n        /* \"@openzeppelin/contracts/token/ERC20/ERC20.sol\":10233:10301  require(owner != address(0), \"ERC20: approve from the zero address\") */\n      tag_215\n      jumpi\n      mload(0x40)\n      0x08c379a000000000000000000000000000000000000000000000000000000000\n      dup2\n      mstore\n      0x04\n      add\n      tag_216\n      swap1\n      tag_217\n      jump\t// in\n    tag_216:\n      mload(0x40)\n      dup1\n      swap2\n      sub\n      swap1\n      revert\n    tag_215:\n        /* \"@openzeppelin/contracts/token/ERC20/ERC20.sol\":10338:10339  0 */\n      0x00\n        /* \"@openzeppelin/contracts/token/ERC20/ERC20.sol\":10319:10340  spender != address(0) */\n      0xffffffffffffffffffffffffffffffffffffffff\n      and\n        /* \"@openzeppelin/contracts/token/ERC20/ERC20.sol\":10319:10326  spender */\n      dup3\n        /* \"@openzeppelin/contracts/token/ERC20/ERC20.sol\":10319:10340  spender != address(0) */\n      0xffffffffffffffffffffffffffffffffffffffff\n      and\n      sub\n        /* \"@openzeppelin/contracts/token/ERC20/ERC20.sol\":10311:10379  require(spender != address(0), \"ERC20: approve to the zero address\") */\n      tag_218\n      jumpi\n      mload(0x40)\n      0x08c379a000000000000000000000000000000000000000000000000000000000\n      dup2\n      mstore\n      0x04\n      add\n      tag_219\n      swap1\n      tag_220\n      jump\t// in\n    tag_219:\n      mload(0x40)\n      dup1\n      swap2\n      sub\n      swap1\n      revert\n    tag_218:\n        /* \"@openzeppelin/contracts/token/ERC20/ERC20.sol\":10420:10426  amount */\n      dup1\n        /* \"@openzeppelin/contracts/token/ERC20/ERC20.sol\":10390:10401  _allowances */\n      0x01\n        /* \"@openzeppelin/contracts/token/ERC20/ERC20.sol\":10390:10408  _allowances[owner] */\n      0x00\n        /* \"@openzeppelin/contracts/token/ERC20/ERC20.sol\":10402:10407  owner */\n      dup6\n        /* \"@openzeppelin/contracts/token/ERC20/ERC20.sol\":10390:10408  _allowances[owner] */\n      0xffffffffffffffffffffffffffffffffffffffff\n      and\n      0xffffffffffffffffffffffffffffffffffffffff\n      and\n      dup2\n      mstore\n      0x20\n      add\n      swap1\n      dup2\n      mstore\n      0x20\n      add\n      0x00\n      keccak256\n        /* \"@openzeppelin/contracts/token/ERC20/ERC20.sol\":10390:10417  _allowances[owner][spender] */\n      0x00\n        /* \"@openzeppelin/contracts/token/ERC20/ERC20.sol\":10409:10416  spender */\n      dup5\n        /* \"@openzeppelin/contracts/token/ERC20/ERC20.sol\":10390:10417  _allowances[owner][spender] */\n      0xffffffffffffffffffffffffffffffffffffffff\n      and\n      0xffffffffffffffffffffffffffffffffffffffff\n      and\n      dup2\n      mstore\n      0x20\n      add\n      swap1\n      dup2\n      mstore\n      0x20\n      add\n      0x00\n      keccak256\n        /* \"@openzeppelin/contracts/token/ERC20/ERC20.sol\":10390:10426  _allowances[owner][spender] = amount */\n      dup2\n      swap1\n      sstore\n      pop\n        /* \"@openzeppelin/contracts/token/ERC20/ERC20.sol\":10457:10464  spender */\n      dup2\n        /* \"@openzeppelin/contracts/token/ERC20/ERC20.sol\":10441:10473  Approval(owner, spender, amount) */\n      0xffffffffffffffffffffffffffffffffffffffff\n      and\n        /* \"@openzeppelin/contracts/token/ERC20/ERC20.sol\":10450:10455  owner */\n      dup4\n        /* \"@openzeppelin/contracts/token/ERC20/ERC20.sol\":10441:10473  Approval(owner, spender, amount) */\n      0xffffffffffffffffffffffffffffffffffffffff\n      and\n      0x8c5be1e5ebec7d5bd14f71427d1e84f3dd0314c0f7b2291e5b200ac8c7c3b925\n        /* \"@openzeppelin/contracts/token/ERC20/ERC20.sol\":10466:10472  amount */\n      dup4\n        /* \"@openzeppelin/contracts/token/ERC20/ERC20.sol\":10441:10473  Approval(owner, spender, amount) */\n      mload(0x40)\n      tag_221\n      swap2\n      swap1\n      tag_47\n      jump\t// in\n    tag_221:\n      mload(0x40)\n      dup1\n      swap2\n      sub\n      swap1\n      log3\n        /* \"@openzeppelin/contracts/token/ERC20/ERC20.sol\":10110:10480  function _approve(... */\n      pop\n      pop\n      pop\n      jump\t// out\n        /* \"@openzeppelin/contracts/token/ERC20/ERC20.sol\":10761:11202  function _spendAllowance(... */\n    tag_140:\n        /* \"@openzeppelin/contracts/token/ERC20/ERC20.sol\":10891:10915  uint256 currentAllowance */\n      0x00\n        /* \"@openzeppelin/contracts/token/ERC20/ERC20.sol\":10918:10943  allowance(owner, spender) */\n      tag_223\n        /* \"@openzeppelin/contracts/token/ERC20/ERC20.sol\":10928:10933  owner */\n      dup5\n        /* \"@openzeppelin/contracts/token/ERC20/ERC20.sol\":10935:10942  spender */\n      dup5\n        /* \"@openzeppelin/contracts/token/ERC20/ERC20.sol\":10918:10927  allowance */\n      tag_103\n        /* \"@openzeppelin/contracts/token/ERC20/ERC20.sol\":10918:10943  allowance(owner, spender) */\n      jump\t// in\n    tag_223:\n        /* \"@openzeppelin/contracts/token/ERC20/ERC20.sol\":10891:10943  uint256 currentAllowance = allowance(owner, spender) */\n      swap1\n      pop\n        /* \"@openzeppelin/contracts/token/ERC20/ERC20.sol\":10977:10994  type(uint256).max */\n      0xffffffffffffffffffffffffffffffffffffffffffffffffffffffffffffffff\n        /* \"@openzeppelin/contracts/token/ERC20/ERC20.sol\":10957:10973  currentAllowance */\n      dup2\n        /* \"@openzeppelin/contracts/token/ERC20/ERC20.sol\":10957:10994  currentAllowance != type(uint256).max */\n      eq\n        /* \"@openzeppelin/contracts/token/ERC20/ERC20.sol\":10953:11196  if (currentAllowance != type(uint256).max) {... */\n      tag_224\n      jumpi\n        /* \"@openzeppelin/contracts/token/ERC20/ERC20.sol\":11038:11044  amount */\n      dup2\n        /* \"@openzeppelin/contracts/token/ERC20/ERC20.sol\":11018:11034  currentAllowance */\n      dup2\n        /* \"@openzeppelin/contracts/token/ERC20/ERC20.sol\":11018:11044  currentAllowance >= amount */\n      lt\n      iszero\n        /* \"@openzeppelin/contracts/token/ERC20/ERC20.sol\":11010:11078  require(currentAllowance >= amount, \"ERC20: insufficient allowance\") */\n      tag_225\n      jumpi\n      mload(0x40)\n      0x08c379a000000000000000000000000000000000000000000000000000000000\n      dup2\n      mstore\n      0x04\n      add\n      tag_226\n      swap1\n      tag_227\n      jump\t// in\n    tag_226:\n      mload(0x40)\n      dup1\n      swap2\n      sub\n      swap1\n      revert\n    tag_225:\n        /* \"@openzeppelin/contracts/token/ERC20/ERC20.sol\":11120:11171  _approve(owner, spender, currentAllowance - amount) */\n      tag_228\n        /* \"@openzeppelin/contracts/token/ERC20/ERC20.sol\":11129:11134  owner */\n      dup5\n        /* \"@openzeppelin/contracts/token/ERC20/ERC20.sol\":11136:11143  spender */\n      dup5\n        /* \"@openzeppelin/contracts/token/ERC20/ERC20.sol\":11164:11170  amount */\n      dup5\n        /* \"@openzeppelin/contracts/token/ERC20/ERC20.sol\":11145:11161  currentAllowance */\n      dup5\n        /* \"@openzeppelin/contracts/token/ERC20/ERC20.sol\":11145:11170  currentAllowance - amount */\n      sub\n        /* \"@openzeppelin/contracts/token/ERC20/ERC20.sol\":11120:11128  _approve */\n      tag_130\n        /* \"@openzeppelin/contracts/token/ERC20/ERC20.sol\":11120:11171  _approve(owner, spender, currentAllowance - amount) */\n      jump\t// in\n    tag_228:\n        /* \"@openzeppelin/contracts/token/ERC20/ERC20.sol\":10953:11196  if (currentAllowance != type(uint256).max) {... */\n    tag_224:\n        /* \"@openzeppelin/contracts/token/ERC20/ERC20.sol\":10881:11202  {... */\n      pop\n        /* \"@openzeppelin/contracts/token/ERC20/ERC20.sol\":10761:11202  function _spendAllowance(... */\n      pop\n      pop\n      pop\n      jump\t// out\n        /* \"@openzeppelin/contracts/token/ERC20/ERC20.sol\":7475:8126  function _transfer(... */\n    tag_142:\n        /* \"@openzeppelin/contracts/token/ERC20/ERC20.sol\":7617:7618  0 */\n      0x00\n        /* \"@openzeppelin/contracts/token/ERC20/ERC20.sol\":7601:7619  from != address(0) */\n      0xffffffffffffffffffffffffffffffffffffffff\n      and\n        /* \"@openzeppelin/contracts/token/ERC20/ERC20.sol\":7601:7605  from */\n      dup4\n        /* \"@openzeppelin/contracts/token/ERC20/ERC20.sol\":7601:7619  from != address(0) */\n      0xffffffffffffffffffffffffffffffffffffffff\n      and\n      sub\n        /* \"@openzeppelin/contracts/token/ERC20/ERC20.sol\":7593:7661  require(from != address(0), \"ERC20: transfer from the zero address\") */\n      tag_230\n      jumpi\n      mload(0x40)\n      0x08c379a000000000000000000000000000000000000000000000000000000000\n      dup2\n      mstore\n      0x04\n      add\n      tag_231\n      swap1\n      tag_232\n      jump\t// in\n    tag_231:\n      mload(0x40)\n      dup1\n      swap2\n      sub\n      swap1\n      revert\n    tag_230:\n        /* \"@openzeppelin/contracts/token/ERC20/ERC20.sol\":7693:7694  0 */\n      0x00\n        /* \"@openzeppelin/contracts/token/ERC20/ERC20.sol\":7679:7695  to != address(0) */\n      0xffffffffffffffffffffffffffffffffffffffff\n      and\n        /* \"@openzeppelin/contracts/token/ERC20/ERC20.sol\":7679:7681  to */\n      dup3\n        /* \"@openzeppelin/contracts/token/ERC20/ERC20.sol\":7679:7695  to != address(0) */\n      0xffffffffffffffffffffffffffffffffffffffff\n      and\n      sub\n        /* \"@openzeppelin/contracts/token/ERC20/ERC20.sol\":7671:7735  require(to != address(0), \"ERC20: transfer to the zero address\") */\n      tag_233\n      jumpi\n      mload(0x40)\n      0x08c379a000000000000000000000000000000000000000000000000000000000\n      dup2\n      mstore\n      0x04\n      add\n      tag_234\n      swap1\n      tag_235\n      jump\t// in\n    tag_234:\n      mload(0x40)\n      dup1\n      swap2\n      sub\n      swap1\n      revert\n    tag_233:\n        /* \"@openzeppelin/contracts/token/ERC20/ERC20.sol\":7746:7784  _beforeTokenTransfer(from, to, amount) */\n      tag_236\n        /* \"@openzeppelin/contracts/token/ERC20/ERC20.sol\":7767:7771  from */\n      dup4\n        /* \"@openzeppelin/contracts/token/ERC20/ERC20.sol\":7773:7775  to */\n      dup4\n        /* \"@openzeppelin/contracts/token/ERC20/ERC20.sol\":7777:7783  amount */\n      dup4\n        /* \"@openzeppelin/contracts/token/ERC20/ERC20.sol\":7746:7766  _beforeTokenTransfer */\n      tag_237\n        /* \"@openzeppelin/contracts/token/ERC20/ERC20.sol\":7746:7784  _beforeTokenTransfer(from, to, amount) */\n      jump\t// in\n    tag_236:\n        /* \"@openzeppelin/contracts/token/ERC20/ERC20.sol\":7795:7814  uint256 fromBalance */\n      0x00\n        /* \"@openzeppelin/contracts/token/ERC20/ERC20.sol\":7817:7826  _balances */\n      dup1\n        /* \"@openzeppelin/contracts/token/ERC20/ERC20.sol\":7817:7832  _balances[from] */\n      0x00\n        /* \"@openzeppelin/contracts/token/ERC20/ERC20.sol\":7827:7831  from */\n      dup6\n        /* \"@openzeppelin/contracts/token/ERC20/ERC20.sol\":7817:7832  _balances[from] */\n      0xffffffffffffffffffffffffffffffffffffffff\n      and\n      0xffffffffffffffffffffffffffffffffffffffff\n      and\n      dup2\n      mstore\n      0x20\n      add\n      swap1\n      dup2\n      mstore\n      0x20\n      add\n      0x00\n      keccak256\n      sload\n        /* \"@openzeppelin/contracts/token/ERC20/ERC20.sol\":7795:7832  uint256 fromBalance = _balances[from] */\n      swap1\n      pop\n        /* \"@openzeppelin/contracts/token/ERC20/ERC20.sol\":7865:7871  amount */\n      dup2\n        /* \"@openzeppelin/contracts/token/ERC20/ERC20.sol\":7850:7861  fromBalance */\n      dup2\n        /* \"@openzeppelin/contracts/token/ERC20/ERC20.sol\":7850:7871  fromBalance >= amount */\n      lt\n      iszero\n        /* \"@openzeppelin/contracts/token/ERC20/ERC20.sol\":7842:7914  require(fromBalance >= amount, \"ERC20: transfer amount exceeds balance\") */\n      tag_238\n      jumpi\n      mload(0x40)\n      0x08c379a000000000000000000000000000000000000000000000000000000000\n      dup2\n      mstore\n      0x04\n      add\n      tag_239\n      swap1\n      tag_240\n      jump\t// in\n    tag_239:\n      mload(0x40)\n      dup1\n      swap2\n      sub\n      swap1\n      revert\n    tag_238:\n        /* \"@openzeppelin/contracts/token/ERC20/ERC20.sol\":7980:7986  amount */\n      dup2\n        /* \"@openzeppelin/contracts/token/ERC20/ERC20.sol\":7966:7977  fromBalance */\n      dup2\n        /* \"@openzeppelin/contracts/token/ERC20/ERC20.sol\":7966:7986  fromBalance - amount */\n      sub\n        /* \"@openzeppelin/contracts/token/ERC20/ERC20.sol\":7948:7957  _balances */\n      0x00\n        /* \"@openzeppelin/contracts/token/ERC20/ERC20.sol\":7948:7963  _balances[from] */\n      dup1\n        /* \"@openzeppelin/contracts/token/ERC20/ERC20.sol\":7958:7962  from */\n      dup7\n        /* \"@openzeppelin/contracts/token/ERC20/ERC20.sol\":7948:7963  _balances[from] */\n      0xffffffffffffffffffffffffffffffffffffffff\n      and\n      0xffffffffffffffffffffffffffffffffffffffff\n      and\n      dup2\n      mstore\n      0x20\n      add\n      swap1\n      dup2\n      mstore\n      0x20\n      add\n      0x00\n      keccak256\n        /* \"@openzeppelin/contracts/token/ERC20/ERC20.sol\":7948:7986  _balances[from] = fromBalance - amount */\n      dup2\n      swap1\n      sstore\n      pop\n        /* \"@openzeppelin/contracts/token/ERC20/ERC20.sol\":8023:8029  amount */\n      dup2\n        /* \"@openzeppelin/contracts/token/ERC20/ERC20.sol\":8006:8015  _balances */\n      0x00\n        /* \"@openzeppelin/contracts/token/ERC20/ERC20.sol\":8006:8019  _balances[to] */\n      dup1\n        /* \"@openzeppelin/contracts/token/ERC20/ERC20.sol\":8016:8018  to */\n      dup6\n        /* \"@openzeppelin/contracts/token/ERC20/ERC20.sol\":8006:8019  _balances[to] */\n      0xffffffffffffffffffffffffffffffffffffffff\n      and\n      0xffffffffffffffffffffffffffffffffffffffff\n      and\n      dup2\n      mstore\n      0x20\n      add\n      swap1\n      dup2\n      mstore\n      0x20\n      add\n      0x00\n      keccak256\n      0x00\n        /* \"@openzeppelin/contracts/token/ERC20/ERC20.sol\":8006:8029  _balances[to] += amount */\n      dup3\n      dup3\n      sload\n      tag_241\n      swap2\n      swap1\n      tag_149\n      jump\t// in\n    tag_241:\n      swap3\n      pop\n      pop\n      dup2\n      swap1\n      sstore\n      pop\n        /* \"@openzeppelin/contracts/token/ERC20/ERC20.sol\":8060:8062  to */\n      dup3\n        /* \"@openzeppelin/contracts/token/ERC20/ERC20.sol\":8045:8071  Transfer(from, to, amount) */\n      0xffffffffffffffffffffffffffffffffffffffff\n      and\n        /* \"@openzeppelin/contracts/token/ERC20/ERC20.sol\":8054:8058  from */\n      dup5\n        /* \"@openzeppelin/contracts/token/ERC20/ERC20.sol\":8045:8071  Transfer(from, to, amount) */\n      0xffffffffffffffffffffffffffffffffffffffff\n      and\n      0xddf252ad1be2c89b69c2b068fc378daa952ba7f163c4a11628f55a4df523b3ef\n        /* \"@openzeppelin/contracts/token/ERC20/ERC20.sol\":8064:8070  amount */\n      dup5\n        /* \"@openzeppelin/contracts/token/ERC20/ERC20.sol\":8045:8071  Transfer(from, to, amount) */\n      mload(0x40)\n      tag_242\n      swap2\n      swap1\n      tag_47\n      jump\t// in\n    tag_242:\n      mload(0x40)\n      dup1\n      swap2\n      sub\n      swap1\n      log3\n        /* \"@openzeppelin/contracts/token/ERC20/ERC20.sol\":8082:8119  _afterTokenTransfer(from, to, amount) */\n      tag_243\n        /* \"@openzeppelin/contracts/token/ERC20/ERC20.sol\":8102:8106  from */\n      dup5\n        /* \"@openzeppelin/contracts/token/ERC20/ERC20.sol\":8108:8110  to */\n      dup5\n        /* \"@openzeppelin/contracts/token/ERC20/ERC20.sol\":8112:8118  amount */\n      dup5\n        /* \"@openzeppelin/contracts/token/ERC20/ERC20.sol\":8082:8101  _afterTokenTransfer */\n      tag_244\n        /* \"@openzeppelin/contracts/token/ERC20/ERC20.sol\":8082:8119  _afterTokenTransfer(from, to, amount) */\n      jump\t// in\n    tag_243:\n        /* \"@openzeppelin/contracts/token/ERC20/ERC20.sol\":7583:8126  {... */\n      pop\n        /* \"@openzeppelin/contracts/token/ERC20/ERC20.sol\":7475:8126  function _transfer(... */\n      pop\n      pop\n      pop\n      jump\t// out\n        /* \"contracts/Lottery.sol\":2329:2481  function random() internal view returns(uint){... */\n    tag_158:\n        /* \"contracts/Lottery.sol\":2369:2373  uint */\n      0x00\n        /* \"contracts/Lottery.sol\":2422:2438  block.difficulty */\n      difficulty\n        /* \"contracts/Lottery.sol\":2440:2455  block.timestamp */\n      timestamp\n        /* \"contracts/Lottery.sol\":2457:2464  players */\n      0x05\n        /* \"contracts/Lottery.sol\":2457:2471  players.length */\n      dup1\n      sload\n      swap1\n      pop\n        /* \"contracts/Lottery.sol\":2405:2472  abi.encodePacked(block.difficulty, block.timestamp, players.length) */\n      add(0x20, mload(0x40))\n      tag_246\n      swap4\n      swap3\n      swap2\n      swap1\n      tag_247\n      jump\t// in\n    tag_246:\n      mload(0x40)\n      0x20\n      dup2\n      dup4\n      sub\n      sub\n      dup2\n      mstore\n      swap1\n      0x40\n      mstore\n        /* \"contracts/Lottery.sol\":2395:2473  keccak256(abi.encodePacked(block.difficulty, block.timestamp, players.length)) */\n      dup1\n      mload\n      swap1\n      0x20\n      add\n      keccak256\n        /* \"contracts/Lottery.sol\":2390:2474  uint(keccak256(abi.encodePacked(block.difficulty, block.timestamp, players.length))) */\n      0x00\n      shr\n        /* \"contracts/Lottery.sol\":2383:2474  return uint(keccak256(abi.encodePacked(block.difficulty, block.timestamp, players.length))) */\n      swap1\n      pop\n        /* \"contracts/Lottery.sol\":2329:2481  function random() internal view returns(uint){... */\n      swap1\n      jump\t// out\n        /* \"contracts/Lottery.sol\":3411:3705  function resetLottery() internal {... */\n    tag_184:\n        /* \"contracts/Lottery.sol\":3516:3517  0 */\n      0x00\n        /* \"contracts/Lottery.sol\":3494:3518  new address payable[](0) */\n      0xffffffffffffffff\n      dup2\n      gt\n      iszero\n      tag_249\n      jumpi\n      tag_250\n      tag_251\n      jump\t// in\n    tag_250:\n    tag_249:\n      mload(0x40)\n      swap1\n      dup1\n      dup3\n      mstore\n      dup1\n      0x20\n      mul\n      0x20\n      add\n      dup3\n      add\n      0x40\n      mstore\n      dup1\n      iszero\n      tag_252\n      jumpi\n      dup2\n      0x20\n      add\n      0x20\n      dup3\n      mul\n      dup1\n      calldatasize\n      dup4\n      calldatacopy\n      dup1\n      dup3\n      add\n      swap2\n      pop\n      pop\n      swap1\n      pop\n    tag_252:\n      pop\n        /* \"contracts/Lottery.sol\":3484:3491  players */\n      0x05\n        /* \"contracts/Lottery.sol\":3484:3518  players = new address payable[](0) */\n      swap1\n      dup1\n      mload\n      swap1\n      0x20\n      add\n      swap1\n      tag_253\n      swap3\n      swap2\n      swap1\n      tag_254\n      jump\t// in\n    tag_253:\n      pop\n        /* \"contracts/Lottery.sol\":3577:3584  bool ad */\n      0x00\n        /* \"contracts/Lottery.sol\":3589:3594  admin */\n      0x06\n      0x00\n      swap1\n      sload\n      swap1\n      0x0100\n      exp\n      swap1\n      div\n      0xffffffffffffffffffffffffffffffffffffffff\n      and\n        /* \"contracts/Lottery.sol\":3589:3599  admin.call */\n      0xffffffffffffffffffffffffffffffffffffffff\n      and\n        /* \"contracts/Lottery.sol\":3607:3619  getBalance() */\n      tag_255\n        /* \"contracts/Lottery.sol\":3607:3617  getBalance */\n      tag_45\n        /* \"contracts/Lottery.sol\":3607:3619  getBalance() */\n      jump\t// in\n    tag_255:\n        /* \"contracts/Lottery.sol\":3589:3624  admin.call{value: getBalance()}(\"\") */\n      mload(0x40)\n      tag_256\n      swap1\n      tag_176\n      jump\t// in\n    tag_256:\n      0x00\n      mload(0x40)\n      dup1\n      dup4\n      sub\n      dup2\n      dup6\n      dup8\n      gas\n      call\n      swap3\n      pop\n      pop\n      pop\n      returndatasize\n      dup1\n      0x00\n      dup2\n      eq\n      tag_259\n      jumpi\n      mload(0x40)\n      swap2\n      pop\n      and(add(returndatasize, 0x3f), not(0x1f))\n      dup3\n      add\n      0x40\n      mstore\n      returndatasize\n      dup3\n      mstore\n      returndatasize\n      0x00\n      0x20\n      dup5\n      add\n      returndatacopy\n      jump(tag_258)\n    tag_259:\n      0x60\n      swap2\n      pop\n    tag_258:\n      pop\n        /* \"contracts/Lottery.sol\":3576:3624  (bool ad,) = admin.call{value: getBalance()}(\"\") */\n      pop\n      swap1\n      pop\n        /* \"contracts/Lottery.sol\":3642:3644  ad */\n      dup1\n        /* \"contracts/Lottery.sol\":3634:3698  require(ad, \"Failed to send user balance back to the admin fee\") */\n      tag_260\n      jumpi\n      mload(0x40)\n      0x08c379a000000000000000000000000000000000000000000000000000000000\n      dup2\n      mstore\n      0x04\n      add\n      tag_261\n      swap1\n      tag_262\n      jump\t// in\n    tag_261:\n      mload(0x40)\n      dup1\n      swap2\n      sub\n      swap1\n      revert\n    tag_260:\n        /* \"contracts/Lottery.sol\":3444:3705  {... */\n      pop\n        /* \"contracts/Lottery.sol\":3411:3705  function resetLottery() internal {... */\n      jump\t// out\n        /* \"@openzeppelin/contracts/token/ERC20/ERC20.sol\":11786:11907  function _beforeTokenTransfer(... */\n    tag_237:\n      pop\n      pop\n      pop\n      jump\t// out\n        /* \"@openzeppelin/contracts/token/ERC20/ERC20.sol\":12495:12615  function _afterTokenTransfer(... */\n    tag_244:\n      pop\n      pop\n      pop\n      jump\t// out\n    tag_254:\n      dup3\n      dup1\n      sload\n      dup3\n      dup3\n      sstore\n      swap1\n      0x00\n      mstore\n      keccak256(0x00, 0x20)\n      swap1\n      dup2\n      add\n      swap3\n      dup3\n      iszero\n      tag_265\n      jumpi\n      swap2\n      0x20\n      mul\n      dup3\n      add\n    tag_266:\n      dup3\n      dup2\n      gt\n      iszero\n      tag_267\n      jumpi\n      dup3\n      mload\n      dup3\n      exp(0x0100, 0x00)\n      dup2\n      sload\n      dup2\n      0xffffffffffffffffffffffffffffffffffffffff\n      mul\n      not\n      and\n      swap1\n      dup4\n      0xffffffffffffffffffffffffffffffffffffffff\n      and\n      mul\n      or\n      swap1\n      sstore\n      pop\n      swap2\n      0x20\n      add\n      swap2\n      swap1\n      0x01\n      add\n      swap1\n      jump(tag_266)\n    tag_267:\n    tag_265:\n      pop\n      swap1\n      pop\n      tag_268\n      swap2\n      swap1\n      tag_269\n      jump\t// in\n    tag_268:\n      pop\n      swap1\n      jump\t// out\n    tag_269:\n    tag_270:\n      dup1\n      dup3\n      gt\n      iszero\n      tag_271\n      jumpi\n      0x00\n      dup2\n      0x00\n      swap1\n      sstore\n      pop\n      0x01\n      add\n      jump(tag_270)\n    tag_271:\n      pop\n      swap1\n      jump\t// out\n        /* \"#utility.yul\":7:176   */\n    tag_272:\n        /* \"#utility.yul\":91:102   */\n      0x00\n        /* \"#utility.yul\":125:131   */\n      dup3\n        /* \"#utility.yul\":120:123   */\n      dup3\n        /* \"#utility.yul\":113:132   */\n      mstore\n        /* \"#utility.yul\":165:169   */\n      0x20\n        /* \"#utility.yul\":160:163   */\n      dup3\n        /* \"#utility.yul\":156:170   */\n      add\n        /* \"#utility.yul\":141:170   */\n      swap1\n      pop\n        /* \"#utility.yul\":7:176   */\n      swap3\n      swap2\n      pop\n      pop\n      jump\t// out\n        /* \"#utility.yul\":182:358   */\n    tag_273:\n        /* \"#utility.yul\":322:350   */\n      0x4d7573742073656e6420302e3120657468657220616d6f756e74000000000000\n        /* \"#utility.yul\":318:319   */\n      0x00\n        /* \"#utility.yul\":310:316   */\n      dup3\n        /* \"#utility.yul\":306:320   */\n      add\n        /* \"#utility.yul\":299:351   */\n      mstore\n        /* \"#utility.yul\":182:358   */\n      pop\n      jump\t// out\n        /* \"#utility.yul\":364:730   */\n    tag_274:\n        /* \"#utility.yul\":506:509   */\n      0x00\n        /* \"#utility.yul\":527:594   */\n      tag_335\n        /* \"#utility.yul\":591:593   */\n      0x1a\n        /* \"#utility.yul\":586:589   */\n      dup4\n        /* \"#utility.yul\":527:594   */\n      tag_272\n      jump\t// in\n    tag_335:\n        /* \"#utility.yul\":520:594   */\n      swap2\n      pop\n        /* \"#utility.yul\":603:696   */\n      tag_336\n        /* \"#utility.yul\":692:695   */\n      dup3\n        /* \"#utility.yul\":603:696   */\n      tag_273\n      jump\t// in\n    tag_336:\n        /* \"#utility.yul\":721:723   */\n      0x20\n        /* \"#utility.yul\":716:719   */\n      dup3\n        /* \"#utility.yul\":712:724   */\n      add\n        /* \"#utility.yul\":705:724   */\n      swap1\n      pop\n        /* \"#utility.yul\":364:730   */\n      swap2\n      swap1\n      pop\n      jump\t// out\n        /* \"#utility.yul\":736:1155   */\n    tag_28:\n        /* \"#utility.yul\":902:906   */\n      0x00\n        /* \"#utility.yul\":940:942   */\n      0x20\n        /* \"#utility.yul\":929:938   */\n      dup3\n        /* \"#utility.yul\":925:943   */\n      add\n        /* \"#utility.yul\":917:943   */\n      swap1\n      pop\n        /* \"#utility.yul\":989:998   */\n      dup2\n        /* \"#utility.yul\":983:987   */\n      dup2\n        /* \"#utility.yul\":979:999   */\n      sub\n        /* \"#utility.yul\":975:976   */\n      0x00\n        /* \"#utility.yul\":964:973   */\n      dup4\n        /* \"#utility.yul\":960:977   */\n      add\n        /* \"#utility.yul\":953:1000   */\n      mstore\n        /* \"#utility.yul\":1017:1148   */\n      tag_338\n        /* \"#utility.yul\":1143:1147   */\n      dup2\n        /* \"#utility.yul\":1017:1148   */\n      tag_274\n      jump\t// in\n    tag_338:\n        /* \"#utility.yul\":1009:1148   */\n      swap1\n      pop\n        /* \"#utility.yul\":736:1155   */\n      swap2\n      swap1\n      pop\n      jump\t// out\n        /* \"#utility.yul\":1161:1260   */\n    tag_275:\n        /* \"#utility.yul\":1213:1219   */\n      0x00\n        /* \"#utility.yul\":1247:1252   */\n      dup2\n        /* \"#utility.yul\":1241:1253   */\n      mload\n        /* \"#utility.yul\":1231:1253   */\n      swap1\n      pop\n        /* \"#utility.yul\":1161:1260   */\n      swap2\n      swap1\n      pop\n      jump\t// out\n        /* \"#utility.yul\":1266:1512   */\n    tag_276:\n        /* \"#utility.yul\":1347:1348   */\n      0x00\n        /* \"#utility.yul\":1357:1470   */\n    tag_341:\n        /* \"#utility.yul\":1371:1377   */\n      dup4\n        /* \"#utility.yul\":1368:1369   */\n      dup2\n        /* \"#utility.yul\":1365:1378   */\n      lt\n        /* \"#utility.yul\":1357:1470   */\n      iszero\n      tag_343\n      jumpi\n        /* \"#utility.yul\":1456:1457   */\n      dup1\n        /* \"#utility.yul\":1451:1454   */\n      dup3\n        /* \"#utility.yul\":1447:1458   */\n      add\n        /* \"#utility.yul\":1441:1459   */\n      mload\n        /* \"#utility.yul\":1437:1438   */\n      dup2\n        /* \"#utility.yul\":1432:1435   */\n      dup5\n        /* \"#utility.yul\":1428:1439   */\n      add\n        /* \"#utility.yul\":1421:1460   */\n      mstore\n        /* \"#utility.yul\":1393:1395   */\n      0x20\n        /* \"#utility.yul\":1390:1391   */\n      dup2\n        /* \"#utility.yul\":1386:1396   */\n      add\n        /* \"#utility.yul\":1381:1396   */\n      swap1\n      pop\n        /* \"#utility.yul\":1357:1470   */\n      jump(tag_341)\n    tag_343:\n        /* \"#utility.yul\":1504:1505   */\n      0x00\n        /* \"#utility.yul\":1495:1501   */\n      dup5\n        /* \"#utility.yul\":1490:1493   */\n      dup5\n        /* \"#utility.yul\":1486:1502   */\n      add\n        /* \"#utility.yul\":1479:1506   */\n      mstore\n        /* \"#utility.yul\":1328:1512   */\n      pop\n        /* \"#utility.yul\":1266:1512   */\n      pop\n      pop\n      pop\n      jump\t// out\n        /* \"#utility.yul\":1518:1620   */\n    tag_277:\n        /* \"#utility.yul\":1559:1565   */\n      0x00\n        /* \"#utility.yul\":1610:1612   */\n      0x1f\n        /* \"#utility.yul\":1606:1613   */\n      not\n        /* \"#utility.yul\":1601:1603   */\n      0x1f\n        /* \"#utility.yul\":1594:1599   */\n      dup4\n        /* \"#utility.yul\":1590:1604   */\n      add\n        /* \"#utility.yul\":1586:1614   */\n      and\n        /* \"#utility.yul\":1576:1614   */\n      swap1\n      pop\n        /* \"#utility.yul\":1518:1620   */\n      swap2\n      swap1\n      pop\n      jump\t// out\n        /* \"#utility.yul\":1626:2003   */\n    tag_278:\n        /* \"#utility.yul\":1714:1717   */\n      0x00\n        /* \"#utility.yul\":1742:1781   */\n      tag_346\n        /* \"#utility.yul\":1775:1780   */\n      dup3\n        /* \"#utility.yul\":1742:1781   */\n      tag_275\n      jump\t// in\n    tag_346:\n        /* \"#utility.yul\":1797:1868   */\n      tag_347\n        /* \"#utility.yul\":1861:1867   */\n      dup2\n        /* \"#utility.yul\":1856:1859   */\n      dup6\n        /* \"#utility.yul\":1797:1868   */\n      tag_272\n      jump\t// in\n    tag_347:\n        /* \"#utility.yul\":1790:1868   */\n      swap4\n      pop\n        /* \"#utility.yul\":1877:1942   */\n      tag_348\n        /* \"#utility.yul\":1935:1941   */\n      dup2\n        /* \"#utility.yul\":1930:1933   */\n      dup6\n        /* \"#utility.yul\":1923:1927   */\n      0x20\n        /* \"#utility.yul\":1916:1921   */\n      dup7\n        /* \"#utility.yul\":1912:1928   */\n      add\n        /* \"#utility.yul\":1877:1942   */\n      tag_276\n      jump\t// in\n    tag_348:\n        /* \"#utility.yul\":1967:1996   */\n      tag_349\n        /* \"#utility.yul\":1989:1995   */\n      dup2\n        /* \"#utility.yul\":1967:1996   */\n      tag_277\n      jump\t// in\n    tag_349:\n        /* \"#utility.yul\":1962:1965   */\n      dup5\n        /* \"#utility.yul\":1958:1997   */\n      add\n        /* \"#utility.yul\":1951:1997   */\n      swap2\n      pop\n        /* \"#utility.yul\":1718:2003   */\n      pop\n        /* \"#utility.yul\":1626:2003   */\n      swap3\n      swap2\n      pop\n      pop\n      jump\t// out\n        /* \"#utility.yul\":2009:2322   */\n    tag_35:\n        /* \"#utility.yul\":2122:2126   */\n      0x00\n        /* \"#utility.yul\":2160:2162   */\n      0x20\n        /* \"#utility.yul\":2149:2158   */\n      dup3\n        /* \"#utility.yul\":2145:2163   */\n      add\n        /* \"#utility.yul\":2137:2163   */\n      swap1\n      pop\n        /* \"#utility.yul\":2209:2218   */\n      dup2\n        /* \"#utility.yul\":2203:2207   */\n      dup2\n        /* \"#utility.yul\":2199:2219   */\n      sub\n        /* \"#utility.yul\":2195:2196   */\n      0x00\n        /* \"#utility.yul\":2184:2193   */\n      dup4\n        /* \"#utility.yul\":2180:2197   */\n      add\n        /* \"#utility.yul\":2173:2220   */\n      mstore\n        /* \"#utility.yul\":2237:2315   */\n      tag_351\n        /* \"#utility.yul\":2310:2314   */\n      dup2\n        /* \"#utility.yul\":2301:2307   */\n      dup5\n        /* \"#utility.yul\":2237:2315   */\n      tag_278\n      jump\t// in\n    tag_351:\n        /* \"#utility.yul\":2229:2315   */\n      swap1\n      pop\n        /* \"#utility.yul\":2009:2322   */\n      swap3\n      swap2\n      pop\n      pop\n      jump\t// out\n        /* \"#utility.yul\":2409:2526   */\n    tag_280:\n        /* \"#utility.yul\":2518:2519   */\n      0x00\n        /* \"#utility.yul\":2515:2516   */\n      dup1\n        /* \"#utility.yul\":2508:2520   */\n      revert\n        /* \"#utility.yul\":2655:2781   */\n    tag_282:\n        /* \"#utility.yul\":2692:2699   */\n      0x00\n        /* \"#utility.yul\":2732:2774   */\n      0xffffffffffffffffffffffffffffffffffffffff\n        /* \"#utility.yul\":2725:2730   */\n      dup3\n        /* \"#utility.yul\":2721:2775   */\n      and\n        /* \"#utility.yul\":2710:2775   */\n      swap1\n      pop\n        /* \"#utility.yul\":2655:2781   */\n      swap2\n      swap1\n      pop\n      jump\t// out\n        /* \"#utility.yul\":2787:2883   */\n    tag_283:\n        /* \"#utility.yul\":2824:2831   */\n      0x00\n        /* \"#utility.yul\":2853:2877   */\n      tag_357\n        /* \"#utility.yul\":2871:2876   */\n      dup3\n        /* \"#utility.yul\":2853:2877   */\n      tag_282\n      jump\t// in\n    tag_357:\n        /* \"#utility.yul\":2842:2877   */\n      swap1\n      pop\n        /* \"#utility.yul\":2787:2883   */\n      swap2\n      swap1\n      pop\n      jump\t// out\n        /* \"#utility.yul\":2889:3011   */\n    tag_284:\n        /* \"#utility.yul\":2962:2986   */\n      tag_359\n        /* \"#utility.yul\":2980:2985   */\n      dup2\n        /* \"#utility.yul\":2962:2986   */\n      tag_283\n      jump\t// in\n    tag_359:\n        /* \"#utility.yul\":2955:2960   */\n      dup2\n        /* \"#utility.yul\":2952:2987   */\n      eq\n        /* \"#utility.yul\":2942:3005   */\n      tag_360\n      jumpi\n        /* \"#utility.yul\":3001:3002   */\n      0x00\n        /* \"#utility.yul\":2998:2999   */\n      dup1\n        /* \"#utility.yul\":2991:3003   */\n      revert\n        /* \"#utility.yul\":2942:3005   */\n    tag_360:\n        /* \"#utility.yul\":2889:3011   */\n      pop\n      jump\t// out\n        /* \"#utility.yul\":3017:3156   */\n    tag_285:\n        /* \"#utility.yul\":3063:3068   */\n      0x00\n        /* \"#utility.yul\":3101:3107   */\n      dup2\n        /* \"#utility.yul\":3088:3108   */\n      calldataload\n        /* \"#utility.yul\":3079:3108   */\n      swap1\n      pop\n        /* \"#utility.yul\":3117:3150   */\n      tag_362\n        /* \"#utility.yul\":3144:3149   */\n      dup2\n        /* \"#utility.yul\":3117:3150   */\n      tag_284\n      jump\t// in\n    tag_362:\n        /* \"#utility.yul\":3017:3156   */\n      swap3\n      swap2\n      pop\n      pop\n      jump\t// out\n        /* \"#utility.yul\":3162:3239   */\n    tag_286:\n        /* \"#utility.yul\":3199:3206   */\n      0x00\n        /* \"#utility.yul\":3228:3233   */\n      dup2\n        /* \"#utility.yul\":3217:3233   */\n      swap1\n      pop\n        /* \"#utility.yul\":3162:3239   */\n      swap2\n      swap1\n      pop\n      jump\t// out\n        /* \"#utility.yul\":3245:3367   */\n    tag_287:\n        /* \"#utility.yul\":3318:3342   */\n      tag_365\n        /* \"#utility.yul\":3336:3341   */\n      dup2\n        /* \"#utility.yul\":3318:3342   */\n      tag_286\n      jump\t// in\n    tag_365:\n        /* \"#utility.yul\":3311:3316   */\n      dup2\n        /* \"#utility.yul\":3308:3343   */\n      eq\n        /* \"#utility.yul\":3298:3361   */\n      tag_366\n      jumpi\n        /* \"#utility.yul\":3357:3358   */\n      0x00\n        /* \"#utility.yul\":3354:3355   */\n      dup1\n        /* \"#utility.yul\":3347:3359   */\n      revert\n        /* \"#utility.yul\":3298:3361   */\n    tag_366:\n        /* \"#utility.yul\":3245:3367   */\n      pop\n      jump\t// out\n        /* \"#utility.yul\":3373:3512   */\n    tag_288:\n        /* \"#utility.yul\":3419:3424   */\n      0x00\n        /* \"#utility.yul\":3457:3463   */\n      dup2\n        /* \"#utility.yul\":3444:3464   */\n      calldataload\n        /* \"#utility.yul\":3435:3464   */\n      swap1\n      pop\n        /* \"#utility.yul\":3473:3506   */\n      tag_368\n        /* \"#utility.yul\":3500:3505   */\n      dup2\n        /* \"#utility.yul\":3473:3506   */\n      tag_287\n      jump\t// in\n    tag_368:\n        /* \"#utility.yul\":3373:3512   */\n      swap3\n      swap2\n      pop\n      pop\n      jump\t// out\n        /* \"#utility.yul\":3518:3992   */\n    tag_39:\n        /* \"#utility.yul\":3586:3592   */\n      0x00\n        /* \"#utility.yul\":3594:3600   */\n      dup1\n        /* \"#utility.yul\":3643:3645   */\n      0x40\n        /* \"#utility.yul\":3631:3640   */\n      dup4\n        /* \"#utility.yul\":3622:3629   */\n      dup6\n        /* \"#utility.yul\":3618:3641   */\n      sub\n        /* \"#utility.yul\":3614:3646   */\n      slt\n        /* \"#utility.yul\":3611:3730   */\n      iszero\n      tag_370\n      jumpi\n        /* \"#utility.yul\":3649:3728   */\n      tag_371\n      tag_280\n      jump\t// in\n    tag_371:\n        /* \"#utility.yul\":3611:3730   */\n    tag_370:\n        /* \"#utility.yul\":3769:3770   */\n      0x00\n        /* \"#utility.yul\":3794:3847   */\n      tag_372\n        /* \"#utility.yul\":3839:3846   */\n      dup6\n        /* \"#utility.yul\":3830:3836   */\n      dup3\n        /* \"#utility.yul\":3819:3828   */\n      dup7\n        /* \"#utility.yul\":3815:3837   */\n      add\n        /* \"#utility.yul\":3794:3847   */\n      tag_285\n      jump\t// in\n    tag_372:\n        /* \"#utility.yul\":3784:3847   */\n      swap3\n      pop\n        /* \"#utility.yul\":3740:3857   */\n      pop\n        /* \"#utility.yul\":3896:3898   */\n      0x20\n        /* \"#utility.yul\":3922:3975   */\n      tag_373\n        /* \"#utility.yul\":3967:3974   */\n      dup6\n        /* \"#utility.yul\":3958:3964   */\n      dup3\n        /* \"#utility.yul\":3947:3956   */\n      dup7\n        /* \"#utility.yul\":3943:3965   */\n      add\n        /* \"#utility.yul\":3922:3975   */\n      tag_288\n      jump\t// in\n    tag_373:\n        /* \"#utility.yul\":3912:3975   */\n      swap2\n      pop\n        /* \"#utility.yul\":3867:3985   */\n      pop\n        /* \"#utility.yul\":3518:3992   */\n      swap3\n      pop\n      swap3\n      swap1\n      pop\n      jump\t// out\n        /* \"#utility.yul\":3998:4088   */\n    tag_289:\n        /* \"#utility.yul\":4032:4039   */\n      0x00\n        /* \"#utility.yul\":4075:4080   */\n      dup2\n        /* \"#utility.yul\":4068:4081   */\n      iszero\n        /* \"#utility.yul\":4061:4082   */\n      iszero\n        /* \"#utility.yul\":4050:4082   */\n      swap1\n      pop\n        /* \"#utility.yul\":3998:4088   */\n      swap2\n      swap1\n      pop\n      jump\t// out\n        /* \"#utility.yul\":4094:4203   */\n    tag_290:\n        /* \"#utility.yul\":4175:4196   */\n      tag_376\n        /* \"#utility.yul\":4190:4195   */\n      dup2\n        /* \"#utility.yul\":4175:4196   */\n      tag_289\n      jump\t// in\n    tag_376:\n        /* \"#utility.yul\":4170:4173   */\n      dup3\n        /* \"#utility.yul\":4163:4197   */\n      mstore\n        /* \"#utility.yul\":4094:4203   */\n      pop\n      pop\n      jump\t// out\n        /* \"#utility.yul\":4209:4419   */\n    tag_42:\n        /* \"#utility.yul\":4296:4300   */\n      0x00\n        /* \"#utility.yul\":4334:4336   */\n      0x20\n        /* \"#utility.yul\":4323:4332   */\n      dup3\n        /* \"#utility.yul\":4319:4337   */\n      add\n        /* \"#utility.yul\":4311:4337   */\n      swap1\n      pop\n        /* \"#utility.yul\":4347:4412   */\n      tag_378\n        /* \"#utility.yul\":4409:4410   */\n      0x00\n        /* \"#utility.yul\":4398:4407   */\n      dup4\n        /* \"#utility.yul\":4394:4411   */\n      add\n        /* \"#utility.yul\":4385:4391   */\n      dup5\n        /* \"#utility.yul\":4347:4412   */\n      tag_290\n      jump\t// in\n    tag_378:\n        /* \"#utility.yul\":4209:4419   */\n      swap3\n      swap2\n      pop\n      pop\n      jump\t// out\n        /* \"#utility.yul\":4425:4543   */\n    tag_291:\n        /* \"#utility.yul\":4512:4536   */\n      tag_380\n        /* \"#utility.yul\":4530:4535   */\n      dup2\n        /* \"#utility.yul\":4512:4536   */\n      tag_286\n      jump\t// in\n    tag_380:\n        /* \"#utility.yul\":4507:4510   */\n      dup3\n        /* \"#utility.yul\":4500:4537   */\n      mstore\n        /* \"#utility.yul\":4425:4543   */\n      pop\n      pop\n      jump\t// out\n        /* \"#utility.yul\":4549:4771   */\n    tag_47:\n        /* \"#utility.yul\":4642:4646   */\n      0x00\n        /* \"#utility.yul\":4680:4682   */\n      0x20\n        /* \"#utility.yul\":4669:4678   */\n      dup3\n        /* \"#utility.yul\":4665:4683   */\n      add\n        /* \"#utility.yul\":4657:4683   */\n      swap1\n      pop\n        /* \"#utility.yul\":4693:4764   */\n      tag_382\n        /* \"#utility.yul\":4761:4762   */\n      0x00\n        /* \"#utility.yul\":4750:4759   */\n      dup4\n        /* \"#utility.yul\":4746:4763   */\n      add\n        /* \"#utility.yul\":4737:4743   */\n      dup5\n        /* \"#utility.yul\":4693:4764   */\n      tag_291\n      jump\t// in\n    tag_382:\n        /* \"#utility.yul\":4549:4771   */\n      swap3\n      swap2\n      pop\n      pop\n      jump\t// out\n        /* \"#utility.yul\":4777:5396   */\n    tag_55:\n        /* \"#utility.yul\":4854:4860   */\n      0x00\n        /* \"#utility.yul\":4862:4868   */\n      dup1\n        /* \"#utility.yul\":4870:4876   */\n      0x00\n        /* \"#utility.yul\":4919:4921   */\n      0x60\n        /* \"#utility.yul\":4907:4916   */\n      dup5\n        /* \"#utility.yul\":4898:4905   */\n      dup7\n        /* \"#utility.yul\":4894:4917   */\n      sub\n        /* \"#utility.yul\":4890:4922   */\n      slt\n        /* \"#utility.yul\":4887:5006   */\n      iszero\n      tag_384\n      jumpi\n        /* \"#utility.yul\":4925:5004   */\n      tag_385\n      tag_280\n      jump\t// in\n    tag_385:\n        /* \"#utility.yul\":4887:5006   */\n    tag_384:\n        /* \"#utility.yul\":5045:5046   */\n      0x00\n        /* \"#utility.yul\":5070:5123   */\n      tag_386\n        /* \"#utility.yul\":5115:5122   */\n      dup7\n        /* \"#utility.yul\":5106:5112   */\n      dup3\n        /* \"#utility.yul\":5095:5104   */\n      dup8\n        /* \"#utility.yul\":5091:5113   */\n      add\n        /* \"#utility.yul\":5070:5123   */\n      tag_285\n      jump\t// in\n    tag_386:\n        /* \"#utility.yul\":5060:5123   */\n      swap4\n      pop\n        /* \"#utility.yul\":5016:5133   */\n      pop\n        /* \"#utility.yul\":5172:5174   */\n      0x20\n        /* \"#utility.yul\":5198:5251   */\n      tag_387\n        /* \"#utility.yul\":5243:5250   */\n      dup7\n        /* \"#utility.yul\":5234:5240   */\n      dup3\n        /* \"#utility.yul\":5223:5232   */\n      dup8\n        /* \"#utility.yul\":5219:5241   */\n      add\n        /* \"#utility.yul\":5198:5251   */\n      tag_285\n      jump\t// in\n    tag_387:\n        /* \"#utility.yul\":5188:5251   */\n      swap3\n      pop\n        /* \"#utility.yul\":5143:5261   */\n      pop\n        /* \"#utility.yul\":5300:5302   */\n      0x40\n        /* \"#utility.yul\":5326:5379   */\n      tag_388\n        /* \"#utility.yul\":5371:5378   */\n      dup7\n        /* \"#utility.yul\":5362:5368   */\n      dup3\n        /* \"#utility.yul\":5351:5360   */\n      dup8\n        /* \"#utility.yul\":5347:5369   */\n      add\n        /* \"#utility.yul\":5326:5379   */\n      tag_288\n      jump\t// in\n    tag_388:\n        /* \"#utility.yul\":5316:5379   */\n      swap2\n      pop\n        /* \"#utility.yul\":5271:5389   */\n      pop\n        /* \"#utility.yul\":4777:5396   */\n      swap3\n      pop\n      swap3\n      pop\n      swap3\n      jump\t// out\n        /* \"#utility.yul\":5402:5488   */\n    tag_292:\n        /* \"#utility.yul\":5437:5444   */\n      0x00\n        /* \"#utility.yul\":5477:5481   */\n      0xff\n        /* \"#utility.yul\":5470:5475   */\n      dup3\n        /* \"#utility.yul\":5466:5482   */\n      and\n        /* \"#utility.yul\":5455:5482   */\n      swap1\n      pop\n        /* \"#utility.yul\":5402:5488   */\n      swap2\n      swap1\n      pop\n      jump\t// out\n        /* \"#utility.yul\":5494:5606   */\n    tag_293:\n        /* \"#utility.yul\":5577:5599   */\n      tag_391\n        /* \"#utility.yul\":5593:5598   */\n      dup2\n        /* \"#utility.yul\":5577:5599   */\n      tag_292\n      jump\t// in\n    tag_391:\n        /* \"#utility.yul\":5572:5575   */\n      dup3\n        /* \"#utility.yul\":5565:5600   */\n      mstore\n        /* \"#utility.yul\":5494:5606   */\n      pop\n      pop\n      jump\t// out\n        /* \"#utility.yul\":5612:5826   */\n    tag_62:\n        /* \"#utility.yul\":5701:5705   */\n      0x00\n        /* \"#utility.yul\":5739:5741   */\n      0x20\n        /* \"#utility.yul\":5728:5737   */\n      dup3\n        /* \"#utility.yul\":5724:5742   */\n      add\n        /* \"#utility.yul\":5716:5742   */\n      swap1\n      pop\n        /* \"#utility.yul\":5752:5819   */\n      tag_393\n        /* \"#utility.yul\":5816:5817   */\n      0x00\n        /* \"#utility.yul\":5805:5814   */\n      dup4\n        /* \"#utility.yul\":5801:5818   */\n      add\n        /* \"#utility.yul\":5792:5798   */\n      dup5\n        /* \"#utility.yul\":5752:5819   */\n      tag_293\n      jump\t// in\n    tag_393:\n        /* \"#utility.yul\":5612:5826   */\n      swap3\n      swap2\n      pop\n      pop\n      jump\t// out\n        /* \"#utility.yul\":5832:6161   */\n    tag_74:\n        /* \"#utility.yul\":5891:5897   */\n      0x00\n        /* \"#utility.yul\":5940:5942   */\n      0x20\n        /* \"#utility.yul\":5928:5937   */\n      dup3\n        /* \"#utility.yul\":5919:5926   */\n      dup5\n        /* \"#utility.yul\":5915:5938   */\n      sub\n        /* \"#utility.yul\":5911:5943   */\n      slt\n        /* \"#utility.yul\":5908:6027   */\n      iszero\n      tag_395\n      jumpi\n        /* \"#utility.yul\":5946:6025   */\n      tag_396\n      tag_280\n      jump\t// in\n    tag_396:\n        /* \"#utility.yul\":5908:6027   */\n    tag_395:\n        /* \"#utility.yul\":6066:6067   */\n      0x00\n        /* \"#utility.yul\":6091:6144   */\n      tag_397\n        /* \"#utility.yul\":6136:6143   */\n      dup5\n        /* \"#utility.yul\":6127:6133   */\n      dup3\n        /* \"#utility.yul\":6116:6125   */\n      dup6\n        /* \"#utility.yul\":6112:6134   */\n      add\n        /* \"#utility.yul\":6091:6144   */\n      tag_285\n      jump\t// in\n    tag_397:\n        /* \"#utility.yul\":6081:6144   */\n      swap2\n      pop\n        /* \"#utility.yul\":6037:6154   */\n      pop\n        /* \"#utility.yul\":5832:6161   */\n      swap3\n      swap2\n      pop\n      pop\n      jump\t// out\n        /* \"#utility.yul\":6167:6641   */\n    tag_102:\n        /* \"#utility.yul\":6235:6241   */\n      0x00\n        /* \"#utility.yul\":6243:6249   */\n      dup1\n        /* \"#utility.yul\":6292:6294   */\n      0x40\n        /* \"#utility.yul\":6280:6289   */\n      dup4\n        /* \"#utility.yul\":6271:6278   */\n      dup6\n        /* \"#utility.yul\":6267:6290   */\n      sub\n        /* \"#utility.yul\":6263:6295   */\n      slt\n        /* \"#utility.yul\":6260:6379   */\n      iszero\n      tag_399\n      jumpi\n        /* \"#utility.yul\":6298:6377   */\n      tag_400\n      tag_280\n      jump\t// in\n    tag_400:\n        /* \"#utility.yul\":6260:6379   */\n    tag_399:\n        /* \"#utility.yul\":6418:6419   */\n      0x00\n        /* \"#utility.yul\":6443:6496   */\n      tag_401\n        /* \"#utility.yul\":6488:6495   */\n      dup6\n        /* \"#utility.yul\":6479:6485   */\n      dup3\n        /* \"#utility.yul\":6468:6477   */\n      dup7\n        /* \"#utility.yul\":6464:6486   */\n      add\n        /* \"#utility.yul\":6443:6496   */\n      tag_285\n      jump\t// in\n    tag_401:\n        /* \"#utility.yul\":6433:6496   */\n      swap3\n      pop\n        /* \"#utility.yul\":6389:6506   */\n      pop\n        /* \"#utility.yul\":6545:6547   */\n      0x20\n        /* \"#utility.yul\":6571:6624   */\n      tag_402\n        /* \"#utility.yul\":6616:6623   */\n      dup6\n        /* \"#utility.yul\":6607:6613   */\n      dup3\n        /* \"#utility.yul\":6596:6605   */\n      dup7\n        /* \"#utility.yul\":6592:6614   */\n      add\n        /* \"#utility.yul\":6571:6624   */\n      tag_285\n      jump\t// in\n    tag_402:\n        /* \"#utility.yul\":6561:6624   */\n      swap2\n      pop\n        /* \"#utility.yul\":6516:6634   */\n      pop\n        /* \"#utility.yul\":6167:6641   */\n      swap3\n      pop\n      swap3\n      swap1\n      pop\n      jump\t// out\n        /* \"#utility.yul\":6647:6976   */\n    tag_110:\n        /* \"#utility.yul\":6706:6712   */\n      0x00\n        /* \"#utility.yul\":6755:6757   */\n      0x20\n        /* \"#utility.yul\":6743:6752   */\n      dup3\n        /* \"#utility.yul\":6734:6741   */\n      dup5\n        /* \"#utility.yul\":6730:6753   */\n      sub\n        /* \"#utility.yul\":6726:6758   */\n      slt\n        /* \"#utility.yul\":6723:6842   */\n      iszero\n      tag_404\n      jumpi\n        /* \"#utility.yul\":6761:6840   */\n      tag_405\n      tag_280\n      jump\t// in\n    tag_405:\n        /* \"#utility.yul\":6723:6842   */\n    tag_404:\n        /* \"#utility.yul\":6881:6882   */\n      0x00\n        /* \"#utility.yul\":6906:6959   */\n      tag_406\n        /* \"#utility.yul\":6951:6958   */\n      dup5\n        /* \"#utility.yul\":6942:6948   */\n      dup3\n        /* \"#utility.yul\":6931:6940   */\n      dup6\n        /* \"#utility.yul\":6927:6949   */\n      add\n        /* \"#utility.yul\":6906:6959   */\n      tag_288\n      jump\t// in\n    tag_406:\n        /* \"#utility.yul\":6896:6959   */\n      swap2\n      pop\n        /* \"#utility.yul\":6852:6969   */\n      pop\n        /* \"#utility.yul\":6647:6976   */\n      swap3\n      swap2\n      pop\n      pop\n      jump\t// out\n        /* \"#utility.yul\":6982:7086   */\n    tag_294:\n        /* \"#utility.yul\":7027:7034   */\n      0x00\n        /* \"#utility.yul\":7056:7080   */\n      tag_408\n        /* \"#utility.yul\":7074:7079   */\n      dup3\n        /* \"#utility.yul\":7056:7080   */\n      tag_282\n      jump\t// in\n    tag_408:\n        /* \"#utility.yul\":7045:7080   */\n      swap1\n      pop\n        /* \"#utility.yul\":6982:7086   */\n      swap2\n      swap1\n      pop\n      jump\t// out\n        /* \"#utility.yul\":7092:7234   */\n    tag_295:\n        /* \"#utility.yul\":7195:7227   */\n      tag_410\n        /* \"#utility.yul\":7221:7226   */\n      dup2\n        /* \"#utility.yul\":7195:7227   */\n      tag_294\n      jump\t// in\n    tag_410:\n        /* \"#utility.yul\":7190:7193   */\n      dup3\n        /* \"#utility.yul\":7183:7228   */\n      mstore\n        /* \"#utility.yul\":7092:7234   */\n      pop\n      pop\n      jump\t// out\n        /* \"#utility.yul\":7240:7494   */\n    tag_113:\n        /* \"#utility.yul\":7349:7353   */\n      0x00\n        /* \"#utility.yul\":7387:7389   */\n      0x20\n        /* \"#utility.yul\":7376:7385   */\n      dup3\n        /* \"#utility.yul\":7372:7390   */\n      add\n        /* \"#utility.yul\":7364:7390   */\n      swap1\n      pop\n        /* \"#utility.yul\":7400:7487   */\n      tag_412\n        /* \"#utility.yul\":7484:7485   */\n      0x00\n        /* \"#utility.yul\":7473:7482   */\n      dup4\n        /* \"#utility.yul\":7469:7486   */\n      add\n        /* \"#utility.yul\":7460:7466   */\n      dup5\n        /* \"#utility.yul\":7400:7487   */\n      tag_295\n      jump\t// in\n    tag_412:\n        /* \"#utility.yul\":7240:7494   */\n      swap3\n      swap2\n      pop\n      pop\n      jump\t// out\n        /* \"#utility.yul\":7500:7618   */\n    tag_296:\n        /* \"#utility.yul\":7587:7611   */\n      tag_414\n        /* \"#utility.yul\":7605:7610   */\n      dup2\n        /* \"#utility.yul\":7587:7611   */\n      tag_283\n      jump\t// in\n    tag_414:\n        /* \"#utility.yul\":7582:7585   */\n      dup3\n        /* \"#utility.yul\":7575:7612   */\n      mstore\n        /* \"#utility.yul\":7500:7618   */\n      pop\n      pop\n      jump\t// out\n        /* \"#utility.yul\":7624:7846   */\n    tag_118:\n        /* \"#utility.yul\":7717:7721   */\n      0x00\n        /* \"#utility.yul\":7755:7757   */\n      0x20\n        /* \"#utility.yul\":7744:7753   */\n      dup3\n        /* \"#utility.yul\":7740:7758   */\n      add\n        /* \"#utility.yul\":7732:7758   */\n      swap1\n      pop\n        /* \"#utility.yul\":7768:7839   */\n      tag_416\n        /* \"#utility.yul\":7836:7837   */\n      0x00\n        /* \"#utility.yul\":7825:7834   */\n      dup4\n        /* \"#utility.yul\":7821:7838   */\n      add\n        /* \"#utility.yul\":7812:7818   */\n      dup5\n        /* \"#utility.yul\":7768:7839   */\n      tag_296\n      jump\t// in\n    tag_416:\n        /* \"#utility.yul\":7624:7846   */\n      swap3\n      swap2\n      pop\n      pop\n      jump\t// out\n        /* \"#utility.yul\":7852:8032   */\n    tag_297:\n        /* \"#utility.yul\":7900:7977   */\n      0x4e487b7100000000000000000000000000000000000000000000000000000000\n        /* \"#utility.yul\":7897:7898   */\n      0x00\n        /* \"#utility.yul\":7890:7978   */\n      mstore\n        /* \"#utility.yul\":7997:8001   */\n      0x22\n        /* \"#utility.yul\":7994:7995   */\n      0x04\n        /* \"#utility.yul\":7987:8002   */\n      mstore\n        /* \"#utility.yul\":8021:8025   */\n      0x24\n        /* \"#utility.yul\":8018:8019   */\n      0x00\n        /* \"#utility.yul\":8011:8026   */\n      revert\n        /* \"#utility.yul\":8038:8358   */\n    tag_121:\n        /* \"#utility.yul\":8082:8088   */\n      0x00\n        /* \"#utility.yul\":8119:8120   */\n      0x02\n        /* \"#utility.yul\":8113:8117   */\n      dup3\n        /* \"#utility.yul\":8109:8121   */\n      div\n        /* \"#utility.yul\":8099:8121   */\n      swap1\n      pop\n        /* \"#utility.yul\":8166:8167   */\n      0x01\n        /* \"#utility.yul\":8160:8164   */\n      dup3\n        /* \"#utility.yul\":8156:8168   */\n      and\n        /* \"#utility.yul\":8187:8205   */\n      dup1\n        /* \"#utility.yul\":8177:8258   */\n      tag_419\n      jumpi\n        /* \"#utility.yul\":8243:8247   */\n      0x7f\n        /* \"#utility.yul\":8235:8241   */\n      dup3\n        /* \"#utility.yul\":8231:8248   */\n      and\n        /* \"#utility.yul\":8221:8248   */\n      swap2\n      pop\n        /* \"#utility.yul\":8177:8258   */\n    tag_419:\n        /* \"#utility.yul\":8305:8307   */\n      0x20\n        /* \"#utility.yul\":8297:8303   */\n      dup3\n        /* \"#utility.yul\":8294:8308   */\n      lt\n        /* \"#utility.yul\":8274:8292   */\n      dup2\n        /* \"#utility.yul\":8271:8309   */\n      sub\n        /* \"#utility.yul\":8268:8352   */\n      tag_420\n      jumpi\n        /* \"#utility.yul\":8324:8342   */\n      tag_421\n      tag_297\n      jump\t// in\n    tag_421:\n        /* \"#utility.yul\":8268:8352   */\n    tag_420:\n        /* \"#utility.yul\":8089:8358   */\n      pop\n        /* \"#utility.yul\":8038:8358   */\n      swap2\n      swap1\n      pop\n      jump\t// out\n        /* \"#utility.yul\":8364:8535   */\n    tag_298:\n        /* \"#utility.yul\":8504:8527   */\n      0x596f7520617265206e6f7420746865206f776e65720000000000000000000000\n        /* \"#utility.yul\":8500:8501   */\n      0x00\n        /* \"#utility.yul\":8492:8498   */\n      dup3\n        /* \"#utility.yul\":8488:8502   */\n      add\n        /* \"#utility.yul\":8481:8528   */\n      mstore\n        /* \"#utility.yul\":8364:8535   */\n      pop\n      jump\t// out\n        /* \"#utility.yul\":8541:8907   */\n    tag_299:\n        /* \"#utility.yul\":8683:8686   */\n      0x00\n        /* \"#utility.yul\":8704:8771   */\n      tag_424\n        /* \"#utility.yul\":8768:8770   */\n      0x15\n        /* \"#utility.yul\":8763:8766   */\n      dup4\n        /* \"#utility.yul\":8704:8771   */\n      tag_272\n      jump\t// in\n    tag_424:\n        /* \"#utility.yul\":8697:8771   */\n      swap2\n      pop\n        /* \"#utility.yul\":8780:8873   */\n      tag_425\n        /* \"#utility.yul\":8869:8872   */\n      dup3\n        /* \"#utility.yul\":8780:8873   */\n      tag_298\n      jump\t// in\n    tag_425:\n        /* \"#utility.yul\":8898:8900   */\n      0x20\n        /* \"#utility.yul\":8893:8896   */\n      dup3\n        /* \"#utility.yul\":8889:8901   */\n      add\n        /* \"#utility.yul\":8882:8901   */\n      swap1\n      pop\n        /* \"#utility.yul\":8541:8907   */\n      swap2\n      swap1\n      pop\n      jump\t// out\n        /* \"#utility.yul\":8913:9332   */\n    tag_134:\n        /* \"#utility.yul\":9079:9083   */\n      0x00\n        /* \"#utility.yul\":9117:9119   */\n      0x20\n        /* \"#utility.yul\":9106:9115   */\n      dup3\n        /* \"#utility.yul\":9102:9120   */\n      add\n        /* \"#utility.yul\":9094:9120   */\n      swap1\n      pop\n        /* \"#utility.yul\":9166:9175   */\n      dup2\n        /* \"#utility.yul\":9160:9164   */\n      dup2\n        /* \"#utility.yul\":9156:9176   */\n      sub\n        /* \"#utility.yul\":9152:9153   */\n      0x00\n        /* \"#utility.yul\":9141:9150   */\n      dup4\n        /* \"#utility.yul\":9137:9154   */\n      add\n        /* \"#utility.yul\":9130:9177   */\n      mstore\n        /* \"#utility.yul\":9194:9325   */\n      tag_427\n        /* \"#utility.yul\":9320:9324   */\n      dup2\n        /* \"#utility.yul\":9194:9325   */\n      tag_299\n      jump\t// in\n    tag_427:\n        /* \"#utility.yul\":9186:9325   */\n      swap1\n      pop\n        /* \"#utility.yul\":8913:9332   */\n      swap2\n      swap1\n      pop\n      jump\t// out\n        /* \"#utility.yul\":9338:9518   */\n    tag_300:\n        /* \"#utility.yul\":9386:9463   */\n      0x4e487b7100000000000000000000000000000000000000000000000000000000\n        /* \"#utility.yul\":9383:9384   */\n      0x00\n        /* \"#utility.yul\":9376:9464   */\n      mstore\n        /* \"#utility.yul\":9483:9487   */\n      0x11\n        /* \"#utility.yul\":9480:9481   */\n      0x04\n        /* \"#utility.yul\":9473:9488   */\n      mstore\n        /* \"#utility.yul\":9507:9511   */\n      0x24\n        /* \"#utility.yul\":9504:9505   */\n      0x00\n        /* \"#utility.yul\":9497:9512   */\n      revert\n        /* \"#utility.yul\":9524:9715   */\n    tag_149:\n        /* \"#utility.yul\":9564:9567   */\n      0x00\n        /* \"#utility.yul\":9583:9603   */\n      tag_430\n        /* \"#utility.yul\":9601:9602   */\n      dup3\n        /* \"#utility.yul\":9583:9603   */\n      tag_286\n      jump\t// in\n    tag_430:\n        /* \"#utility.yul\":9578:9603   */\n      swap2\n      pop\n        /* \"#utility.yul\":9617:9637   */\n      tag_431\n        /* \"#utility.yul\":9635:9636   */\n      dup4\n        /* \"#utility.yul\":9617:9637   */\n      tag_286\n      jump\t// in\n    tag_431:\n        /* \"#utility.yul\":9612:9637   */\n      swap3\n      pop\n        /* \"#utility.yul\":9660:9661   */\n      dup3\n        /* \"#utility.yul\":9657:9658   */\n      dup3\n        /* \"#utility.yul\":9653:9662   */\n      add\n        /* \"#utility.yul\":9646:9662   */\n      swap1\n      pop\n        /* \"#utility.yul\":9681:9684   */\n      dup1\n        /* \"#utility.yul\":9678:9679   */\n      dup3\n        /* \"#utility.yul\":9675:9685   */\n      gt\n        /* \"#utility.yul\":9672:9708   */\n      iszero\n      tag_432\n      jumpi\n        /* \"#utility.yul\":9688:9706   */\n      tag_433\n      tag_300\n      jump\t// in\n    tag_433:\n        /* \"#utility.yul\":9672:9708   */\n    tag_432:\n        /* \"#utility.yul\":9524:9715   */\n      swap3\n      swap2\n      pop\n      pop\n      jump\t// out\n        /* \"#utility.yul\":9721:9941   */\n    tag_301:\n        /* \"#utility.yul\":9861:9895   */\n      0x4e6f7420656e6f75676820706c617965727320696e20746865206c6f74746572\n        /* \"#utility.yul\":9857:9858   */\n      0x00\n        /* \"#utility.yul\":9849:9855   */\n      dup3\n        /* \"#utility.yul\":9845:9859   */\n      add\n        /* \"#utility.yul\":9838:9896   */\n      mstore\n        /* \"#utility.yul\":9930:9933   */\n      0x7900000000000000000000000000000000000000000000000000000000000000\n        /* \"#utility.yul\":9925:9927   */\n      0x20\n        /* \"#utility.yul\":9917:9923   */\n      dup3\n        /* \"#utility.yul\":9913:9928   */\n      add\n        /* \"#utility.yul\":9906:9934   */\n      mstore\n        /* \"#utility.yul\":9721:9941   */\n      pop\n      jump\t// out\n        /* \"#utility.yul\":9947:10313   */\n    tag_302:\n        /* \"#utility.yul\":10089:10092   */\n      0x00\n        /* \"#utility.yul\":10110:10177   */\n      tag_436\n        /* \"#utility.yul\":10174:10176   */\n      0x21\n        /* \"#utility.yul\":10169:10172   */\n      dup4\n        /* \"#utility.yul\":10110:10177   */\n      tag_272\n      jump\t// in\n    tag_436:\n        /* \"#utility.yul\":10103:10177   */\n      swap2\n      pop\n        /* \"#utility.yul\":10186:10279   */\n      tag_437\n        /* \"#utility.yul\":10275:10278   */\n      dup3\n        /* \"#utility.yul\":10186:10279   */\n      tag_301\n      jump\t// in\n    tag_437:\n        /* \"#utility.yul\":10304:10306   */\n      0x40\n        /* \"#utility.yul\":10299:10302   */\n      dup3\n        /* \"#utility.yul\":10295:10307   */\n      add\n        /* \"#utility.yul\":10288:10307   */\n      swap1\n      pop\n        /* \"#utility.yul\":9947:10313   */\n      swap2\n      swap1\n      pop\n      jump\t// out\n        /* \"#utility.yul\":10319:10738   */\n    tag_156:\n        /* \"#utility.yul\":10485:10489   */\n      0x00\n        /* \"#utility.yul\":10523:10525   */\n      0x20\n        /* \"#utility.yul\":10512:10521   */\n      dup3\n        /* \"#utility.yul\":10508:10526   */\n      add\n        /* \"#utility.yul\":10500:10526   */\n      swap1\n      pop\n        /* \"#utility.yul\":10572:10581   */\n      dup2\n        /* \"#utility.yul\":10566:10570   */\n      dup2\n        /* \"#utility.yul\":10562:10582   */\n      sub\n        /* \"#utility.yul\":10558:10559   */\n      0x00\n        /* \"#utility.yul\":10547:10556   */\n      dup4\n        /* \"#utility.yul\":10543:10560   */\n      add\n        /* \"#utility.yul\":10536:10583   */\n      mstore\n        /* \"#utility.yul\":10600:10731   */\n      tag_439\n        /* \"#utility.yul\":10726:10730   */\n      dup2\n        /* \"#utility.yul\":10600:10731   */\n      tag_302\n      jump\t// in\n    tag_439:\n        /* \"#utility.yul\":10592:10731   */\n      swap1\n      pop\n        /* \"#utility.yul\":10319:10738   */\n      swap2\n      swap1\n      pop\n      jump\t// out\n        /* \"#utility.yul\":10744:10924   */\n    tag_303:\n        /* \"#utility.yul\":10792:10869   */\n      0x4e487b7100000000000000000000000000000000000000000000000000000000\n        /* \"#utility.yul\":10789:10790   */\n      0x00\n        /* \"#utility.yul\":10782:10870   */\n      mstore\n        /* \"#utility.yul\":10889:10893   */\n      0x12\n        /* \"#utility.yul\":10886:10887   */\n      0x04\n        /* \"#utility.yul\":10879:10894   */\n      mstore\n        /* \"#utility.yul\":10913:10917   */\n      0x24\n        /* \"#utility.yul\":10910:10911   */\n      0x00\n        /* \"#utility.yul\":10903:10918   */\n      revert\n        /* \"#utility.yul\":10930:11106   */\n    tag_160:\n        /* \"#utility.yul\":10962:10963   */\n      0x00\n        /* \"#utility.yul\":10979:10999   */\n      tag_442\n        /* \"#utility.yul\":10997:10998   */\n      dup3\n        /* \"#utility.yul\":10979:10999   */\n      tag_286\n      jump\t// in\n    tag_442:\n        /* \"#utility.yul\":10974:10999   */\n      swap2\n      pop\n        /* \"#utility.yul\":11013:11033   */\n      tag_443\n        /* \"#utility.yul\":11031:11032   */\n      dup4\n        /* \"#utility.yul\":11013:11033   */\n      tag_286\n      jump\t// in\n    tag_443:\n        /* \"#utility.yul\":11008:11033   */\n      swap3\n      pop\n        /* \"#utility.yul\":11052:11053   */\n      dup3\n        /* \"#utility.yul\":11042:11077   */\n      tag_444\n      jumpi\n        /* \"#utility.yul\":11057:11075   */\n      tag_445\n      tag_303\n      jump\t// in\n    tag_445:\n        /* \"#utility.yul\":11042:11077   */\n    tag_444:\n        /* \"#utility.yul\":11098:11099   */\n      dup3\n        /* \"#utility.yul\":11095:11096   */\n      dup3\n        /* \"#utility.yul\":11091:11100   */\n      mod\n        /* \"#utility.yul\":11086:11100   */\n      swap1\n      pop\n        /* \"#utility.yul\":10930:11106   */\n      swap3\n      swap2\n      pop\n      pop\n      jump\t// out\n        /* \"#utility.yul\":11112:11292   */\n    tag_163:\n        /* \"#utility.yul\":11160:11237   */\n      0x4e487b7100000000000000000000000000000000000000000000000000000000\n        /* \"#utility.yul\":11157:11158   */\n      0x00\n        /* \"#utility.yul\":11150:11238   */\n      mstore\n        /* \"#utility.yul\":11257:11261   */\n      0x32\n        /* \"#utility.yul\":11254:11255   */\n      0x04\n        /* \"#utility.yul\":11247:11262   */\n      mstore\n        /* \"#utility.yul\":11281:11285   */\n      0x24\n        /* \"#utility.yul\":11278:11279   */\n      0x00\n        /* \"#utility.yul\":11271:11286   */\n      revert\n        /* \"#utility.yul\":11298:11708   */\n    tag_168:\n        /* \"#utility.yul\":11338:11345   */\n      0x00\n        /* \"#utility.yul\":11361:11381   */\n      tag_448\n        /* \"#utility.yul\":11379:11380   */\n      dup3\n        /* \"#utility.yul\":11361:11381   */\n      tag_286\n      jump\t// in\n    tag_448:\n        /* \"#utility.yul\":11356:11381   */\n      swap2\n      pop\n        /* \"#utility.yul\":11395:11415   */\n      tag_449\n        /* \"#utility.yul\":11413:11414   */\n      dup4\n        /* \"#utility.yul\":11395:11415   */\n      tag_286\n      jump\t// in\n    tag_449:\n        /* \"#utility.yul\":11390:11415   */\n      swap3\n      pop\n        /* \"#utility.yul\":11450:11451   */\n      dup3\n        /* \"#utility.yul\":11447:11448   */\n      dup3\n        /* \"#utility.yul\":11443:11452   */\n      mul\n        /* \"#utility.yul\":11472:11502   */\n      tag_450\n        /* \"#utility.yul\":11490:11501   */\n      dup2\n        /* \"#utility.yul\":11472:11502   */\n      tag_286\n      jump\t// in\n    tag_450:\n        /* \"#utility.yul\":11461:11502   */\n      swap2\n      pop\n        /* \"#utility.yul\":11651:11652   */\n      dup3\n        /* \"#utility.yul\":11642:11649   */\n      dup3\n        /* \"#utility.yul\":11638:11653   */\n      div\n        /* \"#utility.yul\":11635:11636   */\n      dup5\n        /* \"#utility.yul\":11632:11654   */\n      eq\n        /* \"#utility.yul\":11612:11613   */\n      dup4\n        /* \"#utility.yul\":11605:11614   */\n      iszero\n        /* \"#utility.yul\":11585:11668   */\n      or\n        /* \"#utility.yul\":11562:11701   */\n      tag_451\n      jumpi\n        /* \"#utility.yul\":11681:11699   */\n      tag_452\n      tag_300\n      jump\t// in\n    tag_452:\n        /* \"#utility.yul\":11562:11701   */\n    tag_451:\n        /* \"#utility.yul\":11346:11708   */\n      pop\n        /* \"#utility.yul\":11298:11708   */\n      swap3\n      swap2\n      pop\n      pop\n      jump\t// out\n        /* \"#utility.yul\":11714:11899   */\n    tag_170:\n        /* \"#utility.yul\":11754:11755   */\n      0x00\n        /* \"#utility.yul\":11771:11791   */\n      tag_454\n        /* \"#utility.yul\":11789:11790   */\n      dup3\n        /* \"#utility.yul\":11771:11791   */\n      tag_286\n      jump\t// in\n    tag_454:\n        /* \"#utility.yul\":11766:11791   */\n      swap2\n      pop\n        /* \"#utility.yul\":11805:11825   */\n      tag_455\n        /* \"#utility.yul\":11823:11824   */\n      dup4\n        /* \"#utility.yul\":11805:11825   */\n      tag_286\n      jump\t// in\n    tag_455:\n        /* \"#utility.yul\":11800:11825   */\n      swap3\n      pop\n        /* \"#utility.yul\":11844:11845   */\n      dup3\n        /* \"#utility.yul\":11834:11869   */\n      tag_456\n      jumpi\n        /* \"#utility.yul\":11849:11867   */\n      tag_457\n      tag_303\n      jump\t// in\n    tag_457:\n        /* \"#utility.yul\":11834:11869   */\n    tag_456:\n        /* \"#utility.yul\":11891:11892   */\n      dup3\n        /* \"#utility.yul\":11888:11889   */\n      dup3\n        /* \"#utility.yul\":11884:11893   */\n      div\n        /* \"#utility.yul\":11879:11893   */\n      swap1\n      pop\n        /* \"#utility.yul\":11714:11899   */\n      swap3\n      swap2\n      pop\n      pop\n      jump\t// out\n        /* \"#utility.yul\":11905:12086   */\n    tag_304:\n        /* \"#utility.yul\":12045:12078   */\n      0x4661696c656420746f2077696e6e657220616d6f756e74206973207a65726f00\n        /* \"#utility.yul\":12041:12042   */\n      0x00\n        /* \"#utility.yul\":12033:12039   */\n      dup3\n        /* \"#utility.yul\":12029:12043   */\n      add\n        /* \"#utility.yul\":12022:12079   */\n      mstore\n        /* \"#utility.yul\":11905:12086   */\n      pop\n      jump\t// out\n        /* \"#utility.yul\":12092:12458   */\n    tag_305:\n        /* \"#utility.yul\":12234:12237   */\n      0x00\n        /* \"#utility.yul\":12255:12322   */\n      tag_460\n        /* \"#utility.yul\":12319:12321   */\n      0x1f\n        /* \"#utility.yul\":12314:12317   */\n      dup4\n        /* \"#utility.yul\":12255:12322   */\n      tag_272\n      jump\t// in\n    tag_460:\n        /* \"#utility.yul\":12248:12322   */\n      swap2\n      pop\n        /* \"#utility.yul\":12331:12424   */\n      tag_461\n        /* \"#utility.yul\":12420:12423   */\n      dup3\n        /* \"#utility.yul\":12331:12424   */\n      tag_304\n      jump\t// in\n    tag_461:\n        /* \"#utility.yul\":12449:12451   */\n      0x20\n        /* \"#utility.yul\":12444:12447   */\n      dup3\n        /* \"#utility.yul\":12440:12452   */\n      add\n        /* \"#utility.yul\":12433:12452   */\n      swap1\n      pop\n        /* \"#utility.yul\":12092:12458   */\n      swap2\n      swap1\n      pop\n      jump\t// out\n        /* \"#utility.yul\":12464:12883   */\n    tag_174:\n        /* \"#utility.yul\":12630:12634   */\n      0x00\n        /* \"#utility.yul\":12668:12670   */\n      0x20\n        /* \"#utility.yul\":12657:12666   */\n      dup3\n        /* \"#utility.yul\":12653:12671   */\n      add\n        /* \"#utility.yul\":12645:12671   */\n      swap1\n      pop\n        /* \"#utility.yul\":12717:12726   */\n      dup2\n        /* \"#utility.yul\":12711:12715   */\n      dup2\n        /* \"#utility.yul\":12707:12727   */\n      sub\n        /* \"#utility.yul\":12703:12704   */\n      0x00\n        /* \"#utility.yul\":12692:12701   */\n      dup4\n        /* \"#utility.yul\":12688:12705   */\n      add\n        /* \"#utility.yul\":12681:12728   */\n      mstore\n        /* \"#utility.yul\":12745:12876   */\n      tag_463\n        /* \"#utility.yul\":12871:12875   */\n      dup2\n        /* \"#utility.yul\":12745:12876   */\n      tag_305\n      jump\t// in\n    tag_463:\n        /* \"#utility.yul\":12737:12876   */\n      swap1\n      pop\n        /* \"#utility.yul\":12464:12883   */\n      swap2\n      swap1\n      pop\n      jump\t// out\n        /* \"#utility.yul\":12889:13036   */\n    tag_306:\n        /* \"#utility.yul\":12990:13001   */\n      0x00\n        /* \"#utility.yul\":13027:13030   */\n      dup2\n        /* \"#utility.yul\":13012:13030   */\n      swap1\n      pop\n        /* \"#utility.yul\":12889:13036   */\n      swap3\n      swap2\n      pop\n      pop\n      jump\t// out\n        /* \"#utility.yul\":13042:13156   */\n    tag_307:\n      pop\n      jump\t// out\n        /* \"#utility.yul\":13162:13560   */\n    tag_308:\n        /* \"#utility.yul\":13321:13324   */\n      0x00\n        /* \"#utility.yul\":13342:13425   */\n      tag_467\n        /* \"#utility.yul\":13423:13424   */\n      0x00\n        /* \"#utility.yul\":13418:13421   */\n      dup4\n        /* \"#utility.yul\":13342:13425   */\n      tag_306\n      jump\t// in\n    tag_467:\n        /* \"#utility.yul\":13335:13425   */\n      swap2\n      pop\n        /* \"#utility.yul\":13434:13527   */\n      tag_468\n        /* \"#utility.yul\":13523:13526   */\n      dup3\n        /* \"#utility.yul\":13434:13527   */\n      tag_307\n      jump\t// in\n    tag_468:\n        /* \"#utility.yul\":13552:13553   */\n      0x00\n        /* \"#utility.yul\":13547:13550   */\n      dup3\n        /* \"#utility.yul\":13543:13554   */\n      add\n        /* \"#utility.yul\":13536:13554   */\n      swap1\n      pop\n        /* \"#utility.yul\":13162:13560   */\n      swap2\n      swap1\n      pop\n      jump\t// out\n        /* \"#utility.yul\":13566:13945   */\n    tag_176:\n        /* \"#utility.yul\":13750:13753   */\n      0x00\n        /* \"#utility.yul\":13772:13919   */\n      tag_470\n        /* \"#utility.yul\":13915:13918   */\n      dup3\n        /* \"#utility.yul\":13772:13919   */\n      tag_308\n      jump\t// in\n    tag_470:\n        /* \"#utility.yul\":13765:13919   */\n      swap2\n      pop\n        /* \"#utility.yul\":13936:13939   */\n      dup2\n        /* \"#utility.yul\":13929:13939   */\n      swap1\n      pop\n        /* \"#utility.yul\":13566:13945   */\n      swap2\n      swap1\n      pop\n      jump\t// out\n        /* \"#utility.yul\":13951:14183   */\n    tag_309:\n        /* \"#utility.yul\":14091:14125   */\n      0x4661696c656420746f2073656e6420757365722062616c616e6365206261636b\n        /* \"#utility.yul\":14087:14088   */\n      0x00\n        /* \"#utility.yul\":14079:14085   */\n      dup3\n        /* \"#utility.yul\":14075:14089   */\n      add\n        /* \"#utility.yul\":14068:14126   */\n      mstore\n        /* \"#utility.yul\":14160:14175   */\n      0x20746f20746865206f776e657200000000000000000000000000000000000000\n        /* \"#utility.yul\":14155:14157   */\n      0x20\n        /* \"#utility.yul\":14147:14153   */\n      dup3\n        /* \"#utility.yul\":14143:14158   */\n      add\n        /* \"#utility.yul\":14136:14176   */\n      mstore\n        /* \"#utility.yul\":13951:14183   */\n      pop\n      jump\t// out\n        /* \"#utility.yul\":14189:14555   */\n    tag_310:\n        /* \"#utility.yul\":14331:14334   */\n      0x00\n        /* \"#utility.yul\":14352:14419   */\n      tag_473\n        /* \"#utility.yul\":14416:14418   */\n      0x2d\n        /* \"#utility.yul\":14411:14414   */\n      dup4\n        /* \"#utility.yul\":14352:14419   */\n      tag_272\n      jump\t// in\n    tag_473:\n        /* \"#utility.yul\":14345:14419   */\n      swap2\n      pop\n        /* \"#utility.yul\":14428:14521   */\n      tag_474\n        /* \"#utility.yul\":14517:14520   */\n      dup3\n        /* \"#utility.yul\":14428:14521   */\n      tag_309\n      jump\t// in\n    tag_474:\n        /* \"#utility.yul\":14546:14548   */\n      0x40\n        /* \"#utility.yul\":14541:14544   */\n      dup3\n        /* \"#utility.yul\":14537:14549   */\n      add\n        /* \"#utility.yul\":14530:14549   */\n      swap1\n      pop\n        /* \"#utility.yul\":14189:14555   */\n      swap2\n      swap1\n      pop\n      jump\t// out\n        /* \"#utility.yul\":14561:14980   */\n    tag_182:\n        /* \"#utility.yul\":14727:14731   */\n      0x00\n        /* \"#utility.yul\":14765:14767   */\n      0x20\n        /* \"#utility.yul\":14754:14763   */\n      dup3\n        /* \"#utility.yul\":14750:14768   */\n      add\n        /* \"#utility.yul\":14742:14768   */\n      swap1\n      pop\n        /* \"#utility.yul\":14814:14823   */\n      dup2\n        /* \"#utility.yul\":14808:14812   */\n      dup2\n        /* \"#utility.yul\":14804:14824   */\n      sub\n        /* \"#utility.yul\":14800:14801   */\n      0x00\n        /* \"#utility.yul\":14789:14798   */\n      dup4\n        /* \"#utility.yul\":14785:14802   */\n      add\n        /* \"#utility.yul\":14778:14825   */\n      mstore\n        /* \"#utility.yul\":14842:14973   */\n      tag_476\n        /* \"#utility.yul\":14968:14972   */\n      dup2\n        /* \"#utility.yul\":14842:14973   */\n      tag_310\n      jump\t// in\n    tag_476:\n        /* \"#utility.yul\":14834:14973   */\n      swap1\n      pop\n        /* \"#utility.yul\":14561:14980   */\n      swap2\n      swap1\n      pop\n      jump\t// out\n        /* \"#utility.yul\":14986:15210   */\n    tag_311:\n        /* \"#utility.yul\":15126:15160   */\n      0x45524332303a2064656372656173656420616c6c6f77616e63652062656c6f77\n        /* \"#utility.yul\":15122:15123   */\n      0x00\n        /* \"#utility.yul\":15114:15120   */\n      dup3\n        /* \"#utility.yul\":15110:15124   */\n      add\n        /* \"#utility.yul\":15103:15161   */\n      mstore\n        /* \"#utility.yul\":15195:15202   */\n      0x207a65726f000000000000000000000000000000000000000000000000000000\n        /* \"#utility.yul\":15190:15192   */\n      0x20\n        /* \"#utility.yul\":15182:15188   */\n      dup3\n        /* \"#utility.yul\":15178:15193   */\n      add\n        /* \"#utility.yul\":15171:15203   */\n      mstore\n        /* \"#utility.yul\":14986:15210   */\n      pop\n      jump\t// out\n        /* \"#utility.yul\":15216:15582   */\n    tag_312:\n        /* \"#utility.yul\":15358:15361   */\n      0x00\n        /* \"#utility.yul\":15379:15446   */\n      tag_479\n        /* \"#utility.yul\":15443:15445   */\n      0x25\n        /* \"#utility.yul\":15438:15441   */\n      dup4\n        /* \"#utility.yul\":15379:15446   */\n      tag_272\n      jump\t// in\n    tag_479:\n        /* \"#utility.yul\":15372:15446   */\n      swap2\n      pop\n        /* \"#utility.yul\":15455:15548   */\n      tag_480\n        /* \"#utility.yul\":15544:15547   */\n      dup3\n        /* \"#utility.yul\":15455:15548   */\n      tag_311\n      jump\t// in\n    tag_480:\n        /* \"#utility.yul\":15573:15575   */\n      0x40\n        /* \"#utility.yul\":15568:15571   */\n      dup3\n        /* \"#utility.yul\":15564:15576   */\n      add\n        /* \"#utility.yul\":15557:15576   */\n      swap1\n      pop\n        /* \"#utility.yul\":15216:15582   */\n      swap2\n      swap1\n      pop\n      jump\t// out\n        /* \"#utility.yul\":15588:16007   */\n    tag_199:\n        /* \"#utility.yul\":15754:15758   */\n      0x00\n        /* \"#utility.yul\":15792:15794   */\n      0x20\n        /* \"#utility.yul\":15781:15790   */\n      dup3\n        /* \"#utility.yul\":15777:15795   */\n      add\n        /* \"#utility.yul\":15769:15795   */\n      swap1\n      pop\n        /* \"#utility.yul\":15841:15850   */\n      dup2\n        /* \"#utility.yul\":15835:15839   */\n      dup2\n        /* \"#utility.yul\":15831:15851   */\n      sub\n        /* \"#utility.yul\":15827:15828   */\n      0x00\n        /* \"#utility.yul\":15816:15825   */\n      dup4\n        /* \"#utility.yul\":15812:15829   */\n      add\n        /* \"#utility.yul\":15805:15852   */\n      mstore\n        /* \"#utility.yul\":15869:16000   */\n      tag_482\n        /* \"#utility.yul\":15995:15999   */\n      dup2\n        /* \"#utility.yul\":15869:16000   */\n      tag_312\n      jump\t// in\n    tag_482:\n        /* \"#utility.yul\":15861:16000   */\n      swap1\n      pop\n        /* \"#utility.yul\":15588:16007   */\n      swap2\n      swap1\n      pop\n      jump\t// out\n        /* \"#utility.yul\":16013:16184   */\n    tag_313:\n        /* \"#utility.yul\":16153:16176   */\n      0x6d73672e76616c7565203c20302e312065746865720000000000000000000000\n        /* \"#utility.yul\":16149:16150   */\n      0x00\n        /* \"#utility.yul\":16141:16147   */\n      dup3\n        /* \"#utility.yul\":16137:16151   */\n      add\n        /* \"#utility.yul\":16130:16177   */\n      mstore\n        /* \"#utility.yul\":16013:16184   */\n      pop\n      jump\t// out\n        /* \"#utility.yul\":16190:16556   */\n    tag_314:\n        /* \"#utility.yul\":16332:16335   */\n      0x00\n        /* \"#utility.yul\":16353:16420   */\n      tag_485\n        /* \"#utility.yul\":16417:16419   */\n      0x15\n        /* \"#utility.yul\":16412:16415   */\n      dup4\n        /* \"#utility.yul\":16353:16420   */\n      tag_272\n      jump\t// in\n    tag_485:\n        /* \"#utility.yul\":16346:16420   */\n      swap2\n      pop\n        /* \"#utility.yul\":16429:16522   */\n      tag_486\n        /* \"#utility.yul\":16518:16521   */\n      dup3\n        /* \"#utility.yul\":16429:16522   */\n      tag_313\n      jump\t// in\n    tag_486:\n        /* \"#utility.yul\":16547:16549   */\n      0x20\n        /* \"#utility.yul\":16542:16545   */\n      dup3\n        /* \"#utility.yul\":16538:16550   */\n      add\n        /* \"#utility.yul\":16531:16550   */\n      swap1\n      pop\n        /* \"#utility.yul\":16190:16556   */\n      swap2\n      swap1\n      pop\n      jump\t// out\n        /* \"#utility.yul\":16562:16981   */\n    tag_208:\n        /* \"#utility.yul\":16728:16732   */\n      0x00\n        /* \"#utility.yul\":16766:16768   */\n      0x20\n        /* \"#utility.yul\":16755:16764   */\n      dup3\n        /* \"#utility.yul\":16751:16769   */\n      add\n        /* \"#utility.yul\":16743:16769   */\n      swap1\n      pop\n        /* \"#utility.yul\":16815:16824   */\n      dup2\n        /* \"#utility.yul\":16809:16813   */\n      dup2\n        /* \"#utility.yul\":16805:16825   */\n      sub\n        /* \"#utility.yul\":16801:16802   */\n      0x00\n        /* \"#utility.yul\":16790:16799   */\n      dup4\n        /* \"#utility.yul\":16786:16803   */\n      add\n        /* \"#utility.yul\":16779:16826   */\n      mstore\n        /* \"#utility.yul\":16843:16974   */\n      tag_488\n        /* \"#utility.yul\":16969:16973   */\n      dup2\n        /* \"#utility.yul\":16843:16974   */\n      tag_314\n      jump\t// in\n    tag_488:\n        /* \"#utility.yul\":16835:16974   */\n      swap1\n      pop\n        /* \"#utility.yul\":16562:16981   */\n      swap2\n      swap1\n      pop\n      jump\t// out\n        /* \"#utility.yul\":16987:17210   */\n    tag_315:\n        /* \"#utility.yul\":17127:17161   */\n      0x45524332303a20617070726f76652066726f6d20746865207a65726f20616464\n        /* \"#utility.yul\":17123:17124   */\n      0x00\n        /* \"#utility.yul\":17115:17121   */\n      dup3\n        /* \"#utility.yul\":17111:17125   */\n      add\n        /* \"#utility.yul\":17104:17162   */\n      mstore\n        /* \"#utility.yul\":17196:17202   */\n      0x7265737300000000000000000000000000000000000000000000000000000000\n        /* \"#utility.yul\":17191:17193   */\n      0x20\n        /* \"#utility.yul\":17183:17189   */\n      dup3\n        /* \"#utility.yul\":17179:17194   */\n      add\n        /* \"#utility.yul\":17172:17203   */\n      mstore\n        /* \"#utility.yul\":16987:17210   */\n      pop\n      jump\t// out\n        /* \"#utility.yul\":17216:17582   */\n    tag_316:\n        /* \"#utility.yul\":17358:17361   */\n      0x00\n        /* \"#utility.yul\":17379:17446   */\n      tag_491\n        /* \"#utility.yul\":17443:17445   */\n      0x24\n        /* \"#utility.yul\":17438:17441   */\n      dup4\n        /* \"#utility.yul\":17379:17446   */\n      tag_272\n      jump\t// in\n    tag_491:\n        /* \"#utility.yul\":17372:17446   */\n      swap2\n      pop\n        /* \"#utility.yul\":17455:17548   */\n      tag_492\n        /* \"#utility.yul\":17544:17547   */\n      dup3\n        /* \"#utility.yul\":17455:17548   */\n      tag_315\n      jump\t// in\n    tag_492:\n        /* \"#utility.yul\":17573:17575   */\n      0x40\n        /* \"#utility.yul\":17568:17571   */\n      dup3\n        /* \"#utility.yul\":17564:17576   */\n      add\n        /* \"#utility.yul\":17557:17576   */\n      swap1\n      pop\n        /* \"#utility.yul\":17216:17582   */\n      swap2\n      swap1\n      pop\n      jump\t// out\n        /* \"#utility.yul\":17588:18007   */\n    tag_217:\n        /* \"#utility.yul\":17754:17758   */\n      0x00\n        /* \"#utility.yul\":17792:17794   */\n      0x20\n        /* \"#utility.yul\":17781:17790   */\n      dup3\n        /* \"#utility.yul\":17777:17795   */\n      add\n        /* \"#utility.yul\":17769:17795   */\n      swap1\n      pop\n        /* \"#utility.yul\":17841:17850   */\n      dup2\n        /* \"#utility.yul\":17835:17839   */\n      dup2\n        /* \"#utility.yul\":17831:17851   */\n      sub\n        /* \"#utility.yul\":17827:17828   */\n      0x00\n        /* \"#utility.yul\":17816:17825   */\n      dup4\n        /* \"#utility.yul\":17812:17829   */\n      add\n        /* \"#utility.yul\":17805:17852   */\n      mstore\n        /* \"#utility.yul\":17869:18000   */\n      tag_494\n        /* \"#utility.yul\":17995:17999   */\n      dup2\n        /* \"#utility.yul\":17869:18000   */\n      tag_316\n      jump\t// in\n    tag_494:\n        /* \"#utility.yul\":17861:18000   */\n      swap1\n      pop\n        /* \"#utility.yul\":17588:18007   */\n      swap2\n      swap1\n      pop\n      jump\t// out\n        /* \"#utility.yul\":18013:18234   */\n    tag_317:\n        /* \"#utility.yul\":18153:18187   */\n      0x45524332303a20617070726f766520746f20746865207a65726f206164647265\n        /* \"#utility.yul\":18149:18150   */\n      0x00\n        /* \"#utility.yul\":18141:18147   */\n      dup3\n        /* \"#utility.yul\":18137:18151   */\n      add\n        /* \"#utility.yul\":18130:18188   */\n      mstore\n        /* \"#utility.yul\":18222:18226   */\n      0x7373000000000000000000000000000000000000000000000000000000000000\n        /* \"#utility.yul\":18217:18219   */\n      0x20\n        /* \"#utility.yul\":18209:18215   */\n      dup3\n        /* \"#utility.yul\":18205:18220   */\n      add\n        /* \"#utility.yul\":18198:18227   */\n      mstore\n        /* \"#utility.yul\":18013:18234   */\n      pop\n      jump\t// out\n        /* \"#utility.yul\":18240:18606   */\n    tag_318:\n        /* \"#utility.yul\":18382:18385   */\n      0x00\n        /* \"#utility.yul\":18403:18470   */\n      tag_497\n        /* \"#utility.yul\":18467:18469   */\n      0x22\n        /* \"#utility.yul\":18462:18465   */\n      dup4\n        /* \"#utility.yul\":18403:18470   */\n      tag_272\n      jump\t// in\n    tag_497:\n        /* \"#utility.yul\":18396:18470   */\n      swap2\n      pop\n        /* \"#utility.yul\":18479:18572   */\n      tag_498\n        /* \"#utility.yul\":18568:18571   */\n      dup3\n        /* \"#utility.yul\":18479:18572   */\n      tag_317\n      jump\t// in\n    tag_498:\n        /* \"#utility.yul\":18597:18599   */\n      0x40\n        /* \"#utility.yul\":18592:18595   */\n      dup3\n        /* \"#utility.yul\":18588:18600   */\n      add\n        /* \"#utility.yul\":18581:18600   */\n      swap1\n      pop\n        /* \"#utility.yul\":18240:18606   */\n      swap2\n      swap1\n      pop\n      jump\t// out\n        /* \"#utility.yul\":18612:19031   */\n    tag_220:\n        /* \"#utility.yul\":18778:18782   */\n      0x00\n        /* \"#utility.yul\":18816:18818   */\n      0x20\n        /* \"#utility.yul\":18805:18814   */\n      dup3\n        /* \"#utility.yul\":18801:18819   */\n      add\n        /* \"#utility.yul\":18793:18819   */\n      swap1\n      pop\n        /* \"#utility.yul\":18865:18874   */\n      dup2\n        /* \"#utility.yul\":18859:18863   */\n      dup2\n        /* \"#utility.yul\":18855:18875   */\n      sub\n        /* \"#utility.yul\":18851:18852   */\n      0x00\n        /* \"#utility.yul\":18840:18849   */\n      dup4\n        /* \"#utility.yul\":18836:18853   */\n      add\n        /* \"#utility.yul\":18829:18876   */\n      mstore\n        /* \"#utility.yul\":18893:19024   */\n      tag_500\n        /* \"#utility.yul\":19019:19023   */\n      dup2\n        /* \"#utility.yul\":18893:19024   */\n      tag_318\n      jump\t// in\n    tag_500:\n        /* \"#utility.yul\":18885:19024   */\n      swap1\n      pop\n        /* \"#utility.yul\":18612:19031   */\n      swap2\n      swap1\n      pop\n      jump\t// out\n        /* \"#utility.yul\":19037:19216   */\n    tag_319:\n        /* \"#utility.yul\":19177:19208   */\n      0x45524332303a20696e73756666696369656e7420616c6c6f77616e6365000000\n        /* \"#utility.yul\":19173:19174   */\n      0x00\n        /* \"#utility.yul\":19165:19171   */\n      dup3\n        /* \"#utility.yul\":19161:19175   */\n      add\n        /* \"#utility.yul\":19154:19209   */\n      mstore\n        /* \"#utility.yul\":19037:19216   */\n      pop\n      jump\t// out\n        /* \"#utility.yul\":19222:19588   */\n    tag_320:\n        /* \"#utility.yul\":19364:19367   */\n      0x00\n        /* \"#utility.yul\":19385:19452   */\n      tag_503\n        /* \"#utility.yul\":19449:19451   */\n      0x1d\n        /* \"#utility.yul\":19444:19447   */\n      dup4\n        /* \"#utility.yul\":19385:19452   */\n      tag_272\n      jump\t// in\n    tag_503:\n        /* \"#utility.yul\":19378:19452   */\n      swap2\n      pop\n        /* \"#utility.yul\":19461:19554   */\n      tag_504\n        /* \"#utility.yul\":19550:19553   */\n      dup3\n        /* \"#utility.yul\":19461:19554   */\n      tag_319\n      jump\t// in\n    tag_504:\n        /* \"#utility.yul\":19579:19581   */\n      0x20\n        /* \"#utility.yul\":19574:19577   */\n      dup3\n        /* \"#utility.yul\":19570:19582   */\n      add\n        /* \"#utility.yul\":19563:19582   */\n      swap1\n      pop\n        /* \"#utility.yul\":19222:19588   */\n      swap2\n      swap1\n      pop\n      jump\t// out\n        /* \"#utility.yul\":19594:20013   */\n    tag_227:\n        /* \"#utility.yul\":19760:19764   */\n      0x00\n        /* \"#utility.yul\":19798:19800   */\n      0x20\n        /* \"#utility.yul\":19787:19796   */\n      dup3\n        /* \"#utility.yul\":19783:19801   */\n      add\n        /* \"#utility.yul\":19775:19801   */\n      swap1\n      pop\n        /* \"#utility.yul\":19847:19856   */\n      dup2\n        /* \"#utility.yul\":19841:19845   */\n      dup2\n        /* \"#utility.yul\":19837:19857   */\n      sub\n        /* \"#utility.yul\":19833:19834   */\n      0x00\n        /* \"#utility.yul\":19822:19831   */\n      dup4\n        /* \"#utility.yul\":19818:19835   */\n      add\n        /* \"#utility.yul\":19811:19858   */\n      mstore\n        /* \"#utility.yul\":19875:20006   */\n      tag_506\n        /* \"#utility.yul\":20001:20005   */\n      dup2\n        /* \"#utility.yul\":19875:20006   */\n      tag_320\n      jump\t// in\n    tag_506:\n        /* \"#utility.yul\":19867:20006   */\n      swap1\n      pop\n        /* \"#utility.yul\":19594:20013   */\n      swap2\n      swap1\n      pop\n      jump\t// out\n        /* \"#utility.yul\":20019:20243   */\n    tag_321:\n        /* \"#utility.yul\":20159:20193   */\n      0x45524332303a207472616e736665722066726f6d20746865207a65726f206164\n        /* \"#utility.yul\":20155:20156   */\n      0x00\n        /* \"#utility.yul\":20147:20153   */\n      dup3\n        /* \"#utility.yul\":20143:20157   */\n      add\n        /* \"#utility.yul\":20136:20194   */\n      mstore\n        /* \"#utility.yul\":20228:20235   */\n      0x6472657373000000000000000000000000000000000000000000000000000000\n        /* \"#utility.yul\":20223:20225   */\n      0x20\n        /* \"#utility.yul\":20215:20221   */\n      dup3\n        /* \"#utility.yul\":20211:20226   */\n      add\n        /* \"#utility.yul\":20204:20236   */\n      mstore\n        /* \"#utility.yul\":20019:20243   */\n      pop\n      jump\t// out\n        /* \"#utility.yul\":20249:20615   */\n    tag_322:\n        /* \"#utility.yul\":20391:20394   */\n      0x00\n        /* \"#utility.yul\":20412:20479   */\n      tag_509\n        /* \"#utility.yul\":20476:20478   */\n      0x25\n        /* \"#utility.yul\":20471:20474   */\n      dup4\n        /* \"#utility.yul\":20412:20479   */\n      tag_272\n      jump\t// in\n    tag_509:\n        /* \"#utility.yul\":20405:20479   */\n      swap2\n      pop\n        /* \"#utility.yul\":20488:20581   */\n      tag_510\n        /* \"#utility.yul\":20577:20580   */\n      dup3\n        /* \"#utility.yul\":20488:20581   */\n      tag_321\n      jump\t// in\n    tag_510:\n        /* \"#utility.yul\":20606:20608   */\n      0x40\n        /* \"#utility.yul\":20601:20604   */\n      dup3\n        /* \"#utility.yul\":20597:20609   */\n      add\n        /* \"#utility.yul\":20590:20609   */\n      swap1\n      pop\n        /* \"#utility.yul\":20249:20615   */\n      swap2\n      swap1\n      pop\n      jump\t// out\n        /* \"#utility.yul\":20621:21040   */\n    tag_232:\n        /* \"#utility.yul\":20787:20791   */\n      0x00\n        /* \"#utility.yul\":20825:20827   */\n      0x20\n        /* \"#utility.yul\":20814:20823   */\n      dup3\n        /* \"#utility.yul\":20810:20828   */\n      add\n        /* \"#utility.yul\":20802:20828   */\n      swap1\n      pop\n        /* \"#utility.yul\":20874:20883   */\n      dup2\n        /* \"#utility.yul\":20868:20872   */\n      dup2\n        /* \"#utility.yul\":20864:20884   */\n      sub\n        /* \"#utility.yul\":20860:20861   */\n      0x00\n        /* \"#utility.yul\":20849:20858   */\n      dup4\n        /* \"#utility.yul\":20845:20862   */\n      add\n        /* \"#utility.yul\":20838:20885   */\n      mstore\n        /* \"#utility.yul\":20902:21033   */\n      tag_512\n        /* \"#utility.yul\":21028:21032   */\n      dup2\n        /* \"#utility.yul\":20902:21033   */\n      tag_322\n      jump\t// in\n    tag_512:\n        /* \"#utility.yul\":20894:21033   */\n      swap1\n      pop\n        /* \"#utility.yul\":20621:21040   */\n      swap2\n      swap1\n      pop\n      jump\t// out\n        /* \"#utility.yul\":21046:21268   */\n    tag_323:\n        /* \"#utility.yul\":21186:21220   */\n      0x45524332303a207472616e7366657220746f20746865207a65726f2061646472\n        /* \"#utility.yul\":21182:21183   */\n      0x00\n        /* \"#utility.yul\":21174:21180   */\n      dup3\n        /* \"#utility.yul\":21170:21184   */\n      add\n        /* \"#utility.yul\":21163:21221   */\n      mstore\n        /* \"#utility.yul\":21255:21260   */\n      0x6573730000000000000000000000000000000000000000000000000000000000\n        /* \"#utility.yul\":21250:21252   */\n      0x20\n        /* \"#utility.yul\":21242:21248   */\n      dup3\n        /* \"#utility.yul\":21238:21253   */\n      add\n        /* \"#utility.yul\":21231:21261   */\n      mstore\n        /* \"#utility.yul\":21046:21268   */\n      pop\n      jump\t// out\n        /* \"#utility.yul\":21274:21640   */\n    tag_324:\n        /* \"#utility.yul\":21416:21419   */\n      0x00\n        /* \"#utility.yul\":21437:21504   */\n      tag_515\n        /* \"#utility.yul\":21501:21503   */\n      0x23\n        /* \"#utility.yul\":21496:21499   */\n      dup4\n        /* \"#utility.yul\":21437:21504   */\n      tag_272\n      jump\t// in\n    tag_515:\n        /* \"#utility.yul\":21430:21504   */\n      swap2\n      pop\n        /* \"#utility.yul\":21513:21606   */\n      tag_516\n        /* \"#utility.yul\":21602:21605   */\n      dup3\n        /* \"#utility.yul\":21513:21606   */\n      tag_323\n      jump\t// in\n    tag_516:\n        /* \"#utility.yul\":21631:21633   */\n      0x40\n        /* \"#utility.yul\":21626:21629   */\n      dup3\n        /* \"#utility.yul\":21622:21634   */\n      add\n        /* \"#utility.yul\":21615:21634   */\n      swap1\n      pop\n        /* \"#utility.yul\":21274:21640   */\n      swap2\n      swap1\n      pop\n      jump\t// out\n        /* \"#utility.yul\":21646:22065   */\n    tag_235:\n        /* \"#utility.yul\":21812:21816   */\n      0x00\n        /* \"#utility.yul\":21850:21852   */\n      0x20\n        /* \"#utility.yul\":21839:21848   */\n      dup3\n        /* \"#utility.yul\":21835:21853   */\n      add\n        /* \"#utility.yul\":21827:21853   */\n      swap1\n      pop\n        /* \"#utility.yul\":21899:21908   */\n      dup2\n        /* \"#utility.yul\":21893:21897   */\n      dup2\n        /* \"#utility.yul\":21889:21909   */\n      sub\n        /* \"#utility.yul\":21885:21886   */\n      0x00\n        /* \"#utility.yul\":21874:21883   */\n      dup4\n        /* \"#utility.yul\":21870:21887   */\n      add\n        /* \"#utility.yul\":21863:21910   */\n      mstore\n        /* \"#utility.yul\":21927:22058   */\n      tag_518\n        /* \"#utility.yul\":22053:22057   */\n      dup2\n        /* \"#utility.yul\":21927:22058   */\n      tag_324\n      jump\t// in\n    tag_518:\n        /* \"#utility.yul\":21919:22058   */\n      swap1\n      pop\n        /* \"#utility.yul\":21646:22065   */\n      swap2\n      swap1\n      pop\n      jump\t// out\n        /* \"#utility.yul\":22071:22296   */\n    tag_325:\n        /* \"#utility.yul\":22211:22245   */\n      0x45524332303a207472616e7366657220616d6f756e7420657863656564732062\n        /* \"#utility.yul\":22207:22208   */\n      0x00\n        /* \"#utility.yul\":22199:22205   */\n      dup3\n        /* \"#utility.yul\":22195:22209   */\n      add\n        /* \"#utility.yul\":22188:22246   */\n      mstore\n        /* \"#utility.yul\":22280:22288   */\n      0x616c616e63650000000000000000000000000000000000000000000000000000\n        /* \"#utility.yul\":22275:22277   */\n      0x20\n        /* \"#utility.yul\":22267:22273   */\n      dup3\n        /* \"#utility.yul\":22263:22278   */\n      add\n        /* \"#utility.yul\":22256:22289   */\n      mstore\n        /* \"#utility.yul\":22071:22296   */\n      pop\n      jump\t// out\n        /* \"#utility.yul\":22302:22668   */\n    tag_326:\n        /* \"#utility.yul\":22444:22447   */\n      0x00\n        /* \"#utility.yul\":22465:22532   */\n      tag_521\n        /* \"#utility.yul\":22529:22531   */\n      0x26\n        /* \"#utility.yul\":22524:22527   */\n      dup4\n        /* \"#utility.yul\":22465:22532   */\n      tag_272\n      jump\t// in\n    tag_521:\n        /* \"#utility.yul\":22458:22532   */\n      swap2\n      pop\n        /* \"#utility.yul\":22541:22634   */\n      tag_522\n        /* \"#utility.yul\":22630:22633   */\n      dup3\n        /* \"#utility.yul\":22541:22634   */\n      tag_325\n      jump\t// in\n    tag_522:\n        /* \"#utility.yul\":22659:22661   */\n      0x40\n        /* \"#utility.yul\":22654:22657   */\n      dup3\n        /* \"#utility.yul\":22650:22662   */\n      add\n        /* \"#utility.yul\":22643:22662   */\n      swap1\n      pop\n        /* \"#utility.yul\":22302:22668   */\n      swap2\n      swap1\n      pop\n      jump\t// out\n        /* \"#utility.yul\":22674:23093   */\n    tag_240:\n        /* \"#utility.yul\":22840:22844   */\n      0x00\n        /* \"#utility.yul\":22878:22880   */\n      0x20\n        /* \"#utility.yul\":22867:22876   */\n      dup3\n        /* \"#utility.yul\":22863:22881   */\n      add\n        /* \"#utility.yul\":22855:22881   */\n      swap1\n      pop\n        /* \"#utility.yul\":22927:22936   */\n      dup2\n        /* \"#utility.yul\":22921:22925   */\n      dup2\n        /* \"#utility.yul\":22917:22937   */\n      sub\n        /* \"#utility.yul\":22913:22914   */\n      0x00\n        /* \"#utility.yul\":22902:22911   */\n      dup4\n        /* \"#utility.yul\":22898:22915   */\n      add\n        /* \"#utility.yul\":22891:22938   */\n      mstore\n        /* \"#utility.yul\":22955:23086   */\n      tag_524\n        /* \"#utility.yul\":23081:23085   */\n      dup2\n        /* \"#utility.yul\":22955:23086   */\n      tag_326\n      jump\t// in\n    tag_524:\n        /* \"#utility.yul\":22947:23086   */\n      swap1\n      pop\n        /* \"#utility.yul\":22674:23093   */\n      swap2\n      swap1\n      pop\n      jump\t// out\n        /* \"#utility.yul\":23099:23178   */\n    tag_327:\n        /* \"#utility.yul\":23138:23145   */\n      0x00\n        /* \"#utility.yul\":23167:23172   */\n      dup2\n        /* \"#utility.yul\":23156:23172   */\n      swap1\n      pop\n        /* \"#utility.yul\":23099:23178   */\n      swap2\n      swap1\n      pop\n      jump\t// out\n        /* \"#utility.yul\":23184:23341   */\n    tag_328:\n        /* \"#utility.yul\":23289:23334   */\n      tag_527\n        /* \"#utility.yul\":23309:23333   */\n      tag_528\n        /* \"#utility.yul\":23327:23332   */\n      dup3\n        /* \"#utility.yul\":23309:23333   */\n      tag_286\n      jump\t// in\n    tag_528:\n        /* \"#utility.yul\":23289:23334   */\n      tag_327\n      jump\t// in\n    tag_527:\n        /* \"#utility.yul\":23284:23287   */\n      dup3\n        /* \"#utility.yul\":23277:23335   */\n      mstore\n        /* \"#utility.yul\":23184:23341   */\n      pop\n      pop\n      jump\t// out\n        /* \"#utility.yul\":23347:23885   */\n    tag_247:\n        /* \"#utility.yul\":23515:23518   */\n      0x00\n        /* \"#utility.yul\":23530:23605   */\n      tag_530\n        /* \"#utility.yul\":23601:23604   */\n      dup3\n        /* \"#utility.yul\":23592:23598   */\n      dup7\n        /* \"#utility.yul\":23530:23605   */\n      tag_328\n      jump\t// in\n    tag_530:\n        /* \"#utility.yul\":23630:23632   */\n      0x20\n        /* \"#utility.yul\":23625:23628   */\n      dup3\n        /* \"#utility.yul\":23621:23633   */\n      add\n        /* \"#utility.yul\":23614:23633   */\n      swap2\n      pop\n        /* \"#utility.yul\":23643:23718   */\n      tag_531\n        /* \"#utility.yul\":23714:23717   */\n      dup3\n        /* \"#utility.yul\":23705:23711   */\n      dup6\n        /* \"#utility.yul\":23643:23718   */\n      tag_328\n      jump\t// in\n    tag_531:\n        /* \"#utility.yul\":23743:23745   */\n      0x20\n        /* \"#utility.yul\":23738:23741   */\n      dup3\n        /* \"#utility.yul\":23734:23746   */\n      add\n        /* \"#utility.yul\":23727:23746   */\n      swap2\n      pop\n        /* \"#utility.yul\":23756:23831   */\n      tag_532\n        /* \"#utility.yul\":23827:23830   */\n      dup3\n        /* \"#utility.yul\":23818:23824   */\n      dup5\n        /* \"#utility.yul\":23756:23831   */\n      tag_328\n      jump\t// in\n    tag_532:\n        /* \"#utility.yul\":23856:23858   */\n      0x20\n        /* \"#utility.yul\":23851:23854   */\n      dup3\n        /* \"#utility.yul\":23847:23859   */\n      add\n        /* \"#utility.yul\":23840:23859   */\n      swap2\n      pop\n        /* \"#utility.yul\":23876:23879   */\n      dup2\n        /* \"#utility.yul\":23869:23879   */\n      swap1\n      pop\n        /* \"#utility.yul\":23347:23885   */\n      swap5\n      swap4\n      pop\n      pop\n      pop\n      pop\n      jump\t// out\n        /* \"#utility.yul\":23891:24071   */\n    tag_251:\n        /* \"#utility.yul\":23939:24016   */\n      0x4e487b7100000000000000000000000000000000000000000000000000000000\n        /* \"#utility.yul\":23936:23937   */\n      0x00\n        /* \"#utility.yul\":23929:24017   */\n      mstore\n        /* \"#utility.yul\":24036:24040   */\n      0x41\n        /* \"#utility.yul\":24033:24034   */\n      0x04\n        /* \"#utility.yul\":24026:24041   */\n      mstore\n        /* \"#utility.yul\":24060:24064   */\n      0x24\n        /* \"#utility.yul\":24057:24058   */\n      0x00\n        /* \"#utility.yul\":24050:24065   */\n      revert\n        /* \"#utility.yul\":24077:24313   */\n    tag_329:\n        /* \"#utility.yul\":24217:24251   */\n      0x4661696c656420746f2073656e6420757365722062616c616e6365206261636b\n        /* \"#utility.yul\":24213:24214   */\n      0x00\n        /* \"#utility.yul\":24205:24211   */\n      dup3\n        /* \"#utility.yul\":24201:24215   */\n      add\n        /* \"#utility.yul\":24194:24252   */\n      mstore\n        /* \"#utility.yul\":24286:24305   */\n      0x20746f207468652061646d696e20666565000000000000000000000000000000\n        /* \"#utility.yul\":24281:24283   */\n      0x20\n        /* \"#utility.yul\":24273:24279   */\n      dup3\n        /* \"#utility.yul\":24269:24284   */\n      add\n        /* \"#utility.yul\":24262:24306   */\n      mstore\n        /* \"#utility.yul\":24077:24313   */\n      pop\n      jump\t// out\n        /* \"#utility.yul\":24319:24685   */\n    tag_330:\n        /* \"#utility.yul\":24461:24464   */\n      0x00\n        /* \"#utility.yul\":24482:24549   */\n      tag_536\n        /* \"#utility.yul\":24546:24548   */\n      0x31\n        /* \"#utility.yul\":24541:24544   */\n      dup4\n        /* \"#utility.yul\":24482:24549   */\n      tag_272\n      jump\t// in\n    tag_536:\n        /* \"#utility.yul\":24475:24549   */\n      swap2\n      pop\n        /* \"#utility.yul\":24558:24651   */\n      tag_537\n        /* \"#utility.yul\":24647:24650   */\n      dup3\n        /* \"#utility.yul\":24558:24651   */\n      tag_329\n      jump\t// in\n    tag_537:\n        /* \"#utility.yul\":24676:24678   */\n      0x40\n        /* \"#utility.yul\":24671:24674   */\n      dup3\n        /* \"#utility.yul\":24667:24679   */\n      add\n        /* \"#utility.yul\":24660:24679   */\n      swap1\n      pop\n        /* \"#utility.yul\":24319:24685   */\n      swap2\n      swap1\n      pop\n      jump\t// out\n        /* \"#utility.yul\":24691:25110   */\n    tag_262:\n        /* \"#utility.yul\":24857:24861   */\n      0x00\n        /* \"#utility.yul\":24895:24897   */\n      0x20\n        /* \"#utility.yul\":24884:24893   */\n      dup3\n        /* \"#utility.yul\":24880:24898   */\n      add\n        /* \"#utility.yul\":24872:24898   */\n      swap1\n      pop\n        /* \"#utility.yul\":24944:24953   */\n      dup2\n        /* \"#utility.yul\":24938:24942   */\n      dup2\n        /* \"#utility.yul\":24934:24954   */\n      sub\n        /* \"#utility.yul\":24930:24931   */\n      0x00\n        /* \"#utility.yul\":24919:24928   */\n      dup4\n        /* \"#utility.yul\":24915:24932   */\n      add\n        /* \"#utility.yul\":24908:24955   */\n      mstore\n        /* \"#utility.yul\":24972:25103   */\n      tag_539\n        /* \"#utility.yul\":25098:25102   */\n      dup2\n        /* \"#utility.yul\":24972:25103   */\n      tag_330\n      jump\t// in\n    tag_539:\n        /* \"#utility.yul\":24964:25103   */\n      swap1\n      pop\n        /* \"#utility.yul\":24691:25110   */\n      swap2\n      swap1\n      pop\n      jump\t// out\n\n    auxdata: 0xa26469706673582212200da191a92ba709431013e7ea88c6d19deff09809ae6f0803c83aa9c6689f4f4b64736f6c63430008110033\n}\n",
				"bytecode": {
					"linkReferences": {},
					"object": "6080604052600a6007553480156200001657600080fd5b506040518060400160405280601081526020017f4d53484b20455243323020546f6b656e000000000000000000000000000000008152506040518060400160405280600481526020017f4d53484b0000000000000000000000000000000000000000000000000000000081525081600390816200009491906200058d565b508060049081620000a691906200058d565b50505033600660006101000a81548173ffffffffffffffffffffffffffffffffffffffff021916908373ffffffffffffffffffffffffffffffffffffffff1602179055506005600660009054906101000a900473ffffffffffffffffffffffffffffffffffffffff169080600181540180825580915050600190039060005260206000200160009091909190916101000a81548173ffffffffffffffffffffffffffffffffffffffff021916908373ffffffffffffffffffffffffffffffffffffffff1602179055506200018b3369021e19e0c9bab24000006200019160201b60201c565b6200078f565b600073ffffffffffffffffffffffffffffffffffffffff168273ffffffffffffffffffffffffffffffffffffffff160362000203576040517f08c379a0000000000000000000000000000000000000000000000000000000008152600401620001fa90620006d5565b60405180910390fd5b62000217600083836200030960201b60201c565b80600260008282546200022b919062000726565b92505081905550806000808473ffffffffffffffffffffffffffffffffffffffff1673ffffffffffffffffffffffffffffffffffffffff168152602001908152602001600020600082825462000282919062000726565b925050819055508173ffffffffffffffffffffffffffffffffffffffff16600073ffffffffffffffffffffffffffffffffffffffff167fddf252ad1be2c89b69c2b068fc378daa952ba7f163c4a11628f55a4df523b3ef83604051620002e9919062000772565b60405180910390a362000305600083836200030e60201b60201c565b5050565b505050565b505050565b600081519050919050565b7f4e487b7100000000000000000000000000000000000000000000000000000000600052604160045260246000fd5b7f4e487b7100000000000000000000000000000000000000000000000000000000600052602260045260246000fd5b600060028204905060018216806200039557607f821691505b602082108103620003ab57620003aa6200034d565b5b50919050565b60008190508160005260206000209050919050565b60006020601f8301049050919050565b600082821b905092915050565b600060088302620004157fffffffffffffffffffffffffffffffffffffffffffffffffffffffffffffffff82620003d6565b620004218683620003d6565b95508019841693508086168417925050509392505050565b6000819050919050565b6000819050919050565b60006200046e62000468620004628462000439565b62000443565b62000439565b9050919050565b6000819050919050565b6200048a836200044d565b620004a2620004998262000475565b848454620003e3565b825550505050565b600090565b620004b9620004aa565b620004c68184846200047f565b505050565b5b81811015620004ee57620004e2600082620004af565b600181019050620004cc565b5050565b601f8211156200053d576200050781620003b1565b6200051284620003c6565b8101602085101562000522578190505b6200053a6200053185620003c6565b830182620004cb565b50505b505050565b600082821c905092915050565b6000620005626000198460080262000542565b1980831691505092915050565b60006200057d83836200054f565b9150826002028217905092915050565b620005988262000313565b67ffffffffffffffff811115620005b457620005b36200031e565b5b620005c082546200037c565b620005cd828285620004f2565b600060209050601f831160018114620006055760008415620005f0578287015190505b620005fc85826200056f565b8655506200066c565b601f1984166200061586620003b1565b60005b828110156200063f5784890151825560018201915060208501945060208101905062000618565b868310156200065f57848901516200065b601f8916826200054f565b8355505b6001600288020188555050505b505050505050565b600082825260208201905092915050565b7f45524332303a206d696e7420746f20746865207a65726f206164647265737300600082015250565b6000620006bd601f8362000674565b9150620006ca8262000685565b602082019050919050565b60006020820190508181036000830152620006f081620006ae565b9050919050565b7f4e487b7100000000000000000000000000000000000000000000000000000000600052601160045260246000fd5b6000620007338262000439565b9150620007408362000439565b92508282019050808211156200075b576200075a620006f7565b5b92915050565b6200076c8162000439565b82525050565b600060208201905062000789600083018462000761565b92915050565b6121dc806200079f6000396000f3fe60806040526004361061010d5760003560e01c80637cdf754711610095578063cbdd69b511610064578063cbdd69b5146104a6578063dd62ed3e146104d1578063e97dcb621461050e578063f71d96cb14610518578063f851a440146105555761021a565b80637cdf7547146103d657806395d89b4114610401578063a457c2d71461042c578063a9059cbb146104695761021a565b806323b872dd116100dc57806323b872dd146102dd578063313ce5671461031a57806339509351146103455780635d495aea1461038257806370a08231146103995761021a565b806306fdde031461021f578063095ea7b31461024a57806312065fe01461028757806318160ddd146102b25761021a565b3661021a5767016345785d8a0000341461015c576040517f08c379a0000000000000000000000000000000000000000000000000000000008152600401610153906114b8565b60405180910390fd5b600660009054906101000a900473ffffffffffffffffffffffffffffffffffffffff1673ffffffffffffffffffffffffffffffffffffffff163373ffffffffffffffffffffffffffffffffffffffff16036101b657600080fd5b6005339080600181540180825580915050600190039060005260206000200160009091909190916101000a81548173ffffffffffffffffffffffffffffffffffffffff021916908373ffffffffffffffffffffffffffffffffffffffff1602179055005b600080fd5b34801561022b57600080fd5b50610234610580565b6040516102419190611557565b60405180910390f35b34801561025657600080fd5b50610271600480360381019061026c9190611612565b610612565b60405161027e919061166d565b60405180910390f35b34801561029357600080fd5b5061029c610635565b6040516102a99190611697565b60405180910390f35b3480156102be57600080fd5b506102c76106cd565b6040516102d49190611697565b60405180910390f35b3480156102e957600080fd5b5061030460048036038101906102ff91906116b2565b6106d7565b604051610311919061166d565b60405180910390f35b34801561032657600080fd5b5061032f610706565b60405161033c9190611721565b60405180910390f35b34801561035157600080fd5b5061036c60048036038101906103679190611612565b61070f565b604051610379919061166d565b60405180910390f35b34801561038e57600080fd5b50610397610746565b005b3480156103a557600080fd5b506103c060048036038101906103bb919061173c565b6109aa565b6040516103cd9190611697565b60405180910390f35b3480156103e257600080fd5b506103eb6109f2565b6040516103f89190611697565b60405180910390f35b34801561040d57600080fd5b50610416610a02565b6040516104239190611557565b60405180910390f35b34801561043857600080fd5b50610453600480360381019061044e9190611612565b610a94565b604051610460919061166d565b60405180910390f35b34801561047557600080fd5b50610490600480360381019061048b9190611612565b610b0b565b60405161049d919061166d565b60405180910390f35b3480156104b257600080fd5b506104bb610b2e565b6040516104c89190611697565b60405180910390f35b3480156104dd57600080fd5b506104f860048036038101906104f39190611769565b610b34565b6040516105059190611697565b60405180910390f35b610516610bbb565b005b34801561052457600080fd5b5061053f600480360381019061053a91906117a9565b610cf7565b60405161054c91906117f7565b60405180910390f35b34801561056157600080fd5b5061056a610d36565b6040516105779190611821565b60405180910390f35b60606003805461058f9061186b565b80601f01602080910402602001604051908101604052809291908181526020018280546105bb9061186b565b80156106085780601f106105dd57610100808354040283529160200191610608565b820191906000526020600020905b8154815290600101906020018083116105eb57829003601f168201915b5050505050905090565b60008061061d610d5c565b905061062a818585610d64565b600191505092915050565b60003373ffffffffffffffffffffffffffffffffffffffff16600660009054906101000a900473ffffffffffffffffffffffffffffffffffffffff1673ffffffffffffffffffffffffffffffffffffffff16146106c7576040517f08c379a00000000000000000000000000000000000000000000000000000000081526004016106be906118e8565b60405180910390fd5b47905090565b6000600254905090565b6000806106e2610d5c565b90506106ef858285610f2d565b6106fa858585610fb9565b60019150509392505050565b60006012905090565b60008061071a610d5c565b905061073b81858561072c8589610b34565b6107369190611937565b610d64565b600191505092915050565b3373ffffffffffffffffffffffffffffffffffffffff16600660009054906101000a900473ffffffffffffffffffffffffffffffffffffffff1673ffffffffffffffffffffffffffffffffffffffff16146107d6576040517f08c379a00000000000000000000000000000000000000000000000000000000081526004016107cd906118e8565b60405180910390fd5b6003600580549050101561081f576040517f08c379a0000000000000000000000000000000000000000000000000000000008152600401610816906119dd565b60405180910390fd5b600060058080549050610830611238565b61083a9190611a2c565b8154811061084b5761084a611a5d565b5b9060005260206000200160009054906101000a900473ffffffffffffffffffffffffffffffffffffffff16905060006064610884610635565b605a61088e6109f2565b6108989190611a8c565b6108a29190611ace565b6108ac9190611ace565b9050600081146108f1576040517f08c379a00000000000000000000000000000000000000000000000000000000081526004016108e890611b4b565b60405180910390fd5b60008273ffffffffffffffffffffffffffffffffffffffff168260405161091790611b9c565b60006040518083038185875af1925050503d8060008114610954576040519150601f19603f3d011682016040523d82523d6000602084013e610959565b606091505b505090508061099d576040517f08c379a000000000000000000000000000000000000000000000000000000000815260040161099490611c23565b60405180910390fd5b6109a5611272565b505050565b60008060008373ffffffffffffffffffffffffffffffffffffffff1673ffffffffffffffffffffffffffffffffffffffff168152602001908152602001600020549050919050565b60006109fd336109aa565b905090565b606060048054610a119061186b565b80601f0160208091040260200160405190810160405280929190818152602001828054610a3d9061186b565b8015610a8a5780601f10610a5f57610100808354040283529160200191610a8a565b820191906000526020600020905b815481529060010190602001808311610a6d57829003601f168201915b5050505050905090565b600080610a9f610d5c565b90506000610aad8286610b34565b905083811015610af2576040517f08c379a0000000000000000000000000000000000000000000000000000000008152600401610ae990611cb5565b60405180910390fd5b610aff8286868403610d64565b60019250505092915050565b600080610b16610d5c565b9050610b23818585610fb9565b600191505092915050565b60075481565b6000600160008473ffffffffffffffffffffffffffffffffffffffff1673ffffffffffffffffffffffffffffffffffffffff16815260200190815260200160002060008373ffffffffffffffffffffffffffffffffffffffff1673ffffffffffffffffffffffffffffffffffffffff16815260200190815260200160002054905092915050565b67016345785d8a00003411610c05576040517f08c379a0000000000000000000000000000000000000000000000000000000008152600401610bfc90611d21565b60405180910390fd5b60003490506005339080600181540180825580915050600190039060005260206000200160009091909190916101000a81548173ffffffffffffffffffffffffffffffffffffffff021916908373ffffffffffffffffffffffffffffffffffffffff1602179055503373ffffffffffffffffffffffffffffffffffffffff16600660009054906101000a900473ffffffffffffffffffffffffffffffffffffffff1673ffffffffffffffffffffffffffffffffffffffff167fddf252ad1be2c89b69c2b068fc378daa952ba7f163c4a11628f55a4df523b3ef83604051610cec9190611697565b60405180910390a350565b60058181548110610d0757600080fd5b906000526020600020016000915054906101000a900473ffffffffffffffffffffffffffffffffffffffff1681565b600660009054906101000a900473ffffffffffffffffffffffffffffffffffffffff1681565b600033905090565b600073ffffffffffffffffffffffffffffffffffffffff168373ffffffffffffffffffffffffffffffffffffffff1603610dd3576040517f08c379a0000000000000000000000000000000000000000000000000000000008152600401610dca90611db3565b60405180910390fd5b600073ffffffffffffffffffffffffffffffffffffffff168273ffffffffffffffffffffffffffffffffffffffff1603610e42576040517f08c379a0000000000000000000000000000000000000000000000000000000008152600401610e3990611e45565b60405180910390fd5b80600160008573ffffffffffffffffffffffffffffffffffffffff1673ffffffffffffffffffffffffffffffffffffffff16815260200190815260200160002060008473ffffffffffffffffffffffffffffffffffffffff1673ffffffffffffffffffffffffffffffffffffffff168152602001908152602001600020819055508173ffffffffffffffffffffffffffffffffffffffff168373ffffffffffffffffffffffffffffffffffffffff167f8c5be1e5ebec7d5bd14f71427d1e84f3dd0314c0f7b2291e5b200ac8c7c3b92583604051610f209190611697565b60405180910390a3505050565b6000610f398484610b34565b90507fffffffffffffffffffffffffffffffffffffffffffffffffffffffffffffffff8114610fb35781811015610fa5576040517f08c379a0000000000000000000000000000000000000000000000000000000008152600401610f9c90611eb1565b60405180910390fd5b610fb28484848403610d64565b5b50505050565b600073ffffffffffffffffffffffffffffffffffffffff168373ffffffffffffffffffffffffffffffffffffffff1603611028576040517f08c379a000000000000000000000000000000000000000000000000000000000815260040161101f90611f43565b60405180910390fd5b600073ffffffffffffffffffffffffffffffffffffffff168273ffffffffffffffffffffffffffffffffffffffff1603611097576040517f08c379a000000000000000000000000000000000000000000000000000000000815260040161108e90611fd5565b60405180910390fd5b6110a28383836113aa565b60008060008573ffffffffffffffffffffffffffffffffffffffff1673ffffffffffffffffffffffffffffffffffffffff16815260200190815260200160002054905081811015611128576040517f08c379a000000000000000000000000000000000000000000000000000000000815260040161111f90612067565b60405180910390fd5b8181036000808673ffffffffffffffffffffffffffffffffffffffff1673ffffffffffffffffffffffffffffffffffffffff16815260200190815260200160002081905550816000808573ffffffffffffffffffffffffffffffffffffffff1673ffffffffffffffffffffffffffffffffffffffff16815260200190815260200160002060008282546111bb9190611937565b925050819055508273ffffffffffffffffffffffffffffffffffffffff168473ffffffffffffffffffffffffffffffffffffffff167fddf252ad1be2c89b69c2b068fc378daa952ba7f163c4a11628f55a4df523b3ef8460405161121f9190611697565b60405180910390a36112328484846113af565b50505050565b60004442600580549050604051602001611254939291906120a8565b6040516020818303038152906040528051906020012060001c905090565b600067ffffffffffffffff81111561128d5761128c6120e5565b5b6040519080825280602002602001820160405280156112bb5781602001602082028036833780820191505090505b50600590805190602001906112d19291906113b4565b506000600660009054906101000a900473ffffffffffffffffffffffffffffffffffffffff1673ffffffffffffffffffffffffffffffffffffffff16611315610635565b60405161132190611b9c565b60006040518083038185875af1925050503d806000811461135e576040519150601f19603f3d011682016040523d82523d6000602084013e611363565b606091505b50509050806113a7576040517f08c379a000000000000000000000000000000000000000000000000000000000815260040161139e90612186565b60405180910390fd5b50565b505050565b505050565b82805482825590600052602060002090810192821561142d579160200282015b8281111561142c5782518260006101000a81548173ffffffffffffffffffffffffffffffffffffffff021916908373ffffffffffffffffffffffffffffffffffffffff160217905550916020019190600101906113d4565b5b50905061143a919061143e565b5090565b5b8082111561145757600081600090555060010161143f565b5090565b600082825260208201905092915050565b7f4d7573742073656e6420302e3120657468657220616d6f756e74000000000000600082015250565b60006114a2601a8361145b565b91506114ad8261146c565b602082019050919050565b600060208201905081810360008301526114d181611495565b9050919050565b600081519050919050565b60005b838110156115015780820151818401526020810190506114e6565b60008484015250505050565b6000601f19601f8301169050919050565b6000611529826114d8565b611533818561145b565b93506115438185602086016114e3565b61154c8161150d565b840191505092915050565b60006020820190508181036000830152611571818461151e565b905092915050565b600080fd5b600073ffffffffffffffffffffffffffffffffffffffff82169050919050565b60006115a98261157e565b9050919050565b6115b98161159e565b81146115c457600080fd5b50565b6000813590506115d6816115b0565b92915050565b6000819050919050565b6115ef816115dc565b81146115fa57600080fd5b50565b60008135905061160c816115e6565b92915050565b6000806040838503121561162957611628611579565b5b6000611637858286016115c7565b9250506020611648858286016115fd565b9150509250929050565b60008115159050919050565b61166781611652565b82525050565b6000602082019050611682600083018461165e565b92915050565b611691816115dc565b82525050565b60006020820190506116ac6000830184611688565b92915050565b6000806000606084860312156116cb576116ca611579565b5b60006116d9868287016115c7565b93505060206116ea868287016115c7565b92505060406116fb868287016115fd565b9150509250925092565b600060ff82169050919050565b61171b81611705565b82525050565b60006020820190506117366000830184611712565b92915050565b60006020828403121561175257611751611579565b5b6000611760848285016115c7565b91505092915050565b600080604083850312156117805761177f611579565b5b600061178e858286016115c7565b925050602061179f858286016115c7565b9150509250929050565b6000602082840312156117bf576117be611579565b5b60006117cd848285016115fd565b91505092915050565b60006117e18261157e565b9050919050565b6117f1816117d6565b82525050565b600060208201905061180c60008301846117e8565b92915050565b61181b8161159e565b82525050565b60006020820190506118366000830184611812565b92915050565b7f4e487b7100000000000000000000000000000000000000000000000000000000600052602260045260246000fd5b6000600282049050600182168061188357607f821691505b6020821081036118965761189561183c565b5b50919050565b7f596f7520617265206e6f7420746865206f776e65720000000000000000000000600082015250565b60006118d260158361145b565b91506118dd8261189c565b602082019050919050565b60006020820190508181036000830152611901816118c5565b9050919050565b7f4e487b7100000000000000000000000000000000000000000000000000000000600052601160045260246000fd5b6000611942826115dc565b915061194d836115dc565b925082820190508082111561196557611964611908565b5b92915050565b7f4e6f7420656e6f75676820706c617965727320696e20746865206c6f7474657260008201527f7900000000000000000000000000000000000000000000000000000000000000602082015250565b60006119c760218361145b565b91506119d28261196b565b604082019050919050565b600060208201905081810360008301526119f6816119ba565b9050919050565b7f4e487b7100000000000000000000000000000000000000000000000000000000600052601260045260246000fd5b6000611a37826115dc565b9150611a42836115dc565b925082611a5257611a516119fd565b5b828206905092915050565b7f4e487b7100000000000000000000000000000000000000000000000000000000600052603260045260246000fd5b6000611a97826115dc565b9150611aa2836115dc565b9250828202611ab0816115dc565b91508282048414831517611ac757611ac6611908565b5b5092915050565b6000611ad9826115dc565b9150611ae4836115dc565b925082611af457611af36119fd565b5b828204905092915050565b7f4661696c656420746f2077696e6e657220616d6f756e74206973207a65726f00600082015250565b6000611b35601f8361145b565b9150611b4082611aff565b602082019050919050565b60006020820190508181036000830152611b6481611b28565b9050919050565b600081905092915050565b50565b6000611b86600083611b6b565b9150611b9182611b76565b600082019050919050565b6000611ba782611b79565b9150819050919050565b7f4661696c656420746f2073656e6420757365722062616c616e6365206261636b60008201527f20746f20746865206f776e657200000000000000000000000000000000000000602082015250565b6000611c0d602d8361145b565b9150611c1882611bb1565b604082019050919050565b60006020820190508181036000830152611c3c81611c00565b9050919050565b7f45524332303a2064656372656173656420616c6c6f77616e63652062656c6f7760008201527f207a65726f000000000000000000000000000000000000000000000000000000602082015250565b6000611c9f60258361145b565b9150611caa82611c43565b604082019050919050565b60006020820190508181036000830152611cce81611c92565b9050919050565b7f6d73672e76616c7565203c20302e312065746865720000000000000000000000600082015250565b6000611d0b60158361145b565b9150611d1682611cd5565b602082019050919050565b60006020820190508181036000830152611d3a81611cfe565b9050919050565b7f45524332303a20617070726f76652066726f6d20746865207a65726f2061646460008201527f7265737300000000000000000000000000000000000000000000000000000000602082015250565b6000611d9d60248361145b565b9150611da882611d41565b604082019050919050565b60006020820190508181036000830152611dcc81611d90565b9050919050565b7f45524332303a20617070726f766520746f20746865207a65726f20616464726560008201527f7373000000000000000000000000000000000000000000000000000000000000602082015250565b6000611e2f60228361145b565b9150611e3a82611dd3565b604082019050919050565b60006020820190508181036000830152611e5e81611e22565b9050919050565b7f45524332303a20696e73756666696369656e7420616c6c6f77616e6365000000600082015250565b6000611e9b601d8361145b565b9150611ea682611e65565b602082019050919050565b60006020820190508181036000830152611eca81611e8e565b9050919050565b7f45524332303a207472616e736665722066726f6d20746865207a65726f20616460008201527f6472657373000000000000000000000000000000000000000000000000000000602082015250565b6000611f2d60258361145b565b9150611f3882611ed1565b604082019050919050565b60006020820190508181036000830152611f5c81611f20565b9050919050565b7f45524332303a207472616e7366657220746f20746865207a65726f206164647260008201527f6573730000000000000000000000000000000000000000000000000000000000602082015250565b6000611fbf60238361145b565b9150611fca82611f63565b604082019050919050565b60006020820190508181036000830152611fee81611fb2565b9050919050565b7f45524332303a207472616e7366657220616d6f756e742065786365656473206260008201527f616c616e63650000000000000000000000000000000000000000000000000000602082015250565b600061205160268361145b565b915061205c82611ff5565b604082019050919050565b6000602082019050818103600083015261208081612044565b9050919050565b6000819050919050565b6120a261209d826115dc565b612087565b82525050565b60006120b48286612091565b6020820191506120c48285612091565b6020820191506120d48284612091565b602082019150819050949350505050565b7f4e487b7100000000000000000000000000000000000000000000000000000000600052604160045260246000fd5b7f4661696c656420746f2073656e6420757365722062616c616e6365206261636b60008201527f20746f207468652061646d696e20666565000000000000000000000000000000602082015250565b600061217060318361145b565b915061217b82612114565b604082019050919050565b6000602082019050818103600083015261219f81612163565b905091905056fea26469706673582212200da191a92ba709431013e7ea88c6d19deff09809ae6f0803c83aa9c6689f4f4b64736f6c63430008110033",
					"opcodes": "PUSH1 0x80 PUSH1 0x40 MSTORE PUSH1 0xA PUSH1 0x7 SSTORE CALLVALUE DUP1 ISZERO PUSH3 0x16 JUMPI PUSH1 0x0 DUP1 REVERT JUMPDEST POP PUSH1 0x40 MLOAD DUP1 PUSH1 0x40 ADD PUSH1 0x40 MSTORE DUP1 PUSH1 0x10 DUP2 MSTORE PUSH1 0x20 ADD PUSH32 0x4D53484B20455243323020546F6B656E00000000000000000000000000000000 DUP2 MSTORE POP PUSH1 0x40 MLOAD DUP1 PUSH1 0x40 ADD PUSH1 0x40 MSTORE DUP1 PUSH1 0x4 DUP2 MSTORE PUSH1 0x20 ADD PUSH32 0x4D53484B00000000000000000000000000000000000000000000000000000000 DUP2 MSTORE POP DUP2 PUSH1 0x3 SWAP1 DUP2 PUSH3 0x94 SWAP2 SWAP1 PUSH3 0x58D JUMP JUMPDEST POP DUP1 PUSH1 0x4 SWAP1 DUP2 PUSH3 0xA6 SWAP2 SWAP1 PUSH3 0x58D JUMP JUMPDEST POP POP POP CALLER PUSH1 0x6 PUSH1 0x0 PUSH2 0x100 EXP DUP2 SLOAD DUP2 PUSH20 0xFFFFFFFFFFFFFFFFFFFFFFFFFFFFFFFFFFFFFFFF MUL NOT AND SWAP1 DUP4 PUSH20 0xFFFFFFFFFFFFFFFFFFFFFFFFFFFFFFFFFFFFFFFF AND MUL OR SWAP1 SSTORE POP PUSH1 0x5 PUSH1 0x6 PUSH1 0x0 SWAP1 SLOAD SWAP1 PUSH2 0x100 EXP SWAP1 DIV PUSH20 0xFFFFFFFFFFFFFFFFFFFFFFFFFFFFFFFFFFFFFFFF AND SWAP1 DUP1 PUSH1 0x1 DUP2 SLOAD ADD DUP1 DUP3 SSTORE DUP1 SWAP2 POP POP PUSH1 0x1 SWAP1 SUB SWAP1 PUSH1 0x0 MSTORE PUSH1 0x20 PUSH1 0x0 KECCAK256 ADD PUSH1 0x0 SWAP1 SWAP2 SWAP1 SWAP2 SWAP1 SWAP2 PUSH2 0x100 EXP DUP2 SLOAD DUP2 PUSH20 0xFFFFFFFFFFFFFFFFFFFFFFFFFFFFFFFFFFFFFFFF MUL NOT AND SWAP1 DUP4 PUSH20 0xFFFFFFFFFFFFFFFFFFFFFFFFFFFFFFFFFFFFFFFF AND MUL OR SWAP1 SSTORE POP PUSH3 0x18B CALLER PUSH10 0x21E19E0C9BAB2400000 PUSH3 0x191 PUSH1 0x20 SHL PUSH1 0x20 SHR JUMP JUMPDEST PUSH3 0x78F JUMP JUMPDEST PUSH1 0x0 PUSH20 0xFFFFFFFFFFFFFFFFFFFFFFFFFFFFFFFFFFFFFFFF AND DUP3 PUSH20 0xFFFFFFFFFFFFFFFFFFFFFFFFFFFFFFFFFFFFFFFF AND SUB PUSH3 0x203 JUMPI PUSH1 0x40 MLOAD PUSH32 0x8C379A000000000000000000000000000000000000000000000000000000000 DUP2 MSTORE PUSH1 0x4 ADD PUSH3 0x1FA SWAP1 PUSH3 0x6D5 JUMP JUMPDEST PUSH1 0x40 MLOAD DUP1 SWAP2 SUB SWAP1 REVERT JUMPDEST PUSH3 0x217 PUSH1 0x0 DUP4 DUP4 PUSH3 0x309 PUSH1 0x20 SHL PUSH1 0x20 SHR JUMP JUMPDEST DUP1 PUSH1 0x2 PUSH1 0x0 DUP3 DUP3 SLOAD PUSH3 0x22B SWAP2 SWAP1 PUSH3 0x726 JUMP JUMPDEST SWAP3 POP POP DUP2 SWAP1 SSTORE POP DUP1 PUSH1 0x0 DUP1 DUP5 PUSH20 0xFFFFFFFFFFFFFFFFFFFFFFFFFFFFFFFFFFFFFFFF AND PUSH20 0xFFFFFFFFFFFFFFFFFFFFFFFFFFFFFFFFFFFFFFFF AND DUP2 MSTORE PUSH1 0x20 ADD SWAP1 DUP2 MSTORE PUSH1 0x20 ADD PUSH1 0x0 KECCAK256 PUSH1 0x0 DUP3 DUP3 SLOAD PUSH3 0x282 SWAP2 SWAP1 PUSH3 0x726 JUMP JUMPDEST SWAP3 POP POP DUP2 SWAP1 SSTORE POP DUP2 PUSH20 0xFFFFFFFFFFFFFFFFFFFFFFFFFFFFFFFFFFFFFFFF AND PUSH1 0x0 PUSH20 0xFFFFFFFFFFFFFFFFFFFFFFFFFFFFFFFFFFFFFFFF AND PUSH32 0xDDF252AD1BE2C89B69C2B068FC378DAA952BA7F163C4A11628F55A4DF523B3EF DUP4 PUSH1 0x40 MLOAD PUSH3 0x2E9 SWAP2 SWAP1 PUSH3 0x772 JUMP JUMPDEST PUSH1 0x40 MLOAD DUP1 SWAP2 SUB SWAP1 LOG3 PUSH3 0x305 PUSH1 0x0 DUP4 DUP4 PUSH3 0x30E PUSH1 0x20 SHL PUSH1 0x20 SHR JUMP JUMPDEST POP POP JUMP JUMPDEST POP POP POP JUMP JUMPDEST POP POP POP JUMP JUMPDEST PUSH1 0x0 DUP2 MLOAD SWAP1 POP SWAP2 SWAP1 POP JUMP JUMPDEST PUSH32 0x4E487B7100000000000000000000000000000000000000000000000000000000 PUSH1 0x0 MSTORE PUSH1 0x41 PUSH1 0x4 MSTORE PUSH1 0x24 PUSH1 0x0 REVERT JUMPDEST PUSH32 0x4E487B7100000000000000000000000000000000000000000000000000000000 PUSH1 0x0 MSTORE PUSH1 0x22 PUSH1 0x4 MSTORE PUSH1 0x24 PUSH1 0x0 REVERT JUMPDEST PUSH1 0x0 PUSH1 0x2 DUP3 DIV SWAP1 POP PUSH1 0x1 DUP3 AND DUP1 PUSH3 0x395 JUMPI PUSH1 0x7F DUP3 AND SWAP2 POP JUMPDEST PUSH1 0x20 DUP3 LT DUP2 SUB PUSH3 0x3AB JUMPI PUSH3 0x3AA PUSH3 0x34D JUMP JUMPDEST JUMPDEST POP SWAP2 SWAP1 POP JUMP JUMPDEST PUSH1 0x0 DUP2 SWAP1 POP DUP2 PUSH1 0x0 MSTORE PUSH1 0x20 PUSH1 0x0 KECCAK256 SWAP1 POP SWAP2 SWAP1 POP JUMP JUMPDEST PUSH1 0x0 PUSH1 0x20 PUSH1 0x1F DUP4 ADD DIV SWAP1 POP SWAP2 SWAP1 POP JUMP JUMPDEST PUSH1 0x0 DUP3 DUP3 SHL SWAP1 POP SWAP3 SWAP2 POP POP JUMP JUMPDEST PUSH1 0x0 PUSH1 0x8 DUP4 MUL PUSH3 0x415 PUSH32 0xFFFFFFFFFFFFFFFFFFFFFFFFFFFFFFFFFFFFFFFFFFFFFFFFFFFFFFFFFFFFFFFF DUP3 PUSH3 0x3D6 JUMP JUMPDEST PUSH3 0x421 DUP7 DUP4 PUSH3 0x3D6 JUMP JUMPDEST SWAP6 POP DUP1 NOT DUP5 AND SWAP4 POP DUP1 DUP7 AND DUP5 OR SWAP3 POP POP POP SWAP4 SWAP3 POP POP POP JUMP JUMPDEST PUSH1 0x0 DUP2 SWAP1 POP SWAP2 SWAP1 POP JUMP JUMPDEST PUSH1 0x0 DUP2 SWAP1 POP SWAP2 SWAP1 POP JUMP JUMPDEST PUSH1 0x0 PUSH3 0x46E PUSH3 0x468 PUSH3 0x462 DUP5 PUSH3 0x439 JUMP JUMPDEST PUSH3 0x443 JUMP JUMPDEST PUSH3 0x439 JUMP JUMPDEST SWAP1 POP SWAP2 SWAP1 POP JUMP JUMPDEST PUSH1 0x0 DUP2 SWAP1 POP SWAP2 SWAP1 POP JUMP JUMPDEST PUSH3 0x48A DUP4 PUSH3 0x44D JUMP JUMPDEST PUSH3 0x4A2 PUSH3 0x499 DUP3 PUSH3 0x475 JUMP JUMPDEST DUP5 DUP5 SLOAD PUSH3 0x3E3 JUMP JUMPDEST DUP3 SSTORE POP POP POP POP JUMP JUMPDEST PUSH1 0x0 SWAP1 JUMP JUMPDEST PUSH3 0x4B9 PUSH3 0x4AA JUMP JUMPDEST PUSH3 0x4C6 DUP2 DUP5 DUP5 PUSH3 0x47F JUMP JUMPDEST POP POP POP JUMP JUMPDEST JUMPDEST DUP2 DUP2 LT ISZERO PUSH3 0x4EE JUMPI PUSH3 0x4E2 PUSH1 0x0 DUP3 PUSH3 0x4AF JUMP JUMPDEST PUSH1 0x1 DUP2 ADD SWAP1 POP PUSH3 0x4CC JUMP JUMPDEST POP POP JUMP JUMPDEST PUSH1 0x1F DUP3 GT ISZERO PUSH3 0x53D JUMPI PUSH3 0x507 DUP2 PUSH3 0x3B1 JUMP JUMPDEST PUSH3 0x512 DUP5 PUSH3 0x3C6 JUMP JUMPDEST DUP2 ADD PUSH1 0x20 DUP6 LT ISZERO PUSH3 0x522 JUMPI DUP2 SWAP1 POP JUMPDEST PUSH3 0x53A PUSH3 0x531 DUP6 PUSH3 0x3C6 JUMP JUMPDEST DUP4 ADD DUP3 PUSH3 0x4CB JUMP JUMPDEST POP POP JUMPDEST POP POP POP JUMP JUMPDEST PUSH1 0x0 DUP3 DUP3 SHR SWAP1 POP SWAP3 SWAP2 POP POP JUMP JUMPDEST PUSH1 0x0 PUSH3 0x562 PUSH1 0x0 NOT DUP5 PUSH1 0x8 MUL PUSH3 0x542 JUMP JUMPDEST NOT DUP1 DUP4 AND SWAP2 POP POP SWAP3 SWAP2 POP POP JUMP JUMPDEST PUSH1 0x0 PUSH3 0x57D DUP4 DUP4 PUSH3 0x54F JUMP JUMPDEST SWAP2 POP DUP3 PUSH1 0x2 MUL DUP3 OR SWAP1 POP SWAP3 SWAP2 POP POP JUMP JUMPDEST PUSH3 0x598 DUP3 PUSH3 0x313 JUMP JUMPDEST PUSH8 0xFFFFFFFFFFFFFFFF DUP2 GT ISZERO PUSH3 0x5B4 JUMPI PUSH3 0x5B3 PUSH3 0x31E JUMP JUMPDEST JUMPDEST PUSH3 0x5C0 DUP3 SLOAD PUSH3 0x37C JUMP JUMPDEST PUSH3 0x5CD DUP3 DUP3 DUP6 PUSH3 0x4F2 JUMP JUMPDEST PUSH1 0x0 PUSH1 0x20 SWAP1 POP PUSH1 0x1F DUP4 GT PUSH1 0x1 DUP2 EQ PUSH3 0x605 JUMPI PUSH1 0x0 DUP5 ISZERO PUSH3 0x5F0 JUMPI DUP3 DUP8 ADD MLOAD SWAP1 POP JUMPDEST PUSH3 0x5FC DUP6 DUP3 PUSH3 0x56F JUMP JUMPDEST DUP7 SSTORE POP PUSH3 0x66C JUMP JUMPDEST PUSH1 0x1F NOT DUP5 AND PUSH3 0x615 DUP7 PUSH3 0x3B1 JUMP JUMPDEST PUSH1 0x0 JUMPDEST DUP3 DUP2 LT ISZERO PUSH3 0x63F JUMPI DUP5 DUP10 ADD MLOAD DUP3 SSTORE PUSH1 0x1 DUP3 ADD SWAP2 POP PUSH1 0x20 DUP6 ADD SWAP5 POP PUSH1 0x20 DUP2 ADD SWAP1 POP PUSH3 0x618 JUMP JUMPDEST DUP7 DUP4 LT ISZERO PUSH3 0x65F JUMPI DUP5 DUP10 ADD MLOAD PUSH3 0x65B PUSH1 0x1F DUP10 AND DUP3 PUSH3 0x54F JUMP JUMPDEST DUP4 SSTORE POP JUMPDEST PUSH1 0x1 PUSH1 0x2 DUP9 MUL ADD DUP9 SSTORE POP POP POP JUMPDEST POP POP POP POP POP POP JUMP JUMPDEST PUSH1 0x0 DUP3 DUP3 MSTORE PUSH1 0x20 DUP3 ADD SWAP1 POP SWAP3 SWAP2 POP POP JUMP JUMPDEST PUSH32 0x45524332303A206D696E7420746F20746865207A65726F206164647265737300 PUSH1 0x0 DUP3 ADD MSTORE POP JUMP JUMPDEST PUSH1 0x0 PUSH3 0x6BD PUSH1 0x1F DUP4 PUSH3 0x674 JUMP JUMPDEST SWAP2 POP PUSH3 0x6CA DUP3 PUSH3 0x685 JUMP JUMPDEST PUSH1 0x20 DUP3 ADD SWAP1 POP SWAP2 SWAP1 POP JUMP JUMPDEST PUSH1 0x0 PUSH1 0x20 DUP3 ADD SWAP1 POP DUP2 DUP2 SUB PUSH1 0x0 DUP4 ADD MSTORE PUSH3 0x6F0 DUP2 PUSH3 0x6AE JUMP JUMPDEST SWAP1 POP SWAP2 SWAP1 POP JUMP JUMPDEST PUSH32 0x4E487B7100000000000000000000000000000000000000000000000000000000 PUSH1 0x0 MSTORE PUSH1 0x11 PUSH1 0x4 MSTORE PUSH1 0x24 PUSH1 0x0 REVERT JUMPDEST PUSH1 0x0 PUSH3 0x733 DUP3 PUSH3 0x439 JUMP JUMPDEST SWAP2 POP PUSH3 0x740 DUP4 PUSH3 0x439 JUMP JUMPDEST SWAP3 POP DUP3 DUP3 ADD SWAP1 POP DUP1 DUP3 GT ISZERO PUSH3 0x75B JUMPI PUSH3 0x75A PUSH3 0x6F7 JUMP JUMPDEST JUMPDEST SWAP3 SWAP2 POP POP JUMP JUMPDEST PUSH3 0x76C DUP2 PUSH3 0x439 JUMP JUMPDEST DUP3 MSTORE POP POP JUMP JUMPDEST PUSH1 0x0 PUSH1 0x20 DUP3 ADD SWAP1 POP PUSH3 0x789 PUSH1 0x0 DUP4 ADD DUP5 PUSH3 0x761 JUMP JUMPDEST SWAP3 SWAP2 POP POP JUMP JUMPDEST PUSH2 0x21DC DUP1 PUSH3 0x79F PUSH1 0x0 CODECOPY PUSH1 0x0 RETURN INVALID PUSH1 0x80 PUSH1 0x40 MSTORE PUSH1 0x4 CALLDATASIZE LT PUSH2 0x10D JUMPI PUSH1 0x0 CALLDATALOAD PUSH1 0xE0 SHR DUP1 PUSH4 0x7CDF7547 GT PUSH2 0x95 JUMPI DUP1 PUSH4 0xCBDD69B5 GT PUSH2 0x64 JUMPI DUP1 PUSH4 0xCBDD69B5 EQ PUSH2 0x4A6 JUMPI DUP1 PUSH4 0xDD62ED3E EQ PUSH2 0x4D1 JUMPI DUP1 PUSH4 0xE97DCB62 EQ PUSH2 0x50E JUMPI DUP1 PUSH4 0xF71D96CB EQ PUSH2 0x518 JUMPI DUP1 PUSH4 0xF851A440 EQ PUSH2 0x555 JUMPI PUSH2 0x21A JUMP JUMPDEST DUP1 PUSH4 0x7CDF7547 EQ PUSH2 0x3D6 JUMPI DUP1 PUSH4 0x95D89B41 EQ PUSH2 0x401 JUMPI DUP1 PUSH4 0xA457C2D7 EQ PUSH2 0x42C JUMPI DUP1 PUSH4 0xA9059CBB EQ PUSH2 0x469 JUMPI PUSH2 0x21A JUMP JUMPDEST DUP1 PUSH4 0x23B872DD GT PUSH2 0xDC JUMPI DUP1 PUSH4 0x23B872DD EQ PUSH2 0x2DD JUMPI DUP1 PUSH4 0x313CE567 EQ PUSH2 0x31A JUMPI DUP1 PUSH4 0x39509351 EQ PUSH2 0x345 JUMPI DUP1 PUSH4 0x5D495AEA EQ PUSH2 0x382 JUMPI DUP1 PUSH4 0x70A08231 EQ PUSH2 0x399 JUMPI PUSH2 0x21A JUMP JUMPDEST DUP1 PUSH4 0x6FDDE03 EQ PUSH2 0x21F JUMPI DUP1 PUSH4 0x95EA7B3 EQ PUSH2 0x24A JUMPI DUP1 PUSH4 0x12065FE0 EQ PUSH2 0x287 JUMPI DUP1 PUSH4 0x18160DDD EQ PUSH2 0x2B2 JUMPI PUSH2 0x21A JUMP JUMPDEST CALLDATASIZE PUSH2 0x21A JUMPI PUSH8 0x16345785D8A0000 CALLVALUE EQ PUSH2 0x15C JUMPI PUSH1 0x40 MLOAD PUSH32 0x8C379A000000000000000000000000000000000000000000000000000000000 DUP2 MSTORE PUSH1 0x4 ADD PUSH2 0x153 SWAP1 PUSH2 0x14B8 JUMP JUMPDEST PUSH1 0x40 MLOAD DUP1 SWAP2 SUB SWAP1 REVERT JUMPDEST PUSH1 0x6 PUSH1 0x0 SWAP1 SLOAD SWAP1 PUSH2 0x100 EXP SWAP1 DIV PUSH20 0xFFFFFFFFFFFFFFFFFFFFFFFFFFFFFFFFFFFFFFFF AND PUSH20 0xFFFFFFFFFFFFFFFFFFFFFFFFFFFFFFFFFFFFFFFF AND CALLER PUSH20 0xFFFFFFFFFFFFFFFFFFFFFFFFFFFFFFFFFFFFFFFF AND SUB PUSH2 0x1B6 JUMPI PUSH1 0x0 DUP1 REVERT JUMPDEST PUSH1 0x5 CALLER SWAP1 DUP1 PUSH1 0x1 DUP2 SLOAD ADD DUP1 DUP3 SSTORE DUP1 SWAP2 POP POP PUSH1 0x1 SWAP1 SUB SWAP1 PUSH1 0x0 MSTORE PUSH1 0x20 PUSH1 0x0 KECCAK256 ADD PUSH1 0x0 SWAP1 SWAP2 SWAP1 SWAP2 SWAP1 SWAP2 PUSH2 0x100 EXP DUP2 SLOAD DUP2 PUSH20 0xFFFFFFFFFFFFFFFFFFFFFFFFFFFFFFFFFFFFFFFF MUL NOT AND SWAP1 DUP4 PUSH20 0xFFFFFFFFFFFFFFFFFFFFFFFFFFFFFFFFFFFFFFFF AND MUL OR SWAP1 SSTORE STOP JUMPDEST PUSH1 0x0 DUP1 REVERT JUMPDEST CALLVALUE DUP1 ISZERO PUSH2 0x22B JUMPI PUSH1 0x0 DUP1 REVERT JUMPDEST POP PUSH2 0x234 PUSH2 0x580 JUMP JUMPDEST PUSH1 0x40 MLOAD PUSH2 0x241 SWAP2 SWAP1 PUSH2 0x1557 JUMP JUMPDEST PUSH1 0x40 MLOAD DUP1 SWAP2 SUB SWAP1 RETURN JUMPDEST CALLVALUE DUP1 ISZERO PUSH2 0x256 JUMPI PUSH1 0x0 DUP1 REVERT JUMPDEST POP PUSH2 0x271 PUSH1 0x4 DUP1 CALLDATASIZE SUB DUP2 ADD SWAP1 PUSH2 0x26C SWAP2 SWAP1 PUSH2 0x1612 JUMP JUMPDEST PUSH2 0x612 JUMP JUMPDEST PUSH1 0x40 MLOAD PUSH2 0x27E SWAP2 SWAP1 PUSH2 0x166D JUMP JUMPDEST PUSH1 0x40 MLOAD DUP1 SWAP2 SUB SWAP1 RETURN JUMPDEST CALLVALUE DUP1 ISZERO PUSH2 0x293 JUMPI PUSH1 0x0 DUP1 REVERT JUMPDEST POP PUSH2 0x29C PUSH2 0x635 JUMP JUMPDEST PUSH1 0x40 MLOAD PUSH2 0x2A9 SWAP2 SWAP1 PUSH2 0x1697 JUMP JUMPDEST PUSH1 0x40 MLOAD DUP1 SWAP2 SUB SWAP1 RETURN JUMPDEST CALLVALUE DUP1 ISZERO PUSH2 0x2BE JUMPI PUSH1 0x0 DUP1 REVERT JUMPDEST POP PUSH2 0x2C7 PUSH2 0x6CD JUMP JUMPDEST PUSH1 0x40 MLOAD PUSH2 0x2D4 SWAP2 SWAP1 PUSH2 0x1697 JUMP JUMPDEST PUSH1 0x40 MLOAD DUP1 SWAP2 SUB SWAP1 RETURN JUMPDEST CALLVALUE DUP1 ISZERO PUSH2 0x2E9 JUMPI PUSH1 0x0 DUP1 REVERT JUMPDEST POP PUSH2 0x304 PUSH1 0x4 DUP1 CALLDATASIZE SUB DUP2 ADD SWAP1 PUSH2 0x2FF SWAP2 SWAP1 PUSH2 0x16B2 JUMP JUMPDEST PUSH2 0x6D7 JUMP JUMPDEST PUSH1 0x40 MLOAD PUSH2 0x311 SWAP2 SWAP1 PUSH2 0x166D JUMP JUMPDEST PUSH1 0x40 MLOAD DUP1 SWAP2 SUB SWAP1 RETURN JUMPDEST CALLVALUE DUP1 ISZERO PUSH2 0x326 JUMPI PUSH1 0x0 DUP1 REVERT JUMPDEST POP PUSH2 0x32F PUSH2 0x706 JUMP JUMPDEST PUSH1 0x40 MLOAD PUSH2 0x33C SWAP2 SWAP1 PUSH2 0x1721 JUMP JUMPDEST PUSH1 0x40 MLOAD DUP1 SWAP2 SUB SWAP1 RETURN JUMPDEST CALLVALUE DUP1 ISZERO PUSH2 0x351 JUMPI PUSH1 0x0 DUP1 REVERT JUMPDEST POP PUSH2 0x36C PUSH1 0x4 DUP1 CALLDATASIZE SUB DUP2 ADD SWAP1 PUSH2 0x367 SWAP2 SWAP1 PUSH2 0x1612 JUMP JUMPDEST PUSH2 0x70F JUMP JUMPDEST PUSH1 0x40 MLOAD PUSH2 0x379 SWAP2 SWAP1 PUSH2 0x166D JUMP JUMPDEST PUSH1 0x40 MLOAD DUP1 SWAP2 SUB SWAP1 RETURN JUMPDEST CALLVALUE DUP1 ISZERO PUSH2 0x38E JUMPI PUSH1 0x0 DUP1 REVERT JUMPDEST POP PUSH2 0x397 PUSH2 0x746 JUMP JUMPDEST STOP JUMPDEST CALLVALUE DUP1 ISZERO PUSH2 0x3A5 JUMPI PUSH1 0x0 DUP1 REVERT JUMPDEST POP PUSH2 0x3C0 PUSH1 0x4 DUP1 CALLDATASIZE SUB DUP2 ADD SWAP1 PUSH2 0x3BB SWAP2 SWAP1 PUSH2 0x173C JUMP JUMPDEST PUSH2 0x9AA JUMP JUMPDEST PUSH1 0x40 MLOAD PUSH2 0x3CD SWAP2 SWAP1 PUSH2 0x1697 JUMP JUMPDEST PUSH1 0x40 MLOAD DUP1 SWAP2 SUB SWAP1 RETURN JUMPDEST CALLVALUE DUP1 ISZERO PUSH2 0x3E2 JUMPI PUSH1 0x0 DUP1 REVERT JUMPDEST POP PUSH2 0x3EB PUSH2 0x9F2 JUMP JUMPDEST PUSH1 0x40 MLOAD PUSH2 0x3F8 SWAP2 SWAP1 PUSH2 0x1697 JUMP JUMPDEST PUSH1 0x40 MLOAD DUP1 SWAP2 SUB SWAP1 RETURN JUMPDEST CALLVALUE DUP1 ISZERO PUSH2 0x40D JUMPI PUSH1 0x0 DUP1 REVERT JUMPDEST POP PUSH2 0x416 PUSH2 0xA02 JUMP JUMPDEST PUSH1 0x40 MLOAD PUSH2 0x423 SWAP2 SWAP1 PUSH2 0x1557 JUMP JUMPDEST PUSH1 0x40 MLOAD DUP1 SWAP2 SUB SWAP1 RETURN JUMPDEST CALLVALUE DUP1 ISZERO PUSH2 0x438 JUMPI PUSH1 0x0 DUP1 REVERT JUMPDEST POP PUSH2 0x453 PUSH1 0x4 DUP1 CALLDATASIZE SUB DUP2 ADD SWAP1 PUSH2 0x44E SWAP2 SWAP1 PUSH2 0x1612 JUMP JUMPDEST PUSH2 0xA94 JUMP JUMPDEST PUSH1 0x40 MLOAD PUSH2 0x460 SWAP2 SWAP1 PUSH2 0x166D JUMP JUMPDEST PUSH1 0x40 MLOAD DUP1 SWAP2 SUB SWAP1 RETURN JUMPDEST CALLVALUE DUP1 ISZERO PUSH2 0x475 JUMPI PUSH1 0x0 DUP1 REVERT JUMPDEST POP PUSH2 0x490 PUSH1 0x4 DUP1 CALLDATASIZE SUB DUP2 ADD SWAP1 PUSH2 0x48B SWAP2 SWAP1 PUSH2 0x1612 JUMP JUMPDEST PUSH2 0xB0B JUMP JUMPDEST PUSH1 0x40 MLOAD PUSH2 0x49D SWAP2 SWAP1 PUSH2 0x166D JUMP JUMPDEST PUSH1 0x40 MLOAD DUP1 SWAP2 SUB SWAP1 RETURN JUMPDEST CALLVALUE DUP1 ISZERO PUSH2 0x4B2 JUMPI PUSH1 0x0 DUP1 REVERT JUMPDEST POP PUSH2 0x4BB PUSH2 0xB2E JUMP JUMPDEST PUSH1 0x40 MLOAD PUSH2 0x4C8 SWAP2 SWAP1 PUSH2 0x1697 JUMP JUMPDEST PUSH1 0x40 MLOAD DUP1 SWAP2 SUB SWAP1 RETURN JUMPDEST CALLVALUE DUP1 ISZERO PUSH2 0x4DD JUMPI PUSH1 0x0 DUP1 REVERT JUMPDEST POP PUSH2 0x4F8 PUSH1 0x4 DUP1 CALLDATASIZE SUB DUP2 ADD SWAP1 PUSH2 0x4F3 SWAP2 SWAP1 PUSH2 0x1769 JUMP JUMPDEST PUSH2 0xB34 JUMP JUMPDEST PUSH1 0x40 MLOAD PUSH2 0x505 SWAP2 SWAP1 PUSH2 0x1697 JUMP JUMPDEST PUSH1 0x40 MLOAD DUP1 SWAP2 SUB SWAP1 RETURN JUMPDEST PUSH2 0x516 PUSH2 0xBBB JUMP JUMPDEST STOP JUMPDEST CALLVALUE DUP1 ISZERO PUSH2 0x524 JUMPI PUSH1 0x0 DUP1 REVERT JUMPDEST POP PUSH2 0x53F PUSH1 0x4 DUP1 CALLDATASIZE SUB DUP2 ADD SWAP1 PUSH2 0x53A SWAP2 SWAP1 PUSH2 0x17A9 JUMP JUMPDEST PUSH2 0xCF7 JUMP JUMPDEST PUSH1 0x40 MLOAD PUSH2 0x54C SWAP2 SWAP1 PUSH2 0x17F7 JUMP JUMPDEST PUSH1 0x40 MLOAD DUP1 SWAP2 SUB SWAP1 RETURN JUMPDEST CALLVALUE DUP1 ISZERO PUSH2 0x561 JUMPI PUSH1 0x0 DUP1 REVERT JUMPDEST POP PUSH2 0x56A PUSH2 0xD36 JUMP JUMPDEST PUSH1 0x40 MLOAD PUSH2 0x577 SWAP2 SWAP1 PUSH2 0x1821 JUMP JUMPDEST PUSH1 0x40 MLOAD DUP1 SWAP2 SUB SWAP1 RETURN JUMPDEST PUSH1 0x60 PUSH1 0x3 DUP1 SLOAD PUSH2 0x58F SWAP1 PUSH2 0x186B JUMP JUMPDEST DUP1 PUSH1 0x1F ADD PUSH1 0x20 DUP1 SWAP2 DIV MUL PUSH1 0x20 ADD PUSH1 0x40 MLOAD SWAP1 DUP2 ADD PUSH1 0x40 MSTORE DUP1 SWAP3 SWAP2 SWAP1 DUP2 DUP2 MSTORE PUSH1 0x20 ADD DUP3 DUP1 SLOAD PUSH2 0x5BB SWAP1 PUSH2 0x186B JUMP JUMPDEST DUP1 ISZERO PUSH2 0x608 JUMPI DUP1 PUSH1 0x1F LT PUSH2 0x5DD JUMPI PUSH2 0x100 DUP1 DUP4 SLOAD DIV MUL DUP4 MSTORE SWAP2 PUSH1 0x20 ADD SWAP2 PUSH2 0x608 JUMP JUMPDEST DUP3 ADD SWAP2 SWAP1 PUSH1 0x0 MSTORE PUSH1 0x20 PUSH1 0x0 KECCAK256 SWAP1 JUMPDEST DUP2 SLOAD DUP2 MSTORE SWAP1 PUSH1 0x1 ADD SWAP1 PUSH1 0x20 ADD DUP1 DUP4 GT PUSH2 0x5EB JUMPI DUP3 SWAP1 SUB PUSH1 0x1F AND DUP3 ADD SWAP2 JUMPDEST POP POP POP POP POP SWAP1 POP SWAP1 JUMP JUMPDEST PUSH1 0x0 DUP1 PUSH2 0x61D PUSH2 0xD5C JUMP JUMPDEST SWAP1 POP PUSH2 0x62A DUP2 DUP6 DUP6 PUSH2 0xD64 JUMP JUMPDEST PUSH1 0x1 SWAP2 POP POP SWAP3 SWAP2 POP POP JUMP JUMPDEST PUSH1 0x0 CALLER PUSH20 0xFFFFFFFFFFFFFFFFFFFFFFFFFFFFFFFFFFFFFFFF AND PUSH1 0x6 PUSH1 0x0 SWAP1 SLOAD SWAP1 PUSH2 0x100 EXP SWAP1 DIV PUSH20 0xFFFFFFFFFFFFFFFFFFFFFFFFFFFFFFFFFFFFFFFF AND PUSH20 0xFFFFFFFFFFFFFFFFFFFFFFFFFFFFFFFFFFFFFFFF AND EQ PUSH2 0x6C7 JUMPI PUSH1 0x40 MLOAD PUSH32 0x8C379A000000000000000000000000000000000000000000000000000000000 DUP2 MSTORE PUSH1 0x4 ADD PUSH2 0x6BE SWAP1 PUSH2 0x18E8 JUMP JUMPDEST PUSH1 0x40 MLOAD DUP1 SWAP2 SUB SWAP1 REVERT JUMPDEST SELFBALANCE SWAP1 POP SWAP1 JUMP JUMPDEST PUSH1 0x0 PUSH1 0x2 SLOAD SWAP1 POP SWAP1 JUMP JUMPDEST PUSH1 0x0 DUP1 PUSH2 0x6E2 PUSH2 0xD5C JUMP JUMPDEST SWAP1 POP PUSH2 0x6EF DUP6 DUP3 DUP6 PUSH2 0xF2D JUMP JUMPDEST PUSH2 0x6FA DUP6 DUP6 DUP6 PUSH2 0xFB9 JUMP JUMPDEST PUSH1 0x1 SWAP2 POP POP SWAP4 SWAP3 POP POP POP JUMP JUMPDEST PUSH1 0x0 PUSH1 0x12 SWAP1 POP SWAP1 JUMP JUMPDEST PUSH1 0x0 DUP1 PUSH2 0x71A PUSH2 0xD5C JUMP JUMPDEST SWAP1 POP PUSH2 0x73B DUP2 DUP6 DUP6 PUSH2 0x72C DUP6 DUP10 PUSH2 0xB34 JUMP JUMPDEST PUSH2 0x736 SWAP2 SWAP1 PUSH2 0x1937 JUMP JUMPDEST PUSH2 0xD64 JUMP JUMPDEST PUSH1 0x1 SWAP2 POP POP SWAP3 SWAP2 POP POP JUMP JUMPDEST CALLER PUSH20 0xFFFFFFFFFFFFFFFFFFFFFFFFFFFFFFFFFFFFFFFF AND PUSH1 0x6 PUSH1 0x0 SWAP1 SLOAD SWAP1 PUSH2 0x100 EXP SWAP1 DIV PUSH20 0xFFFFFFFFFFFFFFFFFFFFFFFFFFFFFFFFFFFFFFFF AND PUSH20 0xFFFFFFFFFFFFFFFFFFFFFFFFFFFFFFFFFFFFFFFF AND EQ PUSH2 0x7D6 JUMPI PUSH1 0x40 MLOAD PUSH32 0x8C379A000000000000000000000000000000000000000000000000000000000 DUP2 MSTORE PUSH1 0x4 ADD PUSH2 0x7CD SWAP1 PUSH2 0x18E8 JUMP JUMPDEST PUSH1 0x40 MLOAD DUP1 SWAP2 SUB SWAP1 REVERT JUMPDEST PUSH1 0x3 PUSH1 0x5 DUP1 SLOAD SWAP1 POP LT ISZERO PUSH2 0x81F JUMPI PUSH1 0x40 MLOAD PUSH32 0x8C379A000000000000000000000000000000000000000000000000000000000 DUP2 MSTORE PUSH1 0x4 ADD PUSH2 0x816 SWAP1 PUSH2 0x19DD JUMP JUMPDEST PUSH1 0x40 MLOAD DUP1 SWAP2 SUB SWAP1 REVERT JUMPDEST PUSH1 0x0 PUSH1 0x5 DUP1 DUP1 SLOAD SWAP1 POP PUSH2 0x830 PUSH2 0x1238 JUMP JUMPDEST PUSH2 0x83A SWAP2 SWAP1 PUSH2 0x1A2C JUMP JUMPDEST DUP2 SLOAD DUP2 LT PUSH2 0x84B JUMPI PUSH2 0x84A PUSH2 0x1A5D JUMP JUMPDEST JUMPDEST SWAP1 PUSH1 0x0 MSTORE PUSH1 0x20 PUSH1 0x0 KECCAK256 ADD PUSH1 0x0 SWAP1 SLOAD SWAP1 PUSH2 0x100 EXP SWAP1 DIV PUSH20 0xFFFFFFFFFFFFFFFFFFFFFFFFFFFFFFFFFFFFFFFF AND SWAP1 POP PUSH1 0x0 PUSH1 0x64 PUSH2 0x884 PUSH2 0x635 JUMP JUMPDEST PUSH1 0x5A PUSH2 0x88E PUSH2 0x9F2 JUMP JUMPDEST PUSH2 0x898 SWAP2 SWAP1 PUSH2 0x1A8C JUMP JUMPDEST PUSH2 0x8A2 SWAP2 SWAP1 PUSH2 0x1ACE JUMP JUMPDEST PUSH2 0x8AC SWAP2 SWAP1 PUSH2 0x1ACE JUMP JUMPDEST SWAP1 POP PUSH1 0x0 DUP2 EQ PUSH2 0x8F1 JUMPI PUSH1 0x40 MLOAD PUSH32 0x8C379A000000000000000000000000000000000000000000000000000000000 DUP2 MSTORE PUSH1 0x4 ADD PUSH2 0x8E8 SWAP1 PUSH2 0x1B4B JUMP JUMPDEST PUSH1 0x40 MLOAD DUP1 SWAP2 SUB SWAP1 REVERT JUMPDEST PUSH1 0x0 DUP3 PUSH20 0xFFFFFFFFFFFFFFFFFFFFFFFFFFFFFFFFFFFFFFFF AND DUP3 PUSH1 0x40 MLOAD PUSH2 0x917 SWAP1 PUSH2 0x1B9C JUMP JUMPDEST PUSH1 0x0 PUSH1 0x40 MLOAD DUP1 DUP4 SUB DUP2 DUP6 DUP8 GAS CALL SWAP3 POP POP POP RETURNDATASIZE DUP1 PUSH1 0x0 DUP2 EQ PUSH2 0x954 JUMPI PUSH1 0x40 MLOAD SWAP2 POP PUSH1 0x1F NOT PUSH1 0x3F RETURNDATASIZE ADD AND DUP3 ADD PUSH1 0x40 MSTORE RETURNDATASIZE DUP3 MSTORE RETURNDATASIZE PUSH1 0x0 PUSH1 0x20 DUP5 ADD RETURNDATACOPY PUSH2 0x959 JUMP JUMPDEST PUSH1 0x60 SWAP2 POP JUMPDEST POP POP SWAP1 POP DUP1 PUSH2 0x99D JUMPI PUSH1 0x40 MLOAD PUSH32 0x8C379A000000000000000000000000000000000000000000000000000000000 DUP2 MSTORE PUSH1 0x4 ADD PUSH2 0x994 SWAP1 PUSH2 0x1C23 JUMP JUMPDEST PUSH1 0x40 MLOAD DUP1 SWAP2 SUB SWAP1 REVERT JUMPDEST PUSH2 0x9A5 PUSH2 0x1272 JUMP JUMPDEST POP POP POP JUMP JUMPDEST PUSH1 0x0 DUP1 PUSH1 0x0 DUP4 PUSH20 0xFFFFFFFFFFFFFFFFFFFFFFFFFFFFFFFFFFFFFFFF AND PUSH20 0xFFFFFFFFFFFFFFFFFFFFFFFFFFFFFFFFFFFFFFFF AND DUP2 MSTORE PUSH1 0x20 ADD SWAP1 DUP2 MSTORE PUSH1 0x20 ADD PUSH1 0x0 KECCAK256 SLOAD SWAP1 POP SWAP2 SWAP1 POP JUMP JUMPDEST PUSH1 0x0 PUSH2 0x9FD CALLER PUSH2 0x9AA JUMP JUMPDEST SWAP1 POP SWAP1 JUMP JUMPDEST PUSH1 0x60 PUSH1 0x4 DUP1 SLOAD PUSH2 0xA11 SWAP1 PUSH2 0x186B JUMP JUMPDEST DUP1 PUSH1 0x1F ADD PUSH1 0x20 DUP1 SWAP2 DIV MUL PUSH1 0x20 ADD PUSH1 0x40 MLOAD SWAP1 DUP2 ADD PUSH1 0x40 MSTORE DUP1 SWAP3 SWAP2 SWAP1 DUP2 DUP2 MSTORE PUSH1 0x20 ADD DUP3 DUP1 SLOAD PUSH2 0xA3D SWAP1 PUSH2 0x186B JUMP JUMPDEST DUP1 ISZERO PUSH2 0xA8A JUMPI DUP1 PUSH1 0x1F LT PUSH2 0xA5F JUMPI PUSH2 0x100 DUP1 DUP4 SLOAD DIV MUL DUP4 MSTORE SWAP2 PUSH1 0x20 ADD SWAP2 PUSH2 0xA8A JUMP JUMPDEST DUP3 ADD SWAP2 SWAP1 PUSH1 0x0 MSTORE PUSH1 0x20 PUSH1 0x0 KECCAK256 SWAP1 JUMPDEST DUP2 SLOAD DUP2 MSTORE SWAP1 PUSH1 0x1 ADD SWAP1 PUSH1 0x20 ADD DUP1 DUP4 GT PUSH2 0xA6D JUMPI DUP3 SWAP1 SUB PUSH1 0x1F AND DUP3 ADD SWAP2 JUMPDEST POP POP POP POP POP SWAP1 POP SWAP1 JUMP JUMPDEST PUSH1 0x0 DUP1 PUSH2 0xA9F PUSH2 0xD5C JUMP JUMPDEST SWAP1 POP PUSH1 0x0 PUSH2 0xAAD DUP3 DUP7 PUSH2 0xB34 JUMP JUMPDEST SWAP1 POP DUP4 DUP2 LT ISZERO PUSH2 0xAF2 JUMPI PUSH1 0x40 MLOAD PUSH32 0x8C379A000000000000000000000000000000000000000000000000000000000 DUP2 MSTORE PUSH1 0x4 ADD PUSH2 0xAE9 SWAP1 PUSH2 0x1CB5 JUMP JUMPDEST PUSH1 0x40 MLOAD DUP1 SWAP2 SUB SWAP1 REVERT JUMPDEST PUSH2 0xAFF DUP3 DUP7 DUP7 DUP5 SUB PUSH2 0xD64 JUMP JUMPDEST PUSH1 0x1 SWAP3 POP POP POP SWAP3 SWAP2 POP POP JUMP JUMPDEST PUSH1 0x0 DUP1 PUSH2 0xB16 PUSH2 0xD5C JUMP JUMPDEST SWAP1 POP PUSH2 0xB23 DUP2 DUP6 DUP6 PUSH2 0xFB9 JUMP JUMPDEST PUSH1 0x1 SWAP2 POP POP SWAP3 SWAP2 POP POP JUMP JUMPDEST PUSH1 0x7 SLOAD DUP2 JUMP JUMPDEST PUSH1 0x0 PUSH1 0x1 PUSH1 0x0 DUP5 PUSH20 0xFFFFFFFFFFFFFFFFFFFFFFFFFFFFFFFFFFFFFFFF AND PUSH20 0xFFFFFFFFFFFFFFFFFFFFFFFFFFFFFFFFFFFFFFFF AND DUP2 MSTORE PUSH1 0x20 ADD SWAP1 DUP2 MSTORE PUSH1 0x20 ADD PUSH1 0x0 KECCAK256 PUSH1 0x0 DUP4 PUSH20 0xFFFFFFFFFFFFFFFFFFFFFFFFFFFFFFFFFFFFFFFF AND PUSH20 0xFFFFFFFFFFFFFFFFFFFFFFFFFFFFFFFFFFFFFFFF AND DUP2 MSTORE PUSH1 0x20 ADD SWAP1 DUP2 MSTORE PUSH1 0x20 ADD PUSH1 0x0 KECCAK256 SLOAD SWAP1 POP SWAP3 SWAP2 POP POP JUMP JUMPDEST PUSH8 0x16345785D8A0000 CALLVALUE GT PUSH2 0xC05 JUMPI PUSH1 0x40 MLOAD PUSH32 0x8C379A000000000000000000000000000000000000000000000000000000000 DUP2 MSTORE PUSH1 0x4 ADD PUSH2 0xBFC SWAP1 PUSH2 0x1D21 JUMP JUMPDEST PUSH1 0x40 MLOAD DUP1 SWAP2 SUB SWAP1 REVERT JUMPDEST PUSH1 0x0 CALLVALUE SWAP1 POP PUSH1 0x5 CALLER SWAP1 DUP1 PUSH1 0x1 DUP2 SLOAD ADD DUP1 DUP3 SSTORE DUP1 SWAP2 POP POP PUSH1 0x1 SWAP1 SUB SWAP1 PUSH1 0x0 MSTORE PUSH1 0x20 PUSH1 0x0 KECCAK256 ADD PUSH1 0x0 SWAP1 SWAP2 SWAP1 SWAP2 SWAP1 SWAP2 PUSH2 0x100 EXP DUP2 SLOAD DUP2 PUSH20 0xFFFFFFFFFFFFFFFFFFFFFFFFFFFFFFFFFFFFFFFF MUL NOT AND SWAP1 DUP4 PUSH20 0xFFFFFFFFFFFFFFFFFFFFFFFFFFFFFFFFFFFFFFFF AND MUL OR SWAP1 SSTORE POP CALLER PUSH20 0xFFFFFFFFFFFFFFFFFFFFFFFFFFFFFFFFFFFFFFFF AND PUSH1 0x6 PUSH1 0x0 SWAP1 SLOAD SWAP1 PUSH2 0x100 EXP SWAP1 DIV PUSH20 0xFFFFFFFFFFFFFFFFFFFFFFFFFFFFFFFFFFFFFFFF AND PUSH20 0xFFFFFFFFFFFFFFFFFFFFFFFFFFFFFFFFFFFFFFFF AND PUSH32 0xDDF252AD1BE2C89B69C2B068FC378DAA952BA7F163C4A11628F55A4DF523B3EF DUP4 PUSH1 0x40 MLOAD PUSH2 0xCEC SWAP2 SWAP1 PUSH2 0x1697 JUMP JUMPDEST PUSH1 0x40 MLOAD DUP1 SWAP2 SUB SWAP1 LOG3 POP JUMP JUMPDEST PUSH1 0x5 DUP2 DUP2 SLOAD DUP2 LT PUSH2 0xD07 JUMPI PUSH1 0x0 DUP1 REVERT JUMPDEST SWAP1 PUSH1 0x0 MSTORE PUSH1 0x20 PUSH1 0x0 KECCAK256 ADD PUSH1 0x0 SWAP2 POP SLOAD SWAP1 PUSH2 0x100 EXP SWAP1 DIV PUSH20 0xFFFFFFFFFFFFFFFFFFFFFFFFFFFFFFFFFFFFFFFF AND DUP2 JUMP JUMPDEST PUSH1 0x6 PUSH1 0x0 SWAP1 SLOAD SWAP1 PUSH2 0x100 EXP SWAP1 DIV PUSH20 0xFFFFFFFFFFFFFFFFFFFFFFFFFFFFFFFFFFFFFFFF AND DUP2 JUMP JUMPDEST PUSH1 0x0 CALLER SWAP1 POP SWAP1 JUMP JUMPDEST PUSH1 0x0 PUSH20 0xFFFFFFFFFFFFFFFFFFFFFFFFFFFFFFFFFFFFFFFF AND DUP4 PUSH20 0xFFFFFFFFFFFFFFFFFFFFFFFFFFFFFFFFFFFFFFFF AND SUB PUSH2 0xDD3 JUMPI PUSH1 0x40 MLOAD PUSH32 0x8C379A000000000000000000000000000000000000000000000000000000000 DUP2 MSTORE PUSH1 0x4 ADD PUSH2 0xDCA SWAP1 PUSH2 0x1DB3 JUMP JUMPDEST PUSH1 0x40 MLOAD DUP1 SWAP2 SUB SWAP1 REVERT JUMPDEST PUSH1 0x0 PUSH20 0xFFFFFFFFFFFFFFFFFFFFFFFFFFFFFFFFFFFFFFFF AND DUP3 PUSH20 0xFFFFFFFFFFFFFFFFFFFFFFFFFFFFFFFFFFFFFFFF AND SUB PUSH2 0xE42 JUMPI PUSH1 0x40 MLOAD PUSH32 0x8C379A000000000000000000000000000000000000000000000000000000000 DUP2 MSTORE PUSH1 0x4 ADD PUSH2 0xE39 SWAP1 PUSH2 0x1E45 JUMP JUMPDEST PUSH1 0x40 MLOAD DUP1 SWAP2 SUB SWAP1 REVERT JUMPDEST DUP1 PUSH1 0x1 PUSH1 0x0 DUP6 PUSH20 0xFFFFFFFFFFFFFFFFFFFFFFFFFFFFFFFFFFFFFFFF AND PUSH20 0xFFFFFFFFFFFFFFFFFFFFFFFFFFFFFFFFFFFFFFFF AND DUP2 MSTORE PUSH1 0x20 ADD SWAP1 DUP2 MSTORE PUSH1 0x20 ADD PUSH1 0x0 KECCAK256 PUSH1 0x0 DUP5 PUSH20 0xFFFFFFFFFFFFFFFFFFFFFFFFFFFFFFFFFFFFFFFF AND PUSH20 0xFFFFFFFFFFFFFFFFFFFFFFFFFFFFFFFFFFFFFFFF AND DUP2 MSTORE PUSH1 0x20 ADD SWAP1 DUP2 MSTORE PUSH1 0x20 ADD PUSH1 0x0 KECCAK256 DUP2 SWAP1 SSTORE POP DUP2 PUSH20 0xFFFFFFFFFFFFFFFFFFFFFFFFFFFFFFFFFFFFFFFF AND DUP4 PUSH20 0xFFFFFFFFFFFFFFFFFFFFFFFFFFFFFFFFFFFFFFFF AND PUSH32 0x8C5BE1E5EBEC7D5BD14F71427D1E84F3DD0314C0F7B2291E5B200AC8C7C3B925 DUP4 PUSH1 0x40 MLOAD PUSH2 0xF20 SWAP2 SWAP1 PUSH2 0x1697 JUMP JUMPDEST PUSH1 0x40 MLOAD DUP1 SWAP2 SUB SWAP1 LOG3 POP POP POP JUMP JUMPDEST PUSH1 0x0 PUSH2 0xF39 DUP5 DUP5 PUSH2 0xB34 JUMP JUMPDEST SWAP1 POP PUSH32 0xFFFFFFFFFFFFFFFFFFFFFFFFFFFFFFFFFFFFFFFFFFFFFFFFFFFFFFFFFFFFFFFF DUP2 EQ PUSH2 0xFB3 JUMPI DUP2 DUP2 LT ISZERO PUSH2 0xFA5 JUMPI PUSH1 0x40 MLOAD PUSH32 0x8C379A000000000000000000000000000000000000000000000000000000000 DUP2 MSTORE PUSH1 0x4 ADD PUSH2 0xF9C SWAP1 PUSH2 0x1EB1 JUMP JUMPDEST PUSH1 0x40 MLOAD DUP1 SWAP2 SUB SWAP1 REVERT JUMPDEST PUSH2 0xFB2 DUP5 DUP5 DUP5 DUP5 SUB PUSH2 0xD64 JUMP JUMPDEST JUMPDEST POP POP POP POP JUMP JUMPDEST PUSH1 0x0 PUSH20 0xFFFFFFFFFFFFFFFFFFFFFFFFFFFFFFFFFFFFFFFF AND DUP4 PUSH20 0xFFFFFFFFFFFFFFFFFFFFFFFFFFFFFFFFFFFFFFFF AND SUB PUSH2 0x1028 JUMPI PUSH1 0x40 MLOAD PUSH32 0x8C379A000000000000000000000000000000000000000000000000000000000 DUP2 MSTORE PUSH1 0x4 ADD PUSH2 0x101F SWAP1 PUSH2 0x1F43 JUMP JUMPDEST PUSH1 0x40 MLOAD DUP1 SWAP2 SUB SWAP1 REVERT JUMPDEST PUSH1 0x0 PUSH20 0xFFFFFFFFFFFFFFFFFFFFFFFFFFFFFFFFFFFFFFFF AND DUP3 PUSH20 0xFFFFFFFFFFFFFFFFFFFFFFFFFFFFFFFFFFFFFFFF AND SUB PUSH2 0x1097 JUMPI PUSH1 0x40 MLOAD PUSH32 0x8C379A000000000000000000000000000000000000000000000000000000000 DUP2 MSTORE PUSH1 0x4 ADD PUSH2 0x108E SWAP1 PUSH2 0x1FD5 JUMP JUMPDEST PUSH1 0x40 MLOAD DUP1 SWAP2 SUB SWAP1 REVERT JUMPDEST PUSH2 0x10A2 DUP4 DUP4 DUP4 PUSH2 0x13AA JUMP JUMPDEST PUSH1 0x0 DUP1 PUSH1 0x0 DUP6 PUSH20 0xFFFFFFFFFFFFFFFFFFFFFFFFFFFFFFFFFFFFFFFF AND PUSH20 0xFFFFFFFFFFFFFFFFFFFFFFFFFFFFFFFFFFFFFFFF AND DUP2 MSTORE PUSH1 0x20 ADD SWAP1 DUP2 MSTORE PUSH1 0x20 ADD PUSH1 0x0 KECCAK256 SLOAD SWAP1 POP DUP2 DUP2 LT ISZERO PUSH2 0x1128 JUMPI PUSH1 0x40 MLOAD PUSH32 0x8C379A000000000000000000000000000000000000000000000000000000000 DUP2 MSTORE PUSH1 0x4 ADD PUSH2 0x111F SWAP1 PUSH2 0x2067 JUMP JUMPDEST PUSH1 0x40 MLOAD DUP1 SWAP2 SUB SWAP1 REVERT JUMPDEST DUP2 DUP2 SUB PUSH1 0x0 DUP1 DUP7 PUSH20 0xFFFFFFFFFFFFFFFFFFFFFFFFFFFFFFFFFFFFFFFF AND PUSH20 0xFFFFFFFFFFFFFFFFFFFFFFFFFFFFFFFFFFFFFFFF AND DUP2 MSTORE PUSH1 0x20 ADD SWAP1 DUP2 MSTORE PUSH1 0x20 ADD PUSH1 0x0 KECCAK256 DUP2 SWAP1 SSTORE POP DUP2 PUSH1 0x0 DUP1 DUP6 PUSH20 0xFFFFFFFFFFFFFFFFFFFFFFFFFFFFFFFFFFFFFFFF AND PUSH20 0xFFFFFFFFFFFFFFFFFFFFFFFFFFFFFFFFFFFFFFFF AND DUP2 MSTORE PUSH1 0x20 ADD SWAP1 DUP2 MSTORE PUSH1 0x20 ADD PUSH1 0x0 KECCAK256 PUSH1 0x0 DUP3 DUP3 SLOAD PUSH2 0x11BB SWAP2 SWAP1 PUSH2 0x1937 JUMP JUMPDEST SWAP3 POP POP DUP2 SWAP1 SSTORE POP DUP3 PUSH20 0xFFFFFFFFFFFFFFFFFFFFFFFFFFFFFFFFFFFFFFFF AND DUP5 PUSH20 0xFFFFFFFFFFFFFFFFFFFFFFFFFFFFFFFFFFFFFFFF AND PUSH32 0xDDF252AD1BE2C89B69C2B068FC378DAA952BA7F163C4A11628F55A4DF523B3EF DUP5 PUSH1 0x40 MLOAD PUSH2 0x121F SWAP2 SWAP1 PUSH2 0x1697 JUMP JUMPDEST PUSH1 0x40 MLOAD DUP1 SWAP2 SUB SWAP1 LOG3 PUSH2 0x1232 DUP5 DUP5 DUP5 PUSH2 0x13AF JUMP JUMPDEST POP POP POP POP JUMP JUMPDEST PUSH1 0x0 DIFFICULTY TIMESTAMP PUSH1 0x5 DUP1 SLOAD SWAP1 POP PUSH1 0x40 MLOAD PUSH1 0x20 ADD PUSH2 0x1254 SWAP4 SWAP3 SWAP2 SWAP1 PUSH2 0x20A8 JUMP JUMPDEST PUSH1 0x40 MLOAD PUSH1 0x20 DUP2 DUP4 SUB SUB DUP2 MSTORE SWAP1 PUSH1 0x40 MSTORE DUP1 MLOAD SWAP1 PUSH1 0x20 ADD KECCAK256 PUSH1 0x0 SHR SWAP1 POP SWAP1 JUMP JUMPDEST PUSH1 0x0 PUSH8 0xFFFFFFFFFFFFFFFF DUP2 GT ISZERO PUSH2 0x128D JUMPI PUSH2 0x128C PUSH2 0x20E5 JUMP JUMPDEST JUMPDEST PUSH1 0x40 MLOAD SWAP1 DUP1 DUP3 MSTORE DUP1 PUSH1 0x20 MUL PUSH1 0x20 ADD DUP3 ADD PUSH1 0x40 MSTORE DUP1 ISZERO PUSH2 0x12BB JUMPI DUP2 PUSH1 0x20 ADD PUSH1 0x20 DUP3 MUL DUP1 CALLDATASIZE DUP4 CALLDATACOPY DUP1 DUP3 ADD SWAP2 POP POP SWAP1 POP JUMPDEST POP PUSH1 0x5 SWAP1 DUP1 MLOAD SWAP1 PUSH1 0x20 ADD SWAP1 PUSH2 0x12D1 SWAP3 SWAP2 SWAP1 PUSH2 0x13B4 JUMP JUMPDEST POP PUSH1 0x0 PUSH1 0x6 PUSH1 0x0 SWAP1 SLOAD SWAP1 PUSH2 0x100 EXP SWAP1 DIV PUSH20 0xFFFFFFFFFFFFFFFFFFFFFFFFFFFFFFFFFFFFFFFF AND PUSH20 0xFFFFFFFFFFFFFFFFFFFFFFFFFFFFFFFFFFFFFFFF AND PUSH2 0x1315 PUSH2 0x635 JUMP JUMPDEST PUSH1 0x40 MLOAD PUSH2 0x1321 SWAP1 PUSH2 0x1B9C JUMP JUMPDEST PUSH1 0x0 PUSH1 0x40 MLOAD DUP1 DUP4 SUB DUP2 DUP6 DUP8 GAS CALL SWAP3 POP POP POP RETURNDATASIZE DUP1 PUSH1 0x0 DUP2 EQ PUSH2 0x135E JUMPI PUSH1 0x40 MLOAD SWAP2 POP PUSH1 0x1F NOT PUSH1 0x3F RETURNDATASIZE ADD AND DUP3 ADD PUSH1 0x40 MSTORE RETURNDATASIZE DUP3 MSTORE RETURNDATASIZE PUSH1 0x0 PUSH1 0x20 DUP5 ADD RETURNDATACOPY PUSH2 0x1363 JUMP JUMPDEST PUSH1 0x60 SWAP2 POP JUMPDEST POP POP SWAP1 POP DUP1 PUSH2 0x13A7 JUMPI PUSH1 0x40 MLOAD PUSH32 0x8C379A000000000000000000000000000000000000000000000000000000000 DUP2 MSTORE PUSH1 0x4 ADD PUSH2 0x139E SWAP1 PUSH2 0x2186 JUMP JUMPDEST PUSH1 0x40 MLOAD DUP1 SWAP2 SUB SWAP1 REVERT JUMPDEST POP JUMP JUMPDEST POP POP POP JUMP JUMPDEST POP POP POP JUMP JUMPDEST DUP3 DUP1 SLOAD DUP3 DUP3 SSTORE SWAP1 PUSH1 0x0 MSTORE PUSH1 0x20 PUSH1 0x0 KECCAK256 SWAP1 DUP2 ADD SWAP3 DUP3 ISZERO PUSH2 0x142D JUMPI SWAP2 PUSH1 0x20 MUL DUP3 ADD JUMPDEST DUP3 DUP2 GT ISZERO PUSH2 0x142C JUMPI DUP3 MLOAD DUP3 PUSH1 0x0 PUSH2 0x100 EXP DUP2 SLOAD DUP2 PUSH20 0xFFFFFFFFFFFFFFFFFFFFFFFFFFFFFFFFFFFFFFFF MUL NOT AND SWAP1 DUP4 PUSH20 0xFFFFFFFFFFFFFFFFFFFFFFFFFFFFFFFFFFFFFFFF AND MUL OR SWAP1 SSTORE POP SWAP2 PUSH1 0x20 ADD SWAP2 SWAP1 PUSH1 0x1 ADD SWAP1 PUSH2 0x13D4 JUMP JUMPDEST JUMPDEST POP SWAP1 POP PUSH2 0x143A SWAP2 SWAP1 PUSH2 0x143E JUMP JUMPDEST POP SWAP1 JUMP JUMPDEST JUMPDEST DUP1 DUP3 GT ISZERO PUSH2 0x1457 JUMPI PUSH1 0x0 DUP2 PUSH1 0x0 SWAP1 SSTORE POP PUSH1 0x1 ADD PUSH2 0x143F JUMP JUMPDEST POP SWAP1 JUMP JUMPDEST PUSH1 0x0 DUP3 DUP3 MSTORE PUSH1 0x20 DUP3 ADD SWAP1 POP SWAP3 SWAP2 POP POP JUMP JUMPDEST PUSH32 0x4D7573742073656E6420302E3120657468657220616D6F756E74000000000000 PUSH1 0x0 DUP3 ADD MSTORE POP JUMP JUMPDEST PUSH1 0x0 PUSH2 0x14A2 PUSH1 0x1A DUP4 PUSH2 0x145B JUMP JUMPDEST SWAP2 POP PUSH2 0x14AD DUP3 PUSH2 0x146C JUMP JUMPDEST PUSH1 0x20 DUP3 ADD SWAP1 POP SWAP2 SWAP1 POP JUMP JUMPDEST PUSH1 0x0 PUSH1 0x20 DUP3 ADD SWAP1 POP DUP2 DUP2 SUB PUSH1 0x0 DUP4 ADD MSTORE PUSH2 0x14D1 DUP2 PUSH2 0x1495 JUMP JUMPDEST SWAP1 POP SWAP2 SWAP1 POP JUMP JUMPDEST PUSH1 0x0 DUP2 MLOAD SWAP1 POP SWAP2 SWAP1 POP JUMP JUMPDEST PUSH1 0x0 JUMPDEST DUP4 DUP2 LT ISZERO PUSH2 0x1501 JUMPI DUP1 DUP3 ADD MLOAD DUP2 DUP5 ADD MSTORE PUSH1 0x20 DUP2 ADD SWAP1 POP PUSH2 0x14E6 JUMP JUMPDEST PUSH1 0x0 DUP5 DUP5 ADD MSTORE POP POP POP POP JUMP JUMPDEST PUSH1 0x0 PUSH1 0x1F NOT PUSH1 0x1F DUP4 ADD AND SWAP1 POP SWAP2 SWAP1 POP JUMP JUMPDEST PUSH1 0x0 PUSH2 0x1529 DUP3 PUSH2 0x14D8 JUMP JUMPDEST PUSH2 0x1533 DUP2 DUP6 PUSH2 0x145B JUMP JUMPDEST SWAP4 POP PUSH2 0x1543 DUP2 DUP6 PUSH1 0x20 DUP7 ADD PUSH2 0x14E3 JUMP JUMPDEST PUSH2 0x154C DUP2 PUSH2 0x150D JUMP JUMPDEST DUP5 ADD SWAP2 POP POP SWAP3 SWAP2 POP POP JUMP JUMPDEST PUSH1 0x0 PUSH1 0x20 DUP3 ADD SWAP1 POP DUP2 DUP2 SUB PUSH1 0x0 DUP4 ADD MSTORE PUSH2 0x1571 DUP2 DUP5 PUSH2 0x151E JUMP JUMPDEST SWAP1 POP SWAP3 SWAP2 POP POP JUMP JUMPDEST PUSH1 0x0 DUP1 REVERT JUMPDEST PUSH1 0x0 PUSH20 0xFFFFFFFFFFFFFFFFFFFFFFFFFFFFFFFFFFFFFFFF DUP3 AND SWAP1 POP SWAP2 SWAP1 POP JUMP JUMPDEST PUSH1 0x0 PUSH2 0x15A9 DUP3 PUSH2 0x157E JUMP JUMPDEST SWAP1 POP SWAP2 SWAP1 POP JUMP JUMPDEST PUSH2 0x15B9 DUP2 PUSH2 0x159E JUMP JUMPDEST DUP2 EQ PUSH2 0x15C4 JUMPI PUSH1 0x0 DUP1 REVERT JUMPDEST POP JUMP JUMPDEST PUSH1 0x0 DUP2 CALLDATALOAD SWAP1 POP PUSH2 0x15D6 DUP2 PUSH2 0x15B0 JUMP JUMPDEST SWAP3 SWAP2 POP POP JUMP JUMPDEST PUSH1 0x0 DUP2 SWAP1 POP SWAP2 SWAP1 POP JUMP JUMPDEST PUSH2 0x15EF DUP2 PUSH2 0x15DC JUMP JUMPDEST DUP2 EQ PUSH2 0x15FA JUMPI PUSH1 0x0 DUP1 REVERT JUMPDEST POP JUMP JUMPDEST PUSH1 0x0 DUP2 CALLDATALOAD SWAP1 POP PUSH2 0x160C DUP2 PUSH2 0x15E6 JUMP JUMPDEST SWAP3 SWAP2 POP POP JUMP JUMPDEST PUSH1 0x0 DUP1 PUSH1 0x40 DUP4 DUP6 SUB SLT ISZERO PUSH2 0x1629 JUMPI PUSH2 0x1628 PUSH2 0x1579 JUMP JUMPDEST JUMPDEST PUSH1 0x0 PUSH2 0x1637 DUP6 DUP3 DUP7 ADD PUSH2 0x15C7 JUMP JUMPDEST SWAP3 POP POP PUSH1 0x20 PUSH2 0x1648 DUP6 DUP3 DUP7 ADD PUSH2 0x15FD JUMP JUMPDEST SWAP2 POP POP SWAP3 POP SWAP3 SWAP1 POP JUMP JUMPDEST PUSH1 0x0 DUP2 ISZERO ISZERO SWAP1 POP SWAP2 SWAP1 POP JUMP JUMPDEST PUSH2 0x1667 DUP2 PUSH2 0x1652 JUMP JUMPDEST DUP3 MSTORE POP POP JUMP JUMPDEST PUSH1 0x0 PUSH1 0x20 DUP3 ADD SWAP1 POP PUSH2 0x1682 PUSH1 0x0 DUP4 ADD DUP5 PUSH2 0x165E JUMP JUMPDEST SWAP3 SWAP2 POP POP JUMP JUMPDEST PUSH2 0x1691 DUP2 PUSH2 0x15DC JUMP JUMPDEST DUP3 MSTORE POP POP JUMP JUMPDEST PUSH1 0x0 PUSH1 0x20 DUP3 ADD SWAP1 POP PUSH2 0x16AC PUSH1 0x0 DUP4 ADD DUP5 PUSH2 0x1688 JUMP JUMPDEST SWAP3 SWAP2 POP POP JUMP JUMPDEST PUSH1 0x0 DUP1 PUSH1 0x0 PUSH1 0x60 DUP5 DUP7 SUB SLT ISZERO PUSH2 0x16CB JUMPI PUSH2 0x16CA PUSH2 0x1579 JUMP JUMPDEST JUMPDEST PUSH1 0x0 PUSH2 0x16D9 DUP7 DUP3 DUP8 ADD PUSH2 0x15C7 JUMP JUMPDEST SWAP4 POP POP PUSH1 0x20 PUSH2 0x16EA DUP7 DUP3 DUP8 ADD PUSH2 0x15C7 JUMP JUMPDEST SWAP3 POP POP PUSH1 0x40 PUSH2 0x16FB DUP7 DUP3 DUP8 ADD PUSH2 0x15FD JUMP JUMPDEST SWAP2 POP POP SWAP3 POP SWAP3 POP SWAP3 JUMP JUMPDEST PUSH1 0x0 PUSH1 0xFF DUP3 AND SWAP1 POP SWAP2 SWAP1 POP JUMP JUMPDEST PUSH2 0x171B DUP2 PUSH2 0x1705 JUMP JUMPDEST DUP3 MSTORE POP POP JUMP JUMPDEST PUSH1 0x0 PUSH1 0x20 DUP3 ADD SWAP1 POP PUSH2 0x1736 PUSH1 0x0 DUP4 ADD DUP5 PUSH2 0x1712 JUMP JUMPDEST SWAP3 SWAP2 POP POP JUMP JUMPDEST PUSH1 0x0 PUSH1 0x20 DUP3 DUP5 SUB SLT ISZERO PUSH2 0x1752 JUMPI PUSH2 0x1751 PUSH2 0x1579 JUMP JUMPDEST JUMPDEST PUSH1 0x0 PUSH2 0x1760 DUP5 DUP3 DUP6 ADD PUSH2 0x15C7 JUMP JUMPDEST SWAP2 POP POP SWAP3 SWAP2 POP POP JUMP JUMPDEST PUSH1 0x0 DUP1 PUSH1 0x40 DUP4 DUP6 SUB SLT ISZERO PUSH2 0x1780 JUMPI PUSH2 0x177F PUSH2 0x1579 JUMP JUMPDEST JUMPDEST PUSH1 0x0 PUSH2 0x178E DUP6 DUP3 DUP7 ADD PUSH2 0x15C7 JUMP JUMPDEST SWAP3 POP POP PUSH1 0x20 PUSH2 0x179F DUP6 DUP3 DUP7 ADD PUSH2 0x15C7 JUMP JUMPDEST SWAP2 POP POP SWAP3 POP SWAP3 SWAP1 POP JUMP JUMPDEST PUSH1 0x0 PUSH1 0x20 DUP3 DUP5 SUB SLT ISZERO PUSH2 0x17BF JUMPI PUSH2 0x17BE PUSH2 0x1579 JUMP JUMPDEST JUMPDEST PUSH1 0x0 PUSH2 0x17CD DUP5 DUP3 DUP6 ADD PUSH2 0x15FD JUMP JUMPDEST SWAP2 POP POP SWAP3 SWAP2 POP POP JUMP JUMPDEST PUSH1 0x0 PUSH2 0x17E1 DUP3 PUSH2 0x157E JUMP JUMPDEST SWAP1 POP SWAP2 SWAP1 POP JUMP JUMPDEST PUSH2 0x17F1 DUP2 PUSH2 0x17D6 JUMP JUMPDEST DUP3 MSTORE POP POP JUMP JUMPDEST PUSH1 0x0 PUSH1 0x20 DUP3 ADD SWAP1 POP PUSH2 0x180C PUSH1 0x0 DUP4 ADD DUP5 PUSH2 0x17E8 JUMP JUMPDEST SWAP3 SWAP2 POP POP JUMP JUMPDEST PUSH2 0x181B DUP2 PUSH2 0x159E JUMP JUMPDEST DUP3 MSTORE POP POP JUMP JUMPDEST PUSH1 0x0 PUSH1 0x20 DUP3 ADD SWAP1 POP PUSH2 0x1836 PUSH1 0x0 DUP4 ADD DUP5 PUSH2 0x1812 JUMP JUMPDEST SWAP3 SWAP2 POP POP JUMP JUMPDEST PUSH32 0x4E487B7100000000000000000000000000000000000000000000000000000000 PUSH1 0x0 MSTORE PUSH1 0x22 PUSH1 0x4 MSTORE PUSH1 0x24 PUSH1 0x0 REVERT JUMPDEST PUSH1 0x0 PUSH1 0x2 DUP3 DIV SWAP1 POP PUSH1 0x1 DUP3 AND DUP1 PUSH2 0x1883 JUMPI PUSH1 0x7F DUP3 AND SWAP2 POP JUMPDEST PUSH1 0x20 DUP3 LT DUP2 SUB PUSH2 0x1896 JUMPI PUSH2 0x1895 PUSH2 0x183C JUMP JUMPDEST JUMPDEST POP SWAP2 SWAP1 POP JUMP JUMPDEST PUSH32 0x596F7520617265206E6F7420746865206F776E65720000000000000000000000 PUSH1 0x0 DUP3 ADD MSTORE POP JUMP JUMPDEST PUSH1 0x0 PUSH2 0x18D2 PUSH1 0x15 DUP4 PUSH2 0x145B JUMP JUMPDEST SWAP2 POP PUSH2 0x18DD DUP3 PUSH2 0x189C JUMP JUMPDEST PUSH1 0x20 DUP3 ADD SWAP1 POP SWAP2 SWAP1 POP JUMP JUMPDEST PUSH1 0x0 PUSH1 0x20 DUP3 ADD SWAP1 POP DUP2 DUP2 SUB PUSH1 0x0 DUP4 ADD MSTORE PUSH2 0x1901 DUP2 PUSH2 0x18C5 JUMP JUMPDEST SWAP1 POP SWAP2 SWAP1 POP JUMP JUMPDEST PUSH32 0x4E487B7100000000000000000000000000000000000000000000000000000000 PUSH1 0x0 MSTORE PUSH1 0x11 PUSH1 0x4 MSTORE PUSH1 0x24 PUSH1 0x0 REVERT JUMPDEST PUSH1 0x0 PUSH2 0x1942 DUP3 PUSH2 0x15DC JUMP JUMPDEST SWAP2 POP PUSH2 0x194D DUP4 PUSH2 0x15DC JUMP JUMPDEST SWAP3 POP DUP3 DUP3 ADD SWAP1 POP DUP1 DUP3 GT ISZERO PUSH2 0x1965 JUMPI PUSH2 0x1964 PUSH2 0x1908 JUMP JUMPDEST JUMPDEST SWAP3 SWAP2 POP POP JUMP JUMPDEST PUSH32 0x4E6F7420656E6F75676820706C617965727320696E20746865206C6F74746572 PUSH1 0x0 DUP3 ADD MSTORE PUSH32 0x7900000000000000000000000000000000000000000000000000000000000000 PUSH1 0x20 DUP3 ADD MSTORE POP JUMP JUMPDEST PUSH1 0x0 PUSH2 0x19C7 PUSH1 0x21 DUP4 PUSH2 0x145B JUMP JUMPDEST SWAP2 POP PUSH2 0x19D2 DUP3 PUSH2 0x196B JUMP JUMPDEST PUSH1 0x40 DUP3 ADD SWAP1 POP SWAP2 SWAP1 POP JUMP JUMPDEST PUSH1 0x0 PUSH1 0x20 DUP3 ADD SWAP1 POP DUP2 DUP2 SUB PUSH1 0x0 DUP4 ADD MSTORE PUSH2 0x19F6 DUP2 PUSH2 0x19BA JUMP JUMPDEST SWAP1 POP SWAP2 SWAP1 POP JUMP JUMPDEST PUSH32 0x4E487B7100000000000000000000000000000000000000000000000000000000 PUSH1 0x0 MSTORE PUSH1 0x12 PUSH1 0x4 MSTORE PUSH1 0x24 PUSH1 0x0 REVERT JUMPDEST PUSH1 0x0 PUSH2 0x1A37 DUP3 PUSH2 0x15DC JUMP JUMPDEST SWAP2 POP PUSH2 0x1A42 DUP4 PUSH2 0x15DC JUMP JUMPDEST SWAP3 POP DUP3 PUSH2 0x1A52 JUMPI PUSH2 0x1A51 PUSH2 0x19FD JUMP JUMPDEST JUMPDEST DUP3 DUP3 MOD SWAP1 POP SWAP3 SWAP2 POP POP JUMP JUMPDEST PUSH32 0x4E487B7100000000000000000000000000000000000000000000000000000000 PUSH1 0x0 MSTORE PUSH1 0x32 PUSH1 0x4 MSTORE PUSH1 0x24 PUSH1 0x0 REVERT JUMPDEST PUSH1 0x0 PUSH2 0x1A97 DUP3 PUSH2 0x15DC JUMP JUMPDEST SWAP2 POP PUSH2 0x1AA2 DUP4 PUSH2 0x15DC JUMP JUMPDEST SWAP3 POP DUP3 DUP3 MUL PUSH2 0x1AB0 DUP2 PUSH2 0x15DC JUMP JUMPDEST SWAP2 POP DUP3 DUP3 DIV DUP5 EQ DUP4 ISZERO OR PUSH2 0x1AC7 JUMPI PUSH2 0x1AC6 PUSH2 0x1908 JUMP JUMPDEST JUMPDEST POP SWAP3 SWAP2 POP POP JUMP JUMPDEST PUSH1 0x0 PUSH2 0x1AD9 DUP3 PUSH2 0x15DC JUMP JUMPDEST SWAP2 POP PUSH2 0x1AE4 DUP4 PUSH2 0x15DC JUMP JUMPDEST SWAP3 POP DUP3 PUSH2 0x1AF4 JUMPI PUSH2 0x1AF3 PUSH2 0x19FD JUMP JUMPDEST JUMPDEST DUP3 DUP3 DIV SWAP1 POP SWAP3 SWAP2 POP POP JUMP JUMPDEST PUSH32 0x4661696C656420746F2077696E6E657220616D6F756E74206973207A65726F00 PUSH1 0x0 DUP3 ADD MSTORE POP JUMP JUMPDEST PUSH1 0x0 PUSH2 0x1B35 PUSH1 0x1F DUP4 PUSH2 0x145B JUMP JUMPDEST SWAP2 POP PUSH2 0x1B40 DUP3 PUSH2 0x1AFF JUMP JUMPDEST PUSH1 0x20 DUP3 ADD SWAP1 POP SWAP2 SWAP1 POP JUMP JUMPDEST PUSH1 0x0 PUSH1 0x20 DUP3 ADD SWAP1 POP DUP2 DUP2 SUB PUSH1 0x0 DUP4 ADD MSTORE PUSH2 0x1B64 DUP2 PUSH2 0x1B28 JUMP JUMPDEST SWAP1 POP SWAP2 SWAP1 POP JUMP JUMPDEST PUSH1 0x0 DUP2 SWAP1 POP SWAP3 SWAP2 POP POP JUMP JUMPDEST POP JUMP JUMPDEST PUSH1 0x0 PUSH2 0x1B86 PUSH1 0x0 DUP4 PUSH2 0x1B6B JUMP JUMPDEST SWAP2 POP PUSH2 0x1B91 DUP3 PUSH2 0x1B76 JUMP JUMPDEST PUSH1 0x0 DUP3 ADD SWAP1 POP SWAP2 SWAP1 POP JUMP JUMPDEST PUSH1 0x0 PUSH2 0x1BA7 DUP3 PUSH2 0x1B79 JUMP JUMPDEST SWAP2 POP DUP2 SWAP1 POP SWAP2 SWAP1 POP JUMP JUMPDEST PUSH32 0x4661696C656420746F2073656E6420757365722062616C616E6365206261636B PUSH1 0x0 DUP3 ADD MSTORE PUSH32 0x20746F20746865206F776E657200000000000000000000000000000000000000 PUSH1 0x20 DUP3 ADD MSTORE POP JUMP JUMPDEST PUSH1 0x0 PUSH2 0x1C0D PUSH1 0x2D DUP4 PUSH2 0x145B JUMP JUMPDEST SWAP2 POP PUSH2 0x1C18 DUP3 PUSH2 0x1BB1 JUMP JUMPDEST PUSH1 0x40 DUP3 ADD SWAP1 POP SWAP2 SWAP1 POP JUMP JUMPDEST PUSH1 0x0 PUSH1 0x20 DUP3 ADD SWAP1 POP DUP2 DUP2 SUB PUSH1 0x0 DUP4 ADD MSTORE PUSH2 0x1C3C DUP2 PUSH2 0x1C00 JUMP JUMPDEST SWAP1 POP SWAP2 SWAP1 POP JUMP JUMPDEST PUSH32 0x45524332303A2064656372656173656420616C6C6F77616E63652062656C6F77 PUSH1 0x0 DUP3 ADD MSTORE PUSH32 0x207A65726F000000000000000000000000000000000000000000000000000000 PUSH1 0x20 DUP3 ADD MSTORE POP JUMP JUMPDEST PUSH1 0x0 PUSH2 0x1C9F PUSH1 0x25 DUP4 PUSH2 0x145B JUMP JUMPDEST SWAP2 POP PUSH2 0x1CAA DUP3 PUSH2 0x1C43 JUMP JUMPDEST PUSH1 0x40 DUP3 ADD SWAP1 POP SWAP2 SWAP1 POP JUMP JUMPDEST PUSH1 0x0 PUSH1 0x20 DUP3 ADD SWAP1 POP DUP2 DUP2 SUB PUSH1 0x0 DUP4 ADD MSTORE PUSH2 0x1CCE DUP2 PUSH2 0x1C92 JUMP JUMPDEST SWAP1 POP SWAP2 SWAP1 POP JUMP JUMPDEST PUSH32 0x6D73672E76616C7565203C20302E312065746865720000000000000000000000 PUSH1 0x0 DUP3 ADD MSTORE POP JUMP JUMPDEST PUSH1 0x0 PUSH2 0x1D0B PUSH1 0x15 DUP4 PUSH2 0x145B JUMP JUMPDEST SWAP2 POP PUSH2 0x1D16 DUP3 PUSH2 0x1CD5 JUMP JUMPDEST PUSH1 0x20 DUP3 ADD SWAP1 POP SWAP2 SWAP1 POP JUMP JUMPDEST PUSH1 0x0 PUSH1 0x20 DUP3 ADD SWAP1 POP DUP2 DUP2 SUB PUSH1 0x0 DUP4 ADD MSTORE PUSH2 0x1D3A DUP2 PUSH2 0x1CFE JUMP JUMPDEST SWAP1 POP SWAP2 SWAP1 POP JUMP JUMPDEST PUSH32 0x45524332303A20617070726F76652066726F6D20746865207A65726F20616464 PUSH1 0x0 DUP3 ADD MSTORE PUSH32 0x7265737300000000000000000000000000000000000000000000000000000000 PUSH1 0x20 DUP3 ADD MSTORE POP JUMP JUMPDEST PUSH1 0x0 PUSH2 0x1D9D PUSH1 0x24 DUP4 PUSH2 0x145B JUMP JUMPDEST SWAP2 POP PUSH2 0x1DA8 DUP3 PUSH2 0x1D41 JUMP JUMPDEST PUSH1 0x40 DUP3 ADD SWAP1 POP SWAP2 SWAP1 POP JUMP JUMPDEST PUSH1 0x0 PUSH1 0x20 DUP3 ADD SWAP1 POP DUP2 DUP2 SUB PUSH1 0x0 DUP4 ADD MSTORE PUSH2 0x1DCC DUP2 PUSH2 0x1D90 JUMP JUMPDEST SWAP1 POP SWAP2 SWAP1 POP JUMP JUMPDEST PUSH32 0x45524332303A20617070726F766520746F20746865207A65726F206164647265 PUSH1 0x0 DUP3 ADD MSTORE PUSH32 0x7373000000000000000000000000000000000000000000000000000000000000 PUSH1 0x20 DUP3 ADD MSTORE POP JUMP JUMPDEST PUSH1 0x0 PUSH2 0x1E2F PUSH1 0x22 DUP4 PUSH2 0x145B JUMP JUMPDEST SWAP2 POP PUSH2 0x1E3A DUP3 PUSH2 0x1DD3 JUMP JUMPDEST PUSH1 0x40 DUP3 ADD SWAP1 POP SWAP2 SWAP1 POP JUMP JUMPDEST PUSH1 0x0 PUSH1 0x20 DUP3 ADD SWAP1 POP DUP2 DUP2 SUB PUSH1 0x0 DUP4 ADD MSTORE PUSH2 0x1E5E DUP2 PUSH2 0x1E22 JUMP JUMPDEST SWAP1 POP SWAP2 SWAP1 POP JUMP JUMPDEST PUSH32 0x45524332303A20696E73756666696369656E7420616C6C6F77616E6365000000 PUSH1 0x0 DUP3 ADD MSTORE POP JUMP JUMPDEST PUSH1 0x0 PUSH2 0x1E9B PUSH1 0x1D DUP4 PUSH2 0x145B JUMP JUMPDEST SWAP2 POP PUSH2 0x1EA6 DUP3 PUSH2 0x1E65 JUMP JUMPDEST PUSH1 0x20 DUP3 ADD SWAP1 POP SWAP2 SWAP1 POP JUMP JUMPDEST PUSH1 0x0 PUSH1 0x20 DUP3 ADD SWAP1 POP DUP2 DUP2 SUB PUSH1 0x0 DUP4 ADD MSTORE PUSH2 0x1ECA DUP2 PUSH2 0x1E8E JUMP JUMPDEST SWAP1 POP SWAP2 SWAP1 POP JUMP JUMPDEST PUSH32 0x45524332303A207472616E736665722066726F6D20746865207A65726F206164 PUSH1 0x0 DUP3 ADD MSTORE PUSH32 0x6472657373000000000000000000000000000000000000000000000000000000 PUSH1 0x20 DUP3 ADD MSTORE POP JUMP JUMPDEST PUSH1 0x0 PUSH2 0x1F2D PUSH1 0x25 DUP4 PUSH2 0x145B JUMP JUMPDEST SWAP2 POP PUSH2 0x1F38 DUP3 PUSH2 0x1ED1 JUMP JUMPDEST PUSH1 0x40 DUP3 ADD SWAP1 POP SWAP2 SWAP1 POP JUMP JUMPDEST PUSH1 0x0 PUSH1 0x20 DUP3 ADD SWAP1 POP DUP2 DUP2 SUB PUSH1 0x0 DUP4 ADD MSTORE PUSH2 0x1F5C DUP2 PUSH2 0x1F20 JUMP JUMPDEST SWAP1 POP SWAP2 SWAP1 POP JUMP JUMPDEST PUSH32 0x45524332303A207472616E7366657220746F20746865207A65726F2061646472 PUSH1 0x0 DUP3 ADD MSTORE PUSH32 0x6573730000000000000000000000000000000000000000000000000000000000 PUSH1 0x20 DUP3 ADD MSTORE POP JUMP JUMPDEST PUSH1 0x0 PUSH2 0x1FBF PUSH1 0x23 DUP4 PUSH2 0x145B JUMP JUMPDEST SWAP2 POP PUSH2 0x1FCA DUP3 PUSH2 0x1F63 JUMP JUMPDEST PUSH1 0x40 DUP3 ADD SWAP1 POP SWAP2 SWAP1 POP JUMP JUMPDEST PUSH1 0x0 PUSH1 0x20 DUP3 ADD SWAP1 POP DUP2 DUP2 SUB PUSH1 0x0 DUP4 ADD MSTORE PUSH2 0x1FEE DUP2 PUSH2 0x1FB2 JUMP JUMPDEST SWAP1 POP SWAP2 SWAP1 POP JUMP JUMPDEST PUSH32 0x45524332303A207472616E7366657220616D6F756E7420657863656564732062 PUSH1 0x0 DUP3 ADD MSTORE PUSH32 0x616C616E63650000000000000000000000000000000000000000000000000000 PUSH1 0x20 DUP3 ADD MSTORE POP JUMP JUMPDEST PUSH1 0x0 PUSH2 0x2051 PUSH1 0x26 DUP4 PUSH2 0x145B JUMP JUMPDEST SWAP2 POP PUSH2 0x205C DUP3 PUSH2 0x1FF5 JUMP JUMPDEST PUSH1 0x40 DUP3 ADD SWAP1 POP SWAP2 SWAP1 POP JUMP JUMPDEST PUSH1 0x0 PUSH1 0x20 DUP3 ADD SWAP1 POP DUP2 DUP2 SUB PUSH1 0x0 DUP4 ADD MSTORE PUSH2 0x2080 DUP2 PUSH2 0x2044 JUMP JUMPDEST SWAP1 POP SWAP2 SWAP1 POP JUMP JUMPDEST PUSH1 0x0 DUP2 SWAP1 POP SWAP2 SWAP1 POP JUMP JUMPDEST PUSH2 0x20A2 PUSH2 0x209D DUP3 PUSH2 0x15DC JUMP JUMPDEST PUSH2 0x2087 JUMP JUMPDEST DUP3 MSTORE POP POP JUMP JUMPDEST PUSH1 0x0 PUSH2 0x20B4 DUP3 DUP7 PUSH2 0x2091 JUMP JUMPDEST PUSH1 0x20 DUP3 ADD SWAP2 POP PUSH2 0x20C4 DUP3 DUP6 PUSH2 0x2091 JUMP JUMPDEST PUSH1 0x20 DUP3 ADD SWAP2 POP PUSH2 0x20D4 DUP3 DUP5 PUSH2 0x2091 JUMP JUMPDEST PUSH1 0x20 DUP3 ADD SWAP2 POP DUP2 SWAP1 POP SWAP5 SWAP4 POP POP POP POP JUMP JUMPDEST PUSH32 0x4E487B7100000000000000000000000000000000000000000000000000000000 PUSH1 0x0 MSTORE PUSH1 0x41 PUSH1 0x4 MSTORE PUSH1 0x24 PUSH1 0x0 REVERT JUMPDEST PUSH32 0x4661696C656420746F2073656E6420757365722062616C616E6365206261636B PUSH1 0x0 DUP3 ADD MSTORE PUSH32 0x20746F207468652061646D696E20666565000000000000000000000000000000 PUSH1 0x20 DUP3 ADD MSTORE POP JUMP JUMPDEST PUSH1 0x0 PUSH2 0x2170 PUSH1 0x31 DUP4 PUSH2 0x145B JUMP JUMPDEST SWAP2 POP PUSH2 0x217B DUP3 PUSH2 0x2114 JUMP JUMPDEST PUSH1 0x40 DUP3 ADD SWAP1 POP SWAP2 SWAP1 POP JUMP JUMPDEST PUSH1 0x0 PUSH1 0x20 DUP3 ADD SWAP1 POP DUP2 DUP2 SUB PUSH1 0x0 DUP4 ADD MSTORE PUSH2 0x219F DUP2 PUSH2 0x2163 JUMP JUMPDEST SWAP1 POP SWAP2 SWAP1 POP JUMP INVALID LOG2 PUSH5 0x6970667358 0x22 SLT KECCAK256 0xD LOG1 SWAP2 0xA9 0x2B 0xA7 MULMOD NUMBER LT SGT 0xE7 0xEA DUP9 0xC6 0xD1 SWAP14 0xEF CREATE SWAP9 MULMOD 0xAE PUSH16 0x803C83AA9C6689F4F4B64736F6C6343 STOP ADDMOD GT STOP CALLER "
				},
				"gasEstimates": {
					"creation": {
						"codeDepositCost": "1733600",
						"executionCost": "infinite",
						"totalCost": "infinite"
					},
					"external": {
						"admin()": "2624",
						"allowance(address,address)": "infinite",
						"approve(address,uint256)": "infinite",
						"balanceOf(address)": "2952",
						"decimals()": "388",
						"decreaseAllowance(address,uint256)": "infinite",
						"enter()": "52892",
						"getBalance()": "2674",
						"getMyToken()": "2592",
						"increaseAllowance(address,uint256)": "infinite",
						"name()": "infinite",
						"pickWinner()": "infinite",
						"players(uint256)": "5044",
						"symbol()": "infinite",
						"tokensPerEth()": "2451",
						"totalSupply()": "2527",
						"transfer(address,uint256)": "infinite",
						"transferFrom(address,address,uint256)": "infinite"
					},
					"internal": {
						"random()": "infinite",
						"resetLottery()": "infinite"
					}
				},
				"methodIdentifiers": {
					"admin()": "f851a440",
					"allowance(address,address)": "dd62ed3e",
					"approve(address,uint256)": "095ea7b3",
					"balanceOf(address)": "70a08231",
					"decimals()": "313ce567",
					"decreaseAllowance(address,uint256)": "a457c2d7",
					"enter()": "e97dcb62",
					"getBalance()": "12065fe0",
					"getMyToken()": "7cdf7547",
					"increaseAllowance(address,uint256)": "39509351",
					"name()": "06fdde03",
					"pickWinner()": "5d495aea",
					"players(uint256)": "f71d96cb",
					"symbol()": "95d89b41",
					"tokensPerEth()": "cbdd69b5",
					"totalSupply()": "18160ddd",
					"transfer(address,uint256)": "a9059cbb",
					"transferFrom(address,address,uint256)": "23b872dd"
				}
			},
			"storageLayout": {
				"storage": [
					{
						"astId": 15,
						"contract": "contracts/Lottery.sol:Lottery",
						"label": "_balances",
						"offset": 0,
						"slot": "0",
						"type": "t_mapping(t_address,t_uint256)"
					},
					{
						"astId": 21,
						"contract": "contracts/Lottery.sol:Lottery",
						"label": "_allowances",
						"offset": 0,
						"slot": "1",
						"type": "t_mapping(t_address,t_mapping(t_address,t_uint256))"
					},
					{
						"astId": 23,
						"contract": "contracts/Lottery.sol:Lottery",
						"label": "_totalSupply",
						"offset": 0,
						"slot": "2",
						"type": "t_uint256"
					},
					{
						"astId": 25,
						"contract": "contracts/Lottery.sol:Lottery",
						"label": "_name",
						"offset": 0,
						"slot": "3",
						"type": "t_string_storage"
					},
					{
						"astId": 27,
						"contract": "contracts/Lottery.sol:Lottery",
						"label": "_symbol",
						"offset": 0,
						"slot": "4",
						"type": "t_string_storage"
					},
					{
						"astId": 719,
						"contract": "contracts/Lottery.sol:Lottery",
						"label": "players",
						"offset": 0,
						"slot": "5",
						"type": "t_array(t_address_payable)dyn_storage"
					},
					{
						"astId": 721,
						"contract": "contracts/Lottery.sol:Lottery",
						"label": "admin",
						"offset": 0,
						"slot": "6",
						"type": "t_address"
					},
					{
						"astId": 724,
						"contract": "contracts/Lottery.sol:Lottery",
						"label": "tokensPerEth",
						"offset": 0,
						"slot": "7",
						"type": "t_uint256"
					}
				],
				"types": {
					"t_address": {
						"encoding": "inplace",
						"label": "address",
						"numberOfBytes": "20"
					},
					"t_address_payable": {
						"encoding": "inplace",
						"label": "address payable",
						"numberOfBytes": "20"
					},
					"t_array(t_address_payable)dyn_storage": {
						"base": "t_address_payable",
						"encoding": "dynamic_array",
						"label": "address payable[]",
						"numberOfBytes": "32"
					},
					"t_mapping(t_address,t_mapping(t_address,t_uint256))": {
						"encoding": "mapping",
						"key": "t_address",
						"label": "mapping(address => mapping(address => uint256))",
						"numberOfBytes": "32",
						"value": "t_mapping(t_address,t_uint256)"
					},
					"t_mapping(t_address,t_uint256)": {
						"encoding": "mapping",
						"key": "t_address",
						"label": "mapping(address => uint256)",
						"numberOfBytes": "32",
						"value": "t_uint256"
					},
					"t_string_storage": {
						"encoding": "bytes",
						"label": "string",
						"numberOfBytes": "32"
					},
					"t_uint256": {
						"encoding": "inplace",
						"label": "uint256",
						"numberOfBytes": "32"
					}
				}
			},
			"userdoc": {
				"kind": "user",
				"methods": {},
				"version": 1
			}
		}
	}
}