{
	"data": {
		"bytecode": {
			"linkReferences": {},
			"object": "608060405234801561001057600080fd5b50610abd806100206000396000f3fe608060405234801561001057600080fd5b50600436106100365760003560e01c8063055fadf71461003b57806362f94d4f1461006b575b600080fd5b6100556004803603810190610050919061043e565b61009b565b6040516100629190610662565b60405180910390f35b61008560048036038101906100809190610395565b61026c565b6040516100929190610684565b60405180910390f35b60606000608283516100ad91906107cf565b9050600081116100f2576040517f08c379a00000000000000000000000000000000000000000000000000000000081526004016100e9906106e4565b60405180910390fd5b60008060008060005b858110156102605761010d88826102b7565b80945081955082965050505060018960405160200161012c91906105db565b6040516020818303038152906040528051906020012085858560405160008152602001604052604051610162949392919061069f565b6020604051602081039080840390855afa158015610184573d6000803e3d6000fd5b505050602060405103519450600073ffffffffffffffffffffffffffffffffffffffff168573ffffffffffffffffffffffffffffffffffffffff16116101ff576040517f08c379a00000000000000000000000000000000000000000000000000000000081526004016101f690610704565b60405180910390fd5b8487828151811061021357610212610944565b5b602002602001019073ffffffffffffffffffffffffffffffffffffffff16908173ffffffffffffffffffffffffffffffffffffffff1681525050808061025890610893565b9150506100fb565b50505050505092915050565b6000808787878051906020012086888760405160200161029196959493929190610601565b604051602081830303815290604052805190602001209050809150509695505050505050565b60008060008360410260208101860151925060408101860151915060ff60418201870151169350509250925092565b60006102f96102f484610749565b610724565b905082815260208101848484011115610315576103146109a7565b5b610320848285610853565b509392505050565b60008135905061033781610a42565b92915050565b60008135905061034c81610a59565b92915050565b600082601f830112610367576103666109a2565b5b81356103778482602086016102e6565b91505092915050565b60008135905061038f81610a70565b92915050565b60008060008060008060c087890312156103b2576103b16109b1565b5b60006103c089828a01610328565b96505060206103d189828a01610380565b955050604087013567ffffffffffffffff8111156103f2576103f16109ac565b5b6103fe89828a01610352565b945050606061040f89828a01610380565b935050608061042089828a01610380565b92505060a061043189828a01610380565b9150509295509295509295565b60008060408385031215610455576104546109b1565b5b60006104638582860161033d565b925050602083013567ffffffffffffffff811115610484576104836109ac565b5b61049085828601610352565b9150509250929050565b60006104a683836104b2565b60208301905092915050565b6104bb81610800565b82525050565b6104ca81610800565b82525050565b60006104db8261078a565b6104e581856107a2565b93506104f08361077a565b8060005b83811015610521578151610508888261049a565b975061051383610795565b9250506001810190506104f4565b5085935050505092915050565b61053781610812565b82525050565b61054e61054982610812565b6108dc565b82525050565b6000610561601c836107c4565b915061056c826109c7565b601c82019050919050565b60006105846015836107b3565b915061058f826109f0565b602082019050919050565b60006105a76020836107b3565b91506105b282610a19565b602082019050919050565b6105c68161083c565b82525050565b6105d581610846565b82525050565b60006105e682610554565b91506105f2828461053d565b60208201915081905092915050565b600060c08201905061061660008301896104c1565b61062360208301886105bd565b610630604083018761052e565b61063d60608301866105bd565b61064a60808301856105bd565b61065760a08301846105bd565b979650505050505050565b6000602082019050818103600083015261067c81846104d0565b905092915050565b6000602082019050610699600083018461052e565b92915050565b60006080820190506106b4600083018761052e565b6106c160208301866105cc565b6106ce604083018561052e565b6106db606083018461052e565b95945050505050565b600060208201905081810360008301526106fd81610577565b9050919050565b6000602082019050818103600083015261071d8161059a565b9050919050565b600061072e61073f565b905061073a8282610862565b919050565b6000604051905090565b600067ffffffffffffffff82111561076457610763610973565b5b61076d826109b6565b9050602081019050919050565b6000819050602082019050919050565b600081519050919050565b6000602082019050919050565b600082825260208201905092915050565b600082825260208201905092915050565b600081905092915050565b60006107da8261083c565b91506107e58361083c565b9250826107f5576107f4610915565b5b828204905092915050565b600061080b8261081c565b9050919050565b6000819050919050565b600073ffffffffffffffffffffffffffffffffffffffff82169050919050565b6000819050919050565b600060ff82169050919050565b82818337600083830152505050565b61086b826109b6565b810181811067ffffffffffffffff8211171561088a57610889610973565b5b80604052505050565b600061089e8261083c565b91507fffffffffffffffffffffffffffffffffffffffffffffffffffffffffffffffff8214156108d1576108d06108e6565b5b600182019050919050565b6000819050919050565b7f4e487b7100000000000000000000000000000000000000000000000000000000600052601160045260246000fd5b7f4e487b7100000000000000000000000000000000000000000000000000000000600052601260045260246000fd5b7f4e487b7100000000000000000000000000000000000000000000000000000000600052603260045260246000fd5b7f4e487b7100000000000000000000000000000000000000000000000000000000600052604160045260246000fd5b600080fd5b600080fd5b600080fd5b600080fd5b6000601f19601f8301169050919050565b7f19457468657265756d205369676e6564204d6573736167653a0a333200000000600082015250565b7f7369676e61747572657320697320746f6f206c6f770000000000000000000000600082015250565b7f63757272656e744f776e6572203e206c6173744f776e65722057544635303037600082015250565b610a4b81610800565b8114610a5657600080fd5b50565b610a6281610812565b8114610a6d57600080fd5b50565b610a798161083c565b8114610a8457600080fd5b5056fea26469706673582212205dd0ecf6e73ebda101d27b8b9413ce356dd11068bd80ba65db4756fb88c0981f64736f6c63430008060033",
			"opcodes": "PUSH1 0x80 PUSH1 0x40 MSTORE CALLVALUE DUP1 ISZERO PUSH2 0x10 JUMPI PUSH1 0x0 DUP1 REVERT JUMPDEST POP PUSH2 0xABD DUP1 PUSH2 0x20 PUSH1 0x0 CODECOPY PUSH1 0x0 RETURN INVALID PUSH1 0x80 PUSH1 0x40 MSTORE CALLVALUE DUP1 ISZERO PUSH2 0x10 JUMPI PUSH1 0x0 DUP1 REVERT JUMPDEST POP PUSH1 0x4 CALLDATASIZE LT PUSH2 0x36 JUMPI PUSH1 0x0 CALLDATALOAD PUSH1 0xE0 SHR DUP1 PUSH4 0x55FADF7 EQ PUSH2 0x3B JUMPI DUP1 PUSH4 0x62F94D4F EQ PUSH2 0x6B JUMPI JUMPDEST PUSH1 0x0 DUP1 REVERT JUMPDEST PUSH2 0x55 PUSH1 0x4 DUP1 CALLDATASIZE SUB DUP2 ADD SWAP1 PUSH2 0x50 SWAP2 SWAP1 PUSH2 0x43E JUMP JUMPDEST PUSH2 0x9B JUMP JUMPDEST PUSH1 0x40 MLOAD PUSH2 0x62 SWAP2 SWAP1 PUSH2 0x662 JUMP JUMPDEST PUSH1 0x40 MLOAD DUP1 SWAP2 SUB SWAP1 RETURN JUMPDEST PUSH2 0x85 PUSH1 0x4 DUP1 CALLDATASIZE SUB DUP2 ADD SWAP1 PUSH2 0x80 SWAP2 SWAP1 PUSH2 0x395 JUMP JUMPDEST PUSH2 0x26C JUMP JUMPDEST PUSH1 0x40 MLOAD PUSH2 0x92 SWAP2 SWAP1 PUSH2 0x684 JUMP JUMPDEST PUSH1 0x40 MLOAD DUP1 SWAP2 SUB SWAP1 RETURN JUMPDEST PUSH1 0x60 PUSH1 0x0 PUSH1 0x82 DUP4 MLOAD PUSH2 0xAD SWAP2 SWAP1 PUSH2 0x7CF JUMP JUMPDEST SWAP1 POP PUSH1 0x0 DUP2 GT PUSH2 0xF2 JUMPI PUSH1 0x40 MLOAD PUSH32 0x8C379A000000000000000000000000000000000000000000000000000000000 DUP2 MSTORE PUSH1 0x4 ADD PUSH2 0xE9 SWAP1 PUSH2 0x6E4 JUMP JUMPDEST PUSH1 0x40 MLOAD DUP1 SWAP2 SUB SWAP1 REVERT JUMPDEST PUSH1 0x0 DUP1 PUSH1 0x0 DUP1 PUSH1 0x0 JUMPDEST DUP6 DUP2 LT ISZERO PUSH2 0x260 JUMPI PUSH2 0x10D DUP9 DUP3 PUSH2 0x2B7 JUMP JUMPDEST DUP1 SWAP5 POP DUP2 SWAP6 POP DUP3 SWAP7 POP POP POP POP PUSH1 0x1 DUP10 PUSH1 0x40 MLOAD PUSH1 0x20 ADD PUSH2 0x12C SWAP2 SWAP1 PUSH2 0x5DB JUMP JUMPDEST PUSH1 0x40 MLOAD PUSH1 0x20 DUP2 DUP4 SUB SUB DUP2 MSTORE SWAP1 PUSH1 0x40 MSTORE DUP1 MLOAD SWAP1 PUSH1 0x20 ADD KECCAK256 DUP6 DUP6 DUP6 PUSH1 0x40 MLOAD PUSH1 0x0 DUP2 MSTORE PUSH1 0x20 ADD PUSH1 0x40 MSTORE PUSH1 0x40 MLOAD PUSH2 0x162 SWAP5 SWAP4 SWAP3 SWAP2 SWAP1 PUSH2 0x69F JUMP JUMPDEST PUSH1 0x20 PUSH1 0x40 MLOAD PUSH1 0x20 DUP2 SUB SWAP1 DUP1 DUP5 SUB SWAP1 DUP6 GAS STATICCALL ISZERO DUP1 ISZERO PUSH2 0x184 JUMPI RETURNDATASIZE PUSH1 0x0 DUP1 RETURNDATACOPY RETURNDATASIZE PUSH1 0x0 REVERT JUMPDEST POP POP POP PUSH1 0x20 PUSH1 0x40 MLOAD SUB MLOAD SWAP5 POP PUSH1 0x0 PUSH20 0xFFFFFFFFFFFFFFFFFFFFFFFFFFFFFFFFFFFFFFFF AND DUP6 PUSH20 0xFFFFFFFFFFFFFFFFFFFFFFFFFFFFFFFFFFFFFFFF AND GT PUSH2 0x1FF JUMPI PUSH1 0x40 MLOAD PUSH32 0x8C379A000000000000000000000000000000000000000000000000000000000 DUP2 MSTORE PUSH1 0x4 ADD PUSH2 0x1F6 SWAP1 PUSH2 0x704 JUMP JUMPDEST PUSH1 0x40 MLOAD DUP1 SWAP2 SUB SWAP1 REVERT JUMPDEST DUP5 DUP8 DUP3 DUP2 MLOAD DUP2 LT PUSH2 0x213 JUMPI PUSH2 0x212 PUSH2 0x944 JUMP JUMPDEST JUMPDEST PUSH1 0x20 MUL PUSH1 0x20 ADD ADD SWAP1 PUSH20 0xFFFFFFFFFFFFFFFFFFFFFFFFFFFFFFFFFFFFFFFF AND SWAP1 DUP2 PUSH20 0xFFFFFFFFFFFFFFFFFFFFFFFFFFFFFFFFFFFFFFFF AND DUP2 MSTORE POP POP DUP1 DUP1 PUSH2 0x258 SWAP1 PUSH2 0x893 JUMP JUMPDEST SWAP2 POP POP PUSH2 0xFB JUMP JUMPDEST POP POP POP POP POP POP SWAP3 SWAP2 POP POP JUMP JUMPDEST PUSH1 0x0 DUP1 DUP8 DUP8 DUP8 DUP1 MLOAD SWAP1 PUSH1 0x20 ADD KECCAK256 DUP7 DUP9 DUP8 PUSH1 0x40 MLOAD PUSH1 0x20 ADD PUSH2 0x291 SWAP7 SWAP6 SWAP5 SWAP4 SWAP3 SWAP2 SWAP1 PUSH2 0x601 JUMP JUMPDEST PUSH1 0x40 MLOAD PUSH1 0x20 DUP2 DUP4 SUB SUB DUP2 MSTORE SWAP1 PUSH1 0x40 MSTORE DUP1 MLOAD SWAP1 PUSH1 0x20 ADD KECCAK256 SWAP1 POP DUP1 SWAP2 POP POP SWAP7 SWAP6 POP POP POP POP POP POP JUMP JUMPDEST PUSH1 0x0 DUP1 PUSH1 0x0 DUP4 PUSH1 0x41 MUL PUSH1 0x20 DUP2 ADD DUP7 ADD MLOAD SWAP3 POP PUSH1 0x40 DUP2 ADD DUP7 ADD MLOAD SWAP2 POP PUSH1 0xFF PUSH1 0x41 DUP3 ADD DUP8 ADD MLOAD AND SWAP4 POP POP SWAP3 POP SWAP3 POP SWAP3 JUMP JUMPDEST PUSH1 0x0 PUSH2 0x2F9 PUSH2 0x2F4 DUP5 PUSH2 0x749 JUMP JUMPDEST PUSH2 0x724 JUMP JUMPDEST SWAP1 POP DUP3 DUP2 MSTORE PUSH1 0x20 DUP2 ADD DUP5 DUP5 DUP5 ADD GT ISZERO PUSH2 0x315 JUMPI PUSH2 0x314 PUSH2 0x9A7 JUMP JUMPDEST JUMPDEST PUSH2 0x320 DUP5 DUP3 DUP6 PUSH2 0x853 JUMP JUMPDEST POP SWAP4 SWAP3 POP POP POP JUMP JUMPDEST PUSH1 0x0 DUP2 CALLDATALOAD SWAP1 POP PUSH2 0x337 DUP2 PUSH2 0xA42 JUMP JUMPDEST SWAP3 SWAP2 POP POP JUMP JUMPDEST PUSH1 0x0 DUP2 CALLDATALOAD SWAP1 POP PUSH2 0x34C DUP2 PUSH2 0xA59 JUMP JUMPDEST SWAP3 SWAP2 POP POP JUMP JUMPDEST PUSH1 0x0 DUP3 PUSH1 0x1F DUP4 ADD SLT PUSH2 0x367 JUMPI PUSH2 0x366 PUSH2 0x9A2 JUMP JUMPDEST JUMPDEST DUP2 CALLDATALOAD PUSH2 0x377 DUP5 DUP3 PUSH1 0x20 DUP7 ADD PUSH2 0x2E6 JUMP JUMPDEST SWAP2 POP POP SWAP3 SWAP2 POP POP JUMP JUMPDEST PUSH1 0x0 DUP2 CALLDATALOAD SWAP1 POP PUSH2 0x38F DUP2 PUSH2 0xA70 JUMP JUMPDEST SWAP3 SWAP2 POP POP JUMP JUMPDEST PUSH1 0x0 DUP1 PUSH1 0x0 DUP1 PUSH1 0x0 DUP1 PUSH1 0xC0 DUP8 DUP10 SUB SLT ISZERO PUSH2 0x3B2 JUMPI PUSH2 0x3B1 PUSH2 0x9B1 JUMP JUMPDEST JUMPDEST PUSH1 0x0 PUSH2 0x3C0 DUP10 DUP3 DUP11 ADD PUSH2 0x328 JUMP JUMPDEST SWAP7 POP POP PUSH1 0x20 PUSH2 0x3D1 DUP10 DUP3 DUP11 ADD PUSH2 0x380 JUMP JUMPDEST SWAP6 POP POP PUSH1 0x40 DUP8 ADD CALLDATALOAD PUSH8 0xFFFFFFFFFFFFFFFF DUP2 GT ISZERO PUSH2 0x3F2 JUMPI PUSH2 0x3F1 PUSH2 0x9AC JUMP JUMPDEST JUMPDEST PUSH2 0x3FE DUP10 DUP3 DUP11 ADD PUSH2 0x352 JUMP JUMPDEST SWAP5 POP POP PUSH1 0x60 PUSH2 0x40F DUP10 DUP3 DUP11 ADD PUSH2 0x380 JUMP JUMPDEST SWAP4 POP POP PUSH1 0x80 PUSH2 0x420 DUP10 DUP3 DUP11 ADD PUSH2 0x380 JUMP JUMPDEST SWAP3 POP POP PUSH1 0xA0 PUSH2 0x431 DUP10 DUP3 DUP11 ADD PUSH2 0x380 JUMP JUMPDEST SWAP2 POP POP SWAP3 SWAP6 POP SWAP3 SWAP6 POP SWAP3 SWAP6 JUMP JUMPDEST PUSH1 0x0 DUP1 PUSH1 0x40 DUP4 DUP6 SUB SLT ISZERO PUSH2 0x455 JUMPI PUSH2 0x454 PUSH2 0x9B1 JUMP JUMPDEST JUMPDEST PUSH1 0x0 PUSH2 0x463 DUP6 DUP3 DUP7 ADD PUSH2 0x33D JUMP JUMPDEST SWAP3 POP POP PUSH1 0x20 DUP4 ADD CALLDATALOAD PUSH8 0xFFFFFFFFFFFFFFFF DUP2 GT ISZERO PUSH2 0x484 JUMPI PUSH2 0x483 PUSH2 0x9AC JUMP JUMPDEST JUMPDEST PUSH2 0x490 DUP6 DUP3 DUP7 ADD PUSH2 0x352 JUMP JUMPDEST SWAP2 POP POP SWAP3 POP SWAP3 SWAP1 POP JUMP JUMPDEST PUSH1 0x0 PUSH2 0x4A6 DUP4 DUP4 PUSH2 0x4B2 JUMP JUMPDEST PUSH1 0x20 DUP4 ADD SWAP1 POP SWAP3 SWAP2 POP POP JUMP JUMPDEST PUSH2 0x4BB DUP2 PUSH2 0x800 JUMP JUMPDEST DUP3 MSTORE POP POP JUMP JUMPDEST PUSH2 0x4CA DUP2 PUSH2 0x800 JUMP JUMPDEST DUP3 MSTORE POP POP JUMP JUMPDEST PUSH1 0x0 PUSH2 0x4DB DUP3 PUSH2 0x78A JUMP JUMPDEST PUSH2 0x4E5 DUP2 DUP6 PUSH2 0x7A2 JUMP JUMPDEST SWAP4 POP PUSH2 0x4F0 DUP4 PUSH2 0x77A JUMP JUMPDEST DUP1 PUSH1 0x0 JUMPDEST DUP4 DUP2 LT ISZERO PUSH2 0x521 JUMPI DUP2 MLOAD PUSH2 0x508 DUP9 DUP3 PUSH2 0x49A JUMP JUMPDEST SWAP8 POP PUSH2 0x513 DUP4 PUSH2 0x795 JUMP JUMPDEST SWAP3 POP POP PUSH1 0x1 DUP2 ADD SWAP1 POP PUSH2 0x4F4 JUMP JUMPDEST POP DUP6 SWAP4 POP POP POP POP SWAP3 SWAP2 POP POP JUMP JUMPDEST PUSH2 0x537 DUP2 PUSH2 0x812 JUMP JUMPDEST DUP3 MSTORE POP POP JUMP JUMPDEST PUSH2 0x54E PUSH2 0x549 DUP3 PUSH2 0x812 JUMP JUMPDEST PUSH2 0x8DC JUMP JUMPDEST DUP3 MSTORE POP POP JUMP JUMPDEST PUSH1 0x0 PUSH2 0x561 PUSH1 0x1C DUP4 PUSH2 0x7C4 JUMP JUMPDEST SWAP2 POP PUSH2 0x56C DUP3 PUSH2 0x9C7 JUMP JUMPDEST PUSH1 0x1C DUP3 ADD SWAP1 POP SWAP2 SWAP1 POP JUMP JUMPDEST PUSH1 0x0 PUSH2 0x584 PUSH1 0x15 DUP4 PUSH2 0x7B3 JUMP JUMPDEST SWAP2 POP PUSH2 0x58F DUP3 PUSH2 0x9F0 JUMP JUMPDEST PUSH1 0x20 DUP3 ADD SWAP1 POP SWAP2 SWAP1 POP JUMP JUMPDEST PUSH1 0x0 PUSH2 0x5A7 PUSH1 0x20 DUP4 PUSH2 0x7B3 JUMP JUMPDEST SWAP2 POP PUSH2 0x5B2 DUP3 PUSH2 0xA19 JUMP JUMPDEST PUSH1 0x20 DUP3 ADD SWAP1 POP SWAP2 SWAP1 POP JUMP JUMPDEST PUSH2 0x5C6 DUP2 PUSH2 0x83C JUMP JUMPDEST DUP3 MSTORE POP POP JUMP JUMPDEST PUSH2 0x5D5 DUP2 PUSH2 0x846 JUMP JUMPDEST DUP3 MSTORE POP POP JUMP JUMPDEST PUSH1 0x0 PUSH2 0x5E6 DUP3 PUSH2 0x554 JUMP JUMPDEST SWAP2 POP PUSH2 0x5F2 DUP3 DUP5 PUSH2 0x53D JUMP JUMPDEST PUSH1 0x20 DUP3 ADD SWAP2 POP DUP2 SWAP1 POP SWAP3 SWAP2 POP POP JUMP JUMPDEST PUSH1 0x0 PUSH1 0xC0 DUP3 ADD SWAP1 POP PUSH2 0x616 PUSH1 0x0 DUP4 ADD DUP10 PUSH2 0x4C1 JUMP JUMPDEST PUSH2 0x623 PUSH1 0x20 DUP4 ADD DUP9 PUSH2 0x5BD JUMP JUMPDEST PUSH2 0x630 PUSH1 0x40 DUP4 ADD DUP8 PUSH2 0x52E JUMP JUMPDEST PUSH2 0x63D PUSH1 0x60 DUP4 ADD DUP7 PUSH2 0x5BD JUMP JUMPDEST PUSH2 0x64A PUSH1 0x80 DUP4 ADD DUP6 PUSH2 0x5BD JUMP JUMPDEST PUSH2 0x657 PUSH1 0xA0 DUP4 ADD DUP5 PUSH2 0x5BD JUMP JUMPDEST SWAP8 SWAP7 POP POP POP POP POP POP POP JUMP JUMPDEST PUSH1 0x0 PUSH1 0x20 DUP3 ADD SWAP1 POP DUP2 DUP2 SUB PUSH1 0x0 DUP4 ADD MSTORE PUSH2 0x67C DUP2 DUP5 PUSH2 0x4D0 JUMP JUMPDEST SWAP1 POP SWAP3 SWAP2 POP POP JUMP JUMPDEST PUSH1 0x0 PUSH1 0x20 DUP3 ADD SWAP1 POP PUSH2 0x699 PUSH1 0x0 DUP4 ADD DUP5 PUSH2 0x52E JUMP JUMPDEST SWAP3 SWAP2 POP POP JUMP JUMPDEST PUSH1 0x0 PUSH1 0x80 DUP3 ADD SWAP1 POP PUSH2 0x6B4 PUSH1 0x0 DUP4 ADD DUP8 PUSH2 0x52E JUMP JUMPDEST PUSH2 0x6C1 PUSH1 0x20 DUP4 ADD DUP7 PUSH2 0x5CC JUMP JUMPDEST PUSH2 0x6CE PUSH1 0x40 DUP4 ADD DUP6 PUSH2 0x52E JUMP JUMPDEST PUSH2 0x6DB PUSH1 0x60 DUP4 ADD DUP5 PUSH2 0x52E JUMP JUMPDEST SWAP6 SWAP5 POP POP POP POP POP JUMP JUMPDEST PUSH1 0x0 PUSH1 0x20 DUP3 ADD SWAP1 POP DUP2 DUP2 SUB PUSH1 0x0 DUP4 ADD MSTORE PUSH2 0x6FD DUP2 PUSH2 0x577 JUMP JUMPDEST SWAP1 POP SWAP2 SWAP1 POP JUMP JUMPDEST PUSH1 0x0 PUSH1 0x20 DUP3 ADD SWAP1 POP DUP2 DUP2 SUB PUSH1 0x0 DUP4 ADD MSTORE PUSH2 0x71D DUP2 PUSH2 0x59A JUMP JUMPDEST SWAP1 POP SWAP2 SWAP1 POP JUMP JUMPDEST PUSH1 0x0 PUSH2 0x72E PUSH2 0x73F JUMP JUMPDEST SWAP1 POP PUSH2 0x73A DUP3 DUP3 PUSH2 0x862 JUMP JUMPDEST SWAP2 SWAP1 POP JUMP JUMPDEST PUSH1 0x0 PUSH1 0x40 MLOAD SWAP1 POP SWAP1 JUMP JUMPDEST PUSH1 0x0 PUSH8 0xFFFFFFFFFFFFFFFF DUP3 GT ISZERO PUSH2 0x764 JUMPI PUSH2 0x763 PUSH2 0x973 JUMP JUMPDEST JUMPDEST PUSH2 0x76D DUP3 PUSH2 0x9B6 JUMP JUMPDEST SWAP1 POP PUSH1 0x20 DUP2 ADD SWAP1 POP SWAP2 SWAP1 POP JUMP JUMPDEST PUSH1 0x0 DUP2 SWAP1 POP PUSH1 0x20 DUP3 ADD SWAP1 POP SWAP2 SWAP1 POP JUMP JUMPDEST PUSH1 0x0 DUP2 MLOAD SWAP1 POP SWAP2 SWAP1 POP JUMP JUMPDEST PUSH1 0x0 PUSH1 0x20 DUP3 ADD SWAP1 POP SWAP2 SWAP1 POP JUMP JUMPDEST PUSH1 0x0 DUP3 DUP3 MSTORE PUSH1 0x20 DUP3 ADD SWAP1 POP SWAP3 SWAP2 POP POP JUMP JUMPDEST PUSH1 0x0 DUP3 DUP3 MSTORE PUSH1 0x20 DUP3 ADD SWAP1 POP SWAP3 SWAP2 POP POP JUMP JUMPDEST PUSH1 0x0 DUP2 SWAP1 POP SWAP3 SWAP2 POP POP JUMP JUMPDEST PUSH1 0x0 PUSH2 0x7DA DUP3 PUSH2 0x83C JUMP JUMPDEST SWAP2 POP PUSH2 0x7E5 DUP4 PUSH2 0x83C JUMP JUMPDEST SWAP3 POP DUP3 PUSH2 0x7F5 JUMPI PUSH2 0x7F4 PUSH2 0x915 JUMP JUMPDEST JUMPDEST DUP3 DUP3 DIV SWAP1 POP SWAP3 SWAP2 POP POP JUMP JUMPDEST PUSH1 0x0 PUSH2 0x80B DUP3 PUSH2 0x81C JUMP JUMPDEST SWAP1 POP SWAP2 SWAP1 POP JUMP JUMPDEST PUSH1 0x0 DUP2 SWAP1 POP SWAP2 SWAP1 POP JUMP JUMPDEST PUSH1 0x0 PUSH20 0xFFFFFFFFFFFFFFFFFFFFFFFFFFFFFFFFFFFFFFFF DUP3 AND SWAP1 POP SWAP2 SWAP1 POP JUMP JUMPDEST PUSH1 0x0 DUP2 SWAP1 POP SWAP2 SWAP1 POP JUMP JUMPDEST PUSH1 0x0 PUSH1 0xFF DUP3 AND SWAP1 POP SWAP2 SWAP1 POP JUMP JUMPDEST DUP3 DUP2 DUP4 CALLDATACOPY PUSH1 0x0 DUP4 DUP4 ADD MSTORE POP POP POP JUMP JUMPDEST PUSH2 0x86B DUP3 PUSH2 0x9B6 JUMP JUMPDEST DUP2 ADD DUP2 DUP2 LT PUSH8 0xFFFFFFFFFFFFFFFF DUP3 GT OR ISZERO PUSH2 0x88A JUMPI PUSH2 0x889 PUSH2 0x973 JUMP JUMPDEST JUMPDEST DUP1 PUSH1 0x40 MSTORE POP POP POP JUMP JUMPDEST PUSH1 0x0 PUSH2 0x89E DUP3 PUSH2 0x83C JUMP JUMPDEST SWAP2 POP PUSH32 0xFFFFFFFFFFFFFFFFFFFFFFFFFFFFFFFFFFFFFFFFFFFFFFFFFFFFFFFFFFFFFFFF DUP3 EQ ISZERO PUSH2 0x8D1 JUMPI PUSH2 0x8D0 PUSH2 0x8E6 JUMP JUMPDEST JUMPDEST PUSH1 0x1 DUP3 ADD SWAP1 POP SWAP2 SWAP1 POP JUMP JUMPDEST PUSH1 0x0 DUP2 SWAP1 POP SWAP2 SWAP1 POP JUMP JUMPDEST PUSH32 0x4E487B7100000000000000000000000000000000000000000000000000000000 PUSH1 0x0 MSTORE PUSH1 0x11 PUSH1 0x4 MSTORE PUSH1 0x24 PUSH1 0x0 REVERT JUMPDEST PUSH32 0x4E487B7100000000000000000000000000000000000000000000000000000000 PUSH1 0x0 MSTORE PUSH1 0x12 PUSH1 0x4 MSTORE PUSH1 0x24 PUSH1 0x0 REVERT JUMPDEST PUSH32 0x4E487B7100000000000000000000000000000000000000000000000000000000 PUSH1 0x0 MSTORE PUSH1 0x32 PUSH1 0x4 MSTORE PUSH1 0x24 PUSH1 0x0 REVERT JUMPDEST PUSH32 0x4E487B7100000000000000000000000000000000000000000000000000000000 PUSH1 0x0 MSTORE PUSH1 0x41 PUSH1 0x4 MSTORE PUSH1 0x24 PUSH1 0x0 REVERT JUMPDEST PUSH1 0x0 DUP1 REVERT JUMPDEST PUSH1 0x0 DUP1 REVERT JUMPDEST PUSH1 0x0 DUP1 REVERT JUMPDEST PUSH1 0x0 DUP1 REVERT JUMPDEST PUSH1 0x0 PUSH1 0x1F NOT PUSH1 0x1F DUP4 ADD AND SWAP1 POP SWAP2 SWAP1 POP JUMP JUMPDEST PUSH32 0x19457468657265756D205369676E6564204D6573736167653A0A333200000000 PUSH1 0x0 DUP3 ADD MSTORE POP JUMP JUMPDEST PUSH32 0x7369676E61747572657320697320746F6F206C6F770000000000000000000000 PUSH1 0x0 DUP3 ADD MSTORE POP JUMP JUMPDEST PUSH32 0x63757272656E744F776E6572203E206C6173744F776E65722057544635303037 PUSH1 0x0 DUP3 ADD MSTORE POP JUMP JUMPDEST PUSH2 0xA4B DUP2 PUSH2 0x800 JUMP JUMPDEST DUP2 EQ PUSH2 0xA56 JUMPI PUSH1 0x0 DUP1 REVERT JUMPDEST POP JUMP JUMPDEST PUSH2 0xA62 DUP2 PUSH2 0x812 JUMP JUMPDEST DUP2 EQ PUSH2 0xA6D JUMPI PUSH1 0x0 DUP1 REVERT JUMPDEST POP JUMP JUMPDEST PUSH2 0xA79 DUP2 PUSH2 0x83C JUMP JUMPDEST DUP2 EQ PUSH2 0xA84 JUMPI PUSH1 0x0 DUP1 REVERT JUMPDEST POP JUMP INVALID LOG2 PUSH5 0x6970667358 0x22 SLT KECCAK256 0x5D 0xD0 0xEC 0xF6 0xE7 RETURNDATACOPY 0xBD LOG1 ADD 0xD2 PUSH28 0x8B9413CE356DD11068BD80BA65DB4756FB88C0981F64736F6C634300 ADDMOD MOD STOP CALLER "
		},
		"gasEstimates": {
			"creation": {
				"codeDepositCost": "549800",
				"executionCost": "581",
				"totalCost": "550381"
			},
			"external": {
				"checkSignOwers(bytes32,bytes)": "infinite",
				"encodeTransactionData(address,uint256,bytes,uint256,uint256,uint256)": "infinite"
			},
			"internal": {
				"signatureSplit(bytes memory,uint256)": "infinite"
			}
		},
		"methodIdentifiers": {
			"checkSignOwers(bytes32,bytes)": "055fadf7",
			"encodeTransactionData(address,uint256,bytes,uint256,uint256,uint256)": "62f94d4f"
		}
	},
	"abi": [
		{
			"anonymous": false,
			"inputs": [
				{
					"indexed": false,
					"internalType": "bytes32",
					"name": "txHash",
					"type": "bytes32"
				}
			],
			"name": "ExecutionFailure",
			"type": "event"
		},
		{
			"anonymous": false,
			"inputs": [
				{
					"indexed": false,
					"internalType": "bytes32",
					"name": "txHash",
					"type": "bytes32"
				}
			],
			"name": "ExecutionSuccess",
			"type": "event"
		},
		{
			"inputs": [
				{
					"internalType": "bytes32",
					"name": "dataHash",
					"type": "bytes32"
				},
				{
					"internalType": "bytes",
					"name": "signatures",
					"type": "bytes"
				}
			],
			"name": "checkSignOwers",
			"outputs": [
				{
					"internalType": "address[]",
					"name": "signOwers",
					"type": "address[]"
				}
			],
			"stateMutability": "pure",
			"type": "function"
		},
		{
			"inputs": [
				{
					"internalType": "address",
					"name": "to",
					"type": "address"
				},
				{
					"internalType": "uint256",
					"name": "value",
					"type": "uint256"
				},
				{
					"internalType": "bytes",
					"name": "data",
					"type": "bytes"
				},
				{
					"internalType": "uint256",
					"name": "_nonce",
					"type": "uint256"
				},
				{
					"internalType": "uint256",
					"name": "tx_type",
					"type": "uint256"
				},
				{
					"internalType": "uint256",
					"name": "chainid",
					"type": "uint256"
				}
			],
			"name": "encodeTransactionData",
			"outputs": [
				{
					"internalType": "bytes32",
					"name": "",
					"type": "bytes32"
				}
			],
			"stateMutability": "pure",
			"type": "function"
		}
	]
}